{
  "contractName": "BondingWeightingCurveController",
  "abi": [
    {
      "inputs": [
        {
          "internalType": "address",
          "name": "vaultAddress",
          "type": "address"
        },
        {
          "internalType": "address",
          "name": "supportedWeightedPoolFactory",
          "type": "address"
        }
      ],
      "stateMutability": "nonpayable",
      "type": "constructor"
    },
    {
      "inputs": [
        {
          "internalType": "address",
          "name": "poolAddress",
          "type": "address"
        }
      ],
      "name": "calculateBalancing",
      "outputs": [
        {
          "components": [
            {
              "components": [
                {
                  "internalType": "contract IAsset[]",
                  "name": "assets",
                  "type": "address[]"
                },
                {
                  "internalType": "uint256[]",
                  "name": "minAmountsOut",
                  "type": "uint256[]"
                },
                {
                  "internalType": "bytes",
                  "name": "userData",
                  "type": "bytes"
                },
                {
                  "internalType": "bool",
                  "name": "toInternalBalance",
                  "type": "bool"
                }
              ],
              "internalType": "struct IVault.ExitPoolRequest",
              "name": "newExitRequest",
              "type": "tuple"
            },
            {
              "components": [
                {
                  "internalType": "contract IAsset[]",
                  "name": "assets",
                  "type": "address[]"
                },
                {
                  "internalType": "uint256[]",
                  "name": "maxAmountsIn",
                  "type": "uint256[]"
                },
                {
                  "internalType": "bytes",
                  "name": "userData",
                  "type": "bytes"
                },
                {
                  "internalType": "bool",
                  "name": "fromInternalBalance",
                  "type": "bool"
                }
              ],
              "internalType": "struct IVault.JoinPoolRequest",
              "name": "newJoinRequest",
              "type": "tuple"
            }
          ],
          "internalType": "struct PoolAdjustments",
          "name": "",
          "type": "tuple"
        }
      ],
      "stateMutability": "view",
      "type": "function"
    },
    {
      "inputs": [
        {
          "internalType": "string",
          "name": "name",
          "type": "string"
        },
        {
          "internalType": "string",
          "name": "symbol",
          "type": "string"
        },
        {
          "internalType": "contract IERC20[]",
          "name": "tokens",
          "type": "address[]"
        },
        {
          "internalType": "uint256[]",
          "name": "normalizedWeights",
          "type": "uint256[]"
        },
        {
          "internalType": "address[]",
          "name": "assetManagers",
          "type": "address[]"
        },
        {
          "internalType": "uint256",
          "name": "swapFeePercentage",
          "type": "uint256"
        },
        {
          "internalType": "bool",
          "name": "isSwapEnabledOnStart",
          "type": "bool"
        },
        {
          "internalType": "bool",
          "name": "isMustAllowlistLPs",
          "type": "bool"
        },
        {
          "internalType": "uint256",
          "name": "managementAumFeePercentage",
          "type": "uint256"
        },
        {
          "internalType": "uint256",
          "name": "aumFeeId",
          "type": "uint256"
        },
        {
          "internalType": "uint256",
          "name": "tolerance",
          "type": "uint256"
        },
        {
          "internalType": "bytes32",
          "name": "salt",
          "type": "bytes32"
        }
      ],
      "name": "createPool",
      "outputs": [],
      "stateMutability": "nonpayable",
      "type": "function"
    },
    {
      "inputs": [
        {
          "internalType": "uint256",
          "name": "amount",
          "type": "uint256"
        },
        {
          "internalType": "address",
          "name": "tokenAddress",
          "type": "address"
        }
      ],
      "name": "depositTokens",
      "outputs": [],
      "stateMutability": "nonpayable",
      "type": "function"
    },
    {
      "inputs": [
        {
          "internalType": "address",
          "name": "poolAddress",
          "type": "address"
        }
      ],
      "name": "getPoolId",
      "outputs": [
        {
          "internalType": "bytes32",
          "name": "",
          "type": "bytes32"
        }
      ],
      "stateMutability": "view",
      "type": "function"
    },
    {
      "inputs": [],
      "name": "getPoolsUnderManagement",
      "outputs": [
        {
          "internalType": "address[]",
          "name": "",
          "type": "address[]"
        }
      ],
      "stateMutability": "view",
      "type": "function"
    },
    {
      "inputs": [
        {
          "internalType": "address",
          "name": "value",
          "type": "address"
        }
      ],
      "name": "getTokenPrice",
      "outputs": [
        {
          "internalType": "int256",
          "name": "",
          "type": "int256"
        }
      ],
      "stateMutability": "view",
      "type": "function"
    },
    {
      "inputs": [],
      "name": "manager",
      "outputs": [
        {
          "internalType": "address",
          "name": "",
          "type": "address"
        }
      ],
      "stateMutability": "view",
      "type": "function"
    },
    {
      "inputs": [
        {
          "internalType": "address",
          "name": "supportedManager",
          "type": "address"
        }
      ],
      "name": "transferManagement",
      "outputs": [],
      "stateMutability": "nonpayable",
      "type": "function"
    },
    {
      "inputs": [],
      "name": "weightedPoolFactory",
      "outputs": [
        {
          "internalType": "contract WeightedPoolFactory",
          "name": "",
          "type": "address"
        }
      ],
      "stateMutability": "view",
      "type": "function"
    },
    {
      "inputs": [
        {
          "internalType": "address",
          "name": "",
          "type": "address"
        }
      ],
      "name": "weightedPools",
      "outputs": [
        {
          "internalType": "string",
          "name": "poolName",
          "type": "string"
        },
        {
          "internalType": "string",
          "name": "poolSymbol",
          "type": "string"
        },
        {
          "internalType": "uint256",
          "name": "tolerance",
          "type": "uint256"
        }
      ],
      "stateMutability": "view",
      "type": "function"
    },
    {
      "inputs": [
        {
          "internalType": "address",
          "name": "recipientAddress",
          "type": "address"
        },
        {
          "internalType": "address",
          "name": "tokenAddress",
          "type": "address"
        },
        {
          "internalType": "uint256",
          "name": "amount",
          "type": "uint256"
        }
      ],
      "name": "withdrawFunds",
      "outputs": [],
      "stateMutability": "nonpayable",
      "type": "function"
    },
    {
      "inputs": [
        {
          "internalType": "address",
          "name": "poolAddress",
          "type": "address"
        }
      ],
      "name": "runCheck",
      "outputs": [],
      "stateMutability": "nonpayable",
      "type": "function"
    }
  ],
  "bytecode": "0x60c06040523480156200001157600080fd5b50604051620024ed380380620024ed833981016040819052620000349162000088565b600160008190556001600160601b0319606093841b811660805281546001600160a01b0319163317909155911b1660a052620000bf565b80516001600160a01b03811681146200008357600080fd5b919050565b600080604083850312156200009b578182fd5b620000a6836200006b565b9150620000b6602084016200006b565b90509250929050565b60805160601c60a05160601c6123e66200010760003960008181610304015261112d0152600081816105b90152818161064a015281816108e401526109ec01526123e66000f3fe608060405234801561001057600080fd5b50600436106100b45760003560e01c80638722081a116100715780638722081a14610145578063ae2d96961461015a578063caa9a08d14610162578063d02641a014610182578063d62e368114610195578063e4edf852146101b7576100b4565b80631c20fadd146100b957806341bfc4bc146100ce578063481c6a75146100e15780634e4858d9146100ff5780634f6300a2146101125780634fed9acd14610125575b600080fd5b6100cc6100c7366004611ab2565b6101ca565b005b6100cc6100dc366004611c69565b61027c565b6100e96104d9565b6040516100f69190611f83565b60405180910390f35b6100cc61010d366004611a73565b6104e8565b6100cc610120366004611daa565b6106c4565b610138610133366004611a73565b610825565b6040516100f691906120b9565b61014d6110c9565b6040516100f69190611fd5565b6100e961112b565b610175610170366004611a73565b61114f565b6040516100f69190611fe8565b610175610190366004611a73565b6111c8565b6101a86101a3366004611a73565b611552565b6040516100f69392919061202d565b6100cc6101c5366004611a73565b611684565b6001546001600160a01b031633146101e157600080fd5b6101e96116bd565b6040516323b872dd60e01b815282906001600160a01b038216906323b872dd9061021b90309088908790600401611fb1565b602060405180830381600087803b15801561023557600080fd5b505af1158015610249573d6000803e3d6000fd5b505050506040513d601f19601f8201168201806040525081019061026d9190611c35565b50506102776116e7565b505050565b6001546001600160a01b0316331461029357600080fd5b61029b6116bd565b6102a36116f1565b8c8152602081018c9052604081018990526102bc611712565b8b8152602081018b905260408082018a90528815156060830152871515608083015260a0820187905260c0820186905251637304b8b960e01b81526000906001600160a01b037f00000000000000000000000000000000000000000000000000000000000000001690637304b8b99061033f908690869030908a906004016120fb565b602060405180830381600087803b15801561035957600080fd5b505af115801561036d573d6000803e3d6000fd5b505050506040513d601f19601f820116820180604052508101906103919190611a96565b90506003819080600181540180825580915050600190039060005260206000200160009091909190916101000a8154816001600160a01b0302191690836001600160a01b031602179055508e60026000836001600160a01b03166001600160a01b031681526020019081526020016000206000019080519060200190610418929190611753565b508d60026000836001600160a01b03166001600160a01b031681526020019081526020016000206001019080519060200190610455929190611753565b508460026000836001600160a01b03166001600160a01b03168152602001908152602001600020600201819055508c60026000836001600160a01b03166001600160a01b0316815260200190815260200160002060030190805190602001906104bf9291906117d7565b505050506104cb6116e7565b505050505050505050505050565b6001546001600160a01b031681565b6001546001600160a01b031633146104ff57600080fd5b6105076116bd565b600061051282610825565b905060008290506000816001600160a01b03166338fff2d06040518163ffffffff1660e01b815260040160206040518083038186803b15801561055457600080fd5b505afa158015610568573d6000803e3d6000fd5b505050506040513d601f19601f8201168201806040525081019061058c9190611c51565b6020808501510151519091501561062557602083015160405163172b958560e31b81526001600160a01b037f0000000000000000000000000000000000000000000000000000000000000000169163b95cac28916105f291859130918a91600401611ff1565b600060405180830381600087803b15801561060c57600080fd5b505af1158015610620573d6000803e3d6000fd5b505050505b82516020015151156106b6578251604051638bdb391360e01b81526001600160a01b037f00000000000000000000000000000000000000000000000000000000000000001691638bdb39139161068391859130918a91600401611ff1565b600060405180830381600087803b15801561069d57600080fd5b505af11580156106b1573d6000803e3d6000fd5b505050505b5050506106c16116e7565b50565b6001546001600160a01b031633146106db57600080fd5b6106e36116bd565b604051636eb1769f60e11b815282908290819083906001600160a01b0383169063dd62ed3e906107199033903090600401611f97565b60206040518083038186803b15801561073157600080fd5b505afa158015610745573d6000803e3d6000fd5b505050506040513d601f19601f820116820180604052508101906107699190611c51565b10156107905760405162461bcd60e51b815260040161078790612063565b60405180910390fd5b6040516323b872dd60e01b815284906001600160a01b038216906323b872dd906107c290339030908b90600401611fb1565b602060405180830381600087803b1580156107dc57600080fd5b505af11580156107f0573d6000803e3d6000fd5b505050506040513d601f19601f820116820180604052508101906108149190611c35565b50505050506108216116e7565b5050565b61082d61182c565b6001546001600160a01b0316331461084457600080fd5b61084c611851565b6001600160a01b0383168082526040805163038fff2d60e41b81529051600092916338fff2d0916004808301926020929190829003018186803b15801561089257600080fd5b505afa1580156108a6573d6000803e3d6000fd5b505050506040513d601f19601f820116820180604052508101906108ca9190611c51565b60405163f6c0092760e01b81529091506001600160a01b037f0000000000000000000000000000000000000000000000000000000000000000169063f6c0092790610919908490600401611fe8565b604080518083038186803b15801561093057600080fd5b505afa158015610944573d6000803e3d6000fd5b505050506040513d601f19601f820116820180604052508101906109689190611af2565b5050600082600001516001600160a01b031663f89f27ed6040518163ffffffff1660e01b815260040160006040518083038186803b1580156109a957600080fd5b505afa1580156109bd573d6000803e3d6000fd5b505050506040513d6000823e601f3d908101601f191682016040526109e59190810190611bfa565b90506000807f00000000000000000000000000000000000000000000000000000000000000006001600160a01b031663f94d4668856040518263ffffffff1660e01b8152600401610a369190611fe8565b60006040518083038186803b158015610a4e57600080fd5b505afa158015610a62573d6000803e3d6000fd5b505050506040513d6000823e601f3d908101601f19168201604052610a8a9190810190611b2e565b50915091506000610a9a836116ee565b9050600080600084600081518110610ac257634e487b7160e01b600052603260045260246000fd5b60200260200101511115610bc45785600081518110610af157634e487b7160e01b600052603260045260246000fd5b602002602001015184600081518110610b1a57634e487b7160e01b600052603260045260246000fd5b6020026020010151610b2c9190612273565b86600181518110610b4d57634e487b7160e01b600052603260045260246000fd5b602002602001015185600181518110610b7657634e487b7160e01b600052603260045260246000fd5b6020026020010151610b889190612273565b610b929190612273565b8860200151600081518110610bb757634e487b7160e01b600052603260045260246000fd5b6020026020010181815250505b60015b8551811015610d03576000858281518110610bf257634e487b7160e01b600052603260045260246000fd5b60200260200101511115610cf157868181518110610c2057634e487b7160e01b600052603260045260246000fd5b6020026020010151858281518110610c4857634e487b7160e01b600052603260045260246000fd5b6020026020010151610c5a9190612273565b87600081518110610c7b57634e487b7160e01b600052603260045260246000fd5b602002602001015186600081518110610ca457634e487b7160e01b600052603260045260246000fd5b6020026020010151610cb69190612273565b610cc09190612273565b89602001518281518110610ce457634e487b7160e01b600052603260045260246000fd5b6020026020010181815250505b80610cfb8161232c565b915050610bc7565b5060015b8551811015610ded57600089602001518281518110610d3657634e487b7160e01b600052603260045260246000fd5b60200260200101511115610ddb5788602001518181518110610d6857634e487b7160e01b600052603260045260246000fd5b6020026020010151610da0878381518110610d9357634e487b7160e01b600052603260045260246000fd5b60200260200101516111c8565b610daa91906122b2565b89604001518281518110610dce57634e487b7160e01b600052603260045260246000fd5b6020026020010181815250505b80610de58161232c565b915050610d07565b5060608060015b875181101561104a576001600160a01b038d166000908152600260208190526040918290200154908c0151805183908110610e3f57634e487b7160e01b600052603260045260246000fd5b602002602001015112610ee857600260008e6001600160a01b03166001600160a01b03168152602001908152602001600020600201546064888381518110610e9757634e487b7160e01b600052603260045260246000fd5b6020026020010151610ea99190612273565b610eb39190612293565b828281518110610ed357634e487b7160e01b600052603260045260246000fd5b60200260200101818152505060019350611038565b6001600160a01b038d1660009081526002602081905260409091200154610f0e90612347565b8b604001518281518110610f3257634e487b7160e01b600052603260045260246000fd5b602002602001015113610fdb57600260008e6001600160a01b03166001600160a01b03168152602001908152602001600020600201546064888381518110610f8a57634e487b7160e01b600052603260045260246000fd5b6020026020010151610f9c9190612273565b610fa69190612293565b838281518110610fc657634e487b7160e01b600052603260045260246000fd5b60200260200101818152505060019450611038565b6000838281518110610ffd57634e487b7160e01b600052603260045260246000fd5b602002602001018181525050600082828151811061102b57634e487b7160e01b600052603260045260246000fd5b6020026020010181815250505b806110428161232c565b915050610df4565b5061105361182c565b8315611084578051869052604080516020808201835260008252835190920152815160016060909101528151018290525b84156110b75760208082018051889052604080518084018252600081528251909101528051600160609091015251018390525b9a50505050505050505050505b919050565b6060600380548060200260200160405190810160405280929190818152602001828054801561112157602002820191906000526020600020905b81546001600160a01b03168152600190910190602001808311611103575b5050505050905090565b7f000000000000000000000000000000000000000000000000000000000000000081565b6000816001600160a01b03166338fff2d06040518163ffffffff1660e01b815260040160206040518083038186803b15801561118a57600080fd5b505afa15801561119e573d6000803e3d6000fd5b505050506040513d601f19601f820116820180604052508101906111c29190611c51565b92915050565b6000806001600160a01b03831673baab46e28388d2779e6e31fd00cf0e5ad95e327b141561128857600073128fe88eaa22bffb868bb3a584a54c96ee24014b9050806001600160a01b031663feaf968c6040518163ffffffff1660e01b815260040160a06040518083038186803b15801561124257600080fd5b505afa158015611256573d6000803e3d6000fd5b505050506040513d601f19601f8201168201806040525081019061127a9190611dce565b509194506111c29350505050565b6001600160a01b03831673471ece3750da237f93b8e339c536989b8978a43814156112ff576000730568fd19986748ceff3301e55c0eb1e729e0ab7e9050806001600160a01b031663feaf968c6040518163ffffffff1660e01b815260040160a06040518083038186803b15801561124257600080fd5b6001600160a01b03831673122013fd7df1c6f636a5bb8f03108e876548b4551415611376576000731fcd30a73d67639c1cd89ff5746e7585731c083b9050806001600160a01b031663feaf968c6040518163ffffffff1660e01b815260040160a06040518083038186803b15801561124257600080fd5b6001600160a01b03831673d8763cba276a3738e6de85b4b3bf5fded6d6ca7314156113ed576000733d207061dbe8e2473527611bfecb87ff12b28dda9050806001600160a01b031663feaf968c6040518163ffffffff1660e01b815260040160a06040518083038186803b15801561124257600080fd5b6001600160a01b0383167372d7f41ef46a988b13530f67423b36cd9cadbc3a1415611464576000736b6a4c71ec3858a024f3f0ee44bb0adcbed3dcc29050806001600160a01b031663feaf968c6040518163ffffffff1660e01b815260040160a06040518083038186803b15801561124257600080fd5b6001600160a01b038316732a3684e9dc20b857375ea04235f2f7edbe818fa714156114db57600073c7a353bae210aed958a1a2928b654938ec59dab29050806001600160a01b031663feaf968c6040518163ffffffff1660e01b815260040160a06040518083038186803b15801561124257600080fd5b6001600160a01b03831673f6d198cd2a85bb2f3021cdbdab6b878474079be714156100b4576000735e37af40a7a344ec9b03ccd34a250f3da9a20b029050806001600160a01b031663feaf968c6040518163ffffffff1660e01b815260040160a06040518083038186803b15801561124257600080fd5b60026020526000908152604090208054819061156d906122f1565b80601f0160208091040260200160405190810160405280929190818152602001828054611599906122f1565b80156115e65780601f106115bb576101008083540402835291602001916115e6565b820191906000526020600020905b8154815290600101906020018083116115c957829003601f168201915b5050505050908060010180546115fb906122f1565b80601f0160208091040260200160405190810160405280929190818152602001828054611627906122f1565b80156116745780601f1061164957610100808354040283529160200191611674565b820191906000526020600020905b81548152906001019060200180831161165757829003601f168201915b5050505050908060020154905083565b6001546001600160a01b0316331461169b57600080fd5b600180546001600160a01b0319166001600160a01b0392909216919091179055565b600260005414156116e05760405162461bcd60e51b815260040161078790612082565b6002600055565b6001600055565b90565b60405180606001604052806060815260200160608152602001606081525090565b6040518060e0016040528060608152602001606081526020016000815260200160001515815260200160001515815260200160008152602001600081525090565b82805461175f906122f1565b90600052602060002090601f01602090048101928261178157600085556117c7565b82601f1061179a57805160ff19168380011785556117c7565b828001600101855582156117c7579182015b828111156117c75782518255916020019190600101906117ac565b506117d392915061187b565b5090565b8280548282559060005260206000209081019282156117c7579160200282015b828111156117c757825182546001600160a01b0319166001600160a01b039091161782556020909201916001909101906117f7565b604051806040016040528061183f611890565b815260200161184c611890565b905290565b604051806060016040528060006001600160a01b0316815260200160608152602001606081525090565b5b808211156117d3576000815560010161187c565b60405180608001604052806060815260200160608152602001606081526020016000151581525090565b600082601f8301126118ca578081fd5b813560206118df6118da8361224f565b612225565b82815281810190858301838502870184018810156118fb578586fd5b855b858110156119225781356119108161238d565b845292840192908401906001016118fd565b5090979650505050505050565b600082601f83011261193f578081fd5b8135602061194f6118da8361224f565b828152818101908583018385028701840188101561196b578586fd5b855b858110156119225781358452928401929084019060010161196d565b600082601f830112611999578081fd5b815160206119a96118da8361224f565b82815281810190858301838502870184018810156119c5578586fd5b855b85811015611922578151845292840192908401906001016119c7565b80356110c4816123a2565b600082601f8301126119fe578081fd5b813567ffffffffffffffff811115611a1857611a18612377565b611a2b601f8201601f1916602001612225565b818152846020838601011115611a3f578283fd5b816020850160208301379081016020019190915292915050565b805169ffffffffffffffffffff811681146110c457600080fd5b600060208284031215611a84578081fd5b8135611a8f8161238d565b9392505050565b600060208284031215611aa7578081fd5b8151611a8f8161238d565b600080600060608486031215611ac6578182fd5b8335611ad18161238d565b92506020840135611ae18161238d565b929592945050506040919091013590565b60008060408385031215611b04578182fd5b8251611b0f8161238d565b602084015190925060038110611b23578182fd5b809150509250929050565b600080600060608486031215611b42578081fd5b835167ffffffffffffffff80821115611b59578283fd5b818601915086601f830112611b6c578283fd5b81516020611b7c6118da8361224f565b82815281810190858301838502870184018c1015611b98578788fd5b8796505b84871015611bc3578051611baf8161238d565b835260019690960195918301918301611b9c565b5091890151919750909350505080821115611bdc578283fd5b50611be986828701611989565b925050604084015190509250925092565b600060208284031215611c0b578081fd5b815167ffffffffffffffff811115611c21578182fd5b611c2d84828501611989565b949350505050565b600060208284031215611c46578081fd5b8151611a8f816123a2565b600060208284031215611c62578081fd5b5051919050565b6000806000806000806000806000806000806101808d8f031215611c8b57898afd5b67ffffffffffffffff8d351115611ca057898afd5b611cad8e8e358f016119ee565b9b5067ffffffffffffffff60208e01351115611cc757898afd5b611cd78e60208f01358f016119ee565b9a5067ffffffffffffffff60408e01351115611cf157898afd5b611d018e60408f01358f016118ba565b995067ffffffffffffffff60608e01351115611d1b578788fd5b611d2b8e60608f01358f0161192f565b985067ffffffffffffffff60808e01351115611d45578788fd5b611d558e60808f01358f016118ba565b975060a08d01359650611d6a60c08e016119e3565b9550611d7860e08e016119e3565b94506101008d013593506101208d013592506101408d013591506101608d013590509295989b509295989b509295989b565b60008060408385031215611dbc578182fd5b823591506020830135611b238161238d565b600080600080600060a08688031215611de5578283fd5b611dee86611a59565b9450602086015193506040860151925060608601519150611e1160808701611a59565b90509295509295909350565b6001600160a01b03169052565b6000815180845260208085019450808401835b83811015611e625781516001600160a01b031687529582019590820190600101611e3d565b509495945050505050565b6000815180845260208085019450808401835b83811015611e6257815187529582019590820190600101611e80565b15159052565b60008151808452815b81811015611ec757602081850181015186830182015201611eab565b81811115611ed85782602083870101525b50601f01601f19169290920160200192915050565b8051608080845281519084018190526000916020919082019060a0860190845b81811015611f325783516001600160a01b031683529284019291840191600101611f0d565b505082850151915085810383870152611f4b8183611e6d565b9250505060408301518482036040860152611f668282611ea2565b9150506060830151611f7b6060860182611e9c565b509392505050565b6001600160a01b0391909116815260200190565b6001600160a01b0392831681529116602082015260400190565b6001600160a01b039384168152919092166020820152604081019190915260600190565b600060208252611a8f6020830184611e2a565b90815260200190565b8481526001600160a01b0384811660208301528316604082015260806060820181905260009061202390830184611eed565b9695505050505050565b6000606082526120406060830186611ea2565b82810360208401526120528186611ea2565b915050826040830152949350505050565b60208082526005908201526422b93937b960d91b604082015260600190565b6020808252601f908201527f5265656e7472616e637947756172643a207265656e7472616e742063616c6c00604082015260600190565b6000602082528251604060208401526120d56060840182611eed565b90506020840151601f198483030160408501526120f28282611eed565b95945050505050565b60006080825285516060608084015261211760e0840182611ea2565b9050602080880151607f19808685030160a08701526121368483611ea2565b935060408a01519150808685030160c0870152506121548382611e2a565b85810383870152885160e080835281519083018190529194508301915084906101008501905b808310156121a35783516001600160a01b0316825292840192600192909201919084019061217a565b50838a01519250848103848601526121bb8184611e6d565b93505050506040870151604083015260608701516121dc6060840182611e9c565b5060808701516121ef6080840182611e9c565b5060a087015160a083015260c087015160c083015280925050506122166040830185611e1d565b82606083015295945050505050565b60405181810167ffffffffffffffff8111828210171561224757612247612377565b604052919050565b600067ffffffffffffffff82111561226957612269612377565b5060209081020190565b60008261228e57634e487b7160e01b81526012600452602481fd5b500490565b60008160001904831182151516156122ad576122ad612361565b500290565b60008083128015600160ff1b8501841216156122d0576122d0612361565b6001600160ff1b03840183138116156122eb576122eb612361565b50500390565b60028104600182168061230557607f821691505b6020821081141561232657634e487b7160e01b600052602260045260246000fd5b50919050565b600060001982141561234057612340612361565b5060010190565b6000600160ff1b82141561235d5761235d612361565b0390565b634e487b7160e01b600052601160045260246000fd5b634e487b7160e01b600052604160045260246000fd5b6001600160a01b03811681146106c157600080fd5b80151581146106c157600080fdfea26469706673582212202dca619d83f0522f0cc0b8e6670ad57d361288dc79e6582a451c426af8a3740464736f6c63430008000033",
  "immutableReferences": {
    "3652": [
      {
        "length": 32,
        "start": 772
      },
      {
        "length": 32,
        "start": 4397
      }
    ],
    "3974": [
      {
        "length": 32,
        "start": 1465
      },
      {
        "length": 32,
        "start": 1610
      },
      {
        "length": 32,
        "start": 2276
      },
      {
        "length": 32,
        "start": 2540
      }
    ]
  },
  "source": "// SPDX-License-Identifier: MIT\n\npragma solidity ^0.8.0;\npragma experimental ABIEncoderV2;\n\nimport \"./base/BaseWeightedController.sol\";\nimport \"./lib/SupportLib.sol\";\n\ncontract BondingWeightingCurveController is BaseWeightedController {\n\n    /**\n     * @notice Constructor for the controller implementation class\n     *\n     * @param vaultAddress - Vault contract address\n     * @param supportedWeightedPoolFactory - Weighted pool contract address\n     */\n    constructor(\n        address vaultAddress,\n        address supportedWeightedPoolFactory\n    ) BaseWeightedController(vaultAddress, supportedWeightedPoolFactory) {}\n\n    /**\n     * @notice Runs a check and transfers reserve tokens as needed\n     * @dev To avoid too many fees, this should be run at wide intervals such as daily\n     *\n     * @param poolAddress - Address of pool being worked on.\n     */\n    function runCheck(address poolAddress) public restricted nonReentrant {\n        PoolAdjustments memory poolAdjustments = calculateBalancing(poolAddress);\n        \n        IWeightedPool weightedPool = IWeightedPool(poolAddress);\n        bytes32 poolId = weightedPool.getPoolId();\n\n        // If there's tokens to add then call joinPool\n        if (poolAdjustments.newJoinRequest.maxAmountsIn.length > 0)\n        {\n            vault.joinPool(\n                poolId,\n                address(this),\n                payable(poolAddress),\n                poolAdjustments.newJoinRequest\n            );\n        }\n\n        if (poolAdjustments.newExitRequest.minAmountsOut.length > 0)\n        {\n            vault.exitPool(\n                poolId,\n                address(this),\n                payable(poolAddress),\n                poolAdjustments.newExitRequest\n            );\n        }\n    }\n}\n",
  "sourcePath": "/home/eagle/Source/BalancerController/Balancer.Controller/contracts/BondingWeightedCurveController.sol",
  "compiler": {
    "name": "solc",
    "version": "0.8.0+commit.c7dfd78e.Emscripten.clang"
  },
  "schemaVersion": "3.4.13",
  "updatedAt": "2023-09-09T17:11:33.923Z",
  "devdoc": {
    "kind": "dev",
    "methods": {
      "calculateBalancing(address)": {
        "params": {
          "poolAddress": "- Address of pool being worked on."
        }
      },
      "constructor": {
        "params": {
          "supportedWeightedPoolFactory": "- Weighted pool contract address",
          "vaultAddress": "- Vault contract address"
        }
      },
      "createPool(string,string,address[],uint256[],address[],uint256,bool,bool,uint256,uint256,uint256,bytes32)": {
        "params": {
          "assetManagers": "- Asset manager for the pool",
          "aumFeeId": "- Aum Fee Id",
          "isMustAllowlistLPs": "- List of LP's allowed in the pool",
          "isSwapEnabledOnStart": "- Whether swaps are enabled straight away",
          "managementAumFeePercentage": "- Management Aum fee to apply",
          "name": "- Pool name",
          "normalizedWeights": "- Normalized weights in the pool",
          "salt": "- Salt used towards calculating pool address",
          "swapFeePercentage": "- Fee applied to swaps",
          "symbol": "- Symbol representing the pool",
          "tokens": "- Tokens in the pool",
          "tolerance": "- Percentage devience "
        }
      },
      "depositTokens(uint256,address)": {
        "details": "Transfers an amount of an ERC20 token",
        "params": {
          "amount": "- Amount to deposit.",
          "tokenAddress": "- Address of token to be deposited."
        }
      },
      "getPoolId(address)": {
        "params": {
          "poolAddress": "- Pool to get the Id for"
        }
      },
      "getTokenPrice(address)": {
        "params": {
          "value": "- Address to find"
        }
      },
      "runCheck(address)": {
        "details": "To avoid too many fees, this should be run at wide intervals such as daily",
        "params": {
          "poolAddress": "- Address of pool being worked on."
        }
      },
      "transferManagement(address)": {
        "details": "Only one manager can presently be set",
        "params": {
          "supportedManager": "- New manager."
        }
      },
      "withdrawFunds(address,address,uint256)": {
        "details": "Transfers an amount of an ERC20 token",
        "params": {
          "amount": "- Amount to withdraw.",
          "recipientAddress": "- Address of wallet receiving funds.",
          "tokenAddress": "- Address of token to be withdrawn."
        }
      }
    },
    "version": 1
  },
  "userdoc": {
    "kind": "user",
    "methods": {
      "calculateBalancing(address)": {
        "notice": "Calculates a number of tokens to add or remove to rebalance pricing"
      },
      "constructor": {
        "notice": "Constructor for the controller implementation class"
      },
      "createPool(string,string,address[],uint256[],address[],uint256,bool,bool,uint256,uint256,uint256,bytes32)": {
        "notice": "Create a new weighted pool"
      },
      "depositTokens(uint256,address)": {
        "notice": "Deposit tokens to controller"
      },
      "getPoolId(address)": {
        "notice": "Returns the pools Id"
      },
      "getPoolsUnderManagement()": {
        "notice": "returns a list of pools under management by this controller"
      },
      "getTokenPrice(address)": {
        "notice": "returns the oracle supplied price for the requested token"
      },
      "runCheck(address)": {
        "notice": "Runs a check and transfers reserve tokens as needed"
      },
      "transferManagement(address)": {
        "notice": "Transfer the manager to a new address"
      },
      "withdrawFunds(address,address,uint256)": {
        "notice": "Withdraw tokens from controller"
      }
    },
    "version": 1
  }
}