{
  "contractName": "BondingCurveController",
  "abi": [
    {
      "inputs": [
        {
          "internalType": "address",
          "name": "_vaultAddress",
          "type": "address"
        }
      ],
      "stateMutability": "nonpayable",
      "type": "constructor"
    },
    {
      "inputs": [
        {
          "internalType": "address",
          "name": "poolAddress",
          "type": "address"
        },
        {
          "internalType": "address",
          "name": "member",
          "type": "address"
        }
      ],
      "name": "addAllowedAddress",
      "outputs": [],
      "stateMutability": "nonpayable",
      "type": "function"
    },
    {
      "inputs": [
        {
          "internalType": "address",
          "name": "poolAddress",
          "type": "address"
        },
        {
          "internalType": "contract IERC20",
          "name": "tokenToAdd",
          "type": "address"
        },
        {
          "internalType": "address",
          "name": "assetManager",
          "type": "address"
        },
        {
          "internalType": "uint256",
          "name": "tokenToAddNormalizedWeight",
          "type": "uint256"
        },
        {
          "internalType": "uint256",
          "name": "mintAmount",
          "type": "uint256"
        },
        {
          "internalType": "address",
          "name": "recipient",
          "type": "address"
        }
      ],
      "name": "addToken",
      "outputs": [],
      "stateMutability": "nonpayable",
      "type": "function"
    },
    {
      "inputs": [
        {
          "internalType": "address",
          "name": "poolAddress",
          "type": "address"
        }
      ],
      "name": "collectAumManagementFees",
      "outputs": [],
      "stateMutability": "nonpayable",
      "type": "function"
    },
    {
      "inputs": [
        {
          "internalType": "address",
          "name": "",
          "type": "address"
        }
      ],
      "name": "managedPools",
      "outputs": [
        {
          "internalType": "bool",
          "name": "",
          "type": "bool"
        }
      ],
      "stateMutability": "view",
      "type": "function"
    },
    {
      "inputs": [],
      "name": "manager",
      "outputs": [
        {
          "internalType": "address",
          "name": "",
          "type": "address"
        }
      ],
      "stateMutability": "view",
      "type": "function"
    },
    {
      "inputs": [
        {
          "internalType": "address",
          "name": "_poolAddress",
          "type": "address"
        }
      ],
      "name": "registerPool",
      "outputs": [],
      "stateMutability": "nonpayable",
      "type": "function"
    },
    {
      "inputs": [
        {
          "internalType": "address",
          "name": "poolAddress",
          "type": "address"
        },
        {
          "internalType": "address",
          "name": "member",
          "type": "address"
        }
      ],
      "name": "removeAllowedAddress",
      "outputs": [],
      "stateMutability": "nonpayable",
      "type": "function"
    },
    {
      "inputs": [
        {
          "internalType": "address",
          "name": "poolAddress",
          "type": "address"
        },
        {
          "internalType": "contract IERC20",
          "name": "tokenToRemove",
          "type": "address"
        },
        {
          "internalType": "uint256",
          "name": "burnAmount",
          "type": "uint256"
        },
        {
          "internalType": "address",
          "name": "sender",
          "type": "address"
        }
      ],
      "name": "removeToken",
      "outputs": [],
      "stateMutability": "nonpayable",
      "type": "function"
    },
    {
      "inputs": [
        {
          "internalType": "address",
          "name": "poolAddress",
          "type": "address"
        },
        {
          "internalType": "contract IERC20[]",
          "name": "tokens",
          "type": "address[]"
        },
        {
          "internalType": "uint256[]",
          "name": "bptPrices",
          "type": "uint256[]"
        },
        {
          "internalType": "uint256[]",
          "name": "lowerBoundPercentages",
          "type": "uint256[]"
        },
        {
          "internalType": "uint256[]",
          "name": "upperBoundPercentages",
          "type": "uint256[]"
        }
      ],
      "name": "setCircuitBreakers",
      "outputs": [],
      "stateMutability": "nonpayable",
      "type": "function"
    },
    {
      "inputs": [
        {
          "internalType": "address",
          "name": "poolAddress",
          "type": "address"
        },
        {
          "internalType": "bool",
          "name": "joinExitEnabled",
          "type": "bool"
        }
      ],
      "name": "setJoinExitEnabled",
      "outputs": [],
      "stateMutability": "nonpayable",
      "type": "function"
    },
    {
      "inputs": [
        {
          "internalType": "address",
          "name": "poolAddress",
          "type": "address"
        },
        {
          "internalType": "uint256",
          "name": "managementAumFeePercentage",
          "type": "uint256"
        }
      ],
      "name": "setManagementAumFeePercentage",
      "outputs": [],
      "stateMutability": "nonpayable",
      "type": "function"
    },
    {
      "inputs": [
        {
          "internalType": "address",
          "name": "poolAddress",
          "type": "address"
        },
        {
          "internalType": "bool",
          "name": "mustAllowlistLPs",
          "type": "bool"
        }
      ],
      "name": "setMustAllowlistLPs",
      "outputs": [],
      "stateMutability": "nonpayable",
      "type": "function"
    },
    {
      "inputs": [
        {
          "internalType": "address",
          "name": "poolAddress",
          "type": "address"
        },
        {
          "internalType": "bool",
          "name": "swapEnabled",
          "type": "bool"
        }
      ],
      "name": "setSwapEnabled",
      "outputs": [],
      "stateMutability": "nonpayable",
      "type": "function"
    },
    {
      "inputs": [
        {
          "internalType": "address",
          "name": "_manager",
          "type": "address"
        }
      ],
      "name": "transferManagement",
      "outputs": [],
      "stateMutability": "nonpayable",
      "type": "function"
    },
    {
      "inputs": [
        {
          "internalType": "address",
          "name": "poolAddress",
          "type": "address"
        },
        {
          "internalType": "uint256",
          "name": "startTime",
          "type": "uint256"
        },
        {
          "internalType": "uint256",
          "name": "endTime",
          "type": "uint256"
        },
        {
          "internalType": "uint256",
          "name": "startSwapFeePercentage",
          "type": "uint256"
        },
        {
          "internalType": "uint256",
          "name": "endSwapFeePercentage",
          "type": "uint256"
        }
      ],
      "name": "updateSwapFeeGradually",
      "outputs": [],
      "stateMutability": "nonpayable",
      "type": "function"
    },
    {
      "inputs": [
        {
          "internalType": "address",
          "name": "poolAddress",
          "type": "address"
        },
        {
          "internalType": "uint256",
          "name": "startTime",
          "type": "uint256"
        },
        {
          "internalType": "uint256",
          "name": "endTime",
          "type": "uint256"
        },
        {
          "internalType": "contract IERC20[]",
          "name": "tokens",
          "type": "address[]"
        },
        {
          "internalType": "uint256[]",
          "name": "endWeights",
          "type": "uint256[]"
        }
      ],
      "name": "updateWeightsGradually",
      "outputs": [],
      "stateMutability": "nonpayable",
      "type": "function"
    },
    {
      "inputs": [
        {
          "internalType": "bytes32",
          "name": "_poolId",
          "type": "bytes32"
        }
      ],
      "name": "runCheck",
      "outputs": [
        {
          "internalType": "uint256",
          "name": "",
          "type": "uint256"
        }
      ],
      "stateMutability": "view",
      "type": "function"
    }
  ],
  "bytecode": "0x60a06040523480156200001157600080fd5b5060405162001ef938038062001ef983398181016040528101906200003791906200011e565b80336000806101000a81548173ffffffffffffffffffffffffffffffffffffffff021916908373ffffffffffffffffffffffffffffffffffffffff1602179055508073ffffffffffffffffffffffffffffffffffffffff1660808173ffffffffffffffffffffffffffffffffffffffff1681525050505062000150565b600080fd5b600073ffffffffffffffffffffffffffffffffffffffff82169050919050565b6000620000e682620000b9565b9050919050565b620000f881620000d9565b81146200010457600080fd5b50565b6000815190506200011881620000ed565b92915050565b600060208284031215620001375762000136620000b4565b5b6000620001478482850162000107565b91505092915050565b608051611d8d6200016c60003960006103750152611d8d6000f3fe608060405234801561001057600080fd5b506004361061010b5760003560e01c8063556f1eb9116100a2578063abd9084611610071578063abd908461461028a578063c90d3a04146102a6578063cbe04b0c146102c2578063e4444feb146102de578063e4edf852146102fa5761010b565b8063556f1eb9146102065780637b35a88f14610222578063875e7cd914610252578063abd796bf1461026e5761010b565b806342da1cb1116100de57806342da1cb114610194578063458aa92b146101b0578063481c6a75146101cc57806351d48cea146101ea5761010b565b806320f0baff1461011057806321f1e0cd146101405780632abbd3ad1461015c578063404ac21e14610178575b600080fd5b61012a60048036038101906101259190610ff4565b610316565b604051610137919061103a565b60405180910390f35b61015a6004803603810190610155919061111d565b61042e565b005b610176600480360381019061017191906111e2565b610507565b005b610192600480360381019061018d9190611222565b6105d4565b005b6101ae60048036038101906101a9919061124f565b6106a7565b005b6101ca60048036038101906101c591906114ab565b610786565b005b6101d461085c565b6040516101e191906115a5565b60405180910390f35b61020460048036038101906101ff91906111e2565b610880565b005b610220600480360381019061021b91906111e2565b61094d565b005b61023c60048036038101906102379190611222565b610a1a565b60405161024991906115cf565b60405180910390f35b61026c600480360381019061026791906115ea565b610a3a565b005b61028860048036038101906102839190611665565b610b10565b005b6102a4600480360381019061029f9190611222565b610bdd565b005b6102c060048036038101906102bb91906116a5565b610c8f565b005b6102dc60048036038101906102d79190611758565b610d65565b005b6102f860048036038101906102f39190611665565b610e38565b005b610314600480360381019061030f9190611222565b610f05565b005b60008060009054906101000a900473ffffffffffffffffffffffffffffffffffffffff1673ffffffffffffffffffffffffffffffffffffffff163373ffffffffffffffffffffffffffffffffffffffff161461037157600080fd5b60007f000000000000000000000000000000000000000000000000000000000000000073ffffffffffffffffffffffffffffffffffffffff1663f94d4668846040518263ffffffff1660e01b81526004016103cc91906117ce565b600060405180830381865afa1580156103e9573d6000803e3d6000fd5b505050506040513d6000823e3d601f19601f820116820180604052508101906104129190611941565b50509050600061042182610fa0565b9050600192505050919050565b60008054906101000a900473ffffffffffffffffffffffffffffffffffffffff1673ffffffffffffffffffffffffffffffffffffffff163373ffffffffffffffffffffffffffffffffffffffff161461048657600080fd5b60008690508073ffffffffffffffffffffffffffffffffffffffff166334a36df887878787876040518663ffffffff1660e01b81526004016104cc959493929190611a2b565b600060405180830381600087803b1580156104e657600080fd5b505af11580156104fa573d6000803e3d6000fd5b5050505050505050505050565b60008054906101000a900473ffffffffffffffffffffffffffffffffffffffff1673ffffffffffffffffffffffffffffffffffffffff163373ffffffffffffffffffffffffffffffffffffffff161461055f57600080fd5b60008290508073ffffffffffffffffffffffffffffffffffffffff16637b749c45836040518263ffffffff1660e01b815260040161059d91906115cf565b600060405180830381600087803b1580156105b757600080fd5b505af11580156105cb573d6000803e3d6000fd5b50505050505050565b60008054906101000a900473ffffffffffffffffffffffffffffffffffffffff1673ffffffffffffffffffffffffffffffffffffffff163373ffffffffffffffffffffffffffffffffffffffff161461062c57600080fd5b60008190508073ffffffffffffffffffffffffffffffffffffffff166373656f896040518163ffffffff1660e01b81526004016020604051808303816000875af115801561067e573d6000803e3d6000fd5b505050506040513d601f19601f820116820180604052508101906106a29190611a7e565b505050565b60008054906101000a900473ffffffffffffffffffffffffffffffffffffffff1673ffffffffffffffffffffffffffffffffffffffff163373ffffffffffffffffffffffffffffffffffffffff16146106ff57600080fd5b60008290508073ffffffffffffffffffffffffffffffffffffffff16632a9a0323836040518263ffffffff1660e01b815260040161073d919061103a565b6020604051808303816000875af115801561075c573d6000803e3d6000fd5b505050506040513d601f19601f820116820180604052508101906107809190611a7e565b50505050565b60008054906101000a900473ffffffffffffffffffffffffffffffffffffffff1673ffffffffffffffffffffffffffffffffffffffff163373ffffffffffffffffffffffffffffffffffffffff16146107de57600080fd5b60008590508073ffffffffffffffffffffffffffffffffffffffff1663f885a4bb868686866040518563ffffffff1660e01b81526004016108229493929190611c27565b600060405180830381600087803b15801561083c57600080fd5b505af1158015610850573d6000803e3d6000fd5b50505050505050505050565b60008054906101000a900473ffffffffffffffffffffffffffffffffffffffff1681565b60008054906101000a900473ffffffffffffffffffffffffffffffffffffffff1673ffffffffffffffffffffffffffffffffffffffff163373ffffffffffffffffffffffffffffffffffffffff16146108d857600080fd5b60008290508073ffffffffffffffffffffffffffffffffffffffff1663e01af92c836040518263ffffffff1660e01b815260040161091691906115cf565b600060405180830381600087803b15801561093057600080fd5b505af1158015610944573d6000803e3d6000fd5b50505050505050565b60008054906101000a900473ffffffffffffffffffffffffffffffffffffffff1673ffffffffffffffffffffffffffffffffffffffff163373ffffffffffffffffffffffffffffffffffffffff16146109a557600080fd5b60008290508073ffffffffffffffffffffffffffffffffffffffff1663de3d2b2d836040518263ffffffff1660e01b81526004016109e391906115cf565b600060405180830381600087803b1580156109fd57600080fd5b505af1158015610a11573d6000803e3d6000fd5b50505050505050565b60016020528060005260406000206000915054906101000a900460ff1681565b60008054906101000a900473ffffffffffffffffffffffffffffffffffffffff1673ffffffffffffffffffffffffffffffffffffffff163373ffffffffffffffffffffffffffffffffffffffff1614610a9257600080fd5b60008590508073ffffffffffffffffffffffffffffffffffffffff1663b62c1f06868686866040518563ffffffff1660e01b8152600401610ad69493929190611c88565b600060405180830381600087803b158015610af057600080fd5b505af1158015610b04573d6000803e3d6000fd5b50505050505050505050565b60008054906101000a900473ffffffffffffffffffffffffffffffffffffffff1673ffffffffffffffffffffffffffffffffffffffff163373ffffffffffffffffffffffffffffffffffffffff1614610b6857600080fd5b60008290508073ffffffffffffffffffffffffffffffffffffffff166381788e2b836040518263ffffffff1660e01b8152600401610ba691906115a5565b600060405180830381600087803b158015610bc057600080fd5b505af1158015610bd4573d6000803e3d6000fd5b50505050505050565b60008054906101000a900473ffffffffffffffffffffffffffffffffffffffff1673ffffffffffffffffffffffffffffffffffffffff163373ffffffffffffffffffffffffffffffffffffffff1614610c3557600080fd5b60018060008373ffffffffffffffffffffffffffffffffffffffff1673ffffffffffffffffffffffffffffffffffffffff16815260200190815260200160002060006101000a81548160ff02191690831515021790555050565b60008054906101000a900473ffffffffffffffffffffffffffffffffffffffff1673ffffffffffffffffffffffffffffffffffffffff163373ffffffffffffffffffffffffffffffffffffffff1614610ce757600080fd5b60008590508073ffffffffffffffffffffffffffffffffffffffff1663819c70f3868686866040518563ffffffff1660e01b8152600401610d2b9493929190611ccd565b600060405180830381600087803b158015610d4557600080fd5b505af1158015610d59573d6000803e3d6000fd5b50505050505050505050565b60008054906101000a900473ffffffffffffffffffffffffffffffffffffffff1673ffffffffffffffffffffffffffffffffffffffff163373ffffffffffffffffffffffffffffffffffffffff1614610dbd57600080fd5b60008490508073ffffffffffffffffffffffffffffffffffffffff166397bb15c98585856040518463ffffffff1660e01b8152600401610dff93929190611d20565b600060405180830381600087803b158015610e1957600080fd5b505af1158015610e2d573d6000803e3d6000fd5b505050505050505050565b60008054906101000a900473ffffffffffffffffffffffffffffffffffffffff1673ffffffffffffffffffffffffffffffffffffffff163373ffffffffffffffffffffffffffffffffffffffff1614610e9057600080fd5b60008290508073ffffffffffffffffffffffffffffffffffffffff16633c9d93b8836040518263ffffffff1660e01b8152600401610ece91906115a5565b600060405180830381600087803b158015610ee857600080fd5b505af1158015610efc573d6000803e3d6000fd5b50505050505050565b60008054906101000a900473ffffffffffffffffffffffffffffffffffffffff1673ffffffffffffffffffffffffffffffffffffffff163373ffffffffffffffffffffffffffffffffffffffff1614610f5d57600080fd5b806000806101000a81548173ffffffffffffffffffffffffffffffffffffffff021916908373ffffffffffffffffffffffffffffffffffffffff16021790555050565b6060819050919050565b6000604051905090565b600080fd5b600080fd5b6000819050919050565b610fd181610fbe565b8114610fdc57600080fd5b50565b600081359050610fee81610fc8565b92915050565b60006020828403121561100a57611009610fb4565b5b600061101884828501610fdf565b91505092915050565b6000819050919050565b61103481611021565b82525050565b600060208201905061104f600083018461102b565b92915050565b600073ffffffffffffffffffffffffffffffffffffffff82169050919050565b600061108082611055565b9050919050565b61109081611075565b811461109b57600080fd5b50565b6000813590506110ad81611087565b92915050565b60006110be82611075565b9050919050565b6110ce816110b3565b81146110d957600080fd5b50565b6000813590506110eb816110c5565b92915050565b6110fa81611021565b811461110557600080fd5b50565b600081359050611117816110f1565b92915050565b60008060008060008060c0878903121561113a57611139610fb4565b5b600061114889828a0161109e565b965050602061115989828a016110dc565b955050604061116a89828a0161109e565b945050606061117b89828a01611108565b935050608061118c89828a01611108565b92505060a061119d89828a0161109e565b9150509295509295509295565b60008115159050919050565b6111bf816111aa565b81146111ca57600080fd5b50565b6000813590506111dc816111b6565b92915050565b600080604083850312156111f9576111f8610fb4565b5b60006112078582860161109e565b9250506020611218858286016111cd565b9150509250929050565b60006020828403121561123857611237610fb4565b5b60006112468482850161109e565b91505092915050565b6000806040838503121561126657611265610fb4565b5b60006112748582860161109e565b925050602061128585828601611108565b9150509250929050565b600080fd5b6000601f19601f8301169050919050565b7f4e487b7100000000000000000000000000000000000000000000000000000000600052604160045260246000fd5b6112dd82611294565b810181811067ffffffffffffffff821117156112fc576112fb6112a5565b5b80604052505050565b600061130f610faa565b905061131b82826112d4565b919050565b600067ffffffffffffffff82111561133b5761133a6112a5565b5b602082029050602081019050919050565b600080fd5b600061136461135f84611320565b611305565b905080838252602082019050602084028301858111156113875761138661134c565b5b835b818110156113b0578061139c88826110dc565b845260208401935050602081019050611389565b5050509392505050565b600082601f8301126113cf576113ce61128f565b5b81356113df848260208601611351565b91505092915050565b600067ffffffffffffffff821115611403576114026112a5565b5b602082029050602081019050919050565b6000611427611422846113e8565b611305565b9050808382526020820190506020840283018581111561144a5761144961134c565b5b835b81811015611473578061145f8882611108565b84526020840193505060208101905061144c565b5050509392505050565b600082601f8301126114925761149161128f565b5b81356114a2848260208601611414565b91505092915050565b600080600080600060a086880312156114c7576114c6610fb4565b5b60006114d58882890161109e565b955050602086013567ffffffffffffffff8111156114f6576114f5610fb9565b5b611502888289016113ba565b945050604086013567ffffffffffffffff81111561152357611522610fb9565b5b61152f8882890161147d565b935050606086013567ffffffffffffffff8111156115505761154f610fb9565b5b61155c8882890161147d565b925050608086013567ffffffffffffffff81111561157d5761157c610fb9565b5b6115898882890161147d565b9150509295509295909350565b61159f81611075565b82525050565b60006020820190506115ba6000830184611596565b92915050565b6115c9816111aa565b82525050565b60006020820190506115e460008301846115c0565b92915050565b600080600080600060a0868803121561160657611605610fb4565b5b60006116148882890161109e565b955050602061162588828901611108565b945050604061163688828901611108565b935050606061164788828901611108565b925050608061165888828901611108565b9150509295509295909350565b6000806040838503121561167c5761167b610fb4565b5b600061168a8582860161109e565b925050602061169b8582860161109e565b9150509250929050565b600080600080600060a086880312156116c1576116c0610fb4565b5b60006116cf8882890161109e565b95505060206116e088828901611108565b94505060406116f188828901611108565b935050606086013567ffffffffffffffff81111561171257611711610fb9565b5b61171e888289016113ba565b925050608086013567ffffffffffffffff81111561173f5761173e610fb9565b5b61174b8882890161147d565b9150509295509295909350565b6000806000806080858703121561177257611771610fb4565b5b60006117808782880161109e565b9450506020611791878288016110dc565b93505060406117a287828801611108565b92505060606117b38782880161109e565b91505092959194509250565b6117c881610fbe565b82525050565b60006020820190506117e360008301846117bf565b92915050565b6000815190506117f8816110c5565b92915050565b600061181161180c84611320565b611305565b905080838252602082019050602084028301858111156118345761183361134c565b5b835b8181101561185d578061184988826117e9565b845260208401935050602081019050611836565b5050509392505050565b600082601f83011261187c5761187b61128f565b5b815161188c8482602086016117fe565b91505092915050565b6000815190506118a4816110f1565b92915050565b60006118bd6118b8846113e8565b611305565b905080838252602082019050602084028301858111156118e0576118df61134c565b5b835b8181101561190957806118f58882611895565b8452602084019350506020810190506118e2565b5050509392505050565b600082601f8301126119285761192761128f565b5b81516119388482602086016118aa565b91505092915050565b60008060006060848603121561195a57611959610fb4565b5b600084015167ffffffffffffffff81111561197857611977610fb9565b5b61198486828701611867565b935050602084015167ffffffffffffffff8111156119a5576119a4610fb9565b5b6119b186828701611913565b92505060406119c286828701611895565b9150509250925092565b6000819050919050565b60006119f16119ec6119e784611055565b6119cc565b611055565b9050919050565b6000611a03826119d6565b9050919050565b6000611a15826119f8565b9050919050565b611a2581611a0a565b82525050565b600060a082019050611a406000830188611a1c565b611a4d6020830187611596565b611a5a604083018661102b565b611a67606083018561102b565b611a746080830184611596565b9695505050505050565b600060208284031215611a9457611a93610fb4565b5b6000611aa284828501611895565b91505092915050565b600081519050919050565b600082825260208201905092915050565b6000819050602082019050919050565b611ae081611a0a565b82525050565b6000611af28383611ad7565b60208301905092915050565b6000602082019050919050565b6000611b1682611aab565b611b208185611ab6565b9350611b2b83611ac7565b8060005b83811015611b5c578151611b438882611ae6565b9750611b4e83611afe565b925050600181019050611b2f565b5085935050505092915050565b600081519050919050565b600082825260208201905092915050565b6000819050602082019050919050565b611b9e81611021565b82525050565b6000611bb08383611b95565b60208301905092915050565b6000602082019050919050565b6000611bd482611b69565b611bde8185611b74565b9350611be983611b85565b8060005b83811015611c1a578151611c018882611ba4565b9750611c0c83611bbc565b925050600181019050611bed565b5085935050505092915050565b60006080820190508181036000830152611c418187611b0b565b90508181036020830152611c558186611bc9565b90508181036040830152611c698185611bc9565b90508181036060830152611c7d8184611bc9565b905095945050505050565b6000608082019050611c9d600083018761102b565b611caa602083018661102b565b611cb7604083018561102b565b611cc4606083018461102b565b95945050505050565b6000608082019050611ce2600083018761102b565b611cef602083018661102b565b8181036040830152611d018185611b0b565b90508181036060830152611d158184611bc9565b905095945050505050565b6000606082019050611d356000830186611a1c565b611d42602083018561102b565b611d4f6040830184611596565b94935050505056fea264697066735822122050ef454bbae5acc4f15d30ecc2d34c0a6e4c76cc895902cea0ff377c8d21c1b864736f6c63430008110033",
  "immutableReferences": {
    "1333": [
      {
        "length": 32,
        "start": 885
      }
    ]
  },
  "source": "// SPDX-License-Identifier: MIT\n\npragma solidity ^0.8.17;\n\npragma experimental ABIEncoderV2;\n\nimport \"./base/BaseController.sol\";\n\ncontract BondingCurveController is BaseController {\n\n    constructor(address _vaultAddress) BaseController(_vaultAddress) {}\n\n    // As liquidity is added/removed, pool tokens are minted/burned and a price calculated for the pool tokens\n    // according to the bonding curve formula. \n    function runCheck(bytes32 _poolId) public view restricted returns(uint)\n    {\n        // Get Pool tokens\n        // (tokens, balances, lastChangeBlock) = vault.getPoolTokens(poolId);\n        (IERC20[] memory tokens, , ) = vault.getPoolTokens(_poolId);\n        IAsset[] memory assets = _convertERC20sToAssets(tokens);\n\n        // Returns a collection of tokens and their amounts\n        // tokens:  [0xba100000625a3754423978a60c9317c58a424e3D,\n        //              0xC02aaA39b223FE8D0A0e5C4F27eAD9083C756Cc2]\n        // \n        // balances:  [5720903090084350251216632,\n        //              7939247003721636150710]\n\n        // Calculate the weighting here\n        // https://docs.balancer.fi/reference/math/weighted-math.html#overview\n\n        // Check if outside of bounds and if so, transfer tokens\n\n        // const uint supply = bpt.totalSupply();\n\n        // pool.getOwner();\n        // pool.getPausedState();\n\n        return 1;\n    }\n}\n",
  "sourcePath": "/home/eagle/Source/Balancer.Controller/contracts/BondingCurveController.sol",
  "compiler": {
    "name": "solc",
    "version": "0.8.17+commit.8df45f5f.Emscripten.clang"
  },
  "schemaVersion": "3.4.11",
  "updatedAt": "2023-02-24T15:36:07.713Z",
  "devdoc": {
    "kind": "dev",
    "methods": {},
    "version": 1
  },
  "userdoc": {
    "kind": "user",
    "methods": {},
    "version": 1
  }
}