{
  "contractName": "BondingCurveController",
  "abi": [
    {
      "inputs": [
        {
          "internalType": "address",
          "name": "_vaultAddress",
          "type": "address"
        },
        {
          "internalType": "address",
          "name": "_managedPoolFactory",
          "type": "address"
        }
      ],
      "stateMutability": "nonpayable",
      "type": "constructor"
    },
    {
      "inputs": [
        {
          "internalType": "address",
          "name": "_poolAddress",
          "type": "address"
        },
        {
          "internalType": "address",
          "name": "_member",
          "type": "address"
        }
      ],
      "name": "addAllowedAddress",
      "outputs": [],
      "stateMutability": "nonpayable",
      "type": "function"
    },
    {
      "inputs": [
        {
          "internalType": "address",
          "name": "_poolAddress",
          "type": "address"
        },
        {
          "internalType": "contract IERC20",
          "name": "_tokenToAdd",
          "type": "address"
        },
        {
          "internalType": "address",
          "name": "_assetManager",
          "type": "address"
        },
        {
          "internalType": "uint256",
          "name": "_tokenToAddNormalizedWeight",
          "type": "uint256"
        },
        {
          "internalType": "uint256",
          "name": "_mintAmount",
          "type": "uint256"
        },
        {
          "internalType": "address",
          "name": "_recipient",
          "type": "address"
        }
      ],
      "name": "addToken",
      "outputs": [],
      "stateMutability": "nonpayable",
      "type": "function"
    },
    {
      "inputs": [
        {
          "internalType": "address",
          "name": "_poolAddress",
          "type": "address"
        }
      ],
      "name": "collectAumManagementFees",
      "outputs": [],
      "stateMutability": "nonpayable",
      "type": "function"
    },
    {
      "inputs": [
        {
          "internalType": "string",
          "name": "_name",
          "type": "string"
        },
        {
          "internalType": "string",
          "name": "_symbol",
          "type": "string"
        },
        {
          "internalType": "contract IERC20[]",
          "name": "_tokens",
          "type": "address[]"
        },
        {
          "internalType": "uint256[]",
          "name": "_normalizedWeights",
          "type": "uint256[]"
        },
        {
          "internalType": "address[]",
          "name": "_assetManagers",
          "type": "address[]"
        },
        {
          "internalType": "uint256",
          "name": "_swapFeePercentage",
          "type": "uint256"
        },
        {
          "internalType": "bool",
          "name": "_swapEnabledOnStart",
          "type": "bool"
        },
        {
          "internalType": "bool",
          "name": "_mustAllowlistLPs",
          "type": "bool"
        },
        {
          "internalType": "uint256",
          "name": "_managementAumFeePercentage",
          "type": "uint256"
        },
        {
          "internalType": "uint256",
          "name": "_aumFeeId",
          "type": "uint256"
        },
        {
          "internalType": "uint256",
          "name": "_tolerance",
          "type": "uint256"
        },
        {
          "internalType": "bytes32",
          "name": "_salt",
          "type": "bytes32"
        }
      ],
      "name": "createPool",
      "outputs": [],
      "stateMutability": "nonpayable",
      "type": "function"
    },
    {
      "inputs": [
        {
          "internalType": "uint256",
          "name": "_amount",
          "type": "uint256"
        },
        {
          "internalType": "address",
          "name": "_tokenAddress",
          "type": "address"
        }
      ],
      "name": "depositTokens",
      "outputs": [],
      "stateMutability": "nonpayable",
      "type": "function"
    },
    {
      "inputs": [
        {
          "internalType": "address",
          "name": "_poolAddress",
          "type": "address"
        }
      ],
      "name": "getPoolId",
      "outputs": [
        {
          "internalType": "bytes32",
          "name": "",
          "type": "bytes32"
        }
      ],
      "stateMutability": "view",
      "type": "function"
    },
    {
      "inputs": [],
      "name": "getPoolsUnderManagement",
      "outputs": [
        {
          "internalType": "address[]",
          "name": "",
          "type": "address[]"
        }
      ],
      "stateMutability": "view",
      "type": "function"
    },
    {
      "inputs": [
        {
          "internalType": "address",
          "name": "_poolAddress",
          "type": "address"
        }
      ],
      "name": "getSwapEnabled",
      "outputs": [
        {
          "internalType": "bool",
          "name": "",
          "type": "bool"
        }
      ],
      "stateMutability": "view",
      "type": "function"
    },
    {
      "inputs": [],
      "name": "managedPoolFactory",
      "outputs": [
        {
          "internalType": "contract ManagedPoolFactory",
          "name": "",
          "type": "address"
        }
      ],
      "stateMutability": "view",
      "type": "function"
    },
    {
      "inputs": [
        {
          "internalType": "address",
          "name": "",
          "type": "address"
        }
      ],
      "name": "managedPools",
      "outputs": [
        {
          "internalType": "string",
          "name": "poolName",
          "type": "string"
        },
        {
          "internalType": "string",
          "name": "poolSymbol",
          "type": "string"
        },
        {
          "internalType": "uint256",
          "name": "tolerance",
          "type": "uint256"
        }
      ],
      "stateMutability": "view",
      "type": "function"
    },
    {
      "inputs": [],
      "name": "manager",
      "outputs": [
        {
          "internalType": "address",
          "name": "",
          "type": "address"
        }
      ],
      "stateMutability": "view",
      "type": "function"
    },
    {
      "inputs": [
        {
          "internalType": "address",
          "name": "_poolAddress",
          "type": "address"
        },
        {
          "internalType": "address",
          "name": "_member",
          "type": "address"
        }
      ],
      "name": "removeAllowedAddress",
      "outputs": [],
      "stateMutability": "nonpayable",
      "type": "function"
    },
    {
      "inputs": [
        {
          "internalType": "address",
          "name": "_poolAddress",
          "type": "address"
        },
        {
          "internalType": "contract IERC20",
          "name": "_tokenToRemove",
          "type": "address"
        },
        {
          "internalType": "uint256",
          "name": "_burnAmount",
          "type": "uint256"
        },
        {
          "internalType": "address",
          "name": "_sender",
          "type": "address"
        }
      ],
      "name": "removeToken",
      "outputs": [],
      "stateMutability": "nonpayable",
      "type": "function"
    },
    {
      "inputs": [
        {
          "internalType": "address",
          "name": "_poolAddress",
          "type": "address"
        },
        {
          "internalType": "contract IERC20[]",
          "name": "_tokens",
          "type": "address[]"
        },
        {
          "internalType": "uint256[]",
          "name": "_bptPrices",
          "type": "uint256[]"
        },
        {
          "internalType": "uint256[]",
          "name": "_lowerBoundPercentages",
          "type": "uint256[]"
        },
        {
          "internalType": "uint256[]",
          "name": "_upperBoundPercentages",
          "type": "uint256[]"
        }
      ],
      "name": "setCircuitBreakers",
      "outputs": [],
      "stateMutability": "nonpayable",
      "type": "function"
    },
    {
      "inputs": [
        {
          "internalType": "address",
          "name": "_poolAddress",
          "type": "address"
        },
        {
          "internalType": "bool",
          "name": "_joinExitEnabled",
          "type": "bool"
        }
      ],
      "name": "setJoinExitEnabled",
      "outputs": [],
      "stateMutability": "nonpayable",
      "type": "function"
    },
    {
      "inputs": [
        {
          "internalType": "address",
          "name": "_poolAddress",
          "type": "address"
        },
        {
          "internalType": "uint256",
          "name": "_managementAumFeePercentage",
          "type": "uint256"
        }
      ],
      "name": "setManagementAumFeePercentage",
      "outputs": [],
      "stateMutability": "nonpayable",
      "type": "function"
    },
    {
      "inputs": [
        {
          "internalType": "address",
          "name": "_poolAddress",
          "type": "address"
        },
        {
          "internalType": "bool",
          "name": "_mustAllowlistLPs",
          "type": "bool"
        }
      ],
      "name": "setMustAllowlistLPs",
      "outputs": [],
      "stateMutability": "nonpayable",
      "type": "function"
    },
    {
      "inputs": [
        {
          "internalType": "address",
          "name": "_poolAddress",
          "type": "address"
        },
        {
          "internalType": "bool",
          "name": "_swapEnabled",
          "type": "bool"
        }
      ],
      "name": "setSwapEnabled",
      "outputs": [],
      "stateMutability": "nonpayable",
      "type": "function"
    },
    {
      "inputs": [
        {
          "internalType": "address",
          "name": "_manager",
          "type": "address"
        }
      ],
      "name": "transferManagement",
      "outputs": [],
      "stateMutability": "nonpayable",
      "type": "function"
    },
    {
      "inputs": [
        {
          "internalType": "address",
          "name": "_poolAddress",
          "type": "address"
        },
        {
          "internalType": "uint256",
          "name": "_startTime",
          "type": "uint256"
        },
        {
          "internalType": "uint256",
          "name": "_endTime",
          "type": "uint256"
        },
        {
          "internalType": "uint256",
          "name": "_startSwapFeePercentage",
          "type": "uint256"
        },
        {
          "internalType": "uint256",
          "name": "_endSwapFeePercentage",
          "type": "uint256"
        }
      ],
      "name": "updateSwapFeeGradually",
      "outputs": [],
      "stateMutability": "nonpayable",
      "type": "function"
    },
    {
      "inputs": [
        {
          "internalType": "address",
          "name": "_poolAddress",
          "type": "address"
        },
        {
          "internalType": "uint256",
          "name": "_startTime",
          "type": "uint256"
        },
        {
          "internalType": "uint256",
          "name": "_endTime",
          "type": "uint256"
        },
        {
          "internalType": "contract IERC20[]",
          "name": "_tokens",
          "type": "address[]"
        },
        {
          "internalType": "uint256[]",
          "name": "_endWeights",
          "type": "uint256[]"
        }
      ],
      "name": "updateWeightsGradually",
      "outputs": [],
      "stateMutability": "nonpayable",
      "type": "function"
    },
    {
      "inputs": [
        {
          "internalType": "address",
          "name": "_recipientAddress",
          "type": "address"
        },
        {
          "internalType": "address",
          "name": "_tokenAddress",
          "type": "address"
        },
        {
          "internalType": "uint256",
          "name": "_amount",
          "type": "uint256"
        }
      ],
      "name": "withdrawFunds",
      "outputs": [],
      "stateMutability": "nonpayable",
      "type": "function"
    },
    {
      "inputs": [
        {
          "internalType": "address",
          "name": "_poolAddress",
          "type": "address"
        }
      ],
      "name": "runCheck",
      "outputs": [],
      "stateMutability": "nonpayable",
      "type": "function"
    }
  ],
  "bytecode": "0x60c06040523480156200001157600080fd5b506040516200280238038062002802833981016040819052620000349162000087565b6001600081905580546001600160a01b031916331790556001600160601b0319606092831b8116608052911b1660a052620000be565b80516001600160a01b03811681146200008257600080fd5b919050565b600080604083850312156200009a578182fd5b620000a5836200006a565b9150620000b5602084016200006a565b90509250929050565b60805160601c60a05160601c612706620000fc600039806106b1528061175c525080610a935280610bb35280611098528061116452506127066000f3fe608060405234801561001057600080fd5b506004361061014d5760003560e01c806351d48cea116100c3578063c90d3a041161007c578063c90d3a04146102c0578063caa9a08d146102d3578063cbe04b0c146102f3578063d4f25a4b14610306578063e4444feb1461030e578063e4edf852146103215761014d565b806351d48cea1461023d578063556f1eb9146102505780637b35a88f146102635780638722081a14610285578063875e7cd91461029a578063abd796bf146102ad5761014d565b806341bfc4bc1161011557806341bfc4bc146101c957806342da1cb1146101dc578063458aa92b146101ef578063481c6a75146102025780634e4858d9146102175780634f6300a21461022a5761014d565b80631c20fadd1461015257806321f1e0cd146101675780632abbd3ad1461017a578063315fa7651461018d578063404ac21e146101b6575b600080fd5b610165610160366004611c9b565b610334565b005b610165610175366004611dc3565b6103e6565b610165610188366004611d96565b61047e565b6101a061019b366004611c24565b61050a565b6040516101ad919061243e565b60405180910390f35b6101656101c4366004611c24565b610585565b6101656101d73660046120b6565b610629565b6101656101ea366004611eb5565b610886565b6101656101fd366004611cdb565b61092f565b61020a6109c4565b6040516101ad9190612381565b610165610225366004611c24565b6109d3565b6101656102383660046121f7565b6111d7565b61016561024b366004611d96565b611327565b61016561025e366004611d96565b611374565b610276610271366004611c24565b6113c1565b6040516101ad939291906124e1565b61028d611500565b6040516101ad91906123d3565b6101656102a8366004611f38565b611562565b6101656102bb366004611c63565b6115b5565b6101656102ce366004611ee0565b611602565b6102e66102e1366004611c24565b611655565b6040516101ad9190612449565b610165610301366004611e32565b6116c8565b61020a61175a565b61016561031c366004611c63565b61177e565b61016561032f366004611c24565b6117cb565b6001546001600160a01b0316331461034b57600080fd5b610353611804565b6040516323b872dd60e01b815282906001600160a01b038216906323b872dd90610385903090889087906004016123af565b602060405180830381600087803b15801561039f57600080fd5b505af11580156103b3573d6000803e3d6000fd5b505050506040513d601f19601f820116820180604052508101906103d79190612082565b50506103e161181d565b505050565b6001546001600160a01b031633146103fd57600080fd5b610405611804565b6040516306946dbf60e31b815286906001600160a01b038216906334a36df89061043b908990899089908990899060040161248e565b600060405180830381600087803b15801561045557600080fd5b505af1158015610469573d6000803e3d6000fd5b505050505061047661181d565b505050505050565b6001546001600160a01b0316331461049557600080fd5b61049d611804565b604051637b749c4560e01b815282906001600160a01b03821690637b749c45906104cb90859060040161243e565b600060405180830381600087803b1580156104e557600080fd5b505af11580156104f9573d6000803e3d6000fd5b505050505061050661181d565b5050565b6000816001600160a01b03166347bc4d926040518163ffffffff1660e01b815260040160206040518083038186803b15801561054557600080fd5b505afa158015610559573d6000803e3d6000fd5b505050506040513d601f19601f8201168201806040525081019061057d9190612082565b90505b919050565b6001546001600160a01b0316331461059c57600080fd5b6105a4611804565b6000819050806001600160a01b03166373656f896040518163ffffffff1660e01b8152600401602060405180830381600087803b1580156105e457600080fd5b505af11580156105f8573d6000803e3d6000fd5b505050506040513d601f19601f8201168201806040525081019061061c919061209e565b505061062661181d565b50565b6001546001600160a01b0316331461064057600080fd5b610648611804565b61065061188d565b8c8152602081018c9052604081018990526106696118ae565b8b8152602081018b905260408082018a90528815156060830152871515608083015260a0820187905260c0820186905251637304b8b960e01b81526000906001600160a01b037f00000000000000000000000000000000000000000000000000000000000000001690637304b8b9906106ec908690869030908a90600401612536565b602060405180830381600087803b15801561070657600080fd5b505af115801561071a573d6000803e3d6000fd5b505050506040513d601f19601f8201168201806040525081019061073e9190611c47565b90506003819080600181540180825580915050600190039060005260206000200160009091909190916101000a8154816001600160a01b0302191690836001600160a01b031602179055508e60026000836001600160a01b03166001600160a01b0316815260200190815260200160002060000190805190602001906107c59291906118ef565b508d60026000836001600160a01b03166001600160a01b0316815260200190815260200160002060010190805190602001906108029291906118ef565b508460026000836001600160a01b03166001600160a01b03168152602001908152602001600020600201819055508c60026000836001600160a01b03166001600160a01b03168152602001908152602001600020600301908051906020019061086c92919061197b565b5050505061087861181d565b505050505050505050505050565b6001546001600160a01b0316331461089d57600080fd5b6108a5611804565b604051632a9a032360e01b815282906001600160a01b03821690632a9a0323906108d3908590600401612449565b602060405180830381600087803b1580156108ed57600080fd5b505af1158015610901573d6000803e3d6000fd5b505050506040513d601f19601f82011682018060405250810190610925919061209e565b505061050661181d565b6001546001600160a01b0316331461094657600080fd5b61094e611804565b60405163f885a4bb60e01b815285906001600160a01b0382169063f885a4bb906109829088908890889088906004016123e6565b600060405180830381600087803b15801561099c57600080fd5b505af11580156109b0573d6000803e3d6000fd5b50505050506109bd61181d565b5050505050565b6001546001600160a01b031681565b6001546001600160a01b031633146109ea57600080fd5b6109f2611804565b6109fa6119d0565b6001600160a01b0382168082526040805163038fff2d60e41b815290516338fff2d091600480820192602092909190829003018186803b158015610a3d57600080fd5b505afa158015610a51573d6000803e3d6000fd5b505050506040513d601f19601f82011682018060405250810190610a75919061209e565b6020820181905260405163f6c0092760e01b81526001600160a01b037f0000000000000000000000000000000000000000000000000000000000000000169163f6c0092791610ac79190600401612449565b604080518083038186803b158015610ade57600080fd5b505afa158015610af2573d6000803e3d6000fd5b505050506040513d601f19601f82011682018060405250810190610b169190611e84565b505080600001516001600160a01b031663f89f27ed6040518163ffffffff1660e01b815260040160006040518083038186803b158015610b5557600080fd5b505afa158015610b69573d6000803e3d6000fd5b505050506040513d6000823e601f3d908101601f19168201604052610b919190810190612047565b6101408201526020810151604051631f29a8cd60e31b81526001600160a01b037f0000000000000000000000000000000000000000000000000000000000000000169163f94d466891610be79190600401612449565b60006040518083038186803b158015610bff57600080fd5b505afa158015610c13573d6000803e3d6000fd5b505050506040513d6000823e601f3d908101601f19168201604052610c3b9190810190611f7b565b506101808301526101608201819052610c5390611824565b6101a08201526000604082018190526060820181905261018082015180518290610c7957fe5b60200260200101511115610d2557806101400151600081518110610c9957fe5b6020026020010151816101800151600081518110610cb357fe5b602002602001015181610cc257fe5b04816101400151600181518110610cd557fe5b6020026020010151826101800151600181518110610cef57fe5b602002602001015181610cfe57fe5b0481610d0657fe5b048160c00151600081518110610d1857fe5b6020026020010181815250505b60015b81610160015151811015610dfa5760008261018001518281518110610d4957fe5b60200260200101511115610df2578161014001518181518110610d6857fe5b60200260200101518261018001518281518110610d8157fe5b602002602001015181610d9057fe5b04826101400151600081518110610da357fe5b6020026020010151836101800151600081518110610dbd57fe5b602002602001015181610dcc57fe5b0481610dd457fe5b048260c001518281518110610de557fe5b6020026020010181815250505b600101610d28565b5060015b81610160015151811015610e6f5760008260c001518281518110610e1e57fe5b60200260200101511115610e67576001600160a01b0383166000908152600260208190526040909120015460e0830151805183908110610e5a57fe5b6020026020010181815250505b600101610dfe565b5060015b81610160015151811015611036576001600160a01b0383166000908152600260208190526040909120015460e0830151805183908110610eaf57fe5b602002602001015112610f315760026000846001600160a01b03166001600160a01b031681526020019081526020016000206002015460648361018001518381518110610ef857fe5b602002602001015181610f0757fe5b04028261012001518281518110610f1a57fe5b60209081029190910101526001606083015261102e565b60026000846001600160a01b03166001600160a01b03168152602001908152602001600020600201546000038260e001518281518110610f6d57fe5b602002602001015113610fef5760026000846001600160a01b03166001600160a01b031681526020019081526020016000206002015460648361018001518381518110610fb657fe5b602002602001015181610fc557fe5b04028261010001518281518110610fd857fe5b60209081029190910101526001604083015261102e565b6000826101000151828151811061100257fe5b6020026020010181815250506000826101200151828151811061102157fe5b6020026020010181815250505b600101610e73565b50806060015115611102576101a081015160808201805191909152604080516020808201835260008252835183019190915282516001606090910152610120840151835182015283015191519051638bdb391360e01b81526001600160a01b037f00000000000000000000000000000000000000000000000000000000000000001692638bdb3913926110cf9230918891600401612452565b600060405180830381600087803b1580156110e957600080fd5b505af11580156110fd573d6000803e3d6000fd5b505050505b8060400151156111ce576101a081015160a082018051919091526040805160208082018352600082528351830191909152825160016060919091015261010084015183518201528301519151905163172b958560e31b81526001600160a01b037f0000000000000000000000000000000000000000000000000000000000000000169263b95cac289261119b9230918891600401612452565b600060405180830381600087803b1580156111b557600080fd5b505af11580156111c9573d6000803e3d6000fd5b505050505b5061062661181d565b6001546001600160a01b031633146111ee57600080fd5b6111f6611804565b604051636eb1769f60e11b815282908290819083906001600160a01b0383169063dd62ed3e9061122c9033903090600401612395565b60206040518083038186803b15801561124457600080fd5b505afa158015611258573d6000803e3d6000fd5b505050506040513d601f19601f8201168201806040525081019061127c919061209e565b10156112a35760405162461bcd60e51b815260040161129a90612517565b60405180910390fd5b6040516323b872dd60e01b815284906001600160a01b038216906323b872dd906112d590339030908b906004016123af565b602060405180830381600087803b1580156112ef57600080fd5b505af1158015611303573d6000803e3d6000fd5b505050506040513d601f19601f820116820180604052508101906104f99190612082565b6001546001600160a01b0316331461133e57600080fd5b611346611804565b604051633806be4b60e21b815282906001600160a01b0382169063e01af92c906104cb90859060040161243e565b6001546001600160a01b0316331461138b57600080fd5b611393611804565b60405163de3d2b2d60e01b815282906001600160a01b0382169063de3d2b2d906104cb90859060040161243e565b600260208181526000928352604092839020805484516001821615610100026000190190911693909304601f81018390048302840183019094528383529283918301828280156114525780601f1061142757610100808354040283529160200191611452565b820191906000526020600020905b81548152906001019060200180831161143557829003601f168201915b505050505090806001018054600181600116156101000203166002900480601f0160208091040260200160405190810160405280929190818152602001828054600181600116156101000203166002900480156114f05780601f106114c5576101008083540402835291602001916114f0565b820191906000526020600020905b8154815290600101906020018083116114d357829003601f168201915b5050505050908060020154905083565b6060600380548060200260200160405190810160405280929190818152602001828054801561155857602002820191906000526020600020905b81546001600160a01b0316815260019091019060200180831161153a575b5050505050905090565b6001546001600160a01b0316331461157957600080fd5b611581611804565b604051635b160f8360e11b815285906001600160a01b0382169063b62c1f0690610982908890889088908890600401612650565b6001546001600160a01b031633146115cc57600080fd5b6115d4611804565b6040516381788e2b60e01b815282906001600160a01b038216906381788e2b906104cb908590600401612381565b6001546001600160a01b0316331461161957600080fd5b611621611804565b60405163819c70f360e01b815285906001600160a01b0382169063819c70f39061098290889088908890889060040161261f565b6000816001600160a01b03166338fff2d06040518163ffffffff1660e01b815260040160206040518083038186803b15801561169057600080fd5b505afa1580156116a4573d6000803e3d6000fd5b505050506040513d601f19601f8201168201806040525081019061057d919061209e565b6001546001600160a01b031633146116df57600080fd5b6116e7611804565b6040516397bb15c960e01b815284906001600160a01b038216906397bb15c990611719908790879087906004016124be565b600060405180830381600087803b15801561173357600080fd5b505af1158015611747573d6000803e3d6000fd5b505050505061175461181d565b50505050565b7f000000000000000000000000000000000000000000000000000000000000000081565b6001546001600160a01b0316331461179557600080fd5b61179d611804565b604051630793b27760e31b815282906001600160a01b03821690633c9d93b8906104cb908590600401612381565b6001546001600160a01b031633146117e257600080fd5b600180546001600160a01b0319166001600160a01b0392909216919091179055565b61181660026000541415610190611827565b6002600055565b6001600055565b90565b816105065762461bcd60e51b600090815260206004526007602452600a808304818106603090810160081b83860601918390049283060160101b016642414c230000300160c81b604452610506918391610626916210905360ea1b906242414c90606490fd5b60405180606001604052806060815260200160608152602001606081525090565b6040518060e0016040528060608152602001606081526020016000815260200160001515815260200160001515815260200160008152602001600081525090565b828054600181600116156101000203166002900490600052602060002090601f016020900481019282611925576000855561196b565b82601f1061193e57805160ff191683800117855561196b565b8280016001018555821561196b579182015b8281111561196b578251825591602001919060010190611950565b50611977929150611a4c565b5090565b82805482825590600052602060002090810192821561196b579160200282015b8281111561196b57825182546001600160a01b0319166001600160a01b0390911617825560209092019160019091019061199b565b604080516101c081018252600080825260208201819052918101829052606081019190915260808101611a01611a61565b8152602001611a0e611a61565b815260200160608152602001606081526020016060815260200160608152602001606081526020016060815260200160608152602001606081525090565b5b808211156119775760008155600101611a4d565b60405180608001604052806060815260200160608152602001606081526020016000151581525090565b600082601f830112611a9b578081fd5b81356020611ab0611aab8361268f565b61266b565b8281528181019085830183850287018401881015611acc578586fd5b855b85811015611af3578135611ae1816126ad565b84529284019290840190600101611ace565b5090979650505050505050565b600082601f830112611b10578081fd5b81356020611b20611aab8361268f565b8281528181019085830183850287018401881015611b3c578586fd5b855b85811015611af357813584529284019290840190600101611b3e565b600082601f830112611b6a578081fd5b81516020611b7a611aab8361268f565b8281528181019085830183850287018401881015611b96578586fd5b855b85811015611af357815184529284019290840190600101611b98565b8035610580816126c2565b600082601f830112611bcf578081fd5b813567ffffffffffffffff811115611be357fe5b611bf6601f8201601f191660200161266b565b818152846020838601011115611c0a578283fd5b816020850160208301379081016020019190915292915050565b600060208284031215611c35578081fd5b8135611c40816126ad565b9392505050565b600060208284031215611c58578081fd5b8151611c40816126ad565b60008060408385031215611c75578081fd5b8235611c80816126ad565b91506020830135611c90816126ad565b809150509250929050565b600080600060608486031215611caf578081fd5b8335611cba816126ad565b92506020840135611cca816126ad565b929592945050506040919091013590565b600080600080600060a08688031215611cf2578283fd5b8535611cfd816126ad565b9450602086013567ffffffffffffffff80821115611d19578485fd5b611d2589838a01611a8b565b95506040880135915080821115611d3a578485fd5b611d4689838a01611b00565b94506060880135915080821115611d5b578283fd5b611d6789838a01611b00565b93506080880135915080821115611d7c578283fd5b50611d8988828901611b00565b9150509295509295909350565b60008060408385031215611da8578182fd5b8235611db3816126ad565b91506020830135611c90816126c2565b60008060008060008060c08789031215611ddb578384fd5b8635611de6816126ad565b95506020870135611df6816126ad565b94506040870135611e06816126ad565b9350606087013592506080870135915060a0870135611e24816126ad565b809150509295509295509295565b60008060008060808587031215611e47578182fd5b8435611e52816126ad565b93506020850135611e62816126ad565b9250604085013591506060850135611e79816126ad565b939692955090935050565b60008060408385031215611e96578182fd5b8251611ea1816126ad565b602084015190925060038110611c90578182fd5b60008060408385031215611ec7578182fd5b8235611ed2816126ad565b946020939093013593505050565b600080600080600060a08688031215611ef7578283fd5b8535611f02816126ad565b94506020860135935060408601359250606086013567ffffffffffffffff80821115611f2c578283fd5b611d6789838a01611a8b565b600080600080600060a08688031215611f4f578283fd5b8535611f5a816126ad565b97602087013597506040870135966060810135965060800135945092505050565b600080600060608486031215611f8f578081fd5b835167ffffffffffffffff80821115611fa6578283fd5b818601915086601f830112611fb9578283fd5b81516020611fc9611aab8361268f565b82815281810190858301838502870184018c1015611fe5578788fd5b8796505b84871015612010578051611ffc816126ad565b835260019690960195918301918301611fe9565b5091890151919750909350505080821115612029578283fd5b5061203686828701611b5a565b925050604084015190509250925092565b600060208284031215612058578081fd5b815167ffffffffffffffff81111561206e578182fd5b61207a84828501611b5a565b949350505050565b600060208284031215612093578081fd5b8151611c40816126c2565b6000602082840312156120af578081fd5b5051919050565b6000806000806000806000806000806000806101808d8f0312156120d857898afd5b67ffffffffffffffff8d3511156120ed57898afd5b6120fa8e8e358f01611bbf565b9b5067ffffffffffffffff60208e0135111561211457898afd5b6121248e60208f01358f01611bbf565b9a5067ffffffffffffffff60408e0135111561213e57898afd5b61214e8e60408f01358f01611a8b565b995067ffffffffffffffff60608e01351115612168578586fd5b6121788e60608f01358f01611b00565b985067ffffffffffffffff60808e01351115612192578586fd5b6121a28e60808f01358f01611a8b565b975060a08d013596506121b760c08e01611bb4565b95506121c560e08e01611bb4565b94506101008d013593506101208d013592506101408d013591506101608d013590509295989b509295989b509295989b565b60008060408385031215612209578182fd5b823591506020830135611c90816126ad565b6001600160a01b03169052565b6000815180845260208085019450808401835b838110156122605781516001600160a01b03168752958201959082019060010161223b565b509495945050505050565b6000815180845260208085019450808401835b838110156122605781518752958201959082019060010161227e565b15159052565b60008151808452815b818110156122c5576020818501810151868301820152016122a9565b818111156122d65782602083870101525b50601f01601f19169290920160200192915050565b8051608080845281519084018190526000916020919082019060a0860190845b818110156123305783516001600160a01b03168352928401929184019160010161230b565b505082850151915085810383870152612349818361226b565b925050506040830151848203604086015261236482826122a0565b9150506060830151612379606086018261229a565b509392505050565b6001600160a01b0391909116815260200190565b6001600160a01b0392831681529116602082015260400190565b6001600160a01b039384168152919092166020820152604081019190915260600190565b600060208252611c406020830184612228565b6000608082526123f96080830187612228565b828103602084015261240b818761226b565b9050828103604084015261241f818661226b565b90508281036060840152612433818561226b565b979650505050505050565b901515815260200190565b90815260200190565b8481526001600160a01b03848116602083015283166040820152608060608201819052600090612484908301846122eb565b9695505050505050565b6001600160a01b039586168152938516602085015260408401929092526060830152909116608082015260a00190565b6001600160a01b0393841681526020810192909252909116604082015260600190565b6000606082526124f460608301866122a0565b828103602084015261250681866122a0565b915050826040830152949350505050565b60208082526005908201526422b93937b960d91b604082015260600190565b60006080825285516060608084015261255260e08401826122a0565b90506020870151607f19808584030160a086015261257083836122a0565b925060408901519150808584030160c08601525061258e8282612228565b9150508281036020840152855160e082526125ac60e0830182612228565b9050602087015182820360208401526125c5828261226b565b9150506040870151604083015260608701511515606083015260808701511515608083015260a087015160a083015260c087015160c08301528092505050612610604083018561221b565b82606083015295945050505050565b60008582528460208301526080604083015261263e6080830185612228565b8281036060840152612433818561226b565b93845260208401929092526040830152606082015260800190565b60405181810167ffffffffffffffff8111828210171561268757fe5b604052919050565b600067ffffffffffffffff8211156126a357fe5b5060209081020190565b6001600160a01b038116811461062657600080fd5b801515811461062657600080fdfea26469706673582212201003fefcde3826d31aabc7f3eb2c9bb59189385c6f189dbeaa212d9a18e5bf6964736f6c63430007060033",
  "immutableReferences": {
    "3130": [
      {
        "length": 32,
        "start": 2707
      },
      {
        "length": 32,
        "start": 2995
      },
      {
        "length": 32,
        "start": 4248
      },
      {
        "length": 32,
        "start": 4452
      }
    ],
    "3132": [
      {
        "length": 32,
        "start": 1713
      },
      {
        "length": 32,
        "start": 5980
      }
    ]
  },
  "source": "// SPDX-License-Identifier: MIT\n\npragma solidity ^0.7.0;\npragma experimental ABIEncoderV2;\n\nimport \"./base/BaseController.sol\";\nimport \"./lib/SupportLib.sol\";\n\ncontract BondingCurveController is BaseController {\n\n    struct CurveValues {\n        IManagedPool managedPool;\n        bytes32 poolId;\n        bool bJoin;\n        bool bExit;\n        IVault.ExitPoolRequest newExitRequest;\n        IVault.JoinPoolRequest newJoinRequest;\n        uint256[] tokenPrices;\n        int256[] oraclePriceDeltas;\n        uint256[] tokenBalancesToAdd;\n        uint256[] tokenBalancesToRemove;\n        uint256[] normalizedWeights;\n        IERC20[] tokens;\n        uint256[] balances;\n        IAsset[] assets;\n    }\n\n    /**\n     * @notice Constructor for the controller implementation class\n     *\n     * @param _vaultAddress - Vault contract address\n     * @param _managedPoolFactory - Managed pool contract address\n     */\n    constructor(address _vaultAddress,\n                address _managedPoolFactory) BaseController(_vaultAddress, _managedPoolFactory) {}\n\n    /**\n     * @notice Runs a check and transfers reserve tokens as needed\n     * @dev To avoid too many fees, this should be run at wide intervals such as daily\n     *\n     * @param _poolAddress - Address of pool being worked on.\n     */\n    function runCheck(address _poolAddress) public restricted nonReentrant\n    {\n        CurveValues memory curveInfo;\n        curveInfo.managedPool = IManagedPool(_poolAddress);\n        curveInfo.poolId = curveInfo.managedPool.getPoolId();\n        vault.getPool(curveInfo.poolId);\n        curveInfo.normalizedWeights = curveInfo.managedPool.getNormalizedWeights();\n\n        (curveInfo.tokens, curveInfo.balances,) = vault.getPoolTokens(curveInfo.poolId);\n        curveInfo.assets = SupportLib._convertERC20sToAssets(curveInfo.tokens);\n\n        curveInfo.bJoin = false;\n        curveInfo.bExit = false;\n        if (curveInfo.balances[0]  > 0)\n        {\n            curveInfo.tokenPrices[0] = (curveInfo.balances[1] / curveInfo.normalizedWeights[1]) / (curveInfo.balances[0] / curveInfo.normalizedWeights[0]);\n        }\n\n        // Get price of other tokens\n        for (uint256 i = 1; i < curveInfo.tokens.length; i++) {\n            if (curveInfo.balances[i] > 0)\n            {\n                curveInfo.tokenPrices[i] = (curveInfo.balances[0] / curveInfo.normalizedWeights[0]) / (curveInfo.balances[i] / curveInfo.normalizedWeights[i]);\n            }\n        }\n\n        // We now have a list of tokens and prices in this pool so we next get token prices from an external oracle and record the delta.\n        // We don't presently have an oracle so for testing we'll use the tolerance value set when creating the pool\n        for (uint256 i = 1; i < curveInfo.tokens.length; i++) {\n            if (curveInfo.tokenPrices[i] > 0)\n            {\n                curveInfo.oraclePriceDeltas[i] = int256(managedPools[_poolAddress].tolerance);\n            }\n        }\n\n        for (uint256 i = 1; i < curveInfo.tokens.length; i++) {\n            if (curveInfo.oraclePriceDeltas[i] >= int256(managedPools[_poolAddress].tolerance))\n            {\n                curveInfo.tokenBalancesToRemove[i] = curveInfo.balances[i] / 100 * managedPools[_poolAddress].tolerance;\n                curveInfo.bExit = true;\n            }\n            else if (curveInfo.oraclePriceDeltas[i] <= -int256(managedPools[_poolAddress].tolerance))\n            {\n                curveInfo.tokenBalancesToAdd[i] = curveInfo.balances[i] / 100 * managedPools[_poolAddress].tolerance;\n                curveInfo.bJoin = true;\n            }\n            else\n            {\n                curveInfo.tokenBalancesToAdd[i] = 0;\n                curveInfo.tokenBalancesToRemove[i] = 0;\n            }\n        }\n\n        // If there's tokens to remove then call exitPool\n        if (curveInfo.bExit)\n        {\n            curveInfo.newExitRequest.assets = curveInfo.assets;\n            curveInfo.newExitRequest.userData = \"\";\n            curveInfo.newExitRequest.toInternalBalance = true;\n            curveInfo.newExitRequest.minAmountsOut = curveInfo.tokenBalancesToRemove;\n\n            vault.exitPool(curveInfo.poolId,\n                               address(this),\n                               payable(_poolAddress),\n                               curveInfo.newExitRequest);\n        }\n\n        // If there's tokens to add then call joinPool\n        if (curveInfo.bJoin)\n        {\n            curveInfo.newJoinRequest.assets = curveInfo.assets;\n            curveInfo.newJoinRequest.userData = \"\";\n            curveInfo.newJoinRequest.fromInternalBalance = true;\n            curveInfo.newJoinRequest.maxAmountsIn = curveInfo.tokenBalancesToAdd;\n\n            vault.joinPool(curveInfo.poolId,\n                           address(this),\n                           payable(_poolAddress),\n                           curveInfo.newJoinRequest);\n        }\n    }\n}\n",
  "sourcePath": "/home/quinn/Source/BalancerController/Balancer.Controller/contracts/BondingCurveController.sol",
  "compiler": {
    "name": "solc",
    "version": "0.7.6+commit.7338295f.Emscripten.clang"
  },
  "schemaVersion": "3.4.14",
  "updatedAt": "2023-06-25T12:12:41.840Z",
  "devdoc": {
    "kind": "dev",
    "methods": {
      "addAllowedAddress(address,address)": {
        "details": "Will fail if the address is already allowlisted. Emits the AllowlistAddressAdded event. This is a permissioned function.",
        "params": {
          "_member": "- The address to be added to the allowlist.",
          "_poolAddress": "- Address of pool being worked on."
        }
      },
      "addToken(address,address,address,uint256,uint256,address)": {
        "details": "By adding a token to the Pool's composition, the weights of all other tokens will be decreased. The new token will have no balance - it is up to the owner to provide some immediately after calling this function. Note however that regular join functions will not work while the new token has no balance: the only way to deposit an initial amount is by using an Asset Manager. Token addition is forbidden during a weight change, or if one is scheduled to happen in the future. The caller may additionally pass a non-zero `mintAmount` to have some BPT be minted for them, which might be useful in some scenarios to account for the fact that the Pool will have more tokens. Emits the TokenAdded event.",
        "params": {
          "_assetManager": "- The Asset Manager for the token.",
          "_mintAmount": "- The amount of BPT to be minted as a result of adding `token` to the Pool.",
          "_poolAddress": "- Address of pool being worked on.",
          "_recipient": "- The address to receive the BPT minted by the Pool.",
          "_tokenToAdd": "- The ERC20 token to be added to the Pool.",
          "_tokenToAddNormalizedWeight": "- The normalized weight of `token` relative to the other tokens in the Pool."
        }
      },
      "collectAumManagementFees(address)": {
        "details": "This can be called by anyone to collect accrued AUM fees - and will be called automatically whenever the supply changes (e.g., joins and exits, add and remove token), and before the fee percentage is changed by the manager, to prevent fees from being applied retroactively.",
        "params": {
          "_poolAddress": "- Address of pool being worked on."
        }
      },
      "constructor": {
        "params": {
          "_managedPoolFactory": "- Managed pool contract address",
          "_vaultAddress": "- Vault contract address"
        }
      },
      "createPool(string,string,address[],uint256[],address[],uint256,bool,bool,uint256,uint256,uint256,bytes32)": {
        "params": {
          "_assetManagers": "- Asset manager for the pool",
          "_aumFeeId": "- Aum Fee Id",
          "_managementAumFeePercentage": "- Management Aum fee to apply",
          "_mustAllowlistLPs": "- List of LP's allowed in the pool",
          "_name": "- Pool name",
          "_normalizedWeights": "- Normalized weights in the pool",
          "_swapEnabledOnStart": "- Whether swaps are enabled straight away",
          "_swapFeePercentage": "- Fee applied to swaps",
          "_symbol": "- Symbol representing the pool",
          "_tokens": "- Tokens in the pool"
        }
      },
      "depositTokens(uint256,address)": {
        "details": "Transfers an amount of an ERC20 token",
        "params": {
          "_amount": "- Amount to deposit.",
          "_tokenAddress": "- Address of token to be deposited."
        }
      },
      "getPoolId(address)": {
        "params": {
          "_poolAddress": "- Pool to get the Id for"
        }
      },
      "getSwapEnabled(address)": {
        "params": {
          "_poolAddress": "- Pool to get the swap state for"
        }
      },
      "removeAllowedAddress(address,address)": {
        "params": {
          "_member": "- The address to be removed from the allowlist.",
          "_poolAddress": "- Pool address being worked on"
        }
      },
      "removeToken(address,address,uint256,address)": {
        "details": "Tokens can only be removed if the Pool has more than 2 tokens, as it can never have fewer than 2 (not including BPT). Token removal is also forbidden during a weight change, or if one is scheduled to happen in the future. Emits the TokenRemoved event. This is a permissioned function. The caller may additionally pass a non-zero `burnAmount` to burn some of their BPT, which might be useful in some scenarios to account for the fact that the Pool now has fewer tokens. This is a permissioned function.",
        "params": {
          "_burnAmount": "- The amount of BPT to be burned after removing `token` from the Pool.",
          "_poolAddress": "- Address of pool being worked on.",
          "_sender": "- The address to burn BPT from.",
          "_tokenToRemove": "- The ERC20 token to be removed from the Pool."
        }
      },
      "runCheck(address)": {
        "details": "To avoid too many fees, this should be run at wide intervals such as daily",
        "params": {
          "_poolAddress": "- Address of pool being worked on."
        }
      },
      "setCircuitBreakers(address,address[],uint256[],uint256[],uint256[])": {
        "details": "This is a permissioned function. The lower and upper bounds are percentages, corresponding to a relative change in the token's spot price: e.g., a lower bound of 0.8 means the breaker should prevent trades that result in the value of the token dropping 20% or more relative to the rest of the pool.",
        "params": {
          "_bptPrices": "- Token prices to for the circuit breaker",
          "_lowerBoundPercentages": "- The lower limit to trigger the circuit breaker",
          "_poolAddress": "- Pool to have a circruit breaker set",
          "_tokens": "- Tokens in the pool",
          "_upperBoundPercentages": "- The upper limit to trigger the circuit breaker"
        }
      },
      "setJoinExitEnabled(address,bool)": {
        "details": "Emits the JoinExitEnabledSet event. This is a permissioned function.",
        "params": {
          "_joinExitEnabled": "- The new value of the join/exit enabled flag.",
          "_poolAddress": "- Address of pool being worked on."
        }
      },
      "setManagementAumFeePercentage(address,uint256)": {
        "details": "Attempting to collect AUM fees in excess of the maximum permitted percentage will revert. To avoid retroactive fee increases, we force collection at the current fee percentage before processing the update. Emits the ManagementAumFeePercentageChanged event. This is a permissioned function.",
        "params": {
          "_managementAumFeePercentage": "- The new management AUM fee percentage.",
          "_poolAddress": "- Address of pool being worked on."
        }
      },
      "setMustAllowlistLPs(address,bool)": {
        "details": "Note that any addresses added to the allowlist will be retained if the allowlist is toggled off and back on again, because this action does not affect the list of LP addresses. Emits the MustAllowlistLPsSet event. This is a permissioned function.",
        "params": {
          "_mustAllowlistLPs": "- The new value of the mustAllowlistLPs flag.",
          "_poolAddress": "- Address of pool being worked on."
        }
      },
      "setSwapEnabled(address,bool)": {
        "details": "Emits the SwapEnabledSet event. This is a permissioned function.",
        "params": {
          "_poolAddress": "- Address of pool being worked on.",
          "_swapEnabled": "- The new value of the swap enabled flag."
        }
      },
      "transferManagement(address)": {
        "details": "Only one manager can presently be set",
        "params": {
          "_manager": "- New manager."
        }
      },
      "updateSwapFeeGradually(address,uint256,uint256,uint256,uint256)": {
        "details": "The swap fee will change from the given starting value (which may or may not be the current value) to the given ending fee percentage, over startTime to endTime. Note that calling this with a starting swap fee different from the current value will immediately change the current swap fee to `startSwapFeePercentage`, before commencing the gradual change at `startTime`. Emits the GradualSwapFeeUpdateScheduled event. This is a permissioned function.",
        "params": {
          "_endSwapFeePercentage": "- The ending value for the swap fee change. If the current timestamp >= endTime, `getSwapFeePercentage()` will return this value.",
          "_endTime": "- The timestamp when the swap fee change will end (must be >= startTime).",
          "_poolAddress": "- Address of pool being worked on.",
          "_startSwapFeePercentage": "- The starting value for the swap fee change.",
          "_startTime": "- The timestamp when the swap fee change will begin."
        }
      },
      "updateWeightsGradually(address,uint256,uint256,address[],uint256[])": {
        "details": "The weights will change from their current values to the given endWeights, over startTime to endTime. This is a permissioned function. Since, unlike with swap fee updates, we generally do not want to allow instantaneous weight changes, the weights always start from their current values. This also guarantees a smooth transition when updateWeightsGradually is called during an ongoing weight change.",
        "params": {
          "_endTime": "- The timestamp when the weight change will end (can be >= startTime).",
          "_endWeights": "- The target weights. If the current timestamp >= endTime, `getNormalizedWeights()` will return these values.",
          "_poolAddress": "- Address of pool being worked on.",
          "_startTime": "- The timestamp when the weight change will begin.",
          "_tokens": "- The tokens associated with the target weights (must match the current pool tokens)."
        }
      },
      "withdrawFunds(address,address,uint256)": {
        "details": "Transfers an amount of an ERC20 token",
        "params": {
          "_amount": "- Amount to withdraw.",
          "_recipientAddress": "- Address of wallet receiving funds.",
          "_tokenAddress": "- Address of token to be withdrawn."
        }
      }
    },
    "version": 1
  },
  "userdoc": {
    "kind": "user",
    "methods": {
      "addAllowedAddress(address,address)": {
        "notice": "Adds an address to the LP allowlist."
      },
      "addToken(address,address,address,uint256,uint256,address)": {
        "notice": "Adds a token to the Pool's list of tradeable tokens. This is a permissioned function."
      },
      "collectAumManagementFees(address)": {
        "notice": "Collect any accrued AUM fees and send them to the pool manager."
      },
      "constructor": {
        "notice": "Constructor for the controller implementation class"
      },
      "createPool(string,string,address[],uint256[],address[],uint256,bool,bool,uint256,uint256,uint256,bytes32)": {
        "notice": "Create a new managed pool"
      },
      "depositTokens(uint256,address)": {
        "notice": "Deposit tokens to controller"
      },
      "getPoolId(address)": {
        "notice": "Returns the pools Id"
      },
      "getPoolsUnderManagement()": {
        "notice": "returns a list of pools under management by this controller"
      },
      "getSwapEnabled(address)": {
        "notice": "Returns the whether swapping is enabled for pool"
      },
      "removeAllowedAddress(address,address)": {
        "notice": "Removes an address from the _poolAddress - Address of pool being worked on."
      },
      "removeToken(address,address,uint256,address)": {
        "notice": "Removes a token from the Pool's list of tradeable tokens."
      },
      "runCheck(address)": {
        "notice": "Runs a check and transfers reserve tokens as needed"
      },
      "setCircuitBreakers(address,address[],uint256[],uint256[],uint256[])": {
        "notice": "Set a circuit breaker for one or more tokens."
      },
      "setJoinExitEnabled(address,bool)": {
        "notice": "Enable or disable joins and exits. Note that this does not affect Recovery Mode exits."
      },
      "setManagementAumFeePercentage(address,uint256)": {
        "notice": "Setter for the yearly percentage AUM management fee, which is payable to the pool manager."
      },
      "setMustAllowlistLPs(address,bool)": {
        "notice": "Enable or disable the LP allowlist."
      },
      "setSwapEnabled(address,bool)": {
        "notice": "Enable or disable trading."
      },
      "transferManagement(address)": {
        "notice": "Transfer the manager to a new address"
      },
      "updateSwapFeeGradually(address,uint256,uint256,uint256,uint256)": {
        "notice": "Schedule a gradual swap fee update."
      },
      "updateWeightsGradually(address,uint256,uint256,address[],uint256[])": {
        "notice": "Schedule a gradual weight change."
      },
      "withdrawFunds(address,address,uint256)": {
        "notice": "Withdraw tokens from controller"
      }
    },
    "version": 1
  }
}