{
  "contractName": "BondingCurveController",
  "abi": [
    {
      "inputs": [
        {
          "internalType": "address",
          "name": "vaultAddress",
          "type": "address"
        },
        {
          "internalType": "address",
          "name": "supportedManagedPoolFactory",
          "type": "address"
        }
      ],
      "stateMutability": "nonpayable",
      "type": "constructor"
    },
    {
      "anonymous": false,
      "inputs": [
        {
          "indexed": false,
          "internalType": "address",
          "name": "account",
          "type": "address"
        }
      ],
      "name": "Paused",
      "type": "event"
    },
    {
      "anonymous": false,
      "inputs": [
        {
          "indexed": false,
          "internalType": "address",
          "name": "account",
          "type": "address"
        }
      ],
      "name": "Unpaused",
      "type": "event"
    },
    {
      "inputs": [
        {
          "internalType": "address",
          "name": "poolAddress",
          "type": "address"
        },
        {
          "internalType": "address",
          "name": "member",
          "type": "address"
        }
      ],
      "name": "addAllowedAddress",
      "outputs": [],
      "stateMutability": "nonpayable",
      "type": "function"
    },
    {
      "inputs": [
        {
          "internalType": "address",
          "name": "manager",
          "type": "address"
        }
      ],
      "name": "addManager",
      "outputs": [],
      "stateMutability": "nonpayable",
      "type": "function"
    },
    {
      "inputs": [
        {
          "internalType": "address",
          "name": "poolAddress",
          "type": "address"
        },
        {
          "internalType": "contract IERC20",
          "name": "tokenToAdd",
          "type": "address"
        },
        {
          "internalType": "address",
          "name": "assetManager",
          "type": "address"
        },
        {
          "internalType": "uint256",
          "name": "tokenToAddNormalizedWeight",
          "type": "uint256"
        },
        {
          "internalType": "uint256",
          "name": "mintAmount",
          "type": "uint256"
        },
        {
          "internalType": "address",
          "name": "recipient",
          "type": "address"
        }
      ],
      "name": "addToken",
      "outputs": [],
      "stateMutability": "nonpayable",
      "type": "function"
    },
    {
      "inputs": [
        {
          "internalType": "address",
          "name": "poolAddress",
          "type": "address"
        }
      ],
      "name": "calculateBalancing",
      "outputs": [
        {
          "components": [
            {
              "components": [
                {
                  "internalType": "contract IAsset[]",
                  "name": "assets",
                  "type": "address[]"
                },
                {
                  "internalType": "uint256[]",
                  "name": "minAmountsOut",
                  "type": "uint256[]"
                },
                {
                  "internalType": "bytes",
                  "name": "userData",
                  "type": "bytes"
                },
                {
                  "internalType": "bool",
                  "name": "toInternalBalance",
                  "type": "bool"
                }
              ],
              "internalType": "struct IVault.ExitPoolRequest",
              "name": "newExitRequest",
              "type": "tuple"
            },
            {
              "components": [
                {
                  "internalType": "contract IAsset[]",
                  "name": "assets",
                  "type": "address[]"
                },
                {
                  "internalType": "uint256[]",
                  "name": "maxAmountsIn",
                  "type": "uint256[]"
                },
                {
                  "internalType": "bytes",
                  "name": "userData",
                  "type": "bytes"
                },
                {
                  "internalType": "bool",
                  "name": "fromInternalBalance",
                  "type": "bool"
                }
              ],
              "internalType": "struct IVault.JoinPoolRequest",
              "name": "newJoinRequest",
              "type": "tuple"
            },
            {
              "internalType": "uint256",
              "name": "poolTolerance",
              "type": "uint256"
            }
          ],
          "internalType": "struct PoolAdjustments",
          "name": "",
          "type": "tuple"
        }
      ],
      "stateMutability": "nonpayable",
      "type": "function"
    },
    {
      "inputs": [
        {
          "internalType": "address",
          "name": "poolAddress",
          "type": "address"
        }
      ],
      "name": "collectAumManagementFees",
      "outputs": [],
      "stateMutability": "nonpayable",
      "type": "function"
    },
    {
      "inputs": [
        {
          "internalType": "string",
          "name": "name",
          "type": "string"
        },
        {
          "internalType": "string",
          "name": "symbol",
          "type": "string"
        },
        {
          "internalType": "contract IERC20[]",
          "name": "tokens",
          "type": "address[]"
        },
        {
          "internalType": "uint256[]",
          "name": "normalizedWeights",
          "type": "uint256[]"
        },
        {
          "internalType": "address[]",
          "name": "assetManagers",
          "type": "address[]"
        },
        {
          "internalType": "uint256",
          "name": "swapFeePercentage",
          "type": "uint256"
        },
        {
          "internalType": "bool",
          "name": "isSwapEnabledOnStart",
          "type": "bool"
        },
        {
          "internalType": "bool",
          "name": "isMustAllowlistLPs",
          "type": "bool"
        },
        {
          "internalType": "uint256",
          "name": "managementAumFeePercentage",
          "type": "uint256"
        },
        {
          "internalType": "uint256",
          "name": "aumFeeId",
          "type": "uint256"
        },
        {
          "internalType": "uint256",
          "name": "tolerance",
          "type": "uint256"
        },
        {
          "internalType": "bytes32",
          "name": "salt",
          "type": "bytes32"
        }
      ],
      "name": "createPool",
      "outputs": [],
      "stateMutability": "nonpayable",
      "type": "function"
    },
    {
      "inputs": [
        {
          "internalType": "uint256",
          "name": "amount",
          "type": "uint256"
        },
        {
          "internalType": "address",
          "name": "tokenAddress",
          "type": "address"
        }
      ],
      "name": "depositTokens",
      "outputs": [],
      "stateMutability": "nonpayable",
      "type": "function"
    },
    {
      "inputs": [
        {
          "internalType": "address",
          "name": "poolAddress",
          "type": "address"
        }
      ],
      "name": "getPoolId",
      "outputs": [
        {
          "internalType": "bytes32",
          "name": "",
          "type": "bytes32"
        }
      ],
      "stateMutability": "view",
      "type": "function",
      "constant": true
    },
    {
      "inputs": [],
      "name": "getPoolsUnderManagement",
      "outputs": [
        {
          "internalType": "address[]",
          "name": "",
          "type": "address[]"
        }
      ],
      "stateMutability": "view",
      "type": "function",
      "constant": true
    },
    {
      "inputs": [
        {
          "internalType": "address",
          "name": "poolAddress",
          "type": "address"
        }
      ],
      "name": "getSwapEnabled",
      "outputs": [
        {
          "internalType": "bool",
          "name": "",
          "type": "bool"
        }
      ],
      "stateMutability": "view",
      "type": "function",
      "constant": true
    },
    {
      "inputs": [
        {
          "internalType": "address",
          "name": "tokenAddress",
          "type": "address"
        }
      ],
      "name": "getTokenPrice",
      "outputs": [
        {
          "internalType": "int256",
          "name": "",
          "type": "int256"
        }
      ],
      "stateMutability": "view",
      "type": "function",
      "constant": true
    },
    {
      "inputs": [
        {
          "internalType": "address",
          "name": "",
          "type": "address"
        }
      ],
      "name": "isManager",
      "outputs": [
        {
          "internalType": "bool",
          "name": "",
          "type": "bool"
        }
      ],
      "stateMutability": "view",
      "type": "function",
      "constant": true
    },
    {
      "inputs": [],
      "name": "managedPoolFactory",
      "outputs": [
        {
          "internalType": "contract ManagedPoolFactory",
          "name": "",
          "type": "address"
        }
      ],
      "stateMutability": "view",
      "type": "function",
      "constant": true
    },
    {
      "inputs": [
        {
          "internalType": "address",
          "name": "",
          "type": "address"
        }
      ],
      "name": "managedPools",
      "outputs": [
        {
          "internalType": "string",
          "name": "poolName",
          "type": "string"
        },
        {
          "internalType": "string",
          "name": "poolSymbol",
          "type": "string"
        },
        {
          "internalType": "uint256",
          "name": "tolerance",
          "type": "uint256"
        }
      ],
      "stateMutability": "view",
      "type": "function",
      "constant": true
    },
    {
      "inputs": [],
      "name": "pause",
      "outputs": [],
      "stateMutability": "nonpayable",
      "type": "function"
    },
    {
      "inputs": [],
      "name": "paused",
      "outputs": [
        {
          "internalType": "bool",
          "name": "",
          "type": "bool"
        }
      ],
      "stateMutability": "view",
      "type": "function",
      "constant": true
    },
    {
      "inputs": [
        {
          "internalType": "address",
          "name": "poolAddress",
          "type": "address"
        },
        {
          "internalType": "address",
          "name": "member",
          "type": "address"
        }
      ],
      "name": "removeAllowedAddress",
      "outputs": [],
      "stateMutability": "nonpayable",
      "type": "function"
    },
    {
      "inputs": [
        {
          "internalType": "address",
          "name": "manager",
          "type": "address"
        }
      ],
      "name": "removeManager",
      "outputs": [],
      "stateMutability": "nonpayable",
      "type": "function"
    },
    {
      "inputs": [
        {
          "internalType": "address",
          "name": "poolAddress",
          "type": "address"
        },
        {
          "internalType": "contract IERC20",
          "name": "tokenToRemove",
          "type": "address"
        },
        {
          "internalType": "uint256",
          "name": "burnAmount",
          "type": "uint256"
        },
        {
          "internalType": "address",
          "name": "sender",
          "type": "address"
        }
      ],
      "name": "removeToken",
      "outputs": [],
      "stateMutability": "nonpayable",
      "type": "function"
    },
    {
      "inputs": [
        {
          "internalType": "address",
          "name": "poolAddress",
          "type": "address"
        },
        {
          "internalType": "contract IERC20[]",
          "name": "tokens",
          "type": "address[]"
        },
        {
          "internalType": "uint256[]",
          "name": "bptPrices",
          "type": "uint256[]"
        },
        {
          "internalType": "uint256[]",
          "name": "lowerBoundPercentages",
          "type": "uint256[]"
        },
        {
          "internalType": "uint256[]",
          "name": "upperBoundPercentages",
          "type": "uint256[]"
        }
      ],
      "name": "setCircuitBreakers",
      "outputs": [],
      "stateMutability": "nonpayable",
      "type": "function"
    },
    {
      "inputs": [
        {
          "internalType": "address",
          "name": "poolAddress",
          "type": "address"
        },
        {
          "internalType": "bool",
          "name": "isJoinExitEnabled",
          "type": "bool"
        }
      ],
      "name": "setJoinExitEnabled",
      "outputs": [],
      "stateMutability": "nonpayable",
      "type": "function"
    },
    {
      "inputs": [
        {
          "internalType": "address",
          "name": "poolAddress",
          "type": "address"
        },
        {
          "internalType": "uint256",
          "name": "managementAumFeePercentage",
          "type": "uint256"
        }
      ],
      "name": "setManagementAumFeePercentage",
      "outputs": [],
      "stateMutability": "nonpayable",
      "type": "function"
    },
    {
      "inputs": [
        {
          "internalType": "address",
          "name": "poolAddress",
          "type": "address"
        },
        {
          "internalType": "bool",
          "name": "isMustAllowlistLPs",
          "type": "bool"
        }
      ],
      "name": "setMustAllowlistLPs",
      "outputs": [],
      "stateMutability": "nonpayable",
      "type": "function"
    },
    {
      "inputs": [
        {
          "internalType": "address",
          "name": "poolAddress",
          "type": "address"
        }
      ],
      "name": "setReferencePool",
      "outputs": [],
      "stateMutability": "nonpayable",
      "type": "function"
    },
    {
      "inputs": [
        {
          "internalType": "address",
          "name": "stableToken",
          "type": "address"
        }
      ],
      "name": "setStableToken",
      "outputs": [],
      "stateMutability": "nonpayable",
      "type": "function"
    },
    {
      "inputs": [
        {
          "internalType": "address",
          "name": "poolAddress",
          "type": "address"
        },
        {
          "internalType": "bool",
          "name": "isSwapEnabled",
          "type": "bool"
        }
      ],
      "name": "setSwapEnabled",
      "outputs": [],
      "stateMutability": "nonpayable",
      "type": "function"
    },
    {
      "inputs": [
        {
          "internalType": "address",
          "name": "token",
          "type": "address"
        },
        {
          "internalType": "address",
          "name": "feed",
          "type": "address"
        }
      ],
      "name": "setTokenFeed",
      "outputs": [],
      "stateMutability": "nonpayable",
      "type": "function"
    },
    {
      "inputs": [
        {
          "internalType": "address",
          "name": "",
          "type": "address"
        }
      ],
      "name": "tokenFeeds",
      "outputs": [
        {
          "internalType": "address",
          "name": "",
          "type": "address"
        }
      ],
      "stateMutability": "view",
      "type": "function",
      "constant": true
    },
    {
      "inputs": [],
      "name": "unpause",
      "outputs": [],
      "stateMutability": "nonpayable",
      "type": "function"
    },
    {
      "inputs": [
        {
          "internalType": "address",
          "name": "poolAddress",
          "type": "address"
        },
        {
          "internalType": "uint256",
          "name": "startTime",
          "type": "uint256"
        },
        {
          "internalType": "uint256",
          "name": "endTime",
          "type": "uint256"
        },
        {
          "internalType": "uint256",
          "name": "startSwapFeePercentage",
          "type": "uint256"
        },
        {
          "internalType": "uint256",
          "name": "endSwapFeePercentage",
          "type": "uint256"
        }
      ],
      "name": "updateSwapFeeGradually",
      "outputs": [],
      "stateMutability": "nonpayable",
      "type": "function"
    },
    {
      "inputs": [
        {
          "internalType": "address",
          "name": "poolAddress",
          "type": "address"
        },
        {
          "internalType": "uint256",
          "name": "startTime",
          "type": "uint256"
        },
        {
          "internalType": "uint256",
          "name": "endTime",
          "type": "uint256"
        },
        {
          "internalType": "contract IERC20[]",
          "name": "tokens",
          "type": "address[]"
        },
        {
          "internalType": "uint256[]",
          "name": "endWeights",
          "type": "uint256[]"
        }
      ],
      "name": "updateWeightsGradually",
      "outputs": [],
      "stateMutability": "nonpayable",
      "type": "function"
    },
    {
      "inputs": [
        {
          "internalType": "address",
          "name": "recipientAddress",
          "type": "address"
        },
        {
          "internalType": "address",
          "name": "tokenAddress",
          "type": "address"
        },
        {
          "internalType": "uint256",
          "name": "amount",
          "type": "uint256"
        }
      ],
      "name": "withdrawFunds",
      "outputs": [],
      "stateMutability": "nonpayable",
      "type": "function"
    },
    {
      "inputs": [
        {
          "internalType": "address",
          "name": "poolAddress",
          "type": "address"
        }
      ],
      "name": "runCheck",
      "outputs": [],
      "stateMutability": "nonpayable",
      "type": "function"
    }
  ],
  "bytecode": "0x60c0604052600780546001600160a01b0319908116735772a773b3779b373bf11d1070f39569f50d37d3179091556008805490911673ef4229c8c3250c675f21bcefa42f58efbff6002a1790553480156200005957600080fd5b5060405162003be238038062003be28339810160408190526200007c9162000269565b60016000818155815460ff1990811683556001600160601b0319606095861b81166080523383526003602090815260408420805490931690941790915560049092527f4f03f9165518d56b1edfdd10086a224460eb561524700361535e7e33be96dcdb80546001600160a01b031990811673128fe88eaa22bffb868bb3a584a54c96ee24014b179091557f7c0f9c8dca1139a9f62829fbc69c87f447f6c9d58f7b4cca1418da9c87a8886180548216730568fd19986748ceff3301e55c0eb1e729e0ab7e1790557f5bb005e3c44990943f9b77709d1ca1ed9bc660cfbf374a504a6d191a3edaa5c380548216731fcd30a73d67639c1cd89ff5746e7585731c083b1790557f47691a5a6d629e9672ee2df080468d466c301da2a465fe573fd65a3c84d15c8a80548216733d207061dbe8e2473527611bfecb87ff12b28dda1790557fdeddb9e6b2d07a6e07e891c0bf84c802545673dccadf7dfa9df5ab9b45c998c88054821673c7a353bae210aed958a1a2928b654938ec59dab290811790915573765de816845861e75a25fca122bb6898b8b1282a9092527f111782fcfedc149ae0e36a4b3c73c65d2ec6beb9ec22baa78847f872ce963ec880549091169091179055911b1660a052620002a0565b80516001600160a01b03811681146200026457600080fd5b919050565b600080604083850312156200027c578182fd5b62000287836200024c565b915062000297602084016200024c565b90509250929050565b60805160601c60a05160601c6138fa620002e86000396000818161097e01526124e9015260008181610dc601528181610e5101528181611177015261121f01526138fa6000f3fe608060405234801561001057600080fd5b50600436106101fb5760003560e01c80637b35a88f1161011a578063c90d3a04116100ad578063d4f25a4b1161007c578063d4f25a4b14610436578063d87ac65f1461044b578063db1bc87b1461045e578063e4444feb14610471578063f3ae241514610484576101fb565b8063c90d3a04146103dd578063caa9a08d146103f0578063cbe04b0c14610410578063d02641a014610423576101fb565b806387ef019a116100e957806387ef019a1461039157806395994ef7146103a4578063abd796bf146103b7578063ac18de43146103ca576101fb565b80637b35a88f1461033f5780638456cb59146103615780638722081a14610369578063875e7cd91461037e576101fb565b806342da1cb1116101925780634fed9acd116101615780634fed9acd146102f157806351d48cea14610311578063556f1eb9146103245780635c975abb14610337576101fb565b806342da1cb1146102a5578063458aa92b146102b85780634e4858d9146102cb5780634f6300a2146102de576101fb565b8063315fa765116101ce578063315fa7651461024e5780633f4ba83a14610277578063404ac21e1461027f57806341bfc4bc14610292576101fb565b80631c20fadd1461020057806321f1e0cd146102155780632abbd3ad146102285780632d06177a1461023b575b600080fd5b61021361020e366004612b9b565b610497565b005b610213610223366004612cc2565b610568565b610213610236366004612c95565b610618565b610213610249366004612b2b565b6106bc565b61026161025c366004612b2b565b61076e565b60405161026e919061336c565b60405180910390f35b6102136107e9565b61021361028d366004612b2b565b610822565b6102136102a0366004612f81565b6108de565b6102136102b3366004612d83565b610b53565b6102136102c6366004612bdb565b610c14565b6102136102d9366004612b2b565b610cc1565b6102136102ec3660046130bd565b610ecb565b6103046102ff366004612b2b565b61102a565b60405161026e91906136c7565b61021361031f366004612c95565b611dfb565b610213610332366004612c95565b611e60565b610261611ec5565b61035261034d366004612b2b565b611ece565b60405161026e9392919061340f565b610213612000565b610371612037565b60405161026e9190613301565b61021361038c366004612e05565b612099565b61021361039f366004612b63565b612104565b6102136103b2366004612b2b565b612161565b6102136103c5366004612b63565b6121b2565b6102136103d8366004612b2b565b612217565b6102136103eb366004612dae565b61229f565b6104036103fe366004612b2b565b61230a565b60405161026e9190613377565b61021361041e366004612d31565b61237d565b610403610431366004612b2b565b612427565b61043e6124e7565b60405161026e9190613296565b61043e610459366004612b2b565b61250b565b61021361046c366004612b2b565b612526565b61021361047f366004612b63565b612577565b610261610492366004612b2b565b6125dc565b3360009081526003602052604090205460ff166104cf5760405162461bcd60e51b81526004016104c6906134c6565b60405180910390fd5b6104d76125f1565b60405163a9059cbb60e01b815282906001600160a01b0382169063a9059cbb9061050790879086906004016132e8565b602060405180830381600087803b15801561052157600080fd5b505af1158015610535573d6000803e3d6000fd5b505050506040513d601f19601f820116820180604052508101906105599190612f4d565b505061056361261b565b505050565b3360009081526003602052604090205460ff166105975760405162461bcd60e51b81526004016104c6906134c6565b61059f6125f1565b6040516306946dbf60e31b815286906001600160a01b038216906334a36df8906105d590899089908990899089906004016133bc565b600060405180830381600087803b1580156105ef57600080fd5b505af1158015610603573d6000803e3d6000fd5b505050505061061061261b565b505050505050565b3360009081526003602052604090205460ff166106475760405162461bcd60e51b81526004016104c6906134c6565b61064f6125f1565b604051637b749c4560e01b815282906001600160a01b03821690637b749c459061067d90859060040161336c565b600060405180830381600087803b15801561069757600080fd5b505af11580156106ab573d6000803e3d6000fd5b50505050506106b861261b565b5050565b3360009081526003602052604090205460ff166106eb5760405162461bcd60e51b81526004016104c6906134c6565b6001600160a01b0381166107115760405162461bcd60e51b81526004016104c690613473565b6001600160a01b03811660009081526003602052604090205460ff161561074a5760405162461bcd60e51b81526004016104c69061351a565b6001600160a01b03166000908152600360205260409020805460ff19166001179055565b6000816001600160a01b03166347bc4d926040518163ffffffff1660e01b815260040160206040518083038186803b1580156107a957600080fd5b505afa1580156107bd573d6000803e3d6000fd5b505050506040513d601f19601f820116820180604052508101906107e19190612f4d565b90505b919050565b3360009081526003602052604090205460ff166108185760405162461bcd60e51b81526004016104c6906134c6565b610820612622565b565b3360009081526003602052604090205460ff166108515760405162461bcd60e51b81526004016104c6906134c6565b6108596125f1565b6000819050806001600160a01b03166373656f896040518163ffffffff1660e01b8152600401602060405180830381600087803b15801561089957600080fd5b505af11580156108ad573d6000803e3d6000fd5b505050506040513d601f19601f820116820180604052508101906108d19190612f69565b50506108db61261b565b50565b3360009081526003602052604090205460ff1661090d5760405162461bcd60e51b81526004016104c6906134c6565b6109156125f1565b61091d61272c565b8c8152602081018c90526040810189905261093661274d565b8b8152602081018b905260408082018a90528815156060830152871515608083015260a0820187905260c0820186905251637304b8b960e01b81526000906001600160a01b037f00000000000000000000000000000000000000000000000000000000000000001690637304b8b9906109b9908690869030908a906004016135de565b602060405180830381600087803b1580156109d357600080fd5b505af11580156109e7573d6000803e3d6000fd5b505050506040513d601f19601f82011682018060405250810190610a0b9190612b47565b90506009819080600181540180825580915050600190039060005260206000200160009091909190916101000a8154816001600160a01b0302191690836001600160a01b031602179055508e60026000836001600160a01b03166001600160a01b031681526020019081526020016000206000019080519060200190610a9292919061278e565b508d60026000836001600160a01b03166001600160a01b031681526020019081526020016000206001019080519060200190610acf92919061278e565b508460026000836001600160a01b03166001600160a01b03168152602001908152602001600020600201819055508c60026000836001600160a01b03166001600160a01b031681526020019081526020016000206003019080519060200190610b39929190612812565b50505050610b4561261b565b505050505050505050505050565b3360009081526003602052604090205460ff16610b825760405162461bcd60e51b81526004016104c6906134c6565b610b8a6125f1565b604051632a9a032360e01b815282906001600160a01b03821690632a9a032390610bb8908590600401613377565b602060405180830381600087803b158015610bd257600080fd5b505af1158015610be6573d6000803e3d6000fd5b505050506040513d601f19601f82011682018060405250810190610c0a9190612f69565b50506106b861261b565b3360009081526003602052604090205460ff16610c435760405162461bcd60e51b81526004016104c6906134c6565b610c4b6125f1565b60405163f885a4bb60e01b815285906001600160a01b0382169063f885a4bb90610c7f908890889088908890600401613314565b600060405180830381600087803b158015610c9957600080fd5b505af1158015610cad573d6000803e3d6000fd5b5050505050610cba61261b565b5050505050565b3360009081526003602052604090205460ff16610cf05760405162461bcd60e51b81526004016104c6906134c6565b610cf86125f1565b6000610d038261102a565b602080820151810151518251909101515191925015159015158180610d255750805b15610ec05760008490506000816001600160a01b03166338fff2d06040518163ffffffff1660e01b815260040160206040518083038186803b158015610d6a57600080fd5b505afa158015610d7e573d6000803e3d6000fd5b505050506040513d601f19601f82011682018060405250810190610da29190612f69565b90508315610e3257602085015160405163172b958560e31b81526001600160a01b037f0000000000000000000000000000000000000000000000000000000000000000169163b95cac2891610dff91859130918c91600401613380565b600060405180830381600087803b158015610e1957600080fd5b505af1158015610e2d573d6000803e3d6000fd5b505050505b8215610ebd578451604051638bdb391360e01b81526001600160a01b037f00000000000000000000000000000000000000000000000000000000000000001691638bdb391391610e8a91859130918c91600401613380565b600060405180830381600087803b158015610ea457600080fd5b505af1158015610eb8573d6000803e3d6000fd5b505050505b50505b5050506108db61261b565b3360009081526003602052604090205460ff16610efa5760405162461bcd60e51b81526004016104c6906134c6565b610f026125f1565b604051636eb1769f60e11b815282908290819083906001600160a01b0383169063dd62ed3e90610f3890339030906004016132aa565b60206040518083038186803b158015610f5057600080fd5b505afa158015610f64573d6000803e3d6000fd5b505050506040513d601f19601f82011682018060405250810190610f889190612f69565b1015610fa65760405162461bcd60e51b81526004016104c690613551565b6040516323b872dd60e01b815284906001600160a01b038216906323b872dd90610fd890339030908b906004016132c4565b602060405180830381600087803b158015610ff257600080fd5b505af1158015611006573d6000803e3d6000fd5b505050506040513d601f19601f820116820180604052508101906106ab9190612f4d565b611032612867565b3360009081526003602052604090205460ff166110615760405162461bcd60e51b81526004016104c6906134c6565b611069612674565b60008290506000816001600160a01b03166338fff2d06040518163ffffffff1660e01b815260040160206040518083038186803b1580156110a957600080fd5b505afa1580156110bd573d6000803e3d6000fd5b505050506040513d601f19601f820116820180604052508101906110e19190612f69565b90506000600760009054906101000a90046001600160a01b031690506000816001600160a01b03166338fff2d06040518163ffffffff1660e01b815260040160206040518083038186803b15801561113857600080fd5b505afa15801561114c573d6000803e3d6000fd5b505050506040513d601f19601f820116820180604052508101906111709190612f69565b90506000807f00000000000000000000000000000000000000000000000000000000000000006001600160a01b031663f94d4668866040518263ffffffff1660e01b81526004016111c19190613377565b60006040518083038186803b1580156111d957600080fd5b505afa1580156111ed573d6000803e3d6000fd5b505050506040513d6000823e601f3d908101601f191682016040526112159190810190612e48565b50915091506000807f00000000000000000000000000000000000000000000000000000000000000006001600160a01b031663f94d4668866040518263ffffffff1660e01b81526004016112699190613377565b60006040518083038186803b15801561128157600080fd5b505afa158015611295573d6000803e3d6000fd5b505050506040513d6000823e601f3d908101601f191682016040526112bd9190810190612e48565b50915091506112ca612894565b866001600160a01b031663f89f27ed6040518163ffffffff1660e01b815260040160006040518083038186803b15801561130357600080fd5b505afa158015611317573d6000803e3d6000fd5b505050506040513d6000823e601f3d908101601f1916820160405261133f9190810190612f13565b815284516001600160401b0381111561136857634e487b7160e01b600052604160045260246000fd5b604051908082528060200260200182016040528015611391578160200160208202803683370190505b50604082015282516001600160401b038111156113be57634e487b7160e01b600052604160045260246000fd5b6040519080825280602002602001820160405280156113e7578160200160208202803683370190505b50606082015284516001600160401b0381111561141457634e487b7160e01b600052604160045260246000fd5b60405190808252806020026020018201604052801561143d578160200160208202803683370190505b50602082015282516001600160401b0381111561146a57634e487b7160e01b600052604160045260246000fd5b604051908082528060200260200182016040528015611493578160200160208202803683370190505b5060c082015260005b8551811015611516576114d58682815181106114c857634e487b7160e01b600052603260045260246000fd5b6020026020010151612427565b826040015182815181106114f957634e487b7160e01b600052603260045260246000fd5b60209081029190910101528061150e81613840565b91505061149c565b5060005b8351811015611587576115468482815181106114c857634e487b7160e01b600052603260045260246000fd5b8260600151828151811061156a57634e487b7160e01b600052603260045260246000fd5b60209081029190910101528061157f81613840565b91505061151a565b5060005b83518110156119765760085484516001600160a01b03909116908590839081106115c557634e487b7160e01b600052603260045260246000fd5b60200260200101516001600160a01b0316146118435782516001908190819060009087908690811061160757634e487b7160e01b600052603260045260246000fd5b602002602001015111156116ee5761167a8560000151858151811061163c57634e487b7160e01b600052603260045260246000fd5b602002602001015187868151811061166457634e487b7160e01b600052603260045260246000fd5b602002602001015161269990919063ffffffff16565b91506116df85600001516002815181106116a457634e487b7160e01b600052603260045260246000fd5b60200260200101516116d9670de0b6b3a76400008960028151811061166457634e487b7160e01b600052603260045260246000fd5b90612699565b90506116eb81836126ac565b92505b73baab46e28388d2779e6e31fd00cf0e5ad95e327b6001600160a01b031687858151811061172c57634e487b7160e01b600052603260045260246000fd5b60200260200101516001600160a01b031614611758576117516402540be400846137af565b925061176e565b61176b68056bc75e2d63100000846137af565b92505b826005600089878151811061179357634e487b7160e01b600052603260045260246000fd5b60200260200101516001600160a01b03166001600160a01b0316815260200190815260200160002081905550846060015184815181106117e357634e487b7160e01b600052603260045260246000fd5b60200260200101516006600089878151811061180f57634e487b7160e01b600052603260045260246000fd5b60200260200101516001600160a01b03166001600160a01b03168152602001908152602001600020819055505050506118e8565b60016005600086848151811061186957634e487b7160e01b600052603260045260246000fd5b60200260200101516001600160a01b03166001600160a01b03168152602001908152602001600020819055506001600660008684815181106118bb57634e487b7160e01b600052603260045260246000fd5b60200260200101516001600160a01b03166001600160a01b03168152602001908152602001600020819055505b6005600085838151811061190c57634e487b7160e01b600052603260045260246000fd5b60200260200101516001600160a01b03166001600160a01b03168152602001908152602001600020548260c00151828151811061195957634e487b7160e01b600052603260045260246000fd5b60209081029190910101528061196e81613840565b91505061158b565b5060015b8551811015611b2657600560008783815181106119a757634e487b7160e01b600052603260045260246000fd5b60200260200101516001600160a01b03166001600160a01b0316815260200190815260200160002054826040015182815181106119f457634e487b7160e01b600052603260045260246000fd5b602002602001015110611ae157611aac60056000888481518110611a2857634e487b7160e01b600052603260045260246000fd5b60200260200101516001600160a01b03166001600160a01b031681526020019081526020016000205460066000898581518110611a7557634e487b7160e01b600052603260045260246000fd5b60200260200101516001600160a01b03166001600160a01b03168152602001908152602001600020546126b890919063ffffffff16565b82602001518281518110611ad057634e487b7160e01b600052603260045260246000fd5b602002602001018181525050611b14565b600082602001518281518110611b0757634e487b7160e01b600052603260045260246000fd5b6020026020010181815250505b80611b1e81613840565b91505061197a565b5084516001600160401b03811115611b4e57634e487b7160e01b600052604160045260246000fd5b604051908082528060200260200182016040528015611b77578160200160208202803683370190505b50608082015284516001600160401b03811115611ba457634e487b7160e01b600052604160045260246000fd5b604051908082528060200260200182016040528015611bcd578160200160208202803683370190505b5060a0820152611bdb612867565b6001600160a01b038c166000908152600260208190526040808320909101549083015280805b8851811015611d5f57836040015185602001518281518110611c3357634e487b7160e01b600052603260045260246000fd5b602002602001015112611cac57611c736064611c6d86604001518b858151811061166457634e487b7160e01b600052603260045260246000fd5b906126ac565b8560a001518281518110611c9757634e487b7160e01b600052603260045260246000fd5b60200260200101818152505060019150611d4d565b8360400151611cba9061385b565b85602001518281518110611cde57634e487b7160e01b600052603260045260246000fd5b602002602001015113611d4d57611d186064611c6d86604001518b858151811061166457634e487b7160e01b600052603260045260246000fd5b85608001518281518110611d3c57634e487b7160e01b600052603260045260246000fd5b602002602001018181525050600192505b80611d5781613840565b915050611c01565b506000611d6b896126c4565b90508115611daa576040805160808101825282815260a08701516020808301919091528251908101835260008152918101919091526001606082015284525b8215611de857604080516080808201835283825287015160208083019190915282518082018452600081529282019290925260016060820152908501525b50919d9c50505050505050505050505050565b3360009081526003602052604090205460ff16611e2a5760405162461bcd60e51b81526004016104c6906134c6565b611e326125f1565b604051633806be4b60e21b815282906001600160a01b0382169063e01af92c9061067d90859060040161336c565b3360009081526003602052604090205460ff16611e8f5760405162461bcd60e51b81526004016104c6906134c6565b611e976125f1565b60405163de3d2b2d60e01b815282906001600160a01b0382169063de3d2b2d9061067d90859060040161336c565b60015460ff1690565b600260205260009081526040902080548190611ee990613805565b80601f0160208091040260200160405190810160405280929190818152602001828054611f1590613805565b8015611f625780601f10611f3757610100808354040283529160200191611f62565b820191906000526020600020905b815481529060010190602001808311611f4557829003601f168201915b505050505090806001018054611f7790613805565b80601f0160208091040260200160405190810160405280929190818152602001828054611fa390613805565b8015611ff05780601f10611fc557610100808354040283529160200191611ff0565b820191906000526020600020905b815481529060010190602001808311611fd357829003601f168201915b5050505050908060020154905083565b3360009081526003602052604090205460ff1661202f5760405162461bcd60e51b81526004016104c6906134c6565b6108206126c7565b6060600980548060200260200160405190810160405280929190818152602001828054801561208f57602002820191906000526020600020905b81546001600160a01b03168152600190910190602001808311612071575b5050505050905090565b3360009081526003602052604090205460ff166120c85760405162461bcd60e51b81526004016104c6906134c6565b6120d06125f1565b604051635b160f8360e11b815285906001600160a01b0382169063b62c1f0690610c7f908890889088908890600401613748565b3360009081526003602052604090205460ff166121335760405162461bcd60e51b81526004016104c6906134c6565b6001600160a01b03918216600090815260046020526040902080546001600160a01b03191691909216179055565b3360009081526003602052604090205460ff166121905760405162461bcd60e51b81526004016104c6906134c6565b600780546001600160a01b0319166001600160a01b0392909216919091179055565b3360009081526003602052604090205460ff166121e15760405162461bcd60e51b81526004016104c6906134c6565b6121e96125f1565b6040516381788e2b60e01b815282906001600160a01b038216906381788e2b9061067d908590600401613296565b3360009081526003602052604090205460ff166122465760405162461bcd60e51b81526004016104c6906134c6565b6001600160a01b03811660009081526003602052604090205460ff1661227e5760405162461bcd60e51b81526004016104c690613570565b6001600160a01b03166000908152600360205260409020805460ff19169055565b3360009081526003602052604090205460ff166122ce5760405162461bcd60e51b81526004016104c6906134c6565b6122d66125f1565b60405163819c70f360e01b815285906001600160a01b0382169063819c70f390610c7f908890889088908890600401613717565b6000816001600160a01b03166338fff2d06040518163ffffffff1660e01b815260040160206040518083038186803b15801561234557600080fd5b505afa158015612359573d6000803e3d6000fd5b505050506040513d601f19601f820116820180604052508101906107e19190612f69565b3360009081526003602052604090205460ff166123ac5760405162461bcd60e51b81526004016104c6906134c6565b6123b46125f1565b6040516397bb15c960e01b815284906001600160a01b038216906397bb15c9906123e6908790879087906004016133ec565b600060405180830381600087803b15801561240057600080fd5b505af1158015612414573d6000803e3d6000fd5b505050505061242161261b565b50505050565b6001600160a01b03808216600090815260046020526040812054909116806124615760405162461bcd60e51b81526004016104c6906134ed565b60008190506000816001600160a01b031663feaf968c6040518163ffffffff1660e01b815260040160a06040518083038186803b1580156124a157600080fd5b505afa1580156124b5573d6000803e3d6000fd5b505050506040513d601f19601f820116820180604052508101906124d991906130e1565b509198975050505050505050565b7f000000000000000000000000000000000000000000000000000000000000000081565b6004602052600090815260409020546001600160a01b031681565b3360009081526003602052604090205460ff166125555760405162461bcd60e51b81526004016104c6906134c6565b600880546001600160a01b0319166001600160a01b0392909216919091179055565b3360009081526003602052604090205460ff166125a65760405162461bcd60e51b81526004016104c6906134c6565b6125ae6125f1565b604051630793b27760e31b815282906001600160a01b03821690633c9d93b89061067d908590600401613296565b60036020526000908152604090205460ff1681565b600260005414156126145760405162461bcd60e51b81526004016104c6906135a7565b6002600055565b6001600055565b61262a612704565b6001805460ff191690557f5db9ee0a495bf2e6ff9c91a7834c1ba4fdd244a5e8aa4e537bd38aeae4b073aa61265d612728565b60405161266a9190613296565b60405180910390a1565b61267c611ec5565b156108205760405162461bcd60e51b81526004016104c69061349c565b60006126a582846137cf565b9392505050565b60006126a582846137af565b60006126a582846137ee565b90565b6126cf612674565b6001805460ff1916811790557f62e78cea01bee320cd4e420270b5ea74000d11b0c9f74754ebdbfc544b05a25861265d612728565b61270c611ec5565b6108205760405162461bcd60e51b81526004016104c690613445565b3390565b60405180606001604052806060815260200160608152602001606081525090565b6040518060e0016040528060608152602001606081526020016000815260200160001515815260200160001515815260200160008152602001600081525090565b82805461279a90613805565b90600052602060002090601f0160209004810192826127bc5760008555612802565b82601f106127d557805160ff1916838001178555612802565b82800160010185558215612802579182015b828111156128025782518255916020019190600101906127e7565b5061280e9291506128d1565b5090565b828054828255906000526020600020908101928215612802579160200282015b8281111561280257825182546001600160a01b0319166001600160a01b03909116178255602090920191600190910190612832565b604051806060016040528061287a6128e6565b81526020016128876128e6565b8152602001600081525090565b6040518060e00160405280606081526020016060815260200160608152602001606081526020016060815260200160608152602001606081525090565b5b8082111561280e57600081556001016128d2565b60405180608001604052806060815260200160608152602001606081526020016000151581525090565b600082601f830112612920578081fd5b813560206129356129308361378c565b613763565b8281528181019085830183850287018401881015612951578586fd5b855b85811015612978578135612966816138a1565b84529284019290840190600101612953565b5090979650505050505050565b600082601f830112612995578081fd5b813560206129a56129308361378c565b82815281810190858301838502870184018810156129c1578586fd5b855b858110156129785781356129d6816138a1565b845292840192908401906001016129c3565b600082601f8301126129f8578081fd5b81356020612a086129308361378c565b8281528181019085830183850287018401881015612a24578586fd5b855b8581101561297857813584529284019290840190600101612a26565b600082601f830112612a52578081fd5b81516020612a626129308361378c565b8281528181019085830183850287018401881015612a7e578586fd5b855b8581101561297857815184529284019290840190600101612a80565b80356107e4816138b6565b600082601f830112612ab7578081fd5b81356001600160401b03811115612ad057612ad061388b565b612ae3601f8201601f1916602001613763565b818152846020838601011115612af7578283fd5b816020850160208301379081016020019190915292915050565b805169ffffffffffffffffffff811681146107e457600080fd5b600060208284031215612b3c578081fd5b81356126a5816138a1565b600060208284031215612b58578081fd5b81516126a5816138a1565b60008060408385031215612b75578081fd5b8235612b80816138a1565b91506020830135612b90816138a1565b809150509250929050565b600080600060608486031215612baf578081fd5b8335612bba816138a1565b92506020840135612bca816138a1565b929592945050506040919091013590565b600080600080600060a08688031215612bf2578283fd5b8535612bfd816138a1565b945060208601356001600160401b0380821115612c18578485fd5b612c2489838a01612985565b95506040880135915080821115612c39578485fd5b612c4589838a016129e8565b94506060880135915080821115612c5a578283fd5b612c6689838a016129e8565b93506080880135915080821115612c7b578283fd5b50612c88888289016129e8565b9150509295509295909350565b60008060408385031215612ca7578182fd5b8235612cb2816138a1565b91506020830135612b90816138b6565b60008060008060008060c08789031215612cda578384fd5b8635612ce5816138a1565b95506020870135612cf5816138a1565b94506040870135612d05816138a1565b9350606087013592506080870135915060a0870135612d23816138a1565b809150509295509295509295565b60008060008060808587031215612d46578182fd5b8435612d51816138a1565b93506020850135612d61816138a1565b9250604085013591506060850135612d78816138a1565b939692955090935050565b60008060408385031215612d95578182fd5b8235612da0816138a1565b946020939093013593505050565b600080600080600060a08688031215612dc5578283fd5b8535612dd0816138a1565b9450602086013593506040860135925060608601356001600160401b0380821115612df9578283fd5b612c6689838a01612985565b600080600080600060a08688031215612e1c578283fd5b8535612e27816138a1565b97602087013597506040870135966060810135965060800135945092505050565b600080600060608486031215612e5c578081fd5b83516001600160401b0380821115612e72578283fd5b818601915086601f830112612e85578283fd5b81516020612e956129308361378c565b82815281810190858301838502870184018c1015612eb1578788fd5b8796505b84871015612edc578051612ec8816138a1565b835260019690960195918301918301612eb5565b5091890151919750909350505080821115612ef5578283fd5b50612f0286828701612a42565b925050604084015190509250925092565b600060208284031215612f24578081fd5b81516001600160401b03811115612f39578182fd5b612f4584828501612a42565b949350505050565b600060208284031215612f5e578081fd5b81516126a5816138b6565b600060208284031215612f7a578081fd5b5051919050565b6000806000806000806000806000806000806101808d8f031215612fa357898afd5b6001600160401b038d351115612fb757898afd5b612fc48e8e358f01612aa7565b9b506001600160401b0360208e01351115612fdd57898afd5b612fed8e60208f01358f01612aa7565b9a506001600160401b0360408e0135111561300657898afd5b6130168e60408f01358f01612985565b99506001600160401b0360608e0135111561302f578586fd5b61303f8e60608f01358f016129e8565b98506001600160401b0360808e01351115613058578586fd5b6130688e60808f01358f01612910565b975060a08d0135965061307d60c08e01612a9c565b955061308b60e08e01612a9c565b94506101008d013593506101208d013592506101408d013591506101608d013590509295989b509295989b509295989b565b600080604083850312156130cf578182fd5b823591506020830135612b90816138a1565b600080600080600060a086880312156130f8578283fd5b61310186612b11565b945060208601519350604086015192506060860151915061312460808701612b11565b90509295509295909350565b6001600160a01b03169052565b6000815180845260208085019450808401835b838110156131755781516001600160a01b031687529582019590820190600101613150565b509495945050505050565b6000815180845260208085019450808401835b8381101561317557815187529582019590820190600101613193565b15159052565b60008151808452815b818110156131da576020818501810151868301820152016131be565b818111156131eb5782602083870101525b50601f01601f19169290920160200192915050565b8051608080845281519084018190526000916020919082019060a0860190845b818110156132455783516001600160a01b031683529284019291840191600101613220565b50508285015191508581038387015261325e8183613180565b925050506040830151848203604086015261327982826131b5565b915050606083015161328e60608601826131af565b509392505050565b6001600160a01b0391909116815260200190565b6001600160a01b0392831681529116602082015260400190565b6001600160a01b039384168152919092166020820152604081019190915260600190565b6001600160a01b03929092168252602082015260400190565b6000602082526126a5602083018461313d565b600060808252613327608083018761313d565b82810360208401526133398187613180565b9050828103604084015261334d8186613180565b905082810360608401526133618185613180565b979650505050505050565b901515815260200190565b90815260200190565b8481526001600160a01b038481166020830152831660408201526080606082018190526000906133b290830184613200565b9695505050505050565b6001600160a01b039586168152938516602085015260408401929092526060830152909116608082015260a00190565b6001600160a01b0393841681526020810192909252909116604082015260600190565b60006060825261342260608301866131b5565b828103602084015261343481866131b5565b915050826040830152949350505050565b60208082526014908201527314185d5cd8589b194e881b9bdd081c185d5cd95960621b604082015260600190565b6020808252600f908201526e496e76616c6964206164647265737360881b604082015260600190565b60208082526010908201526f14185d5cd8589b194e881c185d5cd95960821b604082015260600190565b6020808252600d908201526c2737ba10309036b0b730b3b2b960991b604082015260600190565b602080825260139082015272151bdad95b881b9bdd081cdd5c1c1bdc9d1959606a1b604082015260600190565b6020808252601c908201527f4164647265737320697320616c72656164792061206d616e6167657200000000604082015260600190565b60208082526005908201526422b93937b960d91b604082015260600190565b60208082526017908201527f416464726573732069736e27742061206d616e61676572000000000000000000604082015260600190565b6020808252601f908201527f5265656e7472616e637947756172643a207265656e7472616e742063616c6c00604082015260600190565b6000608082528551606060808401526135fa60e08401826131b5565b90506020870151607f19808584030160a086015261361883836131b5565b925060408901519150808584030160c086015250613636828261313d565b9150508281036020840152855160e0825261365460e083018261313d565b90506020870151828203602084015261366d8282613180565b9150506040870151604083015260608701511515606083015260808701511515608083015260a087015160a083015260c087015160c083015280925050506136b86040830185613130565b82606083015295945050505050565b6000602082528251606060208401526136e36080840182613200565b90506020840151601f198483030160408501526137008282613200565b915050604084015160608401528091505092915050565b600085825284602083015260806040830152613736608083018561313d565b82810360608401526133618185613180565b93845260208401929092526040830152606082015260800190565b6040518181016001600160401b03811182821017156137845761378461388b565b604052919050565b60006001600160401b038211156137a5576137a561388b565b5060209081020190565b6000826137ca57634e487b7160e01b81526012600452602481fd5b500490565b60008160001904831182151516156137e9576137e9613875565b500290565b60008282101561380057613800613875565b500390565b60028104600182168061381957607f821691505b6020821081141561383a57634e487b7160e01b600052602260045260246000fd5b50919050565b600060001982141561385457613854613875565b5060010190565b6000600160ff1b82141561387157613871613875565b0390565b634e487b7160e01b600052601160045260246000fd5b634e487b7160e01b600052604160045260246000fd5b6001600160a01b03811681146108db57600080fd5b80151581146108db57600080fdfea2646970667358221220a1ceb0bfbfa326ab03749d4e6e8799ff23c957048ce16434d88d70116bee9d2a64736f6c63430008000033",
  "immutableReferences": {
    "2912": [
      {
        "length": 32,
        "start": 2430
      },
      {
        "length": 32,
        "start": 9449
      }
    ],
    "3695": [
      {
        "length": 32,
        "start": 3526
      },
      {
        "length": 32,
        "start": 3665
      },
      {
        "length": 32,
        "start": 4471
      },
      {
        "length": 32,
        "start": 4639
      }
    ]
  },
  "source": "// SPDX-License-Identifier: MIT\n\npragma solidity ^0.8.0;\n\nimport \"./base/BaseController.sol\";\nimport \"./lib/SupportLib.sol\";\n\ncontract BondingCurveController is BaseController {\n\n    /**\n     * @notice Constructor for the controller implementation class\n     *\n     * @param vaultAddress - Vault contract address\n     * @param supportedManagedPoolFactory - Managed pool contract address\n     */\n    constructor(\n        address vaultAddress,\n        address supportedManagedPoolFactory\n    ) BaseController(vaultAddress, supportedManagedPoolFactory) {}\n\n    /**\n     * @notice Runs a check and transfers reserve tokens as needed\n     * @dev To avoid too many fees, this should be run at wide intervals such as daily\n     *\n     * @param poolAddress - Address of pool being worked on.\n     */\n    function runCheck(address poolAddress) external onlyManager nonReentrant {\n        PoolAdjustments memory poolAdjustments = calculateBalancing(poolAddress);\n        \n        // Boolean flags can make the code clearer and more optimized.\n        bool shouldJoin = poolAdjustments.newJoinRequest.maxAmountsIn.length > 0;\n        bool shouldExit = poolAdjustments.newExitRequest.minAmountsOut.length > 0;\n\n        if (shouldJoin || shouldExit) {\n            IManagedPool managedPool = IManagedPool(poolAddress);\n            bytes32 poolId = managedPool.getPoolId();\n\n            if (shouldJoin) {\n                vault.joinPool(\n                    poolId,\n                    address(this),\n                    payable(poolAddress),\n                    poolAdjustments.newJoinRequest\n                );\n            }\n\n            if (shouldExit) {\n                vault.exitPool(\n                    poolId,\n                    address(this),\n                    payable(poolAddress),\n                    poolAdjustments.newExitRequest\n                );\n            }\n        }\n    }\n\n}\n",
  "sourcePath": "/home/eagle/Source/BalancerController/Balancer.Controller/contracts/BondingCurveController.sol",
  "compiler": {
    "name": "solc",
    "version": "0.8.0+commit.c7dfd78e.Emscripten.clang"
  },
  "schemaVersion": "3.4.13",
  "updatedAt": "2023-10-25T19:40:07.139Z",
  "networkType": "ethereum",
  "devdoc": {
    "kind": "dev",
    "methods": {
      "addAllowedAddress(address,address)": {
        "details": "Will fail if the address is already allowlisted. Emits the AllowlistAddressAdded event. This is a permissioned function.",
        "params": {
          "member": "- The address to be added to the allowlist.",
          "poolAddress": "- Address of pool being worked on."
        }
      },
      "addManager(address)": {
        "params": {
          "manager": "- Manager to add"
        }
      },
      "addToken(address,address,address,uint256,uint256,address)": {
        "details": "By adding a token to the Pool's composition, the weights of all other tokens will be decreased. The new token will have no balance - it is up to the owner to provide some immediately after calling this function. Note however that regular join functions will not work while the new token has no balance: the only way to deposit an initial amount is by using an Asset Manager. Token addition is forbidden during a weight change, or if one is scheduled to happen in the future. The caller may additionally pass a non-zero `mintAmount` to have some BPT be minted for them, which might be useful in some scenarios to account for the fact that the Pool will have more tokens. Emits the TokenAdded event.",
        "params": {
          "assetManager": "- The Asset Manager for the token.",
          "mintAmount": "- The amount of BPT to be minted as a result of adding `token` to the Pool.",
          "poolAddress": "- Address of pool being worked on.",
          "recipient": "- The address to receive the BPT minted by the Pool.",
          "tokenToAdd": "- The ERC20 token to be added to the Pool.",
          "tokenToAddNormalizedWeight": "- The normalized weight of `token` relative to the other tokens in the Pool."
        }
      },
      "calculateBalancing(address)": {
        "params": {
          "poolAddress": "- Address of pool being worked on."
        }
      },
      "collectAumManagementFees(address)": {
        "details": "This can be called by anyone to collect accrued AUM fees - and will be called automatically whenever the supply changes (e.g., joins and exits, add and remove token), and before the fee percentage is changed by the manager, to prevent fees from being applied retroactively.",
        "params": {
          "poolAddress": "- Address of pool being worked on."
        }
      },
      "constructor": {
        "params": {
          "supportedManagedPoolFactory": "- Managed pool contract address",
          "vaultAddress": "- Vault contract address"
        }
      },
      "createPool(string,string,address[],uint256[],address[],uint256,bool,bool,uint256,uint256,uint256,bytes32)": {
        "params": {
          "assetManagers": "- Asset manager for the pool",
          "aumFeeId": "- Aum Fee Id",
          "isMustAllowlistLPs": "- List of LP's allowed in the pool",
          "isSwapEnabledOnStart": "- Whether swaps are enabled straight away",
          "managementAumFeePercentage": "- Management Aum fee to apply",
          "name": "- Pool name",
          "normalizedWeights": "- Normalized weights in the pool",
          "salt": "- Salt used towards calculating pool address",
          "swapFeePercentage": "- Fee applied to swaps",
          "symbol": "- Symbol representing the pool",
          "tokens": "- Tokens in the pool",
          "tolerance": "- Percentage devience "
        }
      },
      "depositTokens(uint256,address)": {
        "details": "Transfers an amount of an ERC20 token",
        "params": {
          "amount": "- Amount to deposit.",
          "tokenAddress": "- Address of token to be deposited."
        }
      },
      "getPoolId(address)": {
        "params": {
          "poolAddress": "- Pool to get the Id for"
        }
      },
      "getSwapEnabled(address)": {
        "params": {
          "poolAddress": "- Pool to get the swap state for"
        }
      },
      "getTokenPrice(address)": {
        "params": {
          "tokenAddress": "- Token to find a price for"
        }
      },
      "paused()": {
        "details": "Returns true if the contract is paused, and false otherwise."
      },
      "removeAllowedAddress(address,address)": {
        "params": {
          "member": "- The address to be removed from the allowlist.",
          "poolAddress": "- Pool address being worked on"
        }
      },
      "removeManager(address)": {
        "params": {
          "manager": "- Manager to remove"
        }
      },
      "removeToken(address,address,uint256,address)": {
        "details": "Tokens can only be removed if the Pool has more than 2 tokens, as it can never have fewer than 2 (not including BPT). Token removal is also forbidden during a weight change, or if one is scheduled to happen in the future. Emits the TokenRemoved event. This is a permissioned function. The caller may additionally pass a non-zero `burnAmount` to burn some of their BPT, which might be useful in some scenarios to account for the fact that the Pool now has fewer tokens. This is a permissioned function.",
        "params": {
          "burnAmount": "- The amount of BPT to be burned after removing `token` from the Pool.",
          "poolAddress": "- Address of pool being worked on.",
          "sender": "- The address to burn BPT from.",
          "tokenToRemove": "- The ERC20 token to be removed from the Pool."
        }
      },
      "runCheck(address)": {
        "details": "To avoid too many fees, this should be run at wide intervals such as daily",
        "params": {
          "poolAddress": "- Address of pool being worked on."
        }
      },
      "setCircuitBreakers(address,address[],uint256[],uint256[],uint256[])": {
        "details": "This is a permissioned function. The lower and upper bounds are percentages, corresponding to a relative change in the token's spot price: e.g., a lower bound of 0.8 means the breaker should prevent trades that result in the value of the token dropping 20% or more relative to the rest of the pool.",
        "params": {
          "bptPrices": "- Token prices to for the circuit breaker",
          "lowerBoundPercentages": "- The lower limit to trigger the circuit breaker",
          "poolAddress": "- Pool to have a circruit breaker set",
          "tokens": "- Tokens in the pool",
          "upperBoundPercentages": "- The upper limit to trigger the circuit breaker"
        }
      },
      "setJoinExitEnabled(address,bool)": {
        "details": "Emits the JoinExitEnabledSet event. This is a permissioned function.",
        "params": {
          "isJoinExitEnabled": "- The new value of the join/exit enabled flag.",
          "poolAddress": "- Address of pool being worked on."
        }
      },
      "setManagementAumFeePercentage(address,uint256)": {
        "details": "Attempting to collect AUM fees in excess of the maximum permitted percentage will revert. To avoid retroactive fee increases, we force collection at the current fee percentage before processing the update. Emits the ManagementAumFeePercentageChanged event. This is a permissioned function.",
        "params": {
          "managementAumFeePercentage": "- The new management AUM fee percentage.",
          "poolAddress": "- Address of pool being worked on."
        }
      },
      "setMustAllowlistLPs(address,bool)": {
        "details": "Note that any addresses added to the allowlist will be retained if the allowlist is toggled off and back on again, because this action does not affect the list of LP addresses. Emits the MustAllowlistLPsSet event. This is a permissioned function.",
        "params": {
          "isMustAllowlistLPs": "- The new value of the mustAllowlistLPs flag.",
          "poolAddress": "- Address of pool being worked on."
        }
      },
      "setReferencePool(address)": {
        "params": {
          "poolAddress": "- Reference pool address"
        }
      },
      "setStableToken(address)": {
        "params": {
          "stableToken": "- Stable token address"
        }
      },
      "setSwapEnabled(address,bool)": {
        "details": "Emits the SwapEnabledSet event. This is a permissioned function.",
        "params": {
          "isSwapEnabled": "- The new value of the swap enabled flag.",
          "poolAddress": "- Address of pool being worked on."
        }
      },
      "setTokenFeed(address,address)": {
        "params": {
          "feed": "- Oracle feed address",
          "token": "- Token address"
        }
      },
      "updateSwapFeeGradually(address,uint256,uint256,uint256,uint256)": {
        "details": "The swap fee will change from the given starting value (which may or may not be the current value) to the given ending fee percentage, over startTime to endTime. Note that calling this with a starting swap fee different from the current value will immediately change the current swap fee to `startSwapFeePercentage`, before commencing the gradual change at `startTime`. Emits the GradualSwapFeeUpdateScheduled event. This is a permissioned function.",
        "params": {
          "endSwapFeePercentage": "- The ending value for the swap fee change. If the current timestamp >= endTime, `getSwapFeePercentage()` will return this value.",
          "endTime": "- The timestamp when the swap fee change will end (must be >= startTime).",
          "poolAddress": "- Address of pool being worked on.",
          "startSwapFeePercentage": "- The starting value for the swap fee change.",
          "startTime": "- The timestamp when the swap fee change will begin."
        }
      },
      "updateWeightsGradually(address,uint256,uint256,address[],uint256[])": {
        "details": "The weights will change from their current values to the given endWeights, over startTime to endTime. This is a permissioned function. Since, unlike with swap fee updates, we generally do not want to allow instantaneous weight changes, the weights always start from their current values. This also guarantees a smooth transition when updateWeightsGradually is called during an ongoing weight change.",
        "params": {
          "endTime": "- The timestamp when the weight change will end (can be >= startTime).",
          "endWeights": "- The target weights. If the current timestamp >= endTime, `getNormalizedWeights()` will return these values.",
          "poolAddress": "- Address of pool being worked on.",
          "startTime": "- The timestamp when the weight change will begin.",
          "tokens": "- The tokens associated with the target weights (must match the current pool tokens)."
        }
      },
      "withdrawFunds(address,address,uint256)": {
        "details": "Transfers an amount of an ERC20 token",
        "params": {
          "amount": "- Amount to withdraw.",
          "recipientAddress": "- Address of wallet receiving funds.",
          "tokenAddress": "- Address of token to be withdrawn."
        }
      }
    },
    "version": 1
  },
  "userdoc": {
    "kind": "user",
    "methods": {
      "addAllowedAddress(address,address)": {
        "notice": "Adds an address to the LP allowlist."
      },
      "addManager(address)": {
        "notice": "Add a new manager to the collection of managers"
      },
      "addToken(address,address,address,uint256,uint256,address)": {
        "notice": "Adds a token to the Pool's list of tradeable tokens. This is a permissioned function."
      },
      "calculateBalancing(address)": {
        "notice": "Calculates a number of tokens to add or remove to rebalance pricing"
      },
      "collectAumManagementFees(address)": {
        "notice": "Collect any accrued AUM fees and send them to the pool manager."
      },
      "constructor": {
        "notice": "Constructor for the controller implementation class"
      },
      "createPool(string,string,address[],uint256[],address[],uint256,bool,bool,uint256,uint256,uint256,bytes32)": {
        "notice": "Create a new managed pool"
      },
      "depositTokens(uint256,address)": {
        "notice": "Deposit tokens to controller"
      },
      "getPoolId(address)": {
        "notice": "Returns the pools Id"
      },
      "getPoolsUnderManagement()": {
        "notice": "returns a list of pools under management by this controller"
      },
      "getSwapEnabled(address)": {
        "notice": "Returns the whether swapping is enabled for pool"
      },
      "getTokenPrice(address)": {
        "notice": "returns the oracle supplied price for the requested token"
      },
      "pause()": {
        "notice": "Pause sensitive functions"
      },
      "removeAllowedAddress(address,address)": {
        "notice": "Removes an address from the _poolAddress - Address of pool being worked on."
      },
      "removeManager(address)": {
        "notice": "Remove a manager to the collection of managers"
      },
      "removeToken(address,address,uint256,address)": {
        "notice": "Removes a token from the Pool's list of tradeable tokens."
      },
      "runCheck(address)": {
        "notice": "Runs a check and transfers reserve tokens as needed"
      },
      "setCircuitBreakers(address,address[],uint256[],uint256[],uint256[])": {
        "notice": "Set a circuit breaker for one or more tokens."
      },
      "setJoinExitEnabled(address,bool)": {
        "notice": "Enable or disable joins and exits. Note that this does not affect Recovery Mode exits."
      },
      "setManagementAumFeePercentage(address,uint256)": {
        "notice": "Setter for the yearly percentage AUM management fee, which is payable to the pool manager."
      },
      "setMustAllowlistLPs(address,bool)": {
        "notice": "Enable or disable the LP allowlist."
      },
      "setReferencePool(address)": {
        "notice": "Set a new token oracle feed"
      },
      "setStableToken(address)": {
        "notice": "Set a new token oracle feed"
      },
      "setSwapEnabled(address,bool)": {
        "notice": "Enable or disable trading."
      },
      "setTokenFeed(address,address)": {
        "notice": "Set a new token oracle feed"
      },
      "unpause()": {
        "notice": "Unpause sensitive functions"
      },
      "updateSwapFeeGradually(address,uint256,uint256,uint256,uint256)": {
        "notice": "Schedule a gradual swap fee update."
      },
      "updateWeightsGradually(address,uint256,uint256,address[],uint256[])": {
        "notice": "Schedule a gradual weight change."
      },
      "withdrawFunds(address,address,uint256)": {
        "notice": "Withdraw tokens from controller"
      }
    },
    "version": 1
  }
}