{
  "contractName": "ReserveController",
  "abi": [
    {
      "inputs": [
        {
          "internalType": "address",
          "name": "_vaultAddress",
          "type": "address"
        }
      ],
      "stateMutability": "nonpayable",
      "type": "constructor"
    },
    {
      "inputs": [],
      "name": "manager",
      "outputs": [
        {
          "internalType": "address",
          "name": "",
          "type": "address"
        }
      ],
      "stateMutability": "view",
      "type": "function",
      "constant": true
    },
    {
      "inputs": [
        {
          "internalType": "address",
          "name": "_manager",
          "type": "address"
        }
      ],
      "name": "transferManagement",
      "outputs": [],
      "stateMutability": "nonpayable",
      "type": "function"
    },
    {
      "inputs": [
        {
          "internalType": "address",
          "name": "_managedPool",
          "type": "address"
        },
        {
          "internalType": "address",
          "name": "_reserveToken",
          "type": "address"
        }
      ],
      "name": "registerManagedPool",
      "outputs": [],
      "stateMutability": "nonpayable",
      "type": "function"
    },
    {
      "inputs": [
        {
          "internalType": "address",
          "name": "_managedPool",
          "type": "address"
        }
      ],
      "name": "deRegisterManagedPool",
      "outputs": [],
      "stateMutability": "nonpayable",
      "type": "function"
    },
    {
      "inputs": [
        {
          "internalType": "address",
          "name": "_tokenIn",
          "type": "address"
        },
        {
          "internalType": "uint256",
          "name": "_amountIn",
          "type": "uint256"
        },
        {
          "internalType": "address",
          "name": "_recipient",
          "type": "address"
        }
      ],
      "name": "buyReserveToken",
      "outputs": [],
      "stateMutability": "nonpayable",
      "type": "function"
    },
    {
      "inputs": [
        {
          "internalType": "address",
          "name": "_tokenIn",
          "type": "address"
        },
        {
          "internalType": "address",
          "name": "_pool",
          "type": "address"
        },
        {
          "internalType": "uint256",
          "name": "_amountIn",
          "type": "uint256"
        },
        {
          "internalType": "address",
          "name": "_recipient",
          "type": "address"
        }
      ],
      "name": "sellReserveToken",
      "outputs": [],
      "stateMutability": "nonpayable",
      "type": "function"
    }
  ],
  "bytecode": "0x60a060405234801561001057600080fd5b506040516114a23803806114a283398101604081905261002f9161005d565b600160008190558054336001600160a01b031990911617905560601b6001600160601b03191660805261008b565b60006020828403121561006e578081fd5b81516001600160a01b0381168114610084578182fd5b9392505050565b60805160601c6113eb6100b76000398061034c528061046b52806109d85280610af752506113eb6000f3fe608060405234801561001057600080fd5b50600436106100625760003560e01c8063277fa18f14610067578063479588511461007c578063481c6a751461008f578063c944994c146100ad578063d22320e2146100c0578063e4edf852146100d3575b600080fd5b61007a61007536600461103e565b6100e6565b005b61007a61008a3660046110f9565b61013f565b6100976107c6565b6040516100a49190611279565b60405180910390f35b61007a6100bb366004611076565b6107d5565b61007a6100ce36600461101b565b610e4c565b61007a6100e136600461101b565b610e9c565b6001546001600160a01b031633146100fd57600080fd5b610105610ed5565b6001600160a01b03828116600090815260026020526040902080546001600160a01b03191691831691909117905561013b610eee565b5050565b610147610ed5565b6001600160a01b03808416600090815260026020526040902054849182911661018b5760405162461bcd60e51b81526004016101829061133f565b60405180910390fd5b610193610f5e565b6001600160a01b0386168082526040516323b872dd60e01b81528791906323b872dd906101c890339030908b9060040161128d565b602060405180830381600087803b1580156101e257600080fd5b505af11580156101f6573d6000803e3d6000fd5b505050506040513d601f19601f8201168201806040525081019061021a9190611241565b6102365760405162461bcd60e51b815260040161018290611308565b6000816001600160a01b03166318160ddd6040518163ffffffff1660e01b815260040160206040518083038186803b15801561027157600080fd5b505afa158015610285573d6000803e3d6000fd5b505050506040513d601f19601f820116820180604052508101906102a99190611261565b905060008188816102b657fe5b04905083600001516001600160a01b03166338fff2d06040518163ffffffff1660e01b815260040160206040518083038186803b1580156102f657600080fd5b505afa15801561030a573d6000803e3d6000fd5b505050506040513d601f19601f8201168201806040525081019061032e9190611261565b6020850181905260405163f6c0092760e01b81526001600160a01b037f0000000000000000000000000000000000000000000000000000000000000000169163f6c009279161038091906004016112ca565b604080518083038186803b15801561039757600080fd5b505afa1580156103ab573d6000803e3d6000fd5b505050506040513d601f19601f820116820180604052508101906103cf91906110c8565b505083600001516001600160a01b031663f89f27ed6040518163ffffffff1660e01b815260040160006040518083038186803b15801561040e57600080fd5b505afa158015610422573d6000803e3d6000fd5b505050506040513d6000823e601f3d908101601f1916820160405261044a9190810190611206565b60808501526020840151604051631f29a8cd60e31b81526001600160a01b037f0000000000000000000000000000000000000000000000000000000000000000169163f94d46689161049f91906004016112ca565b60006040518083038186803b1580156104b757600080fd5b505afa1580156104cb573d6000803e3d6000fd5b505050506040513d6000823e601f3d908101601f191682016040526104f3919081019061113a565b5060c086015260a0850181905261050990610ef5565b8460e0018190525060008460c0015160008151811061052457fe5b602002602001015111156105cc57836080015160008151811061054357fe5b60200260200101518460c0015160008151811061055c57fe5b60200260200101518161056b57fe5b04846080015160018151811061057d57fe5b60200260200101518560c0015160018151811061059657fe5b6020026020010151816105a557fe5b04816105ad57fe5b0484606001516000815181106105bf57fe5b6020026020010181815250505b60015b8460a00151518110156106a45760006040860181905260c08601518051839081106105f657fe5b6020026020010151111561069c578460800151818151811061061457fe5b60200260200101518560c00151828151811061062c57fe5b60200260200101518161063b57fe5b04856080015160008151811061064d57fe5b60200260200101518660c0015160008151811061066657fe5b60200260200101518161067557fe5b048161067d57fe5b04856060015160018151811061068f57fe5b6020026020010181815250505b6001016105cf565b506000805b8560a00151518110156106f857856060015181815181106106c657fe5b60200260200101518660c0015182815181106106de57fe5b6020026020010151028201915080806001019150506106a9565b506001600160a01b03808b166000908152600260205260409081902054905163a9059cbb60e01b8152848402929190911690819063a9059cbb90610742908d9086906004016112b1565b602060405180830381600087803b15801561075c57600080fd5b505af1158015610770573d6000803e3d6000fd5b505050506040513d601f19601f820116820180604052508101906107949190611241565b6107b05760405162461bcd60e51b8152600401610182906112d3565b5050505050505050506107c1610eee565b505050565b6001546001600160a01b031681565b6107dd610ed5565b6001600160a01b0380851660009081526002602052604090205485918291166108185760405162461bcd60e51b81526004016101829061133f565b610820610f5e565b6001600160a01b038616808252604080516318160ddd60e01b81529051889260009290916318160ddd91600480820192602092909190829003018186803b15801561086a57600080fd5b505afa15801561087e573d6000803e3d6000fd5b505050506040513d601f19601f820116820180604052508101906108a29190611261565b6040516323b872dd60e01b815290915089906001600160a01b038216906323b872dd906108d790339030908d9060040161128d565b602060405180830381600087803b1580156108f157600080fd5b505af1158015610905573d6000803e3d6000fd5b505050506040513d601f19601f820116820180604052508101906109299190611241565b6109455760405162461bcd60e51b815260040161018290611308565b83600001516001600160a01b03166338fff2d06040518163ffffffff1660e01b815260040160206040518083038186803b15801561098257600080fd5b505afa158015610996573d6000803e3d6000fd5b505050506040513d601f19601f820116820180604052508101906109ba9190611261565b6020850181905260405163f6c0092760e01b81526001600160a01b037f0000000000000000000000000000000000000000000000000000000000000000169163f6c0092791610a0c91906004016112ca565b604080518083038186803b158015610a2357600080fd5b505afa158015610a37573d6000803e3d6000fd5b505050506040513d601f19601f82011682018060405250810190610a5b91906110c8565b505083600001516001600160a01b031663f89f27ed6040518163ffffffff1660e01b815260040160006040518083038186803b158015610a9a57600080fd5b505afa158015610aae573d6000803e3d6000fd5b505050506040513d6000823e601f3d908101601f19168201604052610ad69190810190611206565b60808501526020840151604051631f29a8cd60e31b81526001600160a01b037f0000000000000000000000000000000000000000000000000000000000000000169163f94d466891610b2b91906004016112ca565b60006040518083038186803b158015610b4357600080fd5b505afa158015610b57573d6000803e3d6000fd5b505050506040513d6000823e601f3d908101601f19168201604052610b7f919081019061113a565b5060c086015260a08501819052610b9590610ef5565b8460e0018190525060008460c00151600081518110610bb057fe5b60200260200101511115610c58578360800151600081518110610bcf57fe5b60200260200101518460c00151600081518110610be857fe5b602002602001015181610bf757fe5b048460800151600181518110610c0957fe5b60200260200101518560c00151600181518110610c2257fe5b602002602001015181610c3157fe5b0481610c3957fe5b048460600151600081518110610c4b57fe5b6020026020010181815250505b60015b8460a0015151811015610d305760006040860181905260c0860151805183908110610c8257fe5b60200260200101511115610d285784608001518181518110610ca057fe5b60200260200101518560c001518281518110610cb857fe5b602002602001015181610cc757fe5b048560800151600081518110610cd957fe5b60200260200101518660c00151600081518110610cf257fe5b602002602001015181610d0157fe5b0481610d0957fe5b048560600151600181518110610d1b57fe5b6020026020010181815250505b600101610c5b565b506000805b8560a0015151811015610d845785606001518181518110610d5257fe5b60200260200101518660c001518281518110610d6a57fe5b602002602001015102820191508080600101915050610d35565b506000838a81610d9057fe5b60405163a9059cbb60e01b81529190049150848202906001600160a01b0387169063a9059cbb90610dc7908d9085906004016112b1565b602060405180830381600087803b158015610de157600080fd5b505af1158015610df5573d6000803e3d6000fd5b505050506040513d601f19601f82011682018060405250810190610e199190611241565b610e355760405162461bcd60e51b8152600401610182906112d3565b505050505050505050610e46610eee565b50505050565b6001546001600160a01b03163314610e6357600080fd5b610e6b610ed5565b6001600160a01b038116600090815260026020526040902080546001600160a01b0319169055610e99610eee565b50565b6001546001600160a01b03163314610eb357600080fd5b600180546001600160a01b0319166001600160a01b0392909216919091179055565b610ee760026000541415610190610ef8565b6002600055565b6001600055565b90565b8161013b5762461bcd60e51b600090815260206004526007602452600a808304818106603090810160081b83860601918390049283060160101b016642414c230000300160c81b60445261013b918391610e99916210905360ea1b906242414c90606490fd5b60405180610100016040528060006001600160a01b03168152602001600080191681526020016000815260200160608152602001606081526020016060815260200160608152602001606081525090565b600082601f830112610fbf578081fd5b81516020610fd4610fcf83611382565b61135e565b8281528181019085830183850287018401881015610ff0578586fd5b855b8581101561100e57815184529284019290840190600101610ff2565b5090979650505050505050565b60006020828403121561102c578081fd5b8135611037816113a0565b9392505050565b60008060408385031215611050578081fd5b823561105b816113a0565b9150602083013561106b816113a0565b809150509250929050565b6000806000806080858703121561108b578182fd5b8435611096816113a0565b935060208501356110a6816113a0565b92506040850135915060608501356110bd816113a0565b939692955090935050565b600080604083850312156110da578182fd5b82516110e5816113a0565b60208401519092506003811061106b578182fd5b60008060006060848603121561110d578283fd5b8335611118816113a0565b925060208401359150604084013561112f816113a0565b809150509250925092565b60008060006060848603121561114e578283fd5b835167ffffffffffffffff80821115611165578485fd5b818601915086601f830112611178578485fd5b81516020611188610fcf83611382565b82815281810190858301838502870184018c10156111a457898afd5b8996505b848710156111cf5780516111bb816113a0565b8352600196909601959183019183016111a8565b50918901519197509093505050808211156111e8578384fd5b506111f586828701610faf565b925050604084015190509250925092565b600060208284031215611217578081fd5b815167ffffffffffffffff81111561122d578182fd5b61123984828501610faf565b949350505050565b600060208284031215611252578081fd5b81518015158114611037578182fd5b600060208284031215611272578081fd5b5051919050565b6001600160a01b0391909116815260200190565b6001600160a01b039384168152919092166020820152604081019190915260600190565b6001600160a01b03929092168252602082015260400190565b90815260200190565b6020808252818101527f5472616e73666572206f66206f757470757420746f6b656e73206661696c6564604082015260600190565b6020808252601f908201527f5472616e73666572206f6620696e70757420746f6b656e73206661696c656400604082015260600190565b60208082526005908201526422b93937b960d91b604082015260600190565b60405181810167ffffffffffffffff8111828210171561137a57fe5b604052919050565b600067ffffffffffffffff82111561139657fe5b5060209081020190565b6001600160a01b0381168114610e9957600080fdfea26469706673582212206832ffb9167510be7537a01b7f722ca39e9e4f07dbba38b2efc02def3924abd364736f6c63430007060033",
  "immutableReferences": {
    "1804": [
      {
        "length": 32,
        "start": 844
      },
      {
        "length": 32,
        "start": 1131
      },
      {
        "length": 32,
        "start": 2520
      },
      {
        "length": 32,
        "start": 2807
      }
    ]
  },
  "source": "// SPDX-License-Identifier: MIT\n\npragma solidity ^0.7.0;\npragma experimental ABIEncoderV2;\nimport \"@balancer-labs/v2-solidity-utils/contracts/openzeppelin/ReentrancyGuard.sol\";\nimport \"@balancer-labs/v2-interfaces/contracts/vault/IVault.sol\";\nimport \"@balancer-labs/v2-interfaces/contracts/pool-utils/IManagedPool.sol\";\nimport \"./base/BaseUtils.sol\";\n\ncontract ReserveController is ReentrancyGuard, BaseUtils {\n\n    struct ReserveValues {\n        IManagedPool managedPool;\n        bytes32 poolId;\n        uint256 tokenPrice;\n        uint256[] tokenPrices;\n        uint256[] normalizedWeights;\n        IERC20[] tokens;\n        uint256[] balances;\n        IAsset[] assets;\n    }\n\n    // poolAddress mapped to reserve token\n    mapping(address => address) pools;\n\n    IVault internal immutable vault;\n\n    /**\n     * @notice Constructor for the controller base class\n     *\n     * @param _vaultAddress - Vault contract address\n     */\n    constructor(address _vaultAddress) {\n        manager = msg.sender;\n        vault = IVault(_vaultAddress);\n    }\n\n    /**\n     * @notice Register managed pool\n     *\n     * @param _managedPool - Address of pool being worked on.\n     * @param _reserveToken - Address of pool being worked on.\n     */\n    function registerManagedPool(\n        address _managedPool,\n        address _reserveToken) public restricted nonReentrant {\n        pools[_managedPool] = _reserveToken;\n    }\n\n    /**\n     * @notice Deregister managed pool\n     *\n     * @param _managedPool - Address of pool being worked on.\n     */\n    function deRegisterManagedPool(\n        address _managedPool) public restricted nonReentrant {\n        delete pools[_managedPool];\n    }\n\n    /**\n     * @notice This function is used for pools containing two tokensRuns a check\n      and transfers reserve tokens as needed\n     *\n     * @param _tokenIn - Address of collateral token\n     * @param _amountIn - The amount being traded\n     * @param _recipient - Address of person to receive the swapped tokens\n     */\n    function buyReserveToken(address  _tokenIn,\n                             uint256 _amountIn,\n                             address _recipient) public nonReentrant checkPoolSupported(_tokenIn)\n    {\n        // Retrieve a list of tokens, balances and normalised weights for the pool\n        ReserveValues memory reserveValues;\n        reserveValues.managedPool = IManagedPool(_tokenIn);\n        IERC20 bptToken = IERC20(_tokenIn);\n\n        // Transfer the input tokens from the sender to this contract\n        require(bptToken.transferFrom(msg.sender, address(this), _amountIn), \"Transfer of input tokens failed\");\n\n        // Calculate the buyers share of the pool\n        uint256 totalSupply = bptToken.totalSupply();\n        uint256 myShare = _amountIn / totalSupply;\n\n        reserveValues.poolId = reserveValues.managedPool.getPoolId();\n        vault.getPool(reserveValues.poolId);\n        reserveValues.normalizedWeights = reserveValues.managedPool.getNormalizedWeights();\n\n        (reserveValues.tokens, reserveValues.balances,) = vault.getPoolTokens(reserveValues.poolId);\n        reserveValues.assets = SupportLib._convertERC20sToAssets(reserveValues.tokens);\n\n        // Calculate token prices using the DEX\n        if (reserveValues.balances[0]  > 0)\n        {\n            reserveValues.tokenPrices[0] = (reserveValues.balances[1] / reserveValues.normalizedWeights[1]) / (reserveValues.balances[0] / reserveValues.normalizedWeights[0]);\n        }\n\n        for (uint256 i = 1; i < reserveValues.tokens.length; i++) {\n            reserveValues.tokenPrice = 0;\n            if (reserveValues.balances[i] > 0)\n            {\n                reserveValues.tokenPrices[1] = (reserveValues.balances[0] / reserveValues.normalizedWeights[0]) / (reserveValues.balances[i] / reserveValues.normalizedWeights[i]);\n            }\n        }\n\n        // Calculate the total value of the pool\n        uint256 totalPoolValue = 0;\n        for (uint256 i = 0; i < reserveValues.tokens.length; i++) {\n            totalPoolValue = totalPoolValue + (reserveValues.balances[i] * reserveValues.tokenPrices[i]);\n        }\n\n        // Calculate supplied token value\n        uint256 myShareValue = myShare * totalPoolValue;\n\n        IERC20 reserveToken = IERC20(pools[_tokenIn]);\n\n        // Transfer the output tokens from this contract to the recipient\n        require(reserveToken.transfer(_recipient, myShareValue), \"Transfer of output tokens failed\");\n    }\n\n    /**\n     * @notice Runs a check and transfers reserve tokens as needed\n     * @dev To avoid too many fees, this should be run at wide intervals such as daily\n     *\n     * @param _tokenIn - Address of reserve token\n     * @param _amountIn - The amount being traded\n     * @param _recipient - Address of person to receive the swapped tokens\n     */\n    function sellReserveToken(address _tokenIn,\n                              address _pool,\n                              uint256 _amountIn,\n                              address _recipient) public nonReentrant checkPoolSupported(_tokenIn)\n    {\n        // Retrieve a list of tokens, balances and normalised weights for the pool\n        ReserveValues memory reserveValues;\n        reserveValues.managedPool = IManagedPool(_pool);\n        IERC20 bptToken = IERC20(_pool);\n        uint256 totalSupply = bptToken.totalSupply();\n\n        // Transfer the input tokens from the sender to this contract\n        IERC20 collateralToken = IERC20(_tokenIn);\n        require(collateralToken.transferFrom(msg.sender, address(this), _amountIn), \"Transfer of input tokens failed\");\n\n        reserveValues.poolId = reserveValues.managedPool.getPoolId();\n        vault.getPool(reserveValues.poolId);\n        reserveValues.normalizedWeights = reserveValues.managedPool.getNormalizedWeights();\n\n        (reserveValues.tokens, reserveValues.balances,) = vault.getPoolTokens(reserveValues.poolId);\n        reserveValues.assets = SupportLib._convertERC20sToAssets(reserveValues.tokens);\n\n        // Calculate token prices using the DEX\n        if (reserveValues.balances[0]  > 0)\n        {\n            reserveValues.tokenPrices[0] = (reserveValues.balances[1] / reserveValues.normalizedWeights[1]) / (reserveValues.balances[0] / reserveValues.normalizedWeights[0]);\n        }\n\n        for (uint256 i = 1; i < reserveValues.tokens.length; i++) {\n            reserveValues.tokenPrice = 0;\n            if (reserveValues.balances[i] > 0)\n            {\n                reserveValues.tokenPrices[1] = (reserveValues.balances[0] / reserveValues.normalizedWeights[0]) / (reserveValues.balances[i] / reserveValues.normalizedWeights[i]);\n            }\n        }\n\n        // Calculate the total value of the pool\n        uint256 totalPoolValue = 0;\n        for (uint256 i = 0; i < reserveValues.tokens.length; i++) {\n            totalPoolValue = totalPoolValue + (reserveValues.balances[i] * reserveValues.tokenPrices[i]);\n        }\n\n        // Calculate supplied token value\n        uint256 myShare = _amountIn / totalSupply;\n        uint256 myBptAmount = myShare * totalSupply;\n\n        // Transfer the output tokens from this contract to the recipient\n        require(bptToken.transfer(_recipient, myBptAmount), \"Transfer of output tokens failed\");\n    }\n\n    /**\n     * @dev Modifier to check token allowance\n     */\n    modifier checkPoolSupported(address _managedPool) {\n        IManagedPool managedPool = IManagedPool(_managedPool);\n        require(pools[_managedPool] != address(0x0), \"Error\");\n        _;\n    }\n}\n",
  "sourcePath": "/home/eagle/Source/Balancer.Controller/contracts/ReserveController.sol",
  "compiler": {
    "name": "solc",
    "version": "0.7.6+commit.7338295f.Emscripten.clang"
  },
  "schemaVersion": "3.4.13",
  "updatedAt": "2023-05-27T17:09:41.057Z",
  "networkType": "ethereum",
  "devdoc": {
    "kind": "dev",
    "methods": {
      "buyReserveToken(address,uint256,address)": {
        "params": {
          "_amountIn": "- The amount being traded",
          "_recipient": "- Address of person to receive the swapped tokens",
          "_tokenIn": "- Address of collateral token"
        }
      },
      "constructor": {
        "params": {
          "_vaultAddress": "- Vault contract address"
        }
      },
      "deRegisterManagedPool(address)": {
        "params": {
          "_managedPool": "- Address of pool being worked on."
        }
      },
      "registerManagedPool(address,address)": {
        "params": {
          "_managedPool": "- Address of pool being worked on.",
          "_reserveToken": "- Address of pool being worked on."
        }
      },
      "sellReserveToken(address,address,uint256,address)": {
        "details": "To avoid too many fees, this should be run at wide intervals such as daily",
        "params": {
          "_amountIn": "- The amount being traded",
          "_recipient": "- Address of person to receive the swapped tokens",
          "_tokenIn": "- Address of reserve token"
        }
      },
      "transferManagement(address)": {
        "details": "Only one manager can presently be set",
        "params": {
          "_manager": "- New manager."
        }
      }
    },
    "version": 1
  },
  "userdoc": {
    "kind": "user",
    "methods": {
      "buyReserveToken(address,uint256,address)": {
        "notice": "This function is used for pools containing two tokensRuns a check and transfers reserve tokens as needed"
      },
      "constructor": {
        "notice": "Constructor for the controller base class"
      },
      "deRegisterManagedPool(address)": {
        "notice": "Deregister managed pool"
      },
      "registerManagedPool(address,address)": {
        "notice": "Register managed pool"
      },
      "sellReserveToken(address,address,uint256,address)": {
        "notice": "Runs a check and transfers reserve tokens as needed"
      },
      "transferManagement(address)": {
        "notice": "Transfer the manager to a new address"
      }
    },
    "version": 1
  }
}