{
  "contractName": "ReserveController",
  "abi": [
    {
      "inputs": [
        {
          "internalType": "address",
          "name": "vaultAddress",
          "type": "address"
        },
        {
          "internalType": "address",
          "name": "supportedManagedPoolFactory",
          "type": "address"
        }
      ],
      "stateMutability": "nonpayable",
      "type": "constructor"
    },
    {
      "anonymous": false,
      "inputs": [
        {
          "indexed": true,
          "internalType": "address",
          "name": "buyer",
          "type": "address"
        },
        {
          "indexed": true,
          "internalType": "address",
          "name": "tokenIn",
          "type": "address"
        },
        {
          "indexed": false,
          "internalType": "uint256",
          "name": "amountIn",
          "type": "uint256"
        },
        {
          "indexed": false,
          "internalType": "uint256",
          "name": "reserveTokenOut",
          "type": "uint256"
        }
      ],
      "name": "BoughtReserveToken",
      "type": "event"
    },
    {
      "anonymous": false,
      "inputs": [
        {
          "indexed": false,
          "internalType": "address",
          "name": "account",
          "type": "address"
        }
      ],
      "name": "Paused",
      "type": "event"
    },
    {
      "anonymous": false,
      "inputs": [
        {
          "indexed": true,
          "internalType": "address",
          "name": "seller",
          "type": "address"
        },
        {
          "indexed": true,
          "internalType": "address",
          "name": "pool",
          "type": "address"
        },
        {
          "indexed": false,
          "internalType": "uint256",
          "name": "amountIn",
          "type": "uint256"
        },
        {
          "indexed": false,
          "internalType": "uint256",
          "name": "bptOut",
          "type": "uint256"
        }
      ],
      "name": "SoldReserveToken",
      "type": "event"
    },
    {
      "anonymous": false,
      "inputs": [
        {
          "indexed": false,
          "internalType": "address",
          "name": "account",
          "type": "address"
        }
      ],
      "name": "Unpaused",
      "type": "event"
    },
    {
      "inputs": [],
      "name": "PERCENTAGE_DENOMINATOR",
      "outputs": [
        {
          "internalType": "uint256",
          "name": "",
          "type": "uint256"
        }
      ],
      "stateMutability": "view",
      "type": "function",
      "constant": true
    },
    {
      "inputs": [
        {
          "internalType": "address",
          "name": "manager",
          "type": "address"
        }
      ],
      "name": "addManager",
      "outputs": [],
      "stateMutability": "nonpayable",
      "type": "function"
    },
    {
      "inputs": [
        {
          "internalType": "address",
          "name": "poolAddress",
          "type": "address"
        }
      ],
      "name": "calculateBalancing",
      "outputs": [
        {
          "components": [
            {
              "components": [
                {
                  "internalType": "contract IAsset[]",
                  "name": "assets",
                  "type": "address[]"
                },
                {
                  "internalType": "uint256[]",
                  "name": "minAmountsOut",
                  "type": "uint256[]"
                },
                {
                  "internalType": "bytes",
                  "name": "userData",
                  "type": "bytes"
                },
                {
                  "internalType": "bool",
                  "name": "toInternalBalance",
                  "type": "bool"
                }
              ],
              "internalType": "struct IVault.ExitPoolRequest",
              "name": "newExitRequest",
              "type": "tuple"
            },
            {
              "components": [
                {
                  "internalType": "contract IAsset[]",
                  "name": "assets",
                  "type": "address[]"
                },
                {
                  "internalType": "uint256[]",
                  "name": "maxAmountsIn",
                  "type": "uint256[]"
                },
                {
                  "internalType": "bytes",
                  "name": "userData",
                  "type": "bytes"
                },
                {
                  "internalType": "bool",
                  "name": "fromInternalBalance",
                  "type": "bool"
                }
              ],
              "internalType": "struct IVault.JoinPoolRequest",
              "name": "newJoinRequest",
              "type": "tuple"
            }
          ],
          "internalType": "struct PoolAdjustments",
          "name": "",
          "type": "tuple"
        }
      ],
      "stateMutability": "view",
      "type": "function",
      "constant": true
    },
    {
      "inputs": [
        {
          "internalType": "address",
          "name": "tokenAddress",
          "type": "address"
        }
      ],
      "name": "getTokenPrice",
      "outputs": [
        {
          "internalType": "int256",
          "name": "",
          "type": "int256"
        }
      ],
      "stateMutability": "view",
      "type": "function",
      "constant": true
    },
    {
      "inputs": [
        {
          "internalType": "address",
          "name": "",
          "type": "address"
        }
      ],
      "name": "isManager",
      "outputs": [
        {
          "internalType": "bool",
          "name": "",
          "type": "bool"
        }
      ],
      "stateMutability": "view",
      "type": "function",
      "constant": true
    },
    {
      "inputs": [
        {
          "internalType": "address",
          "name": "",
          "type": "address"
        }
      ],
      "name": "managedPools",
      "outputs": [
        {
          "internalType": "string",
          "name": "poolName",
          "type": "string"
        },
        {
          "internalType": "string",
          "name": "poolSymbol",
          "type": "string"
        },
        {
          "internalType": "uint256",
          "name": "tolerance",
          "type": "uint256"
        }
      ],
      "stateMutability": "view",
      "type": "function",
      "constant": true
    },
    {
      "inputs": [],
      "name": "pause",
      "outputs": [],
      "stateMutability": "nonpayable",
      "type": "function"
    },
    {
      "inputs": [],
      "name": "paused",
      "outputs": [
        {
          "internalType": "bool",
          "name": "",
          "type": "bool"
        }
      ],
      "stateMutability": "view",
      "type": "function",
      "constant": true
    },
    {
      "inputs": [
        {
          "internalType": "address",
          "name": "manager",
          "type": "address"
        }
      ],
      "name": "removeManager",
      "outputs": [],
      "stateMutability": "nonpayable",
      "type": "function"
    },
    {
      "inputs": [
        {
          "internalType": "address",
          "name": "token",
          "type": "address"
        },
        {
          "internalType": "address",
          "name": "feed",
          "type": "address"
        }
      ],
      "name": "setTokenFeed",
      "outputs": [],
      "stateMutability": "nonpayable",
      "type": "function"
    },
    {
      "inputs": [
        {
          "internalType": "address",
          "name": "",
          "type": "address"
        }
      ],
      "name": "tokenFeeds",
      "outputs": [
        {
          "internalType": "address",
          "name": "",
          "type": "address"
        }
      ],
      "stateMutability": "view",
      "type": "function",
      "constant": true
    },
    {
      "inputs": [],
      "name": "unpause",
      "outputs": [],
      "stateMutability": "nonpayable",
      "type": "function"
    },
    {
      "inputs": [],
      "name": "getRegisteredPools",
      "outputs": [
        {
          "internalType": "address[]",
          "name": "",
          "type": "address[]"
        }
      ],
      "stateMutability": "view",
      "type": "function",
      "constant": true
    },
    {
      "inputs": [
        {
          "internalType": "address",
          "name": "managedPool",
          "type": "address"
        }
      ],
      "name": "registerManagedPool",
      "outputs": [],
      "stateMutability": "nonpayable",
      "type": "function"
    },
    {
      "inputs": [
        {
          "internalType": "address",
          "name": "managedPool",
          "type": "address"
        }
      ],
      "name": "deRegisterManagedPool",
      "outputs": [],
      "stateMutability": "nonpayable",
      "type": "function"
    },
    {
      "inputs": [
        {
          "internalType": "address",
          "name": "tokenIn",
          "type": "address"
        },
        {
          "internalType": "uint256",
          "name": "amountIn",
          "type": "uint256"
        },
        {
          "internalType": "address",
          "name": "recipient",
          "type": "address"
        }
      ],
      "name": "buyReserveToken",
      "outputs": [],
      "stateMutability": "nonpayable",
      "type": "function"
    },
    {
      "inputs": [
        {
          "internalType": "address",
          "name": "pool",
          "type": "address"
        },
        {
          "internalType": "uint256",
          "name": "amountIn",
          "type": "uint256"
        },
        {
          "internalType": "address",
          "name": "recipient",
          "type": "address"
        }
      ],
      "name": "sellReserveToken",
      "outputs": [],
      "stateMutability": "nonpayable",
      "type": "function"
    }
  ],
  "bytecode": "0x60c06040523480156200001157600080fd5b50604051620023dc380380620023dc83398101604081905262000034916200026e565b60016000818155815460ff1990811683556001600160601b0319606095861b81166080523383526003602090815260408420805490931690941790915560049092527f4f03f9165518d56b1edfdd10086a224460eb561524700361535e7e33be96dcdb80546001600160a01b031990811673128fe88eaa22bffb868bb3a584a54c96ee24014b179091557f7c0f9c8dca1139a9f62829fbc69c87f447f6c9d58f7b4cca1418da9c87a8886180548216730568fd19986748ceff3301e55c0eb1e729e0ab7e1790557f5bb005e3c44990943f9b77709d1ca1ed9bc660cfbf374a504a6d191a3edaa5c380548216731fcd30a73d67639c1cd89ff5746e7585731c083b1790557f47691a5a6d629e9672ee2df080468d466c301da2a465fe573fd65a3c84d15c8a80548216733d207061dbe8e2473527611bfecb87ff12b28dda1790557fe33db47f537c02d221c929da92d89f75e426a15b7c9f16a718c55e68e8bf0fc080548216736b6a4c71ec3858a024f3f0ee44bb0adcbed3dcc21790557f397452e5ccea6f50840044864e50258652019f6f308472bf18c4bf7e5e0c062f8054821673c7a353bae210aed958a1a2928b654938ec59dab217905573f6d198cd2a85bb2f3021cdbdab6b878474079be79091527fb5306958d449a4b127cb1c34c787089b226157ae8f211b96ca684eb7a1156c928054909116735e37af40a7a344ec9b03ccd34a250f3da9a20b02179055911b1660a052620002a5565b80516001600160a01b03811681146200026957600080fd5b919050565b6000806040838503121562000281578182fd5b6200028c8362000251565b91506200029c6020840162000251565b90509250929050565b60805160601c60a05160601c612107620002d560003960005050600081816109ea01526114e501526121076000f3fe608060405234801561001057600080fd5b506004361061010b5760003560e01c80637b35a88f116100a2578063b3cd425411610071578063b3cd425414610209578063d02641a01461021e578063d22320e214610231578063d87ac65f14610244578063f3ae2415146102645761010b565b80637b35a88f146101b95780638456cb59146101db57806387ef019a146101e3578063ac18de43146101f65761010b565b806347958851116100de57806347958851146101535780634fed9acd146101665780635c975abb1461018f578063659d4f5c146101a45761010b565b8063041ead60146101105780631b439d69146101255780632d06177a146101385780633f4ba83a1461014b575b600080fd5b61012361011e36600461194c565b610277565b005b6101236101333660046119a0565b610316565b61012361014636600461194c565b6105b9565b61012361066b565b6101236101613660046119a0565b6106a4565b61017961017436600461194c565b61092c565b6040516101869190611f11565b60405180910390f35b61019761107b565b6040516101869190611cdf565b6101ac611084565b6040516101869190611c92565b6101cc6101c736600461194c565b6110e6565b60405161018693929190611cf3565b610123611218565b6101236101f1366004611968565b61124f565b61012361020436600461194c565b6112ac565b610211611334565b6040516101869190611cea565b61021161022c36600461194c565b611339565b61012361023f36600461194c565b61133f565b61025761025236600461194c565b611398565b6040516101869190611c41565b61019761027236600461194c565b6113b3565b3360009081526003602052604090205460ff166102af5760405162461bcd60e51b81526004016102a690611daa565b60405180910390fd5b6005805460018181019092557f036b6384b5eca791c62761152d0c79bb0604c104a5fb6f4eb0703f3154bb3db00180546001600160a01b039093166001600160a01b031990931683179055600091825260066020526040909120805460ff19169091179055565b61031e6113c8565b6001600160a01b038316600090815260066020526040902054839060ff166103585760405162461bcd60e51b81526004016102a690611e76565b60008490506000816001600160a01b03166318160ddd6040518163ffffffff1660e01b815260040160206040518083038186803b15801561039857600080fd5b505afa1580156103ac573d6000803e3d6000fd5b505050506040513d601f19601f820116820180604052508101906103d09190611b08565b9050600081116103f25760405162461bcd60e51b81526004016102a690611e08565b60006104108261040a88670de0b6b3a76400006113f2565b90611405565b9050600061042a670de0b6b3a764000061040a84866113f2565b6040516323b872dd60e01b81529091507398a90ecfb163d138ec289d05362f20613a0c02ac9081906323b872dd9061046a90339030908d90600401611c55565b602060405180830381600087803b15801561048457600080fd5b505af1158015610498573d6000803e3d6000fd5b505050506040513d601f19601f820116820180604052508101906104bc9190611ae8565b6104d85760405162461bcd60e51b81526004016102a690611dd1565b60405163a9059cbb60e01b81526001600160a01b0386169063a9059cbb90610506908a908690600401611c79565b602060405180830381600087803b15801561052057600080fd5b505af1158015610534573d6000803e3d6000fd5b505050506040513d601f19601f820116820180604052508101906105589190611ae8565b50886001600160a01b0316336001600160a01b03167ff491fcefb4023b6cb463c4cc77af1ae0708ff8398b275985f0c6fc6cdd10212b8a8560405161059e929190611f53565b60405180910390a35050505050506105b4611411565b505050565b3360009081526003602052604090205460ff166105e85760405162461bcd60e51b81526004016102a690611daa565b6001600160a01b03811661060e5760405162461bcd60e51b81526004016102a690611d57565b6001600160a01b03811660009081526003602052604090205460ff16156106475760405162461bcd60e51b81526004016102a690611e3f565b6001600160a01b03166000908152600360205260409020805460ff19166001179055565b3360009081526003602052604090205460ff1661069a5760405162461bcd60e51b81526004016102a690611daa565b6106a2611418565b565b6106ac6113c8565b6001600160a01b038316600090815260066020526040902054839060ff166106e65760405162461bcd60e51b81526004016102a690611e76565b600084905060008590506000816001600160a01b03166318160ddd6040518163ffffffff1660e01b815260040160206040518083038186803b15801561072b57600080fd5b505afa15801561073f573d6000803e3d6000fd5b505050506040513d601f19601f820116820180604052508101906107639190611b08565b9050600081116107855760405162461bcd60e51b81526004016102a690611e08565b600061079d8261040a89670de0b6b3a76400006113f2565b905060006107aa8561146a565b905060006107c4670de0b6b3a764000061040a85856113f2565b6040516323b872dd60e01b81529091506001600160a01b038616906323b872dd906107f790339030908e90600401611c55565b602060405180830381600087803b15801561081157600080fd5b505af1158015610825573d6000803e3d6000fd5b505050506040513d601f19601f820116820180604052508101906108499190611ae8565b6108655760405162461bcd60e51b81526004016102a690611dd1565b6040516340c10f1960e01b81527398a90ecfb163d138ec289d05362f20613a0c02ac906340c10f199061089e908b908590600401611c79565b600060405180830381600087803b1580156108b857600080fd5b505af11580156108cc573d6000803e3d6000fd5b50505050896001600160a01b0316336001600160a01b03167f38dc357237572032f449d87124548f6e841fb06afa2174884d80d85a06fd3b048b84604051610915929190611f53565b60405180910390a3505050505050506105b4611411565b610934611891565b3360009081526003602052604090205460ff166109635760405162461bcd60e51b81526004016102a690611daa565b61096b611643565b60008290506000816001600160a01b03166338fff2d06040518163ffffffff1660e01b815260040160206040518083038186803b1580156109ab57600080fd5b505afa1580156109bf573d6000803e3d6000fd5b505050506040513d601f19601f820116820180604052508101906109e39190611b08565b90506000807f00000000000000000000000000000000000000000000000000000000000000006001600160a01b031663f94d4668846040518263ffffffff1660e01b8152600401610a349190611cea565b60006040518083038186803b158015610a4c57600080fd5b505afa158015610a60573d6000803e3d6000fd5b505050506040513d6000823e601f3d908101601f19168201604052610a8891908101906119e1565b50915091506000846001600160a01b031663f89f27ed6040518163ffffffff1660e01b815260040160006040518083038186803b158015610ac857600080fd5b505afa158015610adc573d6000803e3d6000fd5b505050506040513d6000823e601f3d908101601f19168201604052610b049190810190611aad565b90506000835167ffffffffffffffff811115610b3057634e487b7160e01b600052604160045260246000fd5b604051908082528060200260200182016040528015610b59578160200160208202803683370190505b5090506000845167ffffffffffffffff811115610b8657634e487b7160e01b600052604160045260246000fd5b604051908082528060200260200182016040528015610baf578160200160208202803683370190505b50905060005b8551811015610dda57610bee868281518110610be157634e487b7160e01b600052603260045260246000fd5b6020026020010151611339565b838281518110610c0e57634e487b7160e01b600052603260045260246000fd5b602002602001018181525050600080868381518110610c3d57634e487b7160e01b600052603260045260246000fd5b60200260200101511115610cff57610cfc610caf868481518110610c7157634e487b7160e01b600052603260045260246000fd5b6020026020010151888581518110610c9957634e487b7160e01b600052603260045260246000fd5b60200260200101516113f290919063ffffffff16565b61040a87600081518110610cd357634e487b7160e01b600052603260045260246000fd5b602002602001015189600081518110610c9957634e487b7160e01b600052603260045260246000fd5b90505b80848381518110610d2057634e487b7160e01b600052603260045260246000fd5b602002602001015112610d9857610d6781858481518110610d5157634e487b7160e01b600052603260045260246000fd5b602002602001015161166890919063ffffffff16565b838381518110610d8757634e487b7160e01b600052603260045260246000fd5b602002602001018181525050610dc7565b6000838381518110610dba57634e487b7160e01b600052603260045260246000fd5b6020026020010181815250505b5080610dd281612058565b915050610bb5565b506000855167ffffffffffffffff811115610e0557634e487b7160e01b600052604160045260246000fd5b604051908082528060200260200182016040528015610e2e578160200160208202803683370190505b5090506000865167ffffffffffffffff811115610e5b57634e487b7160e01b600052604160045260246000fd5b604051908082528060200260200182016040528015610e84578160200160208202803683370190505b506001600160a01b038c16600090815260026020819052604082200154919250908190815b8a51811015610fe05781878281518110610ed357634e487b7160e01b600052603260045260246000fd5b602002602001015112610f3e57610f09606461040a848d8581518110610c9957634e487b7160e01b600052603260045260246000fd5b858281518110610f2957634e487b7160e01b600052603260045260246000fd5b60200260200101818152505060019250610fce565b610f4782612073565b878281518110610f6757634e487b7160e01b600052603260045260246000fd5b602002602001015113610fce57610f9d606461040a848d8581518110610c9957634e487b7160e01b600052603260045260246000fd5b868281518110610fbd57634e487b7160e01b600052603260045260246000fd5b602002602001018181525050600193505b80610fd881612058565b915050610ea9565b506000610fec8b611674565b9050610ff6611891565b831561102d576040805160808101825283815260208082018990528251908101835260008152918101919091526001606082015281525b8415611066576040805160808101825283815260208082018a905282518082018452600081529282019290925260016060820152908201525b9d50505050505050505050505050505b919050565b60015460ff1690565b606060058054806020026020016040519081016040528092919081815260200182805480156110dc57602002820191906000526020600020905b81546001600160a01b031681526001909101906020018083116110be575b5050505050905090565b6002602052600090815260409020805481906111019061201d565b80601f016020809104026020016040519081016040528092919081815260200182805461112d9061201d565b801561117a5780601f1061114f5761010080835404028352916020019161117a565b820191906000526020600020905b81548152906001019060200180831161115d57829003601f168201915b50505050509080600101805461118f9061201d565b80601f01602080910402602001604051908101604052809291908181526020018280546111bb9061201d565b80156112085780601f106111dd57610100808354040283529160200191611208565b820191906000526020600020905b8154815290600101906020018083116111eb57829003601f168201915b5050505050908060020154905083565b3360009081526003602052604090205460ff166112475760405162461bcd60e51b81526004016102a690611daa565b6106a2611677565b3360009081526003602052604090205460ff1661127e5760405162461bcd60e51b81526004016102a690611daa565b6001600160a01b03918216600090815260046020526040902080546001600160a01b03191691909216179055565b3360009081526003602052604090205460ff166112db5760405162461bcd60e51b81526004016102a690611daa565b6001600160a01b03811660009081526003602052604090205460ff166113135760405162461bcd60e51b81526004016102a690611ea3565b6001600160a01b03166000908152600360205260409020805460ff19169055565b606481565b50600190565b3360009081526003602052604090205460ff1661136e5760405162461bcd60e51b81526004016102a690611daa565b611377816116b4565b6001600160a01b03166000908152600660205260409020805460ff19169055565b6004602052600090815260409020546001600160a01b031681565b60036020526000908152604090205460ff1681565b600260005414156113eb5760405162461bcd60e51b81526004016102a690611eda565b6002600055565b60006113fe8284611fe7565b9392505050565b60006113fe8284611fc7565b6001600055565b6114206116ec565b6001805460ff191690557f5db9ee0a495bf2e6ff9c91a7834c1ba4fdd244a5e8aa4e537bd38aeae4b073aa611453611710565b6040516114609190611c41565b60405180910390a1565b600080826001600160a01b03166338fff2d06040518163ffffffff1660e01b815260040160206040518083038186803b1580156114a657600080fd5b505afa1580156114ba573d6000803e3d6000fd5b505050506040513d601f19601f820116820180604052508101906114de9190611b08565b90506000807f00000000000000000000000000000000000000000000000000000000000000006001600160a01b031663f94d4668846040518263ffffffff1660e01b815260040161152f9190611cea565b60006040518083038186803b15801561154757600080fd5b505afa15801561155b573d6000803e3d6000fd5b505050506040513d6000823e601f3d908101601f1916820160405261158391908101906119e1565b50915091506000805b83518110156116395760008382815181106115b757634e487b7160e01b600052603260045260246000fd5b602002602001015111156116275760006115ea858381518110610be157634e487b7160e01b600052603260045260246000fd5b905061162361161c6402540be40061040a84888781518110610c9957634e487b7160e01b600052603260045260246000fd5b8490611714565b9250505b8061163181612058565b91505061158c565b5095945050505050565b61164b61107b565b156106a25760405162461bcd60e51b81526004016102a690611d80565b60006113fe8284612006565b90565b61167f611643565b6001805460ff1916811790557f62e78cea01bee320cd4e420270b5ea74000d11b0c9f74754ebdbfc544b05a258611453611710565b6001600160a01b0381166000908152600660205260408120805460ff191690556116dd82611720565b90506116e881611797565b5050565b6116f461107b565b6106a25760405162461bcd60e51b81526004016102a690611d29565b3390565b60006113fe8284611faf565b6000805b60055481101561178d57826001600160a01b03166005828154811061175957634e487b7160e01b600052603260045260246000fd5b6000918252602090912001546001600160a01b0316141561177b579050611076565b8061178581612058565b915050611724565b5050600554919050565b6005546117a690600190612006565b81101561184d5760056117ba826001611faf565b815481106117d857634e487b7160e01b600052603260045260246000fd5b600091825260209091200154600580546001600160a01b03909216918390811061181257634e487b7160e01b600052603260045260246000fd5b600091825260209091200180546001600160a01b0319166001600160a01b03929092169190911790558061184581612058565b915050611797565b600580548061186c57634e487b7160e01b600052603160045260246000fd5b600082815260209020810160001990810180546001600160a01b031916905501905550565b60405180604001604052806118a46118b6565b81526020016118b16118b6565b905290565b60405180608001604052806060815260200160608152602001606081526020016000151581525090565b600082601f8301126118f0578081fd5b8151602061190561190083611f8b565b611f61565b8281528181019085830183850287018401881015611921578586fd5b855b8581101561193f57815184529284019290840190600101611923565b5090979650505050505050565b60006020828403121561195d578081fd5b81356113fe816120b9565b6000806040838503121561197a578081fd5b8235611985816120b9565b91506020830135611995816120b9565b809150509250929050565b6000806000606084860312156119b4578081fd5b83356119bf816120b9565b92506020840135915060408401356119d6816120b9565b809150509250925092565b6000806000606084860312156119f5578283fd5b835167ffffffffffffffff80821115611a0c578485fd5b818601915086601f830112611a1f578485fd5b81516020611a2f61190083611f8b565b82815281810190858301838502870184018c1015611a4b57898afd5b8996505b84871015611a76578051611a62816120b9565b835260019690960195918301918301611a4f565b5091890151919750909350505080821115611a8f578384fd5b50611a9c868287016118e0565b925050604084015190509250925092565b600060208284031215611abe578081fd5b815167ffffffffffffffff811115611ad4578182fd5b611ae0848285016118e0565b949350505050565b600060208284031215611af9578081fd5b815180151581146113fe578182fd5b600060208284031215611b19578081fd5b5051919050565b6000815180845260208085019450808401835b83811015611b4f57815187529582019590820190600101611b33565b509495945050505050565b15159052565b60008151808452815b81811015611b8557602081850181015186830182015201611b69565b81811115611b965782602083870101525b50601f01601f19169290920160200192915050565b8051608080845281519084018190526000916020919082019060a0860190845b81811015611bf05783516001600160a01b031683529284019291840191600101611bcb565b505082850151915085810383870152611c098183611b20565b9250505060408301518482036040860152611c248282611b60565b9150506060830151611c396060860182611b5a565b509392505050565b6001600160a01b0391909116815260200190565b6001600160a01b039384168152919092166020820152604081019190915260600190565b6001600160a01b03929092168252602082015260400190565b6020808252825182820181905260009190848201906040850190845b81811015611cd35783516001600160a01b031683529284019291840191600101611cae565b50909695505050505050565b901515815260200190565b90815260200190565b600060608252611d066060830186611b60565b8281036020840152611d188186611b60565b915050826040830152949350505050565b60208082526014908201527314185d5cd8589b194e881b9bdd081c185d5cd95960621b604082015260600190565b6020808252600f908201526e496e76616c6964206164647265737360881b604082015260600190565b60208082526010908201526f14185d5cd8589b194e881c185d5cd95960821b604082015260600190565b6020808252600d908201526c2737ba10309036b0b730b3b2b960991b604082015260600190565b6020808252601f908201527f5472616e73666572206f6620696e70757420746f6b656e73206661696c656400604082015260600190565b60208082526019908201527f496e76616c696420706f6f6c20746f74616c20737570706c7900000000000000604082015260600190565b6020808252601c908201527f4164647265737320697320616c72656164792061206d616e6167657200000000604082015260600190565b602080825260139082015272141bdbdb081b9bdd081c9959da5cdd195c9959606a1b604082015260600190565b60208082526017908201527f416464726573732069736e27742061206d616e61676572000000000000000000604082015260600190565b6020808252601f908201527f5265656e7472616e637947756172643a207265656e7472616e742063616c6c00604082015260600190565b600060208252825160406020840152611f2d6060840182611bab565b90506020840151601f19848303016040850152611f4a8282611bab565b95945050505050565b918252602082015260400190565b60405181810167ffffffffffffffff81118282101715611f8357611f836120a3565b604052919050565b600067ffffffffffffffff821115611fa557611fa56120a3565b5060209081020190565b60008219821115611fc257611fc261208d565b500190565b600082611fe257634e487b7160e01b81526012600452602481fd5b500490565b60008160001904831182151516156120015761200161208d565b500290565b6000828210156120185761201861208d565b500390565b60028104600182168061203157607f821691505b6020821081141561205257634e487b7160e01b600052602260045260246000fd5b50919050565b600060001982141561206c5761206c61208d565b5060010190565b6000600160ff1b8214156120895761208961208d565b0390565b634e487b7160e01b600052601160045260246000fd5b634e487b7160e01b600052604160045260246000fd5b6001600160a01b03811681146120ce57600080fd5b5056fea2646970667358221220a0b9ce4740082078d146e67322c62f80c5a35970bad4a4e1d8194a111c9d95c764736f6c63430008000033",
  "immutableReferences": {
    "2846": [
      {
        "length": 32,
        "start": 2538
      },
      {
        "length": 32,
        "start": 5349
      }
    ]
  },
  "source": "// SPDX-License-Identifier: MIT\n\npragma solidity ^0.8.0;\n\nimport \"./base/BaseUtils.sol\";\nimport \"@balancer-labs/interfaces/contracts/pool-utils/IManagedPool.sol\";\nimport \"@balancer-labs/interfaces/contracts/vault/IVault.sol\";\nimport \"@openzeppelin/contracts/utils/math/SafeMath.sol\";\nimport \"./lib/ManagedPoolFactory.sol\";\nimport \"./lib/ReserveToken.sol\";\n\ncontract ReserveController is BaseUtils {\n    using SafeMath for uint256; // Use SafeMath for uint256\n\n    uint256 private constant DECIMALS = 10 ** 18;\n    address private constant RESERVE_TOKEN = 0x98A90EcFB163d138eC289D05362f20613A0C02aC;\n\n    struct TradeValues {\n        IManagedPool collateral;\n        bytes32 poolId;\n        int [] tokenPrices;\n        uint256 [] normalizedWeights;\n        IERC20 [] tokens;\n        uint256 [] balances;\n        IAsset [] assets;\n    }\n\n    address [] private registeredPools;\n    mapping(address => bool) private registeredPoolsMapping;\n    address internal immutable managedPoolFactory;\n\n    /**\n     * @notice Constructor for the controller base class\n     *\n     * @param vaultAddress - Vault contract address\n     * @param supportedManagedPoolFactory - ManegedPoolFactory address\n     */\n    constructor(address vaultAddress, address supportedManagedPoolFactory)\n    BaseUtils(vaultAddress) {\n        managedPoolFactory = supportedManagedPoolFactory;\n    }\n\n    /**\n     * @notice returns a list of registered pools\n     *\n     */\n    function getRegisteredPools() public view returns (address [] memory) {\n        return registeredPools;\n    }\n\n    /**\n     * @notice Register managed pool\n     *\n     * @param managedPool - Address of pool being worked on.\n     */\n    function registerManagedPool(\n        address managedPool\n    ) public onlyManager {\n        registeredPools.push(managedPool);\n        registeredPoolsMapping[managedPool] = true;\n    }\n\n    /**\n     * @notice Deregister managed pool\n     *\n     * @param managedPool - Address of pool being worked on.\n     */\n    function deRegisterManagedPool(\n        address managedPool\n    ) public onlyManager {\n        removeByValue(managedPool);\n        registeredPoolsMapping[managedPool] = false;\n    }\n\n    /**\n     * @notice This function is used for pools containing two tokens.\n     * It takes in a collateral token such as BPT, calculates an equal\n     * value amount of the reserve token such as G$ then mints and returns it.\n     *\n     * @param tokenIn - Address of collateral token\n     * @param amountIn - The amount being traded\n     * @param recipient - Address of person to receive the reserve tokens\n     */\n    function buyReserveToken(\n        address tokenIn,\n        uint256 amountIn,\n        address recipient\n    )\n        public \n        nonReentrant \n        checkPoolSupported(tokenIn) \n    {\n        IManagedPool collateral = IManagedPool(tokenIn);\n        IERC20 collateralToken = IERC20(tokenIn);\n\n        // Calculate the buyer's share of the pool\n        uint256 totalSupply = collateralToken.totalSupply();\n\n        // Ensure that totalSupply is not zero to prevent division by zero\n        require(totalSupply > 0, \"Invalid pool total supply\");\n        \n        uint256 buyersShare = amountIn.mul(DECIMALS).div(totalSupply);\n\n        // Calculate total value of the pool\n        uint256 totalPoolValue = getPoolValue(collateral);\n\n        // Calculate supplied token value\n        uint256 buyersShareValue = buyersShare.mul(totalPoolValue).div(DECIMALS);\n\n        require(collateralToken.transferFrom(msg.sender, address(this), amountIn), \"Transfer of input tokens failed\");\n\n        // Mint and Transfer the output tokens from this contract to the recipient\n        ReserveToken(RESERVE_TOKEN).mint(recipient, buyersShareValue);\n        \n        emit BoughtReserveToken(msg.sender, tokenIn, amountIn, buyersShareValue);\n    }\n\n    function getPoolValue(IManagedPool collateral) internal view returns (uint256) {\n        bytes32 poolId = collateral.getPoolId();\n        (IERC20[] memory tokens, uint256[] memory balances, ) = vault.getPoolTokens(poolId);\n        \n        uint256 totalValue = 0;\n        for (uint256 i = 0; i < tokens.length; i++) {\n            if (balances[i] > 0) {\n                int price = getTokenPrice(address(tokens[i]));\n                totalValue = totalValue.add(balances[i].mul(uint256(price)).div(10**10));  // Adjusting for 8 decimals of price\n            }\n        }\n        return totalValue;\n    }\n    \n    /**\n     * @notice Runs a check and transfers reserve tokens as needed\n     * @dev To avoid too many fees, this should be run at wide intervals such as daily\n     *\n     * @param pool - Address of collateral token\n     * @param amountIn - The amount being traded\n     * @param recipient - Address of person to receive the swapped tokens\n     */\n    function sellReserveToken(\n        address pool,\n        uint256 amountIn,\n        address recipient\n    ) \n        public \n        nonReentrant \n        checkPoolSupported(pool) \n    {\n        IERC20 bptToken = IERC20(pool);\n\n        uint256 totalSupply = bptToken.totalSupply();\n\n        // Ensure totalSupply is not zero to prevent division by zero\n        require(totalSupply > 0, \"Invalid pool total supply\");\n\n        // Calculate user's proportionate share in the pool\n        uint256 myShare = amountIn.mul(DECIMALS).div(totalSupply);\n        uint256 myBptAmount = myShare.mul(totalSupply).div(DECIMALS);\n\n        IERC20 reserveToken = IERC20(RESERVE_TOKEN);\n        require(reserveToken.transferFrom(msg.sender, address(this), amountIn), \"Transfer of input tokens failed\");\n\n        // Transfer BPT tokens from this contract to the recipient\n        bptToken.transfer(recipient, myBptAmount);\n        \n        emit SoldReserveToken(msg.sender, pool, amountIn, myBptAmount);\n    }\n\n    /**\n     * @notice returns the array index containing supplied address\n     *\n     * @param value - Address to find\n     */\n    function find(address value) private view returns (uint) {\n        for(uint i = 0; i < registeredPools.length; i++) {\n            if(registeredPools[i] == value) {\n                return i; \n            }\n        }\n\n        return registeredPools.length;\n    }\n\n    /**\n     * @notice removes supplied address from array of addresses\n     *\n     * @param value - Address to look up and remove element\n     */\n    function removeByValue(address value) private {\n        registeredPoolsMapping[value] = false;\n        uint i = find(value);\n        removeByIndex(i);\n    }\n\n    /**\n     * @notice remove the item at index, resizing array as needed\n     *\n     * @param i - Index to remove\n     */\n    function removeByIndex(uint i) private {\n        while (i < registeredPools.length - 1) {\n            registeredPools [i] = registeredPools [i + 1];\n            i++;\n        }\n        registeredPools.pop();\n    }\n\n    event BoughtReserveToken(address indexed buyer, address indexed tokenIn, uint256 amountIn, uint256 reserveTokenOut);\n    event SoldReserveToken(address indexed seller, address indexed pool, uint256 amountIn, uint256 bptOut);\n    \n    /**\n     * @dev Modifier to check token allowance\n     *\n     * @param supportedManagedPool - Managed pool address to remove\n     */\n    modifier checkPoolSupported(address supportedManagedPool) {\n        require(registeredPoolsMapping[supportedManagedPool], \"Pool not registered\");\n        _;\n    }\n}\n",
  "sourcePath": "/home/eagle/Source/BalancerController/Balancer.Controller/contracts/ReserveController.sol",
  "compiler": {
    "name": "solc",
    "version": "0.8.0+commit.c7dfd78e.Emscripten.clang"
  },
  "schemaVersion": "3.4.13",
  "updatedAt": "2023-09-24T15:01:24.879Z",
  "networkType": "ethereum",
  "devdoc": {
    "kind": "dev",
    "methods": {
      "addManager(address)": {
        "params": {
          "manager": "- Manager to add"
        }
      },
      "buyReserveToken(address,uint256,address)": {
        "params": {
          "amountIn": "- The amount being traded",
          "recipient": "- Address of person to receive the reserve tokens",
          "tokenIn": "- Address of collateral token"
        }
      },
      "calculateBalancing(address)": {
        "params": {
          "poolAddress": "- Address of pool being worked on."
        }
      },
      "constructor": {
        "params": {
          "supportedManagedPoolFactory": "- ManegedPoolFactory address",
          "vaultAddress": "- Vault contract address"
        }
      },
      "deRegisterManagedPool(address)": {
        "params": {
          "managedPool": "- Address of pool being worked on."
        }
      },
      "getTokenPrice(address)": {
        "params": {
          "tokenAddress": "- Token to find a price for"
        }
      },
      "paused()": {
        "details": "Returns true if the contract is paused, and false otherwise."
      },
      "registerManagedPool(address)": {
        "params": {
          "managedPool": "- Address of pool being worked on."
        }
      },
      "removeManager(address)": {
        "params": {
          "manager": "- Manager to remove"
        }
      },
      "sellReserveToken(address,uint256,address)": {
        "details": "To avoid too many fees, this should be run at wide intervals such as daily",
        "params": {
          "amountIn": "- The amount being traded",
          "pool": "- Address of collateral token",
          "recipient": "- Address of person to receive the swapped tokens"
        }
      },
      "setTokenFeed(address,address)": {
        "params": {
          "feed": "- Oracle feed address",
          "token": "- Token address"
        }
      }
    },
    "version": 1
  },
  "userdoc": {
    "kind": "user",
    "methods": {
      "addManager(address)": {
        "notice": "Add a new manager to the collection of managers"
      },
      "buyReserveToken(address,uint256,address)": {
        "notice": "This function is used for pools containing two tokens. It takes in a collateral token such as BPT, calculates an equal value amount of the reserve token such as G$ then mints and returns it."
      },
      "calculateBalancing(address)": {
        "notice": "Calculates a number of tokens to add or remove to rebalance pricing"
      },
      "constructor": {
        "notice": "Constructor for the controller base class"
      },
      "deRegisterManagedPool(address)": {
        "notice": "Deregister managed pool"
      },
      "getRegisteredPools()": {
        "notice": "returns a list of registered pools"
      },
      "getTokenPrice(address)": {
        "notice": "returns the oracle supplied price for the requested token"
      },
      "pause()": {
        "notice": "Pause sensitive functions"
      },
      "registerManagedPool(address)": {
        "notice": "Register managed pool"
      },
      "removeManager(address)": {
        "notice": "Remove a manager to the collection of managers"
      },
      "sellReserveToken(address,uint256,address)": {
        "notice": "Runs a check and transfers reserve tokens as needed"
      },
      "setTokenFeed(address,address)": {
        "notice": "Set a new token oracle feed"
      },
      "unpause()": {
        "notice": "Unpause sensitive functions"
      }
    },
    "version": 1
  }
}