{
  "contractName": "ReserveRatioController",
  "abi": [
    {
      "inputs": [
        {
          "internalType": "uint256",
          "name": "_defaultMinRatio",
          "type": "uint256"
        },
        {
          "internalType": "address",
          "name": "_vaultAddress",
          "type": "address"
        }
      ],
      "stateMutability": "nonpayable",
      "type": "constructor"
    },
    {
      "inputs": [
        {
          "internalType": "address",
          "name": "poolAddress",
          "type": "address"
        },
        {
          "internalType": "address",
          "name": "member",
          "type": "address"
        }
      ],
      "name": "addAllowedAddress",
      "outputs": [],
      "stateMutability": "nonpayable",
      "type": "function"
    },
    {
      "inputs": [
        {
          "internalType": "address",
          "name": "poolAddress",
          "type": "address"
        },
        {
          "internalType": "contract IERC20",
          "name": "tokenToAdd",
          "type": "address"
        },
        {
          "internalType": "address",
          "name": "assetManager",
          "type": "address"
        },
        {
          "internalType": "uint256",
          "name": "tokenToAddNormalizedWeight",
          "type": "uint256"
        },
        {
          "internalType": "uint256",
          "name": "mintAmount",
          "type": "uint256"
        },
        {
          "internalType": "address",
          "name": "recipient",
          "type": "address"
        }
      ],
      "name": "addToken",
      "outputs": [],
      "stateMutability": "nonpayable",
      "type": "function"
    },
    {
      "inputs": [
        {
          "internalType": "address",
          "name": "poolAddress",
          "type": "address"
        }
      ],
      "name": "collectAumManagementFees",
      "outputs": [],
      "stateMutability": "nonpayable",
      "type": "function"
    },
    {
      "inputs": [
        {
          "internalType": "address",
          "name": "",
          "type": "address"
        }
      ],
      "name": "managedPools",
      "outputs": [
        {
          "internalType": "bool",
          "name": "",
          "type": "bool"
        }
      ],
      "stateMutability": "view",
      "type": "function"
    },
    {
      "inputs": [],
      "name": "manager",
      "outputs": [
        {
          "internalType": "address",
          "name": "",
          "type": "address"
        }
      ],
      "stateMutability": "view",
      "type": "function"
    },
    {
      "inputs": [
        {
          "internalType": "address",
          "name": "_poolAddress",
          "type": "address"
        }
      ],
      "name": "registerPool",
      "outputs": [],
      "stateMutability": "nonpayable",
      "type": "function"
    },
    {
      "inputs": [
        {
          "internalType": "address",
          "name": "poolAddress",
          "type": "address"
        },
        {
          "internalType": "address",
          "name": "member",
          "type": "address"
        }
      ],
      "name": "removeAllowedAddress",
      "outputs": [],
      "stateMutability": "nonpayable",
      "type": "function"
    },
    {
      "inputs": [
        {
          "internalType": "address",
          "name": "poolAddress",
          "type": "address"
        },
        {
          "internalType": "contract IERC20",
          "name": "tokenToRemove",
          "type": "address"
        },
        {
          "internalType": "uint256",
          "name": "burnAmount",
          "type": "uint256"
        },
        {
          "internalType": "address",
          "name": "sender",
          "type": "address"
        }
      ],
      "name": "removeToken",
      "outputs": [],
      "stateMutability": "nonpayable",
      "type": "function"
    },
    {
      "inputs": [
        {
          "internalType": "address",
          "name": "",
          "type": "address"
        }
      ],
      "name": "reserveRatio",
      "outputs": [
        {
          "internalType": "uint256",
          "name": "",
          "type": "uint256"
        }
      ],
      "stateMutability": "view",
      "type": "function"
    },
    {
      "inputs": [
        {
          "internalType": "address",
          "name": "poolAddress",
          "type": "address"
        },
        {
          "internalType": "contract IERC20[]",
          "name": "tokens",
          "type": "address[]"
        },
        {
          "internalType": "uint256[]",
          "name": "bptPrices",
          "type": "uint256[]"
        },
        {
          "internalType": "uint256[]",
          "name": "lowerBoundPercentages",
          "type": "uint256[]"
        },
        {
          "internalType": "uint256[]",
          "name": "upperBoundPercentages",
          "type": "uint256[]"
        }
      ],
      "name": "setCircuitBreakers",
      "outputs": [],
      "stateMutability": "nonpayable",
      "type": "function"
    },
    {
      "inputs": [
        {
          "internalType": "address",
          "name": "poolAddress",
          "type": "address"
        },
        {
          "internalType": "bool",
          "name": "joinExitEnabled",
          "type": "bool"
        }
      ],
      "name": "setJoinExitEnabled",
      "outputs": [],
      "stateMutability": "nonpayable",
      "type": "function"
    },
    {
      "inputs": [
        {
          "internalType": "address",
          "name": "poolAddress",
          "type": "address"
        },
        {
          "internalType": "uint256",
          "name": "managementAumFeePercentage",
          "type": "uint256"
        }
      ],
      "name": "setManagementAumFeePercentage",
      "outputs": [],
      "stateMutability": "nonpayable",
      "type": "function"
    },
    {
      "inputs": [
        {
          "internalType": "address",
          "name": "poolAddress",
          "type": "address"
        },
        {
          "internalType": "bool",
          "name": "mustAllowlistLPs",
          "type": "bool"
        }
      ],
      "name": "setMustAllowlistLPs",
      "outputs": [],
      "stateMutability": "nonpayable",
      "type": "function"
    },
    {
      "inputs": [
        {
          "internalType": "address",
          "name": "poolAddress",
          "type": "address"
        },
        {
          "internalType": "bool",
          "name": "swapEnabled",
          "type": "bool"
        }
      ],
      "name": "setSwapEnabled",
      "outputs": [],
      "stateMutability": "nonpayable",
      "type": "function"
    },
    {
      "inputs": [
        {
          "internalType": "address",
          "name": "_manager",
          "type": "address"
        }
      ],
      "name": "transferManagement",
      "outputs": [],
      "stateMutability": "nonpayable",
      "type": "function"
    },
    {
      "inputs": [
        {
          "internalType": "address",
          "name": "poolAddress",
          "type": "address"
        },
        {
          "internalType": "uint256",
          "name": "startTime",
          "type": "uint256"
        },
        {
          "internalType": "uint256",
          "name": "endTime",
          "type": "uint256"
        },
        {
          "internalType": "uint256",
          "name": "startSwapFeePercentage",
          "type": "uint256"
        },
        {
          "internalType": "uint256",
          "name": "endSwapFeePercentage",
          "type": "uint256"
        }
      ],
      "name": "updateSwapFeeGradually",
      "outputs": [],
      "stateMutability": "nonpayable",
      "type": "function"
    },
    {
      "inputs": [
        {
          "internalType": "address",
          "name": "poolAddress",
          "type": "address"
        },
        {
          "internalType": "uint256",
          "name": "startTime",
          "type": "uint256"
        },
        {
          "internalType": "uint256",
          "name": "endTime",
          "type": "uint256"
        },
        {
          "internalType": "contract IERC20[]",
          "name": "tokens",
          "type": "address[]"
        },
        {
          "internalType": "uint256[]",
          "name": "endWeights",
          "type": "uint256[]"
        }
      ],
      "name": "updateWeightsGradually",
      "outputs": [],
      "stateMutability": "nonpayable",
      "type": "function"
    },
    {
      "inputs": [
        {
          "internalType": "bytes32",
          "name": "_poolId",
          "type": "bytes32"
        }
      ],
      "name": "runCheck",
      "outputs": [
        {
          "internalType": "uint256",
          "name": "",
          "type": "uint256"
        }
      ],
      "stateMutability": "view",
      "type": "function"
    },
    {
      "inputs": [
        {
          "internalType": "address",
          "name": "_poolAddress",
          "type": "address"
        },
        {
          "internalType": "uint256",
          "name": "_ratio",
          "type": "uint256"
        }
      ],
      "name": "setReserveRatio",
      "outputs": [],
      "stateMutability": "nonpayable",
      "type": "function"
    },
    {
      "inputs": [
        {
          "internalType": "address",
          "name": "_poolAddress",
          "type": "address"
        }
      ],
      "name": "getManagedPoolRatio",
      "outputs": [
        {
          "internalType": "uint256",
          "name": "",
          "type": "uint256"
        }
      ],
      "stateMutability": "view",
      "type": "function"
    }
  ],
  "bytecode": "0x60a06040523480156200001157600080fd5b5060405162001e3638038062001e36833981810160405281019062000037919062000161565b80336000806101000a81548173ffffffffffffffffffffffffffffffffffffffff021916908373ffffffffffffffffffffffffffffffffffffffff1602179055508073ffffffffffffffffffffffffffffffffffffffff1660808173ffffffffffffffffffffffffffffffffffffffff168152505050816002819055505050620001a8565b600080fd5b6000819050919050565b620000d681620000c1565b8114620000e257600080fd5b50565b600081519050620000f681620000cb565b92915050565b600073ffffffffffffffffffffffffffffffffffffffff82169050919050565b60006200012982620000fc565b9050919050565b6200013b816200011c565b81146200014757600080fd5b50565b6000815190506200015b8162000130565b92915050565b600080604083850312156200017b576200017a620000bc565b5b60006200018b85828601620000e5565b92505060206200019e858286016200014a565b9150509250929050565b608051611c75620001c160003960005050611c756000f3fe608060405234801561001057600080fd5b506004361061012c5760003560e01c8063556f1eb9116100ad578063c90d3a0411610071578063c90d3a0414610327578063cbe04b0c14610343578063e4444feb1461035f578063e4edf8521461037b578063eb5c5353146103975761012c565b8063556f1eb9146102875780637b35a88f146102a3578063875e7cd9146102d3578063abd796bf146102ef578063abd908461461030b5761012c565b8063404ac21e116100f4578063404ac21e146101f957806342da1cb114610215578063458aa92b14610231578063481c6a751461024d57806351d48cea1461026b5761012c565b806320f0baff1461013157806321f1e0cd14610161578063242345321461017d5780632abbd3ad146101ad57806330b0b72b146101c9575b600080fd5b61014b600480360381019061014691906110d4565b6103b3565b604051610158919061111a565b60405180910390f35b61017b600480360381019061017691906111fd565b610417565b005b6101976004803603810190610192919061128a565b6104f0565b6040516101a4919061111a565b60405180910390f35b6101c760048036038101906101c291906112ef565b610508565b005b6101e360048036038101906101de919061128a565b6105d5565b6040516101f0919061111a565b60405180910390f35b610213600480360381019061020e919061128a565b61061e565b005b61022f600480360381019061022a919061132f565b6106f1565b005b61024b6004803603810190610246919061158b565b6107d0565b005b6102556108a6565b6040516102629190611685565b60405180910390f35b610285600480360381019061028091906112ef565b6108ca565b005b6102a1600480360381019061029c91906112ef565b610997565b005b6102bd60048036038101906102b8919061128a565b610a64565b6040516102ca91906116af565b60405180910390f35b6102ed60048036038101906102e891906116ca565b610a84565b005b61030960048036038101906103049190611745565b610b5a565b005b6103256004803603810190610320919061128a565b610c27565b005b610341600480360381019061033c9190611785565b610cd9565b005b61035d60048036038101906103589190611838565b610daf565b005b61037960048036038101906103749190611745565b610e82565b005b6103956004803603810190610390919061128a565b610f4f565b005b6103b160048036038101906103ac919061132f565b610fea565b005b60008060009054906101000a900473ffffffffffffffffffffffffffffffffffffffff1673ffffffffffffffffffffffffffffffffffffffff163373ffffffffffffffffffffffffffffffffffffffff161461040e57600080fd5b60019050919050565b60008054906101000a900473ffffffffffffffffffffffffffffffffffffffff1673ffffffffffffffffffffffffffffffffffffffff163373ffffffffffffffffffffffffffffffffffffffff161461046f57600080fd5b60008690508073ffffffffffffffffffffffffffffffffffffffff166334a36df887878787876040518663ffffffff1660e01b81526004016104b59594939291906118fe565b600060405180830381600087803b1580156104cf57600080fd5b505af11580156104e3573d6000803e3d6000fd5b5050505050505050505050565b60036020528060005260406000206000915090505481565b60008054906101000a900473ffffffffffffffffffffffffffffffffffffffff1673ffffffffffffffffffffffffffffffffffffffff163373ffffffffffffffffffffffffffffffffffffffff161461056057600080fd5b60008290508073ffffffffffffffffffffffffffffffffffffffff16637b749c45836040518263ffffffff1660e01b815260040161059e91906116af565b600060405180830381600087803b1580156105b857600080fd5b505af11580156105cc573d6000803e3d6000fd5b50505050505050565b6000600360008373ffffffffffffffffffffffffffffffffffffffff1673ffffffffffffffffffffffffffffffffffffffff168152602001908152602001600020549050919050565b60008054906101000a900473ffffffffffffffffffffffffffffffffffffffff1673ffffffffffffffffffffffffffffffffffffffff163373ffffffffffffffffffffffffffffffffffffffff161461067657600080fd5b60008190508073ffffffffffffffffffffffffffffffffffffffff166373656f896040518163ffffffff1660e01b81526004016020604051808303816000875af11580156106c8573d6000803e3d6000fd5b505050506040513d601f19601f820116820180604052508101906106ec9190611966565b505050565b60008054906101000a900473ffffffffffffffffffffffffffffffffffffffff1673ffffffffffffffffffffffffffffffffffffffff163373ffffffffffffffffffffffffffffffffffffffff161461074957600080fd5b60008290508073ffffffffffffffffffffffffffffffffffffffff16632a9a0323836040518263ffffffff1660e01b8152600401610787919061111a565b6020604051808303816000875af11580156107a6573d6000803e3d6000fd5b505050506040513d601f19601f820116820180604052508101906107ca9190611966565b50505050565b60008054906101000a900473ffffffffffffffffffffffffffffffffffffffff1673ffffffffffffffffffffffffffffffffffffffff163373ffffffffffffffffffffffffffffffffffffffff161461082857600080fd5b60008590508073ffffffffffffffffffffffffffffffffffffffff1663f885a4bb868686866040518563ffffffff1660e01b815260040161086c9493929190611b0f565b600060405180830381600087803b15801561088657600080fd5b505af115801561089a573d6000803e3d6000fd5b50505050505050505050565b60008054906101000a900473ffffffffffffffffffffffffffffffffffffffff1681565b60008054906101000a900473ffffffffffffffffffffffffffffffffffffffff1673ffffffffffffffffffffffffffffffffffffffff163373ffffffffffffffffffffffffffffffffffffffff161461092257600080fd5b60008290508073ffffffffffffffffffffffffffffffffffffffff1663e01af92c836040518263ffffffff1660e01b815260040161096091906116af565b600060405180830381600087803b15801561097a57600080fd5b505af115801561098e573d6000803e3d6000fd5b50505050505050565b60008054906101000a900473ffffffffffffffffffffffffffffffffffffffff1673ffffffffffffffffffffffffffffffffffffffff163373ffffffffffffffffffffffffffffffffffffffff16146109ef57600080fd5b60008290508073ffffffffffffffffffffffffffffffffffffffff1663de3d2b2d836040518263ffffffff1660e01b8152600401610a2d91906116af565b600060405180830381600087803b158015610a4757600080fd5b505af1158015610a5b573d6000803e3d6000fd5b50505050505050565b60016020528060005260406000206000915054906101000a900460ff1681565b60008054906101000a900473ffffffffffffffffffffffffffffffffffffffff1673ffffffffffffffffffffffffffffffffffffffff163373ffffffffffffffffffffffffffffffffffffffff1614610adc57600080fd5b60008590508073ffffffffffffffffffffffffffffffffffffffff1663b62c1f06868686866040518563ffffffff1660e01b8152600401610b209493929190611b70565b600060405180830381600087803b158015610b3a57600080fd5b505af1158015610b4e573d6000803e3d6000fd5b50505050505050505050565b60008054906101000a900473ffffffffffffffffffffffffffffffffffffffff1673ffffffffffffffffffffffffffffffffffffffff163373ffffffffffffffffffffffffffffffffffffffff1614610bb257600080fd5b60008290508073ffffffffffffffffffffffffffffffffffffffff166381788e2b836040518263ffffffff1660e01b8152600401610bf09190611685565b600060405180830381600087803b158015610c0a57600080fd5b505af1158015610c1e573d6000803e3d6000fd5b50505050505050565b60008054906101000a900473ffffffffffffffffffffffffffffffffffffffff1673ffffffffffffffffffffffffffffffffffffffff163373ffffffffffffffffffffffffffffffffffffffff1614610c7f57600080fd5b60018060008373ffffffffffffffffffffffffffffffffffffffff1673ffffffffffffffffffffffffffffffffffffffff16815260200190815260200160002060006101000a81548160ff02191690831515021790555050565b60008054906101000a900473ffffffffffffffffffffffffffffffffffffffff1673ffffffffffffffffffffffffffffffffffffffff163373ffffffffffffffffffffffffffffffffffffffff1614610d3157600080fd5b60008590508073ffffffffffffffffffffffffffffffffffffffff1663819c70f3868686866040518563ffffffff1660e01b8152600401610d759493929190611bb5565b600060405180830381600087803b158015610d8f57600080fd5b505af1158015610da3573d6000803e3d6000fd5b50505050505050505050565b60008054906101000a900473ffffffffffffffffffffffffffffffffffffffff1673ffffffffffffffffffffffffffffffffffffffff163373ffffffffffffffffffffffffffffffffffffffff1614610e0757600080fd5b60008490508073ffffffffffffffffffffffffffffffffffffffff166397bb15c98585856040518463ffffffff1660e01b8152600401610e4993929190611c08565b600060405180830381600087803b158015610e6357600080fd5b505af1158015610e77573d6000803e3d6000fd5b505050505050505050565b60008054906101000a900473ffffffffffffffffffffffffffffffffffffffff1673ffffffffffffffffffffffffffffffffffffffff163373ffffffffffffffffffffffffffffffffffffffff1614610eda57600080fd5b60008290508073ffffffffffffffffffffffffffffffffffffffff16633c9d93b8836040518263ffffffff1660e01b8152600401610f189190611685565b600060405180830381600087803b158015610f3257600080fd5b505af1158015610f46573d6000803e3d6000fd5b50505050505050565b60008054906101000a900473ffffffffffffffffffffffffffffffffffffffff1673ffffffffffffffffffffffffffffffffffffffff163373ffffffffffffffffffffffffffffffffffffffff1614610fa757600080fd5b806000806101000a81548173ffffffffffffffffffffffffffffffffffffffff021916908373ffffffffffffffffffffffffffffffffffffffff16021790555050565b60008054906101000a900473ffffffffffffffffffffffffffffffffffffffff1673ffffffffffffffffffffffffffffffffffffffff163373ffffffffffffffffffffffffffffffffffffffff161461104257600080fd5b80600360008473ffffffffffffffffffffffffffffffffffffffff1673ffffffffffffffffffffffffffffffffffffffff168152602001908152602001600020819055505050565b6000604051905090565b600080fd5b600080fd5b6000819050919050565b6110b18161109e565b81146110bc57600080fd5b50565b6000813590506110ce816110a8565b92915050565b6000602082840312156110ea576110e9611094565b5b60006110f8848285016110bf565b91505092915050565b6000819050919050565b61111481611101565b82525050565b600060208201905061112f600083018461110b565b92915050565b600073ffffffffffffffffffffffffffffffffffffffff82169050919050565b600061116082611135565b9050919050565b61117081611155565b811461117b57600080fd5b50565b60008135905061118d81611167565b92915050565b600061119e82611155565b9050919050565b6111ae81611193565b81146111b957600080fd5b50565b6000813590506111cb816111a5565b92915050565b6111da81611101565b81146111e557600080fd5b50565b6000813590506111f7816111d1565b92915050565b60008060008060008060c0878903121561121a57611219611094565b5b600061122889828a0161117e565b965050602061123989828a016111bc565b955050604061124a89828a0161117e565b945050606061125b89828a016111e8565b935050608061126c89828a016111e8565b92505060a061127d89828a0161117e565b9150509295509295509295565b6000602082840312156112a05761129f611094565b5b60006112ae8482850161117e565b91505092915050565b60008115159050919050565b6112cc816112b7565b81146112d757600080fd5b50565b6000813590506112e9816112c3565b92915050565b6000806040838503121561130657611305611094565b5b60006113148582860161117e565b9250506020611325858286016112da565b9150509250929050565b6000806040838503121561134657611345611094565b5b60006113548582860161117e565b9250506020611365858286016111e8565b9150509250929050565b600080fd5b6000601f19601f8301169050919050565b7f4e487b7100000000000000000000000000000000000000000000000000000000600052604160045260246000fd5b6113bd82611374565b810181811067ffffffffffffffff821117156113dc576113db611385565b5b80604052505050565b60006113ef61108a565b90506113fb82826113b4565b919050565b600067ffffffffffffffff82111561141b5761141a611385565b5b602082029050602081019050919050565b600080fd5b600061144461143f84611400565b6113e5565b905080838252602082019050602084028301858111156114675761146661142c565b5b835b81811015611490578061147c88826111bc565b845260208401935050602081019050611469565b5050509392505050565b600082601f8301126114af576114ae61136f565b5b81356114bf848260208601611431565b91505092915050565b600067ffffffffffffffff8211156114e3576114e2611385565b5b602082029050602081019050919050565b6000611507611502846114c8565b6113e5565b9050808382526020820190506020840283018581111561152a5761152961142c565b5b835b81811015611553578061153f88826111e8565b84526020840193505060208101905061152c565b5050509392505050565b600082601f8301126115725761157161136f565b5b81356115828482602086016114f4565b91505092915050565b600080600080600060a086880312156115a7576115a6611094565b5b60006115b58882890161117e565b955050602086013567ffffffffffffffff8111156115d6576115d5611099565b5b6115e28882890161149a565b945050604086013567ffffffffffffffff81111561160357611602611099565b5b61160f8882890161155d565b935050606086013567ffffffffffffffff8111156116305761162f611099565b5b61163c8882890161155d565b925050608086013567ffffffffffffffff81111561165d5761165c611099565b5b6116698882890161155d565b9150509295509295909350565b61167f81611155565b82525050565b600060208201905061169a6000830184611676565b92915050565b6116a9816112b7565b82525050565b60006020820190506116c460008301846116a0565b92915050565b600080600080600060a086880312156116e6576116e5611094565b5b60006116f48882890161117e565b9550506020611705888289016111e8565b9450506040611716888289016111e8565b9350506060611727888289016111e8565b9250506080611738888289016111e8565b9150509295509295909350565b6000806040838503121561175c5761175b611094565b5b600061176a8582860161117e565b925050602061177b8582860161117e565b9150509250929050565b600080600080600060a086880312156117a1576117a0611094565b5b60006117af8882890161117e565b95505060206117c0888289016111e8565b94505060406117d1888289016111e8565b935050606086013567ffffffffffffffff8111156117f2576117f1611099565b5b6117fe8882890161149a565b925050608086013567ffffffffffffffff81111561181f5761181e611099565b5b61182b8882890161155d565b9150509295509295909350565b6000806000806080858703121561185257611851611094565b5b60006118608782880161117e565b9450506020611871878288016111bc565b9350506040611882878288016111e8565b92505060606118938782880161117e565b91505092959194509250565b6000819050919050565b60006118c46118bf6118ba84611135565b61189f565b611135565b9050919050565b60006118d6826118a9565b9050919050565b60006118e8826118cb565b9050919050565b6118f8816118dd565b82525050565b600060a08201905061191360008301886118ef565b6119206020830187611676565b61192d604083018661110b565b61193a606083018561110b565b6119476080830184611676565b9695505050505050565b600081519050611960816111d1565b92915050565b60006020828403121561197c5761197b611094565b5b600061198a84828501611951565b91505092915050565b600081519050919050565b600082825260208201905092915050565b6000819050602082019050919050565b6119c8816118dd565b82525050565b60006119da83836119bf565b60208301905092915050565b6000602082019050919050565b60006119fe82611993565b611a08818561199e565b9350611a13836119af565b8060005b83811015611a44578151611a2b88826119ce565b9750611a36836119e6565b925050600181019050611a17565b5085935050505092915050565b600081519050919050565b600082825260208201905092915050565b6000819050602082019050919050565b611a8681611101565b82525050565b6000611a988383611a7d565b60208301905092915050565b6000602082019050919050565b6000611abc82611a51565b611ac68185611a5c565b9350611ad183611a6d565b8060005b83811015611b02578151611ae98882611a8c565b9750611af483611aa4565b925050600181019050611ad5565b5085935050505092915050565b60006080820190508181036000830152611b2981876119f3565b90508181036020830152611b3d8186611ab1565b90508181036040830152611b518185611ab1565b90508181036060830152611b658184611ab1565b905095945050505050565b6000608082019050611b85600083018761110b565b611b92602083018661110b565b611b9f604083018561110b565b611bac606083018461110b565b95945050505050565b6000608082019050611bca600083018761110b565b611bd7602083018661110b565b8181036040830152611be981856119f3565b90508181036060830152611bfd8184611ab1565b905095945050505050565b6000606082019050611c1d60008301866118ef565b611c2a602083018561110b565b611c376040830184611676565b94935050505056fea26469706673582212202a384bcbe634c4191a89bebfed2e6048c8284322760c9ad976528573256cd40464736f6c63430008110033",
  "immutableReferences": {},
  "source": "// SPDX-License-Identifier: MIT\n\npragma solidity ^0.8.17;\n\nimport \"./base/BaseController.sol\";\n\ncontract ReserveRatioController is BaseController {\n\n    // Minimum reserve ratio\n    uint defaultMinRatio;\n    \n    constructor(uint _defaultMinRatio, address _vaultAddress) BaseController(_vaultAddress)\n    {\n        defaultMinRatio = _defaultMinRatio;\n    }\n\n    // Managed Pools\n    mapping(address => uint) public reserveRatio; // MP Address and its Reserve Ratio\n\n\n    // Checks if the ratio is breached and transfers as necessary\n    function runCheck(bytes32 _poolId) public view restricted returns(uint)\n    {\n        // Retrieve balance for pool\n        // Get bpt balance from vault\n        // Calculate reserve requirement as deposits * rr\n        // If this is higher than reserve, transfer difference\n        return 1;\n    }\n\n    function setReserveRatio(address _poolAddress, uint _ratio) public restricted {\n        reserveRatio[_poolAddress] = _ratio;\n    }\n\n    function getManagedPoolRatio(address _poolAddress) public view returns (uint) {\n        return reserveRatio[_poolAddress];\n    }\n}\n",
  "sourcePath": "/home/eagle/Source/Balancer.Controller/contracts/ReserveRatioController.sol",
  "compiler": {
    "name": "solc",
    "version": "0.8.17+commit.8df45f5f.Emscripten.clang"
  },
  "schemaVersion": "3.4.11",
  "updatedAt": "2023-02-24T15:36:07.724Z",
  "devdoc": {
    "kind": "dev",
    "methods": {},
    "version": 1
  },
  "userdoc": {
    "kind": "user",
    "methods": {},
    "version": 1
  }
}