{
  "contractName": "ReserveController",
  "abi": [
    {
      "inputs": [
        {
          "internalType": "address",
          "name": "vaultAddress",
          "type": "address"
        },
        {
          "internalType": "address",
          "name": "supportedManagedPoolFactory",
          "type": "address"
        }
      ],
      "stateMutability": "nonpayable",
      "type": "constructor"
    },
    {
      "anonymous": false,
      "inputs": [
        {
          "indexed": true,
          "internalType": "address",
          "name": "buyer",
          "type": "address"
        },
        {
          "indexed": true,
          "internalType": "address",
          "name": "tokenIn",
          "type": "address"
        },
        {
          "indexed": false,
          "internalType": "uint256",
          "name": "amountIn",
          "type": "uint256"
        },
        {
          "indexed": false,
          "internalType": "uint256",
          "name": "reserveTokenOut",
          "type": "uint256"
        }
      ],
      "name": "BoughtReserveToken",
      "type": "event"
    },
    {
      "anonymous": false,
      "inputs": [
        {
          "indexed": false,
          "internalType": "address",
          "name": "account",
          "type": "address"
        }
      ],
      "name": "Paused",
      "type": "event"
    },
    {
      "anonymous": false,
      "inputs": [
        {
          "indexed": true,
          "internalType": "address",
          "name": "seller",
          "type": "address"
        },
        {
          "indexed": true,
          "internalType": "address",
          "name": "pool",
          "type": "address"
        },
        {
          "indexed": false,
          "internalType": "uint256",
          "name": "amountIn",
          "type": "uint256"
        },
        {
          "indexed": false,
          "internalType": "uint256",
          "name": "bptOut",
          "type": "uint256"
        }
      ],
      "name": "SoldReserveToken",
      "type": "event"
    },
    {
      "anonymous": false,
      "inputs": [
        {
          "indexed": false,
          "internalType": "address",
          "name": "account",
          "type": "address"
        }
      ],
      "name": "Unpaused",
      "type": "event"
    },
    {
      "inputs": [
        {
          "internalType": "address",
          "name": "manager",
          "type": "address"
        }
      ],
      "name": "addManager",
      "outputs": [],
      "stateMutability": "nonpayable",
      "type": "function"
    },
    {
      "inputs": [
        {
          "internalType": "address",
          "name": "poolAddress",
          "type": "address"
        }
      ],
      "name": "calculateBalancing",
      "outputs": [
        {
          "components": [
            {
              "components": [
                {
                  "internalType": "contract IAsset[]",
                  "name": "assets",
                  "type": "address[]"
                },
                {
                  "internalType": "uint256[]",
                  "name": "minAmountsOut",
                  "type": "uint256[]"
                },
                {
                  "internalType": "bytes",
                  "name": "userData",
                  "type": "bytes"
                },
                {
                  "internalType": "bool",
                  "name": "toInternalBalance",
                  "type": "bool"
                }
              ],
              "internalType": "struct IVault.ExitPoolRequest",
              "name": "newExitRequest",
              "type": "tuple"
            },
            {
              "components": [
                {
                  "internalType": "contract IAsset[]",
                  "name": "assets",
                  "type": "address[]"
                },
                {
                  "internalType": "uint256[]",
                  "name": "maxAmountsIn",
                  "type": "uint256[]"
                },
                {
                  "internalType": "bytes",
                  "name": "userData",
                  "type": "bytes"
                },
                {
                  "internalType": "bool",
                  "name": "fromInternalBalance",
                  "type": "bool"
                }
              ],
              "internalType": "struct IVault.JoinPoolRequest",
              "name": "newJoinRequest",
              "type": "tuple"
            },
            {
              "internalType": "uint256",
              "name": "poolTolerance",
              "type": "uint256"
            }
          ],
          "internalType": "struct PoolAdjustments",
          "name": "",
          "type": "tuple"
        }
      ],
      "stateMutability": "nonpayable",
      "type": "function"
    },
    {
      "inputs": [
        {
          "internalType": "address",
          "name": "tokenAddress",
          "type": "address"
        }
      ],
      "name": "getTokenPrice",
      "outputs": [
        {
          "internalType": "int256",
          "name": "",
          "type": "int256"
        }
      ],
      "stateMutability": "view",
      "type": "function",
      "constant": true
    },
    {
      "inputs": [
        {
          "internalType": "address",
          "name": "",
          "type": "address"
        }
      ],
      "name": "isManager",
      "outputs": [
        {
          "internalType": "bool",
          "name": "",
          "type": "bool"
        }
      ],
      "stateMutability": "view",
      "type": "function",
      "constant": true
    },
    {
      "inputs": [
        {
          "internalType": "address",
          "name": "",
          "type": "address"
        }
      ],
      "name": "managedPools",
      "outputs": [
        {
          "internalType": "string",
          "name": "poolName",
          "type": "string"
        },
        {
          "internalType": "string",
          "name": "poolSymbol",
          "type": "string"
        },
        {
          "internalType": "uint256",
          "name": "tolerance",
          "type": "uint256"
        }
      ],
      "stateMutability": "view",
      "type": "function",
      "constant": true
    },
    {
      "inputs": [],
      "name": "pause",
      "outputs": [],
      "stateMutability": "nonpayable",
      "type": "function"
    },
    {
      "inputs": [],
      "name": "paused",
      "outputs": [
        {
          "internalType": "bool",
          "name": "",
          "type": "bool"
        }
      ],
      "stateMutability": "view",
      "type": "function",
      "constant": true
    },
    {
      "inputs": [
        {
          "internalType": "address",
          "name": "manager",
          "type": "address"
        }
      ],
      "name": "removeManager",
      "outputs": [],
      "stateMutability": "nonpayable",
      "type": "function"
    },
    {
      "inputs": [
        {
          "internalType": "address",
          "name": "poolAddress",
          "type": "address"
        }
      ],
      "name": "setReferencePool",
      "outputs": [],
      "stateMutability": "nonpayable",
      "type": "function"
    },
    {
      "inputs": [
        {
          "internalType": "address",
          "name": "stableToken",
          "type": "address"
        }
      ],
      "name": "setStableToken",
      "outputs": [],
      "stateMutability": "nonpayable",
      "type": "function"
    },
    {
      "inputs": [
        {
          "internalType": "address",
          "name": "token",
          "type": "address"
        },
        {
          "internalType": "address",
          "name": "feed",
          "type": "address"
        }
      ],
      "name": "setTokenFeed",
      "outputs": [],
      "stateMutability": "nonpayable",
      "type": "function"
    },
    {
      "inputs": [
        {
          "internalType": "address",
          "name": "",
          "type": "address"
        }
      ],
      "name": "tokenFeeds",
      "outputs": [
        {
          "internalType": "address",
          "name": "",
          "type": "address"
        }
      ],
      "stateMutability": "view",
      "type": "function",
      "constant": true
    },
    {
      "inputs": [],
      "name": "unpause",
      "outputs": [],
      "stateMutability": "nonpayable",
      "type": "function"
    },
    {
      "inputs": [],
      "name": "getRegisteredPools",
      "outputs": [
        {
          "internalType": "address[]",
          "name": "",
          "type": "address[]"
        }
      ],
      "stateMutability": "view",
      "type": "function",
      "constant": true
    },
    {
      "inputs": [
        {
          "internalType": "address",
          "name": "managedPool",
          "type": "address"
        }
      ],
      "name": "registerManagedPool",
      "outputs": [],
      "stateMutability": "nonpayable",
      "type": "function"
    },
    {
      "inputs": [
        {
          "internalType": "address",
          "name": "managedPool",
          "type": "address"
        }
      ],
      "name": "deRegisterManagedPool",
      "outputs": [],
      "stateMutability": "nonpayable",
      "type": "function"
    },
    {
      "inputs": [
        {
          "internalType": "address",
          "name": "tokenIn",
          "type": "address"
        },
        {
          "internalType": "uint256",
          "name": "amountIn",
          "type": "uint256"
        },
        {
          "internalType": "address",
          "name": "recipient",
          "type": "address"
        }
      ],
      "name": "buyReserveToken",
      "outputs": [],
      "stateMutability": "nonpayable",
      "type": "function"
    },
    {
      "inputs": [
        {
          "internalType": "address",
          "name": "pool",
          "type": "address"
        },
        {
          "internalType": "uint256",
          "name": "amountIn",
          "type": "uint256"
        },
        {
          "internalType": "address",
          "name": "recipient",
          "type": "address"
        }
      ],
      "name": "sellReserveToken",
      "outputs": [],
      "stateMutability": "nonpayable",
      "type": "function"
    }
  ],
  "bytecode": "0x60c0604052600780546001600160a01b0319908116735772a773b3779b373bf11d1070f39569f50d37d3179091556008805490911673ef4229c8c3250c675f21bcefa42f58efbff6002a1790553480156200005957600080fd5b5060405162002ccb38038062002ccb8339810160408190526200007c9162000269565b60016000818155815460ff1990811683556001600160601b0319606095861b81166080523383526003602090815260408420805490931690941790915560049092527f4f03f9165518d56b1edfdd10086a224460eb561524700361535e7e33be96dcdb80546001600160a01b031990811673128fe88eaa22bffb868bb3a584a54c96ee24014b179091557f7c0f9c8dca1139a9f62829fbc69c87f447f6c9d58f7b4cca1418da9c87a8886180548216730568fd19986748ceff3301e55c0eb1e729e0ab7e1790557f5bb005e3c44990943f9b77709d1ca1ed9bc660cfbf374a504a6d191a3edaa5c380548216731fcd30a73d67639c1cd89ff5746e7585731c083b1790557f47691a5a6d629e9672ee2df080468d466c301da2a465fe573fd65a3c84d15c8a80548216733d207061dbe8e2473527611bfecb87ff12b28dda1790557fdeddb9e6b2d07a6e07e891c0bf84c802545673dccadf7dfa9df5ab9b45c998c88054821673c7a353bae210aed958a1a2928b654938ec59dab290811790915573765de816845861e75a25fca122bb6898b8b1282a9092527f111782fcfedc149ae0e36a4b3c73c65d2ec6beb9ec22baa78847f872ce963ec880549091169091179055911b1660a052620002a0565b80516001600160a01b03811681146200026457600080fd5b919050565b600080604083850312156200027c578182fd5b62000287836200024c565b915062000297602084016200024c565b90509250929050565b60805160601c60a05160601c6129f4620002d76000396000505060008181610aa201528181610b4a0152611ce901526129f46000f3fe608060405234801561001057600080fd5b50600436106101165760003560e01c80638456cb59116100a2578063d02641a011610071578063d02641a014610227578063d22320e214610247578063d87ac65f1461025a578063db1bc87b1461027a578063f3ae24151461028d57610116565b80638456cb59146101e657806387ef019a146101ee57806395994ef714610201578063ac18de431461021457610116565b806347958851116100e9578063479588511461015e5780634fed9acd146101715780635c975abb1461019a578063659d4f5c146101af5780637b35a88f146101c457610116565b8063041ead601461011b5780631b439d69146101305780632d06177a146101435780633f4ba83a14610156575b600080fd5b61012e6101293660046121af565b6102a0565b005b61012e61013e366004612203565b61033f565b61012e6101513660046121af565b6105e2565b61012e610694565b61012e61016c366004612203565b6106cd565b61018461017f3660046121af565b610955565b60405161019191906127f0565b60405180910390f35b6101a2611728565b6040516101919190612591565b6101b7611731565b6040516101919190612544565b6101d76101d23660046121af565b611793565b604051610191939291906125a5565b61012e6118c5565b61012e6101fc3660046121cb565b6118fc565b61012e61020f3660046121af565b611959565b61012e6102223660046121af565b6119aa565b61023a6102353660046121af565b611a32565b604051610191919061259c565b61012e6102553660046121af565b611af2565b61026d6102683660046121af565b611b4b565b60405161019191906124f3565b61012e6102883660046121af565b611b66565b6101a261029b3660046121af565b611bb7565b3360009081526003602052604090205460ff166102d85760405162461bcd60e51b81526004016102cf9061265c565b60405180910390fd5b6009805460018181019092557f6e1540171b6c0c960b71a7020d9f60077f6af931a8bbf590da0223dacf75c7af0180546001600160a01b039093166001600160a01b0319909316831790556000918252600a6020526040909120805460ff19169091179055565b610347611bcc565b6001600160a01b0383166000908152600a6020526040902054839060ff166103815760405162461bcd60e51b81526004016102cf90612755565b60008490506000816001600160a01b03166318160ddd6040518163ffffffff1660e01b815260040160206040518083038186803b1580156103c157600080fd5b505afa1580156103d5573d6000803e3d6000fd5b505050506040513d601f19601f820116820180604052508101906103f9919061236b565b90506000811161041b5760405162461bcd60e51b81526004016102cf906126e7565b60006104398261043388670de0b6b3a7640000611bf6565b90611c09565b90506000610453670de0b6b3a76400006104338486611bf6565b6040516323b872dd60e01b81529091507398a90ecfb163d138ec289d05362f20613a0c02ac9081906323b872dd9061049390339030908d90600401612507565b602060405180830381600087803b1580156104ad57600080fd5b505af11580156104c1573d6000803e3d6000fd5b505050506040513d601f19601f820116820180604052508101906104e5919061234b565b6105015760405162461bcd60e51b81526004016102cf906126b0565b60405163a9059cbb60e01b81526001600160a01b0386169063a9059cbb9061052f908a90869060040161252b565b602060405180830381600087803b15801561054957600080fd5b505af115801561055d573d6000803e3d6000fd5b505050506040513d601f19601f82011682018060405250810190610581919061234b565b50886001600160a01b0316336001600160a01b03167ff491fcefb4023b6cb463c4cc77af1ae0708ff8398b275985f0c6fc6cdd10212b8a856040516105c7929190612840565b60405180910390a35050505050506105dd611c15565b505050565b3360009081526003602052604090205460ff166106115760405162461bcd60e51b81526004016102cf9061265c565b6001600160a01b0381166106375760405162461bcd60e51b81526004016102cf90612609565b6001600160a01b03811660009081526003602052604090205460ff16156106705760405162461bcd60e51b81526004016102cf9061271e565b6001600160a01b03166000908152600360205260409020805460ff19166001179055565b3360009081526003602052604090205460ff166106c35760405162461bcd60e51b81526004016102cf9061265c565b6106cb611c1c565b565b6106d5611bcc565b6001600160a01b0383166000908152600a6020526040902054839060ff1661070f5760405162461bcd60e51b81526004016102cf90612755565b600084905060008590506000816001600160a01b03166318160ddd6040518163ffffffff1660e01b815260040160206040518083038186803b15801561075457600080fd5b505afa158015610768573d6000803e3d6000fd5b505050506040513d601f19601f8201168201806040525081019061078c919061236b565b9050600081116107ae5760405162461bcd60e51b81526004016102cf906126e7565b60006107c68261043389670de0b6b3a7640000611bf6565b905060006107d385611c6e565b905060006107ed670de0b6b3a76400006104338585611bf6565b6040516323b872dd60e01b81529091506001600160a01b038616906323b872dd9061082090339030908e90600401612507565b602060405180830381600087803b15801561083a57600080fd5b505af115801561084e573d6000803e3d6000fd5b505050506040513d601f19601f82011682018060405250810190610872919061234b565b61088e5760405162461bcd60e51b81526004016102cf906126b0565b6040516340c10f1960e01b81527398a90ecfb163d138ec289d05362f20613a0c02ac906340c10f19906108c7908b90859060040161252b565b600060405180830381600087803b1580156108e157600080fd5b505af11580156108f5573d6000803e3d6000fd5b50505050896001600160a01b0316336001600160a01b03167f38dc357237572032f449d87124548f6e841fb06afa2174884d80d85a06fd3b048b8460405161093e929190612840565b60405180910390a3505050505050506105dd611c15565b61095d612095565b3360009081526003602052604090205460ff1661098c5760405162461bcd60e51b81526004016102cf9061265c565b610994611e47565b60008290506000816001600160a01b03166338fff2d06040518163ffffffff1660e01b815260040160206040518083038186803b1580156109d457600080fd5b505afa1580156109e8573d6000803e3d6000fd5b505050506040513d601f19601f82011682018060405250810190610a0c919061236b565b90506000600760009054906101000a90046001600160a01b031690506000816001600160a01b03166338fff2d06040518163ffffffff1660e01b815260040160206040518083038186803b158015610a6357600080fd5b505afa158015610a77573d6000803e3d6000fd5b505050506040513d601f19601f82011682018060405250810190610a9b919061236b565b90506000807f00000000000000000000000000000000000000000000000000000000000000006001600160a01b031663f94d4668866040518263ffffffff1660e01b8152600401610aec919061259c565b60006040518083038186803b158015610b0457600080fd5b505afa158015610b18573d6000803e3d6000fd5b505050506040513d6000823e601f3d908101601f19168201604052610b409190810190612244565b50915091506000807f00000000000000000000000000000000000000000000000000000000000000006001600160a01b031663f94d4668866040518263ffffffff1660e01b8152600401610b94919061259c565b60006040518083038186803b158015610bac57600080fd5b505afa158015610bc0573d6000803e3d6000fd5b505050506040513d6000823e601f3d908101601f19168201604052610be89190810190612244565b5091509150610bf56120c2565b866001600160a01b031663f89f27ed6040518163ffffffff1660e01b815260040160006040518083038186803b158015610c2e57600080fd5b505afa158015610c42573d6000803e3d6000fd5b505050506040513d6000823e601f3d908101601f19168201604052610c6a9190810190612310565b8152845167ffffffffffffffff811115610c9457634e487b7160e01b600052604160045260246000fd5b604051908082528060200260200182016040528015610cbd578160200160208202803683370190505b506040820152825167ffffffffffffffff811115610ceb57634e487b7160e01b600052604160045260246000fd5b604051908082528060200260200182016040528015610d14578160200160208202803683370190505b506060820152845167ffffffffffffffff811115610d4257634e487b7160e01b600052604160045260246000fd5b604051908082528060200260200182016040528015610d6b578160200160208202803683370190505b506020820152825167ffffffffffffffff811115610d9957634e487b7160e01b600052604160045260246000fd5b604051908082528060200260200182016040528015610dc2578160200160208202803683370190505b5060c082015260005b8551811015610e4557610e04868281518110610df757634e487b7160e01b600052603260045260246000fd5b6020026020010151611a32565b82604001518281518110610e2857634e487b7160e01b600052603260045260246000fd5b602090810291909101015280610e3d81612945565b915050610dcb565b5060005b8351811015610eb657610e75848281518110610df757634e487b7160e01b600052603260045260246000fd5b82606001518281518110610e9957634e487b7160e01b600052603260045260246000fd5b602090810291909101015280610eae81612945565b915050610e49565b5060005b83518110156112a55760085484516001600160a01b0390911690859083908110610ef457634e487b7160e01b600052603260045260246000fd5b60200260200101516001600160a01b03161461117257825160019081908190600090879086908110610f3657634e487b7160e01b600052603260045260246000fd5b6020026020010151111561101d57610fa985600001518581518110610f6b57634e487b7160e01b600052603260045260246000fd5b6020026020010151878681518110610f9357634e487b7160e01b600052603260045260246000fd5b6020026020010151611bf690919063ffffffff16565b915061100e8560000151600281518110610fd357634e487b7160e01b600052603260045260246000fd5b6020026020010151611008670de0b6b3a764000089600281518110610f9357634e487b7160e01b600052603260045260246000fd5b90611bf6565b905061101a8183611c09565b92505b73baab46e28388d2779e6e31fd00cf0e5ad95e327b6001600160a01b031687858151811061105b57634e487b7160e01b600052603260045260246000fd5b60200260200101516001600160a01b031614611087576110806402540be400846128b4565b925061109d565b61109a68056bc75e2d63100000846128b4565b92505b82600560008987815181106110c257634e487b7160e01b600052603260045260246000fd5b60200260200101516001600160a01b03166001600160a01b03168152602001908152602001600020819055508460600151848151811061111257634e487b7160e01b600052603260045260246000fd5b60200260200101516006600089878151811061113e57634e487b7160e01b600052603260045260246000fd5b60200260200101516001600160a01b03166001600160a01b0316815260200190815260200160002081905550505050611217565b60016005600086848151811061119857634e487b7160e01b600052603260045260246000fd5b60200260200101516001600160a01b03166001600160a01b03168152602001908152602001600020819055506001600660008684815181106111ea57634e487b7160e01b600052603260045260246000fd5b60200260200101516001600160a01b03166001600160a01b03168152602001908152602001600020819055505b6005600085838151811061123b57634e487b7160e01b600052603260045260246000fd5b60200260200101516001600160a01b03166001600160a01b03168152602001908152602001600020548260c00151828151811061128857634e487b7160e01b600052603260045260246000fd5b60209081029190910101528061129d81612945565b915050610eba565b5060015b855181101561145557600560008783815181106112d657634e487b7160e01b600052603260045260246000fd5b60200260200101516001600160a01b03166001600160a01b03168152602001908152602001600020548260400151828151811061132357634e487b7160e01b600052603260045260246000fd5b602002602001015110611410576113db6005600088848151811061135757634e487b7160e01b600052603260045260246000fd5b60200260200101516001600160a01b03166001600160a01b0316815260200190815260200160002054600660008985815181106113a457634e487b7160e01b600052603260045260246000fd5b60200260200101516001600160a01b03166001600160a01b0316815260200190815260200160002054611e6c90919063ffffffff16565b826020015182815181106113ff57634e487b7160e01b600052603260045260246000fd5b602002602001018181525050611443565b60008260200151828151811061143657634e487b7160e01b600052603260045260246000fd5b6020026020010181815250505b8061144d81612945565b9150506112a9565b50845167ffffffffffffffff81111561147e57634e487b7160e01b600052604160045260246000fd5b6040519080825280602002602001820160405280156114a7578160200160208202803683370190505b506080820152845167ffffffffffffffff8111156114d557634e487b7160e01b600052604160045260246000fd5b6040519080825280602002602001820160405280156114fe578160200160208202803683370190505b5060a082015261150c612095565b6001600160a01b038c166000908152600260208190526040808320909101549083015280805b885181101561168a5783604001518560200151828151811061156457634e487b7160e01b600052603260045260246000fd5b6020026020010151126115d75761159e606461043386604001518b8581518110610f9357634e487b7160e01b600052603260045260246000fd5b8560a0015182815181106115c257634e487b7160e01b600052603260045260246000fd5b60200260200101818152505060019150611678565b83604001516115e590612960565b8560200151828151811061160957634e487b7160e01b600052603260045260246000fd5b60200260200101511361167857611643606461043386604001518b8581518110610f9357634e487b7160e01b600052603260045260246000fd5b8560800151828151811061166757634e487b7160e01b600052603260045260246000fd5b602002602001018181525050600192505b8061168281612945565b915050611532565b50600061169689611e78565b905081156116d5576040805160808101825282815260a08701516020808301919091528251908101835260008152918101919091526001606082015284525b821561171357604080516080808201835283825287015160208083019190915282518082018452600081529282019290925260016060820152908501525b50919b5050505050505050505050505b919050565b60015460ff1690565b6060600980548060200260200160405190810160405280929190818152602001828054801561178957602002820191906000526020600020905b81546001600160a01b0316815260019091019060200180831161176b575b5050505050905090565b6002602052600090815260409020805481906117ae9061290a565b80601f01602080910402602001604051908101604052809291908181526020018280546117da9061290a565b80156118275780601f106117fc57610100808354040283529160200191611827565b820191906000526020600020905b81548152906001019060200180831161180a57829003601f168201915b50505050509080600101805461183c9061290a565b80601f01602080910402602001604051908101604052809291908181526020018280546118689061290a565b80156118b55780601f1061188a576101008083540402835291602001916118b5565b820191906000526020600020905b81548152906001019060200180831161189857829003601f168201915b5050505050908060020154905083565b3360009081526003602052604090205460ff166118f45760405162461bcd60e51b81526004016102cf9061265c565b6106cb611e7b565b3360009081526003602052604090205460ff1661192b5760405162461bcd60e51b81526004016102cf9061265c565b6001600160a01b03918216600090815260046020526040902080546001600160a01b03191691909216179055565b3360009081526003602052604090205460ff166119885760405162461bcd60e51b81526004016102cf9061265c565b600780546001600160a01b0319166001600160a01b0392909216919091179055565b3360009081526003602052604090205460ff166119d95760405162461bcd60e51b81526004016102cf9061265c565b6001600160a01b03811660009081526003602052604090205460ff16611a115760405162461bcd60e51b81526004016102cf90612782565b6001600160a01b03166000908152600360205260409020805460ff19169055565b6001600160a01b0380821660009081526004602052604081205490911680611a6c5760405162461bcd60e51b81526004016102cf90612683565b60008190506000816001600160a01b031663feaf968c6040518163ffffffff1660e01b815260040160a06040518083038186803b158015611aac57600080fd5b505afa158015611ac0573d6000803e3d6000fd5b505050506040513d601f19601f82011682018060405250810190611ae49190612383565b509198975050505050505050565b3360009081526003602052604090205460ff16611b215760405162461bcd60e51b81526004016102cf9061265c565b611b2a81611eb8565b6001600160a01b03166000908152600a60205260409020805460ff19169055565b6004602052600090815260409020546001600160a01b031681565b3360009081526003602052604090205460ff16611b955760405162461bcd60e51b81526004016102cf9061265c565b600880546001600160a01b0319166001600160a01b0392909216919091179055565b60036020526000908152604090205460ff1681565b60026000541415611bef5760405162461bcd60e51b81526004016102cf906127b9565b6002600055565b6000611c0282846128d4565b9392505050565b6000611c0282846128b4565b6001600055565b611c24611ef0565b6001805460ff191690557f5db9ee0a495bf2e6ff9c91a7834c1ba4fdd244a5e8aa4e537bd38aeae4b073aa611c57611f14565b604051611c6491906124f3565b60405180910390a1565b600080826001600160a01b03166338fff2d06040518163ffffffff1660e01b815260040160206040518083038186803b158015611caa57600080fd5b505afa158015611cbe573d6000803e3d6000fd5b505050506040513d601f19601f82011682018060405250810190611ce2919061236b565b90506000807f00000000000000000000000000000000000000000000000000000000000000006001600160a01b031663f94d4668846040518263ffffffff1660e01b8152600401611d33919061259c565b60006040518083038186803b158015611d4b57600080fd5b505afa158015611d5f573d6000803e3d6000fd5b505050506040513d6000823e601f3d908101601f19168201604052611d879190810190612244565b50915091506000805b8351811015611e3d576000838281518110611dbb57634e487b7160e01b600052603260045260246000fd5b60200260200101511115611e2b576000611dee858381518110610df757634e487b7160e01b600052603260045260246000fd5b9050611e27611e206402540be40061043384888781518110610f9357634e487b7160e01b600052603260045260246000fd5b8490611f18565b9250505b80611e3581612945565b915050611d90565b5095945050505050565b611e4f611728565b156106cb5760405162461bcd60e51b81526004016102cf90612632565b6000611c0282846128f3565b90565b611e83611e47565b6001805460ff1916811790557f62e78cea01bee320cd4e420270b5ea74000d11b0c9f74754ebdbfc544b05a258611c57611f14565b6001600160a01b0381166000908152600a60205260408120805460ff19169055611ee182611f24565b9050611eec81611f9b565b5050565b611ef8611728565b6106cb5760405162461bcd60e51b81526004016102cf906125db565b3390565b6000611c02828461289c565b6000805b600954811015611f9157826001600160a01b031660098281548110611f5d57634e487b7160e01b600052603260045260246000fd5b6000918252602090912001546001600160a01b03161415611f7f579050611723565b80611f8981612945565b915050611f28565b5050600954919050565b600954611faa906001906128f3565b811015612051576009611fbe82600161289c565b81548110611fdc57634e487b7160e01b600052603260045260246000fd5b600091825260209091200154600980546001600160a01b03909216918390811061201657634e487b7160e01b600052603260045260246000fd5b600091825260209091200180546001600160a01b0319166001600160a01b03929092169190911790558061204981612945565b915050611f9b565b600980548061207057634e487b7160e01b600052603160045260246000fd5b600082815260209020810160001990810180546001600160a01b031916905501905550565b60405180606001604052806120a86120ff565b81526020016120b56120ff565b8152602001600081525090565b6040518060e00160405280606081526020016060815260200160608152602001606081526020016060815260200160608152602001606081525090565b60405180608001604052806060815260200160608152602001606081526020016000151581525090565b600082601f830112612139578081fd5b8151602061214e61214983612878565b61284e565b828152818101908583018385028701840188101561216a578586fd5b855b858110156121885781518452928401929084019060010161216c565b5090979650505050505050565b805169ffffffffffffffffffff8116811461172357600080fd5b6000602082840312156121c0578081fd5b8135611c02816129a6565b600080604083850312156121dd578081fd5b82356121e8816129a6565b915060208301356121f8816129a6565b809150509250929050565b600080600060608486031215612217578081fd5b8335612222816129a6565b9250602084013591506040840135612239816129a6565b809150509250925092565b600080600060608486031215612258578283fd5b835167ffffffffffffffff8082111561226f578485fd5b818601915086601f830112612282578485fd5b8151602061229261214983612878565b82815281810190858301838502870184018c10156122ae57898afd5b8996505b848710156122d95780516122c5816129a6565b8352600196909601959183019183016122b2565b50918901519197509093505050808211156122f2578384fd5b506122ff86828701612129565b925050604084015190509250925092565b600060208284031215612321578081fd5b815167ffffffffffffffff811115612337578182fd5b61234384828501612129565b949350505050565b60006020828403121561235c578081fd5b81518015158114611c02578182fd5b60006020828403121561237c578081fd5b5051919050565b600080600080600060a0868803121561239a578081fd5b6123a386612195565b94506020860151935060408601519250606086015191506123c660808701612195565b90509295509295909350565b6000815180845260208085019450808401835b83811015612401578151875295820195908201906001016123e5565b509495945050505050565b15159052565b60008151808452815b818110156124375760208185018101518683018201520161241b565b818111156124485782602083870101525b50601f01601f19169290920160200192915050565b8051608080845281519084018190526000916020919082019060a0860190845b818110156124a25783516001600160a01b03168352928401929184019160010161247d565b5050828501519150858103838701526124bb81836123d2565b92505050604083015184820360408601526124d68282612412565b91505060608301516124eb606086018261240c565b509392505050565b6001600160a01b0391909116815260200190565b6001600160a01b039384168152919092166020820152604081019190915260600190565b6001600160a01b03929092168252602082015260400190565b6020808252825182820181905260009190848201906040850190845b818110156125855783516001600160a01b031683529284019291840191600101612560565b50909695505050505050565b901515815260200190565b90815260200190565b6000606082526125b86060830186612412565b82810360208401526125ca8186612412565b915050826040830152949350505050565b60208082526014908201527314185d5cd8589b194e881b9bdd081c185d5cd95960621b604082015260600190565b6020808252600f908201526e496e76616c6964206164647265737360881b604082015260600190565b60208082526010908201526f14185d5cd8589b194e881c185d5cd95960821b604082015260600190565b6020808252600d908201526c2737ba10309036b0b730b3b2b960991b604082015260600190565b602080825260139082015272151bdad95b881b9bdd081cdd5c1c1bdc9d1959606a1b604082015260600190565b6020808252601f908201527f5472616e73666572206f6620696e70757420746f6b656e73206661696c656400604082015260600190565b60208082526019908201527f496e76616c696420706f6f6c20746f74616c20737570706c7900000000000000604082015260600190565b6020808252601c908201527f4164647265737320697320616c72656164792061206d616e6167657200000000604082015260600190565b602080825260139082015272141bdbdb081b9bdd081c9959da5cdd195c9959606a1b604082015260600190565b60208082526017908201527f416464726573732069736e27742061206d616e61676572000000000000000000604082015260600190565b6020808252601f908201527f5265656e7472616e637947756172643a207265656e7472616e742063616c6c00604082015260600190565b60006020825282516060602084015261280c608084018261245d565b90506020840151601f19848303016040850152612829828261245d565b915050604084015160608401528091505092915050565b918252602082015260400190565b60405181810167ffffffffffffffff8111828210171561287057612870612990565b604052919050565b600067ffffffffffffffff82111561289257612892612990565b5060209081020190565b600082198211156128af576128af61297a565b500190565b6000826128cf57634e487b7160e01b81526012600452602481fd5b500490565b60008160001904831182151516156128ee576128ee61297a565b500290565b6000828210156129055761290561297a565b500390565b60028104600182168061291e57607f821691505b6020821081141561293f57634e487b7160e01b600052602260045260246000fd5b50919050565b60006000198214156129595761295961297a565b5060010190565b6000600160ff1b8214156129765761297661297a565b0390565b634e487b7160e01b600052601160045260246000fd5b634e487b7160e01b600052604160045260246000fd5b6001600160a01b03811681146129bb57600080fd5b5056fea2646970667358221220ca1df2873118bd164d7ee097608e8e7926af8b11132b4bf614a5179ab8c6b19564736f6c63430008000033",
  "immutableReferences": {
    "3695": [
      {
        "length": 32,
        "start": 2722
      },
      {
        "length": 32,
        "start": 2890
      },
      {
        "length": 32,
        "start": 7401
      }
    ]
  },
  "source": "// SPDX-License-Identifier: MIT\n\npragma solidity ^0.8.0;\n\nimport \"./base/BaseUtils.sol\";\nimport \"@balancer-labs/interfaces/contracts/pool-utils/IManagedPool.sol\";\nimport \"@balancer-labs/interfaces/contracts/vault/IVault.sol\";\nimport \"@openzeppelin/contracts/utils/math/SafeMath.sol\";\nimport \"./lib/ManagedPoolFactory.sol\";\nimport \"./lib/ReserveToken.sol\";\n\ncontract ReserveController is BaseUtils {\n    using SafeMath for uint256; // Use SafeMath for uint256\n\n    uint256 private constant DECIMALS = 10 ** 18;\n    address private constant RESERVE_TOKEN = 0x98A90EcFB163d138eC289D05362f20613A0C02aC;\n\n    struct TradeValues {\n        IManagedPool collateral;\n        bytes32 poolId;\n        int [] tokenPrices;\n        uint256 [] normalizedWeights;\n        IERC20 [] tokens;\n        uint256 [] balances;\n        IAsset [] assets;\n    }\n\n    address [] private registeredPools;\n    mapping(address => bool) private registeredPoolsMapping;\n    address internal immutable managedPoolFactory;\n\n    /**\n     * @notice Constructor for the controller base class\n     *\n     * @param vaultAddress - Vault contract address\n     * @param supportedManagedPoolFactory - ManegedPoolFactory address\n     */\n    constructor(address vaultAddress, address supportedManagedPoolFactory)\n    BaseUtils(vaultAddress) {\n        managedPoolFactory = supportedManagedPoolFactory;\n    }\n\n    /**\n     * @notice returns a list of registered pools\n     *\n     */\n    function getRegisteredPools() public view returns (address [] memory) {\n        return registeredPools;\n    }\n\n    /**\n     * @notice Register managed pool\n     *\n     * @param managedPool - Address of pool being worked on.\n     */\n    function registerManagedPool(\n        address managedPool\n    ) public onlyManager {\n        registeredPools.push(managedPool);\n        registeredPoolsMapping[managedPool] = true;\n    }\n\n    /**\n     * @notice Deregister managed pool\n     *\n     * @param managedPool - Address of pool being worked on.\n     */\n    function deRegisterManagedPool(\n        address managedPool\n    ) public onlyManager {\n        removeByValue(managedPool);\n        registeredPoolsMapping[managedPool] = false;\n    }\n\n    /**\n     * @notice This function is used for pools containing two tokens.\n     * It takes in a collateral token such as BPT, calculates an equal\n     * value amount of the reserve token such as G$ then mints and returns it.\n     *\n     * @param tokenIn - Address of collateral token\n     * @param amountIn - The amount being traded\n     * @param recipient - Address of person to receive the reserve tokens\n     */\n    function buyReserveToken(\n        address tokenIn,\n        uint256 amountIn,\n        address recipient\n    )\n        public \n        nonReentrant \n        checkPoolSupported(tokenIn) \n    {\n        IManagedPool collateral = IManagedPool(tokenIn);\n        IERC20 collateralToken = IERC20(tokenIn);\n\n        // Calculate the buyer's share of the pool\n        uint256 totalSupply = collateralToken.totalSupply();\n\n        // Ensure that totalSupply is not zero to prevent division by zero\n        require(totalSupply > 0, \"Invalid pool total supply\");\n        \n        uint256 buyersShare = amountIn.mul(DECIMALS).div(totalSupply);\n\n        // Calculate total value of the pool\n        uint256 totalPoolValue = getPoolValue(collateral);\n\n        // Calculate supplied token value\n        uint256 buyersShareValue = buyersShare.mul(totalPoolValue).div(DECIMALS);\n\n        require(collateralToken.transferFrom(msg.sender, address(this), amountIn), \"Transfer of input tokens failed\");\n\n        // Mint and Transfer the output tokens from this contract to the recipient\n        ReserveToken(RESERVE_TOKEN).mint(recipient, buyersShareValue);\n        \n        emit BoughtReserveToken(msg.sender, tokenIn, amountIn, buyersShareValue);\n    }\n\n    function getPoolValue(IManagedPool collateral) internal view returns (uint256) {\n        bytes32 poolId = collateral.getPoolId();\n        (IERC20[] memory tokens, uint256[] memory balances, ) = vault.getPoolTokens(poolId);\n        \n        uint256 totalValue = 0;\n        for (uint256 i = 0; i < tokens.length; i++) {\n            if (balances[i] > 0) {\n                int price = getTokenPrice(address(tokens[i]));\n                totalValue = totalValue.add(balances[i].mul(uint256(price)).div(10**10));  // Adjusting for 8 decimals of price\n            }\n        }\n        return totalValue;\n    }\n    \n    /**\n     * @notice Runs a check and transfers reserve tokens as needed\n     * @dev To avoid too many fees, this should be run at wide intervals such as daily\n     *\n     * @param pool - Address of collateral token\n     * @param amountIn - The amount being traded\n     * @param recipient - Address of person to receive the swapped tokens\n     */\n    function sellReserveToken(\n        address pool,\n        uint256 amountIn,\n        address recipient\n    ) \n        public \n        nonReentrant \n        checkPoolSupported(pool) \n    {\n        IERC20 bptToken = IERC20(pool);\n\n        uint256 totalSupply = bptToken.totalSupply();\n\n        // Ensure totalSupply is not zero to prevent division by zero\n        require(totalSupply > 0, \"Invalid pool total supply\");\n\n        // Calculate user's proportionate share in the pool\n        uint256 myShare = amountIn.mul(DECIMALS).div(totalSupply);\n        uint256 myBptAmount = myShare.mul(totalSupply).div(DECIMALS);\n\n        IERC20 reserveToken = IERC20(RESERVE_TOKEN);\n        require(reserveToken.transferFrom(msg.sender, address(this), amountIn), \"Transfer of input tokens failed\");\n\n        // Transfer BPT tokens from this contract to the recipient\n        bptToken.transfer(recipient, myBptAmount);\n        \n        emit SoldReserveToken(msg.sender, pool, amountIn, myBptAmount);\n    }\n\n    /**\n     * @notice returns the array index containing supplied address\n     *\n     * @param value - Address to find\n     */\n    function find(address value) private view returns (uint) {\n        for(uint i = 0; i < registeredPools.length; i++) {\n            if(registeredPools[i] == value) {\n                return i; \n            }\n        }\n\n        return registeredPools.length;\n    }\n\n    /**\n     * @notice removes supplied address from array of addresses\n     *\n     * @param value - Address to look up and remove element\n     */\n    function removeByValue(address value) private {\n        registeredPoolsMapping[value] = false;\n        uint i = find(value);\n        removeByIndex(i);\n    }\n\n    /**\n     * @notice remove the item at index, resizing array as needed\n     *\n     * @param i - Index to remove\n     */\n    function removeByIndex(uint i) private {\n        while (i < registeredPools.length - 1) {\n            registeredPools [i] = registeredPools [i + 1];\n            i++;\n        }\n        registeredPools.pop();\n    }\n\n    event BoughtReserveToken(address indexed buyer, address indexed tokenIn, uint256 amountIn, uint256 reserveTokenOut);\n    event SoldReserveToken(address indexed seller, address indexed pool, uint256 amountIn, uint256 bptOut);\n    \n    /**\n     * @dev Modifier to check token allowance\n     *\n     * @param supportedManagedPool - Managed pool address to remove\n     */\n    modifier checkPoolSupported(address supportedManagedPool) {\n        require(registeredPoolsMapping[supportedManagedPool], \"Pool not registered\");\n        _;\n    }\n}\n",
  "sourcePath": "/home/eagle/Source/BalancerController/Balancer.Controller/contracts/ReserveController.sol",
  "compiler": {
    "name": "solc",
    "version": "0.8.0+commit.c7dfd78e.Emscripten.clang"
  },
  "schemaVersion": "3.4.13",
  "updatedAt": "2023-10-25T19:40:07.118Z",
  "networkType": "ethereum",
  "devdoc": {
    "kind": "dev",
    "methods": {
      "addManager(address)": {
        "params": {
          "manager": "- Manager to add"
        }
      },
      "buyReserveToken(address,uint256,address)": {
        "params": {
          "amountIn": "- The amount being traded",
          "recipient": "- Address of person to receive the reserve tokens",
          "tokenIn": "- Address of collateral token"
        }
      },
      "calculateBalancing(address)": {
        "params": {
          "poolAddress": "- Address of pool being worked on."
        }
      },
      "constructor": {
        "params": {
          "supportedManagedPoolFactory": "- ManegedPoolFactory address",
          "vaultAddress": "- Vault contract address"
        }
      },
      "deRegisterManagedPool(address)": {
        "params": {
          "managedPool": "- Address of pool being worked on."
        }
      },
      "getTokenPrice(address)": {
        "params": {
          "tokenAddress": "- Token to find a price for"
        }
      },
      "paused()": {
        "details": "Returns true if the contract is paused, and false otherwise."
      },
      "registerManagedPool(address)": {
        "params": {
          "managedPool": "- Address of pool being worked on."
        }
      },
      "removeManager(address)": {
        "params": {
          "manager": "- Manager to remove"
        }
      },
      "sellReserveToken(address,uint256,address)": {
        "details": "To avoid too many fees, this should be run at wide intervals such as daily",
        "params": {
          "amountIn": "- The amount being traded",
          "pool": "- Address of collateral token",
          "recipient": "- Address of person to receive the swapped tokens"
        }
      },
      "setReferencePool(address)": {
        "params": {
          "poolAddress": "- Reference pool address"
        }
      },
      "setStableToken(address)": {
        "params": {
          "stableToken": "- Stable token address"
        }
      },
      "setTokenFeed(address,address)": {
        "params": {
          "feed": "- Oracle feed address",
          "token": "- Token address"
        }
      }
    },
    "version": 1
  },
  "userdoc": {
    "kind": "user",
    "methods": {
      "addManager(address)": {
        "notice": "Add a new manager to the collection of managers"
      },
      "buyReserveToken(address,uint256,address)": {
        "notice": "This function is used for pools containing two tokens. It takes in a collateral token such as BPT, calculates an equal value amount of the reserve token such as G$ then mints and returns it."
      },
      "calculateBalancing(address)": {
        "notice": "Calculates a number of tokens to add or remove to rebalance pricing"
      },
      "constructor": {
        "notice": "Constructor for the controller base class"
      },
      "deRegisterManagedPool(address)": {
        "notice": "Deregister managed pool"
      },
      "getRegisteredPools()": {
        "notice": "returns a list of registered pools"
      },
      "getTokenPrice(address)": {
        "notice": "returns the oracle supplied price for the requested token"
      },
      "pause()": {
        "notice": "Pause sensitive functions"
      },
      "registerManagedPool(address)": {
        "notice": "Register managed pool"
      },
      "removeManager(address)": {
        "notice": "Remove a manager to the collection of managers"
      },
      "sellReserveToken(address,uint256,address)": {
        "notice": "Runs a check and transfers reserve tokens as needed"
      },
      "setReferencePool(address)": {
        "notice": "Set a new token oracle feed"
      },
      "setStableToken(address)": {
        "notice": "Set a new token oracle feed"
      },
      "setTokenFeed(address,address)": {
        "notice": "Set a new token oracle feed"
      },
      "unpause()": {
        "notice": "Unpause sensitive functions"
      }
    },
    "version": 1
  }
}