{
  "contractName": "ReserveController",
  "abi": [
    {
      "inputs": [
        {
          "internalType": "address",
          "name": "vaultAddress",
          "type": "address"
        },
        {
          "internalType": "address",
          "name": "supportedManagedPoolFactory",
          "type": "address"
        }
      ],
      "stateMutability": "nonpayable",
      "type": "constructor"
    },
    {
      "anonymous": false,
      "inputs": [
        {
          "components": [
            {
              "internalType": "string",
              "name": "name",
              "type": "string"
            },
            {
              "internalType": "string",
              "name": "symbol",
              "type": "string"
            },
            {
              "internalType": "address[]",
              "name": "assetManagers",
              "type": "address[]"
            }
          ],
          "indexed": false,
          "internalType": "struct ManagedPoolParams",
          "name": "managedPoolParams",
          "type": "tuple"
        },
        {
          "components": [
            {
              "internalType": "contract IERC20[]",
              "name": "tokens",
              "type": "address[]"
            },
            {
              "internalType": "uint256[]",
              "name": "normalizedWeights",
              "type": "uint256[]"
            },
            {
              "internalType": "uint256",
              "name": "swapFeePercentage",
              "type": "uint256"
            },
            {
              "internalType": "bool",
              "name": "isSwapEnabledOnStart",
              "type": "bool"
            },
            {
              "internalType": "bool",
              "name": "isMustAllowlistLPs",
              "type": "bool"
            },
            {
              "internalType": "uint256",
              "name": "managementAumFeePercentage",
              "type": "uint256"
            },
            {
              "internalType": "uint256",
              "name": "aumFeeId",
              "type": "uint256"
            }
          ],
          "indexed": false,
          "internalType": "struct ManagedPoolSettingsParams",
          "name": "managedPoolSettingsParams",
          "type": "tuple"
        },
        {
          "indexed": false,
          "internalType": "address",
          "name": "callerAddress",
          "type": "address"
        },
        {
          "indexed": false,
          "internalType": "bytes32",
          "name": "salt",
          "type": "bytes32"
        },
        {
          "indexed": false,
          "internalType": "bool",
          "name": "isSuccessful",
          "type": "bool"
        }
      ],
      "name": "CreatedPoolByDelegateCall",
      "type": "event"
    },
    {
      "inputs": [],
      "name": "manager",
      "outputs": [
        {
          "internalType": "address",
          "name": "",
          "type": "address"
        }
      ],
      "stateMutability": "view",
      "type": "function"
    },
    {
      "inputs": [
        {
          "internalType": "address",
          "name": "supportedManager",
          "type": "address"
        }
      ],
      "name": "transferManagement",
      "outputs": [],
      "stateMutability": "nonpayable",
      "type": "function"
    },
    {
      "inputs": [
        {
          "internalType": "string",
          "name": "name",
          "type": "string"
        },
        {
          "internalType": "string",
          "name": "symbol",
          "type": "string"
        },
        {
          "internalType": "contract IERC20[]",
          "name": "tokens",
          "type": "address[]"
        },
        {
          "internalType": "uint256[]",
          "name": "normalizedWeights",
          "type": "uint256[]"
        },
        {
          "internalType": "address[]",
          "name": "assetManagers",
          "type": "address[]"
        },
        {
          "internalType": "uint256",
          "name": "swapFeePercentage",
          "type": "uint256"
        },
        {
          "internalType": "bool",
          "name": "isSwapEnabledOnStart",
          "type": "bool"
        },
        {
          "internalType": "bool",
          "name": "isMustAllowlistLPs",
          "type": "bool"
        },
        {
          "internalType": "uint256",
          "name": "managementAumFeePercentage",
          "type": "uint256"
        },
        {
          "internalType": "uint256",
          "name": "aumFeeId",
          "type": "uint256"
        },
        {
          "internalType": "bytes32",
          "name": "salt",
          "type": "bytes32"
        }
      ],
      "name": "createPool",
      "outputs": [],
      "stateMutability": "nonpayable",
      "type": "function"
    },
    {
      "inputs": [
        {
          "internalType": "bytes32",
          "name": "poolId",
          "type": "bytes32"
        },
        {
          "internalType": "address",
          "name": "sender",
          "type": "address"
        },
        {
          "internalType": "address",
          "name": "recipient",
          "type": "address"
        },
        {
          "internalType": "contract IERC20[]",
          "name": "assets",
          "type": "address[]"
        },
        {
          "internalType": "uint256[]",
          "name": "maxAmountsIn",
          "type": "uint256[]"
        },
        {
          "internalType": "bytes",
          "name": "userData",
          "type": "bytes"
        },
        {
          "internalType": "bool",
          "name": "fromInternalBalance",
          "type": "bool"
        }
      ],
      "name": "JoinPool",
      "outputs": [
        {
          "internalType": "bytes",
          "name": "",
          "type": "bytes"
        }
      ],
      "stateMutability": "payable",
      "type": "function"
    },
    {
      "inputs": [],
      "name": "getRegisteredPools",
      "outputs": [
        {
          "internalType": "address[]",
          "name": "",
          "type": "address[]"
        }
      ],
      "stateMutability": "view",
      "type": "function"
    },
    {
      "inputs": [
        {
          "internalType": "address",
          "name": "managedPool",
          "type": "address"
        }
      ],
      "name": "registerManagedPool",
      "outputs": [],
      "stateMutability": "nonpayable",
      "type": "function"
    },
    {
      "inputs": [
        {
          "internalType": "address",
          "name": "managedPool",
          "type": "address"
        }
      ],
      "name": "deRegisterManagedPool",
      "outputs": [],
      "stateMutability": "nonpayable",
      "type": "function"
    },
    {
      "inputs": [
        {
          "internalType": "address",
          "name": "value",
          "type": "address"
        }
      ],
      "name": "getTokenPrice",
      "outputs": [
        {
          "internalType": "int256",
          "name": "",
          "type": "int256"
        }
      ],
      "stateMutability": "view",
      "type": "function"
    },
    {
      "inputs": [
        {
          "internalType": "address",
          "name": "tokenIn",
          "type": "address"
        },
        {
          "internalType": "uint256",
          "name": "amountIn",
          "type": "uint256"
        },
        {
          "internalType": "address",
          "name": "recipient",
          "type": "address"
        }
      ],
      "name": "buyReserveToken",
      "outputs": [],
      "stateMutability": "nonpayable",
      "type": "function"
    },
    {
      "inputs": [
        {
          "internalType": "address",
          "name": "tokenIn",
          "type": "address"
        },
        {
          "internalType": "address",
          "name": "pool",
          "type": "address"
        },
        {
          "internalType": "uint256",
          "name": "amountIn",
          "type": "uint256"
        },
        {
          "internalType": "address",
          "name": "recipient",
          "type": "address"
        }
      ],
      "name": "sellReserveToken",
      "outputs": [],
      "stateMutability": "nonpayable",
      "type": "function"
    }
  ],
  "bytecode": "0x60c06040523480156200001157600080fd5b506040516200237f3803806200237f833981016040819052620000349162000082565b600080546001600160a01b031916331790556001600160601b0319606092831b8116608052911b1660a052620000b9565b80516001600160a01b03811681146200007d57600080fd5b919050565b6000806040838503121562000095578182fd5b620000a08362000065565b9150620000b06020840162000065565b90509250929050565b60805160601c60a05160601c61227e6200010160003960006108c401526000818161044a0152818161056901528181610be301528181610d02015261138b015261227e6000f3fe6080604052600436106100915760003560e01c8063c944994c11610059578063c944994c14610145578063d02641a014610165578063d22320e214610192578063d4943567146101b2578063e4edf852146101d257610091565b8063041ead601461009657806347958851146100b8578063481c6a75146100d8578063659d4f5c146101035780638c4288cd14610125575b600080fd5b3480156100a257600080fd5b506100b66100b13660046118ce565b6101f2565b005b3480156100c457600080fd5b506100b66100d336600461199b565b61025a565b3480156100e457600080fd5b506100ed6107f2565b6040516100fa9190611ec0565b60405180910390f35b34801561010f57600080fd5b50610118610801565b6040516100fa9190611f11565b34801561013157600080fd5b506100b6610140366004611bdb565b610863565b34801561015157600080fd5b506100b661016036600461190d565b6109fd565b34801561017157600080fd5b506101856101803660046118ce565b610fa2565b6040516100fa9190611f24565b34801561019e57600080fd5b506100b66101ad3660046118ce565b611334565b6101c56101c0366004611b17565b611357565b6040516100fa9190611fc2565b3480156101de57600080fd5b506100b66101ed3660046118ce565b61148f565b6000546001600160a01b0316331461020957600080fd5b6001805480820182556000919091527fb10e2d527612073b26eecdfd717e6a320cf44b4afac2b0732d9fcbe2b7fa0cf60180546001600160a01b0319166001600160a01b0392909216919091179055565b82610264816114c8565b6102895760405162461bcd60e51b815260040161028090612035565b60405180910390fd5b610291611638565b6001600160a01b0385168082526040516323b872dd60e01b81528691906323b872dd906102c690339030908a90600401611ed4565b602060405180830381600087803b1580156102e057600080fd5b505af11580156102f4573d6000803e3d6000fd5b505050506040513d601f19601f820116820180604052508101906103189190611ae3565b6103345760405162461bcd60e51b815260040161028090611ffe565b6000816001600160a01b03166318160ddd6040518163ffffffff1660e01b815260040160206040518083038186803b15801561036f57600080fd5b505afa158015610383573d6000803e3d6000fd5b505050506040513d601f19601f820116820180604052508101906103a79190611aff565b905060006103b58288612158565b905083600001516001600160a01b03166338fff2d06040518163ffffffff1660e01b815260040160206040518083038186803b1580156103f457600080fd5b505afa158015610408573d6000803e3d6000fd5b505050506040513d601f19601f8201168201806040525081019061042c9190611aff565b6020850181905260405163f6c0092760e01b81526001600160a01b037f0000000000000000000000000000000000000000000000000000000000000000169163f6c009279161047e9190600401611f24565b604080518083038186803b15801561049557600080fd5b505afa1580156104a9573d6000803e3d6000fd5b505050506040513d601f19601f820116820180604052508101906104cd919061195f565b505083600001516001600160a01b031663f89f27ed6040518163ffffffff1660e01b815260040160006040518083038186803b15801561050c57600080fd5b505afa158015610520573d6000803e3d6000fd5b505050506040513d6000823e601f3d908101601f191682016040526105489190810190611aa8565b60808501526020840151604051631f29a8cd60e31b81526001600160a01b037f0000000000000000000000000000000000000000000000000000000000000000169163f94d46689161059d9190600401611f24565b60006040518083038186803b1580156105b557600080fd5b505afa1580156105c9573d6000803e3d6000fd5b505050506040513d6000823e601f3d908101601f191682016040526105f191908101906119dc565b5060c086015260a0850181905261060790611523565b60e085015260005b8460a00151518110156106c75760008560c00151828151811061064257634e487b7160e01b600052603260045260246000fd5b602002602001015111156106b5576106848560a00151828151811061067757634e487b7160e01b600052603260045260246000fd5b6020026020010151610fa2565b856060015182815181106106a857634e487b7160e01b600052603260045260246000fd5b6020026020010181815250505b806106bf816121de565b91505061060f565b506000805b8560a001515181101561075957856060015181815181106106fd57634e487b7160e01b600052603260045260246000fd5b60200260200101518660c00151828151811061072957634e487b7160e01b600052603260045260246000fd5b602002602001015161073b9190612178565b6107459083612140565b915080610751816121de565b9150506106cc565b5060006107668284612178565b90507398a90ecfb163d138ec289d05362f20613a0c02ac806340c10f198a61079685670de0b6b3a7640000612178565b6040518363ffffffff1660e01b81526004016107b3929190611ef8565b600060405180830381600087803b1580156107cd57600080fd5b505af11580156107e1573d6000803e3d6000fd5b505050505050505050505050505050565b6000546001600160a01b031681565b6060600180548060200260200160405190810160405280929190818152602001828054801561085957602002820191906000526020600020905b81546001600160a01b0316815260019091019060200180831161083b575b5050505050905090565b61086b611689565b8b8152602081018b9052604081018890526108846116aa565b8a8152602081018a905260408082018990528715156060830152861515608083015260a0820186905260c082018590525160009081906001600160a01b037f00000000000000000000000000000000000000000000000000000000000000001690637304b8b960e01b90610902908790879033908b90602401612062565b60408051601f198184030181529181526020820180516001600160e01b03166001600160e01b03199094169390931790925290516109409190611ea4565b600060405180830381855af49150503d806000811461097b576040519150601f19603f3d011682016040523d82523d6000602084013e610980565b606091505b50915091507f15fd418169a4890b496e7cb6e8a9d72d1790b6247d3ebe27b87894ff2c3e435484843388866040516109bc9594939291906120a4565b60405180910390a181156107e1576000818060200190518101906109e091906118f1565b90506109eb816101f2565b50505050505050505050505050505050565b82610a07816114c8565b610a235760405162461bcd60e51b815260040161028090612035565b610a2b611638565b6001600160a01b038516808252604080516318160ddd60e01b81529051879260009290916318160ddd91600480820192602092909190829003018186803b158015610a7557600080fd5b505afa158015610a89573d6000803e3d6000fd5b505050506040513d601f19601f82011682018060405250810190610aad9190611aff565b6040516323b872dd60e01b815290915088906001600160a01b038216906323b872dd90610ae290339030908c90600401611ed4565b602060405180830381600087803b158015610afc57600080fd5b505af1158015610b10573d6000803e3d6000fd5b505050506040513d601f19601f82011682018060405250810190610b349190611ae3565b610b505760405162461bcd60e51b815260040161028090611ffe565b83600001516001600160a01b03166338fff2d06040518163ffffffff1660e01b815260040160206040518083038186803b158015610b8d57600080fd5b505afa158015610ba1573d6000803e3d6000fd5b505050506040513d601f19601f82011682018060405250810190610bc59190611aff565b6020850181905260405163f6c0092760e01b81526001600160a01b037f0000000000000000000000000000000000000000000000000000000000000000169163f6c0092791610c179190600401611f24565b604080518083038186803b158015610c2e57600080fd5b505afa158015610c42573d6000803e3d6000fd5b505050506040513d601f19601f82011682018060405250810190610c66919061195f565b505083600001516001600160a01b031663f89f27ed6040518163ffffffff1660e01b815260040160006040518083038186803b158015610ca557600080fd5b505afa158015610cb9573d6000803e3d6000fd5b505050506040513d6000823e601f3d908101601f19168201604052610ce19190810190611aa8565b60808501526020840151604051631f29a8cd60e31b81526001600160a01b037f0000000000000000000000000000000000000000000000000000000000000000169163f94d466891610d369190600401611f24565b60006040518083038186803b158015610d4e57600080fd5b505afa158015610d62573d6000803e3d6000fd5b505050506040513d6000823e601f3d908101601f19168201604052610d8a91908101906119dc565b5060c086015260a08501819052610da090611523565b60e085015260005b8460a0015151811015610e535760008560c001518281518110610ddb57634e487b7160e01b600052603260045260246000fd5b60200260200101511115610e4157610e108560a00151828151811061067757634e487b7160e01b600052603260045260246000fd5b85606001518281518110610e3457634e487b7160e01b600052603260045260246000fd5b6020026020010181815250505b80610e4b816121de565b915050610da8565b506000805b8560a0015151811015610ee55785606001518181518110610e8957634e487b7160e01b600052603260045260246000fd5b60200260200101518660c001518281518110610eb557634e487b7160e01b600052603260045260246000fd5b6020026020010151610ec79190612178565b610ed19083612140565b915080610edd816121de565b915050610e58565b506000610ef2848a612158565b90506000610f008583612178565b90506001600160a01b03861663a9059cbb8a610f2484670de0b6b3a7640000612178565b6040518363ffffffff1660e01b8152600401610f41929190611ef8565b602060405180830381600087803b158015610f5b57600080fd5b505af1158015610f6f573d6000803e3d6000fd5b505050506040513d601f19601f82011682018060405250810190610f939190611ae3565b50505050505050505050505050565b6000806001600160a01b03831673baab46e28388d2779e6e31fd00cf0e5ad95e327b141561106257600073128fe88eaa22bffb868bb3a584a54c96ee24014b9050806001600160a01b031663feaf968c6040518163ffffffff1660e01b815260040160a06040518083038186803b15801561101c57600080fd5b505afa158015611030573d6000803e3d6000fd5b505050506040513d601f19601f820116820180604052508101906110549190611cf5565b5091945061132c9350505050565b6001600160a01b03831673471ece3750da237f93b8e339c536989b8978a43814156110d9576000730568fd19986748ceff3301e55c0eb1e729e0ab7e9050806001600160a01b031663feaf968c6040518163ffffffff1660e01b815260040160a06040518083038186803b15801561101c57600080fd5b6001600160a01b03831673122013fd7df1c6f636a5bb8f03108e876548b4551415611150576000731fcd30a73d67639c1cd89ff5746e7585731c083b9050806001600160a01b031663feaf968c6040518163ffffffff1660e01b815260040160a06040518083038186803b15801561101c57600080fd5b6001600160a01b03831673d8763cba276a3738e6de85b4b3bf5fded6d6ca7314156111c7576000733d207061dbe8e2473527611bfecb87ff12b28dda9050806001600160a01b031663feaf968c6040518163ffffffff1660e01b815260040160a06040518083038186803b15801561101c57600080fd5b6001600160a01b0383167372d7f41ef46a988b13530f67423b36cd9cadbc3a141561123e576000736b6a4c71ec3858a024f3f0ee44bb0adcbed3dcc29050806001600160a01b031663feaf968c6040518163ffffffff1660e01b815260040160a06040518083038186803b15801561101c57600080fd5b6001600160a01b038316732a3684e9dc20b857375ea04235f2f7edbe818fa714156112b557600073c7a353bae210aed958a1a2928b654938ec59dab29050806001600160a01b031663feaf968c6040518163ffffffff1660e01b815260040160a06040518083038186803b15801561101c57600080fd5b6001600160a01b03831673f6d198cd2a85bb2f3021cdbdab6b878474079be71415610091576000735e37af40a7a344ec9b03ccd34a250f3da9a20b029050806001600160a01b031663feaf968c6040518163ffffffff1660e01b815260040160a06040518083038186803b15801561101c57600080fd5b90505b919050565b6000546001600160a01b0316331461134b57600080fd5b61135481611526565b50565b60606113616116eb565b85815260208101859052604080820185905283151560608301525160009081906001600160a01b037f0000000000000000000000000000000000000000000000000000000000000000169063172b958560e31b906113c9908e908e908e908990602401611f2d565b60408051601f198184030181529181526020820180516001600160e01b03166001600160e01b03199094169390931790925290516114079190611ea4565b600060405180830381855af49150503d8060008114611442576040519150601f19603f3d011682016040523d82523d6000602084013e611447565b606091505b5091509150811561145c579250611484915050565b80511561146c5781518083602001fd5b60405162461bcd60e51b815260040161028090611fd5565b979650505050505050565b6000546001600160a01b031633146114a657600080fd5b600080546001600160a01b0319166001600160a01b0392909216919091179055565b6000805b826001600160a01b0316600182815481106114f757634e487b7160e01b600052603260045260246000fd5b6000918252602090912001546001600160a01b03161461132c578061151b816121de565b9150506114cc565b90565b6000611531826114c8565b905061153c81611540565b5050565b6001805461154e9190612197565b8110156115f45760016115618282612140565b8154811061157f57634e487b7160e01b600052603260045260246000fd5b600091825260209091200154600180546001600160a01b0390921691839081106115b957634e487b7160e01b600052603260045260246000fd5b600091825260209091200180546001600160a01b0319166001600160a01b0392909216919091179055806115ec816121de565b915050611540565b600180548061161357634e487b7160e01b600052603160045260246000fd5b600082815260209020810160001990810180546001600160a01b031916905501905550565b60405180610100016040528060006001600160a01b03168152602001600080191681526020016000815260200160608152602001606081526020016060815260200160608152602001606081525090565b60405180606001604052806060815260200160608152602001606081525090565b6040518060e0016040528060608152602001606081526020016000815260200160001515815260200160001515815260200160008152602001600081525090565b60405180608001604052806060815260200160608152602001606081526020016000151581525090565b600082601f830112611725578081fd5b8135602061173a6117358361211c565b6120f2565b8281528181019085830183850287018401881015611756578586fd5b855b8581101561177d57813561176b81612225565b84529284019290840190600101611758565b5090979650505050505050565b600082601f83011261179a578081fd5b813560206117aa6117358361211c565b82815281810190858301838502870184018810156117c6578586fd5b855b8581101561177d578135845292840192908401906001016117c8565b600082601f8301126117f4578081fd5b815160206118046117358361211c565b8281528181019085830183850287018401881015611820578586fd5b855b8581101561177d57815184529284019290840190600101611822565b803561132f8161223a565b600082601f830112611859578081fd5b813567ffffffffffffffff8111156118735761187361220f565b611886601f8201601f19166020016120f2565b81815284602083860101111561189a578283fd5b816020850160208301379081016020019190915292915050565b805169ffffffffffffffffffff8116811461132f57600080fd5b6000602082840312156118df578081fd5b81356118ea81612225565b9392505050565b600060208284031215611902578081fd5b81516118ea81612225565b60008060008060808587031215611922578283fd5b843561192d81612225565b9350602085013561193d81612225565b925060408501359150606085013561195481612225565b939692955090935050565b60008060408385031215611971578182fd5b825161197c81612225565b602084015190925060038110611990578182fd5b809150509250929050565b6000806000606084860312156119af578081fd5b83356119ba81612225565b92506020840135915060408401356119d181612225565b809150509250925092565b6000806000606084860312156119f0578081fd5b835167ffffffffffffffff80821115611a07578283fd5b818601915086601f830112611a1a578283fd5b81516020611a2a6117358361211c565b82815281810190858301838502870184018c1015611a46578788fd5b8796505b84871015611a71578051611a5d81612225565b835260019690960195918301918301611a4a565b5091890151919750909350505080821115611a8a578283fd5b50611a97868287016117e4565b925050604084015190509250925092565b600060208284031215611ab9578081fd5b815167ffffffffffffffff811115611acf578182fd5b611adb848285016117e4565b949350505050565b600060208284031215611af4578081fd5b81516118ea8161223a565b600060208284031215611b10578081fd5b5051919050565b600080600080600080600060e0888a031215611b31578485fd5b873596506020880135611b4381612225565b95506040880135611b5381612225565b9450606088013567ffffffffffffffff80821115611b6f578485fd5b611b7b8b838c01611715565b955060808a0135915080821115611b90578485fd5b611b9c8b838c0161178a565b945060a08a0135915080821115611bb1578384fd5b50611bbe8a828b01611849565b925050611bcd60c0890161183e565b905092959891949750929550565b60008060008060008060008060008060006101608c8e031215611bfc578485fd5b67ffffffffffffffff808d351115611c12578586fd5b611c1f8e8e358f01611849565b9b508060208e01351115611c31578586fd5b611c418e60208f01358f01611849565b9a508060408e01351115611c53578586fd5b611c638e60408f01358f01611715565b99508060608e01351115611c75578586fd5b611c858e60608f01358f0161178a565b98508060808e01351115611c97578586fd5b50611ca88d60808e01358e01611715565b965060a08c01359550611cbd60c08d0161183e565b9450611ccb60e08d0161183e565b93506101008c013592506101208c013591506101408c013590509295989b509295989b9093969950565b600080600080600060a08688031215611d0c578283fd5b611d15866118b4565b9450602086015193506040860151925060608601519150611d38608087016118b4565b90509295509295909350565b6000815180845260208085019450808401835b83811015611d7c5781516001600160a01b031687529582019590820190600101611d57565b509495945050505050565b6000815180845260208085019450808401835b83811015611d7c57815187529582019590820190600101611d9a565b60008151808452611dce8160208601602086016121ae565b601f01601f19169290920160200192915050565b6000815160608452611df76060850182611db6565b905060208301518482036020860152611e108282611db6565b91505060408301518482036040860152611e2a8282611d44565b95945050505050565b6000815160e08452611e4860e0850182611d44565b905060208301518482036020860152611e618282611d87565b9150506040830151604085015260608301511515606085015260808301511515608085015260a083015160a085015260c083015160c08501528091505092915050565b60008251611eb68184602087016121ae565b9190910192915050565b6001600160a01b0391909116815260200190565b6001600160a01b039384168152919092166020820152604081019190915260600190565b6001600160a01b03929092168252602082015260400190565b6000602082526118ea6020830184611d44565b90815260200190565b8481526001600160a01b03848116602083015283166040820152608060608201819052825181830191909152600090611f6a610100840182611d44565b90506020840151607f19808584030160a0860152611f888383611d87565b925060408601519150808584030160c086015250611fa68282611db6565b9150506060840151151560e08401528091505095945050505050565b6000602082526118ea6020830184611db6565b6020808252600f908201526e1a9bda5b941bdbdb0819985a5b1959608a1b604082015260600190565b6020808252601f908201527f5472616e73666572206f6620696e70757420746f6b656e73206661696c656400604082015260600190565b602080825260139082015272141bdbdb081b9bdd081c9959da5cdd195c9959606a1b604082015260600190565b6000608082526120756080830187611de2565b82810360208401526120878187611e33565b6001600160a01b0395909516604084015250506060015292915050565b600060a082526120b760a0830188611de2565b82810360208401526120c98188611e33565b6001600160a01b0396909616604084015250506060810192909252151560809091015292915050565b60405181810167ffffffffffffffff811182821017156121145761211461220f565b604052919050565b600067ffffffffffffffff8211156121365761213661220f565b5060209081020190565b60008219821115612153576121536121f9565b500190565b60008261217357634e487b7160e01b81526012600452602481fd5b500490565b6000816000190483118215151615612192576121926121f9565b500290565b6000828210156121a9576121a96121f9565b500390565b60005b838110156121c95781810151838201526020016121b1565b838111156121d8576000848401525b50505050565b60006000198214156121f2576121f26121f9565b5060010190565b634e487b7160e01b600052601160045260246000fd5b634e487b7160e01b600052604160045260246000fd5b6001600160a01b038116811461135457600080fd5b801515811461135457600080fdfea2646970667358221220711bc90118011f1e8b21381741aeeb729e0af385d8b8cde9cfa5217dae14629c64736f6c63430008000033",
  "immutableReferences": {
    "1316": [
      {
        "length": 32,
        "start": 1098
      },
      {
        "length": 32,
        "start": 1385
      },
      {
        "length": 32,
        "start": 3043
      },
      {
        "length": 32,
        "start": 3330
      },
      {
        "length": 32,
        "start": 5003
      }
    ],
    "1318": [
      {
        "length": 32,
        "start": 2244
      }
    ]
  },
  "source": "// SPDX-License-Identifier: MIT\n\npragma solidity ^0.8.0;\npragma experimental ABIEncoderV2;\n\nimport \"./base/BaseUtils.sol\";\nimport \"@balancer-labs/v2-interfaces/contracts/pool-utils/IManagedPool.sol\";\nimport \"@balancer-labs/v2-interfaces/contracts/vault/IVault.sol\";\nimport \"./lib/ManagedPoolFactory.sol\";\nimport \"./lib/ReserveToken.sol\";\nimport \"@chainlink/contracts/src/v0.8/interfaces/AggregatorV3Interface.sol\";\n\ncontract ReserveController is BaseUtils {\n\n    address private constant RESERVE_TOKEN = 0x98A90EcFB163d138eC289D05362f20613A0C02aC;\n\n    event CreatedPoolByDelegateCall(\n        ManagedPoolParams managedPoolParams,\n        ManagedPoolSettingsParams managedPoolSettingsParams,\n        address callerAddress,\n        bytes32 salt,\n        bool isSuccessful\n    );\n\n    struct TradeValues {\n        IManagedPool collateral;\n        bytes32 poolId;\n        uint256 tokenPrice;\n        int [] tokenPrices;\n        uint256 [] normalizedWeights;\n        IERC20 [] tokens;\n        uint256 [] balances;\n        IAsset [] assets;\n    }\n\n    struct JoinPoolRequest {\n        IERC20[] assets;\n        uint256[] maxAmountsIn;\n        bytes userData;\n        bool fromInternalBalance;\n    }\n\n    address [] private registeredPools;\n    IVault internal immutable vault;\n    address internal immutable managedPoolFactory;\n\n    /**\n     * @notice Constructor for the controller base class\n     *\n     * @param vaultAddress - Vault contract address\n     * @param supportedManagedPoolFactory - ManegedPoolFactory address\n     */\n    constructor(address vaultAddress, address supportedManagedPoolFactory) {\n        manager = msg.sender;\n        vault = IVault(vaultAddress);\n        managedPoolFactory = supportedManagedPoolFactory;\n    }\n\n    /**\n     * @notice Create and register a new managed pool\n     *\n     * @param name - Pool name\n     * @param symbol - Symbol representing the pool\n     * @param tokens - Tokens in the pool\n     * @param normalizedWeights - Normalized weights in the pool\n     * @param assetManagers - Asset manager for the pool\n     * @param swapFeePercentage - Fee applied to swaps\n     * @param isSwapEnabledOnStart - Whether swaps are enabled straight away\n     * @param isMustAllowlistLPs - List of LP's allowed in the pool\n     * @param managementAumFeePercentage - Management Aum fee to apply\n     * @param aumFeeId - Aum Fee Id\n     * @param salt - Salt applied to address to ensure uniqueness\n     */\n    function createPool(\n        string memory name,\n        string memory symbol,\n        IERC20 [] memory tokens,\n        uint256 [] memory normalizedWeights,\n        address [] memory assetManagers,\n        uint256 swapFeePercentage,\n        bool isSwapEnabledOnStart,\n        bool isMustAllowlistLPs,\n        uint256 managementAumFeePercentage,\n        uint256 aumFeeId,\n        bytes32 salt\n    ) public {\n        ManagedPoolParams memory poolParams;\n        poolParams.name = name;\n        poolParams.symbol = symbol;\n        poolParams.assetManagers = assetManagers;\n\n        ManagedPoolSettingsParams memory poolSettingsParams;\n        poolSettingsParams.tokens = tokens;\n        poolSettingsParams.normalizedWeights = normalizedWeights;\n        poolSettingsParams.swapFeePercentage = swapFeePercentage;\n        poolSettingsParams.isSwapEnabledOnStart = isSwapEnabledOnStart;\n        poolSettingsParams.isMustAllowlistLPs = isMustAllowlistLPs;\n        poolSettingsParams\n            .managementAumFeePercentage = managementAumFeePercentage;\n        poolSettingsParams.aumFeeId = aumFeeId;\n\n        (bool isSuccessful, bytes memory result) = managedPoolFactory.delegatecall(\n            abi.encodeWithSelector(\n                ManagedPoolFactory.create.selector,\n                poolParams,\n                poolSettingsParams,\n                msg.sender,\n                salt\n            )\n        );\n\n        emit CreatedPoolByDelegateCall(\n            poolParams,\n            poolSettingsParams,\n            msg.sender,\n            salt,\n            isSuccessful\n        );\n        if (isSuccessful) {\n            address poolAddress = abi.decode(result, (address));\n            registerManagedPool(poolAddress);\n        }\n    }\n\n    /**\n     * @notice Create and register a new managed pool\n     *\n     * @param poolId - Pool identifier\n     * @param sender - Sender address\n     * @param recipient - Recipient address\n     * @param assets - Assets being transferred in\n     * @param maxAmountsIn - Amount being transferred in\n     * @param userData - Encoded user data\n     * @param fromInternalBalance - Is this transferred from internal balance?\n     */\n    function JoinPool(\n        bytes32 poolId,\n        address sender,\n        address recipient,\n        IERC20[] memory assets,\n        uint256[] memory maxAmountsIn,\n        bytes memory userData,\n        bool fromInternalBalance\n    ) public payable returns (bytes memory) {\n        JoinPoolRequest memory joinPoolRequest;\n        joinPoolRequest.assets = assets;\n        joinPoolRequest.maxAmountsIn = maxAmountsIn;\n        joinPoolRequest.userData = userData;\n        joinPoolRequest.fromInternalBalance = fromInternalBalance;\n\n        (bool isSuccessful, bytes memory returndata) = address(vault).delegatecall(\n            abi.encodeWithSelector(\n                vault.joinPool.selector,\n                poolId,\n                sender,\n                recipient,\n                joinPoolRequest\n            )\n        );\n\n        if (isSuccessful) {\n            return returndata;\n        } else {\n            // Look for revert reason and bubble it up if present\n            if (returndata.length > 0) {\n                // The easiest way to bubble the revert reason is using memory via assembly\n\n                assembly {\n                    let returndata_size := mload(isSuccessful)\n                    revert(add(32, isSuccessful), returndata_size)\n                }\n            } else {\n                revert(\"joinPool failed\");\n            }\n        }\n    }\n\n    /**\n     * @notice returns a list of registered pools\n     *\n     */\n    function getRegisteredPools() public view returns (address [] memory) {\n        return registeredPools;\n    }\n\n    /**\n     * @notice Register managed pool\n     *\n     * @param managedPool - Address of pool being worked on.\n     */\n    function registerManagedPool(\n        address managedPool\n    ) public restricted {\n        registeredPools.push(managedPool);\n    }\n\n    /**\n     * @notice Deregister managed pool\n     *\n     * @param managedPool - Address of pool being worked on.\n     */\n    function deRegisterManagedPool(\n        address managedPool\n    ) public restricted {\n        removeByValue(managedPool);\n    }\n\n    /**\n     * @notice returns the array index containing supplied address\n     *\n     * @param value - Address to find\n     */\n    function getTokenPrice(address value) public view returns (int) {\n        int tokenPrice = 0;\n\n        if (value == address(0xBAAB46E28388d2779e6E31Fd00cF0e5Ad95E327B)) { // WBTCv2\n            AggregatorV3Interface dataFeed = AggregatorV3Interface(\n                0x128fE88eaa22bFFb868Bb3A584A54C96eE24014b\n            );\n\n            // prettier-ignore\n            (\n                /* uint80 roundID */,\n                tokenPrice,\n                /*uint startedAt*/,\n                /*uint timeStamp*/,\n                /*uint80 answeredInRound*/\n            ) = dataFeed.latestRoundData();    \n        } else if (value == address(0x471EcE3750Da237f93B8E339c536989b8978a438)) { // CELO\n            AggregatorV3Interface dataFeed = AggregatorV3Interface(\n                0x0568fD19986748cEfF3301e55c0eb1E729E0Ab7e\n            );\n            // prettier-ignore\n            (\n                /* uint80 roundID */,\n                tokenPrice,\n                /*uint startedAt*/,\n                /*uint timeStamp*/,\n                /*uint80 answeredInRound*/\n            ) = dataFeed.latestRoundData();\n        } else if (value == address(0x122013fd7dF1C6F636a5bb8f03108E876548b455)) { // WETHv2\n            AggregatorV3Interface dataFeed = AggregatorV3Interface(\n                0x1FcD30A73D67639c1cD89ff5746E7585731c083B\n            );\n            // prettier-ignore\n            (\n                /* uint80 roundID */,\n                tokenPrice,\n                /*uint startedAt*/,\n                /*uint timeStamp*/,\n                /*uint80 answeredInRound*/\n             ) = dataFeed.latestRoundData();\n        } else if (value == address(0xD8763CBa276a3738E6DE85b4b3bF5FDed6D6cA73)) { // CEUR\n            AggregatorV3Interface dataFeed = AggregatorV3Interface(\n                0x3D207061Dbe8E2473527611BFecB87Ff12b28dDa\n            );\n            // prettier-ignore\n            (\n                /* uint80 roundID */,\n                tokenPrice,\n                /*uint startedAt*/,\n                /*uint timeStamp*/,\n                /*uint80 answeredInRound*/\n            ) = dataFeed.latestRoundData();\n        } else if (value == address(0x72d7f41eF46a988b13530F67423B36CD9cADBc3a)) { // LINK\n            AggregatorV3Interface dataFeed = AggregatorV3Interface(\n                0x6b6a4c71ec3858A024f3f0Ee44bb0AdcBEd3DcC2\n            );\n            // prettier-ignore\n            (\n                /* uint80 roundID */,\n                tokenPrice,\n                /*uint startedAt*/,\n                /*uint timeStamp*/,\n                /*uint80 answeredInRound*/\n            ) = dataFeed.latestRoundData();\n        } else if (value == address(0x2A3684e9Dc20B857375EA04235F2F7edBe818FA7)) { // USDC\n            AggregatorV3Interface dataFeed = AggregatorV3Interface(\n                0xc7A353BaE210aed958a1A2928b654938EC59DaB2\n            );\n            // prettier-ignore\n            (\n                /* uint80 roundID */,\n                tokenPrice,\n                /*uint startedAt*/,\n                /*uint timeStamp*/,\n                /*uint80 answeredInRound*/\n            ) = dataFeed.latestRoundData();\n        } else if (value == address(0xf6D198Cd2A85bB2F3021cDBDAb6B878474079Be7)) { // USDT\n            AggregatorV3Interface dataFeed = AggregatorV3Interface(\n                0x5e37AF40A7A344ec9b03CCD34a250F3dA9a20B02\n            );\n            // prettier-ignore\n            (\n                /* uint80 roundID */,\n                tokenPrice,\n                /*uint startedAt*/,\n                /*uint timeStamp*/,\n                /*uint80 answeredInRound*/\n            ) = dataFeed.latestRoundData();\n        } else {\n            revert();\n        }\n\n        return tokenPrice;\n    }\n\n\n    /**\n     * @notice This function is used for pools containing two tokens.\n     * It takes in a collateral token such as BPT, calculates an equal\n     * value amount of the reserve token such as G$ then mints and returns it.\n     *\n     * @param tokenIn - Address of collateral token\n     * @param amountIn - The amount being traded\n     * @param recipient - Address of person to receive the reserve tokens\n     */\n    function buyReserveToken(\n        address tokenIn,\n        uint256 amountIn,\n        address recipient\n    ) public checkPoolSupported(tokenIn) {\n        // Retrieve a list of tokens, balances and normalised weights for the pool\n        TradeValues memory tradeValues;\n        tradeValues.collateral = IManagedPool(tokenIn);\n        IERC20 collateral = IERC20(tokenIn);\n\n        // Transfer the input tokens from the sender to this contract\n        require(\n            collateral.transferFrom(msg.sender, address(this), amountIn),\n            \"Transfer of input tokens failed\"\n        );\n\n        // Calculate the buyers share of the pool\n        uint256 totalSupply = collateral.totalSupply();\n        uint256 buyersShare = amountIn / totalSupply;\n\n        tradeValues.poolId = tradeValues.collateral.getPoolId();\n        vault.getPool(tradeValues.poolId);\n        tradeValues.normalizedWeights = tradeValues\n            .collateral\n            .getNormalizedWeights();\n\n        (tradeValues.tokens, tradeValues.balances, ) = vault.getPoolTokens(\n            tradeValues.poolId\n        );\n        tradeValues.assets = SupportLib._convertERC20sToAssets(\n            tradeValues.tokens\n        );\n\n        // Calculate token prices using Chainlink. All prices are to 8 decimal places.\n        for (uint256 i = 0; i < tradeValues.tokens.length; i++) {\n            if (tradeValues.balances [i] > 0) {\n                tradeValues.tokenPrices [i] = getTokenPrice(address(tradeValues.tokens [i]));\n            }\n        }\n\n        // Calculate the total value of the pool\n        uint256 totalPoolValue = 0;\n        for (uint256 i = 0; i < tradeValues.tokens.length; i++) {\n            totalPoolValue =\n                totalPoolValue +\n                (tradeValues.balances [i] * uint256(tradeValues.tokenPrices [i]));\n        }\n\n        // Calculate supplied token value\n        uint256 buyersShareValue = buyersShare * totalPoolValue;\n        ReserveToken reserveToken = ReserveToken(\n            RESERVE_TOKEN\n        );\n\n        // Mint and Transfer the output tokens from this contract to the recipient, assuming reserve token is worth $1\n        reserveToken.mint(recipient, buyersShareValue * (10 ** 18));\n    }\n    \n    /**\n     * @notice Runs a check and transfers reserve tokens as needed\n     * @dev To avoid too many fees, this should be run at wide intervals such as daily\n     *\n     * @param tokenIn - Address of reserve token\n     * @param pool - Address of collateral token\n     * @param amountIn - The amount being traded\n     * @param recipient - Address of person to receive the swapped tokens\n     */\n    function sellReserveToken(\n        address tokenIn,\n        address pool,\n        uint256 amountIn,\n        address recipient\n    ) public checkPoolSupported(pool) {\n        // Retrieve a list of tokens, balances and normalised weights for the pool\n        TradeValues memory tradeValues;\n        tradeValues.collateral = IManagedPool(pool);\n        IERC20 bptToken = IERC20(pool);\n        uint256 totalSupply = bptToken.totalSupply();\n\n        // Transfer the input tokens from the sender to this contract\n        IERC20 collateralToken = IERC20(tokenIn);\n        require(\n            collateralToken.transferFrom(msg.sender, address(this), amountIn),\n            \"Transfer of input tokens failed\"\n        );\n\n        tradeValues.poolId = tradeValues.collateral.getPoolId();\n        vault.getPool(tradeValues.poolId);\n        tradeValues.normalizedWeights = tradeValues\n            .collateral\n            .getNormalizedWeights();\n\n        (tradeValues.tokens, tradeValues.balances, ) = vault.getPoolTokens(\n            tradeValues.poolId\n        );\n        tradeValues.assets = SupportLib._convertERC20sToAssets(\n            tradeValues.tokens\n        );\n\n        // Calculate token prices using Chainlink. All prices are to 8 decimal places.\n        for (uint256 i = 0; i < tradeValues.tokens.length; i++) {\n            if (tradeValues.balances [i] > 0) {\n                tradeValues.tokenPrices [i] = getTokenPrice(address(tradeValues.tokens [i]));\n            }\n        }\n\n        // Calculate the total value of the pool\n        uint256 totalPoolValue = 0;\n        for (uint256 i = 0; i < tradeValues.tokens.length; i++) {\n            totalPoolValue =\n                totalPoolValue +\n                (tradeValues.balances [i] * uint256(tradeValues.tokenPrices [i]));\n        }\n\n        // Calculate supplied token value\n        uint256 myShare = amountIn / totalSupply;\n        uint256 myBptAmount = myShare * totalSupply;\n\n        // Transfer the output tokens from this contract to the recipient\n        bptToken.transfer(recipient, myBptAmount * (10 ** 18));\n    }\n\n    /**\n     * @notice returns the array index containing supplied address\n     *\n     * @param value - Address to find\n     */\n    function find(address value) private view returns (uint) {\n        uint i = 0;\n        while (registeredPools [i] != value) {\n            i++;\n        }\n        return i;\n    }\n\n    /**\n     * @notice removes supplied address from array of addresses\n     *\n     * @param value - Address to look up and remove element\n     */\n    function removeByValue(address value) private {\n        uint i = find(value);\n        removeByIndex(i);\n    }\n\n    /**\n     * @notice remove the item at index, resizing array as needed\n     *\n     * @param i - Index to remove\n     */\n    function removeByIndex(uint i) private {\n        while (i < registeredPools.length - 1) {\n            registeredPools [i] = registeredPools [i + 1];\n            i++;\n        }\n        registeredPools.pop();\n    }\n\n    /**\n     * @dev Modifier to check token allowance\n     *\n     * @param supportedManagedPool - Managed pool address to remove\n     */\n    modifier checkPoolSupported(address supportedManagedPool) {\n        require(find(supportedManagedPool) != 0, \"Pool not registered\");\n        _;\n    }\n}\n",
  "sourcePath": "/home/logan/Source/BalancerController/Balancer.Controller/contracts/ReserveController.sol",
  "compiler": {
    "name": "solc",
    "version": "0.8.0+commit.c7dfd78e.Emscripten.clang"
  },
  "schemaVersion": "3.4.14",
  "updatedAt": "2023-07-23T18:43:32.915Z",
  "devdoc": {
    "kind": "dev",
    "methods": {
      "JoinPool(bytes32,address,address,address[],uint256[],bytes,bool)": {
        "params": {
          "assets": "- Assets being transferred in",
          "fromInternalBalance": "- Is this transferred from internal balance?",
          "maxAmountsIn": "- Amount being transferred in",
          "poolId": "- Pool identifier",
          "recipient": "- Recipient address",
          "sender": "- Sender address",
          "userData": "- Encoded user data"
        }
      },
      "buyReserveToken(address,uint256,address)": {
        "params": {
          "amountIn": "- The amount being traded",
          "recipient": "- Address of person to receive the reserve tokens",
          "tokenIn": "- Address of collateral token"
        }
      },
      "constructor": {
        "params": {
          "supportedManagedPoolFactory": "- ManegedPoolFactory address",
          "vaultAddress": "- Vault contract address"
        }
      },
      "createPool(string,string,address[],uint256[],address[],uint256,bool,bool,uint256,uint256,bytes32)": {
        "params": {
          "assetManagers": "- Asset manager for the pool",
          "aumFeeId": "- Aum Fee Id",
          "isMustAllowlistLPs": "- List of LP's allowed in the pool",
          "isSwapEnabledOnStart": "- Whether swaps are enabled straight away",
          "managementAumFeePercentage": "- Management Aum fee to apply",
          "name": "- Pool name",
          "normalizedWeights": "- Normalized weights in the pool",
          "salt": "- Salt applied to address to ensure uniqueness",
          "swapFeePercentage": "- Fee applied to swaps",
          "symbol": "- Symbol representing the pool",
          "tokens": "- Tokens in the pool"
        }
      },
      "deRegisterManagedPool(address)": {
        "params": {
          "managedPool": "- Address of pool being worked on."
        }
      },
      "getTokenPrice(address)": {
        "params": {
          "value": "- Address to find"
        }
      },
      "registerManagedPool(address)": {
        "params": {
          "managedPool": "- Address of pool being worked on."
        }
      },
      "sellReserveToken(address,address,uint256,address)": {
        "details": "To avoid too many fees, this should be run at wide intervals such as daily",
        "params": {
          "amountIn": "- The amount being traded",
          "pool": "- Address of collateral token",
          "recipient": "- Address of person to receive the swapped tokens",
          "tokenIn": "- Address of reserve token"
        }
      },
      "transferManagement(address)": {
        "details": "Only one manager can presently be set",
        "params": {
          "supportedManager": "- New manager."
        }
      }
    },
    "version": 1
  },
  "userdoc": {
    "kind": "user",
    "methods": {
      "JoinPool(bytes32,address,address,address[],uint256[],bytes,bool)": {
        "notice": "Create and register a new managed pool"
      },
      "buyReserveToken(address,uint256,address)": {
        "notice": "This function is used for pools containing two tokens. It takes in a collateral token such as BPT, calculates an equal value amount of the reserve token such as G$ then mints and returns it."
      },
      "constructor": {
        "notice": "Constructor for the controller base class"
      },
      "createPool(string,string,address[],uint256[],address[],uint256,bool,bool,uint256,uint256,bytes32)": {
        "notice": "Create and register a new managed pool"
      },
      "deRegisterManagedPool(address)": {
        "notice": "Deregister managed pool"
      },
      "getRegisteredPools()": {
        "notice": "returns a list of registered pools"
      },
      "getTokenPrice(address)": {
        "notice": "returns the array index containing supplied address"
      },
      "registerManagedPool(address)": {
        "notice": "Register managed pool"
      },
      "sellReserveToken(address,address,uint256,address)": {
        "notice": "Runs a check and transfers reserve tokens as needed"
      },
      "transferManagement(address)": {
        "notice": "Transfer the manager to a new address"
      }
    },
    "version": 1
  }
}