{
  "contractName": "ReserveController",
  "abi": [
    {
      "inputs": [
        {
          "internalType": "address",
          "name": "vaultAddress",
          "type": "address"
        },
        {
          "internalType": "address",
          "name": "supportedManagedPoolFactory",
          "type": "address"
        }
      ],
      "stateMutability": "nonpayable",
      "type": "constructor"
    },
    {
      "anonymous": false,
      "inputs": [
        {
          "components": [
            {
              "internalType": "string",
              "name": "name",
              "type": "string"
            },
            {
              "internalType": "string",
              "name": "symbol",
              "type": "string"
            },
            {
              "internalType": "address[]",
              "name": "assetManagers",
              "type": "address[]"
            }
          ],
          "indexed": false,
          "internalType": "struct ManagedPoolParams",
          "name": "managedPoolParams",
          "type": "tuple"
        },
        {
          "components": [
            {
              "internalType": "contract IERC20[]",
              "name": "tokens",
              "type": "address[]"
            },
            {
              "internalType": "uint256[]",
              "name": "normalizedWeights",
              "type": "uint256[]"
            },
            {
              "internalType": "uint256",
              "name": "swapFeePercentage",
              "type": "uint256"
            },
            {
              "internalType": "bool",
              "name": "isSwapEnabledOnStart",
              "type": "bool"
            },
            {
              "internalType": "bool",
              "name": "isMustAllowlistLPs",
              "type": "bool"
            },
            {
              "internalType": "uint256",
              "name": "managementAumFeePercentage",
              "type": "uint256"
            },
            {
              "internalType": "uint256",
              "name": "aumFeeId",
              "type": "uint256"
            }
          ],
          "indexed": false,
          "internalType": "struct ManagedPoolSettingsParams",
          "name": "managedPoolSettingsParams",
          "type": "tuple"
        },
        {
          "indexed": false,
          "internalType": "address",
          "name": "callerAddress",
          "type": "address"
        },
        {
          "indexed": false,
          "internalType": "bytes32",
          "name": "salt",
          "type": "bytes32"
        },
        {
          "indexed": false,
          "internalType": "bool",
          "name": "isSuccessful",
          "type": "bool"
        }
      ],
      "name": "CreatedPoolByDelegateCall",
      "type": "event"
    },
    {
      "inputs": [
        {
          "internalType": "address",
          "name": "value",
          "type": "address"
        }
      ],
      "name": "getTokenPrice",
      "outputs": [
        {
          "internalType": "int256",
          "name": "",
          "type": "int256"
        }
      ],
      "stateMutability": "view",
      "type": "function"
    },
    {
      "inputs": [],
      "name": "manager",
      "outputs": [
        {
          "internalType": "address",
          "name": "",
          "type": "address"
        }
      ],
      "stateMutability": "view",
      "type": "function"
    },
    {
      "inputs": [
        {
          "internalType": "address",
          "name": "supportedManager",
          "type": "address"
        }
      ],
      "name": "transferManagement",
      "outputs": [],
      "stateMutability": "nonpayable",
      "type": "function"
    },
    {
      "inputs": [
        {
          "internalType": "string",
          "name": "name",
          "type": "string"
        },
        {
          "internalType": "string",
          "name": "symbol",
          "type": "string"
        },
        {
          "internalType": "contract IERC20[]",
          "name": "tokens",
          "type": "address[]"
        },
        {
          "internalType": "uint256[]",
          "name": "normalizedWeights",
          "type": "uint256[]"
        },
        {
          "internalType": "address[]",
          "name": "assetManagers",
          "type": "address[]"
        },
        {
          "internalType": "uint256",
          "name": "swapFeePercentage",
          "type": "uint256"
        },
        {
          "internalType": "bool",
          "name": "isSwapEnabledOnStart",
          "type": "bool"
        },
        {
          "internalType": "bool",
          "name": "isMustAllowlistLPs",
          "type": "bool"
        },
        {
          "internalType": "uint256",
          "name": "managementAumFeePercentage",
          "type": "uint256"
        },
        {
          "internalType": "uint256",
          "name": "aumFeeId",
          "type": "uint256"
        },
        {
          "internalType": "bytes32",
          "name": "salt",
          "type": "bytes32"
        }
      ],
      "name": "createPool",
      "outputs": [],
      "stateMutability": "nonpayable",
      "type": "function"
    },
    {
      "inputs": [],
      "name": "getRegisteredPools",
      "outputs": [
        {
          "internalType": "address[]",
          "name": "",
          "type": "address[]"
        }
      ],
      "stateMutability": "view",
      "type": "function"
    },
    {
      "inputs": [
        {
          "internalType": "address",
          "name": "managedPool",
          "type": "address"
        }
      ],
      "name": "registerManagedPool",
      "outputs": [],
      "stateMutability": "nonpayable",
      "type": "function"
    },
    {
      "inputs": [
        {
          "internalType": "address",
          "name": "managedPool",
          "type": "address"
        }
      ],
      "name": "deRegisterManagedPool",
      "outputs": [],
      "stateMutability": "nonpayable",
      "type": "function"
    },
    {
      "inputs": [
        {
          "internalType": "address",
          "name": "tokenIn",
          "type": "address"
        },
        {
          "internalType": "uint256",
          "name": "amountIn",
          "type": "uint256"
        },
        {
          "internalType": "address",
          "name": "recipient",
          "type": "address"
        }
      ],
      "name": "buyReserveToken",
      "outputs": [],
      "stateMutability": "nonpayable",
      "type": "function"
    },
    {
      "inputs": [
        {
          "internalType": "address",
          "name": "tokenIn",
          "type": "address"
        },
        {
          "internalType": "address",
          "name": "pool",
          "type": "address"
        },
        {
          "internalType": "uint256",
          "name": "amountIn",
          "type": "uint256"
        },
        {
          "internalType": "address",
          "name": "recipient",
          "type": "address"
        }
      ],
      "name": "sellReserveToken",
      "outputs": [],
      "stateMutability": "nonpayable",
      "type": "function"
    }
  ],
  "bytecode": "0x60c06040523480156200001157600080fd5b50604051620020b9380380620020b9833981016040819052620000349162000087565b6001600081905580546001600160a01b031916331790556001600160601b0319606092831b8116608052911b1660a052620000be565b80516001600160a01b03811681146200008257600080fd5b919050565b600080604083850312156200009a578182fd5b620000a5836200006a565b9150620000b5602084016200006a565b90509250929050565b60805160601c60a05160601c611fba620000ff60003960006108420152600081816103c0015281816104df01528181610b6a0152610c890152611fba6000f3fe608060405234801561001057600080fd5b50600436106100935760003560e01c80638c4288cd116100665780638c4288cd146100f3578063c944994c14610106578063d02641a014610119578063d22320e214610139578063e4edf8521461014c57610093565b8063041ead601461009857806347958851146100ad578063481c6a75146100c0578063659d4f5c146100de575b600080fd5b6100ab6100a6366004611726565b61015f565b005b6100ab6100bb3660046117f3565b6101c8565b6100c8610770565b6040516100d59190611c9a565b60405180910390f35b6100e661077f565b6040516100d59190611ceb565b6100ab61010136600461196f565b6107e1565b6100ab610114366004611765565b61097c565b61012c610127366004611726565b610f31565b6040516100d59190611cfe565b6100ab610147366004611726565b6112c3565b6100ab61015a366004611726565b6112e6565b6001546001600160a01b0316331461017657600080fd5b600280546001810182556000919091527f405787fa12a823e0f2b7631cc41b3ba8828b3321ca811111fa75cd3aa3bb5ace0180546001600160a01b0319166001600160a01b0392909216919091179055565b6101d061131f565b826101da81611349565b6101ff5760405162461bcd60e51b81526004016101f690611d3e565b60405180910390fd5b6102076114c2565b6001600160a01b0385168082526040516323b872dd60e01b81528691906323b872dd9061023c90339030908a90600401611cae565b602060405180830381600087803b15801561025657600080fd5b505af115801561026a573d6000803e3d6000fd5b505050506040513d601f19601f8201168201806040525081019061028e919061193b565b6102aa5760405162461bcd60e51b81526004016101f690611d07565b6000816001600160a01b03166318160ddd6040518163ffffffff1660e01b815260040160206040518083038186803b1580156102e557600080fd5b505afa1580156102f9573d6000803e3d6000fd5b505050506040513d601f19601f8201168201806040525081019061031d9190611957565b9050600061032b8288611e98565b905083600001516001600160a01b03166338fff2d06040518163ffffffff1660e01b815260040160206040518083038186803b15801561036a57600080fd5b505afa15801561037e573d6000803e3d6000fd5b505050506040513d601f19601f820116820180604052508101906103a29190611957565b6020850181905260405163f6c0092760e01b81526001600160a01b037f0000000000000000000000000000000000000000000000000000000000000000169163f6c00927916103f49190600401611cfe565b604080518083038186803b15801561040b57600080fd5b505afa15801561041f573d6000803e3d6000fd5b505050506040513d601f19601f8201168201806040525081019061044391906117b7565b505083600001516001600160a01b031663f89f27ed6040518163ffffffff1660e01b815260040160006040518083038186803b15801561048257600080fd5b505afa158015610496573d6000803e3d6000fd5b505050506040513d6000823e601f3d908101601f191682016040526104be9190810190611900565b60608501526020840151604051631f29a8cd60e31b81526001600160a01b037f0000000000000000000000000000000000000000000000000000000000000000169163f94d4668916105139190600401611cfe565b60006040518083038186803b15801561052b57600080fd5b505afa15801561053f573d6000803e3d6000fd5b505050506040513d6000823e601f3d908101601f191682016040526105679190810190611834565b5060a08601526080850181905261057d906113a4565b60c085015260005b84608001515181101561063d5760008560a0015182815181106105b857634e487b7160e01b600052603260045260246000fd5b6020026020010151111561062b576105fa856080015182815181106105ed57634e487b7160e01b600052603260045260246000fd5b6020026020010151610f31565b8560400151828151811061061e57634e487b7160e01b600052603260045260246000fd5b6020026020010181815250505b8061063581611f1a565b915050610585565b506000805b8560800151518110156106cf578560400151818151811061067357634e487b7160e01b600052603260045260246000fd5b60200260200101518660a00151828151811061069f57634e487b7160e01b600052603260045260246000fd5b60200260200101516106b19190611eb8565b6106bb9083611e80565b9150806106c781611f1a565b915050610642565b5060006106dc8284611eb8565b90507398a90ecfb163d138ec289d05362f20613a0c02ac806340c10f198a61070c85670de0b6b3a7640000611eb8565b6040518363ffffffff1660e01b8152600401610729929190611cd2565b600060405180830381600087803b15801561074357600080fd5b505af1158015610757573d6000803e3d6000fd5b50505050505050505050505061076b6113a7565b505050565b6001546001600160a01b031681565b606060028054806020026020016040519081016040528092919081815260200182805480156107d757602002820191906000526020600020905b81546001600160a01b031681526001909101906020018083116107b9575b5050505050905090565b6107e961150b565b8b8152602081018b90526040810188905261080261152c565b8a8152602081018a905260408082018990528715156060830152861515608083015260a0820186905260c082018590525160009081906001600160a01b037f00000000000000000000000000000000000000000000000000000000000000001690637304b8b960e01b90610880908790879033908b90602401611da2565b60408051601f198184030181529181526020820180516001600160e01b03166001600160e01b03199094169390931790925290516108be9190611c7e565b600060405180830381855af49150503d80600081146108f9576040519150601f19603f3d011682016040523d82523d6000602084013e6108fe565b606091505b50915091507f15fd418169a4890b496e7cb6e8a9d72d1790b6247d3ebe27b87894ff2c3e4354848433888660405161093a959493929190611de4565b60405180910390a1811561096b5760008180602001905181019061095e9190611749565b90506109698161015f565b505b505050505050505050505050505050565b61098461131f565b8261098e81611349565b6109aa5760405162461bcd60e51b81526004016101f690611d3e565b6109b26114c2565b6001600160a01b038516808252604080516318160ddd60e01b81529051879260009290916318160ddd91600480820192602092909190829003018186803b1580156109fc57600080fd5b505afa158015610a10573d6000803e3d6000fd5b505050506040513d601f19601f82011682018060405250810190610a349190611957565b6040516323b872dd60e01b815290915088906001600160a01b038216906323b872dd90610a6990339030908c90600401611cae565b602060405180830381600087803b158015610a8357600080fd5b505af1158015610a97573d6000803e3d6000fd5b505050506040513d601f19601f82011682018060405250810190610abb919061193b565b610ad75760405162461bcd60e51b81526004016101f690611d07565b83600001516001600160a01b03166338fff2d06040518163ffffffff1660e01b815260040160206040518083038186803b158015610b1457600080fd5b505afa158015610b28573d6000803e3d6000fd5b505050506040513d601f19601f82011682018060405250810190610b4c9190611957565b6020850181905260405163f6c0092760e01b81526001600160a01b037f0000000000000000000000000000000000000000000000000000000000000000169163f6c0092791610b9e9190600401611cfe565b604080518083038186803b158015610bb557600080fd5b505afa158015610bc9573d6000803e3d6000fd5b505050506040513d601f19601f82011682018060405250810190610bed91906117b7565b505083600001516001600160a01b031663f89f27ed6040518163ffffffff1660e01b815260040160006040518083038186803b158015610c2c57600080fd5b505afa158015610c40573d6000803e3d6000fd5b505050506040513d6000823e601f3d908101601f19168201604052610c689190810190611900565b60608501526020840151604051631f29a8cd60e31b81526001600160a01b037f0000000000000000000000000000000000000000000000000000000000000000169163f94d466891610cbd9190600401611cfe565b60006040518083038186803b158015610cd557600080fd5b505afa158015610ce9573d6000803e3d6000fd5b505050506040513d6000823e601f3d908101601f19168201604052610d119190810190611834565b5060a086015260808501819052610d27906113a4565b60c085015260005b846080015151811015610dda5760008560a001518281518110610d6257634e487b7160e01b600052603260045260246000fd5b60200260200101511115610dc857610d97856080015182815181106105ed57634e487b7160e01b600052603260045260246000fd5b85604001518281518110610dbb57634e487b7160e01b600052603260045260246000fd5b6020026020010181815250505b80610dd281611f1a565b915050610d2f565b506000805b856080015151811015610e6c5785604001518181518110610e1057634e487b7160e01b600052603260045260246000fd5b60200260200101518660a001518281518110610e3c57634e487b7160e01b600052603260045260246000fd5b6020026020010151610e4e9190611eb8565b610e589083611e80565b915080610e6481611f1a565b915050610ddf565b506000610e79848a611e98565b90506000610e878583611eb8565b90506001600160a01b03861663a9059cbb8a610eab84670de0b6b3a7640000611eb8565b6040518363ffffffff1660e01b8152600401610ec8929190611cd2565b602060405180830381600087803b158015610ee257600080fd5b505af1158015610ef6573d6000803e3d6000fd5b505050506040513d601f19601f82011682018060405250810190610f1a919061193b565b505050505050505050610f2b6113a7565b50505050565b6000806001600160a01b03831673baab46e28388d2779e6e31fd00cf0e5ad95e327b1415610ff157600073128fe88eaa22bffb868bb3a584a54c96ee24014b9050806001600160a01b031663feaf968c6040518163ffffffff1660e01b815260040160a06040518083038186803b158015610fab57600080fd5b505afa158015610fbf573d6000803e3d6000fd5b505050506040513d601f19601f82011682018060405250810190610fe39190611a89565b509194506112bb9350505050565b6001600160a01b03831673471ece3750da237f93b8e339c536989b8978a4381415611068576000730568fd19986748ceff3301e55c0eb1e729e0ab7e9050806001600160a01b031663feaf968c6040518163ffffffff1660e01b815260040160a06040518083038186803b158015610fab57600080fd5b6001600160a01b03831673122013fd7df1c6f636a5bb8f03108e876548b45514156110df576000731fcd30a73d67639c1cd89ff5746e7585731c083b9050806001600160a01b031663feaf968c6040518163ffffffff1660e01b815260040160a06040518083038186803b158015610fab57600080fd5b6001600160a01b03831673d8763cba276a3738e6de85b4b3bf5fded6d6ca731415611156576000733d207061dbe8e2473527611bfecb87ff12b28dda9050806001600160a01b031663feaf968c6040518163ffffffff1660e01b815260040160a06040518083038186803b158015610fab57600080fd5b6001600160a01b0383167372d7f41ef46a988b13530f67423b36cd9cadbc3a14156111cd576000736b6a4c71ec3858a024f3f0ee44bb0adcbed3dcc29050806001600160a01b031663feaf968c6040518163ffffffff1660e01b815260040160a06040518083038186803b158015610fab57600080fd5b6001600160a01b038316732a3684e9dc20b857375ea04235f2f7edbe818fa7141561124457600073c7a353bae210aed958a1a2928b654938ec59dab29050806001600160a01b031663feaf968c6040518163ffffffff1660e01b815260040160a06040518083038186803b158015610fab57600080fd5b6001600160a01b03831673f6d198cd2a85bb2f3021cdbdab6b878474079be71415610093576000735e37af40a7a344ec9b03ccd34a250f3da9a20b029050806001600160a01b031663feaf968c6040518163ffffffff1660e01b815260040160a06040518083038186803b158015610fab57600080fd5b90505b919050565b6001546001600160a01b031633146112da57600080fd5b6112e3816113ae565b50565b6001546001600160a01b031633146112fd57600080fd5b600180546001600160a01b0319166001600160a01b0392909216919091179055565b600260005414156113425760405162461bcd60e51b81526004016101f690611d6b565b6002600055565b6000805b826001600160a01b03166002828154811061137857634e487b7160e01b600052603260045260246000fd5b6000918252602090912001546001600160a01b0316146112bb578061139c81611f1a565b91505061134d565b90565b6001600055565b60006113b982611349565b90506113c4816113c8565b5050565b6002546113d790600190611ed7565b81101561147e5760026113eb826001611e80565b8154811061140957634e487b7160e01b600052603260045260246000fd5b600091825260209091200154600280546001600160a01b03909216918390811061144357634e487b7160e01b600052603260045260246000fd5b600091825260209091200180546001600160a01b0319166001600160a01b03929092169190911790558061147681611f1a565b9150506113c8565b600280548061149d57634e487b7160e01b600052603160045260246000fd5b600082815260209020810160001990810180546001600160a01b031916905501905550565b6040518060e0016040528060006001600160a01b031681526020016000801916815260200160608152602001606081526020016060815260200160608152602001606081525090565b60405180606001604052806060815260200160608152602001606081525090565b6040518060e0016040528060608152602001606081526020016000815260200160001515815260200160001515815260200160008152602001600081525090565b600082601f83011261157d578081fd5b8135602061159261158d83611e5c565b611e32565b82815281810190858301838502870184018810156115ae578586fd5b855b858110156115d55781356115c381611f61565b845292840192908401906001016115b0565b5090979650505050505050565b600082601f8301126115f2578081fd5b8135602061160261158d83611e5c565b828152818101908583018385028701840188101561161e578586fd5b855b858110156115d557813584529284019290840190600101611620565b600082601f83011261164c578081fd5b8151602061165c61158d83611e5c565b8281528181019085830183850287018401881015611678578586fd5b855b858110156115d55781518452928401929084019060010161167a565b80356112be81611f76565b600082601f8301126116b1578081fd5b813567ffffffffffffffff8111156116cb576116cb611f4b565b6116de601f8201601f1916602001611e32565b8181528460208386010111156116f2578283fd5b816020850160208301379081016020019190915292915050565b805169ffffffffffffffffffff811681146112be57600080fd5b600060208284031215611737578081fd5b813561174281611f61565b9392505050565b60006020828403121561175a578081fd5b815161174281611f61565b6000806000806080858703121561177a578283fd5b843561178581611f61565b9350602085013561179581611f61565b92506040850135915060608501356117ac81611f61565b939692955090935050565b600080604083850312156117c9578182fd5b82516117d481611f61565b6020840151909250600381106117e8578182fd5b809150509250929050565b600080600060608486031215611807578081fd5b833561181281611f61565b925060208401359150604084013561182981611f61565b809150509250925092565b600080600060608486031215611848578081fd5b835167ffffffffffffffff8082111561185f578283fd5b818601915086601f830112611872578283fd5b8151602061188261158d83611e5c565b82815281810190858301838502870184018c101561189e578788fd5b8796505b848710156118c95780516118b581611f61565b8352600196909601959183019183016118a2565b50918901519197509093505050808211156118e2578283fd5b506118ef8682870161163c565b925050604084015190509250925092565b600060208284031215611911578081fd5b815167ffffffffffffffff811115611927578182fd5b6119338482850161163c565b949350505050565b60006020828403121561194c578081fd5b815161174281611f76565b600060208284031215611968578081fd5b5051919050565b60008060008060008060008060008060006101608c8e031215611990578889fd5b67ffffffffffffffff808d3511156119a657898afd5b6119b38e8e358f016116a1565b9b508060208e013511156119c557898afd5b6119d58e60208f01358f016116a1565b9a508060408e013511156119e757898afd5b6119f78e60408f01358f0161156d565b99508060608e01351115611a09578788fd5b611a198e60608f01358f016115e2565b98508060808e01351115611a2b578788fd5b50611a3c8d60808e01358e0161156d565b965060a08c01359550611a5160c08d01611696565b9450611a5f60e08d01611696565b93506101008c013592506101208c013591506101408c013590509295989b509295989b9093969950565b600080600080600060a08688031215611aa0578283fd5b611aa98661170c565b9450602086015193506040860151925060608601519150611acc6080870161170c565b90509295509295909350565b6000815180845260208085019450808401835b83811015611b105781516001600160a01b031687529582019590820190600101611aeb565b509495945050505050565b6000815180845260208085019450808401835b83811015611b1057815187529582019590820190600101611b2e565b15159052565b60008151808452611b68816020860160208601611eee565b601f01601f19169290920160200192915050565b6000815160608452611b916060850182611b50565b905060208301518482036020860152611baa8282611b50565b91505060408301518482036040860152611bc48282611ad8565b95945050505050565b805160e0808452815190840181905260009160209190820190610100860190845b81811015611c135783516001600160a01b031683529284019291840191600101611bee565b505082850151915085810383870152611c2c8183611b1b565b92505050604083015160408501526060830151611c4c6060860182611b4a565b506080830151611c5f6080860182611b4a565b5060a083015160a085015260c083015160c08501528091505092915050565b60008251611c90818460208701611eee565b9190910192915050565b6001600160a01b0391909116815260200190565b6001600160a01b039384168152919092166020820152604081019190915260600190565b6001600160a01b03929092168252602082015260400190565b6000602082526117426020830184611ad8565b90815260200190565b6020808252601f908201527f5472616e73666572206f6620696e70757420746f6b656e73206661696c656400604082015260600190565b602080825260139082015272141bdbdb081b9bdd081c9959da5cdd195c9959606a1b604082015260600190565b6020808252601f908201527f5265656e7472616e637947756172643a207265656e7472616e742063616c6c00604082015260600190565b600060808252611db56080830187611b7c565b8281036020840152611dc78187611bcd565b6001600160a01b0395909516604084015250506060015292915050565b600060a08252611df760a0830188611b7c565b8281036020840152611e098188611bcd565b6001600160a01b0396909616604084015250506060810192909252151560809091015292915050565b60405181810167ffffffffffffffff81118282101715611e5457611e54611f4b565b604052919050565b600067ffffffffffffffff821115611e7657611e76611f4b565b5060209081020190565b60008219821115611e9357611e93611f35565b500190565b600082611eb357634e487b7160e01b81526012600452602481fd5b500490565b6000816000190483118215151615611ed257611ed2611f35565b500290565b600082821015611ee957611ee9611f35565b500390565b60005b83811015611f09578181015183820152602001611ef1565b83811115610f2b5750506000910152565b6000600019821415611f2e57611f2e611f35565b5060010190565b634e487b7160e01b600052601160045260246000fd5b634e487b7160e01b600052604160045260246000fd5b6001600160a01b03811681146112e357600080fd5b80151581146112e357600080fdfea264697066735822122093529b53235dd420303923cfb2512822f240ee9d83b9b8c86e5275a1ac965e3764736f6c63430008000033",
  "immutableReferences": {
    "1866": [
      {
        "length": 32,
        "start": 960
      },
      {
        "length": 32,
        "start": 1247
      },
      {
        "length": 32,
        "start": 2922
      },
      {
        "length": 32,
        "start": 3209
      }
    ],
    "1868": [
      {
        "length": 32,
        "start": 2114
      }
    ]
  },
  "source": "// SPDX-License-Identifier: MIT\n\npragma solidity ^0.8.0;\npragma experimental ABIEncoderV2;\n\nimport \"./base/BaseUtils.sol\";\nimport \"@balancer-labs/v2-interfaces/contracts/pool-utils/IManagedPool.sol\";\nimport \"@balancer-labs/v2-interfaces/contracts/vault/IVault.sol\";\nimport \"./lib/ManagedPoolFactory.sol\";\nimport \"./lib/ReserveToken.sol\";\n\ncontract ReserveController is BaseUtils {\n\n    address private constant RESERVE_TOKEN = 0x98A90EcFB163d138eC289D05362f20613A0C02aC;\n\n    event CreatedPoolByDelegateCall(\n        ManagedPoolParams managedPoolParams,\n        ManagedPoolSettingsParams managedPoolSettingsParams,\n        address callerAddress,\n        bytes32 salt,\n        bool isSuccessful\n    );\n\n    struct TradeValues {\n        IManagedPool collateral;\n        bytes32 poolId;\n        int [] tokenPrices;\n        uint256 [] normalizedWeights;\n        IERC20 [] tokens;\n        uint256 [] balances;\n        IAsset [] assets;\n    }\n\n    struct JoinPoolRequest {\n        IERC20[] assets;\n        uint256[] maxAmountsIn;\n        bytes userData;\n        bool fromInternalBalance;\n    }\n\n    address [] private registeredPools;\n    IVault internal immutable vault;\n    address internal immutable managedPoolFactory;\n\n    /**\n     * @notice Constructor for the controller base class\n     *\n     * @param vaultAddress - Vault contract address\n     * @param supportedManagedPoolFactory - ManegedPoolFactory address\n     */\n    constructor(address vaultAddress, address supportedManagedPoolFactory) {\n        manager = msg.sender;\n        vault = IVault(vaultAddress);\n        managedPoolFactory = supportedManagedPoolFactory;\n    }\n\n    /**\n     * @notice Create and register a new managed pool\n     *\n     * @param name - Pool name\n     * @param symbol - Symbol representing the pool\n     * @param tokens - Tokens in the pool\n     * @param normalizedWeights - Normalized weights in the pool\n     * @param assetManagers - Asset manager for the pool\n     * @param swapFeePercentage - Fee applied to swaps\n     * @param isSwapEnabledOnStart - Whether swaps are enabled straight away\n     * @param isMustAllowlistLPs - List of LP's allowed in the pool\n     * @param managementAumFeePercentage - Management Aum fee to apply\n     * @param aumFeeId - Aum Fee Id\n     * @param salt - Salt applied to address to ensure uniqueness\n     */\n    function createPool(\n        string memory name,\n        string memory symbol,\n        IERC20 [] memory tokens,\n        uint256 [] memory normalizedWeights,\n        address [] memory assetManagers,\n        uint256 swapFeePercentage,\n        bool isSwapEnabledOnStart,\n        bool isMustAllowlistLPs,\n        uint256 managementAumFeePercentage,\n        uint256 aumFeeId,\n        bytes32 salt\n    ) public{\n        ManagedPoolParams memory poolParams;\n        poolParams.name = name;\n        poolParams.symbol = symbol;\n        poolParams.assetManagers = assetManagers;\n\n        ManagedPoolSettingsParams memory poolSettingsParams;\n        poolSettingsParams.tokens = tokens;\n        poolSettingsParams.normalizedWeights = normalizedWeights;\n        poolSettingsParams.swapFeePercentage = swapFeePercentage;\n        poolSettingsParams.isSwapEnabledOnStart = isSwapEnabledOnStart;\n        poolSettingsParams.isMustAllowlistLPs = isMustAllowlistLPs;\n        poolSettingsParams\n            .managementAumFeePercentage = managementAumFeePercentage;\n        poolSettingsParams.aumFeeId = aumFeeId;\n\n        (bool isSuccessful, bytes memory result) = managedPoolFactory.delegatecall(\n            abi.encodeWithSelector(\n                ManagedPoolFactory.create.selector,\n                poolParams,\n                poolSettingsParams,\n                msg.sender,\n                salt\n            )\n        );\n\n        emit CreatedPoolByDelegateCall(\n            poolParams,\n            poolSettingsParams,\n            msg.sender,\n            salt,\n            isSuccessful\n        );\n        if (isSuccessful) {\n            address poolAddress = abi.decode(result, (address));\n            registerManagedPool(poolAddress);\n        }\n    }\n\n    /**\n     * @notice returns a list of registered pools\n     *\n     */\n    function getRegisteredPools() public view returns (address [] memory) {\n        return registeredPools;\n    }\n\n    /**\n     * @notice Register managed pool\n     *\n     * @param managedPool - Address of pool being worked on.\n     */\n    function registerManagedPool(\n        address managedPool\n    ) public restricted {\n        registeredPools.push(managedPool);\n    }\n\n    /**\n     * @notice Deregister managed pool\n     *\n     * @param managedPool - Address of pool being worked on.\n     */\n    function deRegisterManagedPool(\n        address managedPool\n    ) public restricted {\n        removeByValue(managedPool);\n    }\n\n    /**\n     * @notice This function is used for pools containing two tokens.\n     * It takes in a collateral token such as BPT, calculates an equal\n     * value amount of the reserve token such as G$ then mints and returns it.\n     *\n     * @param tokenIn - Address of collateral token\n     * @param amountIn - The amount being traded\n     * @param recipient - Address of person to receive the reserve tokens\n     */\n    function buyReserveToken(\n        address tokenIn,\n        uint256 amountIn,\n        address recipient\n    ) public nonReentrant checkPoolSupported(tokenIn) {\n        // Retrieve a list of tokens, balances and normalised weights for the pool\n        TradeValues memory tradeValues;\n        tradeValues.collateral = IManagedPool(tokenIn);\n        IERC20 collateral = IERC20(tokenIn);\n\n        // Transfer the input tokens from the sender to this contract\n        require(\n            collateral.transferFrom(msg.sender, address(this), amountIn),\n            \"Transfer of input tokens failed\"\n        );\n\n        // Calculate the buyers share of the pool\n        uint256 totalSupply = collateral.totalSupply();\n        uint256 buyersShare = amountIn / totalSupply;\n\n        tradeValues.poolId = tradeValues.collateral.getPoolId();\n        vault.getPool(tradeValues.poolId);\n        tradeValues.normalizedWeights = tradeValues\n            .collateral\n            .getNormalizedWeights();\n\n        (tradeValues.tokens, tradeValues.balances, ) = vault.getPoolTokens(\n            tradeValues.poolId\n        );\n        tradeValues.assets = SupportLib._convertERC20sToAssets(\n            tradeValues.tokens\n        );\n\n        // Calculate token prices using Chainlink. All prices are to 8 decimal places.\n        for (uint256 i = 0; i < tradeValues.tokens.length; i++) {\n            if (tradeValues.balances [i] > 0) {\n                tradeValues.tokenPrices [i] = getTokenPrice(address(tradeValues.tokens [i]));\n            }\n        }\n\n        // Calculate the total value of the pool\n        uint256 totalPoolValue = 0;\n        for (uint256 i = 0; i < tradeValues.tokens.length; i++) {\n            totalPoolValue =\n                totalPoolValue +\n                (tradeValues.balances [i] * uint256(tradeValues.tokenPrices [i]));\n        }\n\n        // Calculate supplied token value\n        uint256 buyersShareValue = buyersShare * totalPoolValue;\n        ReserveToken reserveToken = ReserveToken(\n            RESERVE_TOKEN\n        );\n\n        // Mint and Transfer the output tokens from this contract to the recipient, assuming reserve token is worth $1\n        reserveToken.mint(recipient, buyersShareValue * (10 ** 18));\n    }\n    \n    /**\n     * @notice Runs a check and transfers reserve tokens as needed\n     * @dev To avoid too many fees, this should be run at wide intervals such as daily\n     *\n     * @param tokenIn - Address of reserve token\n     * @param pool - Address of collateral token\n     * @param amountIn - The amount being traded\n     * @param recipient - Address of person to receive the swapped tokens\n     */\n    function sellReserveToken(\n        address tokenIn,\n        address pool,\n        uint256 amountIn,\n        address recipient\n    ) public nonReentrant checkPoolSupported(pool) {\n        // Retrieve a list of tokens, balances and normalised weights for the pool\n        TradeValues memory tradeValues;\n        tradeValues.collateral = IManagedPool(pool);\n        IERC20 bptToken = IERC20(pool);\n        uint256 totalSupply = bptToken.totalSupply();\n\n        // Transfer the input tokens from the sender to this contract\n        IERC20 collateralToken = IERC20(tokenIn);\n        require(\n            collateralToken.transferFrom(msg.sender, address(this), amountIn),\n            \"Transfer of input tokens failed\"\n        );\n\n        tradeValues.poolId = tradeValues.collateral.getPoolId();\n        vault.getPool(tradeValues.poolId);\n        tradeValues.normalizedWeights = tradeValues\n            .collateral\n            .getNormalizedWeights();\n\n        (tradeValues.tokens, tradeValues.balances, ) = vault.getPoolTokens(\n            tradeValues.poolId\n        );\n        tradeValues.assets = SupportLib._convertERC20sToAssets(\n            tradeValues.tokens\n        );\n\n        // Calculate token prices using Chainlink. All prices are to 8 decimal places.\n        for (uint256 i = 0; i < tradeValues.tokens.length; i++) {\n            if (tradeValues.balances [i] > 0) {\n                tradeValues.tokenPrices [i] = getTokenPrice(address(tradeValues.tokens [i]));\n            }\n        }\n\n        // Calculate the total value of the pool\n        uint256 totalPoolValue = 0;\n        for (uint256 i = 0; i < tradeValues.tokens.length; i++) {\n            totalPoolValue =\n                totalPoolValue +\n                (tradeValues.balances [i] * uint256(tradeValues.tokenPrices [i]));\n        }\n\n        // Calculate supplied token value\n        uint256 myShare = amountIn / totalSupply;\n        uint256 myBptAmount = myShare * totalSupply;\n\n        // Transfer the output tokens from this contract to the recipient\n        bptToken.transfer(recipient, myBptAmount * (10 ** 18));\n    }\n\n    /**\n     * @notice returns the array index containing supplied address\n     *\n     * @param value - Address to find\n     */\n    function find(address value) private view returns (uint) {\n        uint i = 0;\n        while (registeredPools [i] != value) {\n            i++;\n        }\n        return i;\n    }\n\n    /**\n     * @notice removes supplied address from array of addresses\n     *\n     * @param value - Address to look up and remove element\n     */\n    function removeByValue(address value) private {\n        uint i = find(value);\n        removeByIndex(i);\n    }\n\n    /**\n     * @notice remove the item at index, resizing array as needed\n     *\n     * @param i - Index to remove\n     */\n    function removeByIndex(uint i) private {\n        while (i < registeredPools.length - 1) {\n            registeredPools [i] = registeredPools [i + 1];\n            i++;\n        }\n        registeredPools.pop();\n    }\n\n    /**\n     * @dev Modifier to check token allowance\n     *\n     * @param supportedManagedPool - Managed pool address to remove\n     */\n    modifier checkPoolSupported(address supportedManagedPool) {\n        require(find(supportedManagedPool) != 0, \"Pool not registered\");\n        _;\n    }\n}\n",
  "sourcePath": "/home/logan/Source/BalancerController/Balancer.Controller/contracts/ReserveController.sol",
  "compiler": {
    "name": "solc",
    "version": "0.8.0+commit.c7dfd78e.Emscripten.clang"
  },
  "schemaVersion": "3.4.14",
  "updatedAt": "2023-08-06T19:44:02.425Z",
  "devdoc": {
    "kind": "dev",
    "methods": {
      "buyReserveToken(address,uint256,address)": {
        "params": {
          "amountIn": "- The amount being traded",
          "recipient": "- Address of person to receive the reserve tokens",
          "tokenIn": "- Address of collateral token"
        }
      },
      "constructor": {
        "params": {
          "supportedManagedPoolFactory": "- ManegedPoolFactory address",
          "vaultAddress": "- Vault contract address"
        }
      },
      "createPool(string,string,address[],uint256[],address[],uint256,bool,bool,uint256,uint256,bytes32)": {
        "params": {
          "assetManagers": "- Asset manager for the pool",
          "aumFeeId": "- Aum Fee Id",
          "isMustAllowlistLPs": "- List of LP's allowed in the pool",
          "isSwapEnabledOnStart": "- Whether swaps are enabled straight away",
          "managementAumFeePercentage": "- Management Aum fee to apply",
          "name": "- Pool name",
          "normalizedWeights": "- Normalized weights in the pool",
          "salt": "- Salt applied to address to ensure uniqueness",
          "swapFeePercentage": "- Fee applied to swaps",
          "symbol": "- Symbol representing the pool",
          "tokens": "- Tokens in the pool"
        }
      },
      "deRegisterManagedPool(address)": {
        "params": {
          "managedPool": "- Address of pool being worked on."
        }
      },
      "getTokenPrice(address)": {
        "params": {
          "value": "- Address to find"
        }
      },
      "registerManagedPool(address)": {
        "params": {
          "managedPool": "- Address of pool being worked on."
        }
      },
      "sellReserveToken(address,address,uint256,address)": {
        "details": "To avoid too many fees, this should be run at wide intervals such as daily",
        "params": {
          "amountIn": "- The amount being traded",
          "pool": "- Address of collateral token",
          "recipient": "- Address of person to receive the swapped tokens",
          "tokenIn": "- Address of reserve token"
        }
      },
      "transferManagement(address)": {
        "details": "Only one manager can presently be set",
        "params": {
          "supportedManager": "- New manager."
        }
      }
    },
    "version": 1
  },
  "userdoc": {
    "kind": "user",
    "methods": {
      "buyReserveToken(address,uint256,address)": {
        "notice": "This function is used for pools containing two tokens. It takes in a collateral token such as BPT, calculates an equal value amount of the reserve token such as G$ then mints and returns it."
      },
      "constructor": {
        "notice": "Constructor for the controller base class"
      },
      "createPool(string,string,address[],uint256[],address[],uint256,bool,bool,uint256,uint256,bytes32)": {
        "notice": "Create and register a new managed pool"
      },
      "deRegisterManagedPool(address)": {
        "notice": "Deregister managed pool"
      },
      "getRegisteredPools()": {
        "notice": "returns a list of registered pools"
      },
      "getTokenPrice(address)": {
        "notice": "returns the array index containing supplied address"
      },
      "registerManagedPool(address)": {
        "notice": "Register managed pool"
      },
      "sellReserveToken(address,address,uint256,address)": {
        "notice": "Runs a check and transfers reserve tokens as needed"
      },
      "transferManagement(address)": {
        "notice": "Transfer the manager to a new address"
      }
    },
    "version": 1
  }
}