{
  "contractName": "ReserveController",
  "abi": [
    {
      "inputs": [
        {
          "internalType": "address",
          "name": "_vaultAddress",
          "type": "address"
        },
        {
          "internalType": "address",
          "name": "_managedPoolFactory",
          "type": "address"
        }
      ],
      "stateMutability": "nonpayable",
      "type": "constructor"
    },
    {
      "anonymous": false,
      "inputs": [
        {
          "components": [
            {
              "internalType": "string",
              "name": "name",
              "type": "string"
            },
            {
              "internalType": "string",
              "name": "symbol",
              "type": "string"
            },
            {
              "internalType": "address[]",
              "name": "assetManagers",
              "type": "address[]"
            }
          ],
          "indexed": false,
          "internalType": "struct ManagedPoolParams",
          "name": "managedPoolParams",
          "type": "tuple"
        },
        {
          "components": [
            {
              "internalType": "contract IERC20[]",
              "name": "tokens",
              "type": "address[]"
            },
            {
              "internalType": "uint256[]",
              "name": "normalizedWeights",
              "type": "uint256[]"
            },
            {
              "internalType": "uint256",
              "name": "swapFeePercentage",
              "type": "uint256"
            },
            {
              "internalType": "bool",
              "name": "swapEnabledOnStart",
              "type": "bool"
            },
            {
              "internalType": "bool",
              "name": "mustAllowlistLPs",
              "type": "bool"
            },
            {
              "internalType": "uint256",
              "name": "managementAumFeePercentage",
              "type": "uint256"
            },
            {
              "internalType": "uint256",
              "name": "aumFeeId",
              "type": "uint256"
            }
          ],
          "indexed": false,
          "internalType": "struct ManagedPoolSettingsParams",
          "name": "managedPoolSettingsParams",
          "type": "tuple"
        },
        {
          "indexed": false,
          "internalType": "address",
          "name": "callerAddress",
          "type": "address"
        },
        {
          "indexed": false,
          "internalType": "bytes32",
          "name": "salt",
          "type": "bytes32"
        },
        {
          "indexed": false,
          "internalType": "bool",
          "name": "success",
          "type": "bool"
        }
      ],
      "name": "CreatedPoolByDelegateCall",
      "type": "event"
    },
    {
      "inputs": [],
      "name": "manager",
      "outputs": [
        {
          "internalType": "address",
          "name": "",
          "type": "address"
        }
      ],
      "stateMutability": "view",
      "type": "function",
      "constant": true
    },
    {
      "inputs": [
        {
          "internalType": "address",
          "name": "_manager",
          "type": "address"
        }
      ],
      "name": "transferManagement",
      "outputs": [],
      "stateMutability": "nonpayable",
      "type": "function"
    },
    {
      "inputs": [
        {
          "internalType": "string",
          "name": "_name",
          "type": "string"
        },
        {
          "internalType": "string",
          "name": "_symbol",
          "type": "string"
        },
        {
          "internalType": "contract IERC20[]",
          "name": "_tokens",
          "type": "address[]"
        },
        {
          "internalType": "uint256[]",
          "name": "_normalizedWeights",
          "type": "uint256[]"
        },
        {
          "internalType": "address[]",
          "name": "_assetManagers",
          "type": "address[]"
        },
        {
          "internalType": "uint256",
          "name": "_swapFeePercentage",
          "type": "uint256"
        },
        {
          "internalType": "bool",
          "name": "_swapEnabledOnStart",
          "type": "bool"
        },
        {
          "internalType": "bool",
          "name": "_mustAllowlistLPs",
          "type": "bool"
        },
        {
          "internalType": "uint256",
          "name": "_managementAumFeePercentage",
          "type": "uint256"
        },
        {
          "internalType": "uint256",
          "name": "_aumFeeId",
          "type": "uint256"
        },
        {
          "internalType": "bytes32",
          "name": "_salt",
          "type": "bytes32"
        },
        {
          "internalType": "address",
          "name": "_reserveToken",
          "type": "address"
        }
      ],
      "name": "createPool",
      "outputs": [],
      "stateMutability": "nonpayable",
      "type": "function"
    },
    {
      "inputs": [],
      "name": "getRegisteredPools",
      "outputs": [
        {
          "internalType": "address[]",
          "name": "",
          "type": "address[]"
        }
      ],
      "stateMutability": "view",
      "type": "function",
      "constant": true
    },
    {
      "inputs": [
        {
          "internalType": "address",
          "name": "_managedPool",
          "type": "address"
        },
        {
          "internalType": "address",
          "name": "_reserveToken",
          "type": "address"
        }
      ],
      "name": "registerManagedPool",
      "outputs": [],
      "stateMutability": "nonpayable",
      "type": "function"
    },
    {
      "inputs": [
        {
          "internalType": "address",
          "name": "_managedPool",
          "type": "address"
        }
      ],
      "name": "deRegisterManagedPool",
      "outputs": [],
      "stateMutability": "nonpayable",
      "type": "function"
    },
    {
      "inputs": [
        {
          "internalType": "address",
          "name": "_tokenIn",
          "type": "address"
        },
        {
          "internalType": "uint256",
          "name": "_amountIn",
          "type": "uint256"
        },
        {
          "internalType": "address",
          "name": "_recipient",
          "type": "address"
        }
      ],
      "name": "buyReserveToken",
      "outputs": [],
      "stateMutability": "nonpayable",
      "type": "function"
    },
    {
      "inputs": [
        {
          "internalType": "address",
          "name": "_tokenIn",
          "type": "address"
        },
        {
          "internalType": "address",
          "name": "_pool",
          "type": "address"
        },
        {
          "internalType": "uint256",
          "name": "_amountIn",
          "type": "uint256"
        },
        {
          "internalType": "address",
          "name": "_recipient",
          "type": "address"
        }
      ],
      "name": "sellReserveToken",
      "outputs": [],
      "stateMutability": "nonpayable",
      "type": "function"
    }
  ],
  "bytecode": "0x60c06040523480156200001157600080fd5b5060405162001e0938038062001e09833981016040819052620000349162000087565b6001600081905580546001600160a01b031916331790556001600160601b0319606092831b8116608052911b1660a052620000be565b80516001600160a01b03811681146200008257600080fd5b919050565b600080604083850312156200009a578182fd5b620000a5836200006a565b9150620000b5602084016200006a565b90509250929050565b60805160601c60a05160601c611d12620000f76000398061019552508061056c528061068b5280610c5a5280610d795250611d126000f3fe608060405234801561001057600080fd5b50600436106100885760003560e01c8063659d4f5c1161005b578063659d4f5c146100e6578063c944994c146100fb578063d22320e21461010e578063e4edf8521461012157610088565b80631a746e8e1461008d578063277fa18f146100a257806347958851146100b5578063481c6a75146100c8575b600080fd5b6100a061009b3660046117b9565b610134565b005b6100a06100b0366004611582565b6102d1565b6100a06100c336600461163d565b61035f565b6100d06109e6565b6040516100dd9190611ac3565b60405180910390f35b6100ee6109f5565b6040516100dd9190611b14565b6100a06101093660046115ba565b610a57565b6100a061011c366004611543565b6110ce565b6100a061012f366004611543565b611127565b61013c6112ec565b8c8152602081018c90526040810189905261015561130d565b8b8152602081018b905260408082018a90528815156060830152871515608083015260a0820187905260c082018690525160009081906001600160a01b037f00000000000000000000000000000000000000000000000000000000000000001690637304b8b960e01b906101d3908790879033908c90602401611bbb565b60408051601f198184030181529181526020820180516001600160e01b03166001600160e01b03199094169390931790925290516102119190611aa7565b600060405180830381855af49150503d806000811461024c576040519150601f19603f3d011682016040523d82523d6000602084013e610251565b606091505b50915091507f15fd418169a4890b496e7cb6e8a9d72d1790b6247d3ebe27b87894ff2c3e4354848433898660405161028d959493929190611bfd565b60405180910390a181156102bf576000818060200190518101906102b19190611566565b90506102bd81876102d1565b505b50505050505050505050505050505050565b6001546001600160a01b031633146102e857600080fd5b6102f0611160565b6001600160a01b03808316600081815260026020526040812080549385166001600160a01b03199485161790556003805460018101825591527fc2575a0e9e593c00f959f8c92f12db2869c3395a3b0502d05e2516446f71f85b01805490921617905561035b611179565b5050565b610367611160565b6001600160a01b0380841660009081526002602052604090205484918291166103ab5760405162461bcd60e51b81526004016103a290611b9c565b60405180910390fd5b6103b361134e565b6001600160a01b0386168082526040516323b872dd60e01b81528791906323b872dd906103e890339030908b90600401611ad7565b602060405180830381600087803b15801561040257600080fd5b505af1158015610416573d6000803e3d6000fd5b505050506040513d601f19601f8201168201806040525081019061043a9190611785565b6104565760405162461bcd60e51b81526004016103a290611b65565b6000816001600160a01b03166318160ddd6040518163ffffffff1660e01b815260040160206040518083038186803b15801561049157600080fd5b505afa1580156104a5573d6000803e3d6000fd5b505050506040513d601f19601f820116820180604052508101906104c991906117a1565b905060008188816104d657fe5b04905083600001516001600160a01b03166338fff2d06040518163ffffffff1660e01b815260040160206040518083038186803b15801561051657600080fd5b505afa15801561052a573d6000803e3d6000fd5b505050506040513d601f19601f8201168201806040525081019061054e91906117a1565b6020850181905260405163f6c0092760e01b81526001600160a01b037f0000000000000000000000000000000000000000000000000000000000000000169163f6c00927916105a09190600401611b27565b604080518083038186803b1580156105b757600080fd5b505afa1580156105cb573d6000803e3d6000fd5b505050506040513d601f19601f820116820180604052508101906105ef919061160c565b505083600001516001600160a01b031663f89f27ed6040518163ffffffff1660e01b815260040160006040518083038186803b15801561062e57600080fd5b505afa158015610642573d6000803e3d6000fd5b505050506040513d6000823e601f3d908101601f1916820160405261066a919081019061174a565b60808501526020840151604051631f29a8cd60e31b81526001600160a01b037f0000000000000000000000000000000000000000000000000000000000000000169163f94d4668916106bf9190600401611b27565b60006040518083038186803b1580156106d757600080fd5b505afa1580156106eb573d6000803e3d6000fd5b505050506040513d6000823e601f3d908101601f19168201604052610713919081019061167e565b5060c086015260a0850181905261072990611180565b8460e0018190525060008460c0015160008151811061074457fe5b602002602001015111156107ec57836080015160008151811061076357fe5b60200260200101518460c0015160008151811061077c57fe5b60200260200101518161078b57fe5b04846080015160018151811061079d57fe5b60200260200101518560c001516001815181106107b657fe5b6020026020010151816107c557fe5b04816107cd57fe5b0484606001516000815181106107df57fe5b6020026020010181815250505b60015b8460a00151518110156108c45760006040860181905260c086015180518390811061081657fe5b602002602001015111156108bc578460800151818151811061083457fe5b60200260200101518560c00151828151811061084c57fe5b60200260200101518161085b57fe5b04856080015160008151811061086d57fe5b60200260200101518660c0015160008151811061088657fe5b60200260200101518161089557fe5b048161089d57fe5b0485606001516001815181106108af57fe5b6020026020010181815250505b6001016107ef565b506000805b8560a001515181101561091857856060015181815181106108e657fe5b60200260200101518660c0015182815181106108fe57fe5b6020026020010151028201915080806001019150506108c9565b506001600160a01b03808b166000908152600260205260409081902054905163a9059cbb60e01b8152848402929190911690819063a9059cbb90610962908d908690600401611afb565b602060405180830381600087803b15801561097c57600080fd5b505af1158015610990573d6000803e3d6000fd5b505050506040513d601f19601f820116820180604052508101906109b49190611785565b6109d05760405162461bcd60e51b81526004016103a290611b30565b5050505050505050506109e1611179565b505050565b6001546001600160a01b031681565b60606003805480602002602001604051908101604052809291908181526020018280548015610a4d57602002820191906000526020600020905b81546001600160a01b03168152600190910190602001808311610a2f575b5050505050905090565b610a5f611160565b6001600160a01b038085166000908152600260205260409020548591829116610a9a5760405162461bcd60e51b81526004016103a290611b9c565b610aa261134e565b6001600160a01b038616808252604080516318160ddd60e01b81529051889260009290916318160ddd91600480820192602092909190829003018186803b158015610aec57600080fd5b505afa158015610b00573d6000803e3d6000fd5b505050506040513d601f19601f82011682018060405250810190610b2491906117a1565b6040516323b872dd60e01b815290915089906001600160a01b038216906323b872dd90610b5990339030908d90600401611ad7565b602060405180830381600087803b158015610b7357600080fd5b505af1158015610b87573d6000803e3d6000fd5b505050506040513d601f19601f82011682018060405250810190610bab9190611785565b610bc75760405162461bcd60e51b81526004016103a290611b65565b83600001516001600160a01b03166338fff2d06040518163ffffffff1660e01b815260040160206040518083038186803b158015610c0457600080fd5b505afa158015610c18573d6000803e3d6000fd5b505050506040513d601f19601f82011682018060405250810190610c3c91906117a1565b6020850181905260405163f6c0092760e01b81526001600160a01b037f0000000000000000000000000000000000000000000000000000000000000000169163f6c0092791610c8e9190600401611b27565b604080518083038186803b158015610ca557600080fd5b505afa158015610cb9573d6000803e3d6000fd5b505050506040513d601f19601f82011682018060405250810190610cdd919061160c565b505083600001516001600160a01b031663f89f27ed6040518163ffffffff1660e01b815260040160006040518083038186803b158015610d1c57600080fd5b505afa158015610d30573d6000803e3d6000fd5b505050506040513d6000823e601f3d908101601f19168201604052610d58919081019061174a565b60808501526020840151604051631f29a8cd60e31b81526001600160a01b037f0000000000000000000000000000000000000000000000000000000000000000169163f94d466891610dad9190600401611b27565b60006040518083038186803b158015610dc557600080fd5b505afa158015610dd9573d6000803e3d6000fd5b505050506040513d6000823e601f3d908101601f19168201604052610e01919081019061167e565b5060c086015260a08501819052610e1790611180565b8460e0018190525060008460c00151600081518110610e3257fe5b60200260200101511115610eda578360800151600081518110610e5157fe5b60200260200101518460c00151600081518110610e6a57fe5b602002602001015181610e7957fe5b048460800151600181518110610e8b57fe5b60200260200101518560c00151600181518110610ea457fe5b602002602001015181610eb357fe5b0481610ebb57fe5b048460600151600081518110610ecd57fe5b6020026020010181815250505b60015b8460a0015151811015610fb25760006040860181905260c0860151805183908110610f0457fe5b60200260200101511115610faa5784608001518181518110610f2257fe5b60200260200101518560c001518281518110610f3a57fe5b602002602001015181610f4957fe5b048560800151600081518110610f5b57fe5b60200260200101518660c00151600081518110610f7457fe5b602002602001015181610f8357fe5b0481610f8b57fe5b048560600151600181518110610f9d57fe5b6020026020010181815250505b600101610edd565b506000805b8560a00151518110156110065785606001518181518110610fd457fe5b60200260200101518660c001518281518110610fec57fe5b602002602001015102820191508080600101915050610fb7565b506000838a8161101257fe5b60405163a9059cbb60e01b81529190049150848202906001600160a01b0387169063a9059cbb90611049908d908590600401611afb565b602060405180830381600087803b15801561106357600080fd5b505af1158015611077573d6000803e3d6000fd5b505050506040513d601f19601f8201168201806040525081019061109b9190611785565b6110b75760405162461bcd60e51b81526004016103a290611b30565b5050505050505050506110c8611179565b50505050565b6001546001600160a01b031633146110e557600080fd5b6110ed611160565b6001600160a01b038116600090815260026020526040902080546001600160a01b031916905561111c81611183565b611124611179565b50565b6001546001600160a01b0316331461113e57600080fd5b600180546001600160a01b0319166001600160a01b0392909216919091179055565b61117260026000541415610190611199565b6002600055565b6001600055565b90565b600061118e826111a7565b905061035b816111ec565b8161035b5761035b81611291565b6000805b826001600160a01b0316600382815481106111c257fe5b6000918252602090912001546001600160a01b0316146111e4576001016111ab565b90505b919050565b60035460001901811015611261576003816001018154811061120a57fe5b600091825260209091200154600380546001600160a01b03909216918390811061123057fe5b600091825260209091200180546001600160a01b0319166001600160a01b03929092169190911790556001016111ec565b600380548061126c57fe5b600082815260209020810160001990810180546001600160a01b031916905501905550565b62461bcd60e51b600090815260206004526007602452600a808304818106603090810160081b83860601918390049283060160101b016642414c230000300160c81b604452611124916210905360ea1b906242414c90606490fd5b60405180606001604052806060815260200160608152602001606081525090565b6040518060e0016040528060608152602001606081526020016000815260200160001515815260200160001515815260200160008152602001600081525090565b60405180610100016040528060006001600160a01b03168152602001600080191681526020016000815260200160608152602001606081526020016060815260200160608152602001606081525090565b80356111e781611cb9565b600082601f8301126113ba578081fd5b813560206113cf6113ca83611c6f565b611c4b565b82815281810190858301838502870184018810156113eb578586fd5b855b8581101561141257813561140081611cb9565b845292840192908401906001016113ed565b5090979650505050505050565b600082601f83011261142f578081fd5b8135602061143f6113ca83611c6f565b828152818101908583018385028701840188101561145b578586fd5b855b858110156114125781358452928401929084019060010161145d565b600082601f830112611489578081fd5b815160206114996113ca83611c6f565b82815281810190858301838502870184018810156114b5578586fd5b855b85811015611412578151845292840192908401906001016114b7565b80356111e781611cce565b600082601f8301126114ee578081fd5b813567ffffffffffffffff81111561150257fe5b611515601f8201601f1916602001611c4b565b818152846020838601011115611529578283fd5b816020850160208301379081016020019190915292915050565b600060208284031215611554578081fd5b813561155f81611cb9565b9392505050565b600060208284031215611577578081fd5b815161155f81611cb9565b60008060408385031215611594578081fd5b823561159f81611cb9565b915060208301356115af81611cb9565b809150509250929050565b600080600080608085870312156115cf578182fd5b84356115da81611cb9565b935060208501356115ea81611cb9565b925060408501359150606085013561160181611cb9565b939692955090935050565b6000806040838503121561161e578182fd5b825161162981611cb9565b6020840151909250600381106115af578182fd5b600080600060608486031215611651578081fd5b833561165c81611cb9565b925060208401359150604084013561167381611cb9565b809150509250925092565b600080600060608486031215611692578081fd5b835167ffffffffffffffff808211156116a9578283fd5b818601915086601f8301126116bc578283fd5b815160206116cc6113ca83611c6f565b82815281810190858301838502870184018c10156116e8578788fd5b8796505b848710156117135780516116ff81611cb9565b8352600196909601959183019183016116ec565b509189015191975090935050508082111561172c578283fd5b5061173986828701611479565b925050604084015190509250925092565b60006020828403121561175b578081fd5b815167ffffffffffffffff811115611771578182fd5b61177d84828501611479565b949350505050565b600060208284031215611796578081fd5b815161155f81611cce565b6000602082840312156117b2578081fd5b5051919050565b6000806000806000806000806000806000806101808d8f0312156117db57898afd5b67ffffffffffffffff8d3511156117f057898afd5b6117fd8e8e358f016114de565b9b5067ffffffffffffffff60208e0135111561181757898afd5b6118278e60208f01358f016114de565b9a5067ffffffffffffffff60408e0135111561184157898afd5b6118518e60408f01358f016113aa565b995067ffffffffffffffff60608e0135111561186b578788fd5b61187b8e60608f01358f0161141f565b985067ffffffffffffffff60808e01351115611895578788fd5b6118a58e60808f01358f016113aa565b975060a08d013596506118ba60c08e016114d3565b95506118c860e08e016114d3565b94506101008d013593506101208d013592506101408d013591506118ef6101608e0161139f565b90509295989b509295989b509295989b565b6000815180845260208085019450808401835b838110156119395781516001600160a01b031687529582019590820190600101611914565b509495945050505050565b6000815180845260208085019450808401835b8381101561193957815187529582019590820190600101611957565b15159052565b60008151808452611991816020860160208601611c8d565b601f01601f19169290920160200192915050565b60008151606084526119ba6060850182611979565b9050602083015184820360208601526119d38282611979565b915050604083015184820360408601526119ed8282611901565b95945050505050565b805160e0808452815190840181905260009160209190820190610100860190845b81811015611a3c5783516001600160a01b031683529284019291840191600101611a17565b505082850151915085810383870152611a558183611944565b92505050604083015160408501526060830151611a756060860182611973565b506080830151611a886080860182611973565b5060a083015160a085015260c083015160c08501528091505092915050565b60008251611ab9818460208701611c8d565b9190910192915050565b6001600160a01b0391909116815260200190565b6001600160a01b039384168152919092166020820152604081019190915260600190565b6001600160a01b03929092168252602082015260400190565b60006020825261155f6020830184611901565b90815260200190565b6020808252818101527f5472616e73666572206f66206f757470757420746f6b656e73206661696c6564604082015260600190565b6020808252601f908201527f5472616e73666572206f6620696e70757420746f6b656e73206661696c656400604082015260600190565b60208082526005908201526422b93937b960d91b604082015260600190565b600060808252611bce60808301876119a5565b8281036020840152611be081876119f6565b6001600160a01b0395909516604084015250506060015292915050565b600060a08252611c1060a08301886119a5565b8281036020840152611c2281886119f6565b6001600160a01b0396909616604084015250506060810192909252151560809091015292915050565b60405181810167ffffffffffffffff81118282101715611c6757fe5b604052919050565b600067ffffffffffffffff821115611c8357fe5b5060209081020190565b60005b83811015611ca8578181015183820152602001611c90565b838111156110c85750506000910152565b6001600160a01b038116811461112457600080fd5b801515811461112457600080fdfea2646970667358221220e830656c4bc176de8097516b199a4c052354e091568be72bebbd94c7f174a1d764736f6c63430007060033",
  "immutableReferences": {
    "1945": [
      {
        "length": 32,
        "start": 1388
      },
      {
        "length": 32,
        "start": 1675
      },
      {
        "length": 32,
        "start": 3162
      },
      {
        "length": 32,
        "start": 3449
      }
    ],
    "1947": [
      {
        "length": 32,
        "start": 405
      }
    ]
  },
  "source": "// SPDX-License-Identifier: MIT\n\npragma solidity ^0.7.0;\npragma experimental ABIEncoderV2;\nimport \"@balancer-labs/v2-solidity-utils/contracts/openzeppelin/ReentrancyGuard.sol\";\nimport \"@balancer-labs/v2-interfaces/contracts/vault/IVault.sol\";\nimport \"@balancer-labs/v2-interfaces/contracts/pool-utils/IManagedPool.sol\";\nimport \"./base/BaseUtils.sol\";\nimport \"./ManagedPoolFactory.sol\";\n\ncontract ReserveController is ReentrancyGuard, BaseUtils {\n\n    event CreatedPoolByDelegateCall(ManagedPoolParams managedPoolParams, ManagedPoolSettingsParams managedPoolSettingsParams, address callerAddress, bytes32 salt, bool success);\n\n    struct ReserveValues {\n        IManagedPool managedPool;\n        bytes32 poolId;\n        uint256 tokenPrice;\n        uint256[] tokenPrices;\n        uint256[] normalizedWeights;\n        IERC20[] tokens;\n        uint256[] balances;\n        IAsset[] assets;\n    }\n\n    // poolAddress mapped to reserve token\n    mapping(address => address) pools;\n    address[] private registeredPools;\n    IVault internal immutable vault;\n    address internal immutable managedPoolFactory;\n\n\n    /**\n     * @notice Constructor for the controller base class\n     *\n     * @param _vaultAddress - Vault contract address\n     */\n    constructor(address _vaultAddress,\n                address _managedPoolFactory) {\n        manager = msg.sender;\n        vault = IVault(_vaultAddress);\n        managedPoolFactory = _managedPoolFactory;\n    }\n\n    /**\n     * @notice Create and register a new managed pool\n     *\n     * @param _name - Pool name\n     * @param _symbol - Symbol representing the pool\n     * @param _tokens - Tokens in the pool\n     * @param _normalizedWeights - Normalized weights in the pool\n     * @param _assetManagers - Asset manager for the pool\n     * @param _swapFeePercentage - Fee applied to swaps\n     * @param _swapEnabledOnStart - Whether swaps are enabled straight away\n     * @param _mustAllowlistLPs - List of LP's allowed in the pool\n     * @param _managementAumFeePercentage - Management Aum fee to apply\n     * @param _aumFeeId - Aum Fee Id\n     */\n    function createPool(string memory _name,\n                        string memory _symbol,\n                        IERC20[] memory _tokens,\n                        uint256[] memory _normalizedWeights,\n                        address[] memory _assetManagers,\n                        uint256 _swapFeePercentage,\n                        bool _swapEnabledOnStart,\n                        bool _mustAllowlistLPs,\n                        uint256 _managementAumFeePercentage,\n                        uint256 _aumFeeId,\n                        bytes32 _salt,\n                        address _reserveToken) public {\n        ManagedPoolParams memory poolParams;\n        poolParams.name = _name;\n        poolParams.symbol = _symbol;\n        poolParams.assetManagers = _assetManagers;\n\n        ManagedPoolSettingsParams memory poolSettingsParams;\n        poolSettingsParams.tokens = _tokens;\n        poolSettingsParams.normalizedWeights = _normalizedWeights;\n        poolSettingsParams.swapFeePercentage = _swapFeePercentage;\n        poolSettingsParams.swapEnabledOnStart = _swapEnabledOnStart;\n        poolSettingsParams.mustAllowlistLPs = _mustAllowlistLPs;\n        poolSettingsParams.managementAumFeePercentage = _managementAumFeePercentage;\n        poolSettingsParams.aumFeeId = _aumFeeId;\n\n        (bool success, bytes memory result) = managedPoolFactory.delegatecall(\n            // abi.encodeWithSignature(\"create(ManagedPoolParams, ManagedPoolSettingsParams, address, bytes32)\", poolParams, poolSettingsParams, msg.sender, _salt)\n            // abi.encodeWithSignature(\"create((string, string, address[]), (IERC20[], uint256[], uint256, bool, bool, uint256, uint256), address, bytes32)\", poolParams, poolSettingsParams, msg.sender, _salt)\n            abi.encodeWithSelector(ManagedPoolFactory.create.selector, poolParams, poolSettingsParams, msg.sender, _salt)\n        );\n\n        emit CreatedPoolByDelegateCall(poolParams, poolSettingsParams, msg.sender, _salt, success);\n        if (success)\n        {\n            address poolAddress = abi.decode(result, (address));\n            registerManagedPool(poolAddress, _reserveToken);\n        }\n    }\n\n\n    /**\n     * @notice returns a list of registered pools\n     *\n     */\n    function getRegisteredPools() public view returns (address[] memory) {\n        return registeredPools;\n    }\n\n    /**\n     * @notice Register managed pool\n     *\n     * @param _managedPool - Address of pool being worked on.\n     * @param _reserveToken - Address of pool being worked on.\n     */\n    function registerManagedPool(\n        address _managedPool,\n        address _reserveToken) public restricted nonReentrant {\n        pools[_managedPool] = _reserveToken;\n        registeredPools.push(_managedPool);\n    }\n\n    /**\n     * @notice Deregister managed pool\n     *\n     * @param _managedPool - Address of pool being worked on.\n     */\n    function deRegisterManagedPool(\n        address _managedPool) public restricted nonReentrant {\n        delete pools[_managedPool];\n        removeByValue(_managedPool);\n    }\n\n    /**\n     * @notice This function is used for pools containing two tokensRuns a check\n      and transfers reserve tokens as needed\n     *\n     * @param _tokenIn - Address of collateral token* @param _tokenIn - Address of collateral token\n     * @param _amountIn - The amount being traded\n     * @param _recipient - Address of person to receive the swapped tokens\n     */\n    function buyReserveToken(address  _tokenIn,\n                             uint256 _amountIn,\n                             address _recipient) public nonReentrant checkPoolSupported(_tokenIn)\n    {\n        // Retrieve a list of tokens, balances and normalised weights for the pool\n        ReserveValues memory reserveValues;\n        reserveValues.managedPool = IManagedPool(_tokenIn);\n        IERC20 bptToken = IERC20(_tokenIn);\n\n        // Transfer the input tokens from the sender to this contract\n        require(bptToken.transferFrom(msg.sender, address(this), _amountIn), \"Transfer of input tokens failed\");\n\n        // Calculate the buyers share of the pool\n        uint256 totalSupply = bptToken.totalSupply();\n        uint256 myShare = _amountIn / totalSupply;\n\n        reserveValues.poolId = reserveValues.managedPool.getPoolId();\n        vault.getPool(reserveValues.poolId);\n        reserveValues.normalizedWeights = reserveValues.managedPool.getNormalizedWeights();\n\n        (reserveValues.tokens, reserveValues.balances,) = vault.getPoolTokens(reserveValues.poolId);\n        reserveValues.assets = SupportLib._convertERC20sToAssets(reserveValues.tokens);\n\n        // Calculate token prices using the DEX\n        if (reserveValues.balances[0]  > 0)\n        {\n            reserveValues.tokenPrices[0] = (reserveValues.balances[1] / reserveValues.normalizedWeights[1]) / (reserveValues.balances[0] / reserveValues.normalizedWeights[0]);\n        }\n\n        for (uint256 i = 1; i < reserveValues.tokens.length; i++) {\n            reserveValues.tokenPrice = 0;\n            if (reserveValues.balances[i] > 0)\n            {\n                reserveValues.tokenPrices[1] = (reserveValues.balances[0] / reserveValues.normalizedWeights[0]) / (reserveValues.balances[i] / reserveValues.normalizedWeights[i]);\n            }\n        }\n\n        // Calculate the total value of the pool\n        uint256 totalPoolValue = 0;\n        for (uint256 i = 0; i < reserveValues.tokens.length; i++) {\n            totalPoolValue = totalPoolValue + (reserveValues.balances[i] * reserveValues.tokenPrices[i]);\n        }\n\n        // Calculate supplied token value\n        uint256 myShareValue = myShare * totalPoolValue;\n\n        IERC20 reserveToken = IERC20(pools[_tokenIn]);\n\n        // Transfer the output tokens from this contract to the recipient\n        require(reserveToken.transfer(_recipient, myShareValue), \"Transfer of output tokens failed\");\n    }\n\n    /**\n     * @notice Runs a check and transfers reserve tokens as needed\n     * @dev To avoid too many fees, this should be run at wide intervals such as daily\n     *\n     * @param _tokenIn - Address of reserve token\n     * @param _amountIn - The amount being traded\n     * @param _recipient - Address of person to receive the swapped tokens\n     */\n    function sellReserveToken(address _tokenIn,\n                              address _pool,\n                              uint256 _amountIn,\n                              address _recipient) public nonReentrant checkPoolSupported(_tokenIn)\n    {\n        // Retrieve a list of tokens, balances and normalised weights for the pool\n        ReserveValues memory reserveValues;\n        reserveValues.managedPool = IManagedPool(_pool);\n        IERC20 bptToken = IERC20(_pool);\n        uint256 totalSupply = bptToken.totalSupply();\n\n        // Transfer the input tokens from the sender to this contract\n        IERC20 collateralToken = IERC20(_tokenIn);\n        require(collateralToken.transferFrom(msg.sender, address(this), _amountIn), \"Transfer of input tokens failed\");\n\n        reserveValues.poolId = reserveValues.managedPool.getPoolId();\n        vault.getPool(reserveValues.poolId);\n        reserveValues.normalizedWeights = reserveValues.managedPool.getNormalizedWeights();\n\n        (reserveValues.tokens, reserveValues.balances,) = vault.getPoolTokens(reserveValues.poolId);\n        reserveValues.assets = SupportLib._convertERC20sToAssets(reserveValues.tokens);\n\n        // Calculate token prices using the DEX\n        if (reserveValues.balances[0]  > 0)\n        {\n            reserveValues.tokenPrices[0] = (reserveValues.balances[1] / reserveValues.normalizedWeights[1]) / (reserveValues.balances[0] / reserveValues.normalizedWeights[0]);\n        }\n\n        for (uint256 i = 1; i < reserveValues.tokens.length; i++) {\n            reserveValues.tokenPrice = 0;\n            if (reserveValues.balances[i] > 0)\n            {\n                reserveValues.tokenPrices[1] = (reserveValues.balances[0] / reserveValues.normalizedWeights[0]) / (reserveValues.balances[i] / reserveValues.normalizedWeights[i]);\n            }\n        }\n\n        // Calculate the total value of the pool\n        uint256 totalPoolValue = 0;\n        for (uint256 i = 0; i < reserveValues.tokens.length; i++) {\n            totalPoolValue = totalPoolValue + (reserveValues.balances[i] * reserveValues.tokenPrices[i]);\n        }\n\n        // Calculate supplied token value\n        uint256 myShare = _amountIn / totalSupply;\n        uint256 myBptAmount = myShare * totalSupply;\n\n        // Transfer the output tokens from this contract to the recipient\n        require(bptToken.transfer(_recipient, myBptAmount), \"Transfer of output tokens failed\");\n    }\n\n    /**\n     * @notice returns the array index containing supplied address\n     *\n     * @param value - Address to find\n     */\n    function find(address value) private view returns(uint) {\n        uint i = 0;\n        while (registeredPools[i] != value) {\n            i++;\n        }\n        return i;\n    }\n\n    /**\n     * @notice removes supplied address from array of addresses\n     *\n     */\n    function removeByValue(address value) private {\n        uint i = find(value);\n        removeByIndex(i);\n    }\n\n    /**\n     * @notice remove the item at index, resizing array as needed\n     *\n     */\n    function removeByIndex(uint i) private {\n        while (i < registeredPools.length-1) {\n            registeredPools[i] = registeredPools[i+1];\n            i++;\n        }\n        registeredPools.pop();\n    }\n\n    /**\n     * @dev Modifier to check token allowance\n     */\n    modifier checkPoolSupported(address _managedPool) {\n        IManagedPool managedPool = IManagedPool(_managedPool);\n        require(pools[_managedPool] != address(0x0), \"Error\");\n        _;\n    }\n}\n",
  "sourcePath": "/home/quinn/Source/BalancerController/Balancer.Controller/contracts/ReserveController.sol",
  "compiler": {
    "name": "solc",
    "version": "0.7.6+commit.7338295f.Emscripten.clang"
  },
  "schemaVersion": "3.4.14",
  "updatedAt": "2023-06-22T21:40:37.431Z",
  "networkType": "ethereum",
  "devdoc": {
    "kind": "dev",
    "methods": {
      "buyReserveToken(address,uint256,address)": {
        "params": {
          "_amountIn": "- The amount being traded",
          "_recipient": "- Address of person to receive the swapped tokens",
          "_tokenIn": "- Address of collateral token* @param _tokenIn - Address of collateral token"
        }
      },
      "constructor": {
        "params": {
          "_vaultAddress": "- Vault contract address"
        }
      },
      "createPool(string,string,address[],uint256[],address[],uint256,bool,bool,uint256,uint256,bytes32,address)": {
        "params": {
          "_assetManagers": "- Asset manager for the pool",
          "_aumFeeId": "- Aum Fee Id",
          "_managementAumFeePercentage": "- Management Aum fee to apply",
          "_mustAllowlistLPs": "- List of LP's allowed in the pool",
          "_name": "- Pool name",
          "_normalizedWeights": "- Normalized weights in the pool",
          "_swapEnabledOnStart": "- Whether swaps are enabled straight away",
          "_swapFeePercentage": "- Fee applied to swaps",
          "_symbol": "- Symbol representing the pool",
          "_tokens": "- Tokens in the pool"
        }
      },
      "deRegisterManagedPool(address)": {
        "params": {
          "_managedPool": "- Address of pool being worked on."
        }
      },
      "registerManagedPool(address,address)": {
        "params": {
          "_managedPool": "- Address of pool being worked on.",
          "_reserveToken": "- Address of pool being worked on."
        }
      },
      "sellReserveToken(address,address,uint256,address)": {
        "details": "To avoid too many fees, this should be run at wide intervals such as daily",
        "params": {
          "_amountIn": "- The amount being traded",
          "_recipient": "- Address of person to receive the swapped tokens",
          "_tokenIn": "- Address of reserve token"
        }
      },
      "transferManagement(address)": {
        "details": "Only one manager can presently be set",
        "params": {
          "_manager": "- New manager."
        }
      }
    },
    "version": 1
  },
  "userdoc": {
    "kind": "user",
    "methods": {
      "buyReserveToken(address,uint256,address)": {
        "notice": "This function is used for pools containing two tokensRuns a check and transfers reserve tokens as needed"
      },
      "constructor": {
        "notice": "Constructor for the controller base class"
      },
      "createPool(string,string,address[],uint256[],address[],uint256,bool,bool,uint256,uint256,bytes32,address)": {
        "notice": "Create and register a new managed pool"
      },
      "deRegisterManagedPool(address)": {
        "notice": "Deregister managed pool"
      },
      "getRegisteredPools()": {
        "notice": "returns a list of registered pools"
      },
      "registerManagedPool(address,address)": {
        "notice": "Register managed pool"
      },
      "sellReserveToken(address,address,uint256,address)": {
        "notice": "Runs a check and transfers reserve tokens as needed"
      },
      "transferManagement(address)": {
        "notice": "Transfer the manager to a new address"
      }
    },
    "version": 1
  }
}