{
  "contractName": "ReserveController",
  "abi": [
    {
      "inputs": [
        {
          "internalType": "address",
          "name": "_vaultAddress",
          "type": "address"
        },
        {
          "internalType": "address",
          "name": "_managedPoolFactory",
          "type": "address"
        }
      ],
      "stateMutability": "nonpayable",
      "type": "constructor"
    },
    {
      "anonymous": false,
      "inputs": [
        {
          "components": [
            {
              "internalType": "string",
              "name": "name",
              "type": "string"
            },
            {
              "internalType": "string",
              "name": "symbol",
              "type": "string"
            },
            {
              "internalType": "address[]",
              "name": "assetManagers",
              "type": "address[]"
            }
          ],
          "indexed": false,
          "internalType": "struct ManagedPoolParams",
          "name": "managedPoolParams",
          "type": "tuple"
        },
        {
          "components": [
            {
              "internalType": "contract IERC20[]",
              "name": "tokens",
              "type": "address[]"
            },
            {
              "internalType": "uint256[]",
              "name": "normalizedWeights",
              "type": "uint256[]"
            },
            {
              "internalType": "uint256",
              "name": "swapFeePercentage",
              "type": "uint256"
            },
            {
              "internalType": "bool",
              "name": "swapEnabledOnStart",
              "type": "bool"
            },
            {
              "internalType": "bool",
              "name": "mustAllowlistLPs",
              "type": "bool"
            },
            {
              "internalType": "uint256",
              "name": "managementAumFeePercentage",
              "type": "uint256"
            },
            {
              "internalType": "uint256",
              "name": "aumFeeId",
              "type": "uint256"
            }
          ],
          "indexed": false,
          "internalType": "struct ManagedPoolSettingsParams",
          "name": "managedPoolSettingsParams",
          "type": "tuple"
        },
        {
          "indexed": false,
          "internalType": "address",
          "name": "callerAddress",
          "type": "address"
        },
        {
          "indexed": false,
          "internalType": "bytes32",
          "name": "salt",
          "type": "bytes32"
        },
        {
          "indexed": false,
          "internalType": "bool",
          "name": "success",
          "type": "bool"
        }
      ],
      "name": "CreatedPoolByDelegateCall",
      "type": "event"
    },
    {
      "inputs": [],
      "name": "manager",
      "outputs": [
        {
          "internalType": "address",
          "name": "",
          "type": "address"
        }
      ],
      "stateMutability": "view",
      "type": "function",
      "constant": true
    },
    {
      "inputs": [
        {
          "internalType": "address",
          "name": "_manager",
          "type": "address"
        }
      ],
      "name": "transferManagement",
      "outputs": [],
      "stateMutability": "nonpayable",
      "type": "function"
    },
    {
      "inputs": [
        {
          "internalType": "string",
          "name": "_name",
          "type": "string"
        },
        {
          "internalType": "string",
          "name": "_symbol",
          "type": "string"
        },
        {
          "internalType": "contract IERC20[]",
          "name": "_tokens",
          "type": "address[]"
        },
        {
          "internalType": "uint256[]",
          "name": "_normalizedWeights",
          "type": "uint256[]"
        },
        {
          "internalType": "address[]",
          "name": "_assetManagers",
          "type": "address[]"
        },
        {
          "internalType": "uint256",
          "name": "_swapFeePercentage",
          "type": "uint256"
        },
        {
          "internalType": "bool",
          "name": "_swapEnabledOnStart",
          "type": "bool"
        },
        {
          "internalType": "bool",
          "name": "_mustAllowlistLPs",
          "type": "bool"
        },
        {
          "internalType": "uint256",
          "name": "_managementAumFeePercentage",
          "type": "uint256"
        },
        {
          "internalType": "uint256",
          "name": "_aumFeeId",
          "type": "uint256"
        },
        {
          "internalType": "uint256",
          "name": "_tolerance",
          "type": "uint256"
        },
        {
          "internalType": "bytes32",
          "name": "_salt",
          "type": "bytes32"
        }
      ],
      "name": "createAndRegisterManagedPoolstring",
      "outputs": [],
      "stateMutability": "nonpayable",
      "type": "function"
    },
    {
      "inputs": [],
      "name": "getRegisteredPools",
      "outputs": [
        {
          "internalType": "address[]",
          "name": "",
          "type": "address[]"
        }
      ],
      "stateMutability": "view",
      "type": "function",
      "constant": true
    },
    {
      "inputs": [
        {
          "internalType": "address",
          "name": "_managedPool",
          "type": "address"
        },
        {
          "internalType": "address",
          "name": "_reserveToken",
          "type": "address"
        }
      ],
      "name": "registerManagedPool",
      "outputs": [],
      "stateMutability": "nonpayable",
      "type": "function"
    },
    {
      "inputs": [
        {
          "internalType": "address",
          "name": "_managedPool",
          "type": "address"
        }
      ],
      "name": "deRegisterManagedPool",
      "outputs": [],
      "stateMutability": "nonpayable",
      "type": "function"
    },
    {
      "inputs": [
        {
          "internalType": "address",
          "name": "_tokenIn",
          "type": "address"
        },
        {
          "internalType": "uint256",
          "name": "_amountIn",
          "type": "uint256"
        },
        {
          "internalType": "address",
          "name": "_recipient",
          "type": "address"
        }
      ],
      "name": "buyReserveToken",
      "outputs": [],
      "stateMutability": "nonpayable",
      "type": "function"
    },
    {
      "inputs": [
        {
          "internalType": "address",
          "name": "_tokenIn",
          "type": "address"
        },
        {
          "internalType": "address",
          "name": "_pool",
          "type": "address"
        },
        {
          "internalType": "uint256",
          "name": "_amountIn",
          "type": "uint256"
        },
        {
          "internalType": "address",
          "name": "_recipient",
          "type": "address"
        }
      ],
      "name": "sellReserveToken",
      "outputs": [],
      "stateMutability": "nonpayable",
      "type": "function"
    }
  ],
  "bytecode": "0x60c06040523480156200001157600080fd5b5060405162001daf38038062001daf833981016040819052620000349162000087565b6001600081905580546001600160a01b031916331790556001600160601b0319606092831b8116608052911b1660a052620000be565b80516001600160a01b03811681146200008257600080fd5b919050565b600080604083850312156200009a578182fd5b620000a5836200006a565b9150620000b5602084016200006a565b90509250929050565b60805160601c60a05160601c611cb8620000f76000398061022b525080610540528061065f5280610c2e5280610d4d5250611cb86000f3fe608060405234801561001057600080fd5b50600436106100885760003560e01c8063659d4f5c1161005b578063659d4f5c146100e6578063c944994c146100fb578063d22320e21461010e578063e4edf8521461012157610088565b8063277fa18f1461008d57806337e35e76146100a257806347958851146100b5578063481c6a75146100c8575b600080fd5b6100a061009b36600461152f565b610134565b005b6100a06100b0366004611766565b6101c2565b6100a06100c33660046115ea565b610333565b6100d06109ba565b6040516100dd9190611a69565b60405180910390f35b6100ee6109c9565b6040516100dd9190611aba565b6100a0610109366004611567565b610a2b565b6100a061011c36600461150c565b6110a2565b6100a061012f36600461150c565b6110fb565b6001546001600160a01b0316331461014b57600080fd5b610153611134565b6001600160a01b03808316600081815260026020526040812080549385166001600160a01b03199485161790556003805460018101825591527fc2575a0e9e593c00f959f8c92f12db2869c3395a3b0502d05e2516446f71f85b0180549092161790556101be61114d565b5050565b6101ca611134565b6101d26112c0565b8c8152602081018c9052604081018990526101eb6112e1565b8b8152602081018b905260408082018a90528815156060830152871515608083015260a0820187905260c082018690525160009081906001600160a01b037f00000000000000000000000000000000000000000000000000000000000000001690610260908690869033908a90602401611b61565b60408051601f198184030181529181526020820180516001600160e01b03166382e7947f60e01b179052516102959190611a4d565b600060405180830381855af49150503d80600081146102d0576040519150601f19603f3d011682016040523d82523d6000602084013e6102d5565b606091505b50915091507f15fd418169a4890b496e7cb6e8a9d72d1790b6247d3ebe27b87894ff2c3e43548484338886604051610311959493929190611ba3565b60405180910390a15050505061032561114d565b505050505050505050505050565b61033b611134565b6001600160a01b03808416600090815260026020526040902054849182911661037f5760405162461bcd60e51b815260040161037690611b42565b60405180910390fd5b610387611322565b6001600160a01b0386168082526040516323b872dd60e01b81528791906323b872dd906103bc90339030908b90600401611a7d565b602060405180830381600087803b1580156103d657600080fd5b505af11580156103ea573d6000803e3d6000fd5b505050506040513d601f19601f8201168201806040525081019061040e9190611732565b61042a5760405162461bcd60e51b815260040161037690611b0b565b6000816001600160a01b03166318160ddd6040518163ffffffff1660e01b815260040160206040518083038186803b15801561046557600080fd5b505afa158015610479573d6000803e3d6000fd5b505050506040513d601f19601f8201168201806040525081019061049d919061174e565b905060008188816104aa57fe5b04905083600001516001600160a01b03166338fff2d06040518163ffffffff1660e01b815260040160206040518083038186803b1580156104ea57600080fd5b505afa1580156104fe573d6000803e3d6000fd5b505050506040513d601f19601f82011682018060405250810190610522919061174e565b6020850181905260405163f6c0092760e01b81526001600160a01b037f0000000000000000000000000000000000000000000000000000000000000000169163f6c00927916105749190600401611acd565b604080518083038186803b15801561058b57600080fd5b505afa15801561059f573d6000803e3d6000fd5b505050506040513d601f19601f820116820180604052508101906105c391906115b9565b505083600001516001600160a01b031663f89f27ed6040518163ffffffff1660e01b815260040160006040518083038186803b15801561060257600080fd5b505afa158015610616573d6000803e3d6000fd5b505050506040513d6000823e601f3d908101601f1916820160405261063e91908101906116f7565b60808501526020840151604051631f29a8cd60e31b81526001600160a01b037f0000000000000000000000000000000000000000000000000000000000000000169163f94d4668916106939190600401611acd565b60006040518083038186803b1580156106ab57600080fd5b505afa1580156106bf573d6000803e3d6000fd5b505050506040513d6000823e601f3d908101601f191682016040526106e7919081019061162b565b5060c086015260a085018190526106fd90611154565b8460e0018190525060008460c0015160008151811061071857fe5b602002602001015111156107c057836080015160008151811061073757fe5b60200260200101518460c0015160008151811061075057fe5b60200260200101518161075f57fe5b04846080015160018151811061077157fe5b60200260200101518560c0015160018151811061078a57fe5b60200260200101518161079957fe5b04816107a157fe5b0484606001516000815181106107b357fe5b6020026020010181815250505b60015b8460a00151518110156108985760006040860181905260c08601518051839081106107ea57fe5b60200260200101511115610890578460800151818151811061080857fe5b60200260200101518560c00151828151811061082057fe5b60200260200101518161082f57fe5b04856080015160008151811061084157fe5b60200260200101518660c0015160008151811061085a57fe5b60200260200101518161086957fe5b048161087157fe5b04856060015160018151811061088357fe5b6020026020010181815250505b6001016107c3565b506000805b8560a00151518110156108ec57856060015181815181106108ba57fe5b60200260200101518660c0015182815181106108d257fe5b60200260200101510282019150808060010191505061089d565b506001600160a01b03808b166000908152600260205260409081902054905163a9059cbb60e01b8152848402929190911690819063a9059cbb90610936908d908690600401611aa1565b602060405180830381600087803b15801561095057600080fd5b505af1158015610964573d6000803e3d6000fd5b505050506040513d601f19601f820116820180604052508101906109889190611732565b6109a45760405162461bcd60e51b815260040161037690611ad6565b5050505050505050506109b561114d565b505050565b6001546001600160a01b031681565b60606003805480602002602001604051908101604052809291908181526020018280548015610a2157602002820191906000526020600020905b81546001600160a01b03168152600190910190602001808311610a03575b5050505050905090565b610a33611134565b6001600160a01b038085166000908152600260205260409020548591829116610a6e5760405162461bcd60e51b815260040161037690611b42565b610a76611322565b6001600160a01b038616808252604080516318160ddd60e01b81529051889260009290916318160ddd91600480820192602092909190829003018186803b158015610ac057600080fd5b505afa158015610ad4573d6000803e3d6000fd5b505050506040513d601f19601f82011682018060405250810190610af8919061174e565b6040516323b872dd60e01b815290915089906001600160a01b038216906323b872dd90610b2d90339030908d90600401611a7d565b602060405180830381600087803b158015610b4757600080fd5b505af1158015610b5b573d6000803e3d6000fd5b505050506040513d601f19601f82011682018060405250810190610b7f9190611732565b610b9b5760405162461bcd60e51b815260040161037690611b0b565b83600001516001600160a01b03166338fff2d06040518163ffffffff1660e01b815260040160206040518083038186803b158015610bd857600080fd5b505afa158015610bec573d6000803e3d6000fd5b505050506040513d601f19601f82011682018060405250810190610c10919061174e565b6020850181905260405163f6c0092760e01b81526001600160a01b037f0000000000000000000000000000000000000000000000000000000000000000169163f6c0092791610c629190600401611acd565b604080518083038186803b158015610c7957600080fd5b505afa158015610c8d573d6000803e3d6000fd5b505050506040513d601f19601f82011682018060405250810190610cb191906115b9565b505083600001516001600160a01b031663f89f27ed6040518163ffffffff1660e01b815260040160006040518083038186803b158015610cf057600080fd5b505afa158015610d04573d6000803e3d6000fd5b505050506040513d6000823e601f3d908101601f19168201604052610d2c91908101906116f7565b60808501526020840151604051631f29a8cd60e31b81526001600160a01b037f0000000000000000000000000000000000000000000000000000000000000000169163f94d466891610d819190600401611acd565b60006040518083038186803b158015610d9957600080fd5b505afa158015610dad573d6000803e3d6000fd5b505050506040513d6000823e601f3d908101601f19168201604052610dd5919081019061162b565b5060c086015260a08501819052610deb90611154565b8460e0018190525060008460c00151600081518110610e0657fe5b60200260200101511115610eae578360800151600081518110610e2557fe5b60200260200101518460c00151600081518110610e3e57fe5b602002602001015181610e4d57fe5b048460800151600181518110610e5f57fe5b60200260200101518560c00151600181518110610e7857fe5b602002602001015181610e8757fe5b0481610e8f57fe5b048460600151600081518110610ea157fe5b6020026020010181815250505b60015b8460a0015151811015610f865760006040860181905260c0860151805183908110610ed857fe5b60200260200101511115610f7e5784608001518181518110610ef657fe5b60200260200101518560c001518281518110610f0e57fe5b602002602001015181610f1d57fe5b048560800151600081518110610f2f57fe5b60200260200101518660c00151600081518110610f4857fe5b602002602001015181610f5757fe5b0481610f5f57fe5b048560600151600181518110610f7157fe5b6020026020010181815250505b600101610eb1565b506000805b8560a0015151811015610fda5785606001518181518110610fa857fe5b60200260200101518660c001518281518110610fc057fe5b602002602001015102820191508080600101915050610f8b565b506000838a81610fe657fe5b60405163a9059cbb60e01b81529190049150848202906001600160a01b0387169063a9059cbb9061101d908d908590600401611aa1565b602060405180830381600087803b15801561103757600080fd5b505af115801561104b573d6000803e3d6000fd5b505050506040513d601f19601f8201168201806040525081019061106f9190611732565b61108b5760405162461bcd60e51b815260040161037690611ad6565b50505050505050505061109c61114d565b50505050565b6001546001600160a01b031633146110b957600080fd5b6110c1611134565b6001600160a01b038116600090815260026020526040902080546001600160a01b03191690556110f081611157565b6110f861114d565b50565b6001546001600160a01b0316331461111257600080fd5b600180546001600160a01b0319166001600160a01b0392909216919091179055565b6111466002600054141561019061116d565b6002600055565b6001600055565b90565b60006111628261117b565b90506101be816111c0565b816101be576101be81611265565b6000805b826001600160a01b03166003828154811061119657fe5b6000918252602090912001546001600160a01b0316146111b85760010161117f565b90505b919050565b6003546000190181101561123557600381600101815481106111de57fe5b600091825260209091200154600380546001600160a01b03909216918390811061120457fe5b600091825260209091200180546001600160a01b0319166001600160a01b03929092169190911790556001016111c0565b600380548061124057fe5b600082815260209020810160001990810180546001600160a01b031916905501905550565b62461bcd60e51b600090815260206004526007602452600a808304818106603090810160081b83860601918390049283060160101b016642414c230000300160c81b6044526110f8916210905360ea1b906242414c90606490fd5b60405180606001604052806060815260200160608152602001606081525090565b6040518060e0016040528060608152602001606081526020016000815260200160001515815260200160001515815260200160008152602001600081525090565b60405180610100016040528060006001600160a01b03168152602001600080191681526020016000815260200160608152602001606081526020016060815260200160608152602001606081525090565b600082601f830112611383578081fd5b8135602061139861139383611c15565b611bf1565b82815281810190858301838502870184018810156113b4578586fd5b855b858110156113db5781356113c981611c5f565b845292840192908401906001016113b6565b5090979650505050505050565b600082601f8301126113f8578081fd5b8135602061140861139383611c15565b8281528181019085830183850287018401881015611424578586fd5b855b858110156113db57813584529284019290840190600101611426565b600082601f830112611452578081fd5b8151602061146261139383611c15565b828152818101908583018385028701840188101561147e578586fd5b855b858110156113db57815184529284019290840190600101611480565b80356111bb81611c74565b600082601f8301126114b7578081fd5b813567ffffffffffffffff8111156114cb57fe5b6114de601f8201601f1916602001611bf1565b8181528460208386010111156114f2578283fd5b816020850160208301379081016020019190915292915050565b60006020828403121561151d578081fd5b813561152881611c5f565b9392505050565b60008060408385031215611541578081fd5b823561154c81611c5f565b9150602083013561155c81611c5f565b809150509250929050565b6000806000806080858703121561157c578182fd5b843561158781611c5f565b9350602085013561159781611c5f565b92506040850135915060608501356115ae81611c5f565b939692955090935050565b600080604083850312156115cb578182fd5b82516115d681611c5f565b60208401519092506003811061155c578182fd5b6000806000606084860312156115fe578081fd5b833561160981611c5f565b925060208401359150604084013561162081611c5f565b809150509250925092565b60008060006060848603121561163f578081fd5b835167ffffffffffffffff80821115611656578283fd5b818601915086601f830112611669578283fd5b8151602061167961139383611c15565b82815281810190858301838502870184018c1015611695578788fd5b8796505b848710156116c05780516116ac81611c5f565b835260019690960195918301918301611699565b50918901519197509093505050808211156116d9578283fd5b506116e686828701611442565b925050604084015190509250925092565b600060208284031215611708578081fd5b815167ffffffffffffffff81111561171e578182fd5b61172a84828501611442565b949350505050565b600060208284031215611743578081fd5b815161152881611c74565b60006020828403121561175f578081fd5b5051919050565b6000806000806000806000806000806000806101808d8f03121561178857898afd5b67ffffffffffffffff8d35111561179d57898afd5b6117aa8e8e358f016114a7565b9b5067ffffffffffffffff60208e013511156117c457898afd5b6117d48e60208f01358f016114a7565b9a5067ffffffffffffffff60408e013511156117ee57898afd5b6117fe8e60408f01358f01611373565b995067ffffffffffffffff60608e01351115611818578788fd5b6118288e60608f01358f016113e8565b985067ffffffffffffffff60808e01351115611842578788fd5b6118528e60808f01358f01611373565b975060a08d0135965061186760c08e0161149c565b955061187560e08e0161149c565b94506101008d013593506101208d013592506101408d013591506101608d013590509295989b509295989b509295989b565b6000815180845260208085019450808401835b838110156118df5781516001600160a01b0316875295820195908201906001016118ba565b509495945050505050565b6000815180845260208085019450808401835b838110156118df578151875295820195908201906001016118fd565b15159052565b60008151808452611937816020860160208601611c33565b601f01601f19169290920160200192915050565b6000815160608452611960606085018261191f565b905060208301518482036020860152611979828261191f565b9150506040830151848203604086015261199382826118a7565b95945050505050565b805160e0808452815190840181905260009160209190820190610100860190845b818110156119e25783516001600160a01b0316835292840192918401916001016119bd565b5050828501519150858103838701526119fb81836118ea565b92505050604083015160408501526060830151611a1b6060860182611919565b506080830151611a2e6080860182611919565b5060a083015160a085015260c083015160c08501528091505092915050565b60008251611a5f818460208701611c33565b9190910192915050565b6001600160a01b0391909116815260200190565b6001600160a01b039384168152919092166020820152604081019190915260600190565b6001600160a01b03929092168252602082015260400190565b60006020825261152860208301846118a7565b90815260200190565b6020808252818101527f5472616e73666572206f66206f757470757420746f6b656e73206661696c6564604082015260600190565b6020808252601f908201527f5472616e73666572206f6620696e70757420746f6b656e73206661696c656400604082015260600190565b60208082526005908201526422b93937b960d91b604082015260600190565b600060808252611b74608083018761194b565b8281036020840152611b86818761199c565b6001600160a01b0395909516604084015250506060015292915050565b600060a08252611bb660a083018861194b565b8281036020840152611bc8818861199c565b6001600160a01b0396909616604084015250506060810192909252151560809091015292915050565b60405181810167ffffffffffffffff81118282101715611c0d57fe5b604052919050565b600067ffffffffffffffff821115611c2957fe5b5060209081020190565b60005b83811015611c4e578181015183820152602001611c36565b8381111561109c5750506000910152565b6001600160a01b03811681146110f857600080fd5b80151581146110f857600080fdfea264697066735822122094aed5fd38e7b03f60eaca9ad6d22dea508a43e0895b5f4d07810eaadfbe2ae864736f6c63430007060033",
  "immutableReferences": {
    "1945": [
      {
        "length": 32,
        "start": 1344
      },
      {
        "length": 32,
        "start": 1631
      },
      {
        "length": 32,
        "start": 3118
      },
      {
        "length": 32,
        "start": 3405
      }
    ],
    "1947": [
      {
        "length": 32,
        "start": 555
      }
    ]
  },
  "source": "// SPDX-License-Identifier: MIT\n\npragma solidity ^0.7.0;\npragma experimental ABIEncoderV2;\nimport \"@balancer-labs/v2-solidity-utils/contracts/openzeppelin/ReentrancyGuard.sol\";\nimport \"@balancer-labs/v2-interfaces/contracts/vault/IVault.sol\";\nimport \"@balancer-labs/v2-interfaces/contracts/pool-utils/IManagedPool.sol\";\nimport \"./base/BaseUtils.sol\";\nimport \"./ManagedPoolFactory.sol\";\n\ncontract ReserveController is ReentrancyGuard, BaseUtils {\n\n    event CreatedPoolByDelegateCall(ManagedPoolParams managedPoolParams, ManagedPoolSettingsParams managedPoolSettingsParams, address callerAddress, bytes32 salt, bool success);\n\n    struct ReserveValues {\n        IManagedPool managedPool;\n        bytes32 poolId;\n        uint256 tokenPrice;\n        uint256[] tokenPrices;\n        uint256[] normalizedWeights;\n        IERC20[] tokens;\n        uint256[] balances;\n        IAsset[] assets;\n    }\n\n    // poolAddress mapped to reserve token\n    mapping(address => address) pools;\n    address[] private registeredPools;\n    IVault internal immutable vault;\n    address internal immutable managedPoolFactory;\n\n\n    /**\n     * @notice Constructor for the controller base class\n     *\n     * @param _vaultAddress - Vault contract address\n     */\n    constructor(address _vaultAddress,\n                address _managedPoolFactory) {\n        manager = msg.sender;\n        vault = IVault(_vaultAddress);\n        managedPoolFactory = _managedPoolFactory;\n    }\n\n    /**\n     * @notice Create and register a new managed pool\n     *\n     * @param _name - Pool name\n     * @param _symbol - Symbol representing the pool\n     * @param _tokens - Tokens in the pool\n     * @param _normalizedWeights - Normalized weights in the pool\n     * @param _assetManagers - Asset manager for the pool\n     * @param _swapFeePercentage - Fee applied to swaps\n     * @param _swapEnabledOnStart - Whether swaps are enabled straight away\n     * @param _mustAllowlistLPs - List of LP's allowed in the pool\n     * @param _managementAumFeePercentage - Management Aum fee to apply\n     * @param _aumFeeId - Aum Fee Id\n     */\n    function createAndRegisterManagedPoolstring(string memory _name,\n                                                string memory _symbol,\n                                                IERC20[] memory _tokens,\n                                                uint256[] memory _normalizedWeights,\n                                                address[] memory _assetManagers,\n                                                uint256 _swapFeePercentage,\n                                                bool _swapEnabledOnStart,\n                                                bool _mustAllowlistLPs,\n                                                uint256 _managementAumFeePercentage,\n                                                uint256 _aumFeeId,\n                                                uint256 _tolerance,\n                                                bytes32 _salt) public nonReentrant {\n        ManagedPoolParams memory poolParams;\n        poolParams.name = _name;\n        poolParams.symbol = _symbol;\n        poolParams.assetManagers = _assetManagers;\n\n        ManagedPoolSettingsParams memory poolSettingsParams;\n        poolSettingsParams.tokens = _tokens;\n        poolSettingsParams.normalizedWeights = _normalizedWeights;\n        poolSettingsParams.swapFeePercentage = _swapFeePercentage;\n        poolSettingsParams.swapEnabledOnStart = _swapEnabledOnStart;\n        poolSettingsParams.mustAllowlistLPs = _mustAllowlistLPs;\n        poolSettingsParams.managementAumFeePercentage = _managementAumFeePercentage;\n        poolSettingsParams.aumFeeId = _aumFeeId;\n\n        (bool success, bytes memory result) = managedPoolFactory.delegatecall(\n            abi.encodeWithSignature(\"create(ManagedPoolParams, ManagedPoolSettingsParams, address, bytes32)\", poolParams, poolSettingsParams, msg.sender, _salt)\n        );\n\n        emit CreatedPoolByDelegateCall(poolParams, poolSettingsParams, msg.sender, _salt, success);\n    }\n\n\n    /**\n     * @notice returns a list of registered pools\n     *\n     */\n    function getRegisteredPools() public view returns (address[] memory) {\n        return registeredPools;\n    }\n\n    /**\n     * @notice Register managed pool\n     *\n     * @param _managedPool - Address of pool being worked on.\n     * @param _reserveToken - Address of pool being worked on.\n     */\n    function registerManagedPool(\n        address _managedPool,\n        address _reserveToken) public restricted nonReentrant {\n        pools[_managedPool] = _reserveToken;\n        registeredPools.push(_managedPool);\n    }\n\n    /**\n     * @notice Deregister managed pool\n     *\n     * @param _managedPool - Address of pool being worked on.\n     */\n    function deRegisterManagedPool(\n        address _managedPool) public restricted nonReentrant {\n        delete pools[_managedPool];\n        removeByValue(_managedPool);\n    }\n\n    /**\n     * @notice This function is used for pools containing two tokensRuns a check\n      and transfers reserve tokens as needed\n     *\n     * @param _tokenIn - Address of collateral token* @param _tokenIn - Address of collateral token\n     * @param _amountIn - The amount being traded\n     * @param _recipient - Address of person to receive the swapped tokens\n     */\n    function buyReserveToken(address  _tokenIn,\n                             uint256 _amountIn,\n                             address _recipient) public nonReentrant checkPoolSupported(_tokenIn)\n    {\n        // Retrieve a list of tokens, balances and normalised weights for the pool\n        ReserveValues memory reserveValues;\n        reserveValues.managedPool = IManagedPool(_tokenIn);\n        IERC20 bptToken = IERC20(_tokenIn);\n\n        // Transfer the input tokens from the sender to this contract\n        require(bptToken.transferFrom(msg.sender, address(this), _amountIn), \"Transfer of input tokens failed\");\n\n        // Calculate the buyers share of the pool\n        uint256 totalSupply = bptToken.totalSupply();\n        uint256 myShare = _amountIn / totalSupply;\n\n        reserveValues.poolId = reserveValues.managedPool.getPoolId();\n        vault.getPool(reserveValues.poolId);\n        reserveValues.normalizedWeights = reserveValues.managedPool.getNormalizedWeights();\n\n        (reserveValues.tokens, reserveValues.balances,) = vault.getPoolTokens(reserveValues.poolId);\n        reserveValues.assets = SupportLib._convertERC20sToAssets(reserveValues.tokens);\n\n        // Calculate token prices using the DEX\n        if (reserveValues.balances[0]  > 0)\n        {\n            reserveValues.tokenPrices[0] = (reserveValues.balances[1] / reserveValues.normalizedWeights[1]) / (reserveValues.balances[0] / reserveValues.normalizedWeights[0]);\n        }\n\n        for (uint256 i = 1; i < reserveValues.tokens.length; i++) {\n            reserveValues.tokenPrice = 0;\n            if (reserveValues.balances[i] > 0)\n            {\n                reserveValues.tokenPrices[1] = (reserveValues.balances[0] / reserveValues.normalizedWeights[0]) / (reserveValues.balances[i] / reserveValues.normalizedWeights[i]);\n            }\n        }\n\n        // Calculate the total value of the pool\n        uint256 totalPoolValue = 0;\n        for (uint256 i = 0; i < reserveValues.tokens.length; i++) {\n            totalPoolValue = totalPoolValue + (reserveValues.balances[i] * reserveValues.tokenPrices[i]);\n        }\n\n        // Calculate supplied token value\n        uint256 myShareValue = myShare * totalPoolValue;\n\n        IERC20 reserveToken = IERC20(pools[_tokenIn]);\n\n        // Transfer the output tokens from this contract to the recipient\n        require(reserveToken.transfer(_recipient, myShareValue), \"Transfer of output tokens failed\");\n    }\n\n    /**\n     * @notice Runs a check and transfers reserve tokens as needed\n     * @dev To avoid too many fees, this should be run at wide intervals such as daily\n     *\n     * @param _tokenIn - Address of reserve token\n     * @param _amountIn - The amount being traded\n     * @param _recipient - Address of person to receive the swapped tokens\n     */\n    function sellReserveToken(address _tokenIn,\n                              address _pool,\n                              uint256 _amountIn,\n                              address _recipient) public nonReentrant checkPoolSupported(_tokenIn)\n    {\n        // Retrieve a list of tokens, balances and normalised weights for the pool\n        ReserveValues memory reserveValues;\n        reserveValues.managedPool = IManagedPool(_pool);\n        IERC20 bptToken = IERC20(_pool);\n        uint256 totalSupply = bptToken.totalSupply();\n\n        // Transfer the input tokens from the sender to this contract\n        IERC20 collateralToken = IERC20(_tokenIn);\n        require(collateralToken.transferFrom(msg.sender, address(this), _amountIn), \"Transfer of input tokens failed\");\n\n        reserveValues.poolId = reserveValues.managedPool.getPoolId();\n        vault.getPool(reserveValues.poolId);\n        reserveValues.normalizedWeights = reserveValues.managedPool.getNormalizedWeights();\n\n        (reserveValues.tokens, reserveValues.balances,) = vault.getPoolTokens(reserveValues.poolId);\n        reserveValues.assets = SupportLib._convertERC20sToAssets(reserveValues.tokens);\n\n        // Calculate token prices using the DEX\n        if (reserveValues.balances[0]  > 0)\n        {\n            reserveValues.tokenPrices[0] = (reserveValues.balances[1] / reserveValues.normalizedWeights[1]) / (reserveValues.balances[0] / reserveValues.normalizedWeights[0]);\n        }\n\n        for (uint256 i = 1; i < reserveValues.tokens.length; i++) {\n            reserveValues.tokenPrice = 0;\n            if (reserveValues.balances[i] > 0)\n            {\n                reserveValues.tokenPrices[1] = (reserveValues.balances[0] / reserveValues.normalizedWeights[0]) / (reserveValues.balances[i] / reserveValues.normalizedWeights[i]);\n            }\n        }\n\n        // Calculate the total value of the pool\n        uint256 totalPoolValue = 0;\n        for (uint256 i = 0; i < reserveValues.tokens.length; i++) {\n            totalPoolValue = totalPoolValue + (reserveValues.balances[i] * reserveValues.tokenPrices[i]);\n        }\n\n        // Calculate supplied token value\n        uint256 myShare = _amountIn / totalSupply;\n        uint256 myBptAmount = myShare * totalSupply;\n\n        // Transfer the output tokens from this contract to the recipient\n        require(bptToken.transfer(_recipient, myBptAmount), \"Transfer of output tokens failed\");\n    }\n\n    /**\n     * @notice returns the array index containing supplied address\n     *\n     * @param value - Address to find\n     */\n    function find(address value) private view returns(uint) {\n        uint i = 0;\n        while (registeredPools[i] != value) {\n            i++;\n        }\n        return i;\n    }\n\n    /**\n     * @notice removes supplied address from array of addresses\n     *\n     */\n    function removeByValue(address value) private {\n        uint i = find(value);\n        removeByIndex(i);\n    }\n\n    /**\n     * @notice remove the item at index, resizing array as needed\n     *\n     */\n    function removeByIndex(uint i) private {\n        while (i < registeredPools.length-1) {\n            registeredPools[i] = registeredPools[i+1];\n            i++;\n        }\n        registeredPools.pop();\n    }\n\n    /**\n     * @dev Modifier to check token allowance\n     */\n    modifier checkPoolSupported(address _managedPool) {\n        IManagedPool managedPool = IManagedPool(_managedPool);\n        require(pools[_managedPool] != address(0x0), \"Error\");\n        _;\n    }\n}\n",
  "sourcePath": "/home/eagle/Source/Balancer.Controller/contracts/ReserveController.sol",
  "compiler": {
    "name": "solc",
    "version": "0.7.6+commit.7338295f.Emscripten.clang"
  },
  "schemaVersion": "3.4.13",
  "updatedAt": "2023-06-17T15:48:05.165Z",
  "networkType": "ethereum",
  "devdoc": {
    "kind": "dev",
    "methods": {
      "buyReserveToken(address,uint256,address)": {
        "params": {
          "_amountIn": "- The amount being traded",
          "_recipient": "- Address of person to receive the swapped tokens",
          "_tokenIn": "- Address of collateral token* @param _tokenIn - Address of collateral token"
        }
      },
      "constructor": {
        "params": {
          "_vaultAddress": "- Vault contract address"
        }
      },
      "createAndRegisterManagedPoolstring(string,string,address[],uint256[],address[],uint256,bool,bool,uint256,uint256,uint256,bytes32)": {
        "params": {
          "_assetManagers": "- Asset manager for the pool",
          "_aumFeeId": "- Aum Fee Id",
          "_managementAumFeePercentage": "- Management Aum fee to apply",
          "_mustAllowlistLPs": "- List of LP's allowed in the pool",
          "_name": "- Pool name",
          "_normalizedWeights": "- Normalized weights in the pool",
          "_swapEnabledOnStart": "- Whether swaps are enabled straight away",
          "_swapFeePercentage": "- Fee applied to swaps",
          "_symbol": "- Symbol representing the pool",
          "_tokens": "- Tokens in the pool"
        }
      },
      "deRegisterManagedPool(address)": {
        "params": {
          "_managedPool": "- Address of pool being worked on."
        }
      },
      "registerManagedPool(address,address)": {
        "params": {
          "_managedPool": "- Address of pool being worked on.",
          "_reserveToken": "- Address of pool being worked on."
        }
      },
      "sellReserveToken(address,address,uint256,address)": {
        "details": "To avoid too many fees, this should be run at wide intervals such as daily",
        "params": {
          "_amountIn": "- The amount being traded",
          "_recipient": "- Address of person to receive the swapped tokens",
          "_tokenIn": "- Address of reserve token"
        }
      },
      "transferManagement(address)": {
        "details": "Only one manager can presently be set",
        "params": {
          "_manager": "- New manager."
        }
      }
    },
    "version": 1
  },
  "userdoc": {
    "kind": "user",
    "methods": {
      "buyReserveToken(address,uint256,address)": {
        "notice": "This function is used for pools containing two tokensRuns a check and transfers reserve tokens as needed"
      },
      "constructor": {
        "notice": "Constructor for the controller base class"
      },
      "createAndRegisterManagedPoolstring(string,string,address[],uint256[],address[],uint256,bool,bool,uint256,uint256,uint256,bytes32)": {
        "notice": "Create and register a new managed pool"
      },
      "deRegisterManagedPool(address)": {
        "notice": "Deregister managed pool"
      },
      "getRegisteredPools()": {
        "notice": "returns a list of registered pools"
      },
      "registerManagedPool(address,address)": {
        "notice": "Register managed pool"
      },
      "sellReserveToken(address,address,uint256,address)": {
        "notice": "Runs a check and transfers reserve tokens as needed"
      },
      "transferManagement(address)": {
        "notice": "Transfer the manager to a new address"
      }
    },
    "version": 1
  }
}