{
  "contractName": "ReserveController",
  "abi": [
    {
      "inputs": [
        {
          "internalType": "address",
          "name": "_vaultAddress",
          "type": "address"
        },
        {
          "internalType": "address",
          "name": "_managedPoolFactory",
          "type": "address"
        }
      ],
      "stateMutability": "nonpayable",
      "type": "constructor"
    },
    {
      "anonymous": false,
      "inputs": [
        {
          "components": [
            {
              "internalType": "string",
              "name": "name",
              "type": "string"
            },
            {
              "internalType": "string",
              "name": "symbol",
              "type": "string"
            },
            {
              "internalType": "address[]",
              "name": "assetManagers",
              "type": "address[]"
            }
          ],
          "indexed": false,
          "internalType": "struct ManagedPoolParams",
          "name": "managedPoolParams",
          "type": "tuple"
        },
        {
          "components": [
            {
              "internalType": "contract IERC20[]",
              "name": "tokens",
              "type": "address[]"
            },
            {
              "internalType": "uint256[]",
              "name": "normalizedWeights",
              "type": "uint256[]"
            },
            {
              "internalType": "uint256",
              "name": "swapFeePercentage",
              "type": "uint256"
            },
            {
              "internalType": "bool",
              "name": "swapEnabledOnStart",
              "type": "bool"
            },
            {
              "internalType": "bool",
              "name": "mustAllowlistLPs",
              "type": "bool"
            },
            {
              "internalType": "uint256",
              "name": "managementAumFeePercentage",
              "type": "uint256"
            },
            {
              "internalType": "uint256",
              "name": "aumFeeId",
              "type": "uint256"
            }
          ],
          "indexed": false,
          "internalType": "struct ManagedPoolSettingsParams",
          "name": "managedPoolSettingsParams",
          "type": "tuple"
        },
        {
          "indexed": false,
          "internalType": "address",
          "name": "callerAddress",
          "type": "address"
        },
        {
          "indexed": false,
          "internalType": "bytes32",
          "name": "salt",
          "type": "bytes32"
        },
        {
          "indexed": false,
          "internalType": "bool",
          "name": "success",
          "type": "bool"
        }
      ],
      "name": "CreatedPoolByDelegateCall",
      "type": "event"
    },
    {
      "inputs": [],
      "name": "manager",
      "outputs": [
        {
          "internalType": "address",
          "name": "",
          "type": "address"
        }
      ],
      "stateMutability": "view",
      "type": "function"
    },
    {
      "inputs": [
        {
          "internalType": "address",
          "name": "_manager",
          "type": "address"
        }
      ],
      "name": "transferManagement",
      "outputs": [],
      "stateMutability": "nonpayable",
      "type": "function"
    },
    {
      "inputs": [
        {
          "internalType": "string",
          "name": "_name",
          "type": "string"
        },
        {
          "internalType": "string",
          "name": "_symbol",
          "type": "string"
        },
        {
          "internalType": "contract IERC20[]",
          "name": "_tokens",
          "type": "address[]"
        },
        {
          "internalType": "uint256[]",
          "name": "_normalizedWeights",
          "type": "uint256[]"
        },
        {
          "internalType": "address[]",
          "name": "_assetManagers",
          "type": "address[]"
        },
        {
          "internalType": "uint256",
          "name": "_swapFeePercentage",
          "type": "uint256"
        },
        {
          "internalType": "bool",
          "name": "_swapEnabledOnStart",
          "type": "bool"
        },
        {
          "internalType": "bool",
          "name": "_mustAllowlistLPs",
          "type": "bool"
        },
        {
          "internalType": "uint256",
          "name": "_managementAumFeePercentage",
          "type": "uint256"
        },
        {
          "internalType": "uint256",
          "name": "_aumFeeId",
          "type": "uint256"
        },
        {
          "internalType": "bytes32",
          "name": "_salt",
          "type": "bytes32"
        }
      ],
      "name": "createPool",
      "outputs": [],
      "stateMutability": "nonpayable",
      "type": "function"
    },
    {
      "inputs": [],
      "name": "getRegisteredPools",
      "outputs": [
        {
          "internalType": "address[]",
          "name": "",
          "type": "address[]"
        }
      ],
      "stateMutability": "view",
      "type": "function"
    },
    {
      "inputs": [
        {
          "internalType": "address",
          "name": "_managedPool",
          "type": "address"
        }
      ],
      "name": "registerManagedPool",
      "outputs": [],
      "stateMutability": "nonpayable",
      "type": "function"
    },
    {
      "inputs": [
        {
          "internalType": "address",
          "name": "_managedPool",
          "type": "address"
        }
      ],
      "name": "deRegisterManagedPool",
      "outputs": [],
      "stateMutability": "nonpayable",
      "type": "function"
    },
    {
      "inputs": [
        {
          "internalType": "address",
          "name": "_tokenIn",
          "type": "address"
        },
        {
          "internalType": "uint256",
          "name": "_amountIn",
          "type": "uint256"
        },
        {
          "internalType": "address",
          "name": "_recipient",
          "type": "address"
        }
      ],
      "name": "buyReserveToken",
      "outputs": [],
      "stateMutability": "nonpayable",
      "type": "function"
    },
    {
      "inputs": [
        {
          "internalType": "address",
          "name": "_tokenIn",
          "type": "address"
        },
        {
          "internalType": "address",
          "name": "_pool",
          "type": "address"
        },
        {
          "internalType": "uint256",
          "name": "_amountIn",
          "type": "uint256"
        },
        {
          "internalType": "address",
          "name": "_recipient",
          "type": "address"
        }
      ],
      "name": "sellReserveToken",
      "outputs": [],
      "stateMutability": "nonpayable",
      "type": "function"
    }
  ],
  "bytecode": "0x60c06040523480156200001157600080fd5b5060405162001cba38038062001cba833981016040819052620000349162000087565b6001600081905580546001600160a01b031916331790556001600160601b0319606092831b8116608052911b1660a052620000be565b80516001600160a01b03811681146200008257600080fd5b919050565b600080604083850312156200009a578182fd5b620000a5836200006a565b9150620000b5602084016200006a565b90509250929050565b60805160601c60a05160601c611bc3620000f7600039806108a75250806103a152806104c05280610bcf5280610cee5250611bc36000f3fe608060405234801561001057600080fd5b50600436106100885760003560e01c80638c4288cd1161005b5780638c4288cd146100e8578063c944994c146100fb578063d22320e21461010e578063e4edf8521461012157610088565b8063041ead601461008d57806347958851146100a2578063481c6a75146100b5578063659d4f5c146100d3575b600080fd5b6100a061009b366004611476565b610134565b005b6100a06100b0366004611543565b6101a9565b6100bd6107d5565b6040516100ca919061199b565b60405180910390f35b6100db6107e4565b6040516100ca91906119ec565b6100a06100f63660046116bf565b610846565b6100a06101093660046114b5565b6109e1565b6100a061011c366004611476565b611031565b6100a061012f366004611476565b611061565b6001546001600160a01b0316331461014b57600080fd5b61015361109a565b600280546001810182556000919091527f405787fa12a823e0f2b7631cc41b3ba8828b3321ca811111fa75cd3aa3bb5ace0180546001600160a01b0319166001600160a01b0383161790556101a66110b3565b50565b6101b161109a565b826101bb816110ba565b6101e05760405162461bcd60e51b81526004016101d790611a3f565b60405180910390fd5b6101e861122a565b6001600160a01b0385168082526040516323b872dd60e01b81528691906323b872dd9061021d90339030908a906004016119af565b602060405180830381600087803b15801561023757600080fd5b505af115801561024b573d6000803e3d6000fd5b505050506040513d601f19601f8201168201806040525081019061026f919061168b565b61028b5760405162461bcd60e51b81526004016101d790611a08565b6000816001600160a01b03166318160ddd6040518163ffffffff1660e01b815260040160206040518083038186803b1580156102c657600080fd5b505afa1580156102da573d6000803e3d6000fd5b505050506040513d601f19601f820116820180604052508101906102fe91906116a7565b9050600081878161030b57fe5b04905083600001516001600160a01b03166338fff2d06040518163ffffffff1660e01b815260040160206040518083038186803b15801561034b57600080fd5b505afa15801561035f573d6000803e3d6000fd5b505050506040513d601f19601f8201168201806040525081019061038391906116a7565b6020850181905260405163f6c0092760e01b81526001600160a01b037f0000000000000000000000000000000000000000000000000000000000000000169163f6c00927916103d591906004016119ff565b604080518083038186803b1580156103ec57600080fd5b505afa158015610400573d6000803e3d6000fd5b505050506040513d601f19601f820116820180604052508101906104249190611507565b505083600001516001600160a01b031663f89f27ed6040518163ffffffff1660e01b815260040160006040518083038186803b15801561046357600080fd5b505afa158015610477573d6000803e3d6000fd5b505050506040513d6000823e601f3d908101601f1916820160405261049f9190810190611650565b60808501526020840151604051631f29a8cd60e31b81526001600160a01b037f0000000000000000000000000000000000000000000000000000000000000000169163f94d4668916104f491906004016119ff565b60006040518083038186803b15801561050c57600080fd5b505afa158015610520573d6000803e3d6000fd5b505050506040513d6000823e601f3d908101601f191682016040526105489190810190611584565b5060c086015260a0850181905261055e906110ff565b8460e0018190525060008460c0015160008151811061057957fe5b6020026020010151111561062157836080015160008151811061059857fe5b60200260200101518460c001516000815181106105b157fe5b6020026020010151816105c057fe5b0484608001516001815181106105d257fe5b60200260200101518560c001516001815181106105eb57fe5b6020026020010151816105fa57fe5b048161060257fe5b04846060015160008151811061061457fe5b6020026020010181815250505b60015b8460a00151518110156106f05760008560c00151828151811061064357fe5b602002602001015111156106e8578460800151818151811061066157fe5b60200260200101518560c00151828151811061067957fe5b60200260200101518161068857fe5b04856080015160008151811061069a57fe5b60200260200101518660c001516000815181106106b357fe5b6020026020010151816106c257fe5b04816106ca57fe5b04856060015182815181106106db57fe5b6020026020010181815250505b600101610624565b506000805b8560a0015151811015610744578560600151818151811061071257fe5b60200260200101518660c00151828151811061072a57fe5b6020026020010151028201915080806001019150506106f5565b506040516340c10f1960e01b81528282029073785fa6c4383c42def4182c1820d23f1196a112ce9081906340c10f199061078e908c90670de0b6b3a76400008702906004016119d3565b600060405180830381600087803b1580156107a857600080fd5b505af11580156107bc573d6000803e3d6000fd5b5050505050505050505050506107d06110b3565b505050565b6001546001600160a01b031681565b6060600280548060200260200160405190810160405280929190818152602001828054801561083c57602002820191906000526020600020905b81546001600160a01b0316815260019091019060200180831161081e575b5050505050905090565b61084e61127b565b8b8152602081018b90526040810188905261086761129c565b8a8152602081018a905260408082018990528715156060830152861515608083015260a0820186905260c082018590525160009081906001600160a01b037f00000000000000000000000000000000000000000000000000000000000000001690637304b8b960e01b906108e5908790879033908b90602401611a6c565b60408051601f198184030181529181526020820180516001600160e01b03166001600160e01b0319909416939093179092529051610923919061197f565b600060405180830381855af49150503d806000811461095e576040519150601f19603f3d011682016040523d82523d6000602084013e610963565b606091505b50915091507f15fd418169a4890b496e7cb6e8a9d72d1790b6247d3ebe27b87894ff2c3e4354848433888660405161099f959493929190611aae565b60405180910390a181156109d0576000818060200190518101906109c39190611499565b90506109ce81610134565b505b505050505050505050505050505050565b6109e961109a565b826109f3816110ba565b610a0f5760405162461bcd60e51b81526004016101d790611a3f565b610a1761122a565b6001600160a01b038516808252604080516318160ddd60e01b81529051879260009290916318160ddd91600480820192602092909190829003018186803b158015610a6157600080fd5b505afa158015610a75573d6000803e3d6000fd5b505050506040513d601f19601f82011682018060405250810190610a9991906116a7565b6040516323b872dd60e01b815290915088906001600160a01b038216906323b872dd90610ace90339030908c906004016119af565b602060405180830381600087803b158015610ae857600080fd5b505af1158015610afc573d6000803e3d6000fd5b505050506040513d601f19601f82011682018060405250810190610b20919061168b565b610b3c5760405162461bcd60e51b81526004016101d790611a08565b83600001516001600160a01b03166338fff2d06040518163ffffffff1660e01b815260040160206040518083038186803b158015610b7957600080fd5b505afa158015610b8d573d6000803e3d6000fd5b505050506040513d601f19601f82011682018060405250810190610bb191906116a7565b6020850181905260405163f6c0092760e01b81526001600160a01b037f0000000000000000000000000000000000000000000000000000000000000000169163f6c0092791610c0391906004016119ff565b604080518083038186803b158015610c1a57600080fd5b505afa158015610c2e573d6000803e3d6000fd5b505050506040513d601f19601f82011682018060405250810190610c529190611507565b505083600001516001600160a01b031663f89f27ed6040518163ffffffff1660e01b815260040160006040518083038186803b158015610c9157600080fd5b505afa158015610ca5573d6000803e3d6000fd5b505050506040513d6000823e601f3d908101601f19168201604052610ccd9190810190611650565b60808501526020840151604051631f29a8cd60e31b81526001600160a01b037f0000000000000000000000000000000000000000000000000000000000000000169163f94d466891610d2291906004016119ff565b60006040518083038186803b158015610d3a57600080fd5b505afa158015610d4e573d6000803e3d6000fd5b505050506040513d6000823e601f3d908101601f19168201604052610d769190810190611584565b5060c086015260a08501819052610d8c906110ff565b8460e0018190525060008460c00151600081518110610da757fe5b60200260200101511115610e4f578360800151600081518110610dc657fe5b60200260200101518460c00151600081518110610ddf57fe5b602002602001015181610dee57fe5b048460800151600181518110610e0057fe5b60200260200101518560c00151600181518110610e1957fe5b602002602001015181610e2857fe5b0481610e3057fe5b048460600151600081518110610e4257fe5b6020026020010181815250505b60015b8460a0015151811015610f275760006040860181905260c0860151805183908110610e7957fe5b60200260200101511115610f1f5784608001518181518110610e9757fe5b60200260200101518560c001518281518110610eaf57fe5b602002602001015181610ebe57fe5b048560800151600081518110610ed057fe5b60200260200101518660c00151600081518110610ee957fe5b602002602001015181610ef857fe5b0481610f0057fe5b048560600151600181518110610f1257fe5b6020026020010181815250505b600101610e52565b506000805b8560a0015151811015610f7b5785606001518181518110610f4957fe5b60200260200101518660c001518281518110610f6157fe5b602002602001015102820191508080600101915050610f2c565b506000838981610f8757fe5b60405163a9059cbb60e01b81529190049150848202906001600160a01b0387169063a9059cbb90610fc8908c90670de0b6b3a76400008602906004016119d3565b602060405180830381600087803b158015610fe257600080fd5b505af1158015610ff6573d6000803e3d6000fd5b505050506040513d601f19601f8201168201806040525081019061101a919061168b565b50505050505050505061102b6110b3565b50505050565b6001546001600160a01b0316331461104857600080fd5b61105061109a565b61105981611102565b6101a66110b3565b6001546001600160a01b0316331461107857600080fd5b600180546001600160a01b0319166001600160a01b0392909216919091179055565b6110ac6002600054141561019061111c565b6002600055565b6001600055565b6000805b826001600160a01b0316600282815481106110d557fe5b6000918252602090912001546001600160a01b0316146110f7576001016110be565b90505b919050565b90565b600061110d826110ba565b90506111188161112a565b5050565b8161111857611118816111cf565b6002546000190181101561119f576002816001018154811061114857fe5b600091825260209091200154600280546001600160a01b03909216918390811061116e57fe5b600091825260209091200180546001600160a01b0319166001600160a01b039290921691909117905560010161112a565b60028054806111aa57fe5b600082815260209020810160001990810180546001600160a01b031916905501905550565b62461bcd60e51b600090815260206004526007602452600a808304818106603090810160081b83860601918390049283060160101b016642414c230000300160c81b6044526101a6916210905360ea1b906242414c90606490fd5b60405180610100016040528060006001600160a01b03168152602001600080191681526020016000815260200160608152602001606081526020016060815260200160608152602001606081525090565b60405180606001604052806060815260200160608152602001606081525090565b6040518060e0016040528060608152602001606081526020016000815260200160001515815260200160001515815260200160008152602001600081525090565b600082601f8301126112ed578081fd5b813560206113026112fd83611b20565b611afc565b828152818101908583018385028701840188101561131e578586fd5b855b8581101561134557813561133381611b6a565b84529284019290840190600101611320565b5090979650505050505050565b600082601f830112611362578081fd5b813560206113726112fd83611b20565b828152818101908583018385028701840188101561138e578586fd5b855b8581101561134557813584529284019290840190600101611390565b600082601f8301126113bc578081fd5b815160206113cc6112fd83611b20565b82815281810190858301838502870184018810156113e8578586fd5b855b85811015611345578151845292840192908401906001016113ea565b80356110fa81611b7f565b600082601f830112611421578081fd5b813567ffffffffffffffff81111561143557fe5b611448601f8201601f1916602001611afc565b81815284602083860101111561145c578283fd5b816020850160208301379081016020019190915292915050565b600060208284031215611487578081fd5b813561149281611b6a565b9392505050565b6000602082840312156114aa578081fd5b815161149281611b6a565b600080600080608085870312156114ca578283fd5b84356114d581611b6a565b935060208501356114e581611b6a565b92506040850135915060608501356114fc81611b6a565b939692955090935050565b60008060408385031215611519578182fd5b825161152481611b6a565b602084015190925060038110611538578182fd5b809150509250929050565b600080600060608486031215611557578081fd5b833561156281611b6a565b925060208401359150604084013561157981611b6a565b809150509250925092565b600080600060608486031215611598578081fd5b835167ffffffffffffffff808211156115af578283fd5b818601915086601f8301126115c2578283fd5b815160206115d26112fd83611b20565b82815281810190858301838502870184018c10156115ee578788fd5b8796505b8487101561161957805161160581611b6a565b8352600196909601959183019183016115f2565b5091890151919750909350505080821115611632578283fd5b5061163f868287016113ac565b925050604084015190509250925092565b600060208284031215611661578081fd5b815167ffffffffffffffff811115611677578182fd5b611683848285016113ac565b949350505050565b60006020828403121561169c578081fd5b815161149281611b7f565b6000602082840312156116b8578081fd5b5051919050565b60008060008060008060008060008060006101608c8e0312156116e0578889fd5b67ffffffffffffffff808d3511156116f657898afd5b6117038e8e358f01611411565b9b508060208e0135111561171557898afd5b6117258e60208f01358f01611411565b9a508060408e0135111561173757898afd5b6117478e60408f01358f016112dd565b99508060608e01351115611759578788fd5b6117698e60608f01358f01611352565b98508060808e0135111561177b578788fd5b5061178c8d60808e01358e016112dd565b965060a08c013595506117a160c08d01611406565b94506117af60e08d01611406565b93506101008c013592506101208c013591506101408c013590509295989b509295989b9093969950565b6000815180845260208085019450808401835b838110156118115781516001600160a01b0316875295820195908201906001016117ec565b509495945050505050565b6000815180845260208085019450808401835b838110156118115781518752958201959082019060010161182f565b15159052565b60008151808452611869816020860160208601611b3e565b601f01601f19169290920160200192915050565b60008151606084526118926060850182611851565b9050602083015184820360208601526118ab8282611851565b915050604083015184820360408601526118c582826117d9565b95945050505050565b805160e0808452815190840181905260009160209190820190610100860190845b818110156119145783516001600160a01b0316835292840192918401916001016118ef565b50508285015191508581038387015261192d818361181c565b9250505060408301516040850152606083015161194d606086018261184b565b506080830151611960608086018261184b565b5060a083015160a085015260c083015160c08501528091505092915050565b60008251611991818460208701611b3e565b9190910192915050565b6001600160a01b0391909116815260200190565b6001600160a01b039384168152919092166020820152604081019190915260600190565b6001600160a01b03929092168252602082015260400190565b60006020825261149260208301846117d9565b90815260200190565b6020808252601f908201527f5472616e73666572206f6620696e70757420746f6b656e73206661696c656400604082015260600190565b602080825260139082015272141bdbdb081b9bdd081c9959da5cdd195c9959606a1b604082015260600190565b600060808252611a7f608083018761187d565b8281036020840152611a9181876118ce565b6001600160a01b0395909516604084015250506060015292915050565b600060a08252611ac160a083018861187d565b8281036020840152611ad381886118ce565b6001600160a01b0396909616604084015250506060810192909252151560809091015292915050565b60405181810167ffffffffffffffff81118282101715611b1857fe5b604052919050565b600067ffffffffffffffff821115611b3457fe5b5060209081020190565b60005b83811015611b59578181015183820152602001611b41565b8381111561102b5750506000910152565b6001600160a01b03811681146101a657600080fd5b80151581146101a657600080fdfea2646970667358221220c5567fbbb6c436c081ec4139002db0f3ff42a2f601211ef82e5d6244a56708f764736f6c63430007060033",
  "immutableReferences": {
    "2297": [
      {
        "length": 32,
        "start": 929
      },
      {
        "length": 32,
        "start": 1216
      },
      {
        "length": 32,
        "start": 3023
      },
      {
        "length": 32,
        "start": 3310
      }
    ],
    "2299": [
      {
        "length": 32,
        "start": 2215
      }
    ]
  },
  "source": "// SPDX-License-Identifier: MIT\n\npragma solidity ^0.7.0;\npragma experimental ABIEncoderV2;\nimport \"./base/BaseUtils.sol\";\nimport \"@balancer-labs/v2-interfaces/contracts/pool-utils/IManagedPool.sol\";\nimport \"@balancer-labs/v2-interfaces/contracts/vault/IVault.sol\";\nimport \"./lib/ManagedPoolFactory.sol\";\nimport \"@balancer-labs/v2-solidity-utils/contracts/openzeppelin/ReentrancyGuard.sol\";\nimport \"./lib/ReserveToken.sol\";\n\ncontract ReserveController is ReentrancyGuard, BaseUtils {\n\n    event CreatedPoolByDelegateCall(ManagedPoolParams managedPoolParams, ManagedPoolSettingsParams managedPoolSettingsParams, address callerAddress, bytes32 salt, bool success);\n\n    struct TradeValues {\n        IManagedPool collateral;\n        bytes32 poolId;\n        uint256 tokenPrice;\n        uint256[] tokenPrices;\n        uint256[] normalizedWeights;\n        IERC20[] tokens;\n        uint256[] balances;\n        IAsset[] assets;\n    }\n\n    address[] private registeredPools;\n    IVault internal immutable vault;\n    address internal immutable managedPoolFactory;\n\n    /**\n     * @notice Constructor for the controller base class\n     *\n     * @param _vaultAddress - Vault contract address\n     * @param _managedPoolFactory - ManegedPoolFactory address\n     */\n    constructor(address _vaultAddress,\n                address _managedPoolFactory) {\n        manager = msg.sender;\n        vault = IVault(_vaultAddress);\n        managedPoolFactory = _managedPoolFactory;\n    }\n\n    /**\n     * @notice Create and register a new managed pool\n     *\n     * @param _name - Pool name\n     * @param _symbol - Symbol representing the pool\n     * @param _tokens - Tokens in the pool\n     * @param _normalizedWeights - Normalized weights in the pool\n     * @param _assetManagers - Asset manager for the pool\n     * @param _swapFeePercentage - Fee applied to swaps\n     * @param _swapEnabledOnStart - Whether swaps are enabled straight away\n     * @param _mustAllowlistLPs - List of LP's allowed in the pool\n     * @param _managementAumFeePercentage - Management Aum fee to apply\n     * @param _aumFeeId - Aum Fee Id\n     * @param _salt - Salt applied to address to ensure uniqueness\n     */\n    function createPool(string memory _name,\n                        string memory _symbol,\n                        IERC20[] memory _tokens,\n                        uint256[] memory _normalizedWeights,\n                        address[] memory _assetManagers,\n                        uint256 _swapFeePercentage,\n                        bool _swapEnabledOnStart,\n                        bool _mustAllowlistLPs,\n                        uint256 _managementAumFeePercentage,\n                        uint256 _aumFeeId,\n                        bytes32 _salt) public {\n        ManagedPoolParams memory poolParams;\n        poolParams.name = _name;\n        poolParams.symbol = _symbol;\n        poolParams.assetManagers = _assetManagers;\n\n        ManagedPoolSettingsParams memory poolSettingsParams;\n        poolSettingsParams.tokens = _tokens;\n        poolSettingsParams.normalizedWeights = _normalizedWeights;\n        poolSettingsParams.swapFeePercentage = _swapFeePercentage;\n        poolSettingsParams.swapEnabledOnStart = _swapEnabledOnStart;\n        poolSettingsParams.mustAllowlistLPs = _mustAllowlistLPs;\n        poolSettingsParams.managementAumFeePercentage = _managementAumFeePercentage;\n        poolSettingsParams.aumFeeId = _aumFeeId;\n\n        (bool success, bytes memory result) = managedPoolFactory.delegatecall(\n            abi.encodeWithSelector(ManagedPoolFactory.create.selector, poolParams, poolSettingsParams, msg.sender, _salt)\n        );\n\n        emit CreatedPoolByDelegateCall(poolParams, poolSettingsParams, msg.sender, _salt, success);\n        if (success)\n        {\n            address poolAddress = abi.decode(result, (address));\n            registerManagedPool(poolAddress);\n        }\n    }\n\n    /**\n     * @notice returns a list of registered pools\n     *\n     */\n    function getRegisteredPools() public view returns (address[] memory) {\n        return registeredPools;\n    }\n\n    /**\n     * @notice Register managed pool\n     *\n     * @param _managedPool - Address of pool being worked on.\n     */\n    function registerManagedPool(address _managedPool) public restricted nonReentrant {\n        registeredPools.push(_managedPool);\n    }\n\n    /**\n     * @notice Deregister managed pool\n     *\n     * @param _managedPool - Address of pool being worked on.\n     */\n    function deRegisterManagedPool(address _managedPool) public restricted nonReentrant {\n        removeByValue(_managedPool);\n    }\n\n    /**\n     * @notice This function is used for pools containing two tokens.\n     * It takes in a collateral token such as BPT, calculates an equal\n     * value amount of the reserve token such as G$ then mints and returns it.\n     *\n     * @param _tokenIn - Address of collateral token\n     * @param _amountIn - The amount being traded\n     * @param _recipient - Address of person to receive the reserve tokens\n     */\n    function buyReserveToken(address  _tokenIn,\n                             uint256 _amountIn,\n                             address _recipient) public nonReentrant checkPoolSupported(_tokenIn)\n    {\n        // Retrieve a list of tokens, balances and normalised weights for the pool\n        TradeValues memory tradeValues;\n        tradeValues.collateral = IManagedPool(_tokenIn);\n        IERC20 collateral = IERC20(_tokenIn);\n\n        // Transfer the input tokens from the sender to this contract\n        require(collateral.transferFrom(msg.sender, address(this), _amountIn), \"Transfer of input tokens failed\");\n\n        // Calculate the buyers share of the pool\n        uint256 totalSupply = collateral.totalSupply();\n        uint256 buyersShare = _amountIn / totalSupply;\n\n        tradeValues.poolId = tradeValues.collateral.getPoolId();\n        vault.getPool(tradeValues.poolId);\n        tradeValues.normalizedWeights = tradeValues.collateral.getNormalizedWeights();\n\n        (tradeValues.tokens, tradeValues.balances,) = vault.getPoolTokens(tradeValues.poolId);\n        tradeValues.assets = SupportLib._convertERC20sToAssets(tradeValues.tokens);\n\n        // Calculate token prices using the DEX\n        if (tradeValues.balances[0]  > 0)\n        {\n            tradeValues.tokenPrices[0] = (tradeValues.balances[1] / tradeValues.normalizedWeights[1]) / (tradeValues.balances[0] / tradeValues.normalizedWeights[0]);\n        }\n\n        for (uint256 i = 1; i < tradeValues.tokens.length; i++) {\n            if (tradeValues.balances[i] > 0)\n            {\n                tradeValues.tokenPrices[i] = (tradeValues.balances[0] / tradeValues.normalizedWeights[0]) / (tradeValues.balances[i] / tradeValues.normalizedWeights[i]);\n            }\n        }\n\n        // Calculate the total value of the pool\n        uint256 totalPoolValue = 0;\n        for (uint256 i = 0; i < tradeValues.tokens.length; i++) {\n            totalPoolValue = totalPoolValue + (tradeValues.balances[i] * tradeValues.tokenPrices[i]);\n        }\n\n        // Calculate supplied token value\n        uint256 buyersShareValue = buyersShare * totalPoolValue;\n        ReserveToken reserveToken = ReserveToken(0x785fA6c4383c42deF4182C1820D23f1196a112CE);\n\n        // Mint and Transfer the output tokens from this contract to the recipient, assuming reserve token is worth $1\n        reserveToken.mint(_recipient, buyersShareValue * (10 ** 18));\n    }\n\n    /**\n     * @notice Runs a check and transfers reserve tokens as needed\n     * @dev To avoid too many fees, this should be run at wide intervals such as daily\n     *\n     * @param _tokenIn - Address of reserve token\n     * @param _pool - Address of collateral token\n     * @param _amountIn - The amount being traded\n     * @param _recipient - Address of person to receive the swapped tokens\n     */\n    function sellReserveToken(address _tokenIn,\n                              address _pool,\n                              uint256 _amountIn,\n                              address _recipient) public nonReentrant checkPoolSupported(_pool)\n    {\n        // Retrieve a list of tokens, balances and normalised weights for the pool\n        TradeValues memory tradeValues;\n        tradeValues.collateral = IManagedPool(_pool);\n        IERC20 bptToken = IERC20(_pool);\n        uint256 totalSupply = bptToken.totalSupply();\n\n        // Transfer the input tokens from the sender to this contract\n        IERC20 collateralToken = IERC20(_tokenIn);\n        require(collateralToken.transferFrom(msg.sender, address(this), _amountIn), \"Transfer of input tokens failed\");\n\n        tradeValues.poolId = tradeValues.collateral.getPoolId();\n        vault.getPool(tradeValues.poolId);\n        tradeValues.normalizedWeights = tradeValues.collateral.getNormalizedWeights();\n\n        (tradeValues.tokens, tradeValues.balances,) = vault.getPoolTokens(tradeValues.poolId);\n        tradeValues.assets = SupportLib._convertERC20sToAssets(tradeValues.tokens);\n\n        // Calculate token prices using the DEX\n        if (tradeValues.balances[0]  > 0)\n        {\n            tradeValues.tokenPrices[0] = (tradeValues.balances[1] / tradeValues.normalizedWeights[1]) / (tradeValues.balances[0] / tradeValues.normalizedWeights[0]);\n        }\n\n        for (uint256 i = 1; i < tradeValues.tokens.length; i++) {\n            tradeValues.tokenPrice = 0;\n            if (tradeValues.balances[i] > 0)\n            {\n                tradeValues.tokenPrices[1] = (tradeValues.balances[0] / tradeValues.normalizedWeights[0]) / (tradeValues.balances[i] / tradeValues.normalizedWeights[i]);\n            }\n        }\n\n        // Calculate the total value of the pool\n        uint256 totalPoolValue = 0;\n        for (uint256 i = 0; i < tradeValues.tokens.length; i++) {\n            totalPoolValue = totalPoolValue + (tradeValues.balances[i] * tradeValues.tokenPrices[i]);\n        }\n\n        // Calculate supplied token value\n        uint256 myShare = _amountIn / totalSupply;\n        uint256 myBptAmount = myShare * totalSupply;\n\n        // Transfer the output tokens from this contract to the recipient\n        bptToken.transfer(_recipient, myBptAmount * (10 ** 18));\n    }\n\n    /**\n     * @notice returns the array index containing supplied address\n     *\n     * @param value - Address to find\n     */\n    function find(address value) private view returns(uint) {\n        uint i = 0;\n        while (registeredPools[i] != value) {\n            i++;\n        }\n        return i;\n    }\n\n    /**\n     * @notice removes supplied address from array of addresses\n     *\n     * @param value - Address to look up and remove element\n     */\n    function removeByValue(address value) private {\n        uint i = find(value);\n        removeByIndex(i);\n    }\n\n    /**\n     * @notice remove the item at index, resizing array as needed\n     *\n     * @param i - Index to remove\n     */\n    function removeByIndex(uint i) private {\n        while (i < registeredPools.length-1) {\n            registeredPools[i] = registeredPools[i+1];\n            i++;\n        }\n        registeredPools.pop();\n    }\n\n    /**\n     * @dev Modifier to check token allowance\n     *\n     * @param _managedPool - Managed pool address to remove\n     */\n    modifier checkPoolSupported(address _managedPool) {\n        require(find(_managedPool) != 0, \"Pool not registered\");\n        _;\n    }\n}\n",
  "sourcePath": "/home/quinn/Source/BalancerController/Balancer.Controller/contracts/ReserveController.sol",
  "compiler": {
    "name": "solc",
    "version": "0.7.6+commit.7338295f.Emscripten.clang"
  },
  "schemaVersion": "3.4.14",
  "updatedAt": "2023-06-25T12:12:41.864Z",
  "devdoc": {
    "kind": "dev",
    "methods": {
      "buyReserveToken(address,uint256,address)": {
        "params": {
          "_amountIn": "- The amount being traded",
          "_recipient": "- Address of person to receive the reserve tokens",
          "_tokenIn": "- Address of collateral token"
        }
      },
      "constructor": {
        "params": {
          "_managedPoolFactory": "- ManegedPoolFactory address",
          "_vaultAddress": "- Vault contract address"
        }
      },
      "createPool(string,string,address[],uint256[],address[],uint256,bool,bool,uint256,uint256,bytes32)": {
        "params": {
          "_assetManagers": "- Asset manager for the pool",
          "_aumFeeId": "- Aum Fee Id",
          "_managementAumFeePercentage": "- Management Aum fee to apply",
          "_mustAllowlistLPs": "- List of LP's allowed in the pool",
          "_name": "- Pool name",
          "_normalizedWeights": "- Normalized weights in the pool",
          "_salt": "- Salt applied to address to ensure uniqueness",
          "_swapEnabledOnStart": "- Whether swaps are enabled straight away",
          "_swapFeePercentage": "- Fee applied to swaps",
          "_symbol": "- Symbol representing the pool",
          "_tokens": "- Tokens in the pool"
        }
      },
      "deRegisterManagedPool(address)": {
        "params": {
          "_managedPool": "- Address of pool being worked on."
        }
      },
      "registerManagedPool(address)": {
        "params": {
          "_managedPool": "- Address of pool being worked on."
        }
      },
      "sellReserveToken(address,address,uint256,address)": {
        "details": "To avoid too many fees, this should be run at wide intervals such as daily",
        "params": {
          "_amountIn": "- The amount being traded",
          "_pool": "- Address of collateral token",
          "_recipient": "- Address of person to receive the swapped tokens",
          "_tokenIn": "- Address of reserve token"
        }
      },
      "transferManagement(address)": {
        "details": "Only one manager can presently be set",
        "params": {
          "_manager": "- New manager."
        }
      }
    },
    "version": 1
  },
  "userdoc": {
    "kind": "user",
    "methods": {
      "buyReserveToken(address,uint256,address)": {
        "notice": "This function is used for pools containing two tokens. It takes in a collateral token such as BPT, calculates an equal value amount of the reserve token such as G$ then mints and returns it."
      },
      "constructor": {
        "notice": "Constructor for the controller base class"
      },
      "createPool(string,string,address[],uint256[],address[],uint256,bool,bool,uint256,uint256,bytes32)": {
        "notice": "Create and register a new managed pool"
      },
      "deRegisterManagedPool(address)": {
        "notice": "Deregister managed pool"
      },
      "getRegisteredPools()": {
        "notice": "returns a list of registered pools"
      },
      "registerManagedPool(address)": {
        "notice": "Register managed pool"
      },
      "sellReserveToken(address,address,uint256,address)": {
        "notice": "Runs a check and transfers reserve tokens as needed"
      },
      "transferManagement(address)": {
        "notice": "Transfer the manager to a new address"
      }
    },
    "version": 1
  }
}