{
  "contractName": "ReserveController",
  "abi": [
    {
      "inputs": [
        {
          "internalType": "address",
          "name": "_vaultAddress",
          "type": "address"
        },
        {
          "internalType": "address",
          "name": "_managedPoolFactory",
          "type": "address"
        }
      ],
      "stateMutability": "nonpayable",
      "type": "constructor"
    },
    {
      "anonymous": false,
      "inputs": [
        {
          "components": [
            {
              "internalType": "string",
              "name": "name",
              "type": "string"
            },
            {
              "internalType": "string",
              "name": "symbol",
              "type": "string"
            },
            {
              "internalType": "address[]",
              "name": "assetManagers",
              "type": "address[]"
            }
          ],
          "indexed": false,
          "internalType": "struct ManagedPoolParams",
          "name": "managedPoolParams",
          "type": "tuple"
        },
        {
          "components": [
            {
              "internalType": "contract IERC20[]",
              "name": "tokens",
              "type": "address[]"
            },
            {
              "internalType": "uint256[]",
              "name": "normalizedWeights",
              "type": "uint256[]"
            },
            {
              "internalType": "uint256",
              "name": "swapFeePercentage",
              "type": "uint256"
            },
            {
              "internalType": "bool",
              "name": "swapEnabledOnStart",
              "type": "bool"
            },
            {
              "internalType": "bool",
              "name": "mustAllowlistLPs",
              "type": "bool"
            },
            {
              "internalType": "uint256",
              "name": "managementAumFeePercentage",
              "type": "uint256"
            },
            {
              "internalType": "uint256",
              "name": "aumFeeId",
              "type": "uint256"
            }
          ],
          "indexed": false,
          "internalType": "struct ManagedPoolSettingsParams",
          "name": "managedPoolSettingsParams",
          "type": "tuple"
        },
        {
          "indexed": false,
          "internalType": "address",
          "name": "callerAddress",
          "type": "address"
        },
        {
          "indexed": false,
          "internalType": "bytes32",
          "name": "salt",
          "type": "bytes32"
        },
        {
          "indexed": false,
          "internalType": "bool",
          "name": "success",
          "type": "bool"
        }
      ],
      "name": "CreatedPoolByDelegateCall",
      "type": "event"
    },
    {
      "inputs": [],
      "name": "manager",
      "outputs": [
        {
          "internalType": "address",
          "name": "",
          "type": "address"
        }
      ],
      "stateMutability": "view",
      "type": "function"
    },
    {
      "inputs": [
        {
          "internalType": "address",
          "name": "_manager",
          "type": "address"
        }
      ],
      "name": "transferManagement",
      "outputs": [],
      "stateMutability": "nonpayable",
      "type": "function"
    },
    {
      "inputs": [
        {
          "internalType": "string",
          "name": "_name",
          "type": "string"
        },
        {
          "internalType": "string",
          "name": "_symbol",
          "type": "string"
        },
        {
          "internalType": "contract IERC20[]",
          "name": "_tokens",
          "type": "address[]"
        },
        {
          "internalType": "uint256[]",
          "name": "_normalizedWeights",
          "type": "uint256[]"
        },
        {
          "internalType": "address[]",
          "name": "_assetManagers",
          "type": "address[]"
        },
        {
          "internalType": "uint256",
          "name": "_swapFeePercentage",
          "type": "uint256"
        },
        {
          "internalType": "bool",
          "name": "_swapEnabledOnStart",
          "type": "bool"
        },
        {
          "internalType": "bool",
          "name": "_mustAllowlistLPs",
          "type": "bool"
        },
        {
          "internalType": "uint256",
          "name": "_managementAumFeePercentage",
          "type": "uint256"
        },
        {
          "internalType": "uint256",
          "name": "_aumFeeId",
          "type": "uint256"
        },
        {
          "internalType": "bytes32",
          "name": "_salt",
          "type": "bytes32"
        },
        {
          "internalType": "address",
          "name": "_reserveToken",
          "type": "address"
        }
      ],
      "name": "createPool",
      "outputs": [],
      "stateMutability": "nonpayable",
      "type": "function"
    },
    {
      "inputs": [],
      "name": "getRegisteredPools",
      "outputs": [
        {
          "internalType": "address[]",
          "name": "",
          "type": "address[]"
        }
      ],
      "stateMutability": "view",
      "type": "function"
    },
    {
      "inputs": [
        {
          "internalType": "address",
          "name": "_managedPool",
          "type": "address"
        },
        {
          "internalType": "address",
          "name": "_reserveToken",
          "type": "address"
        }
      ],
      "name": "registerManagedPool",
      "outputs": [],
      "stateMutability": "nonpayable",
      "type": "function"
    },
    {
      "inputs": [
        {
          "internalType": "address",
          "name": "_managedPool",
          "type": "address"
        }
      ],
      "name": "deRegisterManagedPool",
      "outputs": [],
      "stateMutability": "nonpayable",
      "type": "function"
    },
    {
      "inputs": [
        {
          "internalType": "address",
          "name": "_tokenIn",
          "type": "address"
        },
        {
          "internalType": "uint256",
          "name": "_amountIn",
          "type": "uint256"
        },
        {
          "internalType": "address",
          "name": "_recipient",
          "type": "address"
        }
      ],
      "name": "buyReserveToken",
      "outputs": [],
      "stateMutability": "nonpayable",
      "type": "function"
    },
    {
      "inputs": [
        {
          "internalType": "address",
          "name": "_tokenIn",
          "type": "address"
        },
        {
          "internalType": "address",
          "name": "_pool",
          "type": "address"
        },
        {
          "internalType": "uint256",
          "name": "_amountIn",
          "type": "uint256"
        },
        {
          "internalType": "address",
          "name": "_recipient",
          "type": "address"
        }
      ],
      "name": "sellReserveToken",
      "outputs": [],
      "stateMutability": "nonpayable",
      "type": "function"
    }
  ],
  "bytecode": "0x60c06040523480156200001157600080fd5b5060405162001d7e38038062001d7e833981016040819052620000349162000087565b6001600081905580546001600160a01b031916331790556001600160601b0319606092831b8116608052911b1660a052620000be565b80516001600160a01b03811681146200008257600080fd5b919050565b600080604083850312156200009a578182fd5b620000a5836200006a565b9150620000b5602084016200006a565b90509250929050565b60805160601c60a05160601c611c87620000f76000398061019552508061056c528061068b5280610c155280610d345250611c876000f3fe608060405234801561001057600080fd5b50600436106100885760003560e01c8063659d4f5c1161005b578063659d4f5c146100e6578063c944994c146100fb578063d22320e21461010e578063e4edf8521461012157610088565b80631a746e8e1461008d578063277fa18f146100a257806347958851146100b5578063481c6a75146100c8575b600080fd5b6100a061009b366004611763565b610134565b005b6100a06100b036600461152c565b6102d1565b6100a06100c33660046115e7565b61035f565b6100d06109a1565b6040516100dd9190611a6d565b60405180910390f35b6100ee6109b0565b6040516100dd9190611abe565b6100a0610109366004611564565b610a12565b6100a061011c3660046114ed565b611078565b6100a061012f3660046114ed565b6110d1565b61013c611296565b8c8152602081018c9052604081018990526101556112b7565b8b8152602081018b905260408082018a90528815156060830152871515608083015260a0820187905260c082018690525160009081906001600160a01b037f00000000000000000000000000000000000000000000000000000000000000001690637304b8b960e01b906101d3908790879033908c90602401611b30565b60408051601f198184030181529181526020820180516001600160e01b03166001600160e01b03199094169390931790925290516102119190611a51565b600060405180830381855af49150503d806000811461024c576040519150601f19603f3d011682016040523d82523d6000602084013e610251565b606091505b50915091507f15fd418169a4890b496e7cb6e8a9d72d1790b6247d3ebe27b87894ff2c3e4354848433898660405161028d959493929190611b72565b60405180910390a181156102bf576000818060200190518101906102b19190611510565b90506102bd81876102d1565b505b50505050505050505050505050505050565b6001546001600160a01b031633146102e857600080fd5b6102f061110a565b6001600160a01b03808316600081815260026020526040812080549385166001600160a01b03199485161790556003805460018101825591527fc2575a0e9e593c00f959f8c92f12db2869c3395a3b0502d05e2516446f71f85b01805490921617905561035b611123565b5050565b61036761110a565b6001600160a01b0380841660009081526002602052604090205484918291166103ab5760405162461bcd60e51b81526004016103a290611b11565b60405180910390fd5b6103b36112f8565b6001600160a01b0386168082526040516323b872dd60e01b81528791906323b872dd906103e890339030908b90600401611a81565b602060405180830381600087803b15801561040257600080fd5b505af1158015610416573d6000803e3d6000fd5b505050506040513d601f19601f8201168201806040525081019061043a919061172f565b6104565760405162461bcd60e51b81526004016103a290611ada565b6000816001600160a01b03166318160ddd6040518163ffffffff1660e01b815260040160206040518083038186803b15801561049157600080fd5b505afa1580156104a5573d6000803e3d6000fd5b505050506040513d601f19601f820116820180604052508101906104c9919061174b565b905060008188816104d657fe5b04905083600001516001600160a01b03166338fff2d06040518163ffffffff1660e01b815260040160206040518083038186803b15801561051657600080fd5b505afa15801561052a573d6000803e3d6000fd5b505050506040513d601f19601f8201168201806040525081019061054e919061174b565b6020850181905260405163f6c0092760e01b81526001600160a01b037f0000000000000000000000000000000000000000000000000000000000000000169163f6c00927916105a09190600401611ad1565b604080518083038186803b1580156105b757600080fd5b505afa1580156105cb573d6000803e3d6000fd5b505050506040513d601f19601f820116820180604052508101906105ef91906115b6565b505083600001516001600160a01b031663f89f27ed6040518163ffffffff1660e01b815260040160006040518083038186803b15801561062e57600080fd5b505afa158015610642573d6000803e3d6000fd5b505050506040513d6000823e601f3d908101601f1916820160405261066a91908101906116f4565b60808501526020840151604051631f29a8cd60e31b81526001600160a01b037f0000000000000000000000000000000000000000000000000000000000000000169163f94d4668916106bf9190600401611ad1565b60006040518083038186803b1580156106d757600080fd5b505afa1580156106eb573d6000803e3d6000fd5b505050506040513d6000823e601f3d908101601f191682016040526107139190810190611628565b5060c086015260a085018190526107299061112a565b8460e0018190525060008460c0015160008151811061074457fe5b602002602001015111156107ec57836080015160008151811061076357fe5b60200260200101518460c0015160008151811061077c57fe5b60200260200101518161078b57fe5b04846080015160018151811061079d57fe5b60200260200101518560c001516001815181106107b657fe5b6020026020010151816107c557fe5b04816107cd57fe5b0484606001516000815181106107df57fe5b6020026020010181815250505b60015b8460a00151518110156108bb5760008560c00151828151811061080e57fe5b602002602001015111156108b3578460800151818151811061082c57fe5b60200260200101518560c00151828151811061084457fe5b60200260200101518161085357fe5b04856080015160008151811061086557fe5b60200260200101518660c0015160008151811061087e57fe5b60200260200101518161088d57fe5b048161089557fe5b04856060015182815181106108a657fe5b6020026020010181815250505b6001016107ef565b506000805b8560a001515181101561090f57856060015181815181106108dd57fe5b60200260200101518660c0015182815181106108f557fe5b6020026020010151028201915080806001019150506108c0565b506040516340c10f1960e01b81528282029073785fa6c4383c42def4182c1820d23f1196a112ce9081906340c10f1990610959908d90670de0b6b3a7640000870290600401611aa5565b600060405180830381600087803b15801561097357600080fd5b505af1158015610987573d6000803e3d6000fd5b5050505050505050505050505061099c611123565b505050565b6001546001600160a01b031681565b60606003805480602002602001604051908101604052809291908181526020018280548015610a0857602002820191906000526020600020905b81546001600160a01b031681526001909101906020018083116109ea575b5050505050905090565b610a1a61110a565b6001600160a01b038084166000908152600260205260409020548491829116610a555760405162461bcd60e51b81526004016103a290611b11565b610a5d6112f8565b6001600160a01b038616808252604080516318160ddd60e01b81529051889260009290916318160ddd91600480820192602092909190829003018186803b158015610aa757600080fd5b505afa158015610abb573d6000803e3d6000fd5b505050506040513d601f19601f82011682018060405250810190610adf919061174b565b6040516323b872dd60e01b815290915089906001600160a01b038216906323b872dd90610b1490339030908d90600401611a81565b602060405180830381600087803b158015610b2e57600080fd5b505af1158015610b42573d6000803e3d6000fd5b505050506040513d601f19601f82011682018060405250810190610b66919061172f565b610b825760405162461bcd60e51b81526004016103a290611ada565b83600001516001600160a01b03166338fff2d06040518163ffffffff1660e01b815260040160206040518083038186803b158015610bbf57600080fd5b505afa158015610bd3573d6000803e3d6000fd5b505050506040513d601f19601f82011682018060405250810190610bf7919061174b565b6020850181905260405163f6c0092760e01b81526001600160a01b037f0000000000000000000000000000000000000000000000000000000000000000169163f6c0092791610c499190600401611ad1565b604080518083038186803b158015610c6057600080fd5b505afa158015610c74573d6000803e3d6000fd5b505050506040513d601f19601f82011682018060405250810190610c9891906115b6565b505083600001516001600160a01b031663f89f27ed6040518163ffffffff1660e01b815260040160006040518083038186803b158015610cd757600080fd5b505afa158015610ceb573d6000803e3d6000fd5b505050506040513d6000823e601f3d908101601f19168201604052610d1391908101906116f4565b60808501526020840151604051631f29a8cd60e31b81526001600160a01b037f0000000000000000000000000000000000000000000000000000000000000000169163f94d466891610d689190600401611ad1565b60006040518083038186803b158015610d8057600080fd5b505afa158015610d94573d6000803e3d6000fd5b505050506040513d6000823e601f3d908101601f19168201604052610dbc9190810190611628565b5060c086015260a08501819052610dd29061112a565b8460e0018190525060008460c00151600081518110610ded57fe5b60200260200101511115610e95578360800151600081518110610e0c57fe5b60200260200101518460c00151600081518110610e2557fe5b602002602001015181610e3457fe5b048460800151600181518110610e4657fe5b60200260200101518560c00151600181518110610e5f57fe5b602002602001015181610e6e57fe5b0481610e7657fe5b048460600151600081518110610e8857fe5b6020026020010181815250505b60015b8460a0015151811015610f6d5760006040860181905260c0860151805183908110610ebf57fe5b60200260200101511115610f655784608001518181518110610edd57fe5b60200260200101518560c001518281518110610ef557fe5b602002602001015181610f0457fe5b048560800151600081518110610f1657fe5b60200260200101518660c00151600081518110610f2f57fe5b602002602001015181610f3e57fe5b0481610f4657fe5b048560600151600181518110610f5857fe5b6020026020010181815250505b600101610e98565b506000805b8560a0015151811015610fc15785606001518181518110610f8f57fe5b60200260200101518660c001518281518110610fa757fe5b602002602001015102820191508080600101915050610f72565b506000838a81610fcd57fe5b60405163a9059cbb60e01b81529190049150848202906001600160a01b0387169063a9059cbb9061100e908d90670de0b6b3a7640000860290600401611aa5565b602060405180830381600087803b15801561102857600080fd5b505af115801561103c573d6000803e3d6000fd5b505050506040513d601f19601f82011682018060405250810190611060919061172f565b50505050505050505050611072611123565b50505050565b6001546001600160a01b0316331461108f57600080fd5b61109761110a565b6001600160a01b038116600090815260026020526040902080546001600160a01b03191690556110c68161112d565b6110ce611123565b50565b6001546001600160a01b031633146110e857600080fd5b600180546001600160a01b0319166001600160a01b0392909216919091179055565b61111c60026000541415610190611143565b6002600055565b6001600055565b90565b600061113882611151565b905061035b81611196565b8161035b5761035b8161123b565b6000805b826001600160a01b03166003828154811061116c57fe5b6000918252602090912001546001600160a01b03161461118e57600101611155565b90505b919050565b6003546000190181101561120b57600381600101815481106111b457fe5b600091825260209091200154600380546001600160a01b0390921691839081106111da57fe5b600091825260209091200180546001600160a01b0319166001600160a01b0392909216919091179055600101611196565b600380548061121657fe5b600082815260209020810160001990810180546001600160a01b031916905501905550565b62461bcd60e51b600090815260206004526007602452600a808304818106603090810160081b83860601918390049283060160101b016642414c230000300160c81b6044526110ce916210905360ea1b906242414c90606490fd5b60405180606001604052806060815260200160608152602001606081525090565b6040518060e0016040528060608152602001606081526020016000815260200160001515815260200160001515815260200160008152602001600081525090565b60405180610100016040528060006001600160a01b03168152602001600080191681526020016000815260200160608152602001606081526020016060815260200160608152602001606081525090565b803561119181611c2e565b600082601f830112611364578081fd5b8135602061137961137483611be4565b611bc0565b8281528181019085830183850287018401881015611395578586fd5b855b858110156113bc5781356113aa81611c2e565b84529284019290840190600101611397565b5090979650505050505050565b600082601f8301126113d9578081fd5b813560206113e961137483611be4565b8281528181019085830183850287018401881015611405578586fd5b855b858110156113bc57813584529284019290840190600101611407565b600082601f830112611433578081fd5b8151602061144361137483611be4565b828152818101908583018385028701840188101561145f578586fd5b855b858110156113bc57815184529284019290840190600101611461565b803561119181611c43565b600082601f830112611498578081fd5b813567ffffffffffffffff8111156114ac57fe5b6114bf601f8201601f1916602001611bc0565b8181528460208386010111156114d3578283fd5b816020850160208301379081016020019190915292915050565b6000602082840312156114fe578081fd5b813561150981611c2e565b9392505050565b600060208284031215611521578081fd5b815161150981611c2e565b6000806040838503121561153e578081fd5b823561154981611c2e565b9150602083013561155981611c2e565b809150509250929050565b60008060008060808587031215611579578182fd5b843561158481611c2e565b9350602085013561159481611c2e565b92506040850135915060608501356115ab81611c2e565b939692955090935050565b600080604083850312156115c8578182fd5b82516115d381611c2e565b602084015190925060038110611559578182fd5b6000806000606084860312156115fb578081fd5b833561160681611c2e565b925060208401359150604084013561161d81611c2e565b809150509250925092565b60008060006060848603121561163c578081fd5b835167ffffffffffffffff80821115611653578283fd5b818601915086601f830112611666578283fd5b8151602061167661137483611be4565b82815281810190858301838502870184018c1015611692578788fd5b8796505b848710156116bd5780516116a981611c2e565b835260019690960195918301918301611696565b50918901519197509093505050808211156116d6578283fd5b506116e386828701611423565b925050604084015190509250925092565b600060208284031215611705578081fd5b815167ffffffffffffffff81111561171b578182fd5b61172784828501611423565b949350505050565b600060208284031215611740578081fd5b815161150981611c43565b60006020828403121561175c578081fd5b5051919050565b6000806000806000806000806000806000806101808d8f03121561178557898afd5b67ffffffffffffffff8d35111561179a57898afd5b6117a78e8e358f01611488565b9b5067ffffffffffffffff60208e013511156117c157898afd5b6117d18e60208f01358f01611488565b9a5067ffffffffffffffff60408e013511156117eb57898afd5b6117fb8e60408f01358f01611354565b995067ffffffffffffffff60608e01351115611815578788fd5b6118258e60608f01358f016113c9565b985067ffffffffffffffff60808e0135111561183f578788fd5b61184f8e60808f01358f01611354565b975060a08d0135965061186460c08e0161147d565b955061187260e08e0161147d565b94506101008d013593506101208d013592506101408d013591506118996101608e01611349565b90509295989b509295989b509295989b565b6000815180845260208085019450808401835b838110156118e35781516001600160a01b0316875295820195908201906001016118be565b509495945050505050565b6000815180845260208085019450808401835b838110156118e357815187529582019590820190600101611901565b15159052565b6000815180845261193b816020860160208601611c02565b601f01601f19169290920160200192915050565b60008151606084526119646060850182611923565b90506020830151848203602086015261197d8282611923565b9150506040830151848203604086015261199782826118ab565b95945050505050565b805160e0808452815190840181905260009160209190820190610100860190845b818110156119e65783516001600160a01b0316835292840192918401916001016119c1565b5050828501519150858103838701526119ff81836118ee565b92505050604083015160408501526060830151611a1f606086018261191d565b506080830151611a32608086018261191d565b5060a083015160a085015260c083015160c08501528091505092915050565b60008251611a63818460208701611c02565b9190910192915050565b6001600160a01b0391909116815260200190565b6001600160a01b039384168152919092166020820152604081019190915260600190565b6001600160a01b03929092168252602082015260400190565b60006020825261150960208301846118ab565b90815260200190565b6020808252601f908201527f5472616e73666572206f6620696e70757420746f6b656e73206661696c656400604082015260600190565b60208082526005908201526422b93937b960d91b604082015260600190565b600060808252611b43608083018761194f565b8281036020840152611b5581876119a0565b6001600160a01b0395909516604084015250506060015292915050565b600060a08252611b8560a083018861194f565b8281036020840152611b9781886119a0565b6001600160a01b0396909616604084015250506060810192909252151560809091015292915050565b60405181810167ffffffffffffffff81118282101715611bdc57fe5b604052919050565b600067ffffffffffffffff821115611bf857fe5b5060209081020190565b60005b83811015611c1d578181015183820152602001611c05565b838111156110725750506000910152565b6001600160a01b03811681146110ce57600080fd5b80151581146110ce57600080fdfea26469706673582212204b9343e0f2fc826af85402bb67f1b49fe5d2889d9296377ea09e6d59072ea45664736f6c63430007060033",
  "immutableReferences": {
    "2426": [
      {
        "length": 32,
        "start": 1388
      },
      {
        "length": 32,
        "start": 1675
      },
      {
        "length": 32,
        "start": 3093
      },
      {
        "length": 32,
        "start": 3380
      }
    ],
    "2428": [
      {
        "length": 32,
        "start": 405
      }
    ]
  },
  "source": "// SPDX-License-Identifier: MIT\n\npragma solidity ^0.7.0;\npragma experimental ABIEncoderV2;\nimport \"@balancer-labs/v2-solidity-utils/contracts/openzeppelin/ReentrancyGuard.sol\";\nimport \"@balancer-labs/v2-interfaces/contracts/vault/IVault.sol\";\nimport \"@balancer-labs/v2-interfaces/contracts/pool-utils/IManagedPool.sol\";\nimport \"./base/BaseUtils.sol\";\nimport \"./ManagedPoolFactory.sol\";\nimport \"./ReserveToken.sol\";\n\ncontract ReserveController is ReentrancyGuard, BaseUtils {\n\n    event CreatedPoolByDelegateCall(ManagedPoolParams managedPoolParams, ManagedPoolSettingsParams managedPoolSettingsParams, address callerAddress, bytes32 salt, bool success);\n\n    struct TradeValues {\n        IManagedPool collateral;\n        bytes32 poolId;\n        uint256 tokenPrice;\n        uint256[] tokenPrices;\n        uint256[] normalizedWeights;\n        IERC20[] tokens;\n        uint256[] balances;\n        IAsset[] assets;\n    }\n\n    // poolAddress mapped to reserve token\n    mapping(address => address) pools;\n    address[] private registeredPools;\n    IVault internal immutable vault;\n    address internal immutable managedPoolFactory;\n\n\n    /**\n     * @notice Constructor for the controller base class\n     *\n     * @param _vaultAddress - Vault contract address\n     */\n    constructor(address _vaultAddress,\n                address _managedPoolFactory) {\n        manager = msg.sender;\n        vault = IVault(_vaultAddress);\n        managedPoolFactory = _managedPoolFactory;\n    }\n\n    /**\n     * @notice Create and register a new managed pool\n     *\n     * @param _name - Pool name\n     * @param _symbol - Symbol representing the pool\n     * @param _tokens - Tokens in the pool\n     * @param _normalizedWeights - Normalized weights in the pool\n     * @param _assetManagers - Asset manager for the pool\n     * @param _swapFeePercentage - Fee applied to swaps\n     * @param _swapEnabledOnStart - Whether swaps are enabled straight away\n     * @param _mustAllowlistLPs - List of LP's allowed in the pool\n     * @param _managementAumFeePercentage - Management Aum fee to apply\n     * @param _aumFeeId - Aum Fee Id\n     * @param _salt - Salt applied to address to ensure uniqueness\n     * @param _reserveToken - Reserve token address such as G$\n     */\n    function createPool(string memory _name,\n                        string memory _symbol,\n                        IERC20[] memory _tokens,\n                        uint256[] memory _normalizedWeights,\n                        address[] memory _assetManagers,\n                        uint256 _swapFeePercentage,\n                        bool _swapEnabledOnStart,\n                        bool _mustAllowlistLPs,\n                        uint256 _managementAumFeePercentage,\n                        uint256 _aumFeeId,\n                        bytes32 _salt,\n                        address _reserveToken) public {\n        ManagedPoolParams memory poolParams;\n        poolParams.name = _name;\n        poolParams.symbol = _symbol;\n        poolParams.assetManagers = _assetManagers;\n\n        ManagedPoolSettingsParams memory poolSettingsParams;\n        poolSettingsParams.tokens = _tokens;\n        poolSettingsParams.normalizedWeights = _normalizedWeights;\n        poolSettingsParams.swapFeePercentage = _swapFeePercentage;\n        poolSettingsParams.swapEnabledOnStart = _swapEnabledOnStart;\n        poolSettingsParams.mustAllowlistLPs = _mustAllowlistLPs;\n        poolSettingsParams.managementAumFeePercentage = _managementAumFeePercentage;\n        poolSettingsParams.aumFeeId = _aumFeeId;\n\n        (bool success, bytes memory result) = managedPoolFactory.delegatecall(\n            abi.encodeWithSelector(ManagedPoolFactory.create.selector, poolParams, poolSettingsParams, msg.sender, _salt)\n        );\n\n        emit CreatedPoolByDelegateCall(poolParams, poolSettingsParams, msg.sender, _salt, success);\n        if (success)\n        {\n            address poolAddress = abi.decode(result, (address));\n            registerManagedPool(poolAddress, _reserveToken);\n        }\n    }\n\n    /**\n     * @notice returns a list of registered pools\n     *\n     */\n    function getRegisteredPools() public view returns (address[] memory) {\n        return registeredPools;\n    }\n\n    /**\n     * @notice Register managed pool\n     *\n     * @param _managedPool - Address of pool being worked on.\n     * @param _reserveToken - Address of pool being worked on.\n     */\n    function registerManagedPool(\n        address _managedPool,\n        address _reserveToken) public restricted nonReentrant {\n        pools[_managedPool] = _reserveToken;\n        registeredPools.push(_managedPool);\n    }\n\n    /**\n     * @notice Deregister managed pool\n     *\n     * @param _managedPool - Address of pool being worked on.\n     */\n    function deRegisterManagedPool(\n        address _managedPool) public restricted nonReentrant {\n        delete pools[_managedPool];\n        removeByValue(_managedPool);\n    }\n\n    /**\n     * @notice This function is used for pools containing two tokens.\n     * It takes in a collateral token such as BPT, calculates an equal\n     * value amount of the reserve token such as G$ then mints and returns it.\n     *\n     * @param _tokenIn - Address of collateral token\n     * @param _amountIn - The amount being traded\n     * @param _recipient - Address of person to receive the reserve tokens\n     */\n    function buyReserveToken(address  _tokenIn,\n                             uint256 _amountIn,\n                             address _recipient) public nonReentrant checkPoolSupported(_tokenIn)\n    {\n        // Retrieve a list of tokens, balances and normalised weights for the pool\n        TradeValues memory tradeValues;\n        tradeValues.collateral = IManagedPool(_tokenIn);\n        IERC20 collateral = IERC20(_tokenIn);\n\n        // Transfer the input tokens from the sender to this contract\n        require(collateral.transferFrom(msg.sender, address(this), _amountIn), \"Transfer of input tokens failed\");\n\n        // Calculate the buyers share of the pool\n        uint256 totalSupply = collateral.totalSupply();\n        uint256 buyersShare = _amountIn / totalSupply;\n\n        tradeValues.poolId = tradeValues.collateral.getPoolId();\n        vault.getPool(tradeValues.poolId);\n        tradeValues.normalizedWeights = tradeValues.collateral.getNormalizedWeights();\n\n        (tradeValues.tokens, tradeValues.balances,) = vault.getPoolTokens(tradeValues.poolId);\n        tradeValues.assets = SupportLib._convertERC20sToAssets(tradeValues.tokens);\n\n        // Calculate token prices using the DEX\n        if (tradeValues.balances[0]  > 0)\n        {\n            tradeValues.tokenPrices[0] = (tradeValues.balances[1] / tradeValues.normalizedWeights[1]) / (tradeValues.balances[0] / tradeValues.normalizedWeights[0]);\n        }\n\n        for (uint256 i = 1; i < tradeValues.tokens.length; i++) {\n            if (tradeValues.balances[i] > 0)\n            {\n                tradeValues.tokenPrices[i] = (tradeValues.balances[0] / tradeValues.normalizedWeights[0]) / (tradeValues.balances[i] / tradeValues.normalizedWeights[i]);\n            }\n        }\n\n        // Calculate the total value of the pool\n        uint256 totalPoolValue = 0;\n        for (uint256 i = 0; i < tradeValues.tokens.length; i++) {\n            totalPoolValue = totalPoolValue + (tradeValues.balances[i] * tradeValues.tokenPrices[i]);\n        }\n\n        // Calculate supplied token value\n        uint256 buyersShareValue = buyersShare * totalPoolValue;\n\n      //  ReserveToken reserveToken = GoodDollar(pools[_tokenIn]);\n\n        ReserveToken reserveToken = ReserveToken(0x785fA6c4383c42deF4182C1820D23f1196a112CE);\n\n\n        // Mint and Transfer the output tokens from this contract to the recipient, assuming reserve token is worth $1\n        reserveToken.mint(_recipient, buyersShareValue * (10 ** 18));\n    }\n\n    /**\n     * @notice Runs a check and transfers reserve tokens as needed\n     * @dev To avoid too many fees, this should be run at wide intervals such as daily\n     *\n     * @param _tokenIn - Address of reserve token\n     * @param _pool - Address of collateral token\n     * @param _amountIn - The amount being traded\n     * @param _recipient - Address of person to receive the swapped tokens\n     */\n    function sellReserveToken(address _tokenIn,\n                              address _pool,\n                              uint256 _amountIn,\n                              address _recipient) public nonReentrant checkPoolSupported(_pool)\n    {\n        // Retrieve a list of tokens, balances and normalised weights for the pool\n        TradeValues memory tradeValues;\n        tradeValues.collateral = IManagedPool(_pool);\n        IERC20 bptToken = IERC20(_pool);\n        uint256 totalSupply = bptToken.totalSupply();\n\n        // Transfer the input tokens from the sender to this contract\n        IERC20 collateralToken = IERC20(_tokenIn);\n        require(collateralToken.transferFrom(msg.sender, address(this), _amountIn), \"Transfer of input tokens failed\");\n\n        tradeValues.poolId = tradeValues.collateral.getPoolId();\n        vault.getPool(tradeValues.poolId);\n        tradeValues.normalizedWeights = tradeValues.collateral.getNormalizedWeights();\n\n        (tradeValues.tokens, tradeValues.balances,) = vault.getPoolTokens(tradeValues.poolId);\n        tradeValues.assets = SupportLib._convertERC20sToAssets(tradeValues.tokens);\n\n        // Calculate token prices using the DEX\n        if (tradeValues.balances[0]  > 0)\n        {\n            tradeValues.tokenPrices[0] = (tradeValues.balances[1] / tradeValues.normalizedWeights[1]) / (tradeValues.balances[0] / tradeValues.normalizedWeights[0]);\n        }\n\n        for (uint256 i = 1; i < tradeValues.tokens.length; i++) {\n            tradeValues.tokenPrice = 0;\n            if (tradeValues.balances[i] > 0)\n            {\n                tradeValues.tokenPrices[1] = (tradeValues.balances[0] / tradeValues.normalizedWeights[0]) / (tradeValues.balances[i] / tradeValues.normalizedWeights[i]);\n            }\n        }\n\n        // Calculate the total value of the pool\n        uint256 totalPoolValue = 0;\n        for (uint256 i = 0; i < tradeValues.tokens.length; i++) {\n            totalPoolValue = totalPoolValue + (tradeValues.balances[i] * tradeValues.tokenPrices[i]);\n        }\n\n        // Calculate supplied token value\n        uint256 myShare = _amountIn / totalSupply;\n        uint256 myBptAmount = myShare * totalSupply;\n\n        // Transfer the output tokens from this contract to the recipient\n        bptToken.transfer(_recipient, myBptAmount * (10 ** 18));\n    }\n\n    /**\n     * @notice returns the array index containing supplied address\n     *\n     * @param value - Address to find\n     */\n    function find(address value) private view returns(uint) {\n        uint i = 0;\n        while (registeredPools[i] != value) {\n            i++;\n        }\n        return i;\n    }\n\n    /**\n     * @notice removes supplied address from array of addresses\n     *\n     */\n    function removeByValue(address value) private {\n        uint i = find(value);\n        removeByIndex(i);\n    }\n\n    /**\n     * @notice remove the item at index, resizing array as needed\n     *\n     */\n    function removeByIndex(uint i) private {\n        while (i < registeredPools.length-1) {\n            registeredPools[i] = registeredPools[i+1];\n            i++;\n        }\n        registeredPools.pop();\n    }\n\n    /**\n     * @dev Modifier to check token allowance\n     */\n    modifier checkPoolSupported(address _managedPool) {\n        IManagedPool managedPool = IManagedPool(_managedPool);\n        require(pools[_managedPool] != address(0x0), \"Error\");\n        _;\n    }\n}\n",
  "sourcePath": "/home/quinn/Source/BalancerController/Balancer.Controller/contracts/ReserveController.sol",
  "compiler": {
    "name": "solc",
    "version": "0.7.6+commit.7338295f.Emscripten.clang"
  },
  "schemaVersion": "3.4.14",
  "updatedAt": "2023-06-25T10:42:06.233Z",
  "devdoc": {
    "kind": "dev",
    "methods": {
      "buyReserveToken(address,uint256,address)": {
        "params": {
          "_amountIn": "- The amount being traded",
          "_recipient": "- Address of person to receive the reserve tokens",
          "_tokenIn": "- Address of collateral token"
        }
      },
      "constructor": {
        "params": {
          "_vaultAddress": "- Vault contract address"
        }
      },
      "createPool(string,string,address[],uint256[],address[],uint256,bool,bool,uint256,uint256,bytes32,address)": {
        "params": {
          "_assetManagers": "- Asset manager for the pool",
          "_aumFeeId": "- Aum Fee Id",
          "_managementAumFeePercentage": "- Management Aum fee to apply",
          "_mustAllowlistLPs": "- List of LP's allowed in the pool",
          "_name": "- Pool name",
          "_normalizedWeights": "- Normalized weights in the pool",
          "_reserveToken": "- Reserve token address such as G$",
          "_salt": "- Salt applied to address to ensure uniqueness",
          "_swapEnabledOnStart": "- Whether swaps are enabled straight away",
          "_swapFeePercentage": "- Fee applied to swaps",
          "_symbol": "- Symbol representing the pool",
          "_tokens": "- Tokens in the pool"
        }
      },
      "deRegisterManagedPool(address)": {
        "params": {
          "_managedPool": "- Address of pool being worked on."
        }
      },
      "registerManagedPool(address,address)": {
        "params": {
          "_managedPool": "- Address of pool being worked on.",
          "_reserveToken": "- Address of pool being worked on."
        }
      },
      "sellReserveToken(address,address,uint256,address)": {
        "details": "To avoid too many fees, this should be run at wide intervals such as daily",
        "params": {
          "_amountIn": "- The amount being traded",
          "_pool": "- Address of collateral token",
          "_recipient": "- Address of person to receive the swapped tokens",
          "_tokenIn": "- Address of reserve token"
        }
      },
      "transferManagement(address)": {
        "details": "Only one manager can presently be set",
        "params": {
          "_manager": "- New manager."
        }
      }
    },
    "version": 1
  },
  "userdoc": {
    "kind": "user",
    "methods": {
      "buyReserveToken(address,uint256,address)": {
        "notice": "This function is used for pools containing two tokens. It takes in a collateral token such as BPT, calculates an equal value amount of the reserve token such as G$ then mints and returns it."
      },
      "constructor": {
        "notice": "Constructor for the controller base class"
      },
      "createPool(string,string,address[],uint256[],address[],uint256,bool,bool,uint256,uint256,bytes32,address)": {
        "notice": "Create and register a new managed pool"
      },
      "deRegisterManagedPool(address)": {
        "notice": "Deregister managed pool"
      },
      "getRegisteredPools()": {
        "notice": "returns a list of registered pools"
      },
      "registerManagedPool(address,address)": {
        "notice": "Register managed pool"
      },
      "sellReserveToken(address,address,uint256,address)": {
        "notice": "Runs a check and transfers reserve tokens as needed"
      },
      "transferManagement(address)": {
        "notice": "Transfer the manager to a new address"
      }
    },
    "version": 1
  }
}