{
  "contractName": "ReserveController",
  "abi": [
    {
      "inputs": [
        {
          "internalType": "address",
          "name": "vaultAddress",
          "type": "address"
        },
        {
          "internalType": "address",
          "name": "supportedManagedPoolFactory",
          "type": "address"
        }
      ],
      "stateMutability": "nonpayable",
      "type": "constructor"
    },
    {
      "anonymous": false,
      "inputs": [
        {
          "components": [
            {
              "internalType": "string",
              "name": "name",
              "type": "string"
            },
            {
              "internalType": "string",
              "name": "symbol",
              "type": "string"
            },
            {
              "internalType": "address[]",
              "name": "assetManagers",
              "type": "address[]"
            }
          ],
          "indexed": false,
          "internalType": "struct ManagedPoolParams",
          "name": "managedPoolParams",
          "type": "tuple"
        },
        {
          "components": [
            {
              "internalType": "contract IERC20[]",
              "name": "tokens",
              "type": "address[]"
            },
            {
              "internalType": "uint256[]",
              "name": "normalizedWeights",
              "type": "uint256[]"
            },
            {
              "internalType": "uint256",
              "name": "swapFeePercentage",
              "type": "uint256"
            },
            {
              "internalType": "bool",
              "name": "isSwapEnabledOnStart",
              "type": "bool"
            },
            {
              "internalType": "bool",
              "name": "isMustAllowlistLPs",
              "type": "bool"
            },
            {
              "internalType": "uint256",
              "name": "managementAumFeePercentage",
              "type": "uint256"
            },
            {
              "internalType": "uint256",
              "name": "aumFeeId",
              "type": "uint256"
            }
          ],
          "indexed": false,
          "internalType": "struct ManagedPoolSettingsParams",
          "name": "managedPoolSettingsParams",
          "type": "tuple"
        },
        {
          "indexed": false,
          "internalType": "address",
          "name": "callerAddress",
          "type": "address"
        },
        {
          "indexed": false,
          "internalType": "bytes32",
          "name": "salt",
          "type": "bytes32"
        },
        {
          "indexed": false,
          "internalType": "bool",
          "name": "isSuccessful",
          "type": "bool"
        }
      ],
      "name": "CreatedPoolByDelegateCall",
      "type": "event"
    },
    {
      "inputs": [
        {
          "internalType": "address",
          "name": "poolAddress",
          "type": "address"
        }
      ],
      "name": "calculateBalancing",
      "outputs": [
        {
          "components": [
            {
              "components": [
                {
                  "internalType": "contract IAsset[]",
                  "name": "assets",
                  "type": "address[]"
                },
                {
                  "internalType": "uint256[]",
                  "name": "minAmountsOut",
                  "type": "uint256[]"
                },
                {
                  "internalType": "bytes",
                  "name": "userData",
                  "type": "bytes"
                },
                {
                  "internalType": "bool",
                  "name": "toInternalBalance",
                  "type": "bool"
                }
              ],
              "internalType": "struct IVault.ExitPoolRequest",
              "name": "newExitRequest",
              "type": "tuple"
            },
            {
              "components": [
                {
                  "internalType": "contract IAsset[]",
                  "name": "assets",
                  "type": "address[]"
                },
                {
                  "internalType": "uint256[]",
                  "name": "maxAmountsIn",
                  "type": "uint256[]"
                },
                {
                  "internalType": "bytes",
                  "name": "userData",
                  "type": "bytes"
                },
                {
                  "internalType": "bool",
                  "name": "fromInternalBalance",
                  "type": "bool"
                }
              ],
              "internalType": "struct IVault.JoinPoolRequest",
              "name": "newJoinRequest",
              "type": "tuple"
            }
          ],
          "internalType": "struct PoolAdjustments",
          "name": "",
          "type": "tuple"
        }
      ],
      "stateMutability": "view",
      "type": "function",
      "constant": true
    },
    {
      "inputs": [
        {
          "internalType": "address",
          "name": "value",
          "type": "address"
        }
      ],
      "name": "getTokenPrice",
      "outputs": [
        {
          "internalType": "int256",
          "name": "",
          "type": "int256"
        }
      ],
      "stateMutability": "view",
      "type": "function",
      "constant": true
    },
    {
      "inputs": [
        {
          "internalType": "address",
          "name": "",
          "type": "address"
        }
      ],
      "name": "managedPools",
      "outputs": [
        {
          "internalType": "string",
          "name": "poolName",
          "type": "string"
        },
        {
          "internalType": "string",
          "name": "poolSymbol",
          "type": "string"
        },
        {
          "internalType": "uint256",
          "name": "tolerance",
          "type": "uint256"
        }
      ],
      "stateMutability": "view",
      "type": "function",
      "constant": true
    },
    {
      "inputs": [],
      "name": "manager",
      "outputs": [
        {
          "internalType": "address",
          "name": "",
          "type": "address"
        }
      ],
      "stateMutability": "view",
      "type": "function",
      "constant": true
    },
    {
      "inputs": [
        {
          "internalType": "address",
          "name": "supportedManager",
          "type": "address"
        }
      ],
      "name": "transferManagement",
      "outputs": [],
      "stateMutability": "nonpayable",
      "type": "function"
    },
    {
      "inputs": [
        {
          "internalType": "string",
          "name": "name",
          "type": "string"
        },
        {
          "internalType": "string",
          "name": "symbol",
          "type": "string"
        },
        {
          "internalType": "contract IERC20[]",
          "name": "tokens",
          "type": "address[]"
        },
        {
          "internalType": "uint256[]",
          "name": "normalizedWeights",
          "type": "uint256[]"
        },
        {
          "internalType": "address[]",
          "name": "assetManagers",
          "type": "address[]"
        },
        {
          "internalType": "uint256",
          "name": "swapFeePercentage",
          "type": "uint256"
        },
        {
          "internalType": "bool",
          "name": "isSwapEnabledOnStart",
          "type": "bool"
        },
        {
          "internalType": "bool",
          "name": "isMustAllowlistLPs",
          "type": "bool"
        },
        {
          "internalType": "uint256",
          "name": "managementAumFeePercentage",
          "type": "uint256"
        },
        {
          "internalType": "uint256",
          "name": "aumFeeId",
          "type": "uint256"
        },
        {
          "internalType": "bytes32",
          "name": "salt",
          "type": "bytes32"
        }
      ],
      "name": "createPool",
      "outputs": [],
      "stateMutability": "nonpayable",
      "type": "function"
    },
    {
      "inputs": [],
      "name": "getRegisteredPools",
      "outputs": [
        {
          "internalType": "address[]",
          "name": "",
          "type": "address[]"
        }
      ],
      "stateMutability": "view",
      "type": "function",
      "constant": true
    },
    {
      "inputs": [
        {
          "internalType": "address",
          "name": "managedPool",
          "type": "address"
        }
      ],
      "name": "registerManagedPool",
      "outputs": [],
      "stateMutability": "nonpayable",
      "type": "function"
    },
    {
      "inputs": [
        {
          "internalType": "address",
          "name": "managedPool",
          "type": "address"
        }
      ],
      "name": "deRegisterManagedPool",
      "outputs": [],
      "stateMutability": "nonpayable",
      "type": "function"
    },
    {
      "inputs": [
        {
          "internalType": "address",
          "name": "tokenIn",
          "type": "address"
        },
        {
          "internalType": "uint256",
          "name": "amountIn",
          "type": "uint256"
        },
        {
          "internalType": "address",
          "name": "recipient",
          "type": "address"
        }
      ],
      "name": "buyReserveToken",
      "outputs": [],
      "stateMutability": "nonpayable",
      "type": "function"
    },
    {
      "inputs": [
        {
          "internalType": "address",
          "name": "tokenIn",
          "type": "address"
        },
        {
          "internalType": "address",
          "name": "pool",
          "type": "address"
        },
        {
          "internalType": "uint256",
          "name": "amountIn",
          "type": "uint256"
        },
        {
          "internalType": "address",
          "name": "recipient",
          "type": "address"
        }
      ],
      "name": "sellReserveToken",
      "outputs": [],
      "stateMutability": "nonpayable",
      "type": "function"
    }
  ],
  "bytecode": "0x60c06040523480156200001157600080fd5b5060405162002cf938038062002cf9833981016040819052620000349162000088565b600160008190556001600160601b0319606093841b811660805281546001600160a01b0319163317909155911b1660a052620000bf565b80516001600160a01b03811681146200008357600080fd5b919050565b600080604083850312156200009b578182fd5b620000a6836200006b565b9150620000b6602084016200006b565b90509250929050565b60805160601c60a05160601c612beb6200010e600039600061126301526000818161041801528181610537015281816108960152818161099e0152818161158b01526116aa0152612beb6000f3fe608060405234801561001057600080fd5b50600436106100a95760003560e01c80637b35a88f116100715780637b35a88f146101295780638c4288cd1461014b578063c944994c1461015e578063d02641a014610171578063d22320e214610191578063e4edf852146101a4576100a9565b8063041ead60146100ae57806347958851146100c3578063481c6a75146100d65780634fed9acd146100f4578063659d4f5c14610114575b600080fd5b6100c16100bc3660046121be565b6101b7565b005b6100c16100d136600461228b565b610220565b6100de6107c8565b6040516100eb91906127c8565b60405180910390f35b6101076101023660046121be565b6107d7565b6040516100eb9190612996565b61011c61106e565b6040516100eb9190612819565b61013c6101373660046121be565b6110d0565b6040516100eb93929190612835565b6100c1610159366004612407565b611202565b6100c161016c3660046121fd565b61139d565b61018461017f3660046121be565b611952565b6040516100eb919061282c565b6100c161019f3660046121be565b611ce2565b6100c16101b23660046121be565b611d05565b6001546001600160a01b031633146101ce57600080fd5b600380546001810182556000919091527fc2575a0e9e593c00f959f8c92f12db2869c3395a3b0502d05e2516446f71f85b0180546001600160a01b0319166001600160a01b0392909216919091179055565b610228611d3e565b8261023281611d68565b6102575760405162461bcd60e51b815260040161024e906128a2565b60405180910390fd5b61025f611ee1565b6001600160a01b0385168082526040516323b872dd60e01b81528691906323b872dd9061029490339030908a906004016127dc565b602060405180830381600087803b1580156102ae57600080fd5b505af11580156102c2573d6000803e3d6000fd5b505050506040513d601f19601f820116820180604052508101906102e691906123d3565b6103025760405162461bcd60e51b815260040161024e9061286b565b6000816001600160a01b03166318160ddd6040518163ffffffff1660e01b815260040160206040518083038186803b15801561033d57600080fd5b505afa158015610351573d6000803e3d6000fd5b505050506040513d601f19601f8201168201806040525081019061037591906123ef565b905060006103838288612a35565b905083600001516001600160a01b03166338fff2d06040518163ffffffff1660e01b815260040160206040518083038186803b1580156103c257600080fd5b505afa1580156103d6573d6000803e3d6000fd5b505050506040513d601f19601f820116820180604052508101906103fa91906123ef565b6020850181905260405163f6c0092760e01b81526001600160a01b037f0000000000000000000000000000000000000000000000000000000000000000169163f6c009279161044c919060040161282c565b604080518083038186803b15801561046357600080fd5b505afa158015610477573d6000803e3d6000fd5b505050506040513d601f19601f8201168201806040525081019061049b919061224f565b505083600001516001600160a01b031663f89f27ed6040518163ffffffff1660e01b815260040160006040518083038186803b1580156104da57600080fd5b505afa1580156104ee573d6000803e3d6000fd5b505050506040513d6000823e601f3d908101601f191682016040526105169190810190612398565b60608501526020840151604051631f29a8cd60e31b81526001600160a01b037f0000000000000000000000000000000000000000000000000000000000000000169163f94d46689161056b919060040161282c565b60006040518083038186803b15801561058357600080fd5b505afa158015610597573d6000803e3d6000fd5b505050506040513d6000823e601f3d908101601f191682016040526105bf91908101906122cc565b5060a0860152608085018190526105d590611dc3565b60c085015260005b8460800151518110156106955760008560a00151828151811061061057634e487b7160e01b600052603260045260246000fd5b60200260200101511115610683576106528560800151828151811061064557634e487b7160e01b600052603260045260246000fd5b6020026020010151611952565b8560400151828151811061067657634e487b7160e01b600052603260045260246000fd5b6020026020010181815250505b8061068d81612b31565b9150506105dd565b506000805b85608001515181101561072757856040015181815181106106cb57634e487b7160e01b600052603260045260246000fd5b60200260200101518660a0015182815181106106f757634e487b7160e01b600052603260045260246000fd5b60200260200101516107099190612a55565b6107139083612a1d565b91508061071f81612b31565b91505061069a565b5060006107348284612a55565b90507398a90ecfb163d138ec289d05362f20613a0c02ac806340c10f198a61076485670de0b6b3a7640000612a55565b6040518363ffffffff1660e01b8152600401610781929190612800565b600060405180830381600087803b15801561079b57600080fd5b505af11580156107af573d6000803e3d6000fd5b5050505050505050505050506107c3611dc6565b505050565b6001546001600160a01b031681565b6107df611f2a565b6001546001600160a01b031633146107f657600080fd5b6107fe611f4f565b6001600160a01b0383168082526040805163038fff2d60e41b81529051600092916338fff2d0916004808301926020929190829003018186803b15801561084457600080fd5b505afa158015610858573d6000803e3d6000fd5b505050506040513d601f19601f8201168201806040525081019061087c91906123ef565b60405163f6c0092760e01b81529091506001600160a01b037f0000000000000000000000000000000000000000000000000000000000000000169063f6c00927906108cb90849060040161282c565b604080518083038186803b1580156108e257600080fd5b505afa1580156108f6573d6000803e3d6000fd5b505050506040513d601f19601f8201168201806040525081019061091a919061224f565b5050600082600001516001600160a01b031663f89f27ed6040518163ffffffff1660e01b815260040160006040518083038186803b15801561095b57600080fd5b505afa15801561096f573d6000803e3d6000fd5b505050506040513d6000823e601f3d908101601f191682016040526109979190810190612398565b90506000807f00000000000000000000000000000000000000000000000000000000000000006001600160a01b031663f94d4668856040518263ffffffff1660e01b81526004016109e8919061282c565b60006040518083038186803b158015610a0057600080fd5b505afa158015610a14573d6000803e3d6000fd5b505050506040513d6000823e601f3d908101601f19168201604052610a3c91908101906122cc565b50915091506000610a4c83611dc3565b9050600080600084600081518110610a7457634e487b7160e01b600052603260045260246000fd5b60200260200101511115610b765785600081518110610aa357634e487b7160e01b600052603260045260246000fd5b602002602001015184600081518110610acc57634e487b7160e01b600052603260045260246000fd5b6020026020010151610ade9190612a35565b86600181518110610aff57634e487b7160e01b600052603260045260246000fd5b602002602001015185600181518110610b2857634e487b7160e01b600052603260045260246000fd5b6020026020010151610b3a9190612a35565b610b449190612a35565b8860200151600081518110610b6957634e487b7160e01b600052603260045260246000fd5b6020026020010181815250505b60015b8551811015610cb5576000858281518110610ba457634e487b7160e01b600052603260045260246000fd5b60200260200101511115610ca357868181518110610bd257634e487b7160e01b600052603260045260246000fd5b6020026020010151858281518110610bfa57634e487b7160e01b600052603260045260246000fd5b6020026020010151610c0c9190612a35565b87600081518110610c2d57634e487b7160e01b600052603260045260246000fd5b602002602001015186600081518110610c5657634e487b7160e01b600052603260045260246000fd5b6020026020010151610c689190612a35565b610c729190612a35565b89602001518281518110610c9657634e487b7160e01b600052603260045260246000fd5b6020026020010181815250505b80610cad81612b31565b915050610b79565b5060015b8551811015610d9257600089602001518281518110610ce857634e487b7160e01b600052603260045260246000fd5b60200260200101511115610d805788602001518181518110610d1a57634e487b7160e01b600052603260045260246000fd5b6020026020010151610d4587838151811061064557634e487b7160e01b600052603260045260246000fd5b610d4f9190612a74565b89604001518281518110610d7357634e487b7160e01b600052603260045260246000fd5b6020026020010181815250505b80610d8a81612b31565b915050610cb9565b5060608060015b8751811015610fef576001600160a01b038d166000908152600260208190526040918290200154908c0151805183908110610de457634e487b7160e01b600052603260045260246000fd5b602002602001015112610e8d57600260008e6001600160a01b03166001600160a01b03168152602001908152602001600020600201546064888381518110610e3c57634e487b7160e01b600052603260045260246000fd5b6020026020010151610e4e9190612a35565b610e589190612a55565b828281518110610e7857634e487b7160e01b600052603260045260246000fd5b60200260200101818152505060019350610fdd565b6001600160a01b038d1660009081526002602081905260409091200154610eb390612b4c565b8b604001518281518110610ed757634e487b7160e01b600052603260045260246000fd5b602002602001015113610f8057600260008e6001600160a01b03166001600160a01b03168152602001908152602001600020600201546064888381518110610f2f57634e487b7160e01b600052603260045260246000fd5b6020026020010151610f419190612a35565b610f4b9190612a55565b838281518110610f6b57634e487b7160e01b600052603260045260246000fd5b60200260200101818152505060019450610fdd565b6000838281518110610fa257634e487b7160e01b600052603260045260246000fd5b6020026020010181815250506000828281518110610fd057634e487b7160e01b600052603260045260246000fd5b6020026020010181815250505b80610fe781612b31565b915050610d99565b50610ff8611f2a565b8315611029578051869052604080516020808201835260008252835190920152815160016060909101528151018290525b841561105c5760208082018051889052604080518084018252600081528251909101528051600160609091015251018390525b9a50505050505050505050505b919050565b606060038054806020026020016040519081016040528092919081815260200182805480156110c657602002820191906000526020600020905b81546001600160a01b031681526001909101906020018083116110a8575b5050505050905090565b6002602052600090815260409020805481906110eb90612af6565b80601f016020809104026020016040519081016040528092919081815260200182805461111790612af6565b80156111645780601f1061113957610100808354040283529160200191611164565b820191906000526020600020905b81548152906001019060200180831161114757829003601f168201915b50505050509080600101805461117990612af6565b80601f01602080910402602001604051908101604052809291908181526020018280546111a590612af6565b80156111f25780601f106111c7576101008083540402835291602001916111f2565b820191906000526020600020905b8154815290600101906020018083116111d557829003601f168201915b5050505050908060020154905083565b61120a611f79565b8b8152602081018b905260408101889052611223611f9a565b8a8152602081018a905260408082018990528715156060830152861515608083015260a0820186905260c082018590525160009081906001600160a01b037f00000000000000000000000000000000000000000000000000000000000000001690637304b8b960e01b906112a1908790879033908b90602401612906565b60408051601f198184030181529181526020820180516001600160e01b03166001600160e01b03199094169390931790925290516112df91906127ac565b600060405180830381855af49150503d806000811461131a576040519150601f19603f3d011682016040523d82523d6000602084013e61131f565b606091505b50915091507f15fd418169a4890b496e7cb6e8a9d72d1790b6247d3ebe27b87894ff2c3e4354848433888660405161135b959493929190612948565b60405180910390a1811561138c5760008180602001905181019061137f91906121e1565b905061138a816101b7565b505b505050505050505050505050505050565b6113a5611d3e565b826113af81611d68565b6113cb5760405162461bcd60e51b815260040161024e906128a2565b6113d3611ee1565b6001600160a01b038516808252604080516318160ddd60e01b81529051879260009290916318160ddd91600480820192602092909190829003018186803b15801561141d57600080fd5b505afa158015611431573d6000803e3d6000fd5b505050506040513d601f19601f8201168201806040525081019061145591906123ef565b6040516323b872dd60e01b815290915088906001600160a01b038216906323b872dd9061148a90339030908c906004016127dc565b602060405180830381600087803b1580156114a457600080fd5b505af11580156114b8573d6000803e3d6000fd5b505050506040513d601f19601f820116820180604052508101906114dc91906123d3565b6114f85760405162461bcd60e51b815260040161024e9061286b565b83600001516001600160a01b03166338fff2d06040518163ffffffff1660e01b815260040160206040518083038186803b15801561153557600080fd5b505afa158015611549573d6000803e3d6000fd5b505050506040513d601f19601f8201168201806040525081019061156d91906123ef565b6020850181905260405163f6c0092760e01b81526001600160a01b037f0000000000000000000000000000000000000000000000000000000000000000169163f6c00927916115bf919060040161282c565b604080518083038186803b1580156115d657600080fd5b505afa1580156115ea573d6000803e3d6000fd5b505050506040513d601f19601f8201168201806040525081019061160e919061224f565b505083600001516001600160a01b031663f89f27ed6040518163ffffffff1660e01b815260040160006040518083038186803b15801561164d57600080fd5b505afa158015611661573d6000803e3d6000fd5b505050506040513d6000823e601f3d908101601f191682016040526116899190810190612398565b60608501526020840151604051631f29a8cd60e31b81526001600160a01b037f0000000000000000000000000000000000000000000000000000000000000000169163f94d4668916116de919060040161282c565b60006040518083038186803b1580156116f657600080fd5b505afa15801561170a573d6000803e3d6000fd5b505050506040513d6000823e601f3d908101601f1916820160405261173291908101906122cc565b5060a08601526080850181905261174890611dc3565b60c085015260005b8460800151518110156117fb5760008560a00151828151811061178357634e487b7160e01b600052603260045260246000fd5b602002602001015111156117e9576117b88560800151828151811061064557634e487b7160e01b600052603260045260246000fd5b856040015182815181106117dc57634e487b7160e01b600052603260045260246000fd5b6020026020010181815250505b806117f381612b31565b915050611750565b506000805b85608001515181101561188d578560400151818151811061183157634e487b7160e01b600052603260045260246000fd5b60200260200101518660a00151828151811061185d57634e487b7160e01b600052603260045260246000fd5b602002602001015161186f9190612a55565b6118799083612a1d565b91508061188581612b31565b915050611800565b50600061189a848a612a35565b905060006118a88583612a55565b90506001600160a01b03861663a9059cbb8a6118cc84670de0b6b3a7640000612a55565b6040518363ffffffff1660e01b81526004016118e9929190612800565b602060405180830381600087803b15801561190357600080fd5b505af1158015611917573d6000803e3d6000fd5b505050506040513d601f19601f8201168201806040525081019061193b91906123d3565b50505050505050505061194c611dc6565b50505050565b6000806001600160a01b03831673baab46e28388d2779e6e31fd00cf0e5ad95e327b1415611a1257600073128fe88eaa22bffb868bb3a584a54c96ee24014b9050806001600160a01b031663feaf968c6040518163ffffffff1660e01b815260040160a06040518083038186803b1580156119cc57600080fd5b505afa1580156119e0573d6000803e3d6000fd5b505050506040513d601f19601f82011682018060405250810190611a049190612521565b50919450611cdc9350505050565b6001600160a01b03831673471ece3750da237f93b8e339c536989b8978a4381415611a89576000730568fd19986748ceff3301e55c0eb1e729e0ab7e9050806001600160a01b031663feaf968c6040518163ffffffff1660e01b815260040160a06040518083038186803b1580156119cc57600080fd5b6001600160a01b03831673122013fd7df1c6f636a5bb8f03108e876548b4551415611b00576000731fcd30a73d67639c1cd89ff5746e7585731c083b9050806001600160a01b031663feaf968c6040518163ffffffff1660e01b815260040160a06040518083038186803b1580156119cc57600080fd5b6001600160a01b03831673d8763cba276a3738e6de85b4b3bf5fded6d6ca731415611b77576000733d207061dbe8e2473527611bfecb87ff12b28dda9050806001600160a01b031663feaf968c6040518163ffffffff1660e01b815260040160a06040518083038186803b1580156119cc57600080fd5b6001600160a01b0383167372d7f41ef46a988b13530f67423b36cd9cadbc3a1415611bee576000736b6a4c71ec3858a024f3f0ee44bb0adcbed3dcc29050806001600160a01b031663feaf968c6040518163ffffffff1660e01b815260040160a06040518083038186803b1580156119cc57600080fd5b6001600160a01b038316732a3684e9dc20b857375ea04235f2f7edbe818fa71415611c6557600073c7a353bae210aed958a1a2928b654938ec59dab29050806001600160a01b031663feaf968c6040518163ffffffff1660e01b815260040160a06040518083038186803b1580156119cc57600080fd5b6001600160a01b03831673f6d198cd2a85bb2f3021cdbdab6b878474079be714156100a9576000735e37af40a7a344ec9b03ccd34a250f3da9a20b029050806001600160a01b031663feaf968c6040518163ffffffff1660e01b815260040160a06040518083038186803b1580156119cc57600080fd5b92915050565b6001546001600160a01b03163314611cf957600080fd5b611d0281611dcd565b50565b6001546001600160a01b03163314611d1c57600080fd5b600180546001600160a01b0319166001600160a01b0392909216919091179055565b60026000541415611d615760405162461bcd60e51b815260040161024e906128cf565b6002600055565b6000805b826001600160a01b031660038281548110611d9757634e487b7160e01b600052603260045260246000fd5b6000918252602090912001546001600160a01b031614611cdc5780611dbb81612b31565b915050611d6c565b90565b6001600055565b6000611dd882611d68565b9050611de381611de7565b5050565b600354611df690600190612ab3565b811015611e9d576003611e0a826001612a1d565b81548110611e2857634e487b7160e01b600052603260045260246000fd5b600091825260209091200154600380546001600160a01b039092169183908110611e6257634e487b7160e01b600052603260045260246000fd5b600091825260209091200180546001600160a01b0319166001600160a01b039290921691909117905580611e9581612b31565b915050611de7565b6003805480611ebc57634e487b7160e01b600052603160045260246000fd5b600082815260209020810160001990810180546001600160a01b031916905501905550565b6040518060e0016040528060006001600160a01b031681526020016000801916815260200160608152602001606081526020016060815260200160608152602001606081525090565b6040518060400160405280611f3d611fdb565b8152602001611f4a611fdb565b905290565b604051806060016040528060006001600160a01b0316815260200160608152602001606081525090565b60405180606001604052806060815260200160608152602001606081525090565b6040518060e0016040528060608152602001606081526020016000815260200160001515815260200160001515815260200160008152602001600081525090565b60405180608001604052806060815260200160608152602001606081526020016000151581525090565b600082601f830112612015578081fd5b8135602061202a612025836129f9565b6129cf565b8281528181019085830183850287018401881015612046578586fd5b855b8581101561206d57813561205b81612b92565b84529284019290840190600101612048565b5090979650505050505050565b600082601f83011261208a578081fd5b8135602061209a612025836129f9565b82815281810190858301838502870184018810156120b6578586fd5b855b8581101561206d578135845292840192908401906001016120b8565b600082601f8301126120e4578081fd5b815160206120f4612025836129f9565b8281528181019085830183850287018401881015612110578586fd5b855b8581101561206d57815184529284019290840190600101612112565b803561106981612ba7565b600082601f830112612149578081fd5b813567ffffffffffffffff81111561216357612163612b7c565b612176601f8201601f19166020016129cf565b81815284602083860101111561218a578283fd5b816020850160208301379081016020019190915292915050565b805169ffffffffffffffffffff8116811461106957600080fd5b6000602082840312156121cf578081fd5b81356121da81612b92565b9392505050565b6000602082840312156121f2578081fd5b81516121da81612b92565b60008060008060808587031215612212578283fd5b843561221d81612b92565b9350602085013561222d81612b92565b925060408501359150606085013561224481612b92565b939692955090935050565b60008060408385031215612261578182fd5b825161226c81612b92565b602084015190925060038110612280578182fd5b809150509250929050565b60008060006060848603121561229f578081fd5b83356122aa81612b92565b92506020840135915060408401356122c181612b92565b809150509250925092565b6000806000606084860312156122e0578081fd5b835167ffffffffffffffff808211156122f7578283fd5b818601915086601f83011261230a578283fd5b8151602061231a612025836129f9565b82815281810190858301838502870184018c1015612336578788fd5b8796505b8487101561236157805161234d81612b92565b83526001969096019591830191830161233a565b509189015191975090935050508082111561237a578283fd5b50612387868287016120d4565b925050604084015190509250925092565b6000602082840312156123a9578081fd5b815167ffffffffffffffff8111156123bf578182fd5b6123cb848285016120d4565b949350505050565b6000602082840312156123e4578081fd5b81516121da81612ba7565b600060208284031215612400578081fd5b5051919050565b60008060008060008060008060008060006101608c8e031215612428578889fd5b67ffffffffffffffff808d35111561243e57898afd5b61244b8e8e358f01612139565b9b508060208e0135111561245d57898afd5b61246d8e60208f01358f01612139565b9a508060408e0135111561247f57898afd5b61248f8e60408f01358f01612005565b99508060608e013511156124a1578788fd5b6124b18e60608f01358f0161207a565b98508060808e013511156124c3578788fd5b506124d48d60808e01358e01612005565b965060a08c013595506124e960c08d0161212e565b94506124f760e08d0161212e565b93506101008c013592506101208c013591506101408c013590509295989b509295989b9093969950565b600080600080600060a08688031215612538578283fd5b612541866121a4565b9450602086015193506040860151925060608601519150612564608087016121a4565b90509295509295909350565b6000815180845260208085019450808401835b838110156125a85781516001600160a01b031687529582019590820190600101612583565b509495945050505050565b6000815180845260208085019450808401835b838110156125a8578151875295820195908201906001016125c6565b15159052565b60008151808452612600816020860160208601612aca565b601f01601f19169290920160200192915050565b8051608080845281519084018190526000916020919082019060a0860190845b818110156126595783516001600160a01b031683529284019291840191600101612634565b50508285015191508581038387015261267281836125b3565b925050506040830151848203604086015261268d82826125e8565b91505060608301516126a260608601826125e2565b509392505050565b60008151606084526126bf60608501826125e8565b9050602083015184820360208601526126d882826125e8565b915050604083015184820360408601526126f28282612570565b95945050505050565b805160e0808452815190840181905260009160209190820190610100860190845b818110156127415783516001600160a01b03168352928401929184019160010161271c565b50508285015191508581038387015261275a81836125b3565b9250505060408301516040850152606083015161277a60608601826125e2565b50608083015161278d60808601826125e2565b5060a083015160a085015260c083015160c08501528091505092915050565b600082516127be818460208701612aca565b9190910192915050565b6001600160a01b0391909116815260200190565b6001600160a01b039384168152919092166020820152604081019190915260600190565b6001600160a01b03929092168252602082015260400190565b6000602082526121da6020830184612570565b90815260200190565b60006060825261284860608301866125e8565b828103602084015261285a81866125e8565b915050826040830152949350505050565b6020808252601f908201527f5472616e73666572206f6620696e70757420746f6b656e73206661696c656400604082015260600190565b602080825260139082015272141bdbdb081b9bdd081c9959da5cdd195c9959606a1b604082015260600190565b6020808252601f908201527f5265656e7472616e637947756172643a207265656e7472616e742063616c6c00604082015260600190565b60006080825261291960808301876126aa565b828103602084015261292b81876126fb565b6001600160a01b0395909516604084015250506060015292915050565b600060a0825261295b60a08301886126aa565b828103602084015261296d81886126fb565b6001600160a01b0396909616604084015250506060810192909252151560809091015292915050565b6000602082528251604060208401526129b26060840182612614565b90506020840151601f198483030160408501526126f28282612614565b60405181810167ffffffffffffffff811182821017156129f1576129f1612b7c565b604052919050565b600067ffffffffffffffff821115612a1357612a13612b7c565b5060209081020190565b60008219821115612a3057612a30612b66565b500190565b600082612a5057634e487b7160e01b81526012600452602481fd5b500490565b6000816000190483118215151615612a6f57612a6f612b66565b500290565b60008083128015600160ff1b850184121615612a9257612a92612b66565b6001600160ff1b0384018313811615612aad57612aad612b66565b50500390565b600082821015612ac557612ac5612b66565b500390565b60005b83811015612ae5578181015183820152602001612acd565b8381111561194c5750506000910152565b600281046001821680612b0a57607f821691505b60208210811415612b2b57634e487b7160e01b600052602260045260246000fd5b50919050565b6000600019821415612b4557612b45612b66565b5060010190565b6000600160ff1b821415612b6257612b62612b66565b0390565b634e487b7160e01b600052601160045260246000fd5b634e487b7160e01b600052604160045260246000fd5b6001600160a01b0381168114611d0257600080fd5b8015158114611d0257600080fdfea2646970667358221220f735c5ebd144de503a0f01ac5aea8ce1c0bae9833b64530f88f5716307a3ee9764736f6c63430008000033",
  "immutableReferences": {
    "1477": [
      {
        "length": 32,
        "start": 4707
      }
    ],
    "2937": [
      {
        "length": 32,
        "start": 1048
      },
      {
        "length": 32,
        "start": 1335
      },
      {
        "length": 32,
        "start": 2198
      },
      {
        "length": 32,
        "start": 2462
      },
      {
        "length": 32,
        "start": 5515
      },
      {
        "length": 32,
        "start": 5802
      }
    ]
  },
  "source": "// SPDX-License-Identifier: MIT\n\npragma solidity ^0.8.0;\npragma experimental ABIEncoderV2;\n\nimport \"./base/BaseUtils.sol\";\nimport \"@balancer-labs/v2-interfaces/contracts/pool-utils/IManagedPool.sol\";\nimport \"@balancer-labs/v2-interfaces/contracts/vault/IVault.sol\";\nimport \"./lib/ManagedPoolFactory.sol\";\nimport \"./lib/ReserveToken.sol\";\n\ncontract ReserveController is BaseUtils {\n\n    address private constant RESERVE_TOKEN = 0x98A90EcFB163d138eC289D05362f20613A0C02aC;\n\n    event CreatedPoolByDelegateCall(\n        ManagedPoolParams managedPoolParams,\n        ManagedPoolSettingsParams managedPoolSettingsParams,\n        address callerAddress,\n        bytes32 salt,\n        bool isSuccessful\n    );\n\n    struct TradeValues {\n        IManagedPool collateral;\n        bytes32 poolId;\n        int [] tokenPrices;\n        uint256 [] normalizedWeights;\n        IERC20 [] tokens;\n        uint256 [] balances;\n        IAsset [] assets;\n    }\n\n    struct JoinPoolRequest {\n        IERC20[] assets;\n        uint256[] maxAmountsIn;\n        bytes userData;\n        bool fromInternalBalance;\n    }\n\n    address [] private registeredPools;\n    address internal immutable managedPoolFactory;\n\n    /**\n     * @notice Constructor for the controller base class\n     *\n     * @param vaultAddress - Vault contract address\n     * @param supportedManagedPoolFactory - ManegedPoolFactory address\n     */\n    constructor(address vaultAddress, address supportedManagedPoolFactory)\n    BaseUtils(vaultAddress) {\n        manager = msg.sender;\n        managedPoolFactory = supportedManagedPoolFactory;\n    }\n\n    /**\n     * @notice Create and register a new managed pool\n     *\n     * @param name - Pool name\n     * @param symbol - Symbol representing the pool\n     * @param tokens - Tokens in the pool\n     * @param normalizedWeights - Normalized weights in the pool\n     * @param assetManagers - Asset manager for the pool\n     * @param swapFeePercentage - Fee applied to swaps\n     * @param isSwapEnabledOnStart - Whether swaps are enabled straight away\n     * @param isMustAllowlistLPs - List of LP's allowed in the pool\n     * @param managementAumFeePercentage - Management Aum fee to apply\n     * @param aumFeeId - Aum Fee Id\n     * @param salt - Salt applied to address to ensure uniqueness\n     */\n    function createPool(\n        string memory name,\n        string memory symbol,\n        IERC20 [] memory tokens,\n        uint256 [] memory normalizedWeights,\n        address [] memory assetManagers,\n        uint256 swapFeePercentage,\n        bool isSwapEnabledOnStart,\n        bool isMustAllowlistLPs,\n        uint256 managementAumFeePercentage,\n        uint256 aumFeeId,\n        bytes32 salt\n    ) public{\n        ManagedPoolParams memory poolParams;\n        poolParams.name = name;\n        poolParams.symbol = symbol;\n        poolParams.assetManagers = assetManagers;\n\n        ManagedPoolSettingsParams memory poolSettingsParams;\n        poolSettingsParams.tokens = tokens;\n        poolSettingsParams.normalizedWeights = normalizedWeights;\n        poolSettingsParams.swapFeePercentage = swapFeePercentage;\n        poolSettingsParams.isSwapEnabledOnStart = isSwapEnabledOnStart;\n        poolSettingsParams.isMustAllowlistLPs = isMustAllowlistLPs;\n        poolSettingsParams\n            .managementAumFeePercentage = managementAumFeePercentage;\n        poolSettingsParams.aumFeeId = aumFeeId;\n\n        (bool isSuccessful, bytes memory result) = managedPoolFactory.delegatecall(\n            abi.encodeWithSelector(\n                ManagedPoolFactory.create.selector,\n                poolParams,\n                poolSettingsParams,\n                msg.sender,\n                salt\n            )\n        );\n\n        emit CreatedPoolByDelegateCall(\n            poolParams,\n            poolSettingsParams,\n            msg.sender,\n            salt,\n            isSuccessful\n        );\n        if (isSuccessful) {\n            address poolAddress = abi.decode(result, (address));\n            registerManagedPool(poolAddress);\n        }\n    }\n\n    /**\n     * @notice returns a list of registered pools\n     *\n     */\n    function getRegisteredPools() public view returns (address [] memory) {\n        return registeredPools;\n    }\n\n    /**\n     * @notice Register managed pool\n     *\n     * @param managedPool - Address of pool being worked on.\n     */\n    function registerManagedPool(\n        address managedPool\n    ) public restricted {\n        registeredPools.push(managedPool);\n    }\n\n    /**\n     * @notice Deregister managed pool\n     *\n     * @param managedPool - Address of pool being worked on.\n     */\n    function deRegisterManagedPool(\n        address managedPool\n    ) public restricted {\n        removeByValue(managedPool);\n    }\n\n    /**\n     * @notice This function is used for pools containing two tokens.\n     * It takes in a collateral token such as BPT, calculates an equal\n     * value amount of the reserve token such as G$ then mints and returns it.\n     *\n     * @param tokenIn - Address of collateral token\n     * @param amountIn - The amount being traded\n     * @param recipient - Address of person to receive the reserve tokens\n     */\n    function buyReserveToken(\n        address tokenIn,\n        uint256 amountIn,\n        address recipient\n    ) public nonReentrant checkPoolSupported(tokenIn) {\n        // Retrieve a list of tokens, balances and normalised weights for the pool\n        TradeValues memory tradeValues;\n        tradeValues.collateral = IManagedPool(tokenIn);\n        IERC20 collateral = IERC20(tokenIn);\n\n        // Transfer the input tokens from the sender to this contract\n        require(\n            collateral.transferFrom(msg.sender, address(this), amountIn),\n            \"Transfer of input tokens failed\"\n        );\n\n        // Calculate the buyers share of the pool\n        uint256 totalSupply = collateral.totalSupply();\n        uint256 buyersShare = amountIn / totalSupply;\n\n        tradeValues.poolId = tradeValues.collateral.getPoolId();\n        vault.getPool(tradeValues.poolId);\n        tradeValues.normalizedWeights = tradeValues\n            .collateral\n            .getNormalizedWeights();\n\n        (tradeValues.tokens, tradeValues.balances, ) = vault.getPoolTokens(\n            tradeValues.poolId\n        );\n        tradeValues.assets = SupportLib._convertERC20sToAssets(\n            tradeValues.tokens\n        );\n\n        // Calculate token prices using Chainlink. All prices are to 8 decimal places.\n        for (uint256 i = 0; i < tradeValues.tokens.length; i++) {\n            if (tradeValues.balances [i] > 0) {\n                tradeValues.tokenPrices [i] = getTokenPrice(address(tradeValues.tokens [i]));\n            }\n        }\n\n        // Calculate the total value of the pool\n        uint256 totalPoolValue = 0;\n        for (uint256 i = 0; i < tradeValues.tokens.length; i++) {\n            totalPoolValue =\n                totalPoolValue +\n                (tradeValues.balances [i] * uint256(tradeValues.tokenPrices [i]));\n        }\n\n        // Calculate supplied token value\n        uint256 buyersShareValue = buyersShare * totalPoolValue;\n        ReserveToken reserveToken = ReserveToken(\n            RESERVE_TOKEN\n        );\n\n        // Mint and Transfer the output tokens from this contract to the recipient, assuming reserve token is worth $1\n        reserveToken.mint(recipient, buyersShareValue * (10 ** 18));\n    }\n    \n    /**\n     * @notice Runs a check and transfers reserve tokens as needed\n     * @dev To avoid too many fees, this should be run at wide intervals such as daily\n     *\n     * @param tokenIn - Address of reserve token\n     * @param pool - Address of collateral token\n     * @param amountIn - The amount being traded\n     * @param recipient - Address of person to receive the swapped tokens\n     */\n    function sellReserveToken(\n        address tokenIn,\n        address pool,\n        uint256 amountIn,\n        address recipient\n    ) public nonReentrant checkPoolSupported(pool) {\n        // Retrieve a list of tokens, balances and normalised weights for the pool\n        TradeValues memory tradeValues;\n        tradeValues.collateral = IManagedPool(pool);\n        IERC20 bptToken = IERC20(pool);\n        uint256 totalSupply = bptToken.totalSupply();\n\n        // Transfer the input tokens from the sender to this contract\n        IERC20 collateralToken = IERC20(tokenIn);\n        require(\n            collateralToken.transferFrom(msg.sender, address(this), amountIn),\n            \"Transfer of input tokens failed\"\n        );\n\n        tradeValues.poolId = tradeValues.collateral.getPoolId();\n        vault.getPool(tradeValues.poolId);\n        tradeValues.normalizedWeights = tradeValues\n            .collateral\n            .getNormalizedWeights();\n\n        (tradeValues.tokens, tradeValues.balances, ) = vault.getPoolTokens(\n            tradeValues.poolId\n        );\n        tradeValues.assets = SupportLib._convertERC20sToAssets(\n            tradeValues.tokens\n        );\n\n        // Calculate token prices using Chainlink. All prices are to 8 decimal places.\n        for (uint256 i = 0; i < tradeValues.tokens.length; i++) {\n            if (tradeValues.balances [i] > 0) {\n                tradeValues.tokenPrices [i] = getTokenPrice(address(tradeValues.tokens [i]));\n            }\n        }\n\n        // Calculate the total value of the pool\n        uint256 totalPoolValue = 0;\n        for (uint256 i = 0; i < tradeValues.tokens.length; i++) {\n            totalPoolValue =\n                totalPoolValue +\n                (tradeValues.balances [i] * uint256(tradeValues.tokenPrices [i]));\n        }\n\n        // Calculate supplied token value\n        uint256 myShare = amountIn / totalSupply;\n        uint256 myBptAmount = myShare * totalSupply;\n\n        // Transfer the output tokens from this contract to the recipient\n        bptToken.transfer(recipient, myBptAmount * (10 ** 18));\n    }\n\n    /**\n     * @notice returns the array index containing supplied address\n     *\n     * @param value - Address to find\n     */\n    function find(address value) private view returns (uint) {\n        uint i = 0;\n        while (registeredPools [i] != value) {\n            i++;\n        }\n        return i;\n    }\n\n    /**\n     * @notice removes supplied address from array of addresses\n     *\n     * @param value - Address to look up and remove element\n     */\n    function removeByValue(address value) private {\n        uint i = find(value);\n        removeByIndex(i);\n    }\n\n    /**\n     * @notice remove the item at index, resizing array as needed\n     *\n     * @param i - Index to remove\n     */\n    function removeByIndex(uint i) private {\n        while (i < registeredPools.length - 1) {\n            registeredPools [i] = registeredPools [i + 1];\n            i++;\n        }\n        registeredPools.pop();\n    }\n\n    /**\n     * @dev Modifier to check token allowance\n     *\n     * @param supportedManagedPool - Managed pool address to remove\n     */\n    modifier checkPoolSupported(address supportedManagedPool) {\n        require(find(supportedManagedPool) != 0, \"Pool not registered\");\n        _;\n    }\n}\n",
  "sourcePath": "/home/eagle/Source/BalancerController/Balancer.Controller/contracts/ReserveController.sol",
  "compiler": {
    "name": "solc",
    "version": "0.8.0+commit.c7dfd78e.Emscripten.clang"
  },
  "schemaVersion": "3.4.13",
  "updatedAt": "2023-08-11T15:54:57.931Z",
  "networkType": "ethereum",
  "devdoc": {
    "kind": "dev",
    "methods": {
      "buyReserveToken(address,uint256,address)": {
        "params": {
          "amountIn": "- The amount being traded",
          "recipient": "- Address of person to receive the reserve tokens",
          "tokenIn": "- Address of collateral token"
        }
      },
      "calculateBalancing(address)": {
        "params": {
          "poolAddress": "- Address of pool being worked on."
        }
      },
      "constructor": {
        "params": {
          "supportedManagedPoolFactory": "- ManegedPoolFactory address",
          "vaultAddress": "- Vault contract address"
        }
      },
      "createPool(string,string,address[],uint256[],address[],uint256,bool,bool,uint256,uint256,bytes32)": {
        "params": {
          "assetManagers": "- Asset manager for the pool",
          "aumFeeId": "- Aum Fee Id",
          "isMustAllowlistLPs": "- List of LP's allowed in the pool",
          "isSwapEnabledOnStart": "- Whether swaps are enabled straight away",
          "managementAumFeePercentage": "- Management Aum fee to apply",
          "name": "- Pool name",
          "normalizedWeights": "- Normalized weights in the pool",
          "salt": "- Salt applied to address to ensure uniqueness",
          "swapFeePercentage": "- Fee applied to swaps",
          "symbol": "- Symbol representing the pool",
          "tokens": "- Tokens in the pool"
        }
      },
      "deRegisterManagedPool(address)": {
        "params": {
          "managedPool": "- Address of pool being worked on."
        }
      },
      "getTokenPrice(address)": {
        "params": {
          "value": "- Address to find"
        }
      },
      "registerManagedPool(address)": {
        "params": {
          "managedPool": "- Address of pool being worked on."
        }
      },
      "sellReserveToken(address,address,uint256,address)": {
        "details": "To avoid too many fees, this should be run at wide intervals such as daily",
        "params": {
          "amountIn": "- The amount being traded",
          "pool": "- Address of collateral token",
          "recipient": "- Address of person to receive the swapped tokens",
          "tokenIn": "- Address of reserve token"
        }
      },
      "transferManagement(address)": {
        "details": "Only one manager can presently be set",
        "params": {
          "supportedManager": "- New manager."
        }
      }
    },
    "version": 1
  },
  "userdoc": {
    "kind": "user",
    "methods": {
      "buyReserveToken(address,uint256,address)": {
        "notice": "This function is used for pools containing two tokens. It takes in a collateral token such as BPT, calculates an equal value amount of the reserve token such as G$ then mints and returns it."
      },
      "calculateBalancing(address)": {
        "notice": "Calculates a number of tokens to add or remove to rebalance pricing"
      },
      "constructor": {
        "notice": "Constructor for the controller base class"
      },
      "createPool(string,string,address[],uint256[],address[],uint256,bool,bool,uint256,uint256,bytes32)": {
        "notice": "Create and register a new managed pool"
      },
      "deRegisterManagedPool(address)": {
        "notice": "Deregister managed pool"
      },
      "getRegisteredPools()": {
        "notice": "returns a list of registered pools"
      },
      "getTokenPrice(address)": {
        "notice": "returns the oracle supplied price for the requested token"
      },
      "registerManagedPool(address)": {
        "notice": "Register managed pool"
      },
      "sellReserveToken(address,address,uint256,address)": {
        "notice": "Runs a check and transfers reserve tokens as needed"
      },
      "transferManagement(address)": {
        "notice": "Transfer the manager to a new address"
      }
    },
    "version": 1
  }
}