{
  "contractName": "WeightedBondingCurveController",
  "abi": [
    {
      "inputs": [
        {
          "internalType": "address",
          "name": "vaultAddress",
          "type": "address"
        },
        {
          "internalType": "address",
          "name": "supportedWeightedPoolNoAMFactory",
          "type": "address"
        }
      ],
      "stateMutability": "nonpayable",
      "type": "constructor"
    },
    {
      "inputs": [
        {
          "internalType": "address",
          "name": "poolAddress",
          "type": "address"
        }
      ],
      "name": "calculateBalancing",
      "outputs": [
        {
          "components": [
            {
              "components": [
                {
                  "internalType": "contract IAsset[]",
                  "name": "assets",
                  "type": "address[]"
                },
                {
                  "internalType": "uint256[]",
                  "name": "minAmountsOut",
                  "type": "uint256[]"
                },
                {
                  "internalType": "bytes",
                  "name": "userData",
                  "type": "bytes"
                },
                {
                  "internalType": "bool",
                  "name": "toInternalBalance",
                  "type": "bool"
                }
              ],
              "internalType": "struct IVault.ExitPoolRequest",
              "name": "newExitRequest",
              "type": "tuple"
            },
            {
              "components": [
                {
                  "internalType": "contract IAsset[]",
                  "name": "assets",
                  "type": "address[]"
                },
                {
                  "internalType": "uint256[]",
                  "name": "maxAmountsIn",
                  "type": "uint256[]"
                },
                {
                  "internalType": "bytes",
                  "name": "userData",
                  "type": "bytes"
                },
                {
                  "internalType": "bool",
                  "name": "fromInternalBalance",
                  "type": "bool"
                }
              ],
              "internalType": "struct IVault.JoinPoolRequest",
              "name": "newJoinRequest",
              "type": "tuple"
            }
          ],
          "internalType": "struct PoolAdjustments",
          "name": "",
          "type": "tuple"
        }
      ],
      "stateMutability": "view",
      "type": "function",
      "constant": true
    },
    {
      "inputs": [
        {
          "internalType": "string",
          "name": "name",
          "type": "string"
        },
        {
          "internalType": "string",
          "name": "symbol",
          "type": "string"
        },
        {
          "internalType": "address[]",
          "name": "tokens",
          "type": "address[]"
        },
        {
          "internalType": "uint256[]",
          "name": "normalizedWeights",
          "type": "uint256[]"
        },
        {
          "internalType": "address[]",
          "name": "assetManagers",
          "type": "address[]"
        },
        {
          "internalType": "uint256",
          "name": "swapFeePercentage",
          "type": "uint256"
        },
        {
          "internalType": "bool",
          "name": "isSwapEnabledOnStart",
          "type": "bool"
        },
        {
          "internalType": "bool",
          "name": "isMustAllowlistLPs",
          "type": "bool"
        },
        {
          "internalType": "uint256",
          "name": "managementAumFeePercentage",
          "type": "uint256"
        },
        {
          "internalType": "uint256",
          "name": "aumFeeId",
          "type": "uint256"
        },
        {
          "internalType": "uint256",
          "name": "tolerance",
          "type": "uint256"
        },
        {
          "internalType": "bytes32",
          "name": "salt",
          "type": "bytes32"
        }
      ],
      "name": "createPool",
      "outputs": [],
      "stateMutability": "nonpayable",
      "type": "function"
    },
    {
      "inputs": [
        {
          "internalType": "uint256",
          "name": "amount",
          "type": "uint256"
        },
        {
          "internalType": "address",
          "name": "tokenAddress",
          "type": "address"
        }
      ],
      "name": "depositTokens",
      "outputs": [],
      "stateMutability": "nonpayable",
      "type": "function"
    },
    {
      "inputs": [
        {
          "internalType": "address",
          "name": "poolAddress",
          "type": "address"
        }
      ],
      "name": "getPoolId",
      "outputs": [
        {
          "internalType": "bytes32",
          "name": "",
          "type": "bytes32"
        }
      ],
      "stateMutability": "view",
      "type": "function",
      "constant": true
    },
    {
      "inputs": [],
      "name": "getPoolsUnderManagement",
      "outputs": [
        {
          "internalType": "address[]",
          "name": "",
          "type": "address[]"
        }
      ],
      "stateMutability": "view",
      "type": "function",
      "constant": true
    },
    {
      "inputs": [
        {
          "internalType": "address",
          "name": "value",
          "type": "address"
        }
      ],
      "name": "getTokenPrice",
      "outputs": [
        {
          "internalType": "int256",
          "name": "",
          "type": "int256"
        }
      ],
      "stateMutability": "view",
      "type": "function",
      "constant": true
    },
    {
      "inputs": [],
      "name": "manager",
      "outputs": [
        {
          "internalType": "address",
          "name": "",
          "type": "address"
        }
      ],
      "stateMutability": "view",
      "type": "function",
      "constant": true
    },
    {
      "inputs": [
        {
          "internalType": "address",
          "name": "supportedManager",
          "type": "address"
        }
      ],
      "name": "transferManagement",
      "outputs": [],
      "stateMutability": "nonpayable",
      "type": "function"
    },
    {
      "inputs": [],
      "name": "weightedPoolNoAMFactory",
      "outputs": [
        {
          "internalType": "contract WeightedPoolNoAMFactory",
          "name": "",
          "type": "address"
        }
      ],
      "stateMutability": "view",
      "type": "function",
      "constant": true
    },
    {
      "inputs": [
        {
          "internalType": "address",
          "name": "",
          "type": "address"
        }
      ],
      "name": "weightedPools",
      "outputs": [
        {
          "internalType": "string",
          "name": "poolName",
          "type": "string"
        },
        {
          "internalType": "string",
          "name": "poolSymbol",
          "type": "string"
        },
        {
          "internalType": "uint256",
          "name": "tolerance",
          "type": "uint256"
        }
      ],
      "stateMutability": "view",
      "type": "function",
      "constant": true
    },
    {
      "inputs": [
        {
          "internalType": "address",
          "name": "recipientAddress",
          "type": "address"
        },
        {
          "internalType": "address",
          "name": "tokenAddress",
          "type": "address"
        },
        {
          "internalType": "uint256",
          "name": "amount",
          "type": "uint256"
        }
      ],
      "name": "withdrawFunds",
      "outputs": [],
      "stateMutability": "nonpayable",
      "type": "function"
    },
    {
      "inputs": [
        {
          "internalType": "address",
          "name": "poolAddress",
          "type": "address"
        }
      ],
      "name": "runCheck",
      "outputs": [],
      "stateMutability": "nonpayable",
      "type": "function"
    }
  ],
  "bytecode": "0x60c06040523480156200001157600080fd5b506040516200253238038062002532833981016040819052620000349162000088565b600160008190556001600160601b0319606093841b811660805281546001600160a01b0319163317909155911b1660a052620000bf565b80516001600160a01b03811681146200008357600080fd5b919050565b600080604083850312156200009b578182fd5b620000a6836200006b565b9150620000b6602084016200006b565b90509250929050565b60805160601c60a05160601c61242b620001076000396000818161029f015261129a01526000818161052a015281816105bb01528181610855015261095d015261242b6000f3fe608060405234801561001057600080fd5b50600436106100b45760003560e01c80638722081a116100715780638722081a146101455780638c0a2e831461015a578063caa9a08d14610162578063d02641a014610182578063d62e368114610195578063e4edf852146101b7576100b4565b80631c20fadd146100b957806341bfc4bc146100ce578063481c6a75146100e15780634e4858d9146100ff5780634f6300a2146101125780634fed9acd14610125575b600080fd5b6100cc6100c7366004611bc6565b6101ca565b005b6100cc6100dc366004611d7b565b61027c565b6100e961044a565b6040516100f69190612083565b60405180910390f35b6100cc61010d366004611b87565b610459565b6100cc610120366004611eb7565b610635565b610138610133366004611b87565b610796565b6040516100f6919061222a565b61014d611236565b6040516100f691906120d5565b6100e9611298565b610175610170366004611b87565b6112bc565b6040516100f691906120e8565b610175610190366004611b87565b611335565b6101a86101a3366004611b87565b6116c9565b6040516100f69392919061219e565b6100cc6101c5366004611b87565b6117fb565b6001546001600160a01b031633146101e157600080fd5b6101e9611834565b6040516323b872dd60e01b815282906001600160a01b038216906323b872dd9061021b903090889087906004016120b1565b602060405180830381600087803b15801561023557600080fd5b505af1158015610249573d6000803e3d6000fd5b505050506040513d601f19601f8201168201806040525081019061026d9190611d47565b505061027761185e565b505050565b6001546001600160a01b0316331461029357600080fd5b61029b611834565b60007f00000000000000000000000000000000000000000000000000000000000000006001600160a01b031663fbce03938e8e8e8e8d306040518763ffffffff1660e01b81526004016102f39695949392919061212d565b602060405180830381600087803b15801561030d57600080fd5b505af1158015610321573d6000803e3d6000fd5b505050506040513d601f19601f820116820180604052508101906103459190611baa565b90506003819080600181540180825580915050600190039060005260206000200160009091909190916101000a8154816001600160a01b0302191690836001600160a01b031602179055508c60026000836001600160a01b03166001600160a01b0316815260200190815260200160002060000190805190602001906103cc929190611868565b506001600160a01b03811660009081526002602090815260409091208d516103fc926001909201918f0190611868565b506001600160a01b03811660009081526002602081815260409092209081018590558c51610432926003909201918e01906118ec565b505061043c61185e565b505050505050505050505050565b6001546001600160a01b031681565b6001546001600160a01b0316331461047057600080fd5b610478611834565b600061048382610796565b905060008290506000816001600160a01b03166338fff2d06040518163ffffffff1660e01b815260040160206040518083038186803b1580156104c557600080fd5b505afa1580156104d9573d6000803e3d6000fd5b505050506040513d601f19601f820116820180604052508101906104fd9190611d63565b6020808501510151519091501561059657602083015160405163172b958560e31b81526001600160a01b037f0000000000000000000000000000000000000000000000000000000000000000169163b95cac289161056391859130918a916004016120f1565b600060405180830381600087803b15801561057d57600080fd5b505af1158015610591573d6000803e3d6000fd5b505050505b8251602001515115610627578251604051638bdb391360e01b81526001600160a01b037f00000000000000000000000000000000000000000000000000000000000000001691638bdb3913916105f491859130918a916004016120f1565b600060405180830381600087803b15801561060e57600080fd5b505af1158015610622573d6000803e3d6000fd5b505050505b50505061063261185e565b50565b6001546001600160a01b0316331461064c57600080fd5b610654611834565b604051636eb1769f60e11b815282908290819083906001600160a01b0383169063dd62ed3e9061068a9033903090600401612097565b60206040518083038186803b1580156106a257600080fd5b505afa1580156106b6573d6000803e3d6000fd5b505050506040513d601f19601f820116820180604052508101906106da9190611d63565b10156107015760405162461bcd60e51b81526004016106f8906121d4565b60405180910390fd5b6040516323b872dd60e01b815284906001600160a01b038216906323b872dd9061073390339030908b906004016120b1565b602060405180830381600087803b15801561074d57600080fd5b505af1158015610761573d6000803e3d6000fd5b505050506040513d601f19601f820116820180604052508101906107859190611d47565b505050505061079261185e565b5050565b61079e611941565b6001546001600160a01b031633146107b557600080fd5b6107bd611966565b6001600160a01b0383168082526040805163038fff2d60e41b81529051600092916338fff2d0916004808301926020929190829003018186803b15801561080357600080fd5b505afa158015610817573d6000803e3d6000fd5b505050506040513d601f19601f8201168201806040525081019061083b9190611d63565b60405163f6c0092760e01b81529091506001600160a01b037f0000000000000000000000000000000000000000000000000000000000000000169063f6c009279061088a9084906004016120e8565b604080518083038186803b1580156108a157600080fd5b505afa1580156108b5573d6000803e3d6000fd5b505050506040513d601f19601f820116820180604052508101906108d99190611c06565b5050600082600001516001600160a01b031663f89f27ed6040518163ffffffff1660e01b815260040160006040518083038186803b15801561091a57600080fd5b505afa15801561092e573d6000803e3d6000fd5b505050506040513d6000823e601f3d908101601f191682016040526109569190810190611d0d565b90506000807f00000000000000000000000000000000000000000000000000000000000000006001600160a01b031663f94d4668856040518263ffffffff1660e01b81526004016109a791906120e8565b60006040518083038186803b1580156109bf57600080fd5b505afa1580156109d3573d6000803e3d6000fd5b505050506040513d6000823e601f3d908101601f191682016040526109fb9190810190611c42565b50915091506000610a0b83611865565b905060008084516001600160401b03811115610a3757634e487b7160e01b600052604160045260246000fd5b604051908082528060200260200182016040528015610a60578160200160208202803683370190505b508860200181905250600084600081518110610a8c57634e487b7160e01b600052603260045260246000fd5b60200260200101511115610b925785600081518110610abb57634e487b7160e01b600052603260045260246000fd5b602002602001015184600081518110610ae457634e487b7160e01b600052603260045260246000fd5b6020026020010151610af691906122b8565b86600181518110610b1757634e487b7160e01b600052603260045260246000fd5b602002602001015185600181518110610b4057634e487b7160e01b600052603260045260246000fd5b6020026020010151610b5291906122b8565b610b5c91906122b8565b8860200151600081518110610b8157634e487b7160e01b600052603260045260246000fd5b602002602001018181525050610bc6565b60008860200151600081518110610bb957634e487b7160e01b600052603260045260246000fd5b6020026020010181815250505b60015b8551811015610d3c576000858281518110610bf457634e487b7160e01b600052603260045260246000fd5b60200260200101511115610cf757868181518110610c2257634e487b7160e01b600052603260045260246000fd5b6020026020010151858281518110610c4a57634e487b7160e01b600052603260045260246000fd5b6020026020010151610c5c91906122b8565b87600081518110610c7d57634e487b7160e01b600052603260045260246000fd5b602002602001015186600081518110610ca657634e487b7160e01b600052603260045260246000fd5b6020026020010151610cb891906122b8565b610cc291906122b8565b89602001518281518110610ce657634e487b7160e01b600052603260045260246000fd5b602002602001018181525050610d2a565b600089602001518281518110610d1d57634e487b7160e01b600052603260045260246000fd5b6020026020010181815250505b80610d3481612371565b915050610bc9565b5084516001600160401b03811115610d6457634e487b7160e01b600052604160045260246000fd5b604051908082528060200260200182016040528015610d8d578160200160208202803683370190505b50604089015260015b8551811015610eb357600089602001518281518110610dc557634e487b7160e01b600052603260045260246000fd5b60200260200101511115610e6e5788602001518181518110610df757634e487b7160e01b600052603260045260246000fd5b6020026020010151610e2f878381518110610e2257634e487b7160e01b600052603260045260246000fd5b6020026020010151611335565b610e3991906122f7565b89604001518281518110610e5d57634e487b7160e01b600052603260045260246000fd5b602002602001018181525050610ea1565b600089604001518281518110610e9457634e487b7160e01b600052603260045260246000fd5b6020026020010181815250505b80610eab81612371565b915050610d96565b50600085516001600160401b03811115610edd57634e487b7160e01b600052604160045260246000fd5b604051908082528060200260200182016040528015610f06578160200160208202803683370190505b509050600086516001600160401b03811115610f3257634e487b7160e01b600052604160045260246000fd5b604051908082528060200260200182016040528015610f5b578160200160208202803683370190505b50905060015b87518110156111b7576001600160a01b038d166000908152600260208190526040918290200154908c0151805183908110610fac57634e487b7160e01b600052603260045260246000fd5b60200260200101511261105557600260008e6001600160a01b03166001600160a01b0316815260200190815260200160002060020154606488838151811061100457634e487b7160e01b600052603260045260246000fd5b602002602001015161101691906122b8565b61102091906122d8565b82828151811061104057634e487b7160e01b600052603260045260246000fd5b602002602001018181525050600193506111a5565b6001600160a01b038d166000908152600260208190526040909120015461107b9061238c565b8b60400151828151811061109f57634e487b7160e01b600052603260045260246000fd5b60200260200101511361114857600260008e6001600160a01b03166001600160a01b031681526020019081526020016000206002015460648883815181106110f757634e487b7160e01b600052603260045260246000fd5b602002602001015161110991906122b8565b61111391906122d8565b83828151811061113357634e487b7160e01b600052603260045260246000fd5b602002602001018181525050600194506111a5565b600083828151811061116a57634e487b7160e01b600052603260045260246000fd5b602002602001018181525050600082828151811061119857634e487b7160e01b600052603260045260246000fd5b6020026020010181815250505b806111af81612371565b915050610f61565b506111c0611941565b83156111f1578051869052604080516020808201835260008252835190920152815160016060909101528151018290525b84156112245760208082018051889052604080518084018252600081528251909101528051600160609091015251018390525b9a50505050505050505050505b919050565b6060600380548060200260200160405190810160405280929190818152602001828054801561128e57602002820191906000526020600020905b81546001600160a01b03168152600190910190602001808311611270575b5050505050905090565b7f000000000000000000000000000000000000000000000000000000000000000081565b6000816001600160a01b03166338fff2d06040518163ffffffff1660e01b815260040160206040518083038186803b1580156112f757600080fd5b505afa15801561130b573d6000803e3d6000fd5b505050506040513d601f19601f8201168201806040525081019061132f9190611d63565b92915050565b6000806001600160a01b03831673baab46e28388d2779e6e31fd00cf0e5ad95e327b14156113f557600073128fe88eaa22bffb868bb3a584a54c96ee24014b9050806001600160a01b031663feaf968c6040518163ffffffff1660e01b815260040160a06040518083038186803b1580156113af57600080fd5b505afa1580156113c3573d6000803e3d6000fd5b505050506040513d601f19601f820116820180604052508101906113e79190611edb565b5091945061132f9350505050565b6001600160a01b03831673471ece3750da237f93b8e339c536989b8978a438141561146c576000730568fd19986748ceff3301e55c0eb1e729e0ab7e9050806001600160a01b031663feaf968c6040518163ffffffff1660e01b815260040160a06040518083038186803b1580156113af57600080fd5b6001600160a01b03831673122013fd7df1c6f636a5bb8f03108e876548b45514156114e3576000731fcd30a73d67639c1cd89ff5746e7585731c083b9050806001600160a01b031663feaf968c6040518163ffffffff1660e01b815260040160a06040518083038186803b1580156113af57600080fd5b6001600160a01b03831673d8763cba276a3738e6de85b4b3bf5fded6d6ca73141561155a576000733d207061dbe8e2473527611bfecb87ff12b28dda9050806001600160a01b031663feaf968c6040518163ffffffff1660e01b815260040160a06040518083038186803b1580156113af57600080fd5b6001600160a01b0383167372d7f41ef46a988b13530f67423b36cd9cadbc3a14156115d1576000736b6a4c71ec3858a024f3f0ee44bb0adcbed3dcc29050806001600160a01b031663feaf968c6040518163ffffffff1660e01b815260040160a06040518083038186803b1580156113af57600080fd5b6001600160a01b038316732a3684e9dc20b857375ea04235f2f7edbe818fa7141561164857600073c7a353bae210aed958a1a2928b654938ec59dab29050806001600160a01b031663feaf968c6040518163ffffffff1660e01b815260040160a06040518083038186803b1580156113af57600080fd5b6001600160a01b03831673f6d198cd2a85bb2f3021cdbdab6b878474079be714156116bf576000735e37af40a7a344ec9b03ccd34a250f3da9a20b029050806001600160a01b031663feaf968c6040518163ffffffff1660e01b815260040160a06040518083038186803b1580156113af57600080fd5b6001915050611231565b6002602052600090815260409020805481906116e490612336565b80601f016020809104026020016040519081016040528092919081815260200182805461171090612336565b801561175d5780601f106117325761010080835404028352916020019161175d565b820191906000526020600020905b81548152906001019060200180831161174057829003601f168201915b50505050509080600101805461177290612336565b80601f016020809104026020016040519081016040528092919081815260200182805461179e90612336565b80156117eb5780601f106117c0576101008083540402835291602001916117eb565b820191906000526020600020905b8154815290600101906020018083116117ce57829003601f168201915b5050505050908060020154905083565b6001546001600160a01b0316331461181257600080fd5b600180546001600160a01b0319166001600160a01b0392909216919091179055565b600260005414156118575760405162461bcd60e51b81526004016106f8906121f3565b6002600055565b6001600055565b90565b82805461187490612336565b90600052602060002090601f01602090048101928261189657600085556118dc565b82601f106118af57805160ff19168380011785556118dc565b828001600101855582156118dc579182015b828111156118dc5782518255916020019190600101906118c1565b506118e8929150611990565b5090565b8280548282559060005260206000209081019282156118dc579160200282015b828111156118dc57825182546001600160a01b0319166001600160a01b0390911617825560209092019160019091019061190c565b60405180604001604052806119546119a5565b81526020016119616119a5565b905290565b604051806060016040528060006001600160a01b0316815260200160608152602001606081525090565b5b808211156118e85760008155600101611991565b60405180608001604052806060815260200160608152602001606081526020016000151581525090565b600082601f8301126119df578081fd5b813560206119f46119ef83612295565b61226c565b8281528181019085830183850287018401881015611a10578586fd5b855b85811015611a37578135611a25816123d2565b84529284019290840190600101611a12565b5090979650505050505050565b600082601f830112611a54578081fd5b81356020611a646119ef83612295565b8281528181019085830183850287018401881015611a80578586fd5b855b85811015611a3757813584529284019290840190600101611a82565b600082601f830112611aae578081fd5b81516020611abe6119ef83612295565b8281528181019085830183850287018401881015611ada578586fd5b855b85811015611a3757815184529284019290840190600101611adc565b8035611231816123e7565b600082601f830112611b13578081fd5b81356001600160401b03811115611b2c57611b2c6123bc565b611b3f601f8201601f191660200161226c565b818152846020838601011115611b53578283fd5b816020850160208301379081016020019190915292915050565b805169ffffffffffffffffffff8116811461123157600080fd5b600060208284031215611b98578081fd5b8135611ba3816123d2565b9392505050565b600060208284031215611bbb578081fd5b8151611ba3816123d2565b600080600060608486031215611bda578182fd5b8335611be5816123d2565b92506020840135611bf5816123d2565b929592945050506040919091013590565b60008060408385031215611c18578182fd5b8251611c23816123d2565b602084015190925060038110611c37578182fd5b809150509250929050565b600080600060608486031215611c56578081fd5b83516001600160401b0380821115611c6c578283fd5b818601915086601f830112611c7f578283fd5b81516020611c8f6119ef83612295565b82815281810190858301838502870184018c1015611cab578788fd5b8796505b84871015611cd6578051611cc2816123d2565b835260019690960195918301918301611caf565b5091890151919750909350505080821115611cef578283fd5b50611cfc86828701611a9e565b925050604084015190509250925092565b600060208284031215611d1e578081fd5b81516001600160401b03811115611d33578182fd5b611d3f84828501611a9e565b949350505050565b600060208284031215611d58578081fd5b8151611ba3816123e7565b600060208284031215611d74578081fd5b5051919050565b6000806000806000806000806000806000806101808d8f031215611d9d57898afd5b6001600160401b038d351115611db157898afd5b611dbe8e8e358f01611b03565b9b506001600160401b0360208e01351115611dd757898afd5b611de78e60208f01358f01611b03565b9a506001600160401b0360408e01351115611e0057898afd5b611e108e60408f01358f016119cf565b99506001600160401b0360608e01351115611e29578788fd5b611e398e60608f01358f01611a44565b98506001600160401b0360808e01351115611e52578788fd5b611e628e60808f01358f016119cf565b975060a08d01359650611e7760c08e01611af8565b9550611e8560e08e01611af8565b94506101008d013593506101208d013592506101408d013591506101608d013590509295989b509295989b509295989b565b60008060408385031215611ec9578182fd5b823591506020830135611c37816123d2565b600080600080600060a08688031215611ef2578283fd5b611efb86611b6d565b9450602086015193506040860151925060608601519150611f1e60808701611b6d565b90509295509295909350565b6000815180845260208085019450808401835b83811015611f625781516001600160a01b031687529582019590820190600101611f3d565b509495945050505050565b6000815180845260208085019450808401835b83811015611f6257815187529582019590820190600101611f80565b15159052565b60008151808452815b81811015611fc757602081850181015186830182015201611fab565b81811115611fd85782602083870101525b50601f01601f19169290920160200192915050565b8051608080845281519084018190526000916020919082019060a0860190845b818110156120325783516001600160a01b03168352928401929184019160010161200d565b50508285015191508581038387015261204b8183611f6d565b92505050604083015184820360408601526120668282611fa2565b915050606083015161207b6060860182611f9c565b509392505050565b6001600160a01b0391909116815260200190565b6001600160a01b0392831681529116602082015260400190565b6001600160a01b039384168152919092166020820152604081019190915260600190565b600060208252611ba36020830184611f2a565b90815260200190565b8481526001600160a01b0384811660208301528316604082015260806060820181905260009061212390830184611fed565b9695505050505050565b600060c0825261214060c0830189611fa2565b82810360208401526121528189611fa2565b905082810360408401526121668188611f2a565b9050828103606084015261217a8187611f6d565b608084019590955250506001600160a01b039190911660a090910152949350505050565b6000606082526121b16060830186611fa2565b82810360208401526121c38186611fa2565b915050826040830152949350505050565b60208082526005908201526422b93937b960d91b604082015260600190565b6020808252601f908201527f5265656e7472616e637947756172643a207265656e7472616e742063616c6c00604082015260600190565b6000602082528251604060208401526122466060840182611fed565b90506020840151601f198483030160408501526122638282611fed565b95945050505050565b6040518181016001600160401b038111828210171561228d5761228d6123bc565b604052919050565b60006001600160401b038211156122ae576122ae6123bc565b5060209081020190565b6000826122d357634e487b7160e01b81526012600452602481fd5b500490565b60008160001904831182151516156122f2576122f26123a6565b500290565b60008083128015600160ff1b850184121615612315576123156123a6565b6001600160ff1b0384018313811615612330576123306123a6565b50500390565b60028104600182168061234a57607f821691505b6020821081141561236b57634e487b7160e01b600052602260045260246000fd5b50919050565b6000600019821415612385576123856123a6565b5060010190565b6000600160ff1b8214156123a2576123a26123a6565b0390565b634e487b7160e01b600052601160045260246000fd5b634e487b7160e01b600052604160045260246000fd5b6001600160a01b038116811461063257600080fd5b801515811461063257600080fdfea264697066735822122068897d3d3e1f290da8cb40fd5e00801f955ebe989d7c8c416332f5679052ef5964736f6c63430008000033",
  "immutableReferences": {
    "1656": [
      {
        "length": 32,
        "start": 671
      },
      {
        "length": 32,
        "start": 4762
      }
    ],
    "1910": [
      {
        "length": 32,
        "start": 1322
      },
      {
        "length": 32,
        "start": 1467
      },
      {
        "length": 32,
        "start": 2133
      },
      {
        "length": 32,
        "start": 2397
      }
    ]
  },
  "source": "// SPDX-License-Identifier: MIT\n\npragma solidity ^0.8.0;\npragma experimental ABIEncoderV2;\n\nimport \"./base/BaseWeightedController.sol\";\nimport \"./lib/SupportLib.sol\";\n\ncontract WeightedBondingCurveController is BaseWeightedController {\n\n    /**\n     * @notice Constructor for the controller implementation class\n     *\n     * @param vaultAddress - Vault contract address\n     * @param supportedWeightedPoolNoAMFactory - Weighted pool contract address\n     */\n    constructor(\n        address vaultAddress,\n        address supportedWeightedPoolNoAMFactory\n    ) BaseWeightedController(vaultAddress, supportedWeightedPoolNoAMFactory) {}\n\n    /**\n     * @notice Runs a check and transfers reserve tokens as needed\n     * @dev To avoid too many fees, this should be run at wide intervals such as daily\n     *\n     * @param poolAddress - Address of pool being worked on.\n     */\n    function runCheck(address poolAddress) public restricted nonReentrant {\n        PoolAdjustments memory poolAdjustments = calculateBalancing(poolAddress);\n        \n        IWeightedPool weightedPool = IWeightedPool(poolAddress);\n        bytes32 poolId = weightedPool.getPoolId();\n\n        // If there's tokens to add then call joinPool\n        if (poolAdjustments.newJoinRequest.maxAmountsIn.length > 0)\n        {\n            vault.joinPool(\n                poolId,\n                address(this),\n                payable(poolAddress),\n                poolAdjustments.newJoinRequest\n            );\n        }\n\n        if (poolAdjustments.newExitRequest.minAmountsOut.length > 0)\n        {\n            vault.exitPool(\n                poolId,\n                address(this),\n                payable(poolAddress),\n                poolAdjustments.newExitRequest\n            );\n        }\n    }\n}\n",
  "sourcePath": "/home/eagle/Source/BalancerController/Balancer.Controller/contracts/WeightedBondingCurveController.sol",
  "compiler": {
    "name": "solc",
    "version": "0.8.0+commit.c7dfd78e.Emscripten.clang"
  },
  "schemaVersion": "3.4.13",
  "updatedAt": "2023-09-21T23:20:24.754Z",
  "networkType": "ethereum",
  "devdoc": {
    "kind": "dev",
    "methods": {
      "calculateBalancing(address)": {
        "params": {
          "poolAddress": "- Address of pool being worked on."
        }
      },
      "constructor": {
        "params": {
          "supportedWeightedPoolNoAMFactory": "- Weighted pool contract address",
          "vaultAddress": "- Vault contract address"
        }
      },
      "createPool(string,string,address[],uint256[],address[],uint256,bool,bool,uint256,uint256,uint256,bytes32)": {
        "params": {
          "assetManagers": "- Asset manager for the pool",
          "aumFeeId": "- Aum Fee Id",
          "isMustAllowlistLPs": "- List of LP's allowed in the pool",
          "isSwapEnabledOnStart": "- Whether swaps are enabled straight away",
          "managementAumFeePercentage": "- Management Aum fee to apply",
          "name": "- Pool name",
          "normalizedWeights": "- Normalized weights in the pool",
          "salt": "- Salt used towards calculating pool address",
          "swapFeePercentage": "- Fee applied to swaps",
          "symbol": "- Symbol representing the pool",
          "tokens": "- Tokens in the pool",
          "tolerance": "- Percentage devience "
        }
      },
      "depositTokens(uint256,address)": {
        "details": "Transfers an amount of an ERC20 token",
        "params": {
          "amount": "- Amount to deposit.",
          "tokenAddress": "- Address of token to be deposited."
        }
      },
      "getPoolId(address)": {
        "params": {
          "poolAddress": "- Pool to get the Id for"
        }
      },
      "getTokenPrice(address)": {
        "params": {
          "value": "- Address to find"
        }
      },
      "runCheck(address)": {
        "details": "To avoid too many fees, this should be run at wide intervals such as daily",
        "params": {
          "poolAddress": "- Address of pool being worked on."
        }
      },
      "transferManagement(address)": {
        "details": "Only one manager can presently be set",
        "params": {
          "supportedManager": "- New manager."
        }
      },
      "withdrawFunds(address,address,uint256)": {
        "details": "Transfers an amount of an ERC20 token",
        "params": {
          "amount": "- Amount to withdraw.",
          "recipientAddress": "- Address of wallet receiving funds.",
          "tokenAddress": "- Address of token to be withdrawn."
        }
      }
    },
    "version": 1
  },
  "userdoc": {
    "kind": "user",
    "methods": {
      "calculateBalancing(address)": {
        "notice": "Calculates a number of tokens to add or remove to rebalance pricing"
      },
      "constructor": {
        "notice": "Constructor for the controller implementation class"
      },
      "createPool(string,string,address[],uint256[],address[],uint256,bool,bool,uint256,uint256,uint256,bytes32)": {
        "notice": "Create a new weighted pool"
      },
      "depositTokens(uint256,address)": {
        "notice": "Deposit tokens to controller"
      },
      "getPoolId(address)": {
        "notice": "Returns the pools Id"
      },
      "getPoolsUnderManagement()": {
        "notice": "returns a list of pools under management by this controller"
      },
      "getTokenPrice(address)": {
        "notice": "returns the oracle supplied price for the requested token"
      },
      "runCheck(address)": {
        "notice": "Runs a check and transfers reserve tokens as needed"
      },
      "transferManagement(address)": {
        "notice": "Transfer the manager to a new address"
      },
      "withdrawFunds(address,address,uint256)": {
        "notice": "Withdraw tokens from controller"
      }
    },
    "version": 1
  }
}