{
  "contractName": "WeightedReserveController",
  "abi": [
    {
      "inputs": [
        {
          "internalType": "address",
          "name": "vaultAddress",
          "type": "address"
        },
        {
          "internalType": "address",
          "name": "supportedWeightedPoolNoAMFactory",
          "type": "address"
        }
      ],
      "stateMutability": "nonpayable",
      "type": "constructor"
    },
    {
      "anonymous": false,
      "inputs": [
        {
          "indexed": true,
          "internalType": "address",
          "name": "buyer",
          "type": "address"
        },
        {
          "indexed": true,
          "internalType": "address",
          "name": "tokenIn",
          "type": "address"
        },
        {
          "indexed": false,
          "internalType": "uint256",
          "name": "amountIn",
          "type": "uint256"
        },
        {
          "indexed": false,
          "internalType": "uint256",
          "name": "reserveTokenOut",
          "type": "uint256"
        }
      ],
      "name": "BoughtReserveToken",
      "type": "event"
    },
    {
      "anonymous": false,
      "inputs": [
        {
          "indexed": false,
          "internalType": "address",
          "name": "account",
          "type": "address"
        }
      ],
      "name": "Paused",
      "type": "event"
    },
    {
      "anonymous": false,
      "inputs": [
        {
          "indexed": true,
          "internalType": "address",
          "name": "seller",
          "type": "address"
        },
        {
          "indexed": true,
          "internalType": "address",
          "name": "pool",
          "type": "address"
        },
        {
          "indexed": false,
          "internalType": "uint256",
          "name": "amountIn",
          "type": "uint256"
        },
        {
          "indexed": false,
          "internalType": "uint256",
          "name": "bptOut",
          "type": "uint256"
        }
      ],
      "name": "SoldReserveToken",
      "type": "event"
    },
    {
      "anonymous": false,
      "inputs": [
        {
          "indexed": false,
          "internalType": "address",
          "name": "account",
          "type": "address"
        }
      ],
      "name": "Unpaused",
      "type": "event"
    },
    {
      "inputs": [
        {
          "internalType": "address",
          "name": "manager",
          "type": "address"
        }
      ],
      "name": "addManager",
      "outputs": [],
      "stateMutability": "nonpayable",
      "type": "function"
    },
    {
      "inputs": [
        {
          "internalType": "address",
          "name": "poolAddress",
          "type": "address"
        }
      ],
      "name": "calculateBalancing",
      "outputs": [
        {
          "components": [
            {
              "components": [
                {
                  "internalType": "contract IAsset[]",
                  "name": "assets",
                  "type": "address[]"
                },
                {
                  "internalType": "uint256[]",
                  "name": "minAmountsOut",
                  "type": "uint256[]"
                },
                {
                  "internalType": "bytes",
                  "name": "userData",
                  "type": "bytes"
                },
                {
                  "internalType": "bool",
                  "name": "toInternalBalance",
                  "type": "bool"
                }
              ],
              "internalType": "struct IVault.ExitPoolRequest",
              "name": "newExitRequest",
              "type": "tuple"
            },
            {
              "components": [
                {
                  "internalType": "contract IAsset[]",
                  "name": "assets",
                  "type": "address[]"
                },
                {
                  "internalType": "uint256[]",
                  "name": "maxAmountsIn",
                  "type": "uint256[]"
                },
                {
                  "internalType": "bytes",
                  "name": "userData",
                  "type": "bytes"
                },
                {
                  "internalType": "bool",
                  "name": "fromInternalBalance",
                  "type": "bool"
                }
              ],
              "internalType": "struct IVault.JoinPoolRequest",
              "name": "newJoinRequest",
              "type": "tuple"
            },
            {
              "internalType": "uint256",
              "name": "poolTolerance",
              "type": "uint256"
            }
          ],
          "internalType": "struct PoolAdjustments",
          "name": "",
          "type": "tuple"
        }
      ],
      "stateMutability": "nonpayable",
      "type": "function"
    },
    {
      "inputs": [
        {
          "internalType": "address",
          "name": "poolAddress",
          "type": "address"
        }
      ],
      "name": "calculateBalancingValues",
      "outputs": [
        {
          "components": [
            {
              "internalType": "uint256[]",
              "name": "referenceNormalizedWeights",
              "type": "uint256[]"
            },
            {
              "internalType": "int256[]",
              "name": "priceDeltas",
              "type": "int256[]"
            },
            {
              "internalType": "uint256[]",
              "name": "oraclePrices",
              "type": "uint256[]"
            },
            {
              "internalType": "uint256[]",
              "name": "oracleReferencePrices",
              "type": "uint256[]"
            },
            {
              "internalType": "uint256[]",
              "name": "tokenBalancesToAdd",
              "type": "uint256[]"
            },
            {
              "internalType": "uint256[]",
              "name": "tokenBalancesToRemove",
              "type": "uint256[]"
            },
            {
              "internalType": "uint256[]",
              "name": "poolTokenPrices",
              "type": "uint256[]"
            }
          ],
          "internalType": "struct PoolAdjustmentValues",
          "name": "",
          "type": "tuple"
        }
      ],
      "stateMutability": "nonpayable",
      "type": "function"
    },
    {
      "inputs": [
        {
          "internalType": "address",
          "name": "tokenAddress",
          "type": "address"
        }
      ],
      "name": "getTokenPrice",
      "outputs": [
        {
          "internalType": "int256",
          "name": "",
          "type": "int256"
        }
      ],
      "stateMutability": "view",
      "type": "function"
    },
    {
      "inputs": [
        {
          "internalType": "address",
          "name": "",
          "type": "address"
        }
      ],
      "name": "isManager",
      "outputs": [
        {
          "internalType": "bool",
          "name": "",
          "type": "bool"
        }
      ],
      "stateMutability": "view",
      "type": "function"
    },
    {
      "inputs": [],
      "name": "pause",
      "outputs": [],
      "stateMutability": "nonpayable",
      "type": "function"
    },
    {
      "inputs": [],
      "name": "paused",
      "outputs": [
        {
          "internalType": "bool",
          "name": "",
          "type": "bool"
        }
      ],
      "stateMutability": "view",
      "type": "function"
    },
    {
      "inputs": [
        {
          "internalType": "address",
          "name": "manager",
          "type": "address"
        }
      ],
      "name": "removeManager",
      "outputs": [],
      "stateMutability": "nonpayable",
      "type": "function"
    },
    {
      "inputs": [
        {
          "internalType": "address",
          "name": "poolAddress",
          "type": "address"
        }
      ],
      "name": "setReferencePool",
      "outputs": [],
      "stateMutability": "nonpayable",
      "type": "function"
    },
    {
      "inputs": [
        {
          "internalType": "address",
          "name": "stableToken",
          "type": "address"
        }
      ],
      "name": "setStableToken",
      "outputs": [],
      "stateMutability": "nonpayable",
      "type": "function"
    },
    {
      "inputs": [
        {
          "internalType": "address",
          "name": "token",
          "type": "address"
        },
        {
          "internalType": "address",
          "name": "feed",
          "type": "address"
        }
      ],
      "name": "setTokenFeed",
      "outputs": [],
      "stateMutability": "nonpayable",
      "type": "function"
    },
    {
      "inputs": [
        {
          "internalType": "address",
          "name": "",
          "type": "address"
        }
      ],
      "name": "tokenFeeds",
      "outputs": [
        {
          "internalType": "address",
          "name": "",
          "type": "address"
        }
      ],
      "stateMutability": "view",
      "type": "function"
    },
    {
      "inputs": [],
      "name": "unpause",
      "outputs": [],
      "stateMutability": "nonpayable",
      "type": "function"
    },
    {
      "inputs": [
        {
          "internalType": "address",
          "name": "",
          "type": "address"
        }
      ],
      "name": "weightedPools",
      "outputs": [
        {
          "internalType": "string",
          "name": "poolName",
          "type": "string"
        },
        {
          "internalType": "string",
          "name": "poolSymbol",
          "type": "string"
        },
        {
          "internalType": "uint256",
          "name": "tolerance",
          "type": "uint256"
        }
      ],
      "stateMutability": "view",
      "type": "function"
    },
    {
      "inputs": [],
      "name": "getRegisteredPools",
      "outputs": [
        {
          "internalType": "address[]",
          "name": "",
          "type": "address[]"
        }
      ],
      "stateMutability": "view",
      "type": "function"
    },
    {
      "inputs": [
        {
          "internalType": "address",
          "name": "weightedPool",
          "type": "address"
        }
      ],
      "name": "registerWeightedPool",
      "outputs": [],
      "stateMutability": "nonpayable",
      "type": "function"
    },
    {
      "inputs": [
        {
          "internalType": "address",
          "name": "weightedPool",
          "type": "address"
        }
      ],
      "name": "deRegisterWeightedPool",
      "outputs": [],
      "stateMutability": "nonpayable",
      "type": "function"
    },
    {
      "inputs": [
        {
          "internalType": "address",
          "name": "tokenIn",
          "type": "address"
        },
        {
          "internalType": "uint256",
          "name": "amountIn",
          "type": "uint256"
        },
        {
          "internalType": "address",
          "name": "recipient",
          "type": "address"
        }
      ],
      "name": "buyReserveToken",
      "outputs": [],
      "stateMutability": "nonpayable",
      "type": "function"
    },
    {
      "inputs": [
        {
          "internalType": "address",
          "name": "pool",
          "type": "address"
        },
        {
          "internalType": "uint256",
          "name": "amountIn",
          "type": "uint256"
        },
        {
          "internalType": "address",
          "name": "recipient",
          "type": "address"
        }
      ],
      "name": "sellReserveToken",
      "outputs": [],
      "stateMutability": "nonpayable",
      "type": "function"
    }
  ],
  "bytecode": "0x60c0604052600780546001600160a01b0319908116735772a773b3779b373bf11d1070f39569f50d37d3179091556008805490911673ef4229c8c3250c675f21bcefa42f58efbff6002a1790553480156200005957600080fd5b5060405162003a9138038062003a918339810160408190526200007c9162000269565b60016000818155815460ff1990811683556001600160601b0319606095861b81166080523383526003602090815260408420805490931690941790915560049092527f4f03f9165518d56b1edfdd10086a224460eb561524700361535e7e33be96dcdb80546001600160a01b031990811673128fe88eaa22bffb868bb3a584a54c96ee24014b179091557f7c0f9c8dca1139a9f62829fbc69c87f447f6c9d58f7b4cca1418da9c87a8886180548216730568fd19986748ceff3301e55c0eb1e729e0ab7e1790557f5bb005e3c44990943f9b77709d1ca1ed9bc660cfbf374a504a6d191a3edaa5c380548216731fcd30a73d67639c1cd89ff5746e7585731c083b1790557f47691a5a6d629e9672ee2df080468d466c301da2a465fe573fd65a3c84d15c8a80548216733d207061dbe8e2473527611bfecb87ff12b28dda1790557fdeddb9e6b2d07a6e07e891c0bf84c802545673dccadf7dfa9df5ab9b45c998c88054821673c7a353bae210aed958a1a2928b654938ec59dab290811790915573765de816845861e75a25fca122bb6898b8b1282a9092527f111782fcfedc149ae0e36a4b3c73c65d2ec6beb9ec22baa78847f872ce963ec880549091169091179055911b1660a052620002a0565b80516001600160a01b03811681146200026457600080fd5b919050565b600080604083850312156200027c578182fd5b62000287836200024c565b915062000297602084016200024c565b90509250929050565b60805160601c60a05160601c6137ac620002e560003960005050600081816107af0152818161085701528181611804015281816118ac0152612a0301526137ac6000f3fe608060405234801561001057600080fd5b50600436106101215760003560e01c80638456cb59116100ad578063d02641a011610071578063d02641a014610243578063d62e368114610263578063d87ac65f14610285578063db1bc87b146102a5578063f3ae2415146102b857610121565b80638456cb59146101ef57806387ef019a146101f757806395994ef71461020a578063ac18de431461021d578063c0e3fccb1461023057610121565b806347958851116100f4578063479588511461017f5780634fed9acd1461019257806358a67da3146101b25780635c975abb146101c5578063659d4f5c146101da57610121565b80631b439d69146101265780632d06177a1461013b5780633f4ba83a1461014e57806342862f2a14610156575b600080fd5b610139610134366004612ee9565b6102cb565b005b610139610149366004612e95565b610577565b610139610629565b610169610164366004612e95565b610662565b60405161017691906134d4565b60405180910390f35b61013961018d366004612ee9565b61142f565b6101a56101a0366004612e95565b6116b7565b60405161017691906135aa565b6101396101c0366004612e95565b612378565b6101cd61240e565b6040516101769190613275565b6101e2612417565b6040516101769190613228565b610139612479565b610139610205366004612eb1565b6124b0565b610139610218366004612e95565b61250d565b61013961022b366004612e95565b61255e565b61013961023e366004612e95565b6125e6565b610256610251366004612e95565b61263f565b6040516101769190613280565b610276610271366004612e95565b6126ff565b60405161017693929190613289565b610298610293366004612e95565b612831565b60405161017691906131d7565b6101396102b3366004612e95565b61284c565b6101cd6102c6366004612e95565b61289d565b6102d36128b2565b6001600160a01b0383166000908152600a6020526040902054839060ff166103165760405162461bcd60e51b815260040161030d90613439565b60405180910390fd5b60008490506000816001600160a01b03166318160ddd6040518163ffffffff1660e01b815260040160206040518083038186803b15801561035657600080fd5b505afa15801561036a573d6000803e3d6000fd5b505050506040513d601f19601f8201168201806040525081019061038e919061304f565b9050600081116103b05760405162461bcd60e51b815260040161030d906133cb565b60006103ce826103c888670de0b6b3a76400006128dc565b906128ef565b905060006103e8670de0b6b3a76400006103c884866128dc565b6040516323b872dd60e01b8152909150737d9d314ee8183653f800e551030d0b27663a15579081906323b872dd9061042890339030908d906004016131eb565b602060405180830381600087803b15801561044257600080fd5b505af1158015610456573d6000803e3d6000fd5b505050506040513d601f19601f8201168201806040525081019061047a919061302f565b6104965760405162461bcd60e51b815260040161030d90613394565b60405163a9059cbb60e01b81526001600160a01b0386169063a9059cbb906104c4908a90869060040161320f565b602060405180830381600087803b1580156104de57600080fd5b505af11580156104f2573d6000803e3d6000fd5b505050506040513d601f19601f82011682018060405250810190610516919061302f565b50886001600160a01b0316336001600160a01b03167ff491fcefb4023b6cb463c4cc77af1ae0708ff8398b275985f0c6fc6cdd10212b8a8560405161055c9291906135fa565b60405180910390a35050505050506105726128fb565b505050565b3360009081526003602052604090205460ff166105a65760405162461bcd60e51b815260040161030d90613340565b6001600160a01b0381166105cc5760405162461bcd60e51b815260040161030d906132ed565b6001600160a01b03811660009081526003602052604090205460ff16156106055760405162461bcd60e51b815260040161030d90613402565b6001600160a01b03166000908152600360205260409020805460ff19166001179055565b3360009081526003602052604090205460ff166106585760405162461bcd60e51b815260040161030d90613340565b610660612902565b565b61066a612d7b565b3360009081526003602052604090205460ff166106995760405162461bcd60e51b815260040161030d90613340565b6106a1612954565b60008290506000816001600160a01b03166338fff2d06040518163ffffffff1660e01b815260040160206040518083038186803b1580156106e157600080fd5b505afa1580156106f5573d6000803e3d6000fd5b505050506040513d601f19601f82011682018060405250810190610719919061304f565b90506000600760009054906101000a90046001600160a01b031690506000816001600160a01b03166338fff2d06040518163ffffffff1660e01b815260040160206040518083038186803b15801561077057600080fd5b505afa158015610784573d6000803e3d6000fd5b505050506040513d601f19601f820116820180604052508101906107a8919061304f565b90506000807f00000000000000000000000000000000000000000000000000000000000000006001600160a01b031663f94d4668866040518263ffffffff1660e01b81526004016107f99190613280565b60006040518083038186803b15801561081157600080fd5b505afa158015610825573d6000803e3d6000fd5b505050506040513d6000823e601f3d908101601f1916820160405261084d9190810190612f2a565b50915091506000807f00000000000000000000000000000000000000000000000000000000000000006001600160a01b031663f94d4668866040518263ffffffff1660e01b81526004016108a19190613280565b60006040518083038186803b1580156108b957600080fd5b505afa1580156108cd573d6000803e3d6000fd5b505050506040513d6000823e601f3d908101601f191682016040526108f59190810190612f2a565b5091509150610902612d7b565b866001600160a01b031663f89f27ed6040518163ffffffff1660e01b815260040160006040518083038186803b15801561093b57600080fd5b505afa15801561094f573d6000803e3d6000fd5b505050506040513d6000823e601f3d908101601f191682016040526109779190810190612ff5565b815284516001600160401b038111156109a057634e487b7160e01b600052604160045260246000fd5b6040519080825280602002602001820160405280156109c9578160200160208202803683370190505b50604082015282516001600160401b038111156109f657634e487b7160e01b600052604160045260246000fd5b604051908082528060200260200182016040528015610a1f578160200160208202803683370190505b50606082015284516001600160401b03811115610a4c57634e487b7160e01b600052604160045260246000fd5b604051908082528060200260200182016040528015610a75578160200160208202803683370190505b50602082015282516001600160401b03811115610aa257634e487b7160e01b600052604160045260246000fd5b604051908082528060200260200182016040528015610acb578160200160208202803683370190505b5060c082015260005b8551811015610b4e57610b0d868281518110610b0057634e487b7160e01b600052603260045260246000fd5b602002602001015161263f565b82604001518281518110610b3157634e487b7160e01b600052603260045260246000fd5b602090810291909101015280610b46816136fd565b915050610ad4565b5060005b8351811015610bbf57610b7e848281518110610b0057634e487b7160e01b600052603260045260246000fd5b82606001518281518110610ba257634e487b7160e01b600052603260045260246000fd5b602090810291909101015280610bb7816136fd565b915050610b52565b5060005b8351811015610fae5760085484516001600160a01b0390911690859083908110610bfd57634e487b7160e01b600052603260045260246000fd5b60200260200101516001600160a01b031614610e7b57825160019081908190600090879086908110610c3f57634e487b7160e01b600052603260045260246000fd5b60200260200101511115610d2657610cb285600001518581518110610c7457634e487b7160e01b600052603260045260246000fd5b6020026020010151878681518110610c9c57634e487b7160e01b600052603260045260246000fd5b60200260200101516128dc90919063ffffffff16565b9150610d178560000151600281518110610cdc57634e487b7160e01b600052603260045260246000fd5b6020026020010151610d11670de0b6b3a764000089600281518110610c9c57634e487b7160e01b600052603260045260246000fd5b906128dc565b9050610d2381836128ef565b92505b73baab46e28388d2779e6e31fd00cf0e5ad95e327b6001600160a01b0316878581518110610d6457634e487b7160e01b600052603260045260246000fd5b60200260200101516001600160a01b031614610d9057610d896402540be4008461366c565b9250610da6565b610da368056bc75e2d631000008461366c565b92505b8260056000898781518110610dcb57634e487b7160e01b600052603260045260246000fd5b60200260200101516001600160a01b03166001600160a01b031681526020019081526020016000208190555084606001518481518110610e1b57634e487b7160e01b600052603260045260246000fd5b602002602001015160066000898781518110610e4757634e487b7160e01b600052603260045260246000fd5b60200260200101516001600160a01b03166001600160a01b0316815260200190815260200160002081905550505050610f20565b600160056000868481518110610ea157634e487b7160e01b600052603260045260246000fd5b60200260200101516001600160a01b03166001600160a01b0316815260200190815260200160002081905550600160066000868481518110610ef357634e487b7160e01b600052603260045260246000fd5b60200260200101516001600160a01b03166001600160a01b03168152602001908152602001600020819055505b60056000858381518110610f4457634e487b7160e01b600052603260045260246000fd5b60200260200101516001600160a01b03166001600160a01b03168152602001908152602001600020548260c001518281518110610f9157634e487b7160e01b600052603260045260246000fd5b602090810291909101015280610fa6816136fd565b915050610bc3565b5060015b855181101561115e5760056000878381518110610fdf57634e487b7160e01b600052603260045260246000fd5b60200260200101516001600160a01b03166001600160a01b03168152602001908152602001600020548260400151828151811061102c57634e487b7160e01b600052603260045260246000fd5b602002602001015110611119576110e46005600088848151811061106057634e487b7160e01b600052603260045260246000fd5b60200260200101516001600160a01b03166001600160a01b0316815260200190815260200160002054600660008985815181106110ad57634e487b7160e01b600052603260045260246000fd5b60200260200101516001600160a01b03166001600160a01b031681526020019081526020016000205461297990919063ffffffff16565b8260200151828151811061110857634e487b7160e01b600052603260045260246000fd5b60200260200101818152505061114c565b60008260200151828151811061113f57634e487b7160e01b600052603260045260246000fd5b6020026020010181815250505b80611156816136fd565b915050610fb2565b5084516001600160401b0381111561118657634e487b7160e01b600052604160045260246000fd5b6040519080825280602002602001820160405280156111af578160200160208202803683370190505b50608082015284516001600160401b038111156111dc57634e487b7160e01b600052604160045260246000fd5b604051908082528060200260200182016040528015611205578160200160208202803683370190505b5060a0820152611213612db8565b6001600160a01b038c166000908152600260208190526040808320909101549083015280805b88518110156113915783604001518560200151828151811061126b57634e487b7160e01b600052603260045260246000fd5b6020026020010151126112de576112a560646103c886604001518b8581518110610c9c57634e487b7160e01b600052603260045260246000fd5b8560a0015182815181106112c957634e487b7160e01b600052603260045260246000fd5b6020026020010181815250506001915061137f565b83604001516112ec90613718565b8560200151828151811061131057634e487b7160e01b600052603260045260246000fd5b60200260200101511361137f5761134a60646103c886604001518b8581518110610c9c57634e487b7160e01b600052603260045260246000fd5b8560800151828151811061136e57634e487b7160e01b600052603260045260246000fd5b602002602001018181525050600192505b80611389816136fd565b915050611239565b50600061139d89612985565b905081156113dc576040805160808101825282815260a08701516020808301919091528251908101835260008152918101919091526001606082015284525b821561141a57604080516080808201835283825287015160208083019190915282518082018452600081529282019290925260016060820152908501525b50929b5050505050505050505050505b919050565b6114376128b2565b6001600160a01b0383166000908152600a6020526040902054839060ff166114715760405162461bcd60e51b815260040161030d90613439565b600084905060008590506000816001600160a01b03166318160ddd6040518163ffffffff1660e01b815260040160206040518083038186803b1580156114b657600080fd5b505afa1580156114ca573d6000803e3d6000fd5b505050506040513d601f19601f820116820180604052508101906114ee919061304f565b9050600081116115105760405162461bcd60e51b815260040161030d906133cb565b6000611528826103c889670de0b6b3a76400006128dc565b9050600061153585612988565b9050600061154f670de0b6b3a76400006103c885856128dc565b6040516323b872dd60e01b81529091506001600160a01b038616906323b872dd9061158290339030908e906004016131eb565b602060405180830381600087803b15801561159c57600080fd5b505af11580156115b0573d6000803e3d6000fd5b505050506040513d601f19601f820116820180604052508101906115d4919061302f565b6115f05760405162461bcd60e51b815260040161030d90613394565b6040516340c10f1960e01b8152737d9d314ee8183653f800e551030d0b27663a1557906340c10f1990611629908b90859060040161320f565b600060405180830381600087803b15801561164357600080fd5b505af1158015611657573d6000803e3d6000fd5b50505050896001600160a01b0316336001600160a01b03167f38dc357237572032f449d87124548f6e841fb06afa2174884d80d85a06fd3b048b846040516116a09291906135fa565b60405180910390a3505050505050506105726128fb565b6116bf612db8565b3360009081526003602052604090205460ff166116ee5760405162461bcd60e51b815260040161030d90613340565b6116f6612954565b60008290506000816001600160a01b03166338fff2d06040518163ffffffff1660e01b815260040160206040518083038186803b15801561173657600080fd5b505afa15801561174a573d6000803e3d6000fd5b505050506040513d601f19601f8201168201806040525081019061176e919061304f565b90506000600760009054906101000a90046001600160a01b031690506000816001600160a01b03166338fff2d06040518163ffffffff1660e01b815260040160206040518083038186803b1580156117c557600080fd5b505afa1580156117d9573d6000803e3d6000fd5b505050506040513d601f19601f820116820180604052508101906117fd919061304f565b90506000807f00000000000000000000000000000000000000000000000000000000000000006001600160a01b031663f94d4668866040518263ffffffff1660e01b815260040161184e9190613280565b60006040518083038186803b15801561186657600080fd5b505afa15801561187a573d6000803e3d6000fd5b505050506040513d6000823e601f3d908101601f191682016040526118a29190810190612f2a565b50915091506000807f00000000000000000000000000000000000000000000000000000000000000006001600160a01b031663f94d4668866040518263ffffffff1660e01b81526004016118f69190613280565b60006040518083038186803b15801561190e57600080fd5b505afa158015611922573d6000803e3d6000fd5b505050506040513d6000823e601f3d908101601f1916820160405261194a9190810190612f2a565b5091509150611957612d7b565b866001600160a01b031663f89f27ed6040518163ffffffff1660e01b815260040160006040518083038186803b15801561199057600080fd5b505afa1580156119a4573d6000803e3d6000fd5b505050506040513d6000823e601f3d908101601f191682016040526119cc9190810190612ff5565b815284516001600160401b038111156119f557634e487b7160e01b600052604160045260246000fd5b604051908082528060200260200182016040528015611a1e578160200160208202803683370190505b50604082015282516001600160401b03811115611a4b57634e487b7160e01b600052604160045260246000fd5b604051908082528060200260200182016040528015611a74578160200160208202803683370190505b50606082015284516001600160401b03811115611aa157634e487b7160e01b600052604160045260246000fd5b604051908082528060200260200182016040528015611aca578160200160208202803683370190505b50602082015282516001600160401b03811115611af757634e487b7160e01b600052604160045260246000fd5b604051908082528060200260200182016040528015611b20578160200160208202803683370190505b5060c082015260005b8551811015611b9657611b55868281518110610b0057634e487b7160e01b600052603260045260246000fd5b82604001518281518110611b7957634e487b7160e01b600052603260045260246000fd5b602090810291909101015280611b8e816136fd565b915050611b29565b5060005b8351811015611c0757611bc6848281518110610b0057634e487b7160e01b600052603260045260246000fd5b82606001518281518110611bea57634e487b7160e01b600052603260045260246000fd5b602090810291909101015280611bff816136fd565b915050611b9a565b5060005b8351811015611f7d5760085484516001600160a01b0390911690859083908110611c4557634e487b7160e01b600052603260045260246000fd5b60200260200101516001600160a01b031614611e4a57825160019081908190600090879086908110611c8757634e487b7160e01b600052603260045260246000fd5b60200260200101511115611cf557611cbc85600001518581518110610c7457634e487b7160e01b600052603260045260246000fd5b9150611ce68560000151600281518110610cdc57634e487b7160e01b600052603260045260246000fd5b9050611cf281836128ef565b92505b73baab46e28388d2779e6e31fd00cf0e5ad95e327b6001600160a01b0316878581518110611d3357634e487b7160e01b600052603260045260246000fd5b60200260200101516001600160a01b031614611d5f57611d586402540be4008461366c565b9250611d75565b611d7268056bc75e2d631000008461366c565b92505b8260056000898781518110611d9a57634e487b7160e01b600052603260045260246000fd5b60200260200101516001600160a01b03166001600160a01b031681526020019081526020016000208190555084606001518481518110611dea57634e487b7160e01b600052603260045260246000fd5b602002602001015160066000898781518110611e1657634e487b7160e01b600052603260045260246000fd5b60200260200101516001600160a01b03166001600160a01b0316815260200190815260200160002081905550505050611eef565b600160056000868481518110611e7057634e487b7160e01b600052603260045260246000fd5b60200260200101516001600160a01b03166001600160a01b0316815260200190815260200160002081905550600160066000868481518110611ec257634e487b7160e01b600052603260045260246000fd5b60200260200101516001600160a01b03166001600160a01b03168152602001908152602001600020819055505b60056000858381518110611f1357634e487b7160e01b600052603260045260246000fd5b60200260200101516001600160a01b03166001600160a01b03168152602001908152602001600020548260c001518281518110611f6057634e487b7160e01b600052603260045260246000fd5b602090810291909101015280611f75816136fd565b915050611c0b565b5060015b85518110156120a95760056000878381518110611fae57634e487b7160e01b600052603260045260246000fd5b60200260200101516001600160a01b03166001600160a01b031681526020019081526020016000205482604001518281518110611ffb57634e487b7160e01b600052603260045260246000fd5b6020026020010151106120645761202f6005600088848151811061106057634e487b7160e01b600052603260045260246000fd5b8260200151828151811061205357634e487b7160e01b600052603260045260246000fd5b602002602001018181525050612097565b60008260200151828151811061208a57634e487b7160e01b600052603260045260246000fd5b6020026020010181815250505b806120a1816136fd565b915050611f81565b5084516001600160401b038111156120d157634e487b7160e01b600052604160045260246000fd5b6040519080825280602002602001820160405280156120fa578160200160208202803683370190505b50608082015284516001600160401b0381111561212757634e487b7160e01b600052604160045260246000fd5b604051908082528060200260200182016040528015612150578160200160208202803683370190505b5060a082015261215e612db8565b6001600160a01b038c166000908152600260208190526040808320909101549083015280805b88518110156122dc578360400151856020015182815181106121b657634e487b7160e01b600052603260045260246000fd5b602002602001015112612229576121f060646103c886604001518b8581518110610c9c57634e487b7160e01b600052603260045260246000fd5b8560a00151828151811061221457634e487b7160e01b600052603260045260246000fd5b602002602001018181525050600191506122ca565b836040015161223790613718565b8560200151828151811061225b57634e487b7160e01b600052603260045260246000fd5b6020026020010151136122ca5761229560646103c886604001518b8581518110610c9c57634e487b7160e01b600052603260045260246000fd5b856080015182815181106122b957634e487b7160e01b600052603260045260246000fd5b602002602001018181525050600192505b806122d4816136fd565b915050612184565b5060006122e889612985565b90508115612327576040805160808101825282815260a08701516020808301919091528251908101835260008152918101919091526001606082015284525b821561236557604080516080808201835283825287015160208083019190915282518082018452600081529282019290925260016060820152908501525b50919d9c50505050505050505050505050565b3360009081526003602052604090205460ff166123a75760405162461bcd60e51b815260040161030d90613340565b6009805460018181019092557f6e1540171b6c0c960b71a7020d9f60077f6af931a8bbf590da0223dacf75c7af0180546001600160a01b039093166001600160a01b0319909316831790556000918252600a6020526040909120805460ff19169091179055565b60015460ff1690565b6060600980548060200260200160405190810160405280929190818152602001828054801561246f57602002820191906000526020600020905b81546001600160a01b03168152600190910190602001808311612451575b5050505050905090565b3360009081526003602052604090205460ff166124a85760405162461bcd60e51b815260040161030d90613340565b610660612b61565b3360009081526003602052604090205460ff166124df5760405162461bcd60e51b815260040161030d90613340565b6001600160a01b03918216600090815260046020526040902080546001600160a01b03191691909216179055565b3360009081526003602052604090205460ff1661253c5760405162461bcd60e51b815260040161030d90613340565b600780546001600160a01b0319166001600160a01b0392909216919091179055565b3360009081526003602052604090205460ff1661258d5760405162461bcd60e51b815260040161030d90613340565b6001600160a01b03811660009081526003602052604090205460ff166125c55760405162461bcd60e51b815260040161030d90613466565b6001600160a01b03166000908152600360205260409020805460ff19169055565b3360009081526003602052604090205460ff166126155760405162461bcd60e51b815260040161030d90613340565b61261e81612b9e565b6001600160a01b03166000908152600a60205260409020805460ff19169055565b6001600160a01b03808216600090815260046020526040812054909116806126795760405162461bcd60e51b815260040161030d90613367565b60008190506000816001600160a01b031663feaf968c6040518163ffffffff1660e01b815260040160a06040518083038186803b1580156126b957600080fd5b505afa1580156126cd573d6000803e3d6000fd5b505050506040513d601f19601f820116820180604052508101906126f19190613067565b509198975050505050505050565b60026020526000908152604090208054819061271a906136c2565b80601f0160208091040260200160405190810160405280929190818152602001828054612746906136c2565b80156127935780601f1061276857610100808354040283529160200191612793565b820191906000526020600020905b81548152906001019060200180831161277657829003601f168201915b5050505050908060010180546127a8906136c2565b80601f01602080910402602001604051908101604052809291908181526020018280546127d4906136c2565b80156128215780601f106127f657610100808354040283529160200191612821565b820191906000526020600020905b81548152906001019060200180831161280457829003601f168201915b5050505050908060020154905083565b6004602052600090815260409020546001600160a01b031681565b3360009081526003602052604090205460ff1661287b5760405162461bcd60e51b815260040161030d90613340565b600880546001600160a01b0319166001600160a01b0392909216919091179055565b60036020526000908152604090205460ff1681565b600260005414156128d55760405162461bcd60e51b815260040161030d9061349d565b6002600055565b60006128e8828461368c565b9392505050565b60006128e8828461366c565b6001600055565b61290a612bd6565b6001805460ff191690557f5db9ee0a495bf2e6ff9c91a7834c1ba4fdd244a5e8aa4e537bd38aeae4b073aa61293d612bfa565b60405161294a91906131d7565b60405180910390a1565b61295c61240e565b156106605760405162461bcd60e51b815260040161030d90613316565b60006128e882846136ab565b90565b600080826001600160a01b03166338fff2d06040518163ffffffff1660e01b815260040160206040518083038186803b1580156129c457600080fd5b505afa1580156129d8573d6000803e3d6000fd5b505050506040513d601f19601f820116820180604052508101906129fc919061304f565b90506000807f00000000000000000000000000000000000000000000000000000000000000006001600160a01b031663f94d4668846040518263ffffffff1660e01b8152600401612a4d9190613280565b60006040518083038186803b158015612a6557600080fd5b505afa158015612a79573d6000803e3d6000fd5b505050506040513d6000823e601f3d908101601f19168201604052612aa19190810190612f2a565b50915091506000805b8351811015612b57576000838281518110612ad557634e487b7160e01b600052603260045260246000fd5b60200260200101511115612b45576000612b08858381518110610b0057634e487b7160e01b600052603260045260246000fd5b9050612b41612b3a6402540be4006103c884888781518110610c9c57634e487b7160e01b600052603260045260246000fd5b8490612bfe565b9250505b80612b4f816136fd565b915050612aaa565b5095945050505050565b612b69612954565b6001805460ff1916811790557f62e78cea01bee320cd4e420270b5ea74000d11b0c9f74754ebdbfc544b05a25861293d612bfa565b6001600160a01b0381166000908152600a60205260408120805460ff19169055612bc782612c0a565b9050612bd281612c81565b5050565b612bde61240e565b6106605760405162461bcd60e51b815260040161030d906132bf565b3390565b60006128e88284613654565b6000805b600954811015612c7757826001600160a01b031660098281548110612c4357634e487b7160e01b600052603260045260246000fd5b6000918252602090912001546001600160a01b03161415612c6557905061142a565b80612c6f816136fd565b915050612c0e565b5050600954919050565b600954612c90906001906136ab565b811015612d37576009612ca4826001613654565b81548110612cc257634e487b7160e01b600052603260045260246000fd5b600091825260209091200154600980546001600160a01b039092169183908110612cfc57634e487b7160e01b600052603260045260246000fd5b600091825260209091200180546001600160a01b0319166001600160a01b039290921691909117905580612d2f816136fd565b915050612c81565b6009805480612d5657634e487b7160e01b600052603160045260246000fd5b600082815260209020810160001990810180546001600160a01b031916905501905550565b6040518060e00160405280606081526020016060815260200160608152602001606081526020016060815260200160608152602001606081525090565b6040518060600160405280612dcb612de5565b8152602001612dd8612de5565b8152602001600081525090565b60405180608001604052806060815260200160608152602001606081526020016000151581525090565b600082601f830112612e1f578081fd5b81516020612e34612e2f83613631565b613608565b8281528181019085830183850287018401881015612e50578586fd5b855b85811015612e6e57815184529284019290840190600101612e52565b5090979650505050505050565b805169ffffffffffffffffffff8116811461142a57600080fd5b600060208284031215612ea6578081fd5b81356128e88161375e565b60008060408385031215612ec3578081fd5b8235612ece8161375e565b91506020830135612ede8161375e565b809150509250929050565b600080600060608486031215612efd578081fd5b8335612f088161375e565b9250602084013591506040840135612f1f8161375e565b809150509250925092565b600080600060608486031215612f3e578283fd5b83516001600160401b0380821115612f54578485fd5b818601915086601f830112612f67578485fd5b81516020612f77612e2f83613631565b82815281810190858301838502870184018c1015612f9357898afd5b8996505b84871015612fbe578051612faa8161375e565b835260019690960195918301918301612f97565b5091890151919750909350505080821115612fd7578384fd5b50612fe486828701612e0f565b925050604084015190509250925092565b600060208284031215613006578081fd5b81516001600160401b0381111561301b578182fd5b61302784828501612e0f565b949350505050565b600060208284031215613040578081fd5b815180151581146128e8578182fd5b600060208284031215613060578081fd5b5051919050565b600080600080600060a0868803121561307e578081fd5b61308786612e7b565b94506020860151935060408601519250606086015191506130aa60808701612e7b565b90509295509295909350565b6000815180845260208085019450808401835b838110156130e5578151875295820195908201906001016130c9565b509495945050505050565b15159052565b60008151808452815b8181101561311b576020818501810151868301820152016130ff565b8181111561312c5782602083870101525b50601f01601f19169290920160200192915050565b8051608080845281519084018190526000916020919082019060a0860190845b818110156131865783516001600160a01b031683529284019291840191600101613161565b50508285015191508581038387015261319f81836130b6565b92505050604083015184820360408601526131ba82826130f6565b91505060608301516131cf60608601826130f0565b509392505050565b6001600160a01b0391909116815260200190565b6001600160a01b039384168152919092166020820152604081019190915260600190565b6001600160a01b03929092168252602082015260400190565b6020808252825182820181905260009190848201906040850190845b818110156132695783516001600160a01b031683529284019291840191600101613244565b50909695505050505050565b901515815260200190565b90815260200190565b60006060825261329c60608301866130f6565b82810360208401526132ae81866130f6565b915050826040830152949350505050565b60208082526014908201527314185d5cd8589b194e881b9bdd081c185d5cd95960621b604082015260600190565b6020808252600f908201526e496e76616c6964206164647265737360881b604082015260600190565b60208082526010908201526f14185d5cd8589b194e881c185d5cd95960821b604082015260600190565b6020808252600d908201526c2737ba10309036b0b730b3b2b960991b604082015260600190565b602080825260139082015272151bdad95b881b9bdd081cdd5c1c1bdc9d1959606a1b604082015260600190565b6020808252601f908201527f5472616e73666572206f6620696e70757420746f6b656e73206661696c656400604082015260600190565b60208082526019908201527f496e76616c696420706f6f6c20746f74616c20737570706c7900000000000000604082015260600190565b6020808252601c908201527f4164647265737320697320616c72656164792061206d616e6167657200000000604082015260600190565b602080825260139082015272141bdbdb081b9bdd081c9959da5cdd195c9959606a1b604082015260600190565b60208082526017908201527f416464726573732069736e27742061206d616e61676572000000000000000000604082015260600190565b6020808252601f908201527f5265656e7472616e637947756172643a207265656e7472616e742063616c6c00604082015260600190565b600060208252825160e060208401526134f16101008401826130b6565b90506020840151601f198085840301604086015261350f83836130b6565b9250604086015191508085840301606086015261352c83836130b6565b9250606086015191508085840301608086015261354983836130b6565b925060808601519150808584030160a086015261356683836130b6565b925060a08601519150808584030160c086015261358383836130b6565b925060c08601519150808584030160e0860152506135a182826130b6565b95945050505050565b6000602082528251606060208401526135c66080840182613141565b90506020840151601f198483030160408501526135e38282613141565b915050604084015160608401528091505092915050565b918252602082015260400190565b6040518181016001600160401b038111828210171561362957613629613748565b604052919050565b60006001600160401b0382111561364a5761364a613748565b5060209081020190565b6000821982111561366757613667613732565b500190565b60008261368757634e487b7160e01b81526012600452602481fd5b500490565b60008160001904831182151516156136a6576136a6613732565b500290565b6000828210156136bd576136bd613732565b500390565b6002810460018216806136d657607f821691505b602082108114156136f757634e487b7160e01b600052602260045260246000fd5b50919050565b600060001982141561371157613711613732565b5060010190565b6000600160ff1b82141561372e5761372e613732565b0390565b634e487b7160e01b600052601160045260246000fd5b634e487b7160e01b600052604160045260246000fd5b6001600160a01b038116811461377357600080fd5b5056fea26469706673582212207cc3949e90b40d60998fc0acf8782c35eab515002a902c090a43a04d345069c964736f6c63430008000033",
  "immutableReferences": {
    "4801": [
      {
        "length": 32,
        "start": 1967
      },
      {
        "length": 32,
        "start": 2135
      },
      {
        "length": 32,
        "start": 6148
      },
      {
        "length": 32,
        "start": 6316
      },
      {
        "length": 32,
        "start": 10755
      }
    ]
  },
  "source": "// SPDX-License-Identifier: MIT\n\npragma solidity ^0.8.0;\n\nimport \"./base/BaseWeightedUtils.sol\";\nimport \"./lib/WeightedPool.sol\";\nimport \"@balancer-labs/interfaces/contracts/vault/IVault.sol\";\nimport \"./lib/WeightedPoolNoAMFactory.sol\";\nimport \"./lib/ReserveToken.sol\";\n\ncontract WeightedReserveController is BaseWeightedUtils {\n    using SafeMath for uint256; // Use SafeMath for uint256\n\n    uint256 private constant DECIMALS = 10 ** 18;\n    address private constant RESERVE_TOKEN = 0x7d9d314Ee8183653F800e551030d0b27663A1557;\n\n    struct TradeValues {\n        IWeightedPool collateral;\n        bytes32 poolId;\n        int [] tokenPrices;\n        uint256 [] normalizedWeights;\n        IERC20 [] tokens;\n        uint256 [] balances;\n        IAsset [] assets;\n    }\n\n    address [] private registeredPools;\n    mapping(address => bool) private registeredPoolsMapping;\n    address internal immutable weightedPoolNoAMFactory;\n\n    /**\n     * @notice Constructor for the controller base class\n     *\n     * @param vaultAddress - Vault contract address\n     * @param supportedWeightedPoolNoAMFactory - ManegedPoolFactory address\n     */\n    constructor(address vaultAddress, address supportedWeightedPoolNoAMFactory)\n    BaseWeightedUtils(vaultAddress) {\n        weightedPoolNoAMFactory = supportedWeightedPoolNoAMFactory;\n    }\n\n    /**\n     * @notice returns a list of registered pools\n     *\n     */\n    function getRegisteredPools() public view returns (address [] memory) {\n        return registeredPools;\n    }\n\n    /**\n     * @notice Register weighted pool\n     *\n     * @param weightedPool - Address of pool being worked on.\n     */\n    function registerWeightedPool(\n        address weightedPool\n    ) public onlyManager {\n        registeredPools.push(weightedPool);\n        registeredPoolsMapping[weightedPool] = true;\n    }\n\n    /**\n     * @notice Deregister weighted pool\n     *\n     * @param weightedPool - Address of pool being worked on.\n     */\n    function deRegisterWeightedPool(\n        address weightedPool\n    ) public onlyManager {\n        removeByValue(weightedPool);\n        registeredPoolsMapping[weightedPool] = false;\n    }\n\n    /**\n     * @notice This function is used for pools containing two tokens.\n     * It takes in a collateral token such as BPT, calculates an equal\n     * value amount of the reserve token such as G$ then mints and returns it.\n     *\n     * @param tokenIn - Address of collateral token\n     * @param amountIn - The amount being traded\n     * @param recipient - Address of person to receive the reserve tokens\n     */\n    function buyReserveToken(\n        address tokenIn,\n        uint256 amountIn,\n        address recipient\n    )\n        public \n        nonReentrant \n        checkPoolSupported(tokenIn) \n    {\n        IWeightedPool collateral = IWeightedPool(tokenIn);\n        IERC20 collateralToken = IERC20(tokenIn);\n\n        // Calculate the buyer's share of the pool\n        uint256 totalSupply = collateralToken.totalSupply();\n\n        // Ensure that totalSupply is not zero to prevent division by zero\n        require(totalSupply > 0, \"Invalid pool total supply\");\n        \n        uint256 buyersShare = amountIn.mul(DECIMALS).div(totalSupply);\n\n        // Calculate total value of the pool\n        uint256 totalPoolValue = getPoolValue(collateral);\n\n        // Calculate supplied token value\n        uint256 buyersShareValue = buyersShare.mul(totalPoolValue).div(DECIMALS);\n\n        require(collateralToken.transferFrom(msg.sender, address(this), amountIn), \"Transfer of input tokens failed\");\n\n        // Mint and Transfer the output tokens from this contract to the recipient\n        ReserveToken(RESERVE_TOKEN).mint(recipient, buyersShareValue);\n        \n        emit BoughtReserveToken(msg.sender, tokenIn, amountIn, buyersShareValue);\n    }\n\n    function getPoolValue(IWeightedPool collateral) internal view returns (uint256) {\n        bytes32 poolId = collateral.getPoolId();\n        (IERC20[] memory tokens, uint256[] memory balances, ) = vault.getPoolTokens(poolId);\n        \n        uint256 totalValue = 0;\n        for (uint256 i = 0; i < tokens.length; i++) {\n            if (balances[i] > 0) {\n                int price = getTokenPrice(address(tokens[i]));\n                totalValue = totalValue.add(balances[i].mul(uint256(price)).div(10**10));  // Adjusting for 8 decimals of price\n            }\n        }\n        return totalValue;\n    }\n    \n    /**\n     * @notice Runs a check and transfers reserve tokens as needed\n     * @dev To avoid too many fees, this should be run at wide intervals such as daily\n     *\n     * @param pool - Address of collateral token\n     * @param amountIn - The amount being traded\n     * @param recipient - Address of person to receive the swapped tokens\n     */\n    function sellReserveToken(\n        address pool,\n        uint256 amountIn,\n        address recipient\n    ) \n        public \n        nonReentrant \n        checkPoolSupported(pool) \n    {\n        IERC20 bptToken = IERC20(pool);\n\n        uint256 totalSupply = bptToken.totalSupply();\n\n        // Ensure totalSupply is not zero to prevent division by zero\n        require(totalSupply > 0, \"Invalid pool total supply\");\n\n        // Calculate user's proportionate share in the pool\n        uint256 myShare = amountIn.mul(DECIMALS).div(totalSupply);\n        uint256 myBptAmount = myShare.mul(totalSupply).div(DECIMALS);\n\n        IERC20 reserveToken = IERC20(RESERVE_TOKEN);\n        require(reserveToken.transferFrom(msg.sender, address(this), amountIn), \"Transfer of input tokens failed\");\n\n        // Transfer BPT tokens from this contract to the recipient\n        bptToken.transfer(recipient, myBptAmount);\n        \n        emit SoldReserveToken(msg.sender, pool, amountIn, myBptAmount);\n    }\n\n\n    /**\n     * @notice returns the array index containing supplied address\n     *\n     * @param value - Address to find\n     */\n    function find(address value) private view returns (uint) {\n        for(uint i = 0; i < registeredPools.length; i++) {\n            if(registeredPools[i] == value) {\n                return i; \n            }\n        }\n\n        return registeredPools.length;\n    }\n\n    /**\n     * @notice removes supplied address from array of addresses\n     *\n     * @param value - Address to look up and remove element\n     */\n    function removeByValue(address value) private {\n        registeredPoolsMapping[value] = false;\n        uint i = find(value);\n        removeByIndex(i);\n    }\n\n    /**\n     * @notice remove the item at index, resizing array as needed\n     *\n     * @param i - Index to remove\n     */\n    function removeByIndex(uint i) private {\n        while (i < registeredPools.length - 1) {\n            registeredPools [i] = registeredPools [i + 1];\n            i++;\n        }\n        registeredPools.pop();\n    }\n\n    event BoughtReserveToken(address indexed buyer, address indexed tokenIn, uint256 amountIn, uint256 reserveTokenOut);\n    event SoldReserveToken(address indexed seller, address indexed pool, uint256 amountIn, uint256 bptOut);\n\n    /**\n     * @dev Modifier to check token allowance\n     *\n     * @param supportedWeightedPool - Weighted pool address to remove\n     */\n    modifier checkPoolSupported(address supportedWeightedPool) {\n        require(registeredPoolsMapping[supportedWeightedPool], \"Pool not registered\");\n        _;\n    }\n}\n",
  "sourcePath": "/home/eagle/Source/BalancerController/Balancer.Controller/contracts/WeightedReserveController.sol",
  "compiler": {
    "name": "solc",
    "version": "0.8.0+commit.c7dfd78e.Emscripten.clang"
  },
  "schemaVersion": "3.4.13",
  "updatedAt": "2023-10-23T16:31:10.826Z",
  "devdoc": {
    "kind": "dev",
    "methods": {
      "addManager(address)": {
        "params": {
          "manager": "- Manager to add"
        }
      },
      "buyReserveToken(address,uint256,address)": {
        "params": {
          "amountIn": "- The amount being traded",
          "recipient": "- Address of person to receive the reserve tokens",
          "tokenIn": "- Address of collateral token"
        }
      },
      "calculateBalancing(address)": {
        "params": {
          "poolAddress": "- Address of pool being worked on."
        }
      },
      "constructor": {
        "params": {
          "supportedWeightedPoolNoAMFactory": "- ManegedPoolFactory address",
          "vaultAddress": "- Vault contract address"
        }
      },
      "deRegisterWeightedPool(address)": {
        "params": {
          "weightedPool": "- Address of pool being worked on."
        }
      },
      "getTokenPrice(address)": {
        "params": {
          "tokenAddress": "- Token to find a price for"
        }
      },
      "paused()": {
        "details": "Returns true if the contract is paused, and false otherwise."
      },
      "registerWeightedPool(address)": {
        "params": {
          "weightedPool": "- Address of pool being worked on."
        }
      },
      "removeManager(address)": {
        "params": {
          "manager": "- Manager to remove"
        }
      },
      "sellReserveToken(address,uint256,address)": {
        "details": "To avoid too many fees, this should be run at wide intervals such as daily",
        "params": {
          "amountIn": "- The amount being traded",
          "pool": "- Address of collateral token",
          "recipient": "- Address of person to receive the swapped tokens"
        }
      },
      "setReferencePool(address)": {
        "params": {
          "poolAddress": "- Reference pool address"
        }
      },
      "setStableToken(address)": {
        "params": {
          "stableToken": "- Stable token address"
        }
      },
      "setTokenFeed(address,address)": {
        "params": {
          "feed": "- Oracle feed address",
          "token": "- Token address"
        }
      }
    },
    "version": 1
  },
  "userdoc": {
    "kind": "user",
    "methods": {
      "addManager(address)": {
        "notice": "Add a new manager to the collection of managers"
      },
      "buyReserveToken(address,uint256,address)": {
        "notice": "This function is used for pools containing two tokens. It takes in a collateral token such as BPT, calculates an equal value amount of the reserve token such as G$ then mints and returns it."
      },
      "calculateBalancing(address)": {
        "notice": "Calculates a number of tokens to add or remove to rebalance pricing"
      },
      "constructor": {
        "notice": "Constructor for the controller base class"
      },
      "deRegisterWeightedPool(address)": {
        "notice": "Deregister weighted pool"
      },
      "getRegisteredPools()": {
        "notice": "returns a list of registered pools"
      },
      "getTokenPrice(address)": {
        "notice": "returns the oracle supplied price for the requested token"
      },
      "pause()": {
        "notice": "Pause sensitive functions"
      },
      "registerWeightedPool(address)": {
        "notice": "Register weighted pool"
      },
      "removeManager(address)": {
        "notice": "Remove a manager to the collection of managers"
      },
      "sellReserveToken(address,uint256,address)": {
        "notice": "Runs a check and transfers reserve tokens as needed"
      },
      "setReferencePool(address)": {
        "notice": "Set a new token oracle feed"
      },
      "setStableToken(address)": {
        "notice": "Set a new token oracle feed"
      },
      "setTokenFeed(address,address)": {
        "notice": "Set a new token oracle feed"
      },
      "unpause()": {
        "notice": "Unpause sensitive functions"
      }
    },
    "version": 1
  }
}