{
  "contractName": "WeightedBondingCurveController",
  "abi": [
    {
      "inputs": [
        {
          "internalType": "address",
          "name": "vaultAddress",
          "type": "address"
        },
        {
          "internalType": "address",
          "name": "supportedWeightedPoolNoAMFactory",
          "type": "address"
        }
      ],
      "stateMutability": "nonpayable",
      "type": "constructor"
    },
    {
      "inputs": [
        {
          "internalType": "address",
          "name": "poolAddress",
          "type": "address"
        }
      ],
      "name": "calculateBalancing",
      "outputs": [
        {
          "components": [
            {
              "components": [
                {
                  "internalType": "contract IAsset[]",
                  "name": "assets",
                  "type": "address[]"
                },
                {
                  "internalType": "uint256[]",
                  "name": "minAmountsOut",
                  "type": "uint256[]"
                },
                {
                  "internalType": "bytes",
                  "name": "userData",
                  "type": "bytes"
                },
                {
                  "internalType": "bool",
                  "name": "toInternalBalance",
                  "type": "bool"
                }
              ],
              "internalType": "struct IVault.ExitPoolRequest",
              "name": "newExitRequest",
              "type": "tuple"
            },
            {
              "components": [
                {
                  "internalType": "contract IAsset[]",
                  "name": "assets",
                  "type": "address[]"
                },
                {
                  "internalType": "uint256[]",
                  "name": "maxAmountsIn",
                  "type": "uint256[]"
                },
                {
                  "internalType": "bytes",
                  "name": "userData",
                  "type": "bytes"
                },
                {
                  "internalType": "bool",
                  "name": "fromInternalBalance",
                  "type": "bool"
                }
              ],
              "internalType": "struct IVault.JoinPoolRequest",
              "name": "newJoinRequest",
              "type": "tuple"
            }
          ],
          "internalType": "struct PoolAdjustments",
          "name": "",
          "type": "tuple"
        }
      ],
      "stateMutability": "view",
      "type": "function"
    },
    {
      "inputs": [
        {
          "internalType": "string",
          "name": "name",
          "type": "string"
        },
        {
          "internalType": "string",
          "name": "symbol",
          "type": "string"
        },
        {
          "internalType": "contract IERC20[]",
          "name": "tokens",
          "type": "address[]"
        },
        {
          "internalType": "uint256[]",
          "name": "normalizedWeights",
          "type": "uint256[]"
        },
        {
          "internalType": "address[]",
          "name": "assetManagers",
          "type": "address[]"
        },
        {
          "internalType": "uint256",
          "name": "swapFeePercentage",
          "type": "uint256"
        },
        {
          "internalType": "bool",
          "name": "isSwapEnabledOnStart",
          "type": "bool"
        },
        {
          "internalType": "bool",
          "name": "isMustAllowlistLPs",
          "type": "bool"
        },
        {
          "internalType": "uint256",
          "name": "managementAumFeePercentage",
          "type": "uint256"
        },
        {
          "internalType": "uint256",
          "name": "aumFeeId",
          "type": "uint256"
        },
        {
          "internalType": "uint256",
          "name": "tolerance",
          "type": "uint256"
        },
        {
          "internalType": "bytes32",
          "name": "salt",
          "type": "bytes32"
        }
      ],
      "name": "createPool",
      "outputs": [],
      "stateMutability": "nonpayable",
      "type": "function"
    },
    {
      "inputs": [
        {
          "internalType": "uint256",
          "name": "amount",
          "type": "uint256"
        },
        {
          "internalType": "address",
          "name": "tokenAddress",
          "type": "address"
        }
      ],
      "name": "depositTokens",
      "outputs": [],
      "stateMutability": "nonpayable",
      "type": "function"
    },
    {
      "inputs": [
        {
          "internalType": "address",
          "name": "poolAddress",
          "type": "address"
        }
      ],
      "name": "getPoolId",
      "outputs": [
        {
          "internalType": "bytes32",
          "name": "",
          "type": "bytes32"
        }
      ],
      "stateMutability": "view",
      "type": "function"
    },
    {
      "inputs": [],
      "name": "getPoolsUnderManagement",
      "outputs": [
        {
          "internalType": "address[]",
          "name": "",
          "type": "address[]"
        }
      ],
      "stateMutability": "view",
      "type": "function"
    },
    {
      "inputs": [
        {
          "internalType": "address",
          "name": "value",
          "type": "address"
        }
      ],
      "name": "getTokenPrice",
      "outputs": [
        {
          "internalType": "int256",
          "name": "",
          "type": "int256"
        }
      ],
      "stateMutability": "view",
      "type": "function"
    },
    {
      "inputs": [],
      "name": "manager",
      "outputs": [
        {
          "internalType": "address",
          "name": "",
          "type": "address"
        }
      ],
      "stateMutability": "view",
      "type": "function"
    },
    {
      "inputs": [
        {
          "internalType": "address",
          "name": "supportedManager",
          "type": "address"
        }
      ],
      "name": "transferManagement",
      "outputs": [],
      "stateMutability": "nonpayable",
      "type": "function"
    },
    {
      "inputs": [],
      "name": "weightedPoolFactory",
      "outputs": [
        {
          "internalType": "contract WeightedPoolNoAMFactory",
          "name": "",
          "type": "address"
        }
      ],
      "stateMutability": "view",
      "type": "function"
    },
    {
      "inputs": [
        {
          "internalType": "address",
          "name": "",
          "type": "address"
        }
      ],
      "name": "weightedPools",
      "outputs": [
        {
          "internalType": "string",
          "name": "poolName",
          "type": "string"
        },
        {
          "internalType": "string",
          "name": "poolSymbol",
          "type": "string"
        },
        {
          "internalType": "uint256",
          "name": "tolerance",
          "type": "uint256"
        }
      ],
      "stateMutability": "view",
      "type": "function"
    },
    {
      "inputs": [
        {
          "internalType": "address",
          "name": "recipientAddress",
          "type": "address"
        },
        {
          "internalType": "address",
          "name": "tokenAddress",
          "type": "address"
        },
        {
          "internalType": "uint256",
          "name": "amount",
          "type": "uint256"
        }
      ],
      "name": "withdrawFunds",
      "outputs": [],
      "stateMutability": "nonpayable",
      "type": "function"
    },
    {
      "inputs": [
        {
          "internalType": "address",
          "name": "poolAddress",
          "type": "address"
        }
      ],
      "name": "runCheck",
      "outputs": [],
      "stateMutability": "nonpayable",
      "type": "function"
    }
  ],
  "bytecode": "0x60c06040523480156200001157600080fd5b50604051620024f7380380620024f7833981016040819052620000349162000088565b600160008190556001600160601b0319606093841b811660805281546001600160a01b0319163317909155911b1660a052620000bf565b80516001600160a01b03811681146200008357600080fd5b919050565b600080604083850312156200009b578182fd5b620000a6836200006b565b9150620000b6602084016200006b565b90509250929050565b60805160601c60a05160601c6123f06200010760003960008181610304015261112d0152600081816105b90152818161064a015281816108e401526109ec01526123f06000f3fe608060405234801561001057600080fd5b50600436106100b45760003560e01c80638722081a116100715780638722081a14610145578063ae2d96961461015a578063caa9a08d14610162578063d02641a014610182578063d62e368114610195578063e4edf852146101b7576100b4565b80631c20fadd146100b957806341bfc4bc146100ce578063481c6a75146100e15780634e4858d9146100ff5780634f6300a2146101125780634fed9acd14610125575b600080fd5b6100cc6100c7366004611abc565b6101ca565b005b6100cc6100dc366004611c73565b61027c565b6100e96104d9565b6040516100f69190611f8d565b60405180910390f35b6100cc61010d366004611a7d565b6104e8565b6100cc610120366004611db4565b6106c4565b610138610133366004611a7d565b610825565b6040516100f691906120c3565b61014d6110c9565b6040516100f69190611fdf565b6100e961112b565b610175610170366004611a7d565b61114f565b6040516100f69190611ff2565b610175610190366004611a7d565b6111c8565b6101a86101a3366004611a7d565b61155c565b6040516100f693929190612037565b6100cc6101c5366004611a7d565b61168e565b6001546001600160a01b031633146101e157600080fd5b6101e96116c7565b6040516323b872dd60e01b815282906001600160a01b038216906323b872dd9061021b90309088908790600401611fbb565b602060405180830381600087803b15801561023557600080fd5b505af1158015610249573d6000803e3d6000fd5b505050506040513d601f19601f8201168201806040525081019061026d9190611c3f565b50506102776116f1565b505050565b6001546001600160a01b0316331461029357600080fd5b61029b6116c7565b6102a36116fb565b8c8152602081018c9052604081018990526102bc61171c565b8b8152602081018b905260408082018a90528815156060830152871515608083015260a0820187905260c0820186905251637304b8b960e01b81526000906001600160a01b037f00000000000000000000000000000000000000000000000000000000000000001690637304b8b99061033f908690869030908a90600401612105565b602060405180830381600087803b15801561035957600080fd5b505af115801561036d573d6000803e3d6000fd5b505050506040513d601f19601f820116820180604052508101906103919190611aa0565b90506003819080600181540180825580915050600190039060005260206000200160009091909190916101000a8154816001600160a01b0302191690836001600160a01b031602179055508e60026000836001600160a01b03166001600160a01b03168152602001908152602001600020600001908051906020019061041892919061175d565b508d60026000836001600160a01b03166001600160a01b03168152602001908152602001600020600101908051906020019061045592919061175d565b508460026000836001600160a01b03166001600160a01b03168152602001908152602001600020600201819055508c60026000836001600160a01b03166001600160a01b0316815260200190815260200160002060030190805190602001906104bf9291906117e1565b505050506104cb6116f1565b505050505050505050505050565b6001546001600160a01b031681565b6001546001600160a01b031633146104ff57600080fd5b6105076116c7565b600061051282610825565b905060008290506000816001600160a01b03166338fff2d06040518163ffffffff1660e01b815260040160206040518083038186803b15801561055457600080fd5b505afa158015610568573d6000803e3d6000fd5b505050506040513d601f19601f8201168201806040525081019061058c9190611c5b565b6020808501510151519091501561062557602083015160405163172b958560e31b81526001600160a01b037f0000000000000000000000000000000000000000000000000000000000000000169163b95cac28916105f291859130918a91600401611ffb565b600060405180830381600087803b15801561060c57600080fd5b505af1158015610620573d6000803e3d6000fd5b505050505b82516020015151156106b6578251604051638bdb391360e01b81526001600160a01b037f00000000000000000000000000000000000000000000000000000000000000001691638bdb39139161068391859130918a91600401611ffb565b600060405180830381600087803b15801561069d57600080fd5b505af11580156106b1573d6000803e3d6000fd5b505050505b5050506106c16116f1565b50565b6001546001600160a01b031633146106db57600080fd5b6106e36116c7565b604051636eb1769f60e11b815282908290819083906001600160a01b0383169063dd62ed3e906107199033903090600401611fa1565b60206040518083038186803b15801561073157600080fd5b505afa158015610745573d6000803e3d6000fd5b505050506040513d601f19601f820116820180604052508101906107699190611c5b565b10156107905760405162461bcd60e51b81526004016107879061206d565b60405180910390fd5b6040516323b872dd60e01b815284906001600160a01b038216906323b872dd906107c290339030908b90600401611fbb565b602060405180830381600087803b1580156107dc57600080fd5b505af11580156107f0573d6000803e3d6000fd5b505050506040513d601f19601f820116820180604052508101906108149190611c3f565b50505050506108216116f1565b5050565b61082d611836565b6001546001600160a01b0316331461084457600080fd5b61084c61185b565b6001600160a01b0383168082526040805163038fff2d60e41b81529051600092916338fff2d0916004808301926020929190829003018186803b15801561089257600080fd5b505afa1580156108a6573d6000803e3d6000fd5b505050506040513d601f19601f820116820180604052508101906108ca9190611c5b565b60405163f6c0092760e01b81529091506001600160a01b037f0000000000000000000000000000000000000000000000000000000000000000169063f6c0092790610919908490600401611ff2565b604080518083038186803b15801561093057600080fd5b505afa158015610944573d6000803e3d6000fd5b505050506040513d601f19601f820116820180604052508101906109689190611afc565b5050600082600001516001600160a01b031663f89f27ed6040518163ffffffff1660e01b815260040160006040518083038186803b1580156109a957600080fd5b505afa1580156109bd573d6000803e3d6000fd5b505050506040513d6000823e601f3d908101601f191682016040526109e59190810190611c04565b90506000807f00000000000000000000000000000000000000000000000000000000000000006001600160a01b031663f94d4668856040518263ffffffff1660e01b8152600401610a369190611ff2565b60006040518083038186803b158015610a4e57600080fd5b505afa158015610a62573d6000803e3d6000fd5b505050506040513d6000823e601f3d908101601f19168201604052610a8a9190810190611b38565b50915091506000610a9a836116f8565b9050600080600084600081518110610ac257634e487b7160e01b600052603260045260246000fd5b60200260200101511115610bc45785600081518110610af157634e487b7160e01b600052603260045260246000fd5b602002602001015184600081518110610b1a57634e487b7160e01b600052603260045260246000fd5b6020026020010151610b2c919061227d565b86600181518110610b4d57634e487b7160e01b600052603260045260246000fd5b602002602001015185600181518110610b7657634e487b7160e01b600052603260045260246000fd5b6020026020010151610b88919061227d565b610b92919061227d565b8860200151600081518110610bb757634e487b7160e01b600052603260045260246000fd5b6020026020010181815250505b60015b8551811015610d03576000858281518110610bf257634e487b7160e01b600052603260045260246000fd5b60200260200101511115610cf157868181518110610c2057634e487b7160e01b600052603260045260246000fd5b6020026020010151858281518110610c4857634e487b7160e01b600052603260045260246000fd5b6020026020010151610c5a919061227d565b87600081518110610c7b57634e487b7160e01b600052603260045260246000fd5b602002602001015186600081518110610ca457634e487b7160e01b600052603260045260246000fd5b6020026020010151610cb6919061227d565b610cc0919061227d565b89602001518281518110610ce457634e487b7160e01b600052603260045260246000fd5b6020026020010181815250505b80610cfb81612336565b915050610bc7565b5060015b8551811015610ded57600089602001518281518110610d3657634e487b7160e01b600052603260045260246000fd5b60200260200101511115610ddb5788602001518181518110610d6857634e487b7160e01b600052603260045260246000fd5b6020026020010151610da0878381518110610d9357634e487b7160e01b600052603260045260246000fd5b60200260200101516111c8565b610daa91906122bc565b89604001518281518110610dce57634e487b7160e01b600052603260045260246000fd5b6020026020010181815250505b80610de581612336565b915050610d07565b5060608060015b875181101561104a576001600160a01b038d166000908152600260208190526040918290200154908c0151805183908110610e3f57634e487b7160e01b600052603260045260246000fd5b602002602001015112610ee857600260008e6001600160a01b03166001600160a01b03168152602001908152602001600020600201546064888381518110610e9757634e487b7160e01b600052603260045260246000fd5b6020026020010151610ea9919061227d565b610eb3919061229d565b828281518110610ed357634e487b7160e01b600052603260045260246000fd5b60200260200101818152505060019350611038565b6001600160a01b038d1660009081526002602081905260409091200154610f0e90612351565b8b604001518281518110610f3257634e487b7160e01b600052603260045260246000fd5b602002602001015113610fdb57600260008e6001600160a01b03166001600160a01b03168152602001908152602001600020600201546064888381518110610f8a57634e487b7160e01b600052603260045260246000fd5b6020026020010151610f9c919061227d565b610fa6919061229d565b838281518110610fc657634e487b7160e01b600052603260045260246000fd5b60200260200101818152505060019450611038565b6000838281518110610ffd57634e487b7160e01b600052603260045260246000fd5b602002602001018181525050600082828151811061102b57634e487b7160e01b600052603260045260246000fd5b6020026020010181815250505b8061104281612336565b915050610df4565b50611053611836565b8315611084578051869052604080516020808201835260008252835190920152815160016060909101528151018290525b84156110b75760208082018051889052604080518084018252600081528251909101528051600160609091015251018390525b9a50505050505050505050505b919050565b6060600380548060200260200160405190810160405280929190818152602001828054801561112157602002820191906000526020600020905b81546001600160a01b03168152600190910190602001808311611103575b5050505050905090565b7f000000000000000000000000000000000000000000000000000000000000000081565b6000816001600160a01b03166338fff2d06040518163ffffffff1660e01b815260040160206040518083038186803b15801561118a57600080fd5b505afa15801561119e573d6000803e3d6000fd5b505050506040513d601f19601f820116820180604052508101906111c29190611c5b565b92915050565b6000806001600160a01b03831673baab46e28388d2779e6e31fd00cf0e5ad95e327b141561128857600073128fe88eaa22bffb868bb3a584a54c96ee24014b9050806001600160a01b031663feaf968c6040518163ffffffff1660e01b815260040160a06040518083038186803b15801561124257600080fd5b505afa158015611256573d6000803e3d6000fd5b505050506040513d601f19601f8201168201806040525081019061127a9190611dd8565b509194506111c29350505050565b6001600160a01b03831673471ece3750da237f93b8e339c536989b8978a43814156112ff576000730568fd19986748ceff3301e55c0eb1e729e0ab7e9050806001600160a01b031663feaf968c6040518163ffffffff1660e01b815260040160a06040518083038186803b15801561124257600080fd5b6001600160a01b03831673122013fd7df1c6f636a5bb8f03108e876548b4551415611376576000731fcd30a73d67639c1cd89ff5746e7585731c083b9050806001600160a01b031663feaf968c6040518163ffffffff1660e01b815260040160a06040518083038186803b15801561124257600080fd5b6001600160a01b03831673d8763cba276a3738e6de85b4b3bf5fded6d6ca7314156113ed576000733d207061dbe8e2473527611bfecb87ff12b28dda9050806001600160a01b031663feaf968c6040518163ffffffff1660e01b815260040160a06040518083038186803b15801561124257600080fd5b6001600160a01b0383167372d7f41ef46a988b13530f67423b36cd9cadbc3a1415611464576000736b6a4c71ec3858a024f3f0ee44bb0adcbed3dcc29050806001600160a01b031663feaf968c6040518163ffffffff1660e01b815260040160a06040518083038186803b15801561124257600080fd5b6001600160a01b038316732a3684e9dc20b857375ea04235f2f7edbe818fa714156114db57600073c7a353bae210aed958a1a2928b654938ec59dab29050806001600160a01b031663feaf968c6040518163ffffffff1660e01b815260040160a06040518083038186803b15801561124257600080fd5b6001600160a01b03831673f6d198cd2a85bb2f3021cdbdab6b878474079be71415611552576000735e37af40a7a344ec9b03ccd34a250f3da9a20b029050806001600160a01b031663feaf968c6040518163ffffffff1660e01b815260040160a06040518083038186803b15801561124257600080fd5b60019150506110c4565b600260205260009081526040902080548190611577906122fb565b80601f01602080910402602001604051908101604052809291908181526020018280546115a3906122fb565b80156115f05780601f106115c5576101008083540402835291602001916115f0565b820191906000526020600020905b8154815290600101906020018083116115d357829003601f168201915b505050505090806001018054611605906122fb565b80601f0160208091040260200160405190810160405280929190818152602001828054611631906122fb565b801561167e5780601f106116535761010080835404028352916020019161167e565b820191906000526020600020905b81548152906001019060200180831161166157829003601f168201915b5050505050908060020154905083565b6001546001600160a01b031633146116a557600080fd5b600180546001600160a01b0319166001600160a01b0392909216919091179055565b600260005414156116ea5760405162461bcd60e51b81526004016107879061208c565b6002600055565b6001600055565b90565b60405180606001604052806060815260200160608152602001606081525090565b6040518060e0016040528060608152602001606081526020016000815260200160001515815260200160001515815260200160008152602001600081525090565b828054611769906122fb565b90600052602060002090601f01602090048101928261178b57600085556117d1565b82601f106117a457805160ff19168380011785556117d1565b828001600101855582156117d1579182015b828111156117d15782518255916020019190600101906117b6565b506117dd929150611885565b5090565b8280548282559060005260206000209081019282156117d1579160200282015b828111156117d157825182546001600160a01b0319166001600160a01b03909116178255602090920191600190910190611801565b604051806040016040528061184961189a565b815260200161185661189a565b905290565b604051806060016040528060006001600160a01b0316815260200160608152602001606081525090565b5b808211156117dd5760008155600101611886565b60405180608001604052806060815260200160608152602001606081526020016000151581525090565b600082601f8301126118d4578081fd5b813560206118e96118e483612259565b61222f565b8281528181019085830183850287018401881015611905578586fd5b855b8581101561192c57813561191a81612397565b84529284019290840190600101611907565b5090979650505050505050565b600082601f830112611949578081fd5b813560206119596118e483612259565b8281528181019085830183850287018401881015611975578586fd5b855b8581101561192c57813584529284019290840190600101611977565b600082601f8301126119a3578081fd5b815160206119b36118e483612259565b82815281810190858301838502870184018810156119cf578586fd5b855b8581101561192c578151845292840192908401906001016119d1565b80356110c4816123ac565b600082601f830112611a08578081fd5b813567ffffffffffffffff811115611a2257611a22612381565b611a35601f8201601f191660200161222f565b818152846020838601011115611a49578283fd5b816020850160208301379081016020019190915292915050565b805169ffffffffffffffffffff811681146110c457600080fd5b600060208284031215611a8e578081fd5b8135611a9981612397565b9392505050565b600060208284031215611ab1578081fd5b8151611a9981612397565b600080600060608486031215611ad0578182fd5b8335611adb81612397565b92506020840135611aeb81612397565b929592945050506040919091013590565b60008060408385031215611b0e578182fd5b8251611b1981612397565b602084015190925060038110611b2d578182fd5b809150509250929050565b600080600060608486031215611b4c578081fd5b835167ffffffffffffffff80821115611b63578283fd5b818601915086601f830112611b76578283fd5b81516020611b866118e483612259565b82815281810190858301838502870184018c1015611ba2578788fd5b8796505b84871015611bcd578051611bb981612397565b835260019690960195918301918301611ba6565b5091890151919750909350505080821115611be6578283fd5b50611bf386828701611993565b925050604084015190509250925092565b600060208284031215611c15578081fd5b815167ffffffffffffffff811115611c2b578182fd5b611c3784828501611993565b949350505050565b600060208284031215611c50578081fd5b8151611a99816123ac565b600060208284031215611c6c578081fd5b5051919050565b6000806000806000806000806000806000806101808d8f031215611c9557898afd5b67ffffffffffffffff8d351115611caa57898afd5b611cb78e8e358f016119f8565b9b5067ffffffffffffffff60208e01351115611cd157898afd5b611ce18e60208f01358f016119f8565b9a5067ffffffffffffffff60408e01351115611cfb57898afd5b611d0b8e60408f01358f016118c4565b995067ffffffffffffffff60608e01351115611d25578788fd5b611d358e60608f01358f01611939565b985067ffffffffffffffff60808e01351115611d4f578788fd5b611d5f8e60808f01358f016118c4565b975060a08d01359650611d7460c08e016119ed565b9550611d8260e08e016119ed565b94506101008d013593506101208d013592506101408d013591506101608d013590509295989b509295989b509295989b565b60008060408385031215611dc6578182fd5b823591506020830135611b2d81612397565b600080600080600060a08688031215611def578283fd5b611df886611a63565b9450602086015193506040860151925060608601519150611e1b60808701611a63565b90509295509295909350565b6001600160a01b03169052565b6000815180845260208085019450808401835b83811015611e6c5781516001600160a01b031687529582019590820190600101611e47565b509495945050505050565b6000815180845260208085019450808401835b83811015611e6c57815187529582019590820190600101611e8a565b15159052565b60008151808452815b81811015611ed157602081850181015186830182015201611eb5565b81811115611ee25782602083870101525b50601f01601f19169290920160200192915050565b8051608080845281519084018190526000916020919082019060a0860190845b81811015611f3c5783516001600160a01b031683529284019291840191600101611f17565b505082850151915085810383870152611f558183611e77565b9250505060408301518482036040860152611f708282611eac565b9150506060830151611f856060860182611ea6565b509392505050565b6001600160a01b0391909116815260200190565b6001600160a01b0392831681529116602082015260400190565b6001600160a01b039384168152919092166020820152604081019190915260600190565b600060208252611a996020830184611e34565b90815260200190565b8481526001600160a01b0384811660208301528316604082015260806060820181905260009061202d90830184611ef7565b9695505050505050565b60006060825261204a6060830186611eac565b828103602084015261205c8186611eac565b915050826040830152949350505050565b60208082526005908201526422b93937b960d91b604082015260600190565b6020808252601f908201527f5265656e7472616e637947756172643a207265656e7472616e742063616c6c00604082015260600190565b6000602082528251604060208401526120df6060840182611ef7565b90506020840151601f198483030160408501526120fc8282611ef7565b95945050505050565b60006080825285516060608084015261212160e0840182611eac565b9050602080880151607f19808685030160a08701526121408483611eac565b935060408a01519150808685030160c08701525061215e8382611e34565b85810383870152885160e080835281519083018190529194508301915084906101008501905b808310156121ad5783516001600160a01b03168252928401926001929092019190840190612184565b50838a01519250848103848601526121c58184611e77565b93505050506040870151604083015260608701516121e66060840182611ea6565b5060808701516121f96080840182611ea6565b5060a087015160a083015260c087015160c083015280925050506122206040830185611e27565b82606083015295945050505050565b60405181810167ffffffffffffffff8111828210171561225157612251612381565b604052919050565b600067ffffffffffffffff82111561227357612273612381565b5060209081020190565b60008261229857634e487b7160e01b81526012600452602481fd5b500490565b60008160001904831182151516156122b7576122b761236b565b500290565b60008083128015600160ff1b8501841216156122da576122da61236b565b6001600160ff1b03840183138116156122f5576122f561236b565b50500390565b60028104600182168061230f57607f821691505b6020821081141561233057634e487b7160e01b600052602260045260246000fd5b50919050565b600060001982141561234a5761234a61236b565b5060010190565b6000600160ff1b8214156123675761236761236b565b0390565b634e487b7160e01b600052601160045260246000fd5b634e487b7160e01b600052604160045260246000fd5b6001600160a01b03811681146106c157600080fd5b80151581146106c157600080fdfea2646970667358221220a6550a39b52e1a2c83195aa794d25d0be06f5134f85daab674128a452de4f5d364736f6c63430008000033",
  "immutableReferences": {
    "1703": [
      {
        "length": 32,
        "start": 772
      },
      {
        "length": 32,
        "start": 4397
      }
    ],
    "2025": [
      {
        "length": 32,
        "start": 1465
      },
      {
        "length": 32,
        "start": 1610
      },
      {
        "length": 32,
        "start": 2276
      },
      {
        "length": 32,
        "start": 2540
      }
    ]
  },
  "source": "// SPDX-License-Identifier: MIT\n\npragma solidity ^0.8.0;\npragma experimental ABIEncoderV2;\n\nimport \"./base/BaseWeightedController.sol\";\nimport \"./lib/SupportLib.sol\";\n\ncontract WeightedBondingCurveController is BaseWeightedController {\n\n    /**\n     * @notice Constructor for the controller implementation class\n     *\n     * @param vaultAddress - Vault contract address\n     * @param supportedWeightedPoolNoAMFactory - Weighted pool contract address\n     */\n    constructor(\n        address vaultAddress,\n        address supportedWeightedPoolNoAMFactory\n    ) BaseWeightedController(vaultAddress, supportedWeightedPoolNoAMFactory) {}\n\n    /**\n     * @notice Runs a check and transfers reserve tokens as needed\n     * @dev To avoid too many fees, this should be run at wide intervals such as daily\n     *\n     * @param poolAddress - Address of pool being worked on.\n     */\n    function runCheck(address poolAddress) public restricted nonReentrant {\n        PoolAdjustments memory poolAdjustments = calculateBalancing(poolAddress);\n        \n        IWeightedPool weightedPool = IWeightedPool(poolAddress);\n        bytes32 poolId = weightedPool.getPoolId();\n\n        // If there's tokens to add then call joinPool\n        if (poolAdjustments.newJoinRequest.maxAmountsIn.length > 0)\n        {\n            vault.joinPool(\n                poolId,\n                address(this),\n                payable(poolAddress),\n                poolAdjustments.newJoinRequest\n            );\n        }\n\n        if (poolAdjustments.newExitRequest.minAmountsOut.length > 0)\n        {\n            vault.exitPool(\n                poolId,\n                address(this),\n                payable(poolAddress),\n                poolAdjustments.newExitRequest\n            );\n        }\n    }\n}\n",
  "sourcePath": "/home/eagle/Source/BalancerController/Balancer.Controller/contracts/WeightedBondingCurveController.sol",
  "compiler": {
    "name": "solc",
    "version": "0.8.0+commit.c7dfd78e.Emscripten.clang"
  },
  "schemaVersion": "3.4.13",
  "updatedAt": "2023-09-16T11:29:17.591Z",
  "devdoc": {
    "kind": "dev",
    "methods": {
      "calculateBalancing(address)": {
        "params": {
          "poolAddress": "- Address of pool being worked on."
        }
      },
      "constructor": {
        "params": {
          "supportedWeightedPoolNoAMFactory": "- Weighted pool contract address",
          "vaultAddress": "- Vault contract address"
        }
      },
      "createPool(string,string,address[],uint256[],address[],uint256,bool,bool,uint256,uint256,uint256,bytes32)": {
        "params": {
          "assetManagers": "- Asset manager for the pool",
          "aumFeeId": "- Aum Fee Id",
          "isMustAllowlistLPs": "- List of LP's allowed in the pool",
          "isSwapEnabledOnStart": "- Whether swaps are enabled straight away",
          "managementAumFeePercentage": "- Management Aum fee to apply",
          "name": "- Pool name",
          "normalizedWeights": "- Normalized weights in the pool",
          "salt": "- Salt used towards calculating pool address",
          "swapFeePercentage": "- Fee applied to swaps",
          "symbol": "- Symbol representing the pool",
          "tokens": "- Tokens in the pool",
          "tolerance": "- Percentage devience "
        }
      },
      "depositTokens(uint256,address)": {
        "details": "Transfers an amount of an ERC20 token",
        "params": {
          "amount": "- Amount to deposit.",
          "tokenAddress": "- Address of token to be deposited."
        }
      },
      "getPoolId(address)": {
        "params": {
          "poolAddress": "- Pool to get the Id for"
        }
      },
      "getTokenPrice(address)": {
        "params": {
          "value": "- Address to find"
        }
      },
      "runCheck(address)": {
        "details": "To avoid too many fees, this should be run at wide intervals such as daily",
        "params": {
          "poolAddress": "- Address of pool being worked on."
        }
      },
      "transferManagement(address)": {
        "details": "Only one manager can presently be set",
        "params": {
          "supportedManager": "- New manager."
        }
      },
      "withdrawFunds(address,address,uint256)": {
        "details": "Transfers an amount of an ERC20 token",
        "params": {
          "amount": "- Amount to withdraw.",
          "recipientAddress": "- Address of wallet receiving funds.",
          "tokenAddress": "- Address of token to be withdrawn."
        }
      }
    },
    "version": 1
  },
  "userdoc": {
    "kind": "user",
    "methods": {
      "calculateBalancing(address)": {
        "notice": "Calculates a number of tokens to add or remove to rebalance pricing"
      },
      "constructor": {
        "notice": "Constructor for the controller implementation class"
      },
      "createPool(string,string,address[],uint256[],address[],uint256,bool,bool,uint256,uint256,uint256,bytes32)": {
        "notice": "Create a new weighted pool"
      },
      "depositTokens(uint256,address)": {
        "notice": "Deposit tokens to controller"
      },
      "getPoolId(address)": {
        "notice": "Returns the pools Id"
      },
      "getPoolsUnderManagement()": {
        "notice": "returns a list of pools under management by this controller"
      },
      "getTokenPrice(address)": {
        "notice": "returns the oracle supplied price for the requested token"
      },
      "runCheck(address)": {
        "notice": "Runs a check and transfers reserve tokens as needed"
      },
      "transferManagement(address)": {
        "notice": "Transfer the manager to a new address"
      },
      "withdrawFunds(address,address,uint256)": {
        "notice": "Withdraw tokens from controller"
      }
    },
    "version": 1
  }
}