{
  "contractName": "WeightedReserveController",
  "abi": [
    {
      "inputs": [
        {
          "internalType": "address",
          "name": "vaultAddress",
          "type": "address"
        },
        {
          "internalType": "address",
          "name": "supportedWeightedPoolNoAMFactory",
          "type": "address"
        }
      ],
      "stateMutability": "nonpayable",
      "type": "constructor"
    },
    {
      "inputs": [
        {
          "internalType": "address",
          "name": "poolAddress",
          "type": "address"
        }
      ],
      "name": "calculateBalancing",
      "outputs": [
        {
          "components": [
            {
              "components": [
                {
                  "internalType": "contract IAsset[]",
                  "name": "assets",
                  "type": "address[]"
                },
                {
                  "internalType": "uint256[]",
                  "name": "minAmountsOut",
                  "type": "uint256[]"
                },
                {
                  "internalType": "bytes",
                  "name": "userData",
                  "type": "bytes"
                },
                {
                  "internalType": "bool",
                  "name": "toInternalBalance",
                  "type": "bool"
                }
              ],
              "internalType": "struct IVault.ExitPoolRequest",
              "name": "newExitRequest",
              "type": "tuple"
            },
            {
              "components": [
                {
                  "internalType": "contract IAsset[]",
                  "name": "assets",
                  "type": "address[]"
                },
                {
                  "internalType": "uint256[]",
                  "name": "maxAmountsIn",
                  "type": "uint256[]"
                },
                {
                  "internalType": "bytes",
                  "name": "userData",
                  "type": "bytes"
                },
                {
                  "internalType": "bool",
                  "name": "fromInternalBalance",
                  "type": "bool"
                }
              ],
              "internalType": "struct IVault.JoinPoolRequest",
              "name": "newJoinRequest",
              "type": "tuple"
            }
          ],
          "internalType": "struct PoolAdjustments",
          "name": "",
          "type": "tuple"
        }
      ],
      "stateMutability": "view",
      "type": "function"
    },
    {
      "inputs": [
        {
          "internalType": "address",
          "name": "value",
          "type": "address"
        }
      ],
      "name": "getTokenPrice",
      "outputs": [
        {
          "internalType": "int256",
          "name": "",
          "type": "int256"
        }
      ],
      "stateMutability": "view",
      "type": "function"
    },
    {
      "inputs": [],
      "name": "manager",
      "outputs": [
        {
          "internalType": "address",
          "name": "",
          "type": "address"
        }
      ],
      "stateMutability": "view",
      "type": "function"
    },
    {
      "inputs": [
        {
          "internalType": "address",
          "name": "supportedManager",
          "type": "address"
        }
      ],
      "name": "transferManagement",
      "outputs": [],
      "stateMutability": "nonpayable",
      "type": "function"
    },
    {
      "inputs": [
        {
          "internalType": "address",
          "name": "",
          "type": "address"
        }
      ],
      "name": "weightedPools",
      "outputs": [
        {
          "internalType": "string",
          "name": "poolName",
          "type": "string"
        },
        {
          "internalType": "string",
          "name": "poolSymbol",
          "type": "string"
        },
        {
          "internalType": "uint256",
          "name": "tolerance",
          "type": "uint256"
        }
      ],
      "stateMutability": "view",
      "type": "function"
    },
    {
      "inputs": [],
      "name": "getRegisteredPools",
      "outputs": [
        {
          "internalType": "address[]",
          "name": "",
          "type": "address[]"
        }
      ],
      "stateMutability": "view",
      "type": "function"
    },
    {
      "inputs": [
        {
          "internalType": "address",
          "name": "weightedPool",
          "type": "address"
        }
      ],
      "name": "registerWeightedPool",
      "outputs": [],
      "stateMutability": "nonpayable",
      "type": "function"
    },
    {
      "inputs": [
        {
          "internalType": "address",
          "name": "weightedPool",
          "type": "address"
        }
      ],
      "name": "deRegisterWeightedPool",
      "outputs": [],
      "stateMutability": "nonpayable",
      "type": "function"
    },
    {
      "inputs": [
        {
          "internalType": "address",
          "name": "tokenIn",
          "type": "address"
        },
        {
          "internalType": "uint256",
          "name": "amountIn",
          "type": "uint256"
        },
        {
          "internalType": "address",
          "name": "recipient",
          "type": "address"
        }
      ],
      "name": "buyReserveToken",
      "outputs": [],
      "stateMutability": "nonpayable",
      "type": "function"
    },
    {
      "inputs": [
        {
          "internalType": "address",
          "name": "pool",
          "type": "address"
        },
        {
          "internalType": "uint256",
          "name": "amountIn",
          "type": "uint256"
        },
        {
          "internalType": "address",
          "name": "recipient",
          "type": "address"
        }
      ],
      "name": "sellReserveToken",
      "outputs": [],
      "stateMutability": "nonpayable",
      "type": "function"
    }
  ],
  "bytecode": "0x60c06040523480156200001157600080fd5b5060405162002a0038038062002a00833981016040819052620000349162000088565b600160008190556001600160601b0319606093841b811660805281546001600160a01b0319163317909155911b1660a052620000bf565b80516001600160a01b03811681146200008357600080fd5b919050565b600080604083850312156200009b578182fd5b620000a6836200006b565b9150620000b6602084016200006b565b90509250929050565b60805160601c60a05160601c6128f56200010b6000396000505060008181610303015281816104220152818161094101528181610a6001528181610ee40152610fec01526128f56000f3fe608060405234801561001057600080fd5b506004361061009e5760003560e01c8063659d4f5c11610066578063659d4f5c1461011c578063c0e3fccb14610131578063d02641a014610144578063d62e368114610164578063e4edf852146101865761009e565b80631b439d69146100a357806347958851146100b8578063481c6a75146100cb5780634fed9acd146100e957806358a67da314610109575b600080fd5b6100b66100b1366004612266565b610199565b005b6100b66100c6366004612266565b610814565b6100d3610e16565b6040516100e09190612556565b60405180910390f35b6100fc6100f7366004612207565b610e25565b6040516100e091906126ce565b6100b6610117366004612207565b6118bc565b61012461193a565b6040516100e091906125a7565b6100b661013f366004612207565b61199c565b610157610152366004612207565b6119dd565b6040516100e091906125f4565b610177610172366004612207565b611d77565b6040516100e0939291906125fd565b6100b6610194366004612207565b611ea9565b6101a1611ee2565b6001600160a01b038316600090815260046020526040902054839060ff166101e45760405162461bcd60e51b81526004016101db9061266a565b60405180910390fd5b6101ec6120bf565b6001600160a01b038516808252604080516318160ddd60e01b81529051879260009290916318160ddd91600480820192602092909190829003018186803b15801561023657600080fd5b505afa15801561024a573d6000803e3d6000fd5b505050506040513d601f19601f8201168201806040525081019061026e91906123ce565b905082600001516001600160a01b03166338fff2d06040518163ffffffff1660e01b815260040160206040518083038186803b1580156102ad57600080fd5b505afa1580156102c1573d6000803e3d6000fd5b505050506040513d601f19601f820116820180604052508101906102e591906123ce565b6020840181905260405163f6c0092760e01b81526001600160a01b037f0000000000000000000000000000000000000000000000000000000000000000169163f6c009279161033791906004016125f4565b604080518083038186803b15801561034e57600080fd5b505afa158015610362573d6000803e3d6000fd5b505050506040513d601f19601f82011682018060405250810190610386919061222a565b505082600001516001600160a01b031663f89f27ed6040518163ffffffff1660e01b815260040160006040518083038186803b1580156103c557600080fd5b505afa1580156103d9573d6000803e3d6000fd5b505050506040513d6000823e601f3d908101601f191682016040526104019190810190612373565b60608401526020830151604051631f29a8cd60e31b81526001600160a01b037f0000000000000000000000000000000000000000000000000000000000000000169163f94d46689161045691906004016125f4565b60006040518083038186803b15801561046e57600080fd5b505afa158015610482573d6000803e3d6000fd5b505050506040513d6000823e601f3d908101601f191682016040526104aa91908101906122a7565b5060a0850152608084018190526104c090611f0c565b60c084015260808301515167ffffffffffffffff8111156104f157634e487b7160e01b600052604160045260246000fd5b60405190808252806020026020018201604052801561051a578160200160208202803683370190505b50604084015260005b8360800151518110156106125760008460a00151828151811061055657634e487b7160e01b600052603260045260246000fd5b602002602001015111156105cd576105988460800151828151811061058b57634e487b7160e01b600052603260045260246000fd5b60200260200101516119dd565b846040015182815181106105bc57634e487b7160e01b600052603260045260246000fd5b602002602001018181525050610600565b6000846040015182815181106105f357634e487b7160e01b600052603260045260246000fd5b6020026020010181815250505b8061060a81612846565b915050610523565b506000805b8460800151518110156106a4578460400151818151811061064857634e487b7160e01b600052603260045260246000fd5b60200260200101518560a00151828151811061067457634e487b7160e01b600052603260045260246000fd5b60200260200101516106869190612796565b610690908361275e565b91508061069c81612846565b915050610617565b5060006106b18389612776565b905060006106bf8483612796565b6040516323b872dd60e01b8152909150737d9d314ee8183653f800e551030d0b27663a15579081906323b872dd906106ff90339030908f9060040161256a565b602060405180830381600087803b15801561071957600080fd5b505af115801561072d573d6000803e3d6000fd5b505050506040513d601f19601f8201168201806040525081019061075191906123ae565b61076d5760405162461bcd60e51b81526004016101db90612633565b6001600160a01b03861663a9059cbb8a61078f85670de0b6b3a7640000612796565b6040518363ffffffff1660e01b81526004016107ac92919061258e565b602060405180830381600087803b1580156107c657600080fd5b505af11580156107da573d6000803e3d6000fd5b505050506040513d601f19601f820116820180604052508101906107fe91906123ae565b50505050505050505061080f611f0f565b505050565b61081c6120bf565b6001600160a01b038416808252604080516318160ddd60e01b81529051869260009290916318160ddd91600480820192602092909190829003018186803b15801561086657600080fd5b505afa15801561087a573d6000803e3d6000fd5b505050506040513d601f19601f8201168201806040525081019061089e91906123ce565b905060006108ac8287612776565b905083600001516001600160a01b03166338fff2d06040518163ffffffff1660e01b815260040160206040518083038186803b1580156108eb57600080fd5b505afa1580156108ff573d6000803e3d6000fd5b505050506040513d601f19601f8201168201806040525081019061092391906123ce565b6020850181905260405163f6c0092760e01b81526001600160a01b037f0000000000000000000000000000000000000000000000000000000000000000169163f6c009279161097591906004016125f4565b604080518083038186803b15801561098c57600080fd5b505afa1580156109a0573d6000803e3d6000fd5b505050506040513d601f19601f820116820180604052508101906109c4919061222a565b505083600001516001600160a01b031663f89f27ed6040518163ffffffff1660e01b815260040160006040518083038186803b158015610a0357600080fd5b505afa158015610a17573d6000803e3d6000fd5b505050506040513d6000823e601f3d908101601f19168201604052610a3f9190810190612373565b60608501526020840151604051631f29a8cd60e31b81526001600160a01b037f0000000000000000000000000000000000000000000000000000000000000000169163f94d466891610a9491906004016125f4565b60006040518083038186803b158015610aac57600080fd5b505afa158015610ac0573d6000803e3d6000fd5b505050506040513d6000823e601f3d908101601f19168201604052610ae891908101906122a7565b5060a086015260808501819052610afe90611f0c565b60c085015260808401515167ffffffffffffffff811115610b2f57634e487b7160e01b600052604160045260246000fd5b604051908082528060200260200182016040528015610b58578160200160208202803683370190505b50604085015260005b846080015151811015610c435760008560a001518281518110610b9457634e487b7160e01b600052603260045260246000fd5b60200260200101511115610bfe57610bc98560800151828151811061058b57634e487b7160e01b600052603260045260246000fd5b85604001518281518110610bed57634e487b7160e01b600052603260045260246000fd5b602002602001018181525050610c31565b600085604001518281518110610c2457634e487b7160e01b600052603260045260246000fd5b6020026020010181815250505b80610c3b81612846565b915050610b61565b506000805b856080015151811015610cd55785604001518181518110610c7957634e487b7160e01b600052603260045260246000fd5b60200260200101518660a001518281518110610ca557634e487b7160e01b600052603260045260246000fd5b6020026020010151610cb79190612796565b610cc1908361275e565b915080610ccd81612846565b915050610c48565b506000610ce28284612796565b6040516323b872dd60e01b8152909150737d9d314ee8183653f800e551030d0b27663a1557906001600160a01b038716906323b872dd90610d2b90339030908e9060040161256a565b602060405180830381600087803b158015610d4557600080fd5b505af1158015610d59573d6000803e3d6000fd5b505050506040513d601f19601f82011682018060405250810190610d7d91906123ae565b610d995760405162461bcd60e51b81526004016101db90612633565b6001600160a01b0381166340c10f1989610dbb85670de0b6b3a7640000612796565b6040518363ffffffff1660e01b8152600401610dd892919061258e565b600060405180830381600087803b158015610df257600080fd5b505af1158015610e06573d6000803e3d6000fd5b5050505050505050505050505050565b6001546001600160a01b031681565b610e2d612108565b6001546001600160a01b03163314610e4457600080fd5b610e4c61212d565b6001600160a01b0383168082526040805163038fff2d60e41b81529051600092916338fff2d0916004808301926020929190829003018186803b158015610e9257600080fd5b505afa158015610ea6573d6000803e3d6000fd5b505050506040513d601f19601f82011682018060405250810190610eca91906123ce565b60405163f6c0092760e01b81529091506001600160a01b037f0000000000000000000000000000000000000000000000000000000000000000169063f6c0092790610f199084906004016125f4565b604080518083038186803b158015610f3057600080fd5b505afa158015610f44573d6000803e3d6000fd5b505050506040513d601f19601f82011682018060405250810190610f68919061222a565b5050600082600001516001600160a01b031663f89f27ed6040518163ffffffff1660e01b815260040160006040518083038186803b158015610fa957600080fd5b505afa158015610fbd573d6000803e3d6000fd5b505050506040513d6000823e601f3d908101601f19168201604052610fe59190810190612373565b90506000807f00000000000000000000000000000000000000000000000000000000000000006001600160a01b031663f94d4668856040518263ffffffff1660e01b815260040161103691906125f4565b60006040518083038186803b15801561104e57600080fd5b505afa158015611062573d6000803e3d6000fd5b505050506040513d6000823e601f3d908101601f1916820160405261108a91908101906122a7565b5091509150600061109a83611f0c565b9050600080845167ffffffffffffffff8111156110c757634e487b7160e01b600052604160045260246000fd5b6040519080825280602002602001820160405280156110f0578160200160208202803683370190505b50886020018190525060008460008151811061111c57634e487b7160e01b600052603260045260246000fd5b60200260200101511115611222578560008151811061114b57634e487b7160e01b600052603260045260246000fd5b60200260200101518460008151811061117457634e487b7160e01b600052603260045260246000fd5b60200260200101516111869190612776565b866001815181106111a757634e487b7160e01b600052603260045260246000fd5b6020026020010151856001815181106111d057634e487b7160e01b600052603260045260246000fd5b60200260200101516111e29190612776565b6111ec9190612776565b886020015160008151811061121157634e487b7160e01b600052603260045260246000fd5b602002602001018181525050611256565b6000886020015160008151811061124957634e487b7160e01b600052603260045260246000fd5b6020026020010181815250505b60015b85518110156113cc57600085828151811061128457634e487b7160e01b600052603260045260246000fd5b60200260200101511115611387578681815181106112b257634e487b7160e01b600052603260045260246000fd5b60200260200101518582815181106112da57634e487b7160e01b600052603260045260246000fd5b60200260200101516112ec9190612776565b8760008151811061130d57634e487b7160e01b600052603260045260246000fd5b60200260200101518660008151811061133657634e487b7160e01b600052603260045260246000fd5b60200260200101516113489190612776565b6113529190612776565b8960200151828151811061137657634e487b7160e01b600052603260045260246000fd5b6020026020010181815250506113ba565b6000896020015182815181106113ad57634e487b7160e01b600052603260045260246000fd5b6020026020010181815250505b806113c481612846565b915050611259565b50845167ffffffffffffffff8111156113f557634e487b7160e01b600052604160045260246000fd5b60405190808252806020026020018201604052801561141e578160200160208202803683370190505b50604089015260015b85518110156115375760008960200151828151811061145657634e487b7160e01b600052603260045260246000fd5b602002602001015111156114f2578860200151818151811061148857634e487b7160e01b600052603260045260246000fd5b60200260200101516114b387838151811061058b57634e487b7160e01b600052603260045260246000fd5b6114bd91906127b5565b896040015182815181106114e157634e487b7160e01b600052603260045260246000fd5b602002602001018181525050611525565b60008960400151828151811061151857634e487b7160e01b600052603260045260246000fd5b6020026020010181815250505b8061152f81612846565b915050611427565b506000855167ffffffffffffffff81111561156257634e487b7160e01b600052604160045260246000fd5b60405190808252806020026020018201604052801561158b578160200160208202803683370190505b5090506000865167ffffffffffffffff8111156115b857634e487b7160e01b600052604160045260246000fd5b6040519080825280602002602001820160405280156115e1578160200160208202803683370190505b50905060015b875181101561183d576001600160a01b038d166000908152600260208190526040918290200154908c015180518390811061163257634e487b7160e01b600052603260045260246000fd5b6020026020010151126116db57600260008e6001600160a01b03166001600160a01b0316815260200190815260200160002060020154606488838151811061168a57634e487b7160e01b600052603260045260246000fd5b602002602001015161169c9190612776565b6116a69190612796565b8282815181106116c657634e487b7160e01b600052603260045260246000fd5b6020026020010181815250506001935061182b565b6001600160a01b038d166000908152600260208190526040909120015461170190612861565b8b60400151828151811061172557634e487b7160e01b600052603260045260246000fd5b6020026020010151136117ce57600260008e6001600160a01b03166001600160a01b0316815260200190815260200160002060020154606488838151811061177d57634e487b7160e01b600052603260045260246000fd5b602002602001015161178f9190612776565b6117999190612796565b8382815181106117b957634e487b7160e01b600052603260045260246000fd5b6020026020010181815250506001945061182b565b60008382815181106117f057634e487b7160e01b600052603260045260246000fd5b602002602001018181525050600082828151811061181e57634e487b7160e01b600052603260045260246000fd5b6020026020010181815250505b8061183581612846565b9150506115e7565b50611846612108565b8315611877578051869052604080516020808201835260008252835190920152815160016060909101528151018290525b84156118aa5760208082018051889052604080518084018252600081528251909101528051600160609091015251018390525b9a50505050505050505050505b919050565b6001546001600160a01b031633146118d357600080fd5b6003805460018181019092557fc2575a0e9e593c00f959f8c92f12db2869c3395a3b0502d05e2516446f71f85b0180546001600160a01b039093166001600160a01b031990931683179055600091825260046020526040909120805460ff19169091179055565b6060600380548060200260200160405190810160405280929190818152602001828054801561199257602002820191906000526020600020905b81546001600160a01b03168152600190910190602001808311611974575b5050505050905090565b6001546001600160a01b031633146119b357600080fd5b6119bc81611f16565b6001600160a01b03166000908152600460205260409020805460ff19169055565b6000806001600160a01b03831673baab46e28388d2779e6e31fd00cf0e5ad95e327b1415611a9d57600073128fe88eaa22bffb868bb3a584a54c96ee24014b9050806001600160a01b031663feaf968c6040518163ffffffff1660e01b815260040160a06040518083038186803b158015611a5757600080fd5b505afa158015611a6b573d6000803e3d6000fd5b505050506040513d601f19601f82011682018060405250810190611a8f91906123e6565b50919450611d719350505050565b6001600160a01b03831673471ece3750da237f93b8e339c536989b8978a4381415611b14576000730568fd19986748ceff3301e55c0eb1e729e0ab7e9050806001600160a01b031663feaf968c6040518163ffffffff1660e01b815260040160a06040518083038186803b158015611a5757600080fd5b6001600160a01b03831673122013fd7df1c6f636a5bb8f03108e876548b4551415611b8b576000731fcd30a73d67639c1cd89ff5746e7585731c083b9050806001600160a01b031663feaf968c6040518163ffffffff1660e01b815260040160a06040518083038186803b158015611a5757600080fd5b6001600160a01b03831673d8763cba276a3738e6de85b4b3bf5fded6d6ca731415611c02576000733d207061dbe8e2473527611bfecb87ff12b28dda9050806001600160a01b031663feaf968c6040518163ffffffff1660e01b815260040160a06040518083038186803b158015611a5757600080fd5b6001600160a01b0383167372d7f41ef46a988b13530f67423b36cd9cadbc3a1415611c79576000736b6a4c71ec3858a024f3f0ee44bb0adcbed3dcc29050806001600160a01b031663feaf968c6040518163ffffffff1660e01b815260040160a06040518083038186803b158015611a5757600080fd5b6001600160a01b038316732a3684e9dc20b857375ea04235f2f7edbe818fa71415611cf057600073c7a353bae210aed958a1a2928b654938ec59dab29050806001600160a01b031663feaf968c6040518163ffffffff1660e01b815260040160a06040518083038186803b158015611a5757600080fd5b6001600160a01b03831673f6d198cd2a85bb2f3021cdbdab6b878474079be71415611d67576000735e37af40a7a344ec9b03ccd34a250f3da9a20b029050806001600160a01b031663feaf968c6040518163ffffffff1660e01b815260040160a06040518083038186803b158015611a5757600080fd5b60019150506118b7565b92915050565b600260205260009081526040902080548190611d929061280b565b80601f0160208091040260200160405190810160405280929190818152602001828054611dbe9061280b565b8015611e0b5780601f10611de057610100808354040283529160200191611e0b565b820191906000526020600020905b815481529060010190602001808311611dee57829003601f168201915b505050505090806001018054611e209061280b565b80601f0160208091040260200160405190810160405280929190818152602001828054611e4c9061280b565b8015611e995780601f10611e6e57610100808354040283529160200191611e99565b820191906000526020600020905b815481529060010190602001808311611e7c57829003601f168201915b5050505050908060020154905083565b6001546001600160a01b03163314611ec057600080fd5b600180546001600160a01b0319166001600160a01b0392909216919091179055565b60026000541415611f055760405162461bcd60e51b81526004016101db90612697565b6002600055565b90565b6001600055565b6001600160a01b0381166000908152600460205260408120805460ff19169055611f3f82611f4e565b9050611f4a81611fc5565b5050565b6000805b600354811015611fbb57826001600160a01b031660038281548110611f8757634e487b7160e01b600052603260045260246000fd5b6000918252602090912001546001600160a01b03161415611fa95790506118b7565b80611fb381612846565b915050611f52565b5050600354919050565b600354611fd4906001906127f4565b81101561207b576003611fe882600161275e565b8154811061200657634e487b7160e01b600052603260045260246000fd5b600091825260209091200154600380546001600160a01b03909216918390811061204057634e487b7160e01b600052603260045260246000fd5b600091825260209091200180546001600160a01b0319166001600160a01b03929092169190911790558061207381612846565b915050611fc5565b600380548061209a57634e487b7160e01b600052603160045260246000fd5b600082815260209020810160001990810180546001600160a01b031916905501905550565b6040518060e0016040528060006001600160a01b031681526020016000801916815260200160608152602001606081526020016060815260200160608152602001606081525090565b604051806040016040528061211b612157565b8152602001612128612157565b905290565b604051806060016040528060006001600160a01b0316815260200160608152602001606081525090565b60405180608001604052806060815260200160608152602001606081526020016000151581525090565b600082601f830112612191578081fd5b815160206121a66121a18361273a565b612710565b82815281810190858301838502870184018810156121c2578586fd5b855b858110156121e0578151845292840192908401906001016121c4565b5090979650505050505050565b805169ffffffffffffffffffff811681146118b757600080fd5b600060208284031215612218578081fd5b8135612223816128a7565b9392505050565b6000806040838503121561223c578081fd5b8251612247816128a7565b60208401519092506003811061225b578182fd5b809150509250929050565b60008060006060848603121561227a578081fd5b8335612285816128a7565b925060208401359150604084013561229c816128a7565b809150509250925092565b6000806000606084860312156122bb578283fd5b835167ffffffffffffffff808211156122d2578485fd5b818601915086601f8301126122e5578485fd5b815160206122f56121a18361273a565b82815281810190858301838502870184018c101561231157898afd5b8996505b8487101561233c578051612328816128a7565b835260019690960195918301918301612315565b5091890151919750909350505080821115612355578384fd5b5061236286828701612181565b925050604084015190509250925092565b600060208284031215612384578081fd5b815167ffffffffffffffff81111561239a578182fd5b6123a684828501612181565b949350505050565b6000602082840312156123bf578081fd5b81518015158114612223578182fd5b6000602082840312156123df578081fd5b5051919050565b600080600080600060a086880312156123fd578081fd5b612406866121ed565b9450602086015193506040860151925060608601519150612429608087016121ed565b90509295509295909350565b6000815180845260208085019450808401835b8381101561246457815187529582019590820190600101612448565b509495945050505050565b15159052565b60008151808452815b8181101561249a5760208185018101518683018201520161247e565b818111156124ab5782602083870101525b50601f01601f19169290920160200192915050565b8051608080845281519084018190526000916020919082019060a0860190845b818110156125055783516001600160a01b0316835292840192918401916001016124e0565b50508285015191508581038387015261251e8183612435565b92505050604083015184820360408601526125398282612475565b915050606083015161254e606086018261246f565b509392505050565b6001600160a01b0391909116815260200190565b6001600160a01b039384168152919092166020820152604081019190915260600190565b6001600160a01b03929092168252602082015260400190565b6020808252825182820181905260009190848201906040850190845b818110156125e85783516001600160a01b0316835292840192918401916001016125c3565b50909695505050505050565b90815260200190565b6000606082526126106060830186612475565b82810360208401526126228186612475565b915050826040830152949350505050565b6020808252601f908201527f5472616e73666572206f6620696e70757420746f6b656e73206661696c656400604082015260600190565b602080825260139082015272141bdbdb081b9bdd081c9959da5cdd195c9959606a1b604082015260600190565b6020808252601f908201527f5265656e7472616e637947756172643a207265656e7472616e742063616c6c00604082015260600190565b6000602082528251604060208401526126ea60608401826124c0565b90506020840151601f1984830301604085015261270782826124c0565b95945050505050565b60405181810167ffffffffffffffff8111828210171561273257612732612891565b604052919050565b600067ffffffffffffffff82111561275457612754612891565b5060209081020190565b600082198211156127715761277161287b565b500190565b60008261279157634e487b7160e01b81526012600452602481fd5b500490565b60008160001904831182151516156127b0576127b061287b565b500290565b60008083128015600160ff1b8501841216156127d3576127d361287b565b6001600160ff1b03840183138116156127ee576127ee61287b565b50500390565b6000828210156128065761280661287b565b500390565b60028104600182168061281f57607f821691505b6020821081141561284057634e487b7160e01b600052602260045260246000fd5b50919050565b600060001982141561285a5761285a61287b565b5060010190565b6000600160ff1b8214156128775761287761287b565b0390565b634e487b7160e01b600052601160045260246000fd5b634e487b7160e01b600052604160045260246000fd5b6001600160a01b03811681146128bc57600080fd5b5056fea26469706673582212208c5f6a36842f85128016ba126d71fb8a40b3a1ed5476cb58b5225b9dddba602964736f6c63430008000033",
  "immutableReferences": {
    "1594": [
      {
        "length": 32,
        "start": 771
      },
      {
        "length": 32,
        "start": 1058
      },
      {
        "length": 32,
        "start": 2369
      },
      {
        "length": 32,
        "start": 2656
      },
      {
        "length": 32,
        "start": 3812
      },
      {
        "length": 32,
        "start": 4076
      }
    ]
  },
  "source": "// SPDX-License-Identifier: MIT\n\npragma solidity ^0.8.0;\npragma experimental ABIEncoderV2;\n\nimport \"./base/BaseWeightedUtils.sol\";\nimport \"./lib/WeightedPool.sol\";\n// import \"@balancer-labs/pool-weighted/contracts/WeightedPool.sol\";\nimport \"@balancer-labs/interfaces/contracts/vault/IVault.sol\";\nimport \"./lib/WeightedPoolNoAMFactory.sol\";\nimport \"./lib/ReserveToken.sol\";\n\ncontract WeightedReserveController is BaseWeightedUtils {\n\n    address private constant RESERVE_TOKEN = 0x7d9d314Ee8183653F800e551030d0b27663A1557;\n\n    struct TradeValues {\n        IWeightedPool collateral;\n        bytes32 poolId;\n        int [] tokenPrices;\n        uint256 [] normalizedWeights;\n        IERC20 [] tokens;\n        uint256 [] balances;\n        IAsset [] assets;\n    }\n\n    address [] private registeredPools;\n    mapping(address => bool) private registeredPoolsMapping;\n\n    address internal immutable weightedPoolNoAMFactory;\n\n    /**\n     * @notice Constructor for the controller base class\n     *\n     * @param vaultAddress - Vault contract address\n     * @param supportedWeightedPoolNoAMFactory - ManegedPoolFactory address\n     */\n    constructor(address vaultAddress, address supportedWeightedPoolNoAMFactory)\n    BaseWeightedUtils(vaultAddress) {\n        manager = msg.sender;\n        weightedPoolNoAMFactory = supportedWeightedPoolNoAMFactory;\n    }\n\n    /**\n     * @notice returns a list of registered pools\n     *\n     */\n    function getRegisteredPools() public view returns (address [] memory) {\n        return registeredPools;\n    }\n\n    /**\n     * @notice Register weighted pool\n     *\n     * @param weightedPool - Address of pool being worked on.\n     */\n    function registerWeightedPool(\n        address weightedPool\n    ) public restricted {\n        registeredPools.push(weightedPool);\n        registeredPoolsMapping[weightedPool] = true;\n    }\n\n    /**\n     * @notice Deregister weighted pool\n     *\n     * @param weightedPool - Address of pool being worked on.\n     */\n    function deRegisterWeightedPool(\n        address weightedPool\n    ) public restricted {\n        removeByValue(weightedPool);\n        registeredPoolsMapping[weightedPool] = false;\n    }\n\n    /**\n     * @notice This function is used for pools containing two tokens.\n     * It takes in a collateral token such as BPT, calculates an equal\n     * value amount of the reserve token such as G$ then mints and returns it.\n     *\n     * @param tokenIn - Address of collateral token\n     * @param amountIn - The amount being traded\n     * @param recipient - Address of person to receive the reserve tokens\n     */\n    function buyReserveToken(\n        address tokenIn,\n        uint256 amountIn,\n        address recipient\n    ) public   {\n        // Retrieve a list of tokens, balances and normalised weights for the pool\n        TradeValues memory tradeValues;\n        tradeValues.collateral = IWeightedPool(tokenIn);\n        IERC20 collateral = IERC20(tokenIn);\n\n        // Calculate the buyers share of the pool\n        uint256 totalSupply = collateral.totalSupply();\n        uint256 buyersShare = amountIn / totalSupply;\n\n        tradeValues.poolId = tradeValues.collateral.getPoolId();\n        vault.getPool(tradeValues.poolId);\n        tradeValues.normalizedWeights = tradeValues\n            .collateral\n            .getNormalizedWeights();\n\n        (tradeValues.tokens, tradeValues.balances, ) = vault.getPoolTokens(\n            tradeValues.poolId\n        );\n        \n        tradeValues.assets = SupportLib._convertERC20sToAssets(\n            tradeValues.tokens\n        );\n\n        // Calculate token prices using Chainlink. All prices are to 8 decimal places.\n        tradeValues.tokenPrices = new int[](tradeValues.tokens.length);\n        for (uint256 i = 0; i < tradeValues.tokens.length; i++) {\n            if (tradeValues.balances [i] > 0) {\n                tradeValues.tokenPrices [i] = getTokenPrice(address(tradeValues.tokens [i]));\n            }\n            else\n            {\n                tradeValues.tokenPrices [i] = 0;\n            }\n        }\n\n        // Calculate the total value of the pool\n        uint256 totalPoolValue = 0;\n        for (uint256 i = 0; i < tradeValues.tokens.length; i++) {\n            totalPoolValue =\n                totalPoolValue +\n                (tradeValues.balances [i] * uint256(tradeValues.tokenPrices [i]));\n        }\n\n        // Calculate supplied token value\n        uint256 buyersShareValue = buyersShare * totalPoolValue;\n        ReserveToken reserveToken = ReserveToken(\n            RESERVE_TOKEN\n        );\n\n        require(\n            collateral.transferFrom(msg.sender, address(this), amountIn),\n            \"Transfer of input tokens failed\"\n        );\n\n        // Mint and Transfer the output tokens from this contract to the recipient, assuming reserve token is worth $1\n        reserveToken.mint(recipient, buyersShareValue * (10 ** 18));\n    }\n    \n    /**\n     * @notice Runs a check and transfers reserve tokens as needed\n     * @dev To avoid too many fees, this should be run at wide intervals such as daily\n     *\n     * @param pool - Address of collateral token\n     * @param amountIn - The amount being traded\n     * @param recipient - Address of person to receive the swapped tokens\n     */\n    function sellReserveToken(\n        address pool,\n        uint256 amountIn,\n        address recipient\n    ) public nonReentrant checkPoolSupported(pool) {\n        // Retrieve a list of tokens, balances and normalised weights for the pool\n        TradeValues memory tradeValues;\n        tradeValues.collateral = IWeightedPool(pool);\n        IERC20 bptToken = IERC20(pool);\n        uint256 totalSupply = bptToken.totalSupply();\n\n        tradeValues.poolId = tradeValues.collateral.getPoolId();\n        vault.getPool(tradeValues.poolId);\n        tradeValues.normalizedWeights = tradeValues\n            .collateral\n            .getNormalizedWeights();\n\n        (tradeValues.tokens, tradeValues.balances, ) = vault.getPoolTokens(\n            tradeValues.poolId\n        );\n        tradeValues.assets = SupportLib._convertERC20sToAssets(\n            tradeValues.tokens\n        );\n\n        // Calculate token prices using Chainlink. All prices are to 8 decimal places.\n        tradeValues.tokenPrices = new int[](tradeValues.tokens.length);\n        for (uint256 i = 0; i < tradeValues.tokens.length; i++) {\n            if (tradeValues.balances [i] > 0) {\n                tradeValues.tokenPrices [i] = getTokenPrice(address(tradeValues.tokens [i]));\n            }\n            else\n            {\n                tradeValues.tokenPrices [i] = 0;\n            }\n        }\n\n        // Calculate the total value of the pool\n        uint256 totalPoolValue = 0;\n        for (uint256 i = 0; i < tradeValues.tokens.length; i++) {\n            totalPoolValue =\n                totalPoolValue +\n                (tradeValues.balances [i] * uint256(tradeValues.tokenPrices [i]));\n        }\n\n        // Calculate supplied token value\n        uint256 myShare = amountIn / totalSupply;\n        uint256 myBptAmount = myShare * totalSupply;\n\n        // Transfer the input tokens from the sender to this contract\n        IERC20 reserveToken = IERC20(RESERVE_TOKEN);\n        require(\n            reserveToken.transferFrom(msg.sender, address(this), amountIn),\n            \"Transfer of input tokens failed\"\n        );\n\n        // Transfer the output tokens from this contract to the recipient\n        bptToken.transfer(recipient, myBptAmount * (10 ** 18));\n    }\n\n    /**\n     * @notice returns the array index containing supplied address\n     *\n     * @param value - Address to find\n     */\n    function find(address value) private view returns (uint) {\n        for(uint i = 0; i < registeredPools.length; i++) {\n            if(registeredPools[i] == value) {\n                return i; \n            }\n        }\n\n        return registeredPools.length;\n    }\n\n    /**\n     * @notice removes supplied address from array of addresses\n     *\n     * @param value - Address to look up and remove element\n     */\n    function removeByValue(address value) private {\n        registeredPoolsMapping[value] = false;\n        uint i = find(value);\n        removeByIndex(i);\n    }\n\n    /**\n     * @notice remove the item at index, resizing array as needed\n     *\n     * @param i - Index to remove\n     */\n    function removeByIndex(uint i) private {\n        while (i < registeredPools.length - 1) {\n            registeredPools [i] = registeredPools [i + 1];\n            i++;\n        }\n        registeredPools.pop();\n    }\n\n    /**\n     * @dev Modifier to check token allowance\n     *\n     * @param supportedWeightedPool - Weighted pool address to remove\n     */\n    modifier checkPoolSupported(address supportedWeightedPool) {\n        require(registeredPoolsMapping[supportedWeightedPool], \"Pool not registered\");\n        _;\n    }\n}\n",
  "sourcePath": "/home/eagle/Source/BalancerController/Balancer.Controller/contracts/WeightedReserveController.sol",
  "compiler": {
    "name": "solc",
    "version": "0.8.0+commit.c7dfd78e.Emscripten.clang"
  },
  "schemaVersion": "3.4.13",
  "updatedAt": "2023-09-21T23:20:24.721Z",
  "networkType": "ethereum",
  "devdoc": {
    "kind": "dev",
    "methods": {
      "buyReserveToken(address,uint256,address)": {
        "params": {
          "amountIn": "- The amount being traded",
          "recipient": "- Address of person to receive the reserve tokens",
          "tokenIn": "- Address of collateral token"
        }
      },
      "calculateBalancing(address)": {
        "params": {
          "poolAddress": "- Address of pool being worked on."
        }
      },
      "constructor": {
        "params": {
          "supportedWeightedPoolNoAMFactory": "- ManegedPoolFactory address",
          "vaultAddress": "- Vault contract address"
        }
      },
      "deRegisterWeightedPool(address)": {
        "params": {
          "weightedPool": "- Address of pool being worked on."
        }
      },
      "getTokenPrice(address)": {
        "params": {
          "value": "- Address to find"
        }
      },
      "registerWeightedPool(address)": {
        "params": {
          "weightedPool": "- Address of pool being worked on."
        }
      },
      "sellReserveToken(address,uint256,address)": {
        "details": "To avoid too many fees, this should be run at wide intervals such as daily",
        "params": {
          "amountIn": "- The amount being traded",
          "pool": "- Address of collateral token",
          "recipient": "- Address of person to receive the swapped tokens"
        }
      },
      "transferManagement(address)": {
        "details": "Only one manager can presently be set",
        "params": {
          "supportedManager": "- New manager."
        }
      }
    },
    "version": 1
  },
  "userdoc": {
    "kind": "user",
    "methods": {
      "buyReserveToken(address,uint256,address)": {
        "notice": "This function is used for pools containing two tokens. It takes in a collateral token such as BPT, calculates an equal value amount of the reserve token such as G$ then mints and returns it."
      },
      "calculateBalancing(address)": {
        "notice": "Calculates a number of tokens to add or remove to rebalance pricing"
      },
      "constructor": {
        "notice": "Constructor for the controller base class"
      },
      "deRegisterWeightedPool(address)": {
        "notice": "Deregister weighted pool"
      },
      "getRegisteredPools()": {
        "notice": "returns a list of registered pools"
      },
      "getTokenPrice(address)": {
        "notice": "returns the oracle supplied price for the requested token"
      },
      "registerWeightedPool(address)": {
        "notice": "Register weighted pool"
      },
      "sellReserveToken(address,uint256,address)": {
        "notice": "Runs a check and transfers reserve tokens as needed"
      },
      "transferManagement(address)": {
        "notice": "Transfer the manager to a new address"
      }
    },
    "version": 1
  }
}