{
  "contractName": "WeightedBondingCurveController",
  "abi": [
    {
      "inputs": [
        {
          "internalType": "address",
          "name": "vaultAddress",
          "type": "address"
        },
        {
          "internalType": "address",
          "name": "supportedWeightedPoolNoAMFactory",
          "type": "address"
        }
      ],
      "stateMutability": "nonpayable",
      "type": "constructor"
    },
    {
      "anonymous": false,
      "inputs": [
        {
          "indexed": false,
          "internalType": "address",
          "name": "account",
          "type": "address"
        }
      ],
      "name": "Paused",
      "type": "event"
    },
    {
      "anonymous": false,
      "inputs": [
        {
          "indexed": false,
          "internalType": "address",
          "name": "account",
          "type": "address"
        }
      ],
      "name": "Unpaused",
      "type": "event"
    },
    {
      "inputs": [],
      "name": "PERCENTAGE_DENOMINATOR",
      "outputs": [
        {
          "internalType": "uint256",
          "name": "",
          "type": "uint256"
        }
      ],
      "stateMutability": "view",
      "type": "function"
    },
    {
      "inputs": [
        {
          "internalType": "address",
          "name": "manager",
          "type": "address"
        }
      ],
      "name": "addManager",
      "outputs": [],
      "stateMutability": "nonpayable",
      "type": "function"
    },
    {
      "inputs": [
        {
          "internalType": "address",
          "name": "poolAddress",
          "type": "address"
        }
      ],
      "name": "calculateBalancing",
      "outputs": [
        {
          "components": [
            {
              "components": [
                {
                  "internalType": "contract IAsset[]",
                  "name": "assets",
                  "type": "address[]"
                },
                {
                  "internalType": "uint256[]",
                  "name": "minAmountsOut",
                  "type": "uint256[]"
                },
                {
                  "internalType": "bytes",
                  "name": "userData",
                  "type": "bytes"
                },
                {
                  "internalType": "bool",
                  "name": "toInternalBalance",
                  "type": "bool"
                }
              ],
              "internalType": "struct IVault.ExitPoolRequest",
              "name": "newExitRequest",
              "type": "tuple"
            },
            {
              "components": [
                {
                  "internalType": "contract IAsset[]",
                  "name": "assets",
                  "type": "address[]"
                },
                {
                  "internalType": "uint256[]",
                  "name": "maxAmountsIn",
                  "type": "uint256[]"
                },
                {
                  "internalType": "bytes",
                  "name": "userData",
                  "type": "bytes"
                },
                {
                  "internalType": "bool",
                  "name": "fromInternalBalance",
                  "type": "bool"
                }
              ],
              "internalType": "struct IVault.JoinPoolRequest",
              "name": "newJoinRequest",
              "type": "tuple"
            }
          ],
          "internalType": "struct PoolAdjustments",
          "name": "",
          "type": "tuple"
        }
      ],
      "stateMutability": "view",
      "type": "function"
    },
    {
      "inputs": [
        {
          "internalType": "string",
          "name": "name",
          "type": "string"
        },
        {
          "internalType": "string",
          "name": "symbol",
          "type": "string"
        },
        {
          "internalType": "address[]",
          "name": "tokens",
          "type": "address[]"
        },
        {
          "internalType": "uint256[]",
          "name": "normalizedWeights",
          "type": "uint256[]"
        },
        {
          "internalType": "uint256",
          "name": "swapFeePercentage",
          "type": "uint256"
        },
        {
          "internalType": "uint256",
          "name": "tolerance",
          "type": "uint256"
        }
      ],
      "name": "createPool",
      "outputs": [],
      "stateMutability": "nonpayable",
      "type": "function"
    },
    {
      "inputs": [
        {
          "internalType": "uint256",
          "name": "amount",
          "type": "uint256"
        },
        {
          "internalType": "address",
          "name": "tokenAddress",
          "type": "address"
        }
      ],
      "name": "depositTokens",
      "outputs": [],
      "stateMutability": "nonpayable",
      "type": "function"
    },
    {
      "inputs": [],
      "name": "getPoolsUnderManagement",
      "outputs": [
        {
          "internalType": "address[]",
          "name": "",
          "type": "address[]"
        }
      ],
      "stateMutability": "view",
      "type": "function"
    },
    {
      "inputs": [
        {
          "internalType": "address",
          "name": "tokenAddress",
          "type": "address"
        }
      ],
      "name": "getTokenPrice",
      "outputs": [
        {
          "internalType": "int256",
          "name": "",
          "type": "int256"
        }
      ],
      "stateMutability": "view",
      "type": "function"
    },
    {
      "inputs": [
        {
          "internalType": "address",
          "name": "",
          "type": "address"
        }
      ],
      "name": "isManager",
      "outputs": [
        {
          "internalType": "bool",
          "name": "",
          "type": "bool"
        }
      ],
      "stateMutability": "view",
      "type": "function"
    },
    {
      "inputs": [],
      "name": "pause",
      "outputs": [],
      "stateMutability": "nonpayable",
      "type": "function"
    },
    {
      "inputs": [],
      "name": "paused",
      "outputs": [
        {
          "internalType": "bool",
          "name": "",
          "type": "bool"
        }
      ],
      "stateMutability": "view",
      "type": "function"
    },
    {
      "inputs": [
        {
          "internalType": "address",
          "name": "manager",
          "type": "address"
        }
      ],
      "name": "removeManager",
      "outputs": [],
      "stateMutability": "nonpayable",
      "type": "function"
    },
    {
      "inputs": [
        {
          "internalType": "address",
          "name": "token",
          "type": "address"
        },
        {
          "internalType": "address",
          "name": "feed",
          "type": "address"
        }
      ],
      "name": "setTokenFeed",
      "outputs": [],
      "stateMutability": "nonpayable",
      "type": "function"
    },
    {
      "inputs": [
        {
          "internalType": "address",
          "name": "",
          "type": "address"
        }
      ],
      "name": "tokenFeeds",
      "outputs": [
        {
          "internalType": "address",
          "name": "",
          "type": "address"
        }
      ],
      "stateMutability": "view",
      "type": "function"
    },
    {
      "inputs": [],
      "name": "unpause",
      "outputs": [],
      "stateMutability": "nonpayable",
      "type": "function"
    },
    {
      "inputs": [],
      "name": "weightedPoolNoAMFactory",
      "outputs": [
        {
          "internalType": "contract WeightedPoolNoAMFactory",
          "name": "",
          "type": "address"
        }
      ],
      "stateMutability": "view",
      "type": "function"
    },
    {
      "inputs": [
        {
          "internalType": "address",
          "name": "",
          "type": "address"
        }
      ],
      "name": "weightedPools",
      "outputs": [
        {
          "internalType": "string",
          "name": "poolName",
          "type": "string"
        },
        {
          "internalType": "string",
          "name": "poolSymbol",
          "type": "string"
        },
        {
          "internalType": "uint256",
          "name": "tolerance",
          "type": "uint256"
        }
      ],
      "stateMutability": "view",
      "type": "function"
    },
    {
      "inputs": [
        {
          "internalType": "address",
          "name": "recipientAddress",
          "type": "address"
        },
        {
          "internalType": "address",
          "name": "tokenAddress",
          "type": "address"
        },
        {
          "internalType": "uint256",
          "name": "amount",
          "type": "uint256"
        }
      ],
      "name": "withdrawFunds",
      "outputs": [],
      "stateMutability": "nonpayable",
      "type": "function"
    },
    {
      "inputs": [
        {
          "internalType": "address",
          "name": "poolAddress",
          "type": "address"
        }
      ],
      "name": "runCheck",
      "outputs": [],
      "stateMutability": "nonpayable",
      "type": "function"
    }
  ],
  "bytecode": "0x60c06040523480156200001157600080fd5b50604051620025153803806200251583398101604081905262000034916200026e565b60016000818155815460ff1990811683556001600160601b0319606095861b81166080523383526003602090815260408420805490931690941790915560049092527f4f03f9165518d56b1edfdd10086a224460eb561524700361535e7e33be96dcdb80546001600160a01b031990811673128fe88eaa22bffb868bb3a584a54c96ee24014b179091557f7c0f9c8dca1139a9f62829fbc69c87f447f6c9d58f7b4cca1418da9c87a8886180548216730568fd19986748ceff3301e55c0eb1e729e0ab7e1790557f5bb005e3c44990943f9b77709d1ca1ed9bc660cfbf374a504a6d191a3edaa5c380548216731fcd30a73d67639c1cd89ff5746e7585731c083b1790557f47691a5a6d629e9672ee2df080468d466c301da2a465fe573fd65a3c84d15c8a80548216733d207061dbe8e2473527611bfecb87ff12b28dda1790557fe33db47f537c02d221c929da92d89f75e426a15b7c9f16a718c55e68e8bf0fc080548216736b6a4c71ec3858a024f3f0ee44bb0adcbed3dcc21790557f397452e5ccea6f50840044864e50258652019f6f308472bf18c4bf7e5e0c062f8054821673c7a353bae210aed958a1a2928b654938ec59dab217905573f6d198cd2a85bb2f3021cdbdab6b878474079be79091527fb5306958d449a4b127cb1c34c787089b226157ae8f211b96ca684eb7a1156c928054909116735e37af40a7a344ec9b03ccd34a250f3da9a20b02179055911b1660a052620002a5565b80516001600160a01b03811681146200026957600080fd5b919050565b6000806040838503121562000281578182fd5b6200028c8362000251565b91506200029c6020840162000251565b90509250929050565b60805160601c60a05160601c61222f620002e660003960008181611019015261112101526000818161054b015281816105d60152610881015261222f6000f3fe608060405234801561001057600080fd5b50600436106101165760003560e01c806387ef019a116100a2578063cb3e65f811610071578063cb3e65f81461021c578063d02641a01461022f578063d62e368114610242578063d87ac65f14610264578063f3ae24151461027757610116565b806387ef019a146101cc5780638c0a2e83146101df578063ac18de43146101f4578063b3cd42541461020757610116565b80634f6300a2116100e95780634f6300a21461015e5780634fed9acd146101715780635c975abb1461019a5780638456cb59146101af5780638722081a146101b757610116565b80631c20fadd1461011b5780632d06177a146101305780633f4ba83a146101435780634e4858d91461014b575b600080fd5b61012e61012936600461194f565b61028a565b005b61012e61013e3660046118df565b61035b565b61012e61040d565b61012e6101593660046118df565b610446565b61012e61016c366004611b88565b610653565b61018461017f3660046118df565b6107c3565b6040516101919190612062565b60405180910390f35b6101a2610f18565b6040516101919190611dd2565b61012e610f21565b6101bf610f58565b6040516101919190611dbf565b61012e6101da366004611917565b610fba565b6101e7611017565b6040516101919190611d54565b61012e6102023660046118df565b61103b565b61020f6110c3565b6040516101919190611ddd565b61012e61022a366004611ace565b6110c8565b61020f61023d3660046118df565b611297565b6102556102503660046118df565b611357565b60405161019193929190611e93565b6101e76102723660046118df565b611489565b6101a26102853660046118df565b6114a4565b3360009081526003602052604090205460ff166102c25760405162461bcd60e51b81526004016102b990611f4a565b60405180910390fd5b6102ca6114b9565b60405163a9059cbb60e01b815282906001600160a01b0382169063a9059cbb906102fa9087908690600401611da6565b602060405180830381600087803b15801561031457600080fd5b505af1158015610328573d6000803e3d6000fd5b505050506040513d601f19601f8201168201806040525081019061034c9190611a96565b50506103566114e3565b505050565b3360009081526003602052604090205460ff1661038a5760405162461bcd60e51b81526004016102b990611f4a565b6001600160a01b0381166103b05760405162461bcd60e51b81526004016102b990611ef7565b6001600160a01b03811660009081526003602052604090205460ff16156103e95760405162461bcd60e51b81526004016102b990611f9e565b6001600160a01b03166000908152600360205260409020805460ff19166001179055565b3360009081526003602052604090205460ff1661043c5760405162461bcd60e51b81526004016102b990611f4a565b6104446114ea565b565b3360009081526003602052604090205460ff166104755760405162461bcd60e51b81526004016102b990611f4a565b61047d6114b9565b6000610488826107c3565b6020808201518101515182519091015151919250151590151581806104aa5750805b156106455760008490506000816001600160a01b03166338fff2d06040518163ffffffff1660e01b815260040160206040518083038186803b1580156104ef57600080fd5b505afa158015610503573d6000803e3d6000fd5b505050506040513d601f19601f820116820180604052508101906105279190611ab6565b905083156105b757602085015160405163172b958560e31b81526001600160a01b037f0000000000000000000000000000000000000000000000000000000000000000169163b95cac289161058491859130918c91600401611de6565b600060405180830381600087803b15801561059e57600080fd5b505af11580156105b2573d6000803e3d6000fd5b505050505b8215610642578451604051638bdb391360e01b81526001600160a01b037f00000000000000000000000000000000000000000000000000000000000000001691638bdb39139161060f91859130918c91600401611de6565b600060405180830381600087803b15801561062957600080fd5b505af115801561063d573d6000803e3d6000fd5b505050505b50505b5050506106506114e3565b50565b3360009081526003602052604090205460ff166106825760405162461bcd60e51b81526004016102b990611f4a565b61068a6114b9565b604051636eb1769f60e11b815282908290819083906001600160a01b0383169063dd62ed3e906106c09033903090600401611d68565b60206040518083038186803b1580156106d857600080fd5b505afa1580156106ec573d6000803e3d6000fd5b505050506040513d601f19601f820116820180604052508101906107109190611ab6565b101561072e5760405162461bcd60e51b81526004016102b990611fd5565b6040516323b872dd60e01b815284906001600160a01b038216906323b872dd9061076090339030908b90600401611d82565b602060405180830381600087803b15801561077a57600080fd5b505af115801561078e573d6000803e3d6000fd5b505050506040513d601f19601f820116820180604052508101906107b29190611a96565b50505050506107bf6114e3565b5050565b6107cb6115f4565b3360009081526003602052604090205460ff166107fa5760405162461bcd60e51b81526004016102b990611f4a565b61080261153c565b60008290506000816001600160a01b03166338fff2d06040518163ffffffff1660e01b815260040160206040518083038186803b15801561084257600080fd5b505afa158015610856573d6000803e3d6000fd5b505050506040513d601f19601f8201168201806040525081019061087a9190611ab6565b90506000807f00000000000000000000000000000000000000000000000000000000000000006001600160a01b031663f94d4668846040518263ffffffff1660e01b81526004016108cb9190611ddd565b60006040518083038186803b1580156108e357600080fd5b505afa1580156108f7573d6000803e3d6000fd5b505050506040513d6000823e601f3d908101601f1916820160405261091f919081019061198f565b50915091506000846001600160a01b031663f89f27ed6040518163ffffffff1660e01b815260040160006040518083038186803b15801561095f57600080fd5b505afa158015610973573d6000803e3d6000fd5b505050506040513d6000823e601f3d908101601f1916820160405261099b9190810190611a5b565b90506000835167ffffffffffffffff8111156109c757634e487b7160e01b600052604160045260246000fd5b6040519080825280602002602001820160405280156109f0578160200160208202803683370190505b5090506000845167ffffffffffffffff811115610a1d57634e487b7160e01b600052604160045260246000fd5b604051908082528060200260200182016040528015610a46578160200160208202803683370190505b50905060005b8551811015610c7757610a85868281518110610a7857634e487b7160e01b600052603260045260246000fd5b6020026020010151611297565b838281518110610aa557634e487b7160e01b600052603260045260246000fd5b602002602001018181525050600080868381518110610ad457634e487b7160e01b600052603260045260246000fd5b60200260200101511115610b9c57610b99610b46868481518110610b0857634e487b7160e01b600052603260045260246000fd5b6020026020010151888581518110610b3057634e487b7160e01b600052603260045260246000fd5b602002602001015161156190919063ffffffff16565b610b9387600081518110610b6a57634e487b7160e01b600052603260045260246000fd5b602002602001015189600081518110610b3057634e487b7160e01b600052603260045260246000fd5b90611574565b90505b80848381518110610bbd57634e487b7160e01b600052603260045260246000fd5b602002602001015112610c3557610c0481858481518110610bee57634e487b7160e01b600052603260045260246000fd5b602002602001015161158090919063ffffffff16565b838381518110610c2457634e487b7160e01b600052603260045260246000fd5b602002602001018181525050610c64565b6000838381518110610c5757634e487b7160e01b600052603260045260246000fd5b6020026020010181815250505b5080610c6f81612183565b915050610a4c565b506000855167ffffffffffffffff811115610ca257634e487b7160e01b600052604160045260246000fd5b604051908082528060200260200182016040528015610ccb578160200160208202803683370190505b5090506000865167ffffffffffffffff811115610cf857634e487b7160e01b600052604160045260246000fd5b604051908082528060200260200182016040528015610d21578160200160208202803683370190505b506001600160a01b038c16600090815260026020819052604082200154919250908190815b8a51811015610e7d5781878281518110610d7057634e487b7160e01b600052603260045260246000fd5b602002602001015112610ddb57610da66064610b93848d8581518110610b3057634e487b7160e01b600052603260045260246000fd5b858281518110610dc657634e487b7160e01b600052603260045260246000fd5b60200260200101818152505060019250610e6b565b610de48261219e565b878281518110610e0457634e487b7160e01b600052603260045260246000fd5b602002602001015113610e6b57610e3a6064610b93848d8581518110610b3057634e487b7160e01b600052603260045260246000fd5b868281518110610e5a57634e487b7160e01b600052603260045260246000fd5b602002602001018181525050600193505b80610e7581612183565b915050610d46565b506000610e898b61158c565b9050610e936115f4565b8315610eca576040805160808101825283815260208082018990528251908101835260008152918101919091526001606082015281525b8415610f03576040805160808101825283815260208082018a905282518082018452600081529282019290925260016060820152908201525b9d50505050505050505050505050505b919050565b60015460ff1690565b3360009081526003602052604090205460ff16610f505760405162461bcd60e51b81526004016102b990611f4a565b61044461158f565b60606005805480602002602001604051908101604052809291908181526020018280548015610fb057602002820191906000526020600020905b81546001600160a01b03168152600190910190602001808311610f92575b5050505050905090565b3360009081526003602052604090205460ff16610fe95760405162461bcd60e51b81526004016102b990611f4a565b6001600160a01b03918216600090815260046020526040902080546001600160a01b03191691909216179055565b7f000000000000000000000000000000000000000000000000000000000000000081565b3360009081526003602052604090205460ff1661106a5760405162461bcd60e51b81526004016102b990611f4a565b6001600160a01b03811660009081526003602052604090205460ff166110a25760405162461bcd60e51b81526004016102b990611ff4565b6001600160a01b03166000908152600360205260409020805460ff19169055565b606481565b3360009081526003602052604090205460ff166110f75760405162461bcd60e51b81526004016102b990611f4a565b6110ff61153c565b6111076114b9565b60405163fbce039360e01b81526000906001600160a01b037f0000000000000000000000000000000000000000000000000000000000000000169063fbce039390611160908a908a908a908a908a903090600401611e22565b602060405180830381600087803b15801561117a57600080fd5b505af115801561118e573d6000803e3d6000fd5b505050506040513d601f19601f820116820180604052508101906111b291906118fb565b60058054600181019091557f036b6384b5eca791c62761152d0c79bb0604c104a5fb6f4eb0703f3154bb3db00180546001600160a01b0319166001600160a01b0383169081179091556000908152600260209081526040909120895192935061121f9290918a0190611619565b506001600160a01b0381166000908152600260209081526040909120875161124f92600190920191890190611619565b506001600160a01b038116600090815260026020818152604090922090810184905586516112859260039092019188019061169d565b505061128f6114e3565b505050505050565b6001600160a01b03808216600090815260046020526040812054909116806112d15760405162461bcd60e51b81526004016102b990611f71565b60008190506000816001600160a01b031663feaf968c6040518163ffffffff1660e01b815260040160a06040518083038186803b15801561131157600080fd5b505afa158015611325573d6000803e3d6000fd5b505050506040513d601f19601f820116820180604052508101906113499190611bac565b509198975050505050505050565b60026020526000908152604090208054819061137290612148565b80601f016020809104026020016040519081016040528092919081815260200182805461139e90612148565b80156113eb5780601f106113c0576101008083540402835291602001916113eb565b820191906000526020600020905b8154815290600101906020018083116113ce57829003601f168201915b50505050509080600101805461140090612148565b80601f016020809104026020016040519081016040528092919081815260200182805461142c90612148565b80156114795780601f1061144e57610100808354040283529160200191611479565b820191906000526020600020905b81548152906001019060200180831161145c57829003601f168201915b5050505050908060020154905083565b6004602052600090815260409020546001600160a01b031681565b60036020526000908152604090205460ff1681565b600260005414156114dc5760405162461bcd60e51b81526004016102b99061202b565b6002600055565b6001600055565b6114f26115cc565b6001805460ff191690557f5db9ee0a495bf2e6ff9c91a7834c1ba4fdd244a5e8aa4e537bd38aeae4b073aa6115256115f0565b6040516115329190611d54565b60405180910390a1565b611544610f18565b156104445760405162461bcd60e51b81526004016102b990611f20565b600061156d8284612112565b9392505050565b600061156d82846120f2565b600061156d8284612131565b90565b61159761153c565b6001805460ff1916811790557f62e78cea01bee320cd4e420270b5ea74000d11b0c9f74754ebdbfc544b05a2586115256115f0565b6115d4610f18565b6104445760405162461bcd60e51b81526004016102b990611ec9565b3390565b60405180604001604052806116076116f2565b81526020016116146116f2565b905290565b82805461162590612148565b90600052602060002090601f016020900481019282611647576000855561168d565b82601f1061166057805160ff191683800117855561168d565b8280016001018555821561168d579182015b8281111561168d578251825591602001919060010190611672565b5061169992915061171c565b5090565b82805482825590600052602060002090810192821561168d579160200282015b8281111561168d57825182546001600160a01b0319166001600160a01b039091161782556020909201916001909101906116bd565b60405180608001604052806060815260200160608152602001606081526020016000151581525090565b5b80821115611699576000815560010161171d565b600082601f830112611741578081fd5b81356020611756611751836120ce565b6120a4565b8281528181019085830183850287018401881015611772578586fd5b855b85811015611799578135611787816121e4565b84529284019290840190600101611774565b5090979650505050505050565b600082601f8301126117b6578081fd5b813560206117c6611751836120ce565b82815281810190858301838502870184018810156117e2578586fd5b855b85811015611799578135845292840192908401906001016117e4565b600082601f830112611810578081fd5b81516020611820611751836120ce565b828152818101908583018385028701840188101561183c578586fd5b855b858110156117995781518452928401929084019060010161183e565b600082601f83011261186a578081fd5b813567ffffffffffffffff811115611884576118846121ce565b611897601f8201601f19166020016120a4565b8181528460208386010111156118ab578283fd5b816020850160208301379081016020019190915292915050565b805169ffffffffffffffffffff81168114610f1357600080fd5b6000602082840312156118f0578081fd5b813561156d816121e4565b60006020828403121561190c578081fd5b815161156d816121e4565b60008060408385031215611929578081fd5b8235611934816121e4565b91506020830135611944816121e4565b809150509250929050565b600080600060608486031215611963578081fd5b833561196e816121e4565b9250602084013561197e816121e4565b929592945050506040919091013590565b6000806000606084860312156119a3578283fd5b835167ffffffffffffffff808211156119ba578485fd5b818601915086601f8301126119cd578485fd5b815160206119dd611751836120ce565b82815281810190858301838502870184018c10156119f957898afd5b8996505b84871015611a24578051611a10816121e4565b8352600196909601959183019183016119fd565b5091890151919750909350505080821115611a3d578384fd5b50611a4a86828701611800565b925050604084015190509250925092565b600060208284031215611a6c578081fd5b815167ffffffffffffffff811115611a82578182fd5b611a8e84828501611800565b949350505050565b600060208284031215611aa7578081fd5b8151801515811461156d578182fd5b600060208284031215611ac7578081fd5b5051919050565b60008060008060008060c08789031215611ae6578384fd5b863567ffffffffffffffff80821115611afd578586fd5b611b098a838b0161185a565b97506020890135915080821115611b1e578586fd5b611b2a8a838b0161185a565b96506040890135915080821115611b3f578586fd5b611b4b8a838b01611731565b95506060890135915080821115611b60578384fd5b50611b6d89828a016117a6565b9350506080870135915060a087013590509295509295509295565b60008060408385031215611b9a578182fd5b823591506020830135611944816121e4565b600080600080600060a08688031215611bc3578283fd5b611bcc866118c5565b9450602086015193506040860151925060608601519150611bef608087016118c5565b90509295509295909350565b6000815180845260208085019450808401835b83811015611c335781516001600160a01b031687529582019590820190600101611c0e565b509495945050505050565b6000815180845260208085019450808401835b83811015611c3357815187529582019590820190600101611c51565b15159052565b60008151808452815b81811015611c9857602081850181015186830182015201611c7c565b81811115611ca95782602083870101525b50601f01601f19169290920160200192915050565b8051608080845281519084018190526000916020919082019060a0860190845b81811015611d035783516001600160a01b031683529284019291840191600101611cde565b505082850151915085810383870152611d1c8183611c3e565b9250505060408301518482036040860152611d378282611c73565b9150506060830151611d4c6060860182611c6d565b509392505050565b6001600160a01b0391909116815260200190565b6001600160a01b0392831681529116602082015260400190565b6001600160a01b039384168152919092166020820152604081019190915260600190565b6001600160a01b03929092168252602082015260400190565b60006020825261156d6020830184611bfb565b901515815260200190565b90815260200190565b8481526001600160a01b03848116602083015283166040820152608060608201819052600090611e1890830184611cbe565b9695505050505050565b600060c08252611e3560c0830189611c73565b8281036020840152611e478189611c73565b90508281036040840152611e5b8188611bfb565b90508281036060840152611e6f8187611c3e565b608084019590955250506001600160a01b039190911660a090910152949350505050565b600060608252611ea66060830186611c73565b8281036020840152611eb88186611c73565b915050826040830152949350505050565b60208082526014908201527314185d5cd8589b194e881b9bdd081c185d5cd95960621b604082015260600190565b6020808252600f908201526e496e76616c6964206164647265737360881b604082015260600190565b60208082526010908201526f14185d5cd8589b194e881c185d5cd95960821b604082015260600190565b6020808252600d908201526c2737ba10309036b0b730b3b2b960991b604082015260600190565b602080825260139082015272151bdad95b881b9bdd081cdd5c1c1bdc9d1959606a1b604082015260600190565b6020808252601c908201527f4164647265737320697320616c72656164792061206d616e6167657200000000604082015260600190565b60208082526005908201526422b93937b960d91b604082015260600190565b60208082526017908201527f416464726573732069736e27742061206d616e61676572000000000000000000604082015260600190565b6020808252601f908201527f5265656e7472616e637947756172643a207265656e7472616e742063616c6c00604082015260600190565b60006020825282516040602084015261207e6060840182611cbe565b90506020840151601f1984830301604085015261209b8282611cbe565b95945050505050565b60405181810167ffffffffffffffff811182821017156120c6576120c66121ce565b604052919050565b600067ffffffffffffffff8211156120e8576120e86121ce565b5060209081020190565b60008261210d57634e487b7160e01b81526012600452602481fd5b500490565b600081600019048311821515161561212c5761212c6121b8565b500290565b600082821015612143576121436121b8565b500390565b60028104600182168061215c57607f821691505b6020821081141561217d57634e487b7160e01b600052602260045260246000fd5b50919050565b6000600019821415612197576121976121b8565b5060010190565b6000600160ff1b8214156121b4576121b46121b8565b0390565b634e487b7160e01b600052601160045260246000fd5b634e487b7160e01b600052604160045260246000fd5b6001600160a01b038116811461065057600080fdfea26469706673582212206cff654991cd2fd7eb6b5638abc56f735a7abdf381f77e486b2c4c24048baae464736f6c63430008000033",
  "immutableReferences": {
    "4287": [
      {
        "length": 32,
        "start": 4121
      },
      {
        "length": 32,
        "start": 4385
      }
    ],
    "4527": [
      {
        "length": 32,
        "start": 1355
      },
      {
        "length": 32,
        "start": 1494
      },
      {
        "length": 32,
        "start": 2177
      }
    ]
  },
  "source": "// SPDX-License-Identifier: MIT\n\npragma solidity ^0.8.0;\n\nimport \"./base/BaseWeightedController.sol\";\nimport \"./lib/SupportLib.sol\";\n\ncontract WeightedBondingCurveController is BaseWeightedController {\n\n    /**\n     * @notice Constructor for the controller implementation class\n     *\n     * @param vaultAddress - Vault contract address\n     * @param supportedWeightedPoolNoAMFactory - Weighted pool contract address\n     */\n    constructor(\n        address vaultAddress,\n        address supportedWeightedPoolNoAMFactory\n    ) BaseWeightedController(vaultAddress, supportedWeightedPoolNoAMFactory) {}\n\n    /**\n     * @notice Runs a check and transfers reserve tokens as needed\n     * @dev To avoid too many fees, this should be run at wide intervals such as daily\n     *\n     * @param poolAddress - Address of pool being worked on.\n     */\n    function runCheck(address poolAddress) external onlyManager nonReentrant {\n        PoolAdjustments memory poolAdjustments = calculateBalancing(poolAddress);\n        \n        // Boolean flags can make the code clearer and more optimized.\n        bool shouldJoin = poolAdjustments.newJoinRequest.maxAmountsIn.length > 0;\n        bool shouldExit = poolAdjustments.newExitRequest.minAmountsOut.length > 0;\n\n        if (shouldJoin || shouldExit) {\n            IWeightedPool weightedPool = IWeightedPool(poolAddress);\n            bytes32 poolId = weightedPool.getPoolId();\n\n            if (shouldJoin) {\n                vault.joinPool(\n                    poolId,\n                    address(this),\n                    payable(poolAddress),\n                    poolAdjustments.newJoinRequest\n                );\n            }\n\n            if (shouldExit) {\n                vault.exitPool(\n                    poolId,\n                    address(this),\n                    payable(poolAddress),\n                    poolAdjustments.newExitRequest\n                );\n            }\n        }\n    }\n}\n",
  "sourcePath": "/home/eagle/Source/BalancerController/Balancer.Controller/contracts/WeightedBondingCurveController.sol",
  "compiler": {
    "name": "solc",
    "version": "0.8.0+commit.c7dfd78e.Emscripten.clang"
  },
  "schemaVersion": "3.4.13",
  "updatedAt": "2023-09-24T15:01:24.960Z",
  "networkType": "ethereum",
  "devdoc": {
    "kind": "dev",
    "methods": {
      "addManager(address)": {
        "params": {
          "manager": "- Manager to add"
        }
      },
      "calculateBalancing(address)": {
        "params": {
          "poolAddress": "- Address of pool being worked on."
        }
      },
      "constructor": {
        "params": {
          "supportedWeightedPoolNoAMFactory": "- Weighted pool contract address",
          "vaultAddress": "- Vault contract address"
        }
      },
      "createPool(string,string,address[],uint256[],uint256,uint256)": {
        "params": {
          "name": "- Pool name",
          "normalizedWeights": "- Normalized weights in the pool",
          "swapFeePercentage": "- Fee applied to swaps",
          "symbol": "- Symbol representing the pool",
          "tokens": "- Tokens in the pool",
          "tolerance": "- Percentage devience"
        }
      },
      "depositTokens(uint256,address)": {
        "details": "Transfers an amount of an ERC20 token",
        "params": {
          "amount": "- Amount to deposit.",
          "tokenAddress": "- Address of token to be deposited."
        }
      },
      "getTokenPrice(address)": {
        "params": {
          "tokenAddress": "- Token to find a price for"
        }
      },
      "paused()": {
        "details": "Returns true if the contract is paused, and false otherwise."
      },
      "removeManager(address)": {
        "params": {
          "manager": "- Manager to remove"
        }
      },
      "runCheck(address)": {
        "details": "To avoid too many fees, this should be run at wide intervals such as daily",
        "params": {
          "poolAddress": "- Address of pool being worked on."
        }
      },
      "setTokenFeed(address,address)": {
        "params": {
          "feed": "- Oracle feed address",
          "token": "- Token address"
        }
      },
      "withdrawFunds(address,address,uint256)": {
        "details": "Transfers an amount of an ERC20 token",
        "params": {
          "amount": "- Amount to withdraw.",
          "recipientAddress": "- Address of wallet receiving funds.",
          "tokenAddress": "- Address of token to be withdrawn."
        }
      }
    },
    "version": 1
  },
  "userdoc": {
    "kind": "user",
    "methods": {
      "addManager(address)": {
        "notice": "Add a new manager to the collection of managers"
      },
      "calculateBalancing(address)": {
        "notice": "Calculates a number of tokens to add or remove to rebalance pricing"
      },
      "constructor": {
        "notice": "Constructor for the controller implementation class"
      },
      "createPool(string,string,address[],uint256[],uint256,uint256)": {
        "notice": "Create a new weighted pool"
      },
      "depositTokens(uint256,address)": {
        "notice": "Deposit tokens to controller"
      },
      "getPoolsUnderManagement()": {
        "notice": "returns a list of pools under management by this controller"
      },
      "getTokenPrice(address)": {
        "notice": "returns the oracle supplied price for the requested token"
      },
      "pause()": {
        "notice": "Pause sensitive functions"
      },
      "removeManager(address)": {
        "notice": "Remove a manager to the collection of managers"
      },
      "runCheck(address)": {
        "notice": "Runs a check and transfers reserve tokens as needed"
      },
      "setTokenFeed(address,address)": {
        "notice": "Set a new token oracle feed"
      },
      "unpause()": {
        "notice": "Unpause sensitive functions"
      },
      "withdrawFunds(address,address,uint256)": {
        "notice": "Withdraw tokens from controller"
      }
    },
    "version": 1
  }
}