{
  "contractName": "WeightedReserveController",
  "abi": [
    {
      "inputs": [
        {
          "internalType": "address",
          "name": "vaultAddress",
          "type": "address"
        },
        {
          "internalType": "address",
          "name": "supportedWeightedPoolNoAMFactory",
          "type": "address"
        }
      ],
      "stateMutability": "nonpayable",
      "type": "constructor"
    },
    {
      "anonymous": false,
      "inputs": [
        {
          "components": [
            {
              "internalType": "string",
              "name": "name",
              "type": "string"
            },
            {
              "internalType": "string",
              "name": "symbol",
              "type": "string"
            },
            {
              "internalType": "address[]",
              "name": "assetManagers",
              "type": "address[]"
            }
          ],
          "indexed": false,
          "internalType": "struct WeightedPoolParams",
          "name": "weightedPoolParams",
          "type": "tuple"
        },
        {
          "components": [
            {
              "internalType": "contract IERC20[]",
              "name": "tokens",
              "type": "address[]"
            },
            {
              "internalType": "uint256[]",
              "name": "normalizedWeights",
              "type": "uint256[]"
            },
            {
              "internalType": "uint256",
              "name": "swapFeePercentage",
              "type": "uint256"
            },
            {
              "internalType": "bool",
              "name": "isSwapEnabledOnStart",
              "type": "bool"
            },
            {
              "internalType": "bool",
              "name": "isMustAllowlistLPs",
              "type": "bool"
            },
            {
              "internalType": "uint256",
              "name": "managementAumFeePercentage",
              "type": "uint256"
            },
            {
              "internalType": "uint256",
              "name": "aumFeeId",
              "type": "uint256"
            }
          ],
          "indexed": false,
          "internalType": "struct WeightedPoolSettingsParams",
          "name": "weightedPoolSettingsParams",
          "type": "tuple"
        },
        {
          "indexed": false,
          "internalType": "address",
          "name": "callerAddress",
          "type": "address"
        },
        {
          "indexed": false,
          "internalType": "bytes32",
          "name": "salt",
          "type": "bytes32"
        },
        {
          "indexed": false,
          "internalType": "bool",
          "name": "isSuccessful",
          "type": "bool"
        }
      ],
      "name": "CreatedPoolByDelegateCall",
      "type": "event"
    },
    {
      "inputs": [
        {
          "internalType": "address",
          "name": "poolAddress",
          "type": "address"
        }
      ],
      "name": "calculateBalancing",
      "outputs": [
        {
          "components": [
            {
              "components": [
                {
                  "internalType": "contract IAsset[]",
                  "name": "assets",
                  "type": "address[]"
                },
                {
                  "internalType": "uint256[]",
                  "name": "minAmountsOut",
                  "type": "uint256[]"
                },
                {
                  "internalType": "bytes",
                  "name": "userData",
                  "type": "bytes"
                },
                {
                  "internalType": "bool",
                  "name": "toInternalBalance",
                  "type": "bool"
                }
              ],
              "internalType": "struct IVault.ExitPoolRequest",
              "name": "newExitRequest",
              "type": "tuple"
            },
            {
              "components": [
                {
                  "internalType": "contract IAsset[]",
                  "name": "assets",
                  "type": "address[]"
                },
                {
                  "internalType": "uint256[]",
                  "name": "maxAmountsIn",
                  "type": "uint256[]"
                },
                {
                  "internalType": "bytes",
                  "name": "userData",
                  "type": "bytes"
                },
                {
                  "internalType": "bool",
                  "name": "fromInternalBalance",
                  "type": "bool"
                }
              ],
              "internalType": "struct IVault.JoinPoolRequest",
              "name": "newJoinRequest",
              "type": "tuple"
            }
          ],
          "internalType": "struct PoolAdjustments",
          "name": "",
          "type": "tuple"
        }
      ],
      "stateMutability": "view",
      "type": "function",
      "constant": true
    },
    {
      "inputs": [
        {
          "internalType": "address",
          "name": "value",
          "type": "address"
        }
      ],
      "name": "getTokenPrice",
      "outputs": [
        {
          "internalType": "int256",
          "name": "",
          "type": "int256"
        }
      ],
      "stateMutability": "view",
      "type": "function",
      "constant": true
    },
    {
      "inputs": [],
      "name": "manager",
      "outputs": [
        {
          "internalType": "address",
          "name": "",
          "type": "address"
        }
      ],
      "stateMutability": "view",
      "type": "function",
      "constant": true
    },
    {
      "inputs": [
        {
          "internalType": "address",
          "name": "supportedManager",
          "type": "address"
        }
      ],
      "name": "transferManagement",
      "outputs": [],
      "stateMutability": "nonpayable",
      "type": "function"
    },
    {
      "inputs": [
        {
          "internalType": "address",
          "name": "",
          "type": "address"
        }
      ],
      "name": "weightedPools",
      "outputs": [
        {
          "internalType": "string",
          "name": "poolName",
          "type": "string"
        },
        {
          "internalType": "string",
          "name": "poolSymbol",
          "type": "string"
        },
        {
          "internalType": "uint256",
          "name": "tolerance",
          "type": "uint256"
        }
      ],
      "stateMutability": "view",
      "type": "function",
      "constant": true
    },
    {
      "inputs": [
        {
          "internalType": "string",
          "name": "name",
          "type": "string"
        },
        {
          "internalType": "string",
          "name": "symbol",
          "type": "string"
        },
        {
          "internalType": "contract IERC20[]",
          "name": "tokens",
          "type": "address[]"
        },
        {
          "internalType": "uint256[]",
          "name": "normalizedWeights",
          "type": "uint256[]"
        },
        {
          "internalType": "address[]",
          "name": "assetManagers",
          "type": "address[]"
        },
        {
          "internalType": "uint256",
          "name": "swapFeePercentage",
          "type": "uint256"
        },
        {
          "internalType": "bool",
          "name": "isSwapEnabledOnStart",
          "type": "bool"
        },
        {
          "internalType": "bool",
          "name": "isMustAllowlistLPs",
          "type": "bool"
        },
        {
          "internalType": "uint256",
          "name": "managementAumFeePercentage",
          "type": "uint256"
        },
        {
          "internalType": "uint256",
          "name": "aumFeeId",
          "type": "uint256"
        },
        {
          "internalType": "bytes32",
          "name": "salt",
          "type": "bytes32"
        }
      ],
      "name": "createPool",
      "outputs": [],
      "stateMutability": "nonpayable",
      "type": "function"
    },
    {
      "inputs": [],
      "name": "getRegisteredPools",
      "outputs": [
        {
          "internalType": "address[]",
          "name": "",
          "type": "address[]"
        }
      ],
      "stateMutability": "view",
      "type": "function",
      "constant": true
    },
    {
      "inputs": [
        {
          "internalType": "address",
          "name": "weightedPool",
          "type": "address"
        }
      ],
      "name": "registerWeightedPool",
      "outputs": [],
      "stateMutability": "nonpayable",
      "type": "function"
    },
    {
      "inputs": [
        {
          "internalType": "address",
          "name": "weightedPool",
          "type": "address"
        }
      ],
      "name": "deRegisterWeightedPool",
      "outputs": [],
      "stateMutability": "nonpayable",
      "type": "function"
    },
    {
      "inputs": [
        {
          "internalType": "address",
          "name": "tokenIn",
          "type": "address"
        },
        {
          "internalType": "uint256",
          "name": "amountIn",
          "type": "uint256"
        },
        {
          "internalType": "address",
          "name": "recipient",
          "type": "address"
        }
      ],
      "name": "buyReserveToken",
      "outputs": [],
      "stateMutability": "nonpayable",
      "type": "function"
    },
    {
      "inputs": [
        {
          "internalType": "address",
          "name": "pool",
          "type": "address"
        },
        {
          "internalType": "uint256",
          "name": "amountIn",
          "type": "uint256"
        },
        {
          "internalType": "address",
          "name": "recipient",
          "type": "address"
        }
      ],
      "name": "sellReserveToken",
      "outputs": [],
      "stateMutability": "nonpayable",
      "type": "function"
    }
  ],
  "bytecode": "0x60c06040523480156200001157600080fd5b5060405162002dd438038062002dd4833981016040819052620000349162000088565b600160008190556001600160601b0319606093841b811660805281546001600160a01b0319163317909155911b1660a052620000bf565b80516001600160a01b03811681146200008357600080fd5b919050565b600080604083850312156200009b578182fd5b620000a6836200006b565b9150620000b6602084016200006b565b90509250929050565b60805160601c60a05160601c612cc66200010e60003960006117aa015260008181610321015281816104400152818161095f01528181610a7e01528181610e910152610f990152612cc66000f3fe608060405234801561001057600080fd5b50600436106100a95760003560e01c8063659d4f5c11610071578063659d4f5c146101275780638c4288cd1461013c578063c0e3fccb1461014f578063d02641a014610162578063d62e368114610182578063e4edf852146101a4576100a9565b80631b439d69146100ae57806347958851146100c3578063481c6a75146100d65780634fed9acd146100f457806358a67da314610114575b600080fd5b6100c16100bc36600461235f565b6101b7565b005b6100c16100d136600461235f565b610832565b6100de610dc3565b6040516100eb919061289c565b60405180910390f35b6101076101023660046122e4565b610dd2565b6040516100eb91906129da565b6100c16101223660046122e4565b611669565b61012f6116e7565b6040516100eb91906128ed565b6100c161014a3660046124db565b611749565b6100c161015d3660046122e4565b6118e4565b6101756101703660046122e4565b611925565b6040516100eb9190612900565b6101956101903660046122e4565b611cbf565b6040516100eb93929190612909565b6100c16101b23660046122e4565b611df1565b6101bf611e2a565b6001600160a01b038316600090815260046020526040902054839060ff166102025760405162461bcd60e51b81526004016101f990612976565b60405180910390fd5b61020a612007565b6001600160a01b038516808252604080516318160ddd60e01b81529051879260009290916318160ddd91600480820192602092909190829003018186803b15801561025457600080fd5b505afa158015610268573d6000803e3d6000fd5b505050506040513d601f19601f8201168201806040525081019061028c91906124c3565b905082600001516001600160a01b03166338fff2d06040518163ffffffff1660e01b815260040160206040518083038186803b1580156102cb57600080fd5b505afa1580156102df573d6000803e3d6000fd5b505050506040513d601f19601f8201168201806040525081019061030391906124c3565b6020840181905260405163f6c0092760e01b81526001600160a01b037f0000000000000000000000000000000000000000000000000000000000000000169163f6c00927916103559190600401612900565b604080518083038186803b15801561036c57600080fd5b505afa158015610380573d6000803e3d6000fd5b505050506040513d601f19601f820116820180604052508101906103a49190612323565b505082600001516001600160a01b031663f89f27ed6040518163ffffffff1660e01b815260040160006040518083038186803b1580156103e357600080fd5b505afa1580156103f7573d6000803e3d6000fd5b505050506040513d6000823e601f3d908101601f1916820160405261041f919081019061246c565b60608401526020830151604051631f29a8cd60e31b81526001600160a01b037f0000000000000000000000000000000000000000000000000000000000000000169163f94d4668916104749190600401612900565b60006040518083038186803b15801561048c57600080fd5b505afa1580156104a0573d6000803e3d6000fd5b505050506040513d6000823e601f3d908101601f191682016040526104c891908101906123a0565b5060a0850152608084018190526104de90611e54565b60c084015260808301515167ffffffffffffffff81111561050f57634e487b7160e01b600052604160045260246000fd5b604051908082528060200260200182016040528015610538578160200160208202803683370190505b50604084015260005b8360800151518110156106305760008460a00151828151811061057457634e487b7160e01b600052603260045260246000fd5b602002602001015111156105eb576105b6846080015182815181106105a957634e487b7160e01b600052603260045260246000fd5b6020026020010151611925565b846040015182815181106105da57634e487b7160e01b600052603260045260246000fd5b60200260200101818152505061061e565b60008460400151828151811061061157634e487b7160e01b600052603260045260246000fd5b6020026020010181815250505b8061062881612c09565b915050610541565b506000805b8460800151518110156106c2578460400151818151811061066657634e487b7160e01b600052603260045260246000fd5b60200260200101518560a00151828151811061069257634e487b7160e01b600052603260045260246000fd5b60200260200101516106a49190612b29565b6106ae9083612af1565b9150806106ba81612c09565b915050610635565b5060006106cf8389612b09565b905060006106dd8483612b29565b6040516323b872dd60e01b8152909150737d9d314ee8183653f800e551030d0b27663a15579081906323b872dd9061071d90339030908f906004016128b0565b602060405180830381600087803b15801561073757600080fd5b505af115801561074b573d6000803e3d6000fd5b505050506040513d601f19601f8201168201806040525081019061076f91906124a7565b61078b5760405162461bcd60e51b81526004016101f99061293f565b6001600160a01b03861663a9059cbb8a6107ad85670de0b6b3a7640000612b29565b6040518363ffffffff1660e01b81526004016107ca9291906128d4565b602060405180830381600087803b1580156107e457600080fd5b505af11580156107f8573d6000803e3d6000fd5b505050506040513d601f19601f8201168201806040525081019061081c91906124a7565b50505050505050505061082d611e57565b505050565b61083a612007565b6001600160a01b038416808252604080516318160ddd60e01b81529051869260009290916318160ddd91600480820192602092909190829003018186803b15801561088457600080fd5b505afa158015610898573d6000803e3d6000fd5b505050506040513d601f19601f820116820180604052508101906108bc91906124c3565b905060006108ca8287612b09565b905083600001516001600160a01b03166338fff2d06040518163ffffffff1660e01b815260040160206040518083038186803b15801561090957600080fd5b505afa15801561091d573d6000803e3d6000fd5b505050506040513d601f19601f8201168201806040525081019061094191906124c3565b6020850181905260405163f6c0092760e01b81526001600160a01b037f0000000000000000000000000000000000000000000000000000000000000000169163f6c00927916109939190600401612900565b604080518083038186803b1580156109aa57600080fd5b505afa1580156109be573d6000803e3d6000fd5b505050506040513d601f19601f820116820180604052508101906109e29190612323565b505083600001516001600160a01b031663f89f27ed6040518163ffffffff1660e01b815260040160006040518083038186803b158015610a2157600080fd5b505afa158015610a35573d6000803e3d6000fd5b505050506040513d6000823e601f3d908101601f19168201604052610a5d919081019061246c565b60608501526020840151604051631f29a8cd60e31b81526001600160a01b037f0000000000000000000000000000000000000000000000000000000000000000169163f94d466891610ab29190600401612900565b60006040518083038186803b158015610aca57600080fd5b505afa158015610ade573d6000803e3d6000fd5b505050506040513d6000823e601f3d908101601f19168201604052610b0691908101906123a0565b5060a086015260808501819052610b1c90611e54565b60c085015260808401515167ffffffffffffffff811115610b4d57634e487b7160e01b600052604160045260246000fd5b604051908082528060200260200182016040528015610b76578160200160208202803683370190505b50604085015260005b846080015151811015610c615760008560a001518281518110610bb257634e487b7160e01b600052603260045260246000fd5b60200260200101511115610c1c57610be7856080015182815181106105a957634e487b7160e01b600052603260045260246000fd5b85604001518281518110610c0b57634e487b7160e01b600052603260045260246000fd5b602002602001018181525050610c4f565b600085604001518281518110610c4257634e487b7160e01b600052603260045260246000fd5b6020026020010181815250505b80610c5981612c09565b915050610b7f565b506000805b856080015151811015610cf35785604001518181518110610c9757634e487b7160e01b600052603260045260246000fd5b60200260200101518660a001518281518110610cc357634e487b7160e01b600052603260045260246000fd5b6020026020010151610cd59190612b29565b610cdf9083612af1565b915080610ceb81612c09565b915050610c66565b506000610d008284612b29565b6040516323b872dd60e01b8152909150737d9d314ee8183653f800e551030d0b27663a1557906001600160a01b038716906323b872dd90610d4990339030908e906004016128b0565b602060405180830381600087803b158015610d6357600080fd5b505af1158015610d77573d6000803e3d6000fd5b505050506040513d601f19601f82011682018060405250810190610d9b91906124a7565b610db75760405162461bcd60e51b81526004016101f99061293f565b50505050505050505050565b6001546001600160a01b031681565b610dda612050565b6001546001600160a01b03163314610df157600080fd5b610df9612075565b6001600160a01b0383168082526040805163038fff2d60e41b81529051600092916338fff2d0916004808301926020929190829003018186803b158015610e3f57600080fd5b505afa158015610e53573d6000803e3d6000fd5b505050506040513d601f19601f82011682018060405250810190610e7791906124c3565b60405163f6c0092760e01b81529091506001600160a01b037f0000000000000000000000000000000000000000000000000000000000000000169063f6c0092790610ec6908490600401612900565b604080518083038186803b158015610edd57600080fd5b505afa158015610ef1573d6000803e3d6000fd5b505050506040513d601f19601f82011682018060405250810190610f159190612323565b5050600082600001516001600160a01b031663f89f27ed6040518163ffffffff1660e01b815260040160006040518083038186803b158015610f5657600080fd5b505afa158015610f6a573d6000803e3d6000fd5b505050506040513d6000823e601f3d908101601f19168201604052610f92919081019061246c565b90506000807f00000000000000000000000000000000000000000000000000000000000000006001600160a01b031663f94d4668856040518263ffffffff1660e01b8152600401610fe39190612900565b60006040518083038186803b158015610ffb57600080fd5b505afa15801561100f573d6000803e3d6000fd5b505050506040513d6000823e601f3d908101601f1916820160405261103791908101906123a0565b5091509150600061104783611e54565b905060008060008460008151811061106f57634e487b7160e01b600052603260045260246000fd5b60200260200101511115611171578560008151811061109e57634e487b7160e01b600052603260045260246000fd5b6020026020010151846000815181106110c757634e487b7160e01b600052603260045260246000fd5b60200260200101516110d99190612b09565b866001815181106110fa57634e487b7160e01b600052603260045260246000fd5b60200260200101518560018151811061112357634e487b7160e01b600052603260045260246000fd5b60200260200101516111359190612b09565b61113f9190612b09565b886020015160008151811061116457634e487b7160e01b600052603260045260246000fd5b6020026020010181815250505b60015b85518110156112b057600085828151811061119f57634e487b7160e01b600052603260045260246000fd5b6020026020010151111561129e578681815181106111cd57634e487b7160e01b600052603260045260246000fd5b60200260200101518582815181106111f557634e487b7160e01b600052603260045260246000fd5b60200260200101516112079190612b09565b8760008151811061122857634e487b7160e01b600052603260045260246000fd5b60200260200101518660008151811061125157634e487b7160e01b600052603260045260246000fd5b60200260200101516112639190612b09565b61126d9190612b09565b8960200151828151811061129157634e487b7160e01b600052603260045260246000fd5b6020026020010181815250505b806112a881612c09565b915050611174565b5060015b855181101561138d576000896020015182815181106112e357634e487b7160e01b600052603260045260246000fd5b6020026020010151111561137b578860200151818151811061131557634e487b7160e01b600052603260045260246000fd5b60200260200101516113408783815181106105a957634e487b7160e01b600052603260045260246000fd5b61134a9190612b48565b8960400151828151811061136e57634e487b7160e01b600052603260045260246000fd5b6020026020010181815250505b8061138581612c09565b9150506112b4565b5060608060015b87518110156115ea576001600160a01b038d166000908152600260208190526040918290200154908c01518051839081106113df57634e487b7160e01b600052603260045260246000fd5b60200260200101511261148857600260008e6001600160a01b03166001600160a01b0316815260200190815260200160002060020154606488838151811061143757634e487b7160e01b600052603260045260246000fd5b60200260200101516114499190612b09565b6114539190612b29565b82828151811061147357634e487b7160e01b600052603260045260246000fd5b602002602001018181525050600193506115d8565b6001600160a01b038d16600090815260026020819052604090912001546114ae90612c24565b8b6040015182815181106114d257634e487b7160e01b600052603260045260246000fd5b60200260200101511361157b57600260008e6001600160a01b03166001600160a01b0316815260200190815260200160002060020154606488838151811061152a57634e487b7160e01b600052603260045260246000fd5b602002602001015161153c9190612b09565b6115469190612b29565b83828151811061156657634e487b7160e01b600052603260045260246000fd5b602002602001018181525050600194506115d8565b600083828151811061159d57634e487b7160e01b600052603260045260246000fd5b60200260200101818152505060008282815181106115cb57634e487b7160e01b600052603260045260246000fd5b6020026020010181815250505b806115e281612c09565b915050611394565b506115f3612050565b8315611624578051869052604080516020808201835260008252835190920152815160016060909101528151018290525b84156116575760208082018051889052604080518084018252600081528251909101528051600160609091015251018390525b9a50505050505050505050505b919050565b6001546001600160a01b0316331461168057600080fd5b6003805460018181019092557fc2575a0e9e593c00f959f8c92f12db2869c3395a3b0502d05e2516446f71f85b0180546001600160a01b039093166001600160a01b031990931683179055600091825260046020526040909120805460ff19169091179055565b6060600380548060200260200160405190810160405280929190818152602001828054801561173f57602002820191906000526020600020905b81546001600160a01b03168152600190910190602001808311611721575b5050505050905090565b61175161209f565b8b8152602081018b90526040810188905261176a6120c0565b8a8152602081018a905260408082018990528715156060830152861515608083015260a0820186905260c082018590525160009081906001600160a01b037f00000000000000000000000000000000000000000000000000000000000000001690637304b8b960e01b906117e8908790879033908b90602401612a13565b60408051601f198184030181529181526020820180516001600160e01b03166001600160e01b03199094169390931790925290516118269190612880565b600060405180830381855af49150503d8060008114611861576040519150601f19603f3d011682016040523d82523d6000602084013e611866565b606091505b50915091507f15fd418169a4890b496e7cb6e8a9d72d1790b6247d3ebe27b87894ff2c3e435484843388866040516118a2959493929190612a55565b60405180910390a181156118d3576000818060200190518101906118c69190612307565b90506118d181611669565b505b505050505050505050505050505050565b6001546001600160a01b031633146118fb57600080fd5b61190481611e5e565b6001600160a01b03166000908152600460205260409020805460ff19169055565b6000806001600160a01b03831673baab46e28388d2779e6e31fd00cf0e5ad95e327b14156119e557600073128fe88eaa22bffb868bb3a584a54c96ee24014b9050806001600160a01b031663feaf968c6040518163ffffffff1660e01b815260040160a06040518083038186803b15801561199f57600080fd5b505afa1580156119b3573d6000803e3d6000fd5b505050506040513d601f19601f820116820180604052508101906119d791906125f5565b50919450611cb99350505050565b6001600160a01b03831673471ece3750da237f93b8e339c536989b8978a4381415611a5c576000730568fd19986748ceff3301e55c0eb1e729e0ab7e9050806001600160a01b031663feaf968c6040518163ffffffff1660e01b815260040160a06040518083038186803b15801561199f57600080fd5b6001600160a01b03831673122013fd7df1c6f636a5bb8f03108e876548b4551415611ad3576000731fcd30a73d67639c1cd89ff5746e7585731c083b9050806001600160a01b031663feaf968c6040518163ffffffff1660e01b815260040160a06040518083038186803b15801561199f57600080fd5b6001600160a01b03831673d8763cba276a3738e6de85b4b3bf5fded6d6ca731415611b4a576000733d207061dbe8e2473527611bfecb87ff12b28dda9050806001600160a01b031663feaf968c6040518163ffffffff1660e01b815260040160a06040518083038186803b15801561199f57600080fd5b6001600160a01b0383167372d7f41ef46a988b13530f67423b36cd9cadbc3a1415611bc1576000736b6a4c71ec3858a024f3f0ee44bb0adcbed3dcc29050806001600160a01b031663feaf968c6040518163ffffffff1660e01b815260040160a06040518083038186803b15801561199f57600080fd5b6001600160a01b038316732a3684e9dc20b857375ea04235f2f7edbe818fa71415611c3857600073c7a353bae210aed958a1a2928b654938ec59dab29050806001600160a01b031663feaf968c6040518163ffffffff1660e01b815260040160a06040518083038186803b15801561199f57600080fd5b6001600160a01b03831673f6d198cd2a85bb2f3021cdbdab6b878474079be71415611caf576000735e37af40a7a344ec9b03ccd34a250f3da9a20b029050806001600160a01b031663feaf968c6040518163ffffffff1660e01b815260040160a06040518083038186803b15801561199f57600080fd5b6001915050611664565b92915050565b600260205260009081526040902080548190611cda90612bce565b80601f0160208091040260200160405190810160405280929190818152602001828054611d0690612bce565b8015611d535780601f10611d2857610100808354040283529160200191611d53565b820191906000526020600020905b815481529060010190602001808311611d3657829003601f168201915b505050505090806001018054611d6890612bce565b80601f0160208091040260200160405190810160405280929190818152602001828054611d9490612bce565b8015611de15780601f10611db657610100808354040283529160200191611de1565b820191906000526020600020905b815481529060010190602001808311611dc457829003601f168201915b5050505050908060020154905083565b6001546001600160a01b03163314611e0857600080fd5b600180546001600160a01b0319166001600160a01b0392909216919091179055565b60026000541415611e4d5760405162461bcd60e51b81526004016101f9906129a3565b6002600055565b90565b6001600055565b6001600160a01b0381166000908152600460205260408120805460ff19169055611e8782611e96565b9050611e9281611f0d565b5050565b6000805b600354811015611f0357826001600160a01b031660038281548110611ecf57634e487b7160e01b600052603260045260246000fd5b6000918252602090912001546001600160a01b03161415611ef1579050611664565b80611efb81612c09565b915050611e9a565b5050600354919050565b600354611f1c90600190612b87565b811015611fc3576003611f30826001612af1565b81548110611f4e57634e487b7160e01b600052603260045260246000fd5b600091825260209091200154600380546001600160a01b039092169183908110611f8857634e487b7160e01b600052603260045260246000fd5b600091825260209091200180546001600160a01b0319166001600160a01b039290921691909117905580611fbb81612c09565b915050611f0d565b6003805480611fe257634e487b7160e01b600052603160045260246000fd5b600082815260209020810160001990810180546001600160a01b031916905501905550565b6040518060e0016040528060006001600160a01b031681526020016000801916815260200160608152602001606081526020016060815260200160608152602001606081525090565b6040518060400160405280612063612101565b8152602001612070612101565b905290565b604051806060016040528060006001600160a01b0316815260200160608152602001606081525090565b60405180606001604052806060815260200160608152602001606081525090565b6040518060e0016040528060608152602001606081526020016000815260200160001515815260200160001515815260200160008152602001600081525090565b60405180608001604052806060815260200160608152602001606081526020016000151581525090565b600082601f83011261213b578081fd5b8135602061215061214b83612acd565b612aa3565b828152818101908583018385028701840188101561216c578586fd5b855b8581101561219357813561218181612c6a565b8452928401929084019060010161216e565b5090979650505050505050565b600082601f8301126121b0578081fd5b813560206121c061214b83612acd565b82815281810190858301838502870184018810156121dc578586fd5b855b85811015612193578135845292840192908401906001016121de565b600082601f83011261220a578081fd5b8151602061221a61214b83612acd565b8281528181019085830183850287018401881015612236578586fd5b855b8581101561219357815184529284019290840190600101612238565b803561166481612c82565b600082601f83011261226f578081fd5b813567ffffffffffffffff81111561228957612289612c54565b61229c601f8201601f1916602001612aa3565b8181528460208386010111156122b0578283fd5b816020850160208301379081016020019190915292915050565b805169ffffffffffffffffffff8116811461166457600080fd5b6000602082840312156122f5578081fd5b813561230081612c6a565b9392505050565b600060208284031215612318578081fd5b815161230081612c6a565b60008060408385031215612335578081fd5b825161234081612c6a565b602084015190925060038110612354578182fd5b809150509250929050565b600080600060608486031215612373578081fd5b833561237e81612c6a565b925060208401359150604084013561239581612c6a565b809150509250925092565b6000806000606084860312156123b4578081fd5b835167ffffffffffffffff808211156123cb578283fd5b818601915086601f8301126123de578283fd5b815160206123ee61214b83612acd565b82815281810190858301838502870184018c101561240a578788fd5b8796505b8487101561243557805161242181612c6a565b83526001969096019591830191830161240e565b509189015191975090935050508082111561244e578283fd5b5061245b868287016121fa565b925050604084015190509250925092565b60006020828403121561247d578081fd5b815167ffffffffffffffff811115612493578182fd5b61249f848285016121fa565b949350505050565b6000602082840312156124b8578081fd5b815161230081612c82565b6000602082840312156124d4578081fd5b5051919050565b60008060008060008060008060008060006101608c8e0312156124fc578889fd5b67ffffffffffffffff808d35111561251257898afd5b61251f8e8e358f0161225f565b9b508060208e0135111561253157898afd5b6125418e60208f01358f0161225f565b9a508060408e0135111561255357898afd5b6125638e60408f01358f0161212b565b99508060608e01351115612575578788fd5b6125858e60608f01358f016121a0565b98508060808e01351115612597578788fd5b506125a88d60808e01358e0161212b565b965060a08c013595506125bd60c08d01612254565b94506125cb60e08d01612254565b93506101008c013592506101208c013591506101408c013590509295989b509295989b9093969950565b600080600080600060a0868803121561260c578283fd5b612615866122ca565b9450602086015193506040860151925060608601519150612638608087016122ca565b90509295509295909350565b6000815180845260208085019450808401835b8381101561267c5781516001600160a01b031687529582019590820190600101612657565b509495945050505050565b6000815180845260208085019450808401835b8381101561267c5781518752958201959082019060010161269a565b15159052565b600081518084526126d4816020860160208601612b9e565b601f01601f19169290920160200192915050565b8051608080845281519084018190526000916020919082019060a0860190845b8181101561272d5783516001600160a01b031683529284019291840191600101612708565b5050828501519150858103838701526127468183612687565b925050506040830151848203604086015261276182826126bc565b915050606083015161277660608601826126b6565b509392505050565b600081516060845261279360608501826126bc565b9050602083015184820360208601526127ac82826126bc565b915050604083015184820360408601526127c68282612644565b95945050505050565b805160e0808452815190840181905260009160209190820190610100860190845b818110156128155783516001600160a01b0316835292840192918401916001016127f0565b50508285015191508581038387015261282e8183612687565b9250505060408301516040850152606083015161284e60608601826126b6565b50608083015161286160808601826126b6565b5060a083015160a085015260c083015160c08501528091505092915050565b60008251612892818460208701612b9e565b9190910192915050565b6001600160a01b0391909116815260200190565b6001600160a01b039384168152919092166020820152604081019190915260600190565b6001600160a01b03929092168252602082015260400190565b6000602082526123006020830184612644565b90815260200190565b60006060825261291c60608301866126bc565b828103602084015261292e81866126bc565b915050826040830152949350505050565b6020808252601f908201527f5472616e73666572206f6620696e70757420746f6b656e73206661696c656400604082015260600190565b602080825260139082015272141bdbdb081b9bdd081c9959da5cdd195c9959606a1b604082015260600190565b6020808252601f908201527f5265656e7472616e637947756172643a207265656e7472616e742063616c6c00604082015260600190565b6000602082528251604060208401526129f660608401826126e8565b90506020840151601f198483030160408501526127c682826126e8565b600060808252612a26608083018761277e565b8281036020840152612a3881876127cf565b6001600160a01b0395909516604084015250506060015292915050565b600060a08252612a6860a083018861277e565b8281036020840152612a7a81886127cf565b6001600160a01b0396909616604084015250506060810192909252151560809091015292915050565b60405181810167ffffffffffffffff81118282101715612ac557612ac5612c54565b604052919050565b600067ffffffffffffffff821115612ae757612ae7612c54565b5060209081020190565b60008219821115612b0457612b04612c3e565b500190565b600082612b2457634e487b7160e01b81526012600452602481fd5b500490565b6000816000190483118215151615612b4357612b43612c3e565b500290565b60008083128015600160ff1b850184121615612b6657612b66612c3e565b6001600160ff1b0384018313811615612b8157612b81612c3e565b50500390565b600082821015612b9957612b99612c3e565b500390565b60005b83811015612bb9578181015183820152602001612ba1565b83811115612bc8576000848401525b50505050565b600281046001821680612be257607f821691505b60208210811415612c0357634e487b7160e01b600052602260045260246000fd5b50919050565b6000600019821415612c1d57612c1d612c3e565b5060010190565b6000600160ff1b821415612c3a57612c3a612c3e565b0390565b634e487b7160e01b600052601160045260246000fd5b634e487b7160e01b600052604160045260246000fd5b6001600160a01b0381168114612c7f57600080fd5b50565b8015158114612c7f57600080fdfea2646970667358221220d4526dcc7151e2eaae15fe84a982d394e8a58516da738a36890da93a4a69cff264736f6c63430008000033",
  "immutableReferences": {
    "943": [
      {
        "length": 32,
        "start": 6058
      }
    ],
    "1753": [
      {
        "length": 32,
        "start": 801
      },
      {
        "length": 32,
        "start": 1088
      },
      {
        "length": 32,
        "start": 2399
      },
      {
        "length": 32,
        "start": 2686
      },
      {
        "length": 32,
        "start": 3729
      },
      {
        "length": 32,
        "start": 3993
      }
    ]
  },
  "source": "// SPDX-License-Identifier: MIT\n\npragma solidity ^0.8.0;\npragma experimental ABIEncoderV2;\n\nimport \"./base/BaseWeightedUtils.sol\";\nimport \"./lib/WeightedPool.sol\";\n// import \"@balancer-labs/pool-weighted/contracts/WeightedPool.sol\";\nimport \"@balancer-labs/interfaces/contracts/vault/IVault.sol\";\nimport \"./lib/WeightedPoolNoAMFactory.sol\";\nimport \"./lib/ReserveToken.sol\";\n\ncontract WeightedReserveController is BaseWeightedUtils {\n\n    address private constant RESERVE_TOKEN = 0x7d9d314Ee8183653F800e551030d0b27663A1557;\n\n    event CreatedPoolByDelegateCall(\n        WeightedPoolParams weightedPoolParams,\n        WeightedPoolSettingsParams weightedPoolSettingsParams,\n        address callerAddress,\n        bytes32 salt,\n        bool isSuccessful\n    );\n\n    struct TradeValues {\n        IWeightedPool collateral;\n        bytes32 poolId;\n        int [] tokenPrices;\n        uint256 [] normalizedWeights;\n        IERC20 [] tokens;\n        uint256 [] balances;\n        IAsset [] assets;\n    }\n\n    struct JoinPoolRequest {\n        IERC20[] assets;\n        uint256[] maxAmountsIn;\n        bytes userData;\n        bool fromInternalBalance;\n    }\n\n    address [] private registeredPools;\n    mapping(address => bool) private registeredPoolsMapping;\n\n    address internal immutable weightedPoolNoAMFactory;\n\n    /**\n     * @notice Constructor for the controller base class\n     *\n     * @param vaultAddress - Vault contract address\n     * @param supportedWeightedPoolNoAMFactory - ManegedPoolFactory address\n     */\n    constructor(address vaultAddress, address supportedWeightedPoolNoAMFactory)\n    BaseWeightedUtils(vaultAddress) {\n        manager = msg.sender;\n        weightedPoolNoAMFactory = supportedWeightedPoolNoAMFactory;\n    }\n\n    /**\n     * @notice Create and register a new weighted pool\n     *\n     * @param name - Pool name\n     * @param symbol - Symbol representing the pool\n     * @param tokens - Tokens in the pool\n     * @param normalizedWeights - Normalized weights in the pool\n     * @param assetManagers - Asset manager for the pool\n     * @param swapFeePercentage - Fee applied to swaps\n     * @param isSwapEnabledOnStart - Whether swaps are enabled straight away\n     * @param isMustAllowlistLPs - List of LP's allowed in the pool\n     * @param managementAumFeePercentage - Management Aum fee to apply\n     * @param aumFeeId - Aum Fee Id\n     * @param salt - Salt applied to address to ensure uniqueness\n     */\n    function createPool(\n        string memory name,\n        string memory symbol,\n        IERC20 [] memory tokens,\n        uint256 [] memory normalizedWeights,\n        address [] memory assetManagers,\n        uint256 swapFeePercentage,\n        bool isSwapEnabledOnStart,\n        bool isMustAllowlistLPs,\n        uint256 managementAumFeePercentage,\n        uint256 aumFeeId,\n        bytes32 salt\n    ) public{\n        WeightedPoolParams memory poolParams;\n        poolParams.name = name;\n        poolParams.symbol = symbol;\n        poolParams.assetManagers = assetManagers;\n\n        WeightedPoolSettingsParams memory poolSettingsParams;\n        poolSettingsParams.tokens = tokens;\n        poolSettingsParams.normalizedWeights = normalizedWeights;\n        poolSettingsParams.swapFeePercentage = swapFeePercentage;\n        poolSettingsParams.isSwapEnabledOnStart = isSwapEnabledOnStart;\n        poolSettingsParams.isMustAllowlistLPs = isMustAllowlistLPs;\n        poolSettingsParams\n            .managementAumFeePercentage = managementAumFeePercentage;\n        poolSettingsParams.aumFeeId = aumFeeId;\n\n        (bool isSuccessful, bytes memory result) = weightedPoolNoAMFactory.delegatecall(\n            abi.encodeWithSelector(\n                WeightedPoolNoAMFactory.create.selector,\n                poolParams,\n                poolSettingsParams,\n                msg.sender,\n                salt\n            )\n        );\n\n        emit CreatedPoolByDelegateCall(\n            poolParams,\n            poolSettingsParams,\n            msg.sender,\n            salt,\n            isSuccessful\n        );\n        if (isSuccessful) {\n            address poolAddress = abi.decode(result, (address));\n            registerWeightedPool(poolAddress);\n        }\n    }\n\n    /**\n     * @notice returns a list of registered pools\n     *\n     */\n    function getRegisteredPools() public view returns (address [] memory) {\n        return registeredPools;\n    }\n\n    /**\n     * @notice Register weighted pool\n     *\n     * @param weightedPool - Address of pool being worked on.\n     */\n    function registerWeightedPool(\n        address weightedPool\n    ) public restricted {\n        registeredPools.push(weightedPool);\n        registeredPoolsMapping[weightedPool] = true;\n    }\n\n    /**\n     * @notice Deregister weighted pool\n     *\n     * @param weightedPool - Address of pool being worked on.\n     */\n    function deRegisterWeightedPool(\n        address weightedPool\n    ) public restricted {\n        removeByValue(weightedPool);\n        registeredPoolsMapping[weightedPool] = false;\n    }\n\n    /**\n     * @notice This function is used for pools containing two tokens.\n     * It takes in a collateral token such as BPT, calculates an equal\n     * value amount of the reserve token such as G$ then mints and returns it.\n     *\n     * @param tokenIn - Address of collateral token\n     * @param amountIn - The amount being traded\n     * @param recipient - Address of person to receive the reserve tokens\n     */\n    function buyReserveToken(\n        address tokenIn,\n        uint256 amountIn,\n        address recipient\n    ) public   {\n        // Retrieve a list of tokens, balances and normalised weights for the pool\n        TradeValues memory tradeValues;\n        tradeValues.collateral = IWeightedPool(tokenIn);\n        IERC20 collateral = IERC20(tokenIn);\n\n        // Calculate the buyers share of the pool\n        uint256 totalSupply = collateral.totalSupply();\n        uint256 buyersShare = amountIn / totalSupply;\n\n        tradeValues.poolId = tradeValues.collateral.getPoolId();\n        vault.getPool(tradeValues.poolId);\n        tradeValues.normalizedWeights = tradeValues\n            .collateral\n            .getNormalizedWeights();\n\n        (tradeValues.tokens, tradeValues.balances, ) = vault.getPoolTokens(\n            tradeValues.poolId\n        );\n        \n        tradeValues.assets = SupportLib._convertERC20sToAssets(\n            tradeValues.tokens\n        );\n\n        // Calculate token prices using Chainlink. All prices are to 8 decimal places.\n        tradeValues.tokenPrices = new int[](tradeValues.tokens.length);\n        for (uint256 i = 0; i < tradeValues.tokens.length; i++) {\n            if (tradeValues.balances [i] > 0) {\n                tradeValues.tokenPrices [i] = getTokenPrice(address(tradeValues.tokens [i]));\n            }\n            else\n            {\n                tradeValues.tokenPrices [i] = 0;\n            }\n        }\n\n        // Calculate the total value of the pool\n        uint256 totalPoolValue = 0;\n        for (uint256 i = 0; i < tradeValues.tokens.length; i++) {\n            totalPoolValue =\n                totalPoolValue +\n                (tradeValues.balances [i] * uint256(tradeValues.tokenPrices [i]));\n        }\n\n        // Calculate supplied token value\n        uint256 buyersShareValue = buyersShare * totalPoolValue;\n        ReserveToken reserveToken = ReserveToken(\n            RESERVE_TOKEN\n        );\n\n        require(\n            collateral.transferFrom(msg.sender, address(this), amountIn),\n            \"Transfer of input tokens failed\"\n        );\n\n        // Mint and Transfer the output tokens from this contract to the recipient, assuming reserve token is worth $1\n       // reserveToken.mint(recipient, buyersShareValue * (10 ** 18));\n    }\n    \n    /**\n     * @notice Runs a check and transfers reserve tokens as needed\n     * @dev To avoid too many fees, this should be run at wide intervals such as daily\n     *\n     * @param pool - Address of collateral token\n     * @param amountIn - The amount being traded\n     * @param recipient - Address of person to receive the swapped tokens\n     */\n    function sellReserveToken(\n        address pool,\n        uint256 amountIn,\n        address recipient\n    ) public nonReentrant checkPoolSupported(pool) {\n        // Retrieve a list of tokens, balances and normalised weights for the pool\n        TradeValues memory tradeValues;\n        tradeValues.collateral = IWeightedPool(pool);\n        IERC20 bptToken = IERC20(pool);\n        uint256 totalSupply = bptToken.totalSupply();\n\n        tradeValues.poolId = tradeValues.collateral.getPoolId();\n        vault.getPool(tradeValues.poolId);\n        tradeValues.normalizedWeights = tradeValues\n            .collateral\n            .getNormalizedWeights();\n\n        (tradeValues.tokens, tradeValues.balances, ) = vault.getPoolTokens(\n            tradeValues.poolId\n        );\n        tradeValues.assets = SupportLib._convertERC20sToAssets(\n            tradeValues.tokens\n        );\n\n        // Calculate token prices using Chainlink. All prices are to 8 decimal places.\n        tradeValues.tokenPrices = new int[](tradeValues.tokens.length);\n        for (uint256 i = 0; i < tradeValues.tokens.length; i++) {\n            if (tradeValues.balances [i] > 0) {\n                tradeValues.tokenPrices [i] = getTokenPrice(address(tradeValues.tokens [i]));\n            }\n            else\n            {\n                tradeValues.tokenPrices [i] = 0;\n            }\n        }\n\n        // Calculate the total value of the pool\n        uint256 totalPoolValue = 0;\n        for (uint256 i = 0; i < tradeValues.tokens.length; i++) {\n            totalPoolValue =\n                totalPoolValue +\n                (tradeValues.balances [i] * uint256(tradeValues.tokenPrices [i]));\n        }\n\n        // Calculate supplied token value\n        uint256 myShare = amountIn / totalSupply;\n        uint256 myBptAmount = myShare * totalSupply;\n\n        // Transfer the input tokens from the sender to this contract\n        IERC20 reserveToken = IERC20(RESERVE_TOKEN);\n        require(\n            reserveToken.transferFrom(msg.sender, address(this), amountIn),\n            \"Transfer of input tokens failed\"\n        );\n\n        // Transfer the output tokens from this contract to the recipient\n        bptToken.transfer(recipient, myBptAmount * (10 ** 18));\n    }\n\n    /**\n     * @notice returns the array index containing supplied address\n     *\n     * @param value - Address to find\n     */\n    function find(address value) private view returns (uint) {\n        for(uint i = 0; i < registeredPools.length; i++) {\n            if(registeredPools[i] == value) {\n                return i; \n            }\n        }\n\n        return registeredPools.length;\n    }\n\n    /**\n     * @notice removes supplied address from array of addresses\n     *\n     * @param value - Address to look up and remove element\n     */\n    function removeByValue(address value) private {\n        registeredPoolsMapping[value] = false;\n        uint i = find(value);\n        removeByIndex(i);\n    }\n\n    /**\n     * @notice remove the item at index, resizing array as needed\n     *\n     * @param i - Index to remove\n     */\n    function removeByIndex(uint i) private {\n        while (i < registeredPools.length - 1) {\n            registeredPools [i] = registeredPools [i + 1];\n            i++;\n        }\n        registeredPools.pop();\n    }\n\n    /**\n     * @dev Modifier to check token allowance\n     *\n     * @param supportedWeightedPool - Weighted pool address to remove\n     */\n    modifier checkPoolSupported(address supportedWeightedPool) {\n        require(registeredPoolsMapping[supportedWeightedPool], \"Pool not registered\");\n        _;\n    }\n}\n",
  "sourcePath": "/home/eagle/Source/BalancerController/Balancer.Controller/contracts/WeightedReserveController.sol",
  "compiler": {
    "name": "solc",
    "version": "0.8.0+commit.c7dfd78e.Emscripten.clang"
  },
  "schemaVersion": "3.4.13",
  "updatedAt": "2023-09-16T19:16:05.048Z",
  "networkType": "ethereum",
  "devdoc": {
    "kind": "dev",
    "methods": {
      "buyReserveToken(address,uint256,address)": {
        "params": {
          "amountIn": "- The amount being traded",
          "recipient": "- Address of person to receive the reserve tokens",
          "tokenIn": "- Address of collateral token"
        }
      },
      "calculateBalancing(address)": {
        "params": {
          "poolAddress": "- Address of pool being worked on."
        }
      },
      "constructor": {
        "params": {
          "supportedWeightedPoolNoAMFactory": "- ManegedPoolFactory address",
          "vaultAddress": "- Vault contract address"
        }
      },
      "createPool(string,string,address[],uint256[],address[],uint256,bool,bool,uint256,uint256,bytes32)": {
        "params": {
          "assetManagers": "- Asset manager for the pool",
          "aumFeeId": "- Aum Fee Id",
          "isMustAllowlistLPs": "- List of LP's allowed in the pool",
          "isSwapEnabledOnStart": "- Whether swaps are enabled straight away",
          "managementAumFeePercentage": "- Management Aum fee to apply",
          "name": "- Pool name",
          "normalizedWeights": "- Normalized weights in the pool",
          "salt": "- Salt applied to address to ensure uniqueness",
          "swapFeePercentage": "- Fee applied to swaps",
          "symbol": "- Symbol representing the pool",
          "tokens": "- Tokens in the pool"
        }
      },
      "deRegisterWeightedPool(address)": {
        "params": {
          "weightedPool": "- Address of pool being worked on."
        }
      },
      "getTokenPrice(address)": {
        "params": {
          "value": "- Address to find"
        }
      },
      "registerWeightedPool(address)": {
        "params": {
          "weightedPool": "- Address of pool being worked on."
        }
      },
      "sellReserveToken(address,uint256,address)": {
        "details": "To avoid too many fees, this should be run at wide intervals such as daily",
        "params": {
          "amountIn": "- The amount being traded",
          "pool": "- Address of collateral token",
          "recipient": "- Address of person to receive the swapped tokens"
        }
      },
      "transferManagement(address)": {
        "details": "Only one manager can presently be set",
        "params": {
          "supportedManager": "- New manager."
        }
      }
    },
    "version": 1
  },
  "userdoc": {
    "kind": "user",
    "methods": {
      "buyReserveToken(address,uint256,address)": {
        "notice": "This function is used for pools containing two tokens. It takes in a collateral token such as BPT, calculates an equal value amount of the reserve token such as G$ then mints and returns it."
      },
      "calculateBalancing(address)": {
        "notice": "Calculates a number of tokens to add or remove to rebalance pricing"
      },
      "constructor": {
        "notice": "Constructor for the controller base class"
      },
      "createPool(string,string,address[],uint256[],address[],uint256,bool,bool,uint256,uint256,bytes32)": {
        "notice": "Create and register a new weighted pool"
      },
      "deRegisterWeightedPool(address)": {
        "notice": "Deregister weighted pool"
      },
      "getRegisteredPools()": {
        "notice": "returns a list of registered pools"
      },
      "getTokenPrice(address)": {
        "notice": "returns the oracle supplied price for the requested token"
      },
      "registerWeightedPool(address)": {
        "notice": "Register weighted pool"
      },
      "sellReserveToken(address,uint256,address)": {
        "notice": "Runs a check and transfers reserve tokens as needed"
      },
      "transferManagement(address)": {
        "notice": "Transfer the manager to a new address"
      }
    },
    "version": 1
  }
}