{
  "contractName": "WeightedReserveController",
  "abi": [
    {
      "inputs": [
        {
          "internalType": "address",
          "name": "vaultAddress",
          "type": "address"
        },
        {
          "internalType": "address",
          "name": "supportedWeightedPoolNoAMFactory",
          "type": "address"
        }
      ],
      "stateMutability": "nonpayable",
      "type": "constructor"
    },
    {
      "anonymous": false,
      "inputs": [
        {
          "indexed": true,
          "internalType": "address",
          "name": "buyer",
          "type": "address"
        },
        {
          "indexed": true,
          "internalType": "address",
          "name": "tokenIn",
          "type": "address"
        },
        {
          "indexed": false,
          "internalType": "uint256",
          "name": "amountIn",
          "type": "uint256"
        },
        {
          "indexed": false,
          "internalType": "uint256",
          "name": "reserveTokenOut",
          "type": "uint256"
        }
      ],
      "name": "BoughtReserveToken",
      "type": "event"
    },
    {
      "anonymous": false,
      "inputs": [
        {
          "indexed": false,
          "internalType": "address",
          "name": "account",
          "type": "address"
        }
      ],
      "name": "Paused",
      "type": "event"
    },
    {
      "anonymous": false,
      "inputs": [
        {
          "indexed": true,
          "internalType": "address",
          "name": "seller",
          "type": "address"
        },
        {
          "indexed": true,
          "internalType": "address",
          "name": "pool",
          "type": "address"
        },
        {
          "indexed": false,
          "internalType": "uint256",
          "name": "amountIn",
          "type": "uint256"
        },
        {
          "indexed": false,
          "internalType": "uint256",
          "name": "bptOut",
          "type": "uint256"
        }
      ],
      "name": "SoldReserveToken",
      "type": "event"
    },
    {
      "anonymous": false,
      "inputs": [
        {
          "indexed": false,
          "internalType": "address",
          "name": "account",
          "type": "address"
        }
      ],
      "name": "Unpaused",
      "type": "event"
    },
    {
      "inputs": [],
      "name": "PERCENTAGE_DENOMINATOR",
      "outputs": [
        {
          "internalType": "uint256",
          "name": "",
          "type": "uint256"
        }
      ],
      "stateMutability": "view",
      "type": "function"
    },
    {
      "inputs": [
        {
          "internalType": "address",
          "name": "manager",
          "type": "address"
        }
      ],
      "name": "addManager",
      "outputs": [],
      "stateMutability": "nonpayable",
      "type": "function"
    },
    {
      "inputs": [
        {
          "internalType": "address",
          "name": "poolAddress",
          "type": "address"
        }
      ],
      "name": "calculateBalancing",
      "outputs": [
        {
          "components": [
            {
              "components": [
                {
                  "internalType": "contract IAsset[]",
                  "name": "assets",
                  "type": "address[]"
                },
                {
                  "internalType": "uint256[]",
                  "name": "minAmountsOut",
                  "type": "uint256[]"
                },
                {
                  "internalType": "bytes",
                  "name": "userData",
                  "type": "bytes"
                },
                {
                  "internalType": "bool",
                  "name": "toInternalBalance",
                  "type": "bool"
                }
              ],
              "internalType": "struct IVault.ExitPoolRequest",
              "name": "newExitRequest",
              "type": "tuple"
            },
            {
              "components": [
                {
                  "internalType": "contract IAsset[]",
                  "name": "assets",
                  "type": "address[]"
                },
                {
                  "internalType": "uint256[]",
                  "name": "maxAmountsIn",
                  "type": "uint256[]"
                },
                {
                  "internalType": "bytes",
                  "name": "userData",
                  "type": "bytes"
                },
                {
                  "internalType": "bool",
                  "name": "fromInternalBalance",
                  "type": "bool"
                }
              ],
              "internalType": "struct IVault.JoinPoolRequest",
              "name": "newJoinRequest",
              "type": "tuple"
            }
          ],
          "internalType": "struct PoolAdjustments",
          "name": "",
          "type": "tuple"
        }
      ],
      "stateMutability": "view",
      "type": "function"
    },
    {
      "inputs": [
        {
          "internalType": "address",
          "name": "tokenAddress",
          "type": "address"
        }
      ],
      "name": "getTokenPrice",
      "outputs": [
        {
          "internalType": "int256",
          "name": "",
          "type": "int256"
        }
      ],
      "stateMutability": "view",
      "type": "function"
    },
    {
      "inputs": [
        {
          "internalType": "address",
          "name": "",
          "type": "address"
        }
      ],
      "name": "isManager",
      "outputs": [
        {
          "internalType": "bool",
          "name": "",
          "type": "bool"
        }
      ],
      "stateMutability": "view",
      "type": "function"
    },
    {
      "inputs": [],
      "name": "pause",
      "outputs": [],
      "stateMutability": "nonpayable",
      "type": "function"
    },
    {
      "inputs": [],
      "name": "paused",
      "outputs": [
        {
          "internalType": "bool",
          "name": "",
          "type": "bool"
        }
      ],
      "stateMutability": "view",
      "type": "function"
    },
    {
      "inputs": [
        {
          "internalType": "address",
          "name": "manager",
          "type": "address"
        }
      ],
      "name": "removeManager",
      "outputs": [],
      "stateMutability": "nonpayable",
      "type": "function"
    },
    {
      "inputs": [
        {
          "internalType": "address",
          "name": "token",
          "type": "address"
        },
        {
          "internalType": "address",
          "name": "feed",
          "type": "address"
        }
      ],
      "name": "setTokenFeed",
      "outputs": [],
      "stateMutability": "nonpayable",
      "type": "function"
    },
    {
      "inputs": [
        {
          "internalType": "address",
          "name": "",
          "type": "address"
        }
      ],
      "name": "tokenFeeds",
      "outputs": [
        {
          "internalType": "address",
          "name": "",
          "type": "address"
        }
      ],
      "stateMutability": "view",
      "type": "function"
    },
    {
      "inputs": [],
      "name": "unpause",
      "outputs": [],
      "stateMutability": "nonpayable",
      "type": "function"
    },
    {
      "inputs": [
        {
          "internalType": "address",
          "name": "",
          "type": "address"
        }
      ],
      "name": "weightedPools",
      "outputs": [
        {
          "internalType": "string",
          "name": "poolName",
          "type": "string"
        },
        {
          "internalType": "string",
          "name": "poolSymbol",
          "type": "string"
        },
        {
          "internalType": "uint256",
          "name": "tolerance",
          "type": "uint256"
        }
      ],
      "stateMutability": "view",
      "type": "function"
    },
    {
      "inputs": [],
      "name": "getRegisteredPools",
      "outputs": [
        {
          "internalType": "address[]",
          "name": "",
          "type": "address[]"
        }
      ],
      "stateMutability": "view",
      "type": "function"
    },
    {
      "inputs": [
        {
          "internalType": "address",
          "name": "weightedPool",
          "type": "address"
        }
      ],
      "name": "registerWeightedPool",
      "outputs": [],
      "stateMutability": "nonpayable",
      "type": "function"
    },
    {
      "inputs": [
        {
          "internalType": "address",
          "name": "weightedPool",
          "type": "address"
        }
      ],
      "name": "deRegisterWeightedPool",
      "outputs": [],
      "stateMutability": "nonpayable",
      "type": "function"
    },
    {
      "inputs": [
        {
          "internalType": "address",
          "name": "tokenIn",
          "type": "address"
        },
        {
          "internalType": "uint256",
          "name": "amountIn",
          "type": "uint256"
        },
        {
          "internalType": "address",
          "name": "recipient",
          "type": "address"
        }
      ],
      "name": "buyReserveToken",
      "outputs": [],
      "stateMutability": "nonpayable",
      "type": "function"
    },
    {
      "inputs": [
        {
          "internalType": "address",
          "name": "pool",
          "type": "address"
        },
        {
          "internalType": "uint256",
          "name": "amountIn",
          "type": "uint256"
        },
        {
          "internalType": "address",
          "name": "recipient",
          "type": "address"
        }
      ],
      "name": "sellReserveToken",
      "outputs": [],
      "stateMutability": "nonpayable",
      "type": "function"
    }
  ],
  "bytecode": "0x60c06040523480156200001157600080fd5b506040516200252c3803806200252c83398101604081905262000034916200026e565b60016000818155815460ff1990811683556001600160601b0319606095861b81166080523383526003602090815260408420805490931690941790915560049092527f4f03f9165518d56b1edfdd10086a224460eb561524700361535e7e33be96dcdb80546001600160a01b031990811673128fe88eaa22bffb868bb3a584a54c96ee24014b179091557f7c0f9c8dca1139a9f62829fbc69c87f447f6c9d58f7b4cca1418da9c87a8886180548216730568fd19986748ceff3301e55c0eb1e729e0ab7e1790557f5bb005e3c44990943f9b77709d1ca1ed9bc660cfbf374a504a6d191a3edaa5c380548216731fcd30a73d67639c1cd89ff5746e7585731c083b1790557f47691a5a6d629e9672ee2df080468d466c301da2a465fe573fd65a3c84d15c8a80548216733d207061dbe8e2473527611bfecb87ff12b28dda1790557fe33db47f537c02d221c929da92d89f75e426a15b7c9f16a718c55e68e8bf0fc080548216736b6a4c71ec3858a024f3f0ee44bb0adcbed3dcc21790557f397452e5ccea6f50840044864e50258652019f6f308472bf18c4bf7e5e0c062f8054821673c7a353bae210aed958a1a2928b654938ec59dab217905573f6d198cd2a85bb2f3021cdbdab6b878474079be79091527fb5306958d449a4b127cb1c34c787089b226157ae8f211b96ca684eb7a1156c928054909116735e37af40a7a344ec9b03ccd34a250f3da9a20b02179055911b1660a052620002a5565b80516001600160a01b03811681146200026957600080fd5b919050565b6000806040838503121562000281578182fd5b6200028c8362000251565b91506200029c6020840162000251565b90509250929050565b60805160601c60a05160601c612257620002d56000396000505060008181610954015261159f01526122576000f3fe608060405234801561001057600080fd5b506004361061010b5760003560e01c80638456cb59116100a2578063c0e3fccb11610071578063c0e3fccb146101fc578063d02641a01461020f578063d62e368114610222578063d87ac65f14610244578063f3ae2415146102645761010b565b80638456cb59146101b957806387ef019a146101c1578063ac18de43146101d4578063b3cd4254146101e75761010b565b80634fed9acd116100de5780634fed9acd1461015357806358a67da31461017c5780635c975abb1461018f578063659d4f5c146101a45761010b565b80631b439d69146101105780632d06177a146101255780633f4ba83a146101385780634795885114610140575b600080fd5b61012361011e366004611a74565b610277565b005b610123610133366004611a20565b610523565b6101236105d5565b61012361014e366004611a74565b61060e565b610166610161366004611a20565b610896565b6040516101739190612061565b60405180910390f35b61012361018a366004611a20565b610fe5565b61019761107b565b6040516101739190611e02565b6101ac611084565b6040516101739190611db5565b6101236110e6565b6101236101cf366004611a3c565b61111d565b6101236101e2366004611a20565b61117a565b6101ef611202565b6040516101739190611e0d565b61012361020a366004611a20565b611207565b6101ef61021d366004611a20565b611260565b610235610230366004611a20565b611320565b60405161017393929190611e16565b610257610252366004611a20565b611452565b6040516101739190611d64565b610197610272366004611a20565b61146d565b61027f611482565b6001600160a01b038316600090815260066020526040902054839060ff166102c25760405162461bcd60e51b81526004016102b990611fc6565b60405180910390fd5b60008490506000816001600160a01b03166318160ddd6040518163ffffffff1660e01b815260040160206040518083038186803b15801561030257600080fd5b505afa158015610316573d6000803e3d6000fd5b505050506040513d601f19601f8201168201806040525081019061033a9190611bdc565b90506000811161035c5760405162461bcd60e51b81526004016102b990611f58565b600061037a8261037488670de0b6b3a76400006114ac565b906114bf565b90506000610394670de0b6b3a764000061037484866114ac565b6040516323b872dd60e01b8152909150737d9d314ee8183653f800e551030d0b27663a15579081906323b872dd906103d490339030908d90600401611d78565b602060405180830381600087803b1580156103ee57600080fd5b505af1158015610402573d6000803e3d6000fd5b505050506040513d601f19601f820116820180604052508101906104269190611bbc565b6104425760405162461bcd60e51b81526004016102b990611f21565b60405163a9059cbb60e01b81526001600160a01b0386169063a9059cbb90610470908a908690600401611d9c565b602060405180830381600087803b15801561048a57600080fd5b505af115801561049e573d6000803e3d6000fd5b505050506040513d601f19601f820116820180604052508101906104c29190611bbc565b50886001600160a01b0316336001600160a01b03167ff491fcefb4023b6cb463c4cc77af1ae0708ff8398b275985f0c6fc6cdd10212b8a856040516105089291906120a3565b60405180910390a350505050505061051e6114cb565b505050565b3360009081526003602052604090205460ff166105525760405162461bcd60e51b81526004016102b990611ecd565b6001600160a01b0381166105785760405162461bcd60e51b81526004016102b990611e7a565b6001600160a01b03811660009081526003602052604090205460ff16156105b15760405162461bcd60e51b81526004016102b990611f8f565b6001600160a01b03166000908152600360205260409020805460ff19166001179055565b3360009081526003602052604090205460ff166106045760405162461bcd60e51b81526004016102b990611ecd565b61060c6114d2565b565b610616611482565b6001600160a01b038316600090815260066020526040902054839060ff166106505760405162461bcd60e51b81526004016102b990611fc6565b600084905060008590506000816001600160a01b03166318160ddd6040518163ffffffff1660e01b815260040160206040518083038186803b15801561069557600080fd5b505afa1580156106a9573d6000803e3d6000fd5b505050506040513d601f19601f820116820180604052508101906106cd9190611bdc565b9050600081116106ef5760405162461bcd60e51b81526004016102b990611f58565b60006107078261037489670de0b6b3a76400006114ac565b9050600061071485611524565b9050600061072e670de0b6b3a764000061037485856114ac565b6040516323b872dd60e01b81529091506001600160a01b038616906323b872dd9061076190339030908e90600401611d78565b602060405180830381600087803b15801561077b57600080fd5b505af115801561078f573d6000803e3d6000fd5b505050506040513d601f19601f820116820180604052508101906107b39190611bbc565b6107cf5760405162461bcd60e51b81526004016102b990611f21565b6040516340c10f1960e01b8152737d9d314ee8183653f800e551030d0b27663a1557906340c10f1990610808908b908590600401611d9c565b600060405180830381600087803b15801561082257600080fd5b505af1158015610836573d6000803e3d6000fd5b50505050896001600160a01b0316336001600160a01b03167f38dc357237572032f449d87124548f6e841fb06afa2174884d80d85a06fd3b048b8460405161087f9291906120a3565b60405180910390a35050505050505061051e6114cb565b61089e61194b565b3360009081526003602052604090205460ff166108cd5760405162461bcd60e51b81526004016102b990611ecd565b6108d56116fd565b60008290506000816001600160a01b03166338fff2d06040518163ffffffff1660e01b815260040160206040518083038186803b15801561091557600080fd5b505afa158015610929573d6000803e3d6000fd5b505050506040513d601f19601f8201168201806040525081019061094d9190611bdc565b90506000807f00000000000000000000000000000000000000000000000000000000000000006001600160a01b031663f94d4668846040518263ffffffff1660e01b815260040161099e9190611e0d565b60006040518083038186803b1580156109b657600080fd5b505afa1580156109ca573d6000803e3d6000fd5b505050506040513d6000823e601f3d908101601f191682016040526109f29190810190611ab5565b50915091506000846001600160a01b031663f89f27ed6040518163ffffffff1660e01b815260040160006040518083038186803b158015610a3257600080fd5b505afa158015610a46573d6000803e3d6000fd5b505050506040513d6000823e601f3d908101601f19168201604052610a6e9190810190611b81565b90506000835167ffffffffffffffff811115610a9a57634e487b7160e01b600052604160045260246000fd5b604051908082528060200260200182016040528015610ac3578160200160208202803683370190505b5090506000845167ffffffffffffffff811115610af057634e487b7160e01b600052604160045260246000fd5b604051908082528060200260200182016040528015610b19578160200160208202803683370190505b50905060005b8551811015610d4457610b58868281518110610b4b57634e487b7160e01b600052603260045260246000fd5b6020026020010151611260565b838281518110610b7857634e487b7160e01b600052603260045260246000fd5b602002602001018181525050600080868381518110610ba757634e487b7160e01b600052603260045260246000fd5b60200260200101511115610c6957610c66610c19868481518110610bdb57634e487b7160e01b600052603260045260246000fd5b6020026020010151888581518110610c0357634e487b7160e01b600052603260045260246000fd5b60200260200101516114ac90919063ffffffff16565b61037487600081518110610c3d57634e487b7160e01b600052603260045260246000fd5b602002602001015189600081518110610c0357634e487b7160e01b600052603260045260246000fd5b90505b80848381518110610c8a57634e487b7160e01b600052603260045260246000fd5b602002602001015112610d0257610cd181858481518110610cbb57634e487b7160e01b600052603260045260246000fd5b602002602001015161172290919063ffffffff16565b838381518110610cf157634e487b7160e01b600052603260045260246000fd5b602002602001018181525050610d31565b6000838381518110610d2457634e487b7160e01b600052603260045260246000fd5b6020026020010181815250505b5080610d3c816121a8565b915050610b1f565b506000855167ffffffffffffffff811115610d6f57634e487b7160e01b600052604160045260246000fd5b604051908082528060200260200182016040528015610d98578160200160208202803683370190505b5090506000865167ffffffffffffffff811115610dc557634e487b7160e01b600052604160045260246000fd5b604051908082528060200260200182016040528015610dee578160200160208202803683370190505b506001600160a01b038c16600090815260026020819052604082200154919250908190815b8a51811015610f4a5781878281518110610e3d57634e487b7160e01b600052603260045260246000fd5b602002602001015112610ea857610e736064610374848d8581518110610c0357634e487b7160e01b600052603260045260246000fd5b858281518110610e9357634e487b7160e01b600052603260045260246000fd5b60200260200101818152505060019250610f38565b610eb1826121c3565b878281518110610ed157634e487b7160e01b600052603260045260246000fd5b602002602001015113610f3857610f076064610374848d8581518110610c0357634e487b7160e01b600052603260045260246000fd5b868281518110610f2757634e487b7160e01b600052603260045260246000fd5b602002602001018181525050600193505b80610f42816121a8565b915050610e13565b506000610f568b61172e565b9050610f6061194b565b8315610f97576040805160808101825283815260208082018990528251908101835260008152918101919091526001606082015281525b8415610fd0576040805160808101825283815260208082018a905282518082018452600081529282019290925260016060820152908201525b9d50505050505050505050505050505b919050565b3360009081526003602052604090205460ff166110145760405162461bcd60e51b81526004016102b990611ecd565b6005805460018181019092557f036b6384b5eca791c62761152d0c79bb0604c104a5fb6f4eb0703f3154bb3db00180546001600160a01b039093166001600160a01b031990931683179055600091825260066020526040909120805460ff19169091179055565b60015460ff1690565b606060058054806020026020016040519081016040528092919081815260200182805480156110dc57602002820191906000526020600020905b81546001600160a01b031681526001909101906020018083116110be575b5050505050905090565b3360009081526003602052604090205460ff166111155760405162461bcd60e51b81526004016102b990611ecd565b61060c611731565b3360009081526003602052604090205460ff1661114c5760405162461bcd60e51b81526004016102b990611ecd565b6001600160a01b03918216600090815260046020526040902080546001600160a01b03191691909216179055565b3360009081526003602052604090205460ff166111a95760405162461bcd60e51b81526004016102b990611ecd565b6001600160a01b03811660009081526003602052604090205460ff166111e15760405162461bcd60e51b81526004016102b990611ff3565b6001600160a01b03166000908152600360205260409020805460ff19169055565b606481565b3360009081526003602052604090205460ff166112365760405162461bcd60e51b81526004016102b990611ecd565b61123f8161176e565b6001600160a01b03166000908152600660205260409020805460ff19169055565b6001600160a01b038082166000908152600460205260408120549091168061129a5760405162461bcd60e51b81526004016102b990611ef4565b60008190506000816001600160a01b031663feaf968c6040518163ffffffff1660e01b815260040160a06040518083038186803b1580156112da57600080fd5b505afa1580156112ee573d6000803e3d6000fd5b505050506040513d601f19601f820116820180604052508101906113129190611bf4565b509198975050505050505050565b60026020526000908152604090208054819061133b9061216d565b80601f01602080910402602001604051908101604052809291908181526020018280546113679061216d565b80156113b45780601f10611389576101008083540402835291602001916113b4565b820191906000526020600020905b81548152906001019060200180831161139757829003601f168201915b5050505050908060010180546113c99061216d565b80601f01602080910402602001604051908101604052809291908181526020018280546113f59061216d565b80156114425780601f1061141757610100808354040283529160200191611442565b820191906000526020600020905b81548152906001019060200180831161142557829003601f168201915b5050505050908060020154905083565b6004602052600090815260409020546001600160a01b031681565b60036020526000908152604090205460ff1681565b600260005414156114a55760405162461bcd60e51b81526004016102b99061202a565b6002600055565b60006114b88284612137565b9392505050565b60006114b88284612117565b6001600055565b6114da6117a6565b6001805460ff191690557f5db9ee0a495bf2e6ff9c91a7834c1ba4fdd244a5e8aa4e537bd38aeae4b073aa61150d6117ca565b60405161151a9190611d64565b60405180910390a1565b600080826001600160a01b03166338fff2d06040518163ffffffff1660e01b815260040160206040518083038186803b15801561156057600080fd5b505afa158015611574573d6000803e3d6000fd5b505050506040513d601f19601f820116820180604052508101906115989190611bdc565b90506000807f00000000000000000000000000000000000000000000000000000000000000006001600160a01b031663f94d4668846040518263ffffffff1660e01b81526004016115e99190611e0d565b60006040518083038186803b15801561160157600080fd5b505afa158015611615573d6000803e3d6000fd5b505050506040513d6000823e601f3d908101601f1916820160405261163d9190810190611ab5565b50915091506000805b83518110156116f357600083828151811061167157634e487b7160e01b600052603260045260246000fd5b602002602001015111156116e15760006116a4858381518110610b4b57634e487b7160e01b600052603260045260246000fd5b90506116dd6116d66402540be40061037484888781518110610c0357634e487b7160e01b600052603260045260246000fd5b84906117ce565b9250505b806116eb816121a8565b915050611646565b5095945050505050565b61170561107b565b1561060c5760405162461bcd60e51b81526004016102b990611ea3565b60006114b88284612156565b90565b6117396116fd565b6001805460ff1916811790557f62e78cea01bee320cd4e420270b5ea74000d11b0c9f74754ebdbfc544b05a25861150d6117ca565b6001600160a01b0381166000908152600660205260408120805460ff19169055611797826117da565b90506117a281611851565b5050565b6117ae61107b565b61060c5760405162461bcd60e51b81526004016102b990611e4c565b3390565b60006114b882846120ff565b6000805b60055481101561184757826001600160a01b03166005828154811061181357634e487b7160e01b600052603260045260246000fd5b6000918252602090912001546001600160a01b03161415611835579050610fe0565b8061183f816121a8565b9150506117de565b5050600554919050565b60055461186090600190612156565b8110156119075760056118748260016120ff565b8154811061189257634e487b7160e01b600052603260045260246000fd5b600091825260209091200154600580546001600160a01b0390921691839081106118cc57634e487b7160e01b600052603260045260246000fd5b600091825260209091200180546001600160a01b0319166001600160a01b0392909216919091179055806118ff816121a8565b915050611851565b600580548061192657634e487b7160e01b600052603160045260246000fd5b600082815260209020810160001990810180546001600160a01b031916905501905550565b604051806040016040528061195e611970565b815260200161196b611970565b905290565b60405180608001604052806060815260200160608152602001606081526020016000151581525090565b600082601f8301126119aa578081fd5b815160206119bf6119ba836120db565b6120b1565b82815281810190858301838502870184018810156119db578586fd5b855b858110156119f9578151845292840192908401906001016119dd565b5090979650505050505050565b805169ffffffffffffffffffff81168114610fe057600080fd5b600060208284031215611a31578081fd5b81356114b881612209565b60008060408385031215611a4e578081fd5b8235611a5981612209565b91506020830135611a6981612209565b809150509250929050565b600080600060608486031215611a88578081fd5b8335611a9381612209565b9250602084013591506040840135611aaa81612209565b809150509250925092565b600080600060608486031215611ac9578283fd5b835167ffffffffffffffff80821115611ae0578485fd5b818601915086601f830112611af3578485fd5b81516020611b036119ba836120db565b82815281810190858301838502870184018c1015611b1f57898afd5b8996505b84871015611b4a578051611b3681612209565b835260019690960195918301918301611b23565b5091890151919750909350505080821115611b63578384fd5b50611b708682870161199a565b925050604084015190509250925092565b600060208284031215611b92578081fd5b815167ffffffffffffffff811115611ba8578182fd5b611bb48482850161199a565b949350505050565b600060208284031215611bcd578081fd5b815180151581146114b8578182fd5b600060208284031215611bed578081fd5b5051919050565b600080600080600060a08688031215611c0b578081fd5b611c1486611a06565b9450602086015193506040860151925060608601519150611c3760808701611a06565b90509295509295909350565b6000815180845260208085019450808401835b83811015611c7257815187529582019590820190600101611c56565b509495945050505050565b15159052565b60008151808452815b81811015611ca857602081850181015186830182015201611c8c565b81811115611cb95782602083870101525b50601f01601f19169290920160200192915050565b8051608080845281519084018190526000916020919082019060a0860190845b81811015611d135783516001600160a01b031683529284019291840191600101611cee565b505082850151915085810383870152611d2c8183611c43565b9250505060408301518482036040860152611d478282611c83565b9150506060830151611d5c6060860182611c7d565b509392505050565b6001600160a01b0391909116815260200190565b6001600160a01b039384168152919092166020820152604081019190915260600190565b6001600160a01b03929092168252602082015260400190565b6020808252825182820181905260009190848201906040850190845b81811015611df65783516001600160a01b031683529284019291840191600101611dd1565b50909695505050505050565b901515815260200190565b90815260200190565b600060608252611e296060830186611c83565b8281036020840152611e3b8186611c83565b915050826040830152949350505050565b60208082526014908201527314185d5cd8589b194e881b9bdd081c185d5cd95960621b604082015260600190565b6020808252600f908201526e496e76616c6964206164647265737360881b604082015260600190565b60208082526010908201526f14185d5cd8589b194e881c185d5cd95960821b604082015260600190565b6020808252600d908201526c2737ba10309036b0b730b3b2b960991b604082015260600190565b602080825260139082015272151bdad95b881b9bdd081cdd5c1c1bdc9d1959606a1b604082015260600190565b6020808252601f908201527f5472616e73666572206f6620696e70757420746f6b656e73206661696c656400604082015260600190565b60208082526019908201527f496e76616c696420706f6f6c20746f74616c20737570706c7900000000000000604082015260600190565b6020808252601c908201527f4164647265737320697320616c72656164792061206d616e6167657200000000604082015260600190565b602080825260139082015272141bdbdb081b9bdd081c9959da5cdd195c9959606a1b604082015260600190565b60208082526017908201527f416464726573732069736e27742061206d616e61676572000000000000000000604082015260600190565b6020808252601f908201527f5265656e7472616e637947756172643a207265656e7472616e742063616c6c00604082015260600190565b60006020825282516040602084015261207d6060840182611cce565b90506020840151601f1984830301604085015261209a8282611cce565b95945050505050565b918252602082015260400190565b60405181810167ffffffffffffffff811182821017156120d3576120d36121f3565b604052919050565b600067ffffffffffffffff8211156120f5576120f56121f3565b5060209081020190565b60008219821115612112576121126121dd565b500190565b60008261213257634e487b7160e01b81526012600452602481fd5b500490565b6000816000190483118215151615612151576121516121dd565b500290565b600082821015612168576121686121dd565b500390565b60028104600182168061218157607f821691505b602082108114156121a257634e487b7160e01b600052602260045260246000fd5b50919050565b60006000198214156121bc576121bc6121dd565b5060010190565b6000600160ff1b8214156121d9576121d96121dd565b0390565b634e487b7160e01b600052601160045260246000fd5b634e487b7160e01b600052604160045260246000fd5b6001600160a01b038116811461221e57600080fd5b5056fea2646970667358221220748ae73d92c62df6e6c77e4a1595c8b5ac98bf756b9883248df9e80e0d40724364736f6c63430008000033",
  "immutableReferences": {
    "1887": [
      {
        "length": 32,
        "start": 2388
      },
      {
        "length": 32,
        "start": 5535
      }
    ]
  },
  "source": "// SPDX-License-Identifier: MIT\n\npragma solidity ^0.8.0;\n\nimport \"./base/BaseWeightedUtils.sol\";\nimport \"./lib/WeightedPool.sol\";\nimport \"@balancer-labs/interfaces/contracts/vault/IVault.sol\";\nimport \"./lib/WeightedPoolNoAMFactory.sol\";\nimport \"./lib/ReserveToken.sol\";\n\ncontract WeightedReserveController is BaseWeightedUtils {\n    using SafeMath for uint256; // Use SafeMath for uint256\n\n    uint256 private constant DECIMALS = 10 ** 18;\n    address private constant RESERVE_TOKEN = 0x7d9d314Ee8183653F800e551030d0b27663A1557;\n\n    struct TradeValues {\n        IWeightedPool collateral;\n        bytes32 poolId;\n        int [] tokenPrices;\n        uint256 [] normalizedWeights;\n        IERC20 [] tokens;\n        uint256 [] balances;\n        IAsset [] assets;\n    }\n\n    address [] private registeredPools;\n    mapping(address => bool) private registeredPoolsMapping;\n    address internal immutable weightedPoolNoAMFactory;\n\n    /**\n     * @notice Constructor for the controller base class\n     *\n     * @param vaultAddress - Vault contract address\n     * @param supportedWeightedPoolNoAMFactory - ManegedPoolFactory address\n     */\n    constructor(address vaultAddress, address supportedWeightedPoolNoAMFactory)\n    BaseWeightedUtils(vaultAddress) {\n        weightedPoolNoAMFactory = supportedWeightedPoolNoAMFactory;\n    }\n\n    /**\n     * @notice returns a list of registered pools\n     *\n     */\n    function getRegisteredPools() public view returns (address [] memory) {\n        return registeredPools;\n    }\n\n    /**\n     * @notice Register weighted pool\n     *\n     * @param weightedPool - Address of pool being worked on.\n     */\n    function registerWeightedPool(\n        address weightedPool\n    ) public onlyManager {\n        registeredPools.push(weightedPool);\n        registeredPoolsMapping[weightedPool] = true;\n    }\n\n    /**\n     * @notice Deregister weighted pool\n     *\n     * @param weightedPool - Address of pool being worked on.\n     */\n    function deRegisterWeightedPool(\n        address weightedPool\n    ) public onlyManager {\n        removeByValue(weightedPool);\n        registeredPoolsMapping[weightedPool] = false;\n    }\n\n    /**\n     * @notice This function is used for pools containing two tokens.\n     * It takes in a collateral token such as BPT, calculates an equal\n     * value amount of the reserve token such as G$ then mints and returns it.\n     *\n     * @param tokenIn - Address of collateral token\n     * @param amountIn - The amount being traded\n     * @param recipient - Address of person to receive the reserve tokens\n     */\n    function buyReserveToken(\n        address tokenIn,\n        uint256 amountIn,\n        address recipient\n    )\n        public \n        nonReentrant \n        checkPoolSupported(tokenIn) \n    {\n        IWeightedPool collateral = IWeightedPool(tokenIn);\n        IERC20 collateralToken = IERC20(tokenIn);\n\n        // Calculate the buyer's share of the pool\n        uint256 totalSupply = collateralToken.totalSupply();\n\n        // Ensure that totalSupply is not zero to prevent division by zero\n        require(totalSupply > 0, \"Invalid pool total supply\");\n        \n        uint256 buyersShare = amountIn.mul(DECIMALS).div(totalSupply);\n\n        // Calculate total value of the pool\n        uint256 totalPoolValue = getPoolValue(collateral);\n\n        // Calculate supplied token value\n        uint256 buyersShareValue = buyersShare.mul(totalPoolValue).div(DECIMALS);\n\n        require(collateralToken.transferFrom(msg.sender, address(this), amountIn), \"Transfer of input tokens failed\");\n\n        // Mint and Transfer the output tokens from this contract to the recipient\n        ReserveToken(RESERVE_TOKEN).mint(recipient, buyersShareValue);\n        \n        emit BoughtReserveToken(msg.sender, tokenIn, amountIn, buyersShareValue);\n    }\n\n    function getPoolValue(IWeightedPool collateral) internal view returns (uint256) {\n        bytes32 poolId = collateral.getPoolId();\n        (IERC20[] memory tokens, uint256[] memory balances, ) = vault.getPoolTokens(poolId);\n        \n        uint256 totalValue = 0;\n        for (uint256 i = 0; i < tokens.length; i++) {\n            if (balances[i] > 0) {\n                int price = getTokenPrice(address(tokens[i]));\n                totalValue = totalValue.add(balances[i].mul(uint256(price)).div(10**10));  // Adjusting for 8 decimals of price\n            }\n        }\n        return totalValue;\n    }\n    \n    /**\n     * @notice Runs a check and transfers reserve tokens as needed\n     * @dev To avoid too many fees, this should be run at wide intervals such as daily\n     *\n     * @param pool - Address of collateral token\n     * @param amountIn - The amount being traded\n     * @param recipient - Address of person to receive the swapped tokens\n     */\n    function sellReserveToken(\n        address pool,\n        uint256 amountIn,\n        address recipient\n    ) \n        public \n        nonReentrant \n        checkPoolSupported(pool) \n    {\n        IERC20 bptToken = IERC20(pool);\n\n        uint256 totalSupply = bptToken.totalSupply();\n\n        // Ensure totalSupply is not zero to prevent division by zero\n        require(totalSupply > 0, \"Invalid pool total supply\");\n\n        // Calculate user's proportionate share in the pool\n        uint256 myShare = amountIn.mul(DECIMALS).div(totalSupply);\n        uint256 myBptAmount = myShare.mul(totalSupply).div(DECIMALS);\n\n        IERC20 reserveToken = IERC20(RESERVE_TOKEN);\n        require(reserveToken.transferFrom(msg.sender, address(this), amountIn), \"Transfer of input tokens failed\");\n\n        // Transfer BPT tokens from this contract to the recipient\n        bptToken.transfer(recipient, myBptAmount);\n        \n        emit SoldReserveToken(msg.sender, pool, amountIn, myBptAmount);\n    }\n\n\n    /**\n     * @notice returns the array index containing supplied address\n     *\n     * @param value - Address to find\n     */\n    function find(address value) private view returns (uint) {\n        for(uint i = 0; i < registeredPools.length; i++) {\n            if(registeredPools[i] == value) {\n                return i; \n            }\n        }\n\n        return registeredPools.length;\n    }\n\n    /**\n     * @notice removes supplied address from array of addresses\n     *\n     * @param value - Address to look up and remove element\n     */\n    function removeByValue(address value) private {\n        registeredPoolsMapping[value] = false;\n        uint i = find(value);\n        removeByIndex(i);\n    }\n\n    /**\n     * @notice remove the item at index, resizing array as needed\n     *\n     * @param i - Index to remove\n     */\n    function removeByIndex(uint i) private {\n        while (i < registeredPools.length - 1) {\n            registeredPools [i] = registeredPools [i + 1];\n            i++;\n        }\n        registeredPools.pop();\n    }\n\n    event BoughtReserveToken(address indexed buyer, address indexed tokenIn, uint256 amountIn, uint256 reserveTokenOut);\n    event SoldReserveToken(address indexed seller, address indexed pool, uint256 amountIn, uint256 bptOut);\n\n    /**\n     * @dev Modifier to check token allowance\n     *\n     * @param supportedWeightedPool - Weighted pool address to remove\n     */\n    modifier checkPoolSupported(address supportedWeightedPool) {\n        require(registeredPoolsMapping[supportedWeightedPool], \"Pool not registered\");\n        _;\n    }\n}\n",
  "sourcePath": "/home/eagle/Source/BalancerController/Balancer.Controller/contracts/WeightedReserveController.sol",
  "compiler": {
    "name": "solc",
    "version": "0.8.0+commit.c7dfd78e.Emscripten.clang"
  },
  "schemaVersion": "3.4.13",
  "updatedAt": "2023-09-24T15:01:24.941Z",
  "networkType": "ethereum",
  "devdoc": {
    "kind": "dev",
    "methods": {
      "addManager(address)": {
        "params": {
          "manager": "- Manager to add"
        }
      },
      "buyReserveToken(address,uint256,address)": {
        "params": {
          "amountIn": "- The amount being traded",
          "recipient": "- Address of person to receive the reserve tokens",
          "tokenIn": "- Address of collateral token"
        }
      },
      "calculateBalancing(address)": {
        "params": {
          "poolAddress": "- Address of pool being worked on."
        }
      },
      "constructor": {
        "params": {
          "supportedWeightedPoolNoAMFactory": "- ManegedPoolFactory address",
          "vaultAddress": "- Vault contract address"
        }
      },
      "deRegisterWeightedPool(address)": {
        "params": {
          "weightedPool": "- Address of pool being worked on."
        }
      },
      "getTokenPrice(address)": {
        "params": {
          "tokenAddress": "- Token to find a price for"
        }
      },
      "paused()": {
        "details": "Returns true if the contract is paused, and false otherwise."
      },
      "registerWeightedPool(address)": {
        "params": {
          "weightedPool": "- Address of pool being worked on."
        }
      },
      "removeManager(address)": {
        "params": {
          "manager": "- Manager to remove"
        }
      },
      "sellReserveToken(address,uint256,address)": {
        "details": "To avoid too many fees, this should be run at wide intervals such as daily",
        "params": {
          "amountIn": "- The amount being traded",
          "pool": "- Address of collateral token",
          "recipient": "- Address of person to receive the swapped tokens"
        }
      },
      "setTokenFeed(address,address)": {
        "params": {
          "feed": "- Oracle feed address",
          "token": "- Token address"
        }
      }
    },
    "version": 1
  },
  "userdoc": {
    "kind": "user",
    "methods": {
      "addManager(address)": {
        "notice": "Add a new manager to the collection of managers"
      },
      "buyReserveToken(address,uint256,address)": {
        "notice": "This function is used for pools containing two tokens. It takes in a collateral token such as BPT, calculates an equal value amount of the reserve token such as G$ then mints and returns it."
      },
      "calculateBalancing(address)": {
        "notice": "Calculates a number of tokens to add or remove to rebalance pricing"
      },
      "constructor": {
        "notice": "Constructor for the controller base class"
      },
      "deRegisterWeightedPool(address)": {
        "notice": "Deregister weighted pool"
      },
      "getRegisteredPools()": {
        "notice": "returns a list of registered pools"
      },
      "getTokenPrice(address)": {
        "notice": "returns the oracle supplied price for the requested token"
      },
      "pause()": {
        "notice": "Pause sensitive functions"
      },
      "registerWeightedPool(address)": {
        "notice": "Register weighted pool"
      },
      "removeManager(address)": {
        "notice": "Remove a manager to the collection of managers"
      },
      "sellReserveToken(address,uint256,address)": {
        "notice": "Runs a check and transfers reserve tokens as needed"
      },
      "setTokenFeed(address,address)": {
        "notice": "Set a new token oracle feed"
      },
      "unpause()": {
        "notice": "Unpause sensitive functions"
      }
    },
    "version": 1
  }
}