{
  "contractName": "WeightedBondingCurveController",
  "abi": [
    {
      "inputs": [
        {
          "internalType": "address",
          "name": "vaultAddress",
          "type": "address"
        },
        {
          "internalType": "address",
          "name": "supportedWeightedPoolNoAMFactory",
          "type": "address"
        }
      ],
      "stateMutability": "nonpayable",
      "type": "constructor"
    },
    {
      "anonymous": false,
      "inputs": [
        {
          "indexed": false,
          "internalType": "address",
          "name": "account",
          "type": "address"
        }
      ],
      "name": "Paused",
      "type": "event"
    },
    {
      "anonymous": false,
      "inputs": [
        {
          "indexed": false,
          "internalType": "address",
          "name": "account",
          "type": "address"
        }
      ],
      "name": "Unpaused",
      "type": "event"
    },
    {
      "inputs": [
        {
          "internalType": "address",
          "name": "manager",
          "type": "address"
        }
      ],
      "name": "addManager",
      "outputs": [],
      "stateMutability": "nonpayable",
      "type": "function"
    },
    {
      "inputs": [
        {
          "internalType": "address",
          "name": "poolAddress",
          "type": "address"
        }
      ],
      "name": "calculateBalancing",
      "outputs": [
        {
          "components": [
            {
              "components": [
                {
                  "internalType": "contract IAsset[]",
                  "name": "assets",
                  "type": "address[]"
                },
                {
                  "internalType": "uint256[]",
                  "name": "minAmountsOut",
                  "type": "uint256[]"
                },
                {
                  "internalType": "bytes",
                  "name": "userData",
                  "type": "bytes"
                },
                {
                  "internalType": "bool",
                  "name": "toInternalBalance",
                  "type": "bool"
                }
              ],
              "internalType": "struct IVault.ExitPoolRequest",
              "name": "newExitRequest",
              "type": "tuple"
            },
            {
              "components": [
                {
                  "internalType": "contract IAsset[]",
                  "name": "assets",
                  "type": "address[]"
                },
                {
                  "internalType": "uint256[]",
                  "name": "maxAmountsIn",
                  "type": "uint256[]"
                },
                {
                  "internalType": "bytes",
                  "name": "userData",
                  "type": "bytes"
                },
                {
                  "internalType": "bool",
                  "name": "fromInternalBalance",
                  "type": "bool"
                }
              ],
              "internalType": "struct IVault.JoinPoolRequest",
              "name": "newJoinRequest",
              "type": "tuple"
            },
            {
              "internalType": "uint256",
              "name": "poolTolerance",
              "type": "uint256"
            }
          ],
          "internalType": "struct PoolAdjustments",
          "name": "",
          "type": "tuple"
        }
      ],
      "stateMutability": "nonpayable",
      "type": "function"
    },
    {
      "inputs": [
        {
          "internalType": "address",
          "name": "poolAddress",
          "type": "address"
        }
      ],
      "name": "calculateBalancingValues",
      "outputs": [
        {
          "components": [
            {
              "internalType": "uint256[]",
              "name": "referenceNormalizedWeights",
              "type": "uint256[]"
            },
            {
              "internalType": "int256[]",
              "name": "priceDeltas",
              "type": "int256[]"
            },
            {
              "internalType": "uint256[]",
              "name": "oraclePrices",
              "type": "uint256[]"
            },
            {
              "internalType": "uint256[]",
              "name": "oracleReferencePrices",
              "type": "uint256[]"
            },
            {
              "internalType": "uint256[]",
              "name": "tokenBalancesToAdd",
              "type": "uint256[]"
            },
            {
              "internalType": "uint256[]",
              "name": "tokenBalancesToRemove",
              "type": "uint256[]"
            },
            {
              "internalType": "uint256[]",
              "name": "poolTokenPrices",
              "type": "uint256[]"
            }
          ],
          "internalType": "struct PoolAdjustmentValues",
          "name": "",
          "type": "tuple"
        }
      ],
      "stateMutability": "nonpayable",
      "type": "function"
    },
    {
      "inputs": [
        {
          "internalType": "string",
          "name": "name",
          "type": "string"
        },
        {
          "internalType": "string",
          "name": "symbol",
          "type": "string"
        },
        {
          "internalType": "address[]",
          "name": "tokens",
          "type": "address[]"
        },
        {
          "internalType": "uint256[]",
          "name": "normalizedWeights",
          "type": "uint256[]"
        },
        {
          "internalType": "uint256",
          "name": "swapFeePercentage",
          "type": "uint256"
        },
        {
          "internalType": "uint256",
          "name": "tolerance",
          "type": "uint256"
        }
      ],
      "name": "createPool",
      "outputs": [],
      "stateMutability": "nonpayable",
      "type": "function"
    },
    {
      "inputs": [
        {
          "internalType": "uint256",
          "name": "amount",
          "type": "uint256"
        },
        {
          "internalType": "address",
          "name": "tokenAddress",
          "type": "address"
        }
      ],
      "name": "depositTokens",
      "outputs": [],
      "stateMutability": "nonpayable",
      "type": "function"
    },
    {
      "inputs": [],
      "name": "getPoolsUnderManagement",
      "outputs": [
        {
          "internalType": "address[]",
          "name": "",
          "type": "address[]"
        }
      ],
      "stateMutability": "view",
      "type": "function",
      "constant": true
    },
    {
      "inputs": [
        {
          "internalType": "address",
          "name": "tokenAddress",
          "type": "address"
        }
      ],
      "name": "getTokenPrice",
      "outputs": [
        {
          "internalType": "int256",
          "name": "",
          "type": "int256"
        }
      ],
      "stateMutability": "view",
      "type": "function",
      "constant": true
    },
    {
      "inputs": [
        {
          "internalType": "address",
          "name": "",
          "type": "address"
        }
      ],
      "name": "isManager",
      "outputs": [
        {
          "internalType": "bool",
          "name": "",
          "type": "bool"
        }
      ],
      "stateMutability": "view",
      "type": "function",
      "constant": true
    },
    {
      "inputs": [],
      "name": "pause",
      "outputs": [],
      "stateMutability": "nonpayable",
      "type": "function"
    },
    {
      "inputs": [],
      "name": "paused",
      "outputs": [
        {
          "internalType": "bool",
          "name": "",
          "type": "bool"
        }
      ],
      "stateMutability": "view",
      "type": "function",
      "constant": true
    },
    {
      "inputs": [
        {
          "internalType": "address",
          "name": "manager",
          "type": "address"
        }
      ],
      "name": "removeManager",
      "outputs": [],
      "stateMutability": "nonpayable",
      "type": "function"
    },
    {
      "inputs": [
        {
          "internalType": "address",
          "name": "poolAddress",
          "type": "address"
        }
      ],
      "name": "setReferencePool",
      "outputs": [],
      "stateMutability": "nonpayable",
      "type": "function"
    },
    {
      "inputs": [
        {
          "internalType": "address",
          "name": "stableToken",
          "type": "address"
        }
      ],
      "name": "setStableToken",
      "outputs": [],
      "stateMutability": "nonpayable",
      "type": "function"
    },
    {
      "inputs": [
        {
          "internalType": "address",
          "name": "token",
          "type": "address"
        },
        {
          "internalType": "address",
          "name": "feed",
          "type": "address"
        }
      ],
      "name": "setTokenFeed",
      "outputs": [],
      "stateMutability": "nonpayable",
      "type": "function"
    },
    {
      "inputs": [
        {
          "internalType": "address",
          "name": "",
          "type": "address"
        }
      ],
      "name": "tokenFeeds",
      "outputs": [
        {
          "internalType": "address",
          "name": "",
          "type": "address"
        }
      ],
      "stateMutability": "view",
      "type": "function",
      "constant": true
    },
    {
      "inputs": [],
      "name": "unpause",
      "outputs": [],
      "stateMutability": "nonpayable",
      "type": "function"
    },
    {
      "inputs": [],
      "name": "weightedPoolNoAMFactory",
      "outputs": [
        {
          "internalType": "contract WeightedPoolNoAMFactory",
          "name": "",
          "type": "address"
        }
      ],
      "stateMutability": "view",
      "type": "function",
      "constant": true
    },
    {
      "inputs": [
        {
          "internalType": "address",
          "name": "",
          "type": "address"
        }
      ],
      "name": "weightedPools",
      "outputs": [
        {
          "internalType": "string",
          "name": "poolName",
          "type": "string"
        },
        {
          "internalType": "string",
          "name": "poolSymbol",
          "type": "string"
        },
        {
          "internalType": "uint256",
          "name": "tolerance",
          "type": "uint256"
        }
      ],
      "stateMutability": "view",
      "type": "function",
      "constant": true
    },
    {
      "inputs": [
        {
          "internalType": "address",
          "name": "recipientAddress",
          "type": "address"
        },
        {
          "internalType": "address",
          "name": "tokenAddress",
          "type": "address"
        },
        {
          "internalType": "uint256",
          "name": "amount",
          "type": "uint256"
        }
      ],
      "name": "withdrawFunds",
      "outputs": [],
      "stateMutability": "nonpayable",
      "type": "function"
    },
    {
      "inputs": [
        {
          "internalType": "address",
          "name": "poolAddress",
          "type": "address"
        }
      ],
      "name": "runCheck",
      "outputs": [],
      "stateMutability": "nonpayable",
      "type": "function"
    }
  ],
  "bytecode": "0x60c0604052600780546001600160a01b0319908116735772a773b3779b373bf11d1070f39569f50d37d3179091556008805490911673ef4229c8c3250c675f21bcefa42f58efbff6002a1790553480156200005957600080fd5b5060405162003a7838038062003a788339810160408190526200007c9162000269565b60016000818155815460ff1990811683556001600160601b0319606095861b81166080523383526003602090815260408420805490931690941790915560049092527f4f03f9165518d56b1edfdd10086a224460eb561524700361535e7e33be96dcdb80546001600160a01b031990811673128fe88eaa22bffb868bb3a584a54c96ee24014b179091557f7c0f9c8dca1139a9f62829fbc69c87f447f6c9d58f7b4cca1418da9c87a8886180548216730568fd19986748ceff3301e55c0eb1e729e0ab7e1790557f5bb005e3c44990943f9b77709d1ca1ed9bc660cfbf374a504a6d191a3edaa5c380548216731fcd30a73d67639c1cd89ff5746e7585731c083b1790557f47691a5a6d629e9672ee2df080468d466c301da2a465fe573fd65a3c84d15c8a80548216733d207061dbe8e2473527611bfecb87ff12b28dda1790557fdeddb9e6b2d07a6e07e891c0bf84c802545673dccadf7dfa9df5ab9b45c998c88054821673c7a353bae210aed958a1a2928b654938ec59dab290811790915573765de816845861e75a25fca122bb6898b8b1282a9092527f111782fcfedc149ae0e36a4b3c73c65d2ec6beb9ec22baa78847f872ce963ec880549091169091179055911b1660a052620002a0565b80516001600160a01b03811681146200026457600080fd5b919050565b600080604083850312156200027c578182fd5b62000287836200024c565b915062000297602084016200024c565b90509250929050565b60805160601c60a05160601c613782620002f6600039600081816123ac01526125000152600081816105e70152818161068f01528181611372015281816113fd0152818161173701526117df01526137826000f3fe608060405234801561001057600080fd5b506004361061012c5760003560e01c806387ef019a116100ad578063d02641a011610071578063d02641a014610263578063d62e368114610283578063d87ac65f146102a5578063db1bc87b146102b8578063f3ae2415146102cb5761012c565b806387ef019a146102025780638c0a2e831461021557806395994ef71461022a578063ac18de431461023d578063cb3e65f8146102505761012c565b80634f6300a2116100f45780634f6300a21461019d5780634fed9acd146101b05780635c975abb146101d05780638456cb59146101e55780638722081a146101ed5761012c565b80631c20fadd146101315780632d06177a146101465780633f4ba83a1461015957806342862f2a146101615780634e4858d91461018a575b600080fd5b61014461013f366004612dc3565b6102de565b005b610144610154366004612d53565b6103af565b610144610461565b61017461016f366004612d53565b61049a565b60405161018191906134d3565b60405180910390f35b610144610198366004612d53565b61126d565b6101446101ab366004612ff9565b61147a565b6101c36101be366004612d53565b6115ea565b60405161018191906135a9565b6101d86122ab565b6040516101819190613243565b6101446122b4565b6101f56122eb565b6040516101819190613230565b610144610210366004612d8b565b61234d565b61021d6123aa565b60405161018191906131c5565b610144610238366004612d53565b6123ce565b61014461024b366004612d53565b61241f565b61014461025e366004612f40565b6124a7565b610276610271366004612d53565b612676565b604051610181919061324e565b610296610291366004612d53565b612736565b60405161018193929190613304565b61021d6102b3366004612d53565b612868565b6101446102c6366004612d53565b612883565b6101d86102d9366004612d53565b6128d4565b3360009081526003602052604090205460ff166103165760405162461bcd60e51b815260040161030d906133bb565b60405180910390fd5b61031e6128e9565b60405163a9059cbb60e01b815282906001600160a01b0382169063a9059cbb9061034e9087908690600401613217565b602060405180830381600087803b15801561036857600080fd5b505af115801561037c573d6000803e3d6000fd5b505050506040513d601f19601f820116820180604052508101906103a09190612f08565b50506103aa612913565b505050565b3360009081526003602052604090205460ff166103de5760405162461bcd60e51b815260040161030d906133bb565b6001600160a01b0381166104045760405162461bcd60e51b815260040161030d90613368565b6001600160a01b03811660009081526003602052604090205460ff161561043d5760405162461bcd60e51b815260040161030d9061340f565b6001600160a01b03166000908152600360205260409020805460ff19166001179055565b3360009081526003602052604090205460ff166104905760405162461bcd60e51b815260040161030d906133bb565b61049861291a565b565b6104a2612a24565b3360009081526003602052604090205460ff166104d15760405162461bcd60e51b815260040161030d906133bb565b6104d961296c565b60008290506000816001600160a01b03166338fff2d06040518163ffffffff1660e01b815260040160206040518083038186803b15801561051957600080fd5b505afa15801561052d573d6000803e3d6000fd5b505050506040513d601f19601f820116820180604052508101906105519190612f28565b90506000600760009054906101000a90046001600160a01b031690506000816001600160a01b03166338fff2d06040518163ffffffff1660e01b815260040160206040518083038186803b1580156105a857600080fd5b505afa1580156105bc573d6000803e3d6000fd5b505050506040513d601f19601f820116820180604052508101906105e09190612f28565b90506000807f00000000000000000000000000000000000000000000000000000000000000006001600160a01b031663f94d4668866040518263ffffffff1660e01b8152600401610631919061324e565b60006040518083038186803b15801561064957600080fd5b505afa15801561065d573d6000803e3d6000fd5b505050506040513d6000823e601f3d908101601f191682016040526106859190810190612e03565b50915091506000807f00000000000000000000000000000000000000000000000000000000000000006001600160a01b031663f94d4668866040518263ffffffff1660e01b81526004016106d9919061324e565b60006040518083038186803b1580156106f157600080fd5b505afa158015610705573d6000803e3d6000fd5b505050506040513d6000823e601f3d908101601f1916820160405261072d9190810190612e03565b509150915061073a612a24565b866001600160a01b031663f89f27ed6040518163ffffffff1660e01b815260040160006040518083038186803b15801561077357600080fd5b505afa158015610787573d6000803e3d6000fd5b505050506040513d6000823e601f3d908101601f191682016040526107af9190810190612ece565b815284516001600160401b038111156107d857634e487b7160e01b600052604160045260246000fd5b604051908082528060200260200182016040528015610801578160200160208202803683370190505b50604082015282516001600160401b0381111561082e57634e487b7160e01b600052604160045260246000fd5b604051908082528060200260200182016040528015610857578160200160208202803683370190505b50606082015284516001600160401b0381111561088457634e487b7160e01b600052604160045260246000fd5b6040519080825280602002602001820160405280156108ad578160200160208202803683370190505b50602082015282516001600160401b038111156108da57634e487b7160e01b600052604160045260246000fd5b604051908082528060200260200182016040528015610903578160200160208202803683370190505b5060c082015260005b85518110156109865761094586828151811061093857634e487b7160e01b600052603260045260246000fd5b6020026020010151612676565b8260400151828151811061096957634e487b7160e01b600052603260045260246000fd5b60209081029190910101528061097e816136d6565b91505061090c565b5060005b83518110156109f7576109b684828151811061093857634e487b7160e01b600052603260045260246000fd5b826060015182815181106109da57634e487b7160e01b600052603260045260246000fd5b6020908102919091010152806109ef816136d6565b91505061098a565b5060005b8351811015610de65760085484516001600160a01b0390911690859083908110610a3557634e487b7160e01b600052603260045260246000fd5b60200260200101516001600160a01b031614610cb357825160019081908190600090879086908110610a7757634e487b7160e01b600052603260045260246000fd5b60200260200101511115610b5e57610aea85600001518581518110610aac57634e487b7160e01b600052603260045260246000fd5b6020026020010151878681518110610ad457634e487b7160e01b600052603260045260246000fd5b602002602001015161299190919063ffffffff16565b9150610b4f8560000151600281518110610b1457634e487b7160e01b600052603260045260246000fd5b6020026020010151610b49670de0b6b3a764000089600281518110610ad457634e487b7160e01b600052603260045260246000fd5b90612991565b9050610b5b81836129a4565b92505b73baab46e28388d2779e6e31fd00cf0e5ad95e327b6001600160a01b0316878581518110610b9c57634e487b7160e01b600052603260045260246000fd5b60200260200101516001600160a01b031614610bc857610bc16402540be40084613645565b9250610bde565b610bdb68056bc75e2d6310000084613645565b92505b8260056000898781518110610c0357634e487b7160e01b600052603260045260246000fd5b60200260200101516001600160a01b03166001600160a01b031681526020019081526020016000208190555084606001518481518110610c5357634e487b7160e01b600052603260045260246000fd5b602002602001015160066000898781518110610c7f57634e487b7160e01b600052603260045260246000fd5b60200260200101516001600160a01b03166001600160a01b0316815260200190815260200160002081905550505050610d58565b600160056000868481518110610cd957634e487b7160e01b600052603260045260246000fd5b60200260200101516001600160a01b03166001600160a01b0316815260200190815260200160002081905550600160066000868481518110610d2b57634e487b7160e01b600052603260045260246000fd5b60200260200101516001600160a01b03166001600160a01b03168152602001908152602001600020819055505b60056000858381518110610d7c57634e487b7160e01b600052603260045260246000fd5b60200260200101516001600160a01b03166001600160a01b03168152602001908152602001600020548260c001518281518110610dc957634e487b7160e01b600052603260045260246000fd5b602090810291909101015280610dde816136d6565b9150506109fb565b5060015b8551811015610f965760056000878381518110610e1757634e487b7160e01b600052603260045260246000fd5b60200260200101516001600160a01b03166001600160a01b031681526020019081526020016000205482604001518281518110610e6457634e487b7160e01b600052603260045260246000fd5b602002602001015110610f5157610f1c60056000888481518110610e9857634e487b7160e01b600052603260045260246000fd5b60200260200101516001600160a01b03166001600160a01b031681526020019081526020016000205460066000898581518110610ee557634e487b7160e01b600052603260045260246000fd5b60200260200101516001600160a01b03166001600160a01b03168152602001908152602001600020546129b090919063ffffffff16565b82602001518281518110610f4057634e487b7160e01b600052603260045260246000fd5b602002602001018181525050610f84565b600082602001518281518110610f7757634e487b7160e01b600052603260045260246000fd5b6020026020010181815250505b80610f8e816136d6565b915050610dea565b5084516001600160401b03811115610fbe57634e487b7160e01b600052604160045260246000fd5b604051908082528060200260200182016040528015610fe7578160200160208202803683370190505b50608082015284516001600160401b0381111561101457634e487b7160e01b600052604160045260246000fd5b60405190808252806020026020018201604052801561103d578160200160208202803683370190505b5060a082015261104b612a61565b6001600160a01b038c166000908152600260208190526040808320909101549083015280805b88518110156111cf578360400151856020015182815181106110a357634e487b7160e01b600052603260045260246000fd5b60200260200101511261111c576110e360646110dd86604001518b8581518110610ad457634e487b7160e01b600052603260045260246000fd5b906129a4565b8560a00151828151811061110757634e487b7160e01b600052603260045260246000fd5b602002602001018181525050600191506111bd565b836040015161112a906136f1565b8560200151828151811061114e57634e487b7160e01b600052603260045260246000fd5b6020026020010151136111bd5761118860646110dd86604001518b8581518110610ad457634e487b7160e01b600052603260045260246000fd5b856080015182815181106111ac57634e487b7160e01b600052603260045260246000fd5b602002602001018181525050600192505b806111c7816136d6565b915050611071565b5060006111db896129bc565b9050811561121a576040805160808101825282815260a08701516020808301919091528251908101835260008152918101919091526001606082015284525b821561125857604080516080808201835283825287015160208083019190915282518082018452600081529282019290925260016060820152908501525b50929b5050505050505050505050505b919050565b3360009081526003602052604090205460ff1661129c5760405162461bcd60e51b815260040161030d906133bb565b6112a46128e9565b60006112af826115ea565b6020808201518101515182519091015151919250151590151581806112d15750805b1561146c5760008490506000816001600160a01b03166338fff2d06040518163ffffffff1660e01b815260040160206040518083038186803b15801561131657600080fd5b505afa15801561132a573d6000803e3d6000fd5b505050506040513d601f19601f8201168201806040525081019061134e9190612f28565b905083156113de57602085015160405163172b958560e31b81526001600160a01b037f0000000000000000000000000000000000000000000000000000000000000000169163b95cac28916113ab91859130918c91600401613257565b600060405180830381600087803b1580156113c557600080fd5b505af11580156113d9573d6000803e3d6000fd5b505050505b8215611469578451604051638bdb391360e01b81526001600160a01b037f00000000000000000000000000000000000000000000000000000000000000001691638bdb39139161143691859130918c91600401613257565b600060405180830381600087803b15801561145057600080fd5b505af1158015611464573d6000803e3d6000fd5b505050505b50505b505050611477612913565b50565b3360009081526003602052604090205460ff166114a95760405162461bcd60e51b815260040161030d906133bb565b6114b16128e9565b604051636eb1769f60e11b815282908290819083906001600160a01b0383169063dd62ed3e906114e790339030906004016131d9565b60206040518083038186803b1580156114ff57600080fd5b505afa158015611513573d6000803e3d6000fd5b505050506040513d601f19601f820116820180604052508101906115379190612f28565b10156115555760405162461bcd60e51b815260040161030d90613446565b6040516323b872dd60e01b815284906001600160a01b038216906323b872dd9061158790339030908b906004016131f3565b602060405180830381600087803b1580156115a157600080fd5b505af11580156115b5573d6000803e3d6000fd5b505050506040513d601f19601f820116820180604052508101906115d99190612f08565b50505050506115e6612913565b5050565b6115f2612a61565b3360009081526003602052604090205460ff166116215760405162461bcd60e51b815260040161030d906133bb565b61162961296c565b60008290506000816001600160a01b03166338fff2d06040518163ffffffff1660e01b815260040160206040518083038186803b15801561166957600080fd5b505afa15801561167d573d6000803e3d6000fd5b505050506040513d601f19601f820116820180604052508101906116a19190612f28565b90506000600760009054906101000a90046001600160a01b031690506000816001600160a01b03166338fff2d06040518163ffffffff1660e01b815260040160206040518083038186803b1580156116f857600080fd5b505afa15801561170c573d6000803e3d6000fd5b505050506040513d601f19601f820116820180604052508101906117309190612f28565b90506000807f00000000000000000000000000000000000000000000000000000000000000006001600160a01b031663f94d4668866040518263ffffffff1660e01b8152600401611781919061324e565b60006040518083038186803b15801561179957600080fd5b505afa1580156117ad573d6000803e3d6000fd5b505050506040513d6000823e601f3d908101601f191682016040526117d59190810190612e03565b50915091506000807f00000000000000000000000000000000000000000000000000000000000000006001600160a01b031663f94d4668866040518263ffffffff1660e01b8152600401611829919061324e565b60006040518083038186803b15801561184157600080fd5b505afa158015611855573d6000803e3d6000fd5b505050506040513d6000823e601f3d908101601f1916820160405261187d9190810190612e03565b509150915061188a612a24565b866001600160a01b031663f89f27ed6040518163ffffffff1660e01b815260040160006040518083038186803b1580156118c357600080fd5b505afa1580156118d7573d6000803e3d6000fd5b505050506040513d6000823e601f3d908101601f191682016040526118ff9190810190612ece565b815284516001600160401b0381111561192857634e487b7160e01b600052604160045260246000fd5b604051908082528060200260200182016040528015611951578160200160208202803683370190505b50604082015282516001600160401b0381111561197e57634e487b7160e01b600052604160045260246000fd5b6040519080825280602002602001820160405280156119a7578160200160208202803683370190505b50606082015284516001600160401b038111156119d457634e487b7160e01b600052604160045260246000fd5b6040519080825280602002602001820160405280156119fd578160200160208202803683370190505b50602082015282516001600160401b03811115611a2a57634e487b7160e01b600052604160045260246000fd5b604051908082528060200260200182016040528015611a53578160200160208202803683370190505b5060c082015260005b8551811015611ac957611a8886828151811061093857634e487b7160e01b600052603260045260246000fd5b82604001518281518110611aac57634e487b7160e01b600052603260045260246000fd5b602090810291909101015280611ac1816136d6565b915050611a5c565b5060005b8351811015611b3a57611af984828151811061093857634e487b7160e01b600052603260045260246000fd5b82606001518281518110611b1d57634e487b7160e01b600052603260045260246000fd5b602090810291909101015280611b32816136d6565b915050611acd565b5060005b8351811015611eb05760085484516001600160a01b0390911690859083908110611b7857634e487b7160e01b600052603260045260246000fd5b60200260200101516001600160a01b031614611d7d57825160019081908190600090879086908110611bba57634e487b7160e01b600052603260045260246000fd5b60200260200101511115611c2857611bef85600001518581518110610aac57634e487b7160e01b600052603260045260246000fd5b9150611c198560000151600281518110610b1457634e487b7160e01b600052603260045260246000fd5b9050611c2581836129a4565b92505b73baab46e28388d2779e6e31fd00cf0e5ad95e327b6001600160a01b0316878581518110611c6657634e487b7160e01b600052603260045260246000fd5b60200260200101516001600160a01b031614611c9257611c8b6402540be40084613645565b9250611ca8565b611ca568056bc75e2d6310000084613645565b92505b8260056000898781518110611ccd57634e487b7160e01b600052603260045260246000fd5b60200260200101516001600160a01b03166001600160a01b031681526020019081526020016000208190555084606001518481518110611d1d57634e487b7160e01b600052603260045260246000fd5b602002602001015160066000898781518110611d4957634e487b7160e01b600052603260045260246000fd5b60200260200101516001600160a01b03166001600160a01b0316815260200190815260200160002081905550505050611e22565b600160056000868481518110611da357634e487b7160e01b600052603260045260246000fd5b60200260200101516001600160a01b03166001600160a01b0316815260200190815260200160002081905550600160066000868481518110611df557634e487b7160e01b600052603260045260246000fd5b60200260200101516001600160a01b03166001600160a01b03168152602001908152602001600020819055505b60056000858381518110611e4657634e487b7160e01b600052603260045260246000fd5b60200260200101516001600160a01b03166001600160a01b03168152602001908152602001600020548260c001518281518110611e9357634e487b7160e01b600052603260045260246000fd5b602090810291909101015280611ea8816136d6565b915050611b3e565b5060015b8551811015611fdc5760056000878381518110611ee157634e487b7160e01b600052603260045260246000fd5b60200260200101516001600160a01b03166001600160a01b031681526020019081526020016000205482604001518281518110611f2e57634e487b7160e01b600052603260045260246000fd5b602002602001015110611f9757611f6260056000888481518110610e9857634e487b7160e01b600052603260045260246000fd5b82602001518281518110611f8657634e487b7160e01b600052603260045260246000fd5b602002602001018181525050611fca565b600082602001518281518110611fbd57634e487b7160e01b600052603260045260246000fd5b6020026020010181815250505b80611fd4816136d6565b915050611eb4565b5084516001600160401b0381111561200457634e487b7160e01b600052604160045260246000fd5b60405190808252806020026020018201604052801561202d578160200160208202803683370190505b50608082015284516001600160401b0381111561205a57634e487b7160e01b600052604160045260246000fd5b604051908082528060200260200182016040528015612083578160200160208202803683370190505b5060a0820152612091612a61565b6001600160a01b038c166000908152600260208190526040808320909101549083015280805b885181101561220f578360400151856020015182815181106120e957634e487b7160e01b600052603260045260246000fd5b60200260200101511261215c5761212360646110dd86604001518b8581518110610ad457634e487b7160e01b600052603260045260246000fd5b8560a00151828151811061214757634e487b7160e01b600052603260045260246000fd5b602002602001018181525050600191506121fd565b836040015161216a906136f1565b8560200151828151811061218e57634e487b7160e01b600052603260045260246000fd5b6020026020010151136121fd576121c860646110dd86604001518b8581518110610ad457634e487b7160e01b600052603260045260246000fd5b856080015182815181106121ec57634e487b7160e01b600052603260045260246000fd5b602002602001018181525050600192505b80612207816136d6565b9150506120b7565b50600061221b896129bc565b9050811561225a576040805160808101825282815260a08701516020808301919091528251908101835260008152918101919091526001606082015284525b821561229857604080516080808201835283825287015160208083019190915282518082018452600081529282019290925260016060820152908501525b50919d9c50505050505050505050505050565b60015460ff1690565b3360009081526003602052604090205460ff166122e35760405162461bcd60e51b815260040161030d906133bb565b6104986129bf565b6060600980548060200260200160405190810160405280929190818152602001828054801561234357602002820191906000526020600020905b81546001600160a01b03168152600190910190602001808311612325575b5050505050905090565b3360009081526003602052604090205460ff1661237c5760405162461bcd60e51b815260040161030d906133bb565b6001600160a01b03918216600090815260046020526040902080546001600160a01b03191691909216179055565b7f000000000000000000000000000000000000000000000000000000000000000081565b3360009081526003602052604090205460ff166123fd5760405162461bcd60e51b815260040161030d906133bb565b600780546001600160a01b0319166001600160a01b0392909216919091179055565b3360009081526003602052604090205460ff1661244e5760405162461bcd60e51b815260040161030d906133bb565b6001600160a01b03811660009081526003602052604090205460ff166124865760405162461bcd60e51b815260040161030d90613465565b6001600160a01b03166000908152600360205260409020805460ff19169055565b3360009081526003602052604090205460ff166124d65760405162461bcd60e51b815260040161030d906133bb565b6124de61296c565b6124e66128e9565b60405163fbce039360e01b81526000906001600160a01b037f0000000000000000000000000000000000000000000000000000000000000000169063fbce03939061253f908a908a908a908a908a903090600401613293565b602060405180830381600087803b15801561255957600080fd5b505af115801561256d573d6000803e3d6000fd5b505050506040513d601f19601f820116820180604052508101906125919190612d6f565b60098054600181019091557f6e1540171b6c0c960b71a7020d9f60077f6af931a8bbf590da0223dacf75c7af0180546001600160a01b0319166001600160a01b038316908117909155600090815260026020908152604090912089519293506125fe9290918a0190612a8e565b506001600160a01b0381166000908152600260209081526040909120875161262e92600190920191890190612a8e565b506001600160a01b0381166000908152600260208181526040909220908101849055865161266492600390920191880190612b12565b505061266e612913565b505050505050565b6001600160a01b03808216600090815260046020526040812054909116806126b05760405162461bcd60e51b815260040161030d906133e2565b60008190506000816001600160a01b031663feaf968c6040518163ffffffff1660e01b815260040160a06040518083038186803b1580156126f057600080fd5b505afa158015612704573d6000803e3d6000fd5b505050506040513d601f19601f82011682018060405250810190612728919061301d565b509198975050505050505050565b6002602052600090815260409020805481906127519061369b565b80601f016020809104026020016040519081016040528092919081815260200182805461277d9061369b565b80156127ca5780601f1061279f576101008083540402835291602001916127ca565b820191906000526020600020905b8154815290600101906020018083116127ad57829003601f168201915b5050505050908060010180546127df9061369b565b80601f016020809104026020016040519081016040528092919081815260200182805461280b9061369b565b80156128585780601f1061282d57610100808354040283529160200191612858565b820191906000526020600020905b81548152906001019060200180831161283b57829003601f168201915b5050505050908060020154905083565b6004602052600090815260409020546001600160a01b031681565b3360009081526003602052604090205460ff166128b25760405162461bcd60e51b815260040161030d906133bb565b600880546001600160a01b0319166001600160a01b0392909216919091179055565b60036020526000908152604090205460ff1681565b6002600054141561290c5760405162461bcd60e51b815260040161030d9061349c565b6002600055565b6001600055565b6129226129fc565b6001805460ff191690557f5db9ee0a495bf2e6ff9c91a7834c1ba4fdd244a5e8aa4e537bd38aeae4b073aa612955612a20565b60405161296291906131c5565b60405180910390a1565b6129746122ab565b156104985760405162461bcd60e51b815260040161030d90613391565b600061299d8284613665565b9392505050565b600061299d8284613645565b600061299d8284613684565b90565b6129c761296c565b6001805460ff1916811790557f62e78cea01bee320cd4e420270b5ea74000d11b0c9f74754ebdbfc544b05a258612955612a20565b612a046122ab565b6104985760405162461bcd60e51b815260040161030d9061333a565b3390565b6040518060e00160405280606081526020016060815260200160608152602001606081526020016060815260200160608152602001606081525090565b6040518060600160405280612a74612b67565b8152602001612a81612b67565b8152602001600081525090565b828054612a9a9061369b565b90600052602060002090601f016020900481019282612abc5760008555612b02565b82601f10612ad557805160ff1916838001178555612b02565b82800160010185558215612b02579182015b82811115612b02578251825591602001919060010190612ae7565b50612b0e929150612b91565b5090565b828054828255906000526020600020908101928215612b02579160200282015b82811115612b0257825182546001600160a01b0319166001600160a01b03909116178255602090920191600190910190612b32565b60405180608001604052806060815260200160608152602001606081526020016000151581525090565b5b80821115612b0e5760008155600101612b92565b600082601f830112612bb6578081fd5b81356020612bcb612bc683613622565b6135f9565b8281528181019085830183850287018401881015612be7578586fd5b855b85811015612c0e578135612bfc81613737565b84529284019290840190600101612be9565b5090979650505050505050565b600082601f830112612c2b578081fd5b81356020612c3b612bc683613622565b8281528181019085830183850287018401881015612c57578586fd5b855b85811015612c0e57813584529284019290840190600101612c59565b600082601f830112612c85578081fd5b81516020612c95612bc683613622565b8281528181019085830183850287018401881015612cb1578586fd5b855b85811015612c0e57815184529284019290840190600101612cb3565b600082601f830112612cdf578081fd5b81356001600160401b03811115612cf857612cf8613721565b612d0b601f8201601f19166020016135f9565b818152846020838601011115612d1f578283fd5b816020850160208301379081016020019190915292915050565b805169ffffffffffffffffffff8116811461126857600080fd5b600060208284031215612d64578081fd5b813561299d81613737565b600060208284031215612d80578081fd5b815161299d81613737565b60008060408385031215612d9d578081fd5b8235612da881613737565b91506020830135612db881613737565b809150509250929050565b600080600060608486031215612dd7578081fd5b8335612de281613737565b92506020840135612df281613737565b929592945050506040919091013590565b600080600060608486031215612e17578283fd5b83516001600160401b0380821115612e2d578485fd5b818601915086601f830112612e40578485fd5b81516020612e50612bc683613622565b82815281810190858301838502870184018c1015612e6c57898afd5b8996505b84871015612e97578051612e8381613737565b835260019690960195918301918301612e70565b5091890151919750909350505080821115612eb0578384fd5b50612ebd86828701612c75565b925050604084015190509250925092565b600060208284031215612edf578081fd5b81516001600160401b03811115612ef4578182fd5b612f0084828501612c75565b949350505050565b600060208284031215612f19578081fd5b8151801515811461299d578182fd5b600060208284031215612f39578081fd5b5051919050565b60008060008060008060c08789031215612f58578384fd5b86356001600160401b0380821115612f6e578586fd5b612f7a8a838b01612ccf565b97506020890135915080821115612f8f578586fd5b612f9b8a838b01612ccf565b96506040890135915080821115612fb0578586fd5b612fbc8a838b01612ba6565b95506060890135915080821115612fd1578384fd5b50612fde89828a01612c1b565b9350506080870135915060a087013590509295509295509295565b6000806040838503121561300b578182fd5b823591506020830135612db881613737565b600080600080600060a08688031215613034578283fd5b61303d86612d39565b945060208601519350604086015192506060860151915061306060808701612d39565b90509295509295909350565b6000815180845260208085019450808401835b838110156130a45781516001600160a01b03168752958201959082019060010161307f565b509495945050505050565b6000815180845260208085019450808401835b838110156130a4578151875295820195908201906001016130c2565b15159052565b60008151808452815b81811015613109576020818501810151868301820152016130ed565b8181111561311a5782602083870101525b50601f01601f19169290920160200192915050565b8051608080845281519084018190526000916020919082019060a0860190845b818110156131745783516001600160a01b03168352928401929184019160010161314f565b50508285015191508581038387015261318d81836130af565b92505050604083015184820360408601526131a882826130e4565b91505060608301516131bd60608601826130de565b509392505050565b6001600160a01b0391909116815260200190565b6001600160a01b0392831681529116602082015260400190565b6001600160a01b039384168152919092166020820152604081019190915260600190565b6001600160a01b03929092168252602082015260400190565b60006020825261299d602083018461306c565b901515815260200190565b90815260200190565b8481526001600160a01b038481166020830152831660408201526080606082018190526000906132899083018461312f565b9695505050505050565b600060c082526132a660c08301896130e4565b82810360208401526132b881896130e4565b905082810360408401526132cc818861306c565b905082810360608401526132e081876130af565b608084019590955250506001600160a01b039190911660a090910152949350505050565b60006060825261331760608301866130e4565b828103602084015261332981866130e4565b915050826040830152949350505050565b60208082526014908201527314185d5cd8589b194e881b9bdd081c185d5cd95960621b604082015260600190565b6020808252600f908201526e496e76616c6964206164647265737360881b604082015260600190565b60208082526010908201526f14185d5cd8589b194e881c185d5cd95960821b604082015260600190565b6020808252600d908201526c2737ba10309036b0b730b3b2b960991b604082015260600190565b602080825260139082015272151bdad95b881b9bdd081cdd5c1c1bdc9d1959606a1b604082015260600190565b6020808252601c908201527f4164647265737320697320616c72656164792061206d616e6167657200000000604082015260600190565b60208082526005908201526422b93937b960d91b604082015260600190565b60208082526017908201527f416464726573732069736e27742061206d616e61676572000000000000000000604082015260600190565b6020808252601f908201527f5265656e7472616e637947756172643a207265656e7472616e742063616c6c00604082015260600190565b600060208252825160e060208401526134f06101008401826130af565b90506020840151601f198085840301604086015261350e83836130af565b9250604086015191508085840301606086015261352b83836130af565b9250606086015191508085840301608086015261354883836130af565b925060808601519150808584030160a086015261356583836130af565b925060a08601519150808584030160c086015261358283836130af565b925060c08601519150808584030160e0860152506135a082826130af565b95945050505050565b6000602082528251606060208401526135c5608084018261312f565b90506020840151601f198483030160408501526135e2828261312f565b915050604084015160608401528091505092915050565b6040518181016001600160401b038111828210171561361a5761361a613721565b604052919050565b60006001600160401b0382111561363b5761363b613721565b5060209081020190565b60008261366057634e487b7160e01b81526012600452602481fd5b500490565b600081600019048311821515161561367f5761367f61370b565b500290565b6000828210156136965761369661370b565b500390565b6002810460018216806136af57607f821691505b602082108114156136d057634e487b7160e01b600052602260045260246000fd5b50919050565b60006000198214156136ea576136ea61370b565b5060010190565b6000600160ff1b8214156137075761370761370b565b0390565b634e487b7160e01b600052601160045260246000fd5b634e487b7160e01b600052604160045260246000fd5b6001600160a01b038116811461147757600080fdfea2646970667358221220bc96cdd1d38783a535fa2bc8436764284b76b6b79e008ee063cd3742b6f98f0664736f6c63430008000033",
  "immutableReferences": {
    "1954": [
      {
        "length": 32,
        "start": 9132
      },
      {
        "length": 32,
        "start": 9472
      }
    ],
    "2243": [
      {
        "length": 32,
        "start": 1511
      },
      {
        "length": 32,
        "start": 1679
      },
      {
        "length": 32,
        "start": 4978
      },
      {
        "length": 32,
        "start": 5117
      },
      {
        "length": 32,
        "start": 5943
      },
      {
        "length": 32,
        "start": 6111
      }
    ]
  },
  "source": "// SPDX-License-Identifier: MIT\n\npragma solidity ^0.8.0;\n\nimport \"./base/BaseWeightedController.sol\";\nimport \"./lib/SupportLib.sol\";\n\ncontract WeightedBondingCurveController is BaseWeightedController {\n\n    /**\n     * @notice Constructor for the controller implementation class\n     *\n     * @param vaultAddress - Vault contract address\n     * @param supportedWeightedPoolNoAMFactory - Weighted pool contract address\n     */\n    constructor(\n        address vaultAddress,\n        address supportedWeightedPoolNoAMFactory\n    ) BaseWeightedController(vaultAddress, supportedWeightedPoolNoAMFactory) {}\n\n    /**\n     * @notice Runs a check and transfers reserve tokens as needed\n     * @dev To avoid too many fees, this should be run at wide intervals such as daily\n     *\n     * @param poolAddress - Address of pool being worked on.\n     */\n    function runCheck(address poolAddress) external onlyManager nonReentrant {\n        PoolAdjustments memory poolAdjustments = calculateBalancing(poolAddress);\n        \n        // Boolean flags can make the code clearer and more optimized.\n        bool shouldJoin = poolAdjustments.newJoinRequest.maxAmountsIn.length > 0;\n        bool shouldExit = poolAdjustments.newExitRequest.minAmountsOut.length > 0;\n\n        if (shouldJoin || shouldExit) {\n            IWeightedPool weightedPool = IWeightedPool(poolAddress);\n            bytes32 poolId = weightedPool.getPoolId();\n\n            if (shouldJoin) {\n                vault.joinPool(\n                    poolId,\n                    address(this),\n                    payable(poolAddress),\n                    poolAdjustments.newJoinRequest\n                );\n            }\n\n            if (shouldExit) {\n                vault.exitPool(\n                    poolId,\n                    address(this),\n                    payable(poolAddress),\n                    poolAdjustments.newExitRequest\n                );\n            }\n        }\n    }\n}\n",
  "sourcePath": "/home/eagle/Source/BalancerController/Balancer.Controller/contracts/WeightedBondingCurveController.sol",
  "compiler": {
    "name": "solc",
    "version": "0.8.0+commit.c7dfd78e.Emscripten.clang"
  },
  "schemaVersion": "3.4.13",
  "updatedAt": "2023-10-23T15:22:21.275Z",
  "networkType": "ethereum",
  "devdoc": {
    "kind": "dev",
    "methods": {
      "addManager(address)": {
        "params": {
          "manager": "- Manager to add"
        }
      },
      "calculateBalancing(address)": {
        "params": {
          "poolAddress": "- Address of pool being worked on."
        }
      },
      "constructor": {
        "params": {
          "supportedWeightedPoolNoAMFactory": "- Weighted pool contract address",
          "vaultAddress": "- Vault contract address"
        }
      },
      "createPool(string,string,address[],uint256[],uint256,uint256)": {
        "params": {
          "name": "- Pool name",
          "normalizedWeights": "- Normalized weights in the pool",
          "swapFeePercentage": "- Fee applied to swaps",
          "symbol": "- Symbol representing the pool",
          "tokens": "- Tokens in the pool",
          "tolerance": "- Percentage devience"
        }
      },
      "depositTokens(uint256,address)": {
        "details": "Transfers an amount of an ERC20 token",
        "params": {
          "amount": "- Amount to deposit.",
          "tokenAddress": "- Address of token to be deposited."
        }
      },
      "getTokenPrice(address)": {
        "params": {
          "tokenAddress": "- Token to find a price for"
        }
      },
      "paused()": {
        "details": "Returns true if the contract is paused, and false otherwise."
      },
      "removeManager(address)": {
        "params": {
          "manager": "- Manager to remove"
        }
      },
      "runCheck(address)": {
        "details": "To avoid too many fees, this should be run at wide intervals such as daily",
        "params": {
          "poolAddress": "- Address of pool being worked on."
        }
      },
      "setReferencePool(address)": {
        "params": {
          "poolAddress": "- Reference pool address"
        }
      },
      "setStableToken(address)": {
        "params": {
          "stableToken": "- Stable token address"
        }
      },
      "setTokenFeed(address,address)": {
        "params": {
          "feed": "- Oracle feed address",
          "token": "- Token address"
        }
      },
      "withdrawFunds(address,address,uint256)": {
        "details": "Transfers an amount of an ERC20 token",
        "params": {
          "amount": "- Amount to withdraw.",
          "recipientAddress": "- Address of wallet receiving funds.",
          "tokenAddress": "- Address of token to be withdrawn."
        }
      }
    },
    "version": 1
  },
  "userdoc": {
    "kind": "user",
    "methods": {
      "addManager(address)": {
        "notice": "Add a new manager to the collection of managers"
      },
      "calculateBalancing(address)": {
        "notice": "Calculates a number of tokens to add or remove to rebalance pricing"
      },
      "constructor": {
        "notice": "Constructor for the controller implementation class"
      },
      "createPool(string,string,address[],uint256[],uint256,uint256)": {
        "notice": "Create a new weighted pool"
      },
      "depositTokens(uint256,address)": {
        "notice": "Deposit tokens to controller"
      },
      "getPoolsUnderManagement()": {
        "notice": "returns a list of pools under management by this controller"
      },
      "getTokenPrice(address)": {
        "notice": "returns the oracle supplied price for the requested token"
      },
      "pause()": {
        "notice": "Pause sensitive functions"
      },
      "removeManager(address)": {
        "notice": "Remove a manager to the collection of managers"
      },
      "runCheck(address)": {
        "notice": "Runs a check and transfers reserve tokens as needed"
      },
      "setReferencePool(address)": {
        "notice": "Set a new token oracle feed"
      },
      "setStableToken(address)": {
        "notice": "Set a new token oracle feed"
      },
      "setTokenFeed(address,address)": {
        "notice": "Set a new token oracle feed"
      },
      "unpause()": {
        "notice": "Unpause sensitive functions"
      },
      "withdrawFunds(address,address,uint256)": {
        "notice": "Withdraw tokens from controller"
      }
    },
    "version": 1
  }
}